:020000020000FC
:100000000C94940B189518951895189518951895A3
:100010001895189518951895189518951895189578
:10002000189518950C94D200189518951895189550
:100030001895189518951895189518950C9484038B
:1000400018951895189518950C94C20A0C94F70AEF
:100050001895189518951895189518951895189538
:100060001895189518951895189518951895189528
:100070001895189518951895189518951895189518
:10008000189518951895189518951895010201035B
:10009000010201040102010301020100D9DA20205A
:1000A0002020202020202020202020202020202050
:1000B0002020202020202020202020202020202040
:1000C000202020202020202020202020A2B5202019
:1000D00020202020202020202020202041A042A1DC
:1000E000E045A3A4A5A64BA74D484FA8504354A94B
:1000F000AA58E1ABACE2ADAE62AFB0B161B2B3B49D
:10010000E365B6B7B8B9BABBBCBD6FBE7063BF79A3
:10011000E478E5C0C1E6C2C3C4C5C6C7060909067E
:10012000000000004101050A830901970901AB099C
:1001300001BF0901D30901E70901FB091A79090186
:100140008D0901A10901B50901C90901DD0901F103
:1001500009FB0D02790500E005BD05B5086005BD88
:1001600005B50F7B05BD05B50F7D05BD05B50F7E3A
:1001700005BD05B5046005BD05B50D7F05BD05B51B
:100180000E7F05BD01D0089500E004BD09EF03BD59
:1001900006B70F7706BF06B70F7B06BF07B7006825
:1001A00007BF08959A938A93FA93EA933A922A9210
:1001B0001A920A927A936A935A934A933A932A9399
:1001C0001A930A938FB79BB707B70F7707BF789437
:1001D0000091C3041091C4040E9490070E94180764
:1001E0000E94AB030E94E404CFDF9BBF8FBF099145
:1001F0001991299139914991599169917991099070
:10020000199029903990E991F991899199911895CE
:1002100021970E940607002309F44CC08E010E941A
:100220000C070881013019F400E00093BE04088136
:100230000230D1F500E00093BE0400E010E020E0C1
:1002400030E0EFEBF4E0008311832283338308E195
:100250001CEF00938003109381030091A903109178
:10026000AA0300938403109385030091AB031091BC
:10027000AC03009386031093870300E00830A0F4DA
:10028000202F30E0220F331FF901E756FC4F408149
:100290005181202F30E0220F331FF901E857FC4F26
:1002A000408351830395EACF0881033019F401E0BC
:1002B0000093BE04EFEBF4E04081518162817381D1
:1002C00036E028E10091C3041091C4040E94C808DC
:1002D000409180035091810335E020E00091C304F8
:1002E0001091C4040E94DB08409182035091830363
:1002F00035E026E00091C3041091C4040E94DB089D
:10030000219608950E94620C0091BE040130B0F164
:10031000EFEBF4E000811181228133810F5F1F4FE9
:100320002F4F3F4F00831183228333830091860335
:100330001091870320E030E0EFEBF4E04081518141
:10034000628173810E94CA0B48EE53E060E070E066
:100350000E94EA0BC801D901FC01E85EF340E0937A
:100360008003F09381030091800310918103093A87
:1003700021E612071CF000E00093BE040091800308
:10038000109181032091840330918503021B130B8C
:10039000009382031093830380E08830D8F5082F00
:1003A00010E0000F111FF801E857FC4F0081118188
:1003B000209180033091810302171307ECF4209100
:1003C000820330918303082F10E0000F111FF80102
:1003D000E857FC4F00811181201731076CF420E0B1
:1003E000082F10E0000F111FF801EB53FB4F0081A5
:1003F00011810E946D0A0CC021E0082F10E0000F4F
:10040000111FF801EB53FB4F008111810E946D0A0F
:100410008395C3CFE4E00C946E0C06E210E00E94DA
:10042000790C9801012B41F089010E941E0700936D
:10043000C3041093C404089500E010E00093C304C3
:100440001093C40408950E94AB000E9464030E94AC
:10045000840A0E94F6030E942E0208950DE010E027
:100460000E94790C98018901232B41F060E054E14E
:1004700041E030E026E60E94570902C000E010E0AB
:100480000093C5041093C6040DE010E00E94790C9F
:1004900098018901232B41F061E054E141E031E012
:1004A00026E60E94570902C000E010E00093C7044E
:1004B0001093C8040DE010E00E94790C98018901A6
:1004C000232B41F062E054E141E032E026E60E9455
:1004D000570902C000E010E00093C9041093CA0459
:1004E0000DE010E00E94790C98018901232B41F066
:1004F00063E054E141E033E026E60E94570902C080
:1005000000E010E00093CB041093CC040DE010E069
:100510000E94790C98018901232B41F064E054E199
:1005200041E034E026E60E94570902C000E010E0F6
:100530000093CD041093CE040DE010E00E94790CDE
:1005400098018901232B41F065E054E141E035E059
:1005500026E60E94570902C000E010E00093CF0495
:100560001093D0040DE010E00E94790C98018901ED
:10057000232B41F066E054E141E036E026E60E949C
:10058000570902C000E010E00093D1041093D20498
:100590000DE010E00E94790C98018901232B41F0B5
:1005A00067E054E141E037E026E60E94570902C0C7
:1005B00000E010E00093D3041093D404089508954C
:1005C0000DED14E00E94280B002309F47CC000E02C
:1005D000073060F410E0F801EB52FB4F218110E08E
:1005E000F801EB52FB4F20830395F2CF0091DD041D
:1005F0000093DC040091D504063E09F064C000912C
:10060000D604093109F05FC00091D704002309F036
:100610005AC00091D8040A3008F055C026E030E0F6
:1006200005ED14E00E9412051091DB04101709F08B
:100630004AC000E010E00093DE041093DF04009154
:10064000D9040093DE040091DA040093DF040091E2
:10065000D804083061F44091DE045091DF0434E0A6
:100660002CE00091C3041091C4040E94B7080091CB
:10067000D804083078F42091DE043091DF04009132
:10068000D80410E0000F111FF801E756FC4F20833B
:10069000318308950091D804083049F40091DE04B4
:1006A0001091DF040093A9031093AA030895009109
:1006B000D804093041F40091DE041091DF04009366
:1006C000AB031093AC03089503B70B7F03BF03B7CD
:1006D000026003BF03B7016003BF03B70F7B03BF13
:1006E00003B7086003BF03B70F7D03BF03B70F7ED7
:1006F00003BF03B70F7703BF00E002BF09EF01BFDD
:1007000007B7026007BF08959A938A93FA93EA9312
:100710003A922A921A920A927A936A935A934A9335
:100720003A932A931A930A938FB79BB70E94AC030C
:100730009BBF8FBF09911991299139914991599185
:10074000699179910990199029903990E991F991DD
:1007500089919991189508950E94DF02E0EEF4E0E6
:10076000008111810F5F1F4F008311830091E0040E
:100770001091E104083E23E0120730F000E010E0A1
:100780000093E0041093E1040091E2041091E3046B
:100790000E943D0500919803102F110F110BE2EEFE
:1007A000F4E020813181200F311F208331830091BB
:1007B000980300234AF40091E2041091E304012B12
:1007C00019F401E0009398030091980301305CF064
:1007D0000091E2041091E3040F3F2FEF120719F488
:1007E0000FEF009398030E948201089508952FB798
:1007F000F8012083F8940895F80120812FBF08950F
:10080000DF9ADE9A05E10A95F1F70000DE9805E12E
:100810000A95F1F70000DF980895DE9805E10A9542
:10082000F1F70000DF9A05E10A95F1F70000DE9A82
:100830000895DF9A01E00093F30405E10A95F1F7CA
:100840000000CE9903C000E00093F304DF9805E1B7
:100850000A95F1F700000895DE980E941904DE9AC7
:100860000895DE9A0E9419040895D6980E941904EA
:10087000D69A089500E0D69810E0183078F4DF9A00
:1008800025E12A95F1F70000000FCE990395DF9836
:1008900025E12A95F1F700001395EFCFD69A089538
:1008A0009A938A93902F80E0883050F497FB16F447
:1008B000DE9A01C0DE980E941904990F8395F4CF47
:1008C0008991999108950E94000400EDE9DFCDDF40
:1008D00008959A938A93F7DF00E0E2DFC6DF0E9473
:1008E000000401EDDDDFC1DF80E0883068F4C2DFA5
:1008F00090E0FC01EC51FB4F0083873011F0ACDF3E
:1009000001C0AFDF8395F1CF0E940D0489919991C9
:10091000089521978E010E94F703DBDF0091E40424
:100920000F702091E40422952F701AE0219F000D92
:100930000093EC040091E5040F702091E5042295EA
:100940002F701AE0219F000D0093ED041091E60432
:100950001F700091E60402950F7003702AE0029F59
:10096000100D1093EE040091E70407700093EF045C
:100970001091E8041F700091E80402950F70037055
:100980002AE0029F100D1093F0040091E9040F700B
:10099000E4EEF4E0258124FB20E020F91AE0219F19
:1009A000000D0093F1040091EA040F702091EA0415
:1009B00022952F701AE0219F000D0093F2048E0102
:1009C0000E94FC03219608959A938A938091AD0327
:1009D0009091AE0301978093AD039093AE03892B62
:1009E000F1F408EC10E00093AD031093AE0391DF37
:1009F0000091F40403950093F404023018F000E031
:100A00000093F4040091AF031091EC04011739F046
:100A10000091EC040093AF0301E00093F504899189
:100A2000999108950E94620CD8010FEF80E090E048
:100A30008217930764F410E04C9150E004271527C7
:100A4000F801E055FC4F008111960196F1CFE4E0EA
:100A50000C946E0CC69AC69AC79A949A959ABE9AA6
:100A6000BE9ABF9A8C9A8D9A0FE31CE901501040F0
:100A7000E9F700C0000095980895B80100E010E083
:100A8000BE9ABF9A8C9A8D9AC7982AE02A95F1F758
:100A900000C094982AE02A95F1F700C040E0403168
:100AA00010F577FB16F421E001C020E020FB28B30D
:100AB00026F928BB2AE02A95F1F700C0C79A2AE058
:100AC0002A95F1F700C0000F111FC69B03C00160FB
:100AD00021E030E0C798660F771F2AE02A95F1F7EA
:100AE00000C04395DCCF949A2AE02A95F1F700C024
:100AF000089505E310E00E94790C9801012B39F06C
:100B000089010CD00093F6041093F704089500E0D7
:100B100010E00093F6041093F7040895BA93AA9393
:100B2000D8010DE010E00E94790C98018901232B77
:100B300041F063E050E040E030E027E60E945709D2
:100B400002C000E010E09B960D931C939C970DE073
:100B500010E00E94790C0801012B49F062E050E09E
:100B600040E031E027E680010E94570902C000E022
:100B700010E09D960D931C939E970DE010E00E944F
:100B8000790C0801012B49F061E050E040E032E0CF
:100B900027E680010E94570902C000E010E09F96FE
:100BA0000D931C93D0970DE010E00E94790C080182
:100BB000012B49F060E050E040E033E027E680019F
:100BC0000E94570902C000E010E0D1960D931C93DB
:100BD000D29700E00C9300E011960C93119700E07F
:100BE00093960C93939792960C9392978D01A9915B
:100BF000B99108950E94620CD8019B960D911C91A9
:100C00009C970E945E0A802F9D960D911C919E9745
:100C10000E945E0A902F9F960D911C91D0970E9482
:100C20005E0A892B802BD1960D911C91D2970E9440
:100C30005E0A802BD4968C93D497D4960C91D4973B
:100C4000D3961C91D397011791F00C91043118F4AD
:100C50000C9103950C930C91043178F0D4960C917F
:100C6000D497D3960C93D39700E00C9306C00C91C5
:100C7000013018F00C910A950C93E4E00C946E0C82
:100C80009A938A93C8018C01B5DF8C0103D08991B6
:100C900099910895BA93AA93D801FD0103A910E090
:100CA000F801E457FF4F0491FD0102A7FD01018106
:100CB0000023B1F1FD0103A90F3031F1FD0104A1C1
:100CC00015A10C3B22E0120738F4FD0104A115A187
:100CD0000F5F1F4F04A315A3FD0104A115A10C3B39
:100CE00022E0120780F1FD0106A1023328F4FD0184
:100CF00006A1039506A327C000E0FD0106A3FD01A0
:100D000022A58D0127D01FC000E010E0FD0104A343
:100D100015A300E0FD0106A300E0FD01018313C05F
:100D2000FD0103A90F3079F001E0FD010183FD0110
:100D300022A58D010FD000E010E0FD0104A315A352
:100D400000E0FD0106A3A991B9910895A8012F71B2
:100D5000022F08950E94620CD801922F0FB7FD0157
:100D600007A3F894FD0123A123958D01EFDF802FC8
:100D7000FD0102A1801741F0082F10E0FD01E00FF6
:100D8000F11F9283FD0183A3FD0107A10FBFE4E0E2
:100D90000C946E0C0E94600C2801D90180E00FB702
:100DA000F20100A7F894F20103A1F20112A10117C8
:100DB00081F081E0F20122A123958201C7DFF201D7
:100DC00002A3F20102A110E0F201E00FF11F028183
:100DD0000C93F20100A50FBF082FE6E00C946C0CF9
:100DE000F8011FB711A7F89413A122A1121738F424
:100DF00010E222A1121B23A1120F012F04C013A184
:100E000022A1121B012F11A51FBF08950091F60406
:100E10001091F704E5DF08959A938A93C8019C0125
:100E20000091F6041091F704B5DF89919991089526
:100E30000091F6041091F70423DF08959A938A93A2
:100E4000C8018C010FD08C011FD08C0129D08C01DE
:100E500009D140EB54E020E08C0110D18C01899144
:100E6000999108952FE02ABB2FE02BBBD49ADC9AEE
:100E7000D59ADD9A4FEF59E668E141505040604005
:100E8000E1F700C00000089520E0F80123A3F80175
:100E900022A3F80100A311A320E0F80125A30895DF
:100EA0009A938A93C8010FEF13EF21E0015010408D
:100EB0002040E1F700C0000028E28C0180D00FE361
:100EC0001FE101501040E9F700C0000028E28C014A
:100ED00076D00FE31FE101501040E9F700C0000099
:100EE0002CE08C016CD021E08C0169D00FE31FE174
:100EF00001501040E9F700C0000026E08C015FD0EF
:100F000022E08C015CD00FE31FE101501040E9F7B3
:100F100000C0000020E88C0152D089919991089579
:100F2000BA93AA93D801FD0100A111A10F5F1F4F31
:100F300000A311A3FD0103A1039503A3FD0103A1D8
:100F4000003110F100E0FD0103A3FD0102A10395B2
:100F500002A3FD0102A1023051F400E0FD0102A351
:100F6000FD01A0A3B1A320E88D0129D009C08D0106
:100F7000005F1F4FFD0100A311A320EC8D011FD0C6
:100F800008EC00000A95E9F79096ED91FC91919795
:100F90000081FD0104A3FD0104A1013848F0FD0119
:100FA00004A110E0F801E45EFF4F0491FD0104A3E9
:100FB000FD0124A18D011FD0A991B99108950E942E
:100FC000630CC801A22F0FB70093F804F89408EC43
:100FD00000000A95E9F7DD9B05C0DD9808EC0000EC
:100FE0000A95E9F72A2F8C0122D00091F8040FBF4F
:100FF000E3E00C946F0C0E94630CC801A22F0FB7A2
:101000000093F904F89408EC00000A95E9F7DD99DB
:1010100005C0DD9A08EC00000A95E9F72A2F8C013B
:1010200006D00091F9040FBFE3E00C946F0C4BB3B2
:10103000407F322F32953F70432B4BBBDC9A000030
:1010400000000000DC980000000000004BB3407F6F
:10105000322F3F70432B4BBBDC9A00000000000096
:10106000DC98089520E0203240F440E230E0F801BE
:10107000E20FF31F40832395F6CF08957B2F2A2E8E
:1010800030E00801020E131ED001FA013081632FF7
:10109000662331F06C93119631963081632FF8CF2F
:1010A000A22DB72F08950E945C0CC801622EA32FB9
:1010B0004A0177248C01060D171DBA2FBB0FBB0BFD
:1010C0000A0F1B1F2801A130D4F00FEF400E0FEFC5
:1010D000501E4AE050E0F401008111810E94B60BDD
:1010E000405DF20140834AE050E0F401008111814B
:1010F0000E94B60BF40100831183AA95E4CFEAE0C5
:101100000C94680C0E945C0C3801822E832F2A01FB
:1011100099248301080D191D982F990F990B080F19
:10112000191FD801813004F111974AE050E060E0C6
:1011300070E0F20100811181228133810E94EA0B6B
:10114000405D4C934AE050E060E070E0F2010081C5
:101150001181228133810E94EA0BF2010083118305
:10116000228333838A95DECFEAE00C94680C0E94D8
:10117000620C229748835983C801B22FA32FAE0176
:101180003A2F2B2F8C018FDF2296E4E00C946E0C0B
:101190000E94620C2497488359836A837B83C80129
:1011A000B22FA32FAE013A2F2B2F8C01ABDF249649
:1011B000E4E00C946E0C0E94600C2297C801422E51
:1011C000532EDA01BB2382F42DE2042D10E0FC0142
:1011D000E00FF11F208343945A948D0111950195DE
:1011E00010400883198302C0A883B983AE01352D4E
:1011F000242D8C0158DF2296E6E00C946C0C0E94A2
:10120000610CC8010FB7402EF89420E48C010E94B5
:10121000DF070FE91FE001501040E9F700C00000B0
:10122000A0E0A83068F4B0E0FD01E45EFE4F249138
:101230008C010E94FB0700E50A95F1F7A395F1CF19
:1012400020E88C010E94DF070FE91FE001501040E9
:10125000E9F700C000004FBEE5E00C946D0C0E9461
:10126000230278940091C3041091C4040E94FF08E3
:101270000E942A050FEF13ED20E30150104020409B
:10128000E1F700C000000091C3041091C4040E9463
:10129000320848EB54E020E10091C3041091C404EB
:1012A0000E943E080E94E0020E940801FBCF0E94BB
:1012B0005F0CC801622E532E442EB52FA62F6A2F25
:1012C0005B2F442D352D262D8C0104D08C01E7E0B9
:1012D0000C946B0C0E945F0CD801622E832F542E4D
:1012E000452E962F062DE4E2F0E0FBBFF1E00C94D2
:1012F000160C09E3FD0105830AE3FD0104830BE3FA
:10130000FD0106838CC009E3FD0105830AE3FD01AD
:1013100004830BE3FD01068382C006E3FD01058320
:1013200007E3FD01048308E3FD01068378C006E3BB
:10133000FD01058307E3FD01048308E3FD01068346
:101340006EC003E3FD01058304E3FD01048305E3AF
:10135000FD01068364C003E3FD01058304E3FD0191
:10136000048305E3FD0106835AC000E3FD01058304
:1013700001E3FD01048302E3FD01068350C000E3A5
:10138000FD01058301E3FD01048302E3FD01068302
:1013900046C001E2FD01058302E2FD01048303E290
:1013A000FD0106833CC001E2FD01058302E2FD016F
:1013B000048303E2FD01068332C000E2FD010583E0
:1013C00001E6FD01048302E6FD01068328C000E278
:1013D000FD01058301E6FD01048302E6FD010683AC
:1013E0001EC003E6FD01058304E6FD01048305E656
:1013F000FD01068314C003E6FD01058304E6FD013B
:10140000048305E6FD0106830AC003E3FD010583AD
:1014100004E3FD01048305E3FD01068383E08830D6
:1014200040F4482F01E010E00E94B00BFD0107835B
:1014300003C001E0FD010783552051F0FD01178134
:10144000FD010481E02FF0E00081012B00830AC040
:10145000FD0117811095FD010481E02FF0E000816E
:1014600001230083FD011781FD010681E02FF0E0DB
:101470000081012B008300E010E0FD01018712874D
:101480000D931C93119700E0FD010283FD0143823F
:101490008D010D5F1F4FFD0103871487983040F4C5
:1014A000492F01E010E00E94B00BFD01008703C04E
:1014B00001E0FD010087E7E00C946B0CF801258149
:1014C000E22FF0E02081F80137812323222319F055
:1014D000F8010085089500E00895222351F0F801F5
:1014E0004781F8013681E32FF0E03081342B3083DF
:1014F0000895F80147814095F8013681E32FF0E027
:10150000308134233083089528E630E08901012FAB
:1015100010E000939000022F09B900E000939500BD
:10152000009195000F7E00939500009195000F7D2E
:101530000093950000919500026000939500009142
:101540009500046000939500529800919500077FE4
:101550000093950000E0009341050093400500933F
:101560003F0500933E0500933D0500933C05009325
:101570001B0500931A0500E00AB9579A549A539A2A
:10158000569A0895FA93EA935A934A933A932A9370
:101590001A930A934FB75BB70CB1202F00911A052D
:1015A00003950F71302F00911B05301721F401E0D6
:1015B00000933F0511C000E000933F0530931A05EA
:1015C00000911A0510E0F801E650FB4F20830091CE
:1015D0003E05039500933E055BBF4FBF09911991EE
:1015E0002991399149915991E991F9911895FA9375
:1015F000EA934A933A932A931A930A933FB74BB7C5
:1016000010913C0520913D051217A1F010913D0568
:1016100013951F71012F00933D05509A10E0F801BA
:10162000E45EFA4F10811CB9109140051A95109391
:10163000400504C0559810E0109340054BBF3FBFD4
:1016400009911991299139914991E991F991189547
:101650005B2F6A2FD8011FB7412FF89410911A05FC
:1016600030911B05131729F410E010933E0500E09C
:1016700013C010911B0513951F71212F20931B057B
:1016800030E0F901E650FB4F10811C9310913E05AC
:101690001A9510933E0501E04FBFA62FB52F089570
:1016A00020E030E000E10E94590B01E010E00C94D2
:1016B0005A0B08952297C801888399839E0101E0FF
:1016C0000E94590BF9CF0C945A0B0E945B0C4801F5
:1016D000A22EDA01962F82E024016A2C0BC002E0D0
:1016E000400E511E611E823099F002E0400E00E073
:1016F000501E601E4A165B06690689F0F2016BBE39
:101700004791569110E04030504049F3823069F3E0
:10171000F2016BBE0791F691E02F0995E6CF8A950D
:10172000D9F6EBE00C94670C0FE70DBF03E00EBF9A
:10173000C0E4D1E00E94770C002311F00E94A80CB5
:1017400002E511E020E046E551E060E00E94650B13
:101750000E942F090E94AE0B0C94630B0C94630B38
:101760004A951AF0000F111FFBCF08950024112491
:10177000EFE0001F111F001C111C0416150610F0CD
:10178000041A150AEA95AAF7001F111FA001009577
:10179000109508952224349F302D259F300D169FDB
:1017A000300D079F300D249F202D310D159F200DEA
:1017B000311D069F200D311D149F102D210D321D4E
:1017C000059F100D211D321D049F002D110D221D9E
:1017D000321D0895002411241001E0E2EA9592F0F0
:1017E000001F111F221F331F001C111C221C331C41
:1017F000041615062606370688F3041A150A260A63
:10180000370AECCF001F111F221F331FA001B101A7
:10181000009510952095309508957791679157918F
:101820004791179011FA279037900895F9DF041B1C
:1018300010E003C0F4DF041B150B20E030E005C00E
:10184000ECDF041B150B260B370BB8F010FC17C090
:1018500047910790E00FF11F0417100540E024079F
:10186000340758F436F406910024F101E01BF00926
:101870000994E00FF11F27903790F101099411F4BA
:10188000D6F7F1CF31960EF0319650E060E070E07F
:1018900047914B3F48F089F34F3F29F04E3F11F0FD
:1018A0007791679157914791041B150B260B370BC6
:1018B00039F318F3E7CFAA929A928A927A926A92AF
:1018C0005A924A92BA93AA939A938A930895AA84B1
:1018D000998488847F806E805D804C80BB81AA81E2
:1018E00099818881F0E0EC0FFD1FEF01089501E080
:1018F00008959A938A93C80102C00E94960C8C01A5
:101900000E94A40D202F012B69F4E2E4F5E0208170
:10191000318100E02030300781F3E0914205F32F60
:101920000995EDCF022F8991999108950C94500B50
:1019300020E008D0E9F708953BBF27913BB702D0DC
:10194000D9F708952D9301501040202F212B089591
:101950000AEF402E0BE1502E00E0602EF201362DF2
:101960006BBE07911691F201EE5FFF4F3F4F3BBFF9
:10197000A791B691F201362DEC5FFF4F3F4F3BBF71
:10198000479157916691242F252B262B21F0FA01A0
:10199000362FD2DF01C0CCDF07E0400E00E0501E42
:1019A000601EA201662D48305C416040B8F2089587
:1019B000E4E4F5E000811181012B19F000E010E072
:1019C000089500E411E00083118320E032E0F80183
:1019D0002083318308950D01D801012B09F455C0EE
:1019E0001297ED91FC911197349708F44EC006E4DC
:1019F00015E0F80153D019F0A217B30728F4FD0140
:101A000022833383F80123C0F90148D019F02A1743
:101A10003B07D0F3408151819F01240F351FA2174E
:101A2000B30798F12A173B0741F42D913C91420FDF
:101A3000531F40835183DF010CC030D021F027D0E9
:101A40002617370710F112962D933C931397A28314
:101A5000B383FD0123D0C9F01AD062177307A9F42C
:101A600020E0F80120832183FD010281F381E02F32
:101A7000208131814D915C91420F531F5C934E93B5
:101A800002811381FD0102831383D00108954D91DA
:101A90005C911197BD01640F751F089522813381F8
:101AA000422F432B08959A938A93C80105C02E5F55
:101AB0003F4F89010E94EB0CE6E4F5E000811181C3
:101AC000202F212B61F408E415E001C037D029D084
:101AD000F1F02ED0D8F322C02BD000F52FD021D09A
:101AE000D9F7E6E4F5E00081F181E02F1ED008E4AB
:101AF00015E007C0FA01408151814817590770F479
:101B00001DD0F801408151814217530799F70E9477
:101B1000D80C9801012B59F600E010E089919991B9
:101B2000089502D0232B0895F80120813181089572
:101B3000E081F32FFADF281739070895F8010081B3
:101B400011810E5F1F4F08950E94620CC80102961A
:101B50000817190718F000E010E047C0843000E0D3
:101B6000900710F484E090E08C019DDF202F212B62
:101B700091F3DADFF901A081B1811497A817B907B1
:101B800030F422813381D8012D933C9316C0280F65
:101B9000391FD8012D933C934281538129D04D9315
:101BA0005C9340815181481B590BD8012D91BC9108
:101BB000A22F4D935C9380839183D8012D913C910A
:101BC000232B59F015D02D913C91232B31F0D801C6
:101BD0000D911C910E5F1F4F02C000E010E0A6E4C3
:101BE000B5E00D931C9332968F01E4E00C946E0CDB
:101BF000D8012D91D901129608958C00BE040000E1
:101C0000003E018003081C0018FC30F8C409E803FA
:101C10000000D007B80B30753075307530753075F1
:101C2000010000D007B80B30753075307530753055
:101C300075C40964000100FF00316253C4F5A69722
:101C4000B988DBEA7D4C1F2E4372211087B6E5D49C
:101C5000FACB98A93E0F5C6D86B7E4D5427320118C
:101C60003F0E5D6CFBCA99A8C5F4A796013063527C
:101C70007C4D1E2FB889DAEB3D0C5F6EF9C89BAA2C
:101C800084B5E6D7407122137E4F1C2DBA8BD8E95C
:101C9000C7F6A59403326150BB8AD9E87F4E1D2C4C
:101CA00002336051C6F7A495F8C99AAB3C0D5E6F3C
:101CB0004170231285B4E7D67A4B1829BE8FDCED2C
:101CC000C3F2A1900736655439085B6AFDCC9FAE1C
:101CD00080B1E2D344752617FCCD9EAF38095A6B0C
:101CE0004574271681B0E3D2BF8EDDEC7B4A1928FC
:101CF00006376455C2F3A0914776251483B2E1D02C
:101D0000FECF9CAD3A0B586904356657C0F1A293DB
:101D1000BD8CDFEE79481B2AC1F0A39205346756CB
:101D200078491A2BBC8DDEEF82B3E0D146772415BB
:101D30003B0A5968FFCE9DAC474D20636F64650038
:061D400053205220500068
:0400000300000000F9
:00000001FF
