:020000020000FC
:100000000C94CA1818951895189518951895189560
:100010001895189518951895189518951895189578
:10002000189518950C94F20118951895189518952F
:100030001895189518951895189518950C946F02A1
:1000400018951895189518950C941E180C94551819
:100050001895189518951895189518951895189538
:100060001895189518951895189518951895189528
:100070001895189518951895189518951895189518
:100080001895189518951895189518952E043804F4
:100090005E049304C3042D042D04810A900A2D04E8
:1000A0000102010301020104010201030102010036
:1000B000474D20636F646500D9DA2020202020207E
:1000C0002020202020202020202020202020202030
:1000D0002020202020202020202020202020202020
:1000E0002020202020202020A2B5202020202020F9
:1000F000202020202020202041A042A1E045A3A4D0
:10010000A5A64BA74D484FA8504354A9AA58E1AB08
:10011000ACE2ADAE62AFB0B161B2B3B4E365B6B755
:10012000B8B9BABBBCBD6FBE7063BF79E478E5C037
:10013000C1E6C2C3C4C5C6C706090906000000005F
:10014000060F0F0600000000FE0EFE0EFE0EFE0E55
:10015000FE0EFE0EFE0E380FFD0EFD0EFD0EFD0E08
:10016000FD0EFE0ED90F9210FD0EFD0EFD0EFD0EC2
:10017000890FFD0E8D110B1128114511931192104D
:10018000DA11FD0EFD0EFD0EFD0EFD0EA311FD0E8E
:1001900048124A125512601293110012FD0EAC1251
:1001A000E9120613231393116C12FD0E6F137113D2
:1001B0007313FD0E93113E13FD0E0D140F143A141C
:1001C000651493118613FD0EA314A514A714FD0E38
:1001D00093117214FD0EFD0EFD0EFD0EFD0EFD0EB3
:1001E000FD0EFD0EFD0EFD0EFD0EFD0EFD0EFD0EB7
:1001F000FD0EFD0EFD0EFD0EFD0EFD0EFD0EFD0EA7
:10020000FD0EFD0EFD0EFD0EFD0EFD0E030204069D
:1002100001537475636B20202020200053656E739A
:100220006F7273203A2000576F726B206D6F646598
:1002300020004C656E3D2020202020200045727259
:100240006F7220202020200053656E736F72732020
:100250003A20004C656E3D3F2020202020202020A9
:1002600020202000496E7075742070617373776F61
:1002700072643A0050617373776F726420657272B2
:100280006F7221004D656E753A0044697374616E3A
:10029000636520746F2053310000004469737461FA
:1002A0006E636520746F20533200000044697374DC
:1002B000616E636520746F205333000000446973DE
:1002C00074616E636520746F2053340000004469CC
:1002D0007374616E636520746F20533500000044B1
:1002E000697374616E636520746F2053360000007B
:1002F000536574206E65772070617373776F7264D5
:10030000005365742070617373776F72643A0053A1
:100310006176653F20282D2F2B2900446973746175
:100320006E636520746F205300536176653F20280B
:050330002D2F2B290018
:1003360041012C16AA1501BE1501D21501E61501BB
:10034600FA15010E160122161AA01501B41501C8D8
:100356001501DC1501F015010416011816FB410103
:100366003817B61601CA1601DE1601F2160106176F
:10037600011A17012E171AAC1601C01601D4160160
:10038600E81601FC16011017012417FB2802A30A20
:1003960000E005BD05B5086005BD05B50F7B05BDCB
:1003A60005B50F7D05BD05B50F7E05BD05B50B7FF2
:1003B60005BD05B5026005BD05B5016005BD01D0E9
:1003C600089500E004BD0CE703BD06B70F7706BF2E
:1003D60006B70F7B06BF07B7006807BF08959A9355
:1003E6008A93FA93EA933A922A921A920A927A9303
:1003F6006A935A934A933A932A931A930A938FB716
:100406009BB707B70F7707BF78940091C705109180
:10041600C8050E94CC0C0E94420C0E94B8140E948F
:100426009602CFDF9BBF8FBF099119912991399110
:10043600499159916991799109901990299039902A
:10044600E991F9918991999118950FE210E00E942E
:10045600E7199801012B41F089010E94480C00938D
:10046600C7051093C805089500E010E00093C7057E
:100476001093C80508950E94CB010E944F020E9466
:10048600E0170E949A020E94490208950E94F30210
:1004960008950E94C503089503B70B7F03BF03B7F2
:1004A600026003BF03B7016003BF03B70F7B03BF3F
:1004B60003B7086003BF03B70F7D03BF03B70F7E03
:1004C60003BF03B70F7703BF00E002BF09EF01BF09
:1004D60007B7026007BF08959A938A93FA93EA933F
:1004E6003A922A921A920A927A936A935A934A9362
:1004F6003A932A931A930A938FB79BB70E9497024F
:100506009BBF8FBF099119912991399149915991B1
:10051600699179910990199029903990E991F99109
:1005260089919991189508950E944C02089508950D
:10053600C69AC69AC79A949A959ABE9ABE9ABF9A2E
:100546008C9A8D9A0FE31CE901501040E9F700C020
:10055600000095980895B80100E010E0BE9ABF9A91
:100566008C9A8D9AC7982AE02A95F1F700C094983C
:100576002AE02A95F1F700C040E0403110F577FBFC
:1005860016F421E001C020E020FB28B326F928BBA1
:100596002AE02A95F1F700C0C79A2AE02A95F1F7D2
:1005A60000C0000F111FC69B03C0016021E030E0B0
:1005B600C798660F771F2AE02A95F1F700C0439582
:1005C600DCCF949A2AE02A95F1F700C008952FB758
:1005D600F8012083F8940895F80120812FBF08952B
:1005E6008A930E949B0200E010E00E94AE02159AD8
:1005F600149A1D9A1C9A0CE010E00E94E7199801C3
:100606008901232B49F050E062EA73E042E330E0CF
:1006160026E60E94941602C000E010E00093CA0588
:100626001093CB050CE010E00E94E7190801012B9E
:1006360051F051E062EA73E042E331E026E68001E0
:100646000E94941602C000E010E00093CC051093BF
:10065600CD050CE010E00E94E7190801012B51F0CE
:1006660052E062EA73E042E332E026E680010E944D
:10067600941602C000E010E00093CE051093CF055B
:100686000CE010E00E94E7190801012B51F053E03D
:1006960062EA73E042E333E026E680010E949416A4
:1006A60002C000E010E00093D0051093D1050CE0E5
:1006B60010E00E94E7190801012B51F054E062EAAC
:1006C60073E042E334E026E680010E94941602C0FD
:1006D60000E010E00093D2051093D3050CE010E083
:1006E6000E94E7190801012B51F055E062EA73E018
:1006F60042E335E026E680010E94941602C000E03F
:1007060010E00093D4051093D5050AE00093330654
:1007160000E00093C00580E0863078F4082F10E0F2
:10072600000F111FF801E653FA4F008111810E9454
:10073600DD17182F04D08395EFCF899108959A93EA
:100746008A93902F812F0091D605109133060117B9
:1007560098F401E000932D06182F092F2091D60555
:1007660030E0220F331FF901E457FF4F25913491F2
:100776003197F901099503C000E00093D6058991E8
:10078600999108950091C005002309F062C0009177
:10079600D7050023D1F00091C1051091C205083A92
:1007A60021E6120748F4E1ECF5E0008111810F5FC4
:1007B6001F4F0083118309C000E00093D70501E0B5
:1007C6000093D80505E00093D6050091CA0510915F
:1007D600CB050E947E170091CC051091CD050E9495
:1007E6007E170091CE051091CF050E947E170091CD
:1007F600D0051091D1050E947E170091D205109167
:10080600D3050E947E170091D4051091D5050E944C
:100816007E17E091D905F091DA05329740F0E9EDBF
:10082600F5E0008111810150104000831183009191
:10083600D9051091DA05013020E0120751F400E0E5
:1008460010E00093D9051093DA050091DB050093BB
:10085600D6050895089520E02093D70520E020933B
:10086600C90521E02093D60508950E94CB19A02F33
:10087600912FB0E080E0863098F4082F10E0000F4A
:10088600111FF801E653FA4F008111810E94DD170E
:10089600002311F401E001C000E0B02B8395EBCFFB
:1008A600BB2331F401E00093C90502E00093D605AD
:1008B600E4E00C94DC199A938A93802F912F1D9A69
:1008C6001C9A00E010E000932B0610932C0640E0E3
:1008D6004230D0F420E02630A8F460E070E050E02A
:1008E6000CE010E00E940C19ECEDF5E0E00FF11FB2
:1008F600022F10E0000F111FE00FF11F60837183BC
:100906002395E9CF4395E4CF00E00093D70503E0B4
:100916000093D605192F082F03D089919991089530
:10092600402F212F442359F501E010E00093C10523
:100936001093C20501E00093D70500E00093D805A7
:100946006091C1057091C20550E00CE010E00E9474
:100956000C19ECEDF5E0E00FF11F022F10E0000F8F
:10096600111FE00FF11F6083718304E00093D60529
:10097600222329F0EBE2F6E000810160008308956E
:100986000E94CB192297802FA12F8E010F5F1F4F38
:100996000E94EA0200E010E00093D9051093DA0500
:1009A6008E010F5F1F4F0E94EF02482F50E00CE0B0
:1009B60010E00E940C19ECEDF5E0E00FF11F0A2F94
:1009C60010E0000F111FE00FF11F00811181012BB4
:1009D60071F04A2F01E010E00E941419EBE2F6E0F4
:1009E60020813181202B312B2083318316C0209129
:1009F600C1053091C205482F50E00CE010E00E947E
:100A06000C19ECEDF5E0E00FF11F0A2F10E0000FD6
:100A1600111FE00FF11F2083318391E0B0E0B63063
:100A260070F40B2F10E0000F111FF801E653FA4F78
:100A3600008111810E94DD179023B395F0CF992391
:100A460079F08E010E94EA0205E00093DB0508E8D2
:100A560013E10093D9051093DA058E010E94EF0287
:100A66002296E4E00C94DC190E94BF1924978E01AB
:100A76000D5F1F4F0E94EA020091D605D02E8E010F
:100A86000D5F1F4F0E94EF0207E0D01611F440D50C
:100A960031C508E0D01611F44AD52CC505E0D016AC
:100AA60009F028C500E00093D7050091D80500237A
:100AB60009F45CC080E0863008F500E0023010F4EE
:100AC6000395FCCF082F10E0000F111FF801E65325
:100AD600FA4F008111810E94DD17002369F4482F27
:100AE60001E010E00E941419EBE2F6E0208131816A
:100AF600202B312B208331838395DDCF00912B066C
:100B060010912C060093300600E010E000933106A9
:100B16001093320600E010E00E94AE021C980FEF20
:100B260019E628E1015010402040E1F700C000001E
:100B36001D9801E000932E0606E00093D6058E016F
:100B46000E5F1F4F0E94EA0207E00093DB0508E8EC
:100B560013E10093D9051093DA058E010E5F1F4F3E
:100B66000E94EF0200E00093D805C4C400E00630FE
:100B760040F42FEF10E0F801EC5DF94F2083039568
:100B8600F6CF00E000932A0620E0263008F041C0A8
:100B960030E0323018F5432F50E00CE010E00E94B0
:100BA6000C19ECEDF5E0E00FF11F022F10E0000F3D
:100BB600111FE00FF11F00811181012B69F4422FF3
:100BC60001E010E00E941419EBE2F6E04081518149
:100BD600402B512B408351833395DBCF60912B06FD
:100BE60070912C06422F01E010E00E941419602338
:100BF6007123672B61F400912A0610E0F801EC5D81
:100C0600F94F208300912A06039500932A0623951F
:100C1600BCCF00912A0600932F0600912B06109157
:100C26002C060093300680E090E0A0E0B0E0EE24D1
:100C360000912A060330C0F500912B0610912C0670
:100C46000093300600E010E0009331061093320660
:100C560000E010E00E94AE021C980FEF19E628E1B2
:100C6600015010402040E1F700C000001D9801E04F
:100C760000932E0606E00093D6058E010F5F1F4FE8
:100C86000E94EA0208E00093DB0508E813E10093FE
:100C9600D9051093DA058E010F5F1F4F0E94EF02F0
:100CA60000E00093D80526C400912A0610E0F8015A
:100CB600ED5DF94F008110E0000F111FF801E452BD
:100CC600FA4F208131810091240610E0000F111F98
:100CD600F801E452FA4F048515852017310708F00C
:100CE60092C10091240610E0000F111FF801E45292
:100CF600FA4F0485158520912A0630E0F901ED5D4D
:100D0600F94F208130E0220F331FF901E452FA4FE8
:100D160020813181021B130B20E030E0E4EFF5E087
:100D2600008311832283338300912A0610E0F801A1
:100D3600ED5DF94F008110E0000F111F40E050E01B
:100D4600400F511F0E94F118B8010091240610E0CF
:100D5600000F111F40E050E0400F511F0E94F11894
:100D6600601B710B8B0120E030E0ECEFF5E00083B7
:100D760011832283338300912A0610E0F801ED5D8A
:100D8600F94F008110E0000F111F40E050E0400FC6
:100D9600511F0E94F118B80100912A0610E0F801CF
:100DA600EE5DF94F008110E0000F111F40E050E0AA
:100DB600400F511F0E94F118601B710B8B0120E040
:100DC60030E0E4E0F6E00083118322833383009170
:100DD6002A0610E0F801ED5DF94F008110E0000FE2
:100DE600111FF801E452FA4F0081118120912A0661
:100DF60030E0F901EE5DF94F208130E0220F331F1C
:100E0600F901E452FA4F20813181021B130B20E0D5
:100E160030E0E0E1F6E00083118322833383009122
:100E2600250610E0000F111F40E050E0400F511F53
:100E36000E94F118B8010091240610E0000F111F5E
:100E460040E050E0400F511F0E94F118601B710BEB
:100E56008B0120E030E0E8E0F6E000831183228396
:100E660033830091250610E0000F111FF801E452AC
:100E7600FA4F048515852091240630E0220F331F92
:100E8600F901E452FA4F24853585021B130B20E045
:100E960030E0E4E1F6E00083118322833383E4E06B
:100EA600F6E00081118122813381E8E0F6E040819D
:100EB600518162817381040F151F261F371FE0E0E1
:100EC600F6E00083118322833383E0E1F6E00081BC
:100ED600118122813381E4E1F6E040815181628112
:100EE6007381040F151F261F371FECE0F6E0008301
:100EF600118322833383E4E0F6E0008111812281AD
:100F06003381E4EFF5E040815181628173810E9473
:100F16002E194AE050E060E070E00E942E19E0E1F0
:100F2600F6E040815181628173810E944E190B5F08
:100F36001F4F2F4F3F4F4AE050E060E070E00E94A5
:100F46004E19ECE1F6E00083118322833383E8E057
:100F5600F6E00081118122813381E4EFF5E04081E2
:100F66005181628173810E942E194AE050E060E04F
:100F760070E00E942E19E4E1F6E040815181628121
:100F860073810E944E190B5F1F4F2F4F3F4F4AE050
:100F960050E060E070E00E944E19E0E2F6E0008367
:100FA600118322833383ECEFF5E0008111812281E6
:100FB6003381ECE1F6E04081518162817381E0E2A8
:100FC600F6E00080118022803380400D511D621DA5
:100FD600731D7695679557954795040F151F261F20
:100FE600371FE8E1F6E00083118322833383E8E1CB
:100FF600F6E00081118122813381800F911FA21FAB
:10100600B31FE3942BC2CC2400912A06C01608F025
:1010160025C20C2D10E0F801EC5DF94F008110E0BF
:10102600000F111FF801E452FA4F20813181FF248D
:10103600F701EC5DF94F008110E0000F111FF80178
:10104600E452FA4F048515852017310708F404C2C7
:10105600FF24F701EC5DF94F008110E0000F111F2E
:10106600F801E452FA4F048515852C2D30E0F9017C
:10107600ED5DF94F208130E0220F331FF901E45274
:10108600FA4F20813181021B130B20E030E0E4EFA0
:10109600F5E000831183228333830C2D10E0F801E1
:1010A600EC5DF94F008110E0000F111FF801E452CA
:1010B600FA4F00811181FF24F701EC5DF94F208181
:1010C60030E0220F331FF901E452FA4F24853585AB
:1010D600021B130B20E030E0E8EFF5E000831183FC
:1010E60022833383E4EFF5E000811181228133818D
:1010F600E8EFF5E04081518162817381041715079D
:101106002607370708F0D4C00C2D10E0F801ED5D76
:10111600F94F008110E0000F111F40E050E0400F32
:10112600511F0E94F118B801FF24F701EC5DF94F39
:10113600008110E0000F111F40E050E0400F511FEA
:101146000E94F118601B710B8B0120E030E0ECEF80
:10115600F5E000831183228333830C2D10E0F80120
:10116600EC5DF94F008110E0000F111F40E050E0E8
:10117600400F511F0E94F118B8010C2D10E0F80124
:10118600ED5DF94F008110E0000F111F40E050E0C7
:10119600400F511F0E94F118601B710B8B0120E05C
:1011A60030E0E0E0F6E000831183228333830C2DE8
:1011B60010E0F801EC5DF94F008110E0000F111FFF
:1011C600F801E452FA4F008111812C2D30E0F9012B
:1011D600ED5DF94F208130E0220F331FF901E45213
:1011E600FA4F20813181021B130B20E030E0ECE046
:1011F600F6E000831183228333834AE050E060E007
:1012060070E0ECEFF5E000811181228133810E94CC
:101216002E1948015901E0E0F6E000811181228192
:101226003381E4EFF5E040815181628173810E9450
:101236002E19A801B9010DEE13E020E030E00E945E
:101246002E192801390144E650E060E070E0ECE038
:10125600F6E000811181228133810E942E19A801B6
:10126600B901820193010E944E19A401B501400FF4
:10127600511F621F731F4B5F5F4F6F4F7F4F8A0176
:101286009B014AE050E060E070E00E944E19E8E100
:10129600F6E00083118322833383E8E1F6E00081E0
:1012A600118122813381800F911FA21FB31FD3C0EA
:1012B6000C2D10E0F801EC5DF94F008110E0000FF5
:1012C600111F40E050E0400F511F0E94F118B80175
:1012D600FF24F701EC5DF94F008110E0000F111FAC
:1012E60040E050E0400F511F0E94F118601B710B47
:1012F6008B0120E030E0ECEFF5E0008311832283E0
:1013060033830C2D10E0F801EC5DF94F008110E0FD
:10131600000F111F40E050E0400F511F0E94F118CE
:10132600B8010C2D10E0F801ED5DF94F008110E0D9
:10133600000F111F40E050E0400F511F0E94F118AE
:10134600601B710B8B0120E030E0E0E0F6E00083EB
:101356001183228333830C2D10E0F801EC5DF94FE5
:10136600008110E0000F111FF801E452FA4F0081CE
:1013760011812C2D30E0F901ED5DF94F208130E02F
:10138600220F331FF901E452FA4F20813181021BEB
:10139600130B20E030E0ECE0F6E0008311832283BB
:1013A60033834AE050E060E070E0ECEFF5E0008166
:1013B6001181228133810E942E1948015901E0E0F2
:1013C600F6E00081118122813381E8EFF5E040816A
:1013D6005181628173810E942E19A801B90106EE1E
:1013E60013E020E030E00E942E192801390144E67E
:1013F60050E060E070E0ECE0F6E0008111812281CF
:1014060033810E942E19A801B901820193010E941D
:101416004E19A401B501401B510B620B730B4E5EB6
:101426005F4F6F4F7F4F8A019B014AE050E060E0BB
:1014360070E00E944E19E8E1F6E0008311832283F2
:101446003383E8E1F6E00081118122813381800F48
:10145600911FA21FB31FE394C394D6CD4AE050E078
:1014660060E070E08C019D010E942E194E2D50E027
:1014760060E070E00E944E190B5F1F4F2F4F3F4FE9
:101486004AE050E060E070E00E944E190093310699
:10149600109332060091310610913206000F111F8B
:1014A600000F111F0E94AE0200912A06063010F4AA
:1014B6001C9801C01C9A0FEF19E628E10150104054
:1014C6002040E1F700C000001D9801E000932E06C1
:1014D60006E00093D6058E010E94EA0208E000931A
:1014E600DB0508E813E10093D9051093DA058E01B0
:1014F6000E94EF022496E0E10C94D0199A938A9305
:10150600902F812F182F092FB0D98991999108957D
:101516001D9A01E00093D60508959A938A93902F19
:10152600812F182F092FC7D98991999108951D9A4E
:1015360002E00093D60500E010E00E94AE02089596
:1015460005E310E00E94E7199801012B39F08901A3
:101556000CD00093340610933506089500E010E091
:1015660000933406109335060895BA93AA93D801CA
:101576000DE010E00E94E71998018901232B41F044
:1015860063E050E040E030E027E60E947E1502C0AE
:1015960000E010E09B960D931C939C970DE010E0E5
:1015A6000E94E7190801012B49F062E050E040E093
:1015B60031E027E680010E947E1502C000E010E0BF
:1015C6009D960D931C939E970DE010E00E94E719DF
:1015D6000801012B49F061E050E040E032E027E6E7
:1015E60080010E947E1502C000E010E09F960D93D8
:1015F6001C93D0970DE010E00E94E7190801012B1B
:1016060049F060E050E040E033E027E680010E94C8
:101616007E1502C000E010E0D1960D931C93D29780
:1016260000E00C9300E011960C93119700E093965E
:101636000C93939792960C9392978D01A991B991D9
:1016460008950E94CB19D8019B960D911C919C97E9
:101656000E948516802F9D960D911C919E970E9443
:101666008516902F9F960D911C91D0970E948516F6
:10167600892B802BD1960D911C91D2970E948516AD
:10168600802BD4968C93D497D4960C91D497D396DA
:101696001C91D397011791F00C91043118F40C9119
:1016A60003950C930C91043178F0D4960C91D49751
:1016B600D3960C93D39700E00C9306C00C9101309F
:1016C60018F00C910A950C93E4E00C94DC199A93AB
:1016D6008A93C8018C01B5DF8C0103D08991999159
:1016E6000895BA93AA93D801FD0103A910E0F80161
:1016F600E056FF4F0491FD0102A7FD010181002381
:10170600B1F1FD0103A90F3031F1FD0104A115A1CD
:101716000C3D25E0120738F4FD0104A115A10F5F69
:101726001F4F04A315A3FD0104A115A10C3D25E03F
:10173600120780F1FD0106A1043628F4FD0106A179
:10174600039506A327C000E0FD0106A3FD0122A51F
:101756008D0127D01FC000E010E0FD0104A315A3F2
:1017660000E0FD0106A300E0FD01018313C0FD01B9
:1017760003A90F3079F001E0FD010183FD0122A5E7
:101786008D010FD000E010E0FD0104A315A300E0D9
:10179600FD0106A3A991B9910895A8012F71022F01
:1017A60008950E94CB19D801922F0FB7FD0107A308
:1017B600F894FD0123A123958D01EFDF802FFD0114
:1017C60002A1801741F0082F10E0FD01E00FF11F84
:1017D6009283FD0183A3FD0107A10FBFE4E00C94F2
:1017E600DC190E94C9192801D90180E00FB7F2015E
:1017F60000A7F894F20103A1F20112A1011781F0EA
:1018060081E0F20122A123958201C7DFF20102A342
:10181600F20102A110E0F201E00FF11F02810C9328
:10182600F20100A50FBF082FE6E00C94DA19F801C3
:101836001FB711A7F89413A122A1121738F410E2CA
:1018460022A1121B23A1120F012F04C013A122A152
:10185600121B012F11A51FBF089500913406109188
:101866003506E5DF08959A938A93C8019C01009195
:10187600340610913506B5DF899199910895009146
:1018860034061091350623DF08959A938A93C8018A
:101896008C010FD08C011FD08C013BD08C0102D261
:1018A60040EB50E020E08C01DAD18C0189919991CE
:1018B60008952FE02ABB2FE02BBBD49ADC9AD59A49
:1018C600DD9A4FEF59E668E1415050406040E1F73C
:1018D60000C00000089520E0F80123A7F80122A720
:1018E600F80100A711A720E0F80125A720E030E0C5
:1018F600F80120A331A320E030E0F80122A333A3AE
:1019060020E0F80126A720E030E0F80126A337A35F
:1019160008959A938A93C8010FEF13EF21E00150BF
:1019260010402040E1F700C0000028E28C01CDD035
:101936000FE31FE101501040E9F700C0000028E264
:101946008C01C3D00FE31FE101501040E9F700C03E
:1019560000002CE08C01B9D021E08C01B6D00FE359
:101966001FE101501040E9F700C0000026E08C019D
:10197600ACD022E08C01A9D00FE31FE1015010404A
:10198600E9F700C0000020E88C019FD08991999169
:1019960008950E94CB19D801FD0106A117A10F5F7A
:1019A6001F4F06A317A3FD0106A117A1003024E0CF
:1019B600120728F000E010E0FD0106A317A3FD01C1
:1019C60000A511A50F5F1F4F00A711A7FD0103A5D5
:1019D600039503A7FD0103A5003110F100E0FD0109
:1019E60003A7FD0102A5039502A7FD0102A502308A
:1019F60051F400E0FD0102A7FD01A0A7B1A720E870
:101A06008D0163D009C08D01005F1F4FFD0100A746
:101A160011A720EC8D0159D008EC00000A95E9F7D2
:101A2600FD0102A50023C9F4FD0120A131A1FD019C
:101A360043A501E010E00E94141920233123232B33
:101A460049F0FD0106A117A1013022E0120710F0AE
:101A560001E001C000E0802F18C0FD0122A133A1E2
:101A6600FD0143A501E010E00E9414192023312353
:101A7600232B49F0FD0106A117A1013022E0120730
:101A860010F001E001C000E0802FFD0100A511A5C6
:101A9600F8010081FD0104A7FD0104A5013848F005
:101AA600FD0104A510E0F801E85CFF4F0491FD017B
:101AB60004A7882319F000E2FD0104A7FD0124A56F
:101AC6008D011FD0E4E00C94DC190E94CC19C801EA
:101AD600A22F0FB700933606F89408EC00000A957B
:101AE600E9F7DD9B05C0DD9808EC00000A95E9F7EB
:101AF6002A2F8C0122D0009136060FBFE3E00C940A
:101B0600DD190E94CC19C801A22F0FB70093370622
:101B1600F89408EC00000A95E9F7DD9905C0DD9A0E
:101B260008EC00000A95E9F72A2F8C0106D00091EF
:101B360037060FBFE3E00C94DD194BB3407F322F1D
:101B460032953F70432B4BBBDC9A0000000000002F
:101B5600DC980000000000004BB3407F322F3F703E
:101B6600432B4BBBDC9A000000000000DC98089574
:101B76000E94CA19C8010FB7402EF89420E48C01C0
:101B8600A4DF0FE91FE001501040E9F700C0000094
:101B9600A0E0A03160F4B0E0FD01E85CFE4F2491C6
:101BA6008C01AFDF00E50A95F1F7A395F2CF20E8A7
:101BB6008C018BDF0FE91FE001501040E9F700C0F0
:101BC60000004FBEE5E00C94DB19203208F020E05F
:101BD600422F50E0F801E40FF51F30830895BA93C1
:101BE6001A2EF801622F532F603208F060E070E081
:101BF600DF01A60FB71F5C93603130F48F01005EE2
:101C06001F4F9801062E07C08F010E5D1F4F9801CA
:101C1600062F0051002E06A5013080F0402D01E070
:101C260010E00E941419D9012D903C90202A312AE7
:101C36003C922E9206A50A9506A70EC0402D01E0FD
:101C460010E00E94141900951095D9012D903C9032
:101C5600202231223C922E92A12DB9910895FA01AB
:101C66003491632F662379F0203208F020E030E0CB
:101C7600F801E20FF31F608323954F5F5F4FFA0170
:101C86003491632FEFCF089520E030E0F80120A3D0
:101C960031A320E030E0F80122A333A320E0F801CD
:101CA60026A708959A938A93C80100E0003240F46B
:101CB60020E210E0FC01E00FF11F20830395F6CF30
:101CC6008C01E2DF8991999108950E94C619280135
:101CD600B22F632ECA010B2F060D0A95A02F77246B
:101CE6007614F8F44AE050E08C010E941A19842E0A
:101CF600AA230AF4AFE1A0320CF0A0E0282D205D63
:101D06000A2F102F110F110BF201E00FF11F208384
:101D1600AA954AE050E08C010E941A19C8017394F2
:101D2600DFCFE9E00C94D7190E94C619D801522ECC
:101D3600832ECA01052D080D0A95402E77247814A6
:101D460088F54AE050E08C010E941A19642E44205E
:101D560012F40FE1402E00E240160CF044247720E6
:101D660019F001E0601660F0262D205D042D102F7D
:101D7600110F110BFD01E00FF11F20834A940AC0D9
:101D860020E2042D102F110F110BFD01E00FF11FA2
:101D960020834A944AE050E08C010E941A19C80137
:101DA6007394CDCFE9E00C94D7190E943E0242ED20
:101DB60054E034E020E00091C7051091C8050E9468
:101DC600680E78940FEF13ED20E301501040204089
:101DD600E1F700C000000091C7051091C8050E94F8
:101DE600BB0D0E949B020E94FE0E0E9437050E94B8
:101DF600E314FBCF0895219701E0009338068E0186
:101E06000E94EA0200E010E020E030E0E3ECF5E0BA
:101E16000083118322833383E3ECF5E00081118193
:101E260022813381EBE3F6E000831183228333833F
:101E36008E010E94EF020091C7051091C8050E940D
:101E4600550E41E152E020E00091C7051091C8050A
:101E56000E94320E4CE152E020E10091C70510913C
:101E6600C8050E94320E219608958A9380E0863036
:101E760008F041C0082F10E0000F111FF801E653CB
:101E8600FA4F008111810E94DD17002351F030E2E4
:101E9600282F265E0091C7051091C8050E94F20DF5
:101EA60010C001E0E091C705F091C80506A7382FDC
:101EB6003F5C282F265E0091C7051091C8050E9439
:101EC600F20D082F10E0000F111FF801E653FA4F2C
:101ED600008111810E94DD17002311F431E001C059
:101EE60030E0282F265F0091C7051091C8050E9493
:101EF600E80D8395BCCF0091D605002329F000910B
:101F0600D605013009F002D0899108958A93219768
:101F16008E010E94EA0200E010E020E030E0E3ECEF
:101F2600F5E00083118322833383E3ECF5E000813F
:101F3600118122813381EBE3F6E000831183228352
:101F460033838E010E94EF020091C7051091C805E8
:101F56000E94550E02E00093380647E252E020E068
:101F66000091C7051091C8050E94320E80E08630A8
:101F7600D0F4082F10E0000F111FF801E653FA4FB6
:101F8600008111810E94DD17002311F431E001C0A8
:101F960030E0282F265F0091C7051091C8050E94E2
:101FA600E80D8395E4CF2196899108958A9300914F
:101FB6002D06002301F100E000932D0680E0863017
:101FC600D0F4082F10E0000F111FF801E653FA4F66
:101FD600008111810E94DD17002311F431E001C058
:101FE60030E0282F265F0091C7051091C8050E9492
:101FF600E80D8395E4CF00912E06002309F480C0F6
:1020060000E000932E060091310610913206012B56
:1020160099F44DE352E020E00091C7051091C80500
:102026000E94320E48E452E020E10091C70510916B
:10203600C8050E94320E3BC047E252E020E0009104
:10204600C7051091C8050E94320E42E352E020E116
:102056000091C7051091C8050E94320E48EE53E064
:1020660000913106109132060E941A19302F305D08
:1020760024E10091C7051091C8050E94E80D3EE2D3
:1020860025E10091C7051091C8050E94E80D48EEAC
:1020960053E000913106109132060E941A1933E07E
:1020A60026E10091C7051091C8050E94680E80E0E0
:1020B600863030F520913006482F01E010E00E946E
:1020C60014192023222389F001E0E091C705F0913D
:1020D600C80506A7382F3F5C282F265E0091C70546
:1020E6001091C8050E94F20D09C030E2282F265E25
:1020F6000091C7051091C8050E94F20D8395D8CFAF
:102106000091D605043049F443E552E020E1009100
:10211600C7051091C8050E94320E8991089521972E
:102126008E010E94EA0200E315E720E030E0E3ECCE
:10213600F5E00083118322833383E3ECF5E000812D
:10214600118122813381EBE3F6E000831183228340
:1021560033838E010E94EF02009138060093390600
:1021660003E00093380600E00093480600E00530DF
:1021760040F420E010E0F801ED5BF94F2083039571
:10218600F6CF0091C7051091C8050E94550E44E68A
:1021960052E020E00091C7051091C8050E94320E5A
:1021A60002D0219608958A9380E080E00091480647
:1021B600801788F400E0E091C705F091C80506A7EE
:1021C6003AE2282F205F0091C7051091C8050E94AA
:1021D600F20D8395EBCF009148060530B8F401E087
:1021E600E091C705F091C80506A70091480610E0E2
:1021F600F801ED5BF94F3081305D20914806205F94
:102206000091C7051091C8050E94F20D89910895A5
:102216000091480610E0F801ED5BF94F00810023BC
:1022260049F409E02091480630E0F901ED5BF94FE9
:10223600008309C00091480610E0F801ED5BF94FF4
:1022460000810A950083AFDF08950091480610E0EB
:10225600F801ED5BF94F0081093048F000E020916C
:10226600480630E0F901ED5BF94F008309C00091A3
:10227600480610E0F801ED5BF94F008103950083F5
:1022860092DF08959A938A930091480603950093E6
:10229600480600914806053080F40091480610E093
:1022A600F801EE5BF94F20810091480610E0F80135
:1022B600ED5BF94F208377DF2AC081E091E020E0D3
:1022C6002530F0F430E04CE050E0420F531F0E94FE
:1022D600EE1830E0F901ED5BF94F1081011709F0B6
:1022E60080E030E0F901E45FFD4F049130E0F90150
:1022F600ED5BF94F1081011709F090E02395E0CFCF
:10230600082F092B002311F078D001C019D089912C
:102316009991089500914806013008F001D008957A
:102326004091390650E00EE010E00E940C19F801C9
:10233600EC5AFE4F059114913197F80109950895CD
:10234600219704E0009338060091C7051091C8054F
:102356000E94550E44E752E020E00091C705109117
:10236600C8050E94320E8E010E94EA0200E010E0CB
:1023760020E030E0E3ECF5E0008311832283338331
:10238600E3ECF5E00081118122813381EBE3F6E095
:10239600008311832283338300E315E70093490604
:1023A60010934A068E010E94EF02219608959A9391
:1023B6008A9321978E010E94EA02009149061091A4
:1023C6004A06C8018E010E94EF02823000E09007A3
:1023D60078F048EE53E08C010E941A19A80132E009
:1023E60020E10091C7051091C8050E94970E01C013
:1023F60097DF2196899199910895219705E0009399
:1024060038060091C7051091C8050E94550E8E0129
:102416000E94EA0200E21FEB22E030E0E3ECF5E086
:102426000083118322833383E3ECF5E0008111817D
:1024360022813381EBE3F6E0008311832283338329
:102446008E010E94EF0244E852E020E00091C705A9
:102456001091C8050E94320E00E000934B0602D090
:102466002196089540914B0650E001E110E00E944C
:102476000C194AE852E0400F511F20E10091C705B0
:102486001091C8050E94320E08954ADF0895009102
:102496004B06013028F000914B060A9500934B0637
:1024A600E1DF089500914B06063028F400914B06B3
:1024B600039500934B06D6DF089500914B06063030
:1024C60011F407D0089500914B06063008F41BD18D
:1024D6000895219706E0009338068E010E94EA02CD
:1024E60000E61AEE20E030E0E3ECF5E0008311832D
:1024F60022833383E3ECF5E000811181228133816D
:10250600EBE3F6E000831183228333838E010E947E
:10251600EF020091C7051091C8050E94550E41E0D3
:1025260053E020E00091C7051091C8050E94320EC5
:1025360000E0053040F420E010E0F801ED5BF94FD3
:1025460020830395F6CF00E00093480604D0219639
:10255600089553DF08959A938A9380E00091480680
:102566008017B0F400E0E091C705F091C80506A712
:1025760090E0FC01ED5BF94F3081305D282F205F44
:102586000091C7051091C8050E94F20D8395E6CF0C
:10259600009148060530B8F401E0E091C705F091D6
:1025A600C80506A70091480610E0F801ED5BF94F53
:1025B6003081305D20914806205F0091C70510915B
:1025C600C8050E94F20D89919991089500914806D7
:1025D60010E0F801ED5BF94F0081002349F409E0B2
:1025E6002091480630E0F901ED5BF94F008309C000
:1025F6000091480610E0F801ED5BF94F00810A955D
:102606000083A9DF08950091480610E0F801ED5B0C
:10261600F94F0081093048F000E02091480630E08B
:10262600F901ED5BF94F008309C00091480610E0FF
:10263600F801ED5BF94F0081039500838CDF089567
:10264600009148060430A8F40091480603950093CB
:1026560048060091480610E0F801EE5BF94F20812C
:102666000091480610E0F801ED5BF94F208373DF17
:10267600089501D00895219707E0009338068E014A
:102686000E94EA0200E61AEE20E030E0E3ECF5E014
:102696000083118322833383E3ECF5E0008111810B
:1026A60022813381EBE3F6E00083118322833383B7
:1026B6008E010E94EF020091C7051091C8050E9485
:1026C600550E4FE053E020E10091C7051091C80573
:1026D6000E94320E2196089590DE08958EDE0895AA
:1026E60020E0253070F430E0F901ED5BF94F008110
:1026F60030E04CE050E0420F531F0E94FF18239534
:10270600F0CF0EDE0895219708E000933806009179
:102716004B0610E0000F111F40E050E0400F511F24
:102726000E94F11800934C0610934D0603E00093A7
:102736004E060091C7051091C8050E94550E4BE143
:1027460053E020E00091C7051091C8050E94320EA3
:1027560030914B063F5C2DE00091C7051091C805EE
:102766000E94F20D1ED08E010E94EA0200EC14EDCA
:1027760021E030E0E3ECF5E000831183228333832C
:10278600E3ECF5E00081118122813381EBE3F6E091
:1027960000831183228333838E010E94EF022196E8
:1027A60008950E94CA1900914C0610914D06C80161
:1027B600A0E0A43060F503E00A1B402E4AE050E09A
:1027C6008C010E941A19B42F00914E060A1739F48B
:1027D60001E0E091C705F091C80506A706C000E034
:1027E600E091C705F091C80506A73B2F305D242D63
:1027F600205F0091C7051091C8050E94F20D4AE0BE
:1028060050E08C010E941A19C801A395D2CFE5E0C9
:102816000C94DB19F2DD08950E94CB19A1E0B0E01B
:1028260020E000914E06201740F40AE010E0AD01CA
:102836000E940C19D8012395F4CFAD0100914C06E6
:1028460010914D060E941A194AE050E00E941A198A
:10285600842F813040F0ECE4F6E0008111810A1B00
:102866001B0B008311839DDFE4E00C94DC190E94AE
:10287600CB19A1E0B0E020E000914E06201740F40D
:102886000AE010E0AD010E940C19D8012395F4CF9F
:10289600AD0100914C0610914D060E941A194AE0AE
:1028A60050E00E941A19842F893040F4ECE4F6E0D7
:1028B600008111810A0F1B1F0083118372DFE4E080
:1028C6000C94DC1900914E06013038F000914E064A
:1028D6000A9500934E0665DF089501D00895219765
:1028E60009E0009338060091C7051091C8050E94BB
:1028F600550E49E253E020E10091C7051091C80545
:102906000E94320E8E010E94EA0200E315E720E0E3
:1029160030E0E3ECF5E00083118322833383E3ECBC
:10292600F5E00081118122813381EBE3F6E000833B
:102936001183228333838E010E94EF02219608952C
:102946005CDD08955ADD089500914C0610914D0600
:1029560020914B0630E0220F331F40E050E0420F3B
:10296600531F0E94031949DD0895EBE3F6E0008149
:10297600118122813381023040E0140740E02407B0
:1029860040E0340770F0EBE3F6E00081118122812C
:102996003381015010402040304000831183228350
:1029A6003383E0914906F0914A06329740F0E9E414
:1029B600F6E00081118101501040008311830895D3
:1029C60023970E94300C013008F440C00AE316E059
:1029D6000E94360C8E010E5F1F4F0E94EA02EBE347
:1029E600F6E00081118122813381023040E0140734
:1029F60040E0240740E0340760F0E3ECF5E00081B6
:102A0600118122813381EBE3F6E000831183228377
:102A160033838E010E5F1F4F0E94EF0240913806EE
:102A260050E00EE010E00E940C19E8E4F1E0E00F3F
:102A3600F11F00913A0610E0000F111FE00FF11F81
:102A4600059114913197F801099553C08E010F5FD6
:102A56001F4F0E94EA02EBE3F6E00081118122811A
:102A66003381EFE3F6E000831183228333838E0103
:102A76000F5F1F4F0E94EF02EFE3F6E00081118126
:102A860022813381013040E0140740E0240740E012
:102A9600340701F58E010E94EA0200E010E020E012
:102AA60030E0EBE3F6E000831183228333838E016B
:102AB6000E94EF024091380650E00EE010E00E94BE
:102AC6000C19F801EE5AFE4F059114913197F80151
:102AD60009950FC04091380650E00EE010E00E94C4
:102AE6000C19F801E85BFE4F059114913197F80136
:102AF6000995239608950E94C819C801622E532E7F
:102B0600442EB52FA62F6A2F5B2F442D352D262D4B
:102B16008C0104D08C01E7E00C94D9190E94C819E5
:102B2600D801622E832F542E452E962F062DE6E3CE
:102B3600F0E0FBBFF3E00C947A1909E3FD0105838D
:102B46000AE3FD0104830BE3FD0106838CC009E360
:102B5600FD0105830AE3FD0104830BE3FD01068302
:102B660082C006E3FD01058307E3FD01048308E354
:102B7600FD01068378C006E3FD01058307E3FD0139
:102B8600048308E3FD0106836EC003E3FD010583AC
:102B960004E3FD01048305E3FD01068364C003E34A
:102BA600FD01058304E3FD01048305E3FD010683BE
:102BB6005AC000E3FD01058301E3FD01048302E33E
:102BC600FD01068350C000E3FD01058301E3FD011D
:102BD600048302E3FD01068346C001E2FD0105838D
:102BE60002E2FD01048303E2FD0106833CC001E22B
:102BF600FD01058302E2FD01048303E2FD01068374
:102C060032C000E2FD01058301E6FD01048302E610
:102C1600FD01068328C000E2FD01058301E6FD01F2
:102C2600048302E6FD0106831EC003E6FD0105835B
:102C360004E6FD01048305E6FD01068314C003E6F0
:102C4600FD01058304E6FD01048305E6FD01068317
:102C56000AC003E3FD01058304E3FD01048305E3E4
:102C6600FD01068383E0883040F4482F01E010E040
:102C76000E941419FD01078303C001E0FD010783CB
:102C8600552051F0FD011781FD010481E02FF0E090
:102C96000081012B00830AC0FD0117811095FD01FB
:102CA6000481E02FF0E0008101230083FD011781FC
:102CB600FD010681E02FF0E00081012B008300E09A
:102CC60010E0FD01018712870D931C93119700E018
:102CD600FD010283FD0143828D010D5F1F4FFD0142
:102CE60003871487983040F4492F01E010E00E94D2
:102CF6001419FD01008703C001E0FD010087E7E02C
:102D06000C94D919F8012581E22FF0E02081F80111
:102D160037812323222319F0F8010085089500E066
:102D260008950E94C719D801722E832F642E2B0195
:102D3600952FFD019183FD0143825482FD01658239
:102D460000E00C93072DE4E6F0E0FBBFF3E00C9403
:102D56007A1909E3FD0107830AE3FD0106830BE304
:102D6600FD0100878CC009E3FD0107830AE3FD012D
:102D760006830BE3FD01008782C006E3FD0107839E
:102D860007E3FD01068308E3FD01008778C006E33B
:102D9600FD01078307E3FD01068308E3FD010087C4
:102DA6006EC003E3FD01078304E3FD01068305E32B
:102DB600FD01008764C003E3FD01078304E3FD0111
:102DC600068305E3FD0100875AC000E3FD01078382
:102DD60001E3FD01068302E3FD01008750C000E325
:102DE600FD01078301E3FD01068302E3FD01008780
:102DF60046C001E2FD01078302E2FD01068303E20C
:102E0600FD0100873CC001E2FD01078302E2FD01EE
:102E1600068303E2FD01008732C000E2FD0107835D
:102E260001E6FD01068302E6FD01008728C000E2F7
:102E3600FD01078301E6FD01068302E6FD01008729
:102E46001EC003E6FD01078304E6FD01068305E6D1
:102E5600FD01008714C003E6FD01078304E6FD01BA
:102E6600068305E6FD0100870AC003E6FD01078328
:102E760004E6FD01068305E6FD01008784E088304F
:102E860008F080E0482F01E010E00E941419FD01CF
:102E96000187FD0111851095FD010681E02FF0E007
:102EA600008101230083FD011185FD010085E02FCE
:102EB600F0E01083FD010781E02FF0E00081FD01C5
:102EC60011850123002311F001E001C000E01C91EF
:102ED6000127FD010287FD010285002329F0FD017E
:102EE6000581FD01038703C000E0FD0103878D0115
:102EF600E8E00C94D819BA93AA93D801FD0107818A
:102F0600E02FF0E00081FD01118501231C910127CE
:102F1600002349F1FD010385FD011581011720F408
:102F2600FD01038503950387FD010385FD011581D9
:102F36000117E8F1FD0102850023C9F501E0FD0155
:102F46000287FD012381348100E010E0201731075C
:102F560071F1FD011181FD0102851396ED91FC9140
:102F66001497099524C0FD010385013020F0FD0169
:102F760003850A950387FD0103850023C1F4FD013E
:102F860002850023A1F000E0FD010287FD012381F7
:102F9600348100E010E02017310749F0FD0111816E
:102FA600FD0102851396ED91FC9114970995A9915F
:102FB600B9910895F8010285089528E630E089015F
:102FC600012F10E000939000022F09B900E0009352
:102FD6009500009195000F7E009395000091950055
:102FE6000F7D009395000091950002600093950077
:102FF6000091950004600093950052980091950009
:10300600077F0093950000E00093D8060093D7064B
:103016000093D6060093D5060093D4060093D306F4
:10302600009352060093510600E00AB9579A549A43
:10303600539A569A0895FA93EA935A934A933A936F
:103046002A931A930A934FB75BB70CB1202FE1E589
:10305600F6E00081017003950170302F0091520651
:10306600301721F401E00093D60611C000E000936A
:10307600D606309351060091510610E0F801E15B47
:10308600F94F20830091D50603950093D5065BBFC3
:103096004FBF099119912991399149915991E99116
:1030A600F9911895FA93EA934A933A932A931A93C5
:1030B6000A933FB74BB71091D3062091D406121747
:1030C600A1F01091D40613951F77012F0093D40613
:1030D600509A10E0F801ED5AF94F10811CB9109181
:1030E600D7061A951093D70604C0559810E010938A
:1030F600D7064BBF3FBF0991199129913991499143
:10310600E991F991189520E030E000E10E948F18CE
:1031160001E010E00C94901808952297C801888366
:1031260099839E0101E00E948F18F9CF0C949018A4
:103136000E94C4194801A22EDA01962F82E02401CA
:103146006A2C0BC002E0400E511E611E823099F0BF
:1031560002E0400E00E0501E601E4A165B0669063D
:1031660089F0F2016BBE4791569110E04030504015
:1031760049F3823069F3F2016BBE0791F691E02FB5
:103186000995E6CF8A95D9F6EBE00C94D5190FEBA5
:103196000DBF05E00EBFC0E6D1E00E94E519002391
:1031A60011F00E94161A02E913E020E046E953E006
:1031B60060E00E949B180E94D80E0E940A190C9487
:1031C6009918E199FECF08954F5F5F4FFADF4EBB26
:1031D6005FBBE09A0895FADF0DB30895F7DF0DB3EC
:1031E600F3DF1DB308954F5F5F4F4EBB5FBBF8948F
:1031F600E29AE19A0FBE08950FB6E3DF0DBBF5CF55
:103206000FB6DFDF0DBBF1DFDCDF1DBBECCF0C94AF
:103216009918149F102D059F100D049F002D110D58
:1032260008954A951AF0000F111FFBCF0895002448
:103236001124EFE0001F111F001C111C04161506B7
:1032460010F0041A150AEA95AAF7001F111FA0012B
:103256000095109508952224349F302D259F300D1A
:10326600169F300D079F300D249F202D310D159F81
:10327600200D311D069F200D311D149F102D210D8F
:10328600321D059F100D211D321D049F002D110DAD
:10329600221D321D0895002411241001E0E2EA9552
:1032A60092F0001F111F221F331F001C111C221C2D
:1032B600331C041615062606370688F3041A150A63
:1032C600260A370AECCF001F111F221F331FA00149
:1032D600B1010095109520953095089577916791E5
:1032E60057914791179011FA279037900895F9DF73
:1032F600041B10E003C0F4DF041B150B20E030E0D4
:1033060005C0ECDF041B150B260B370BB8F010FCC1
:1033160017C047910790E00FF11F0417100540E012
:103326002407340758F436F406910024F101E01B13
:10333600F0090994E00FF11F27903790F1010994E5
:1033460011F4D6F7F1CF31960EF0319650E060E0E9
:1033560070E047914B3F48F089F34F3F29F04E3FCD
:1033660011F07791679157914791041B150B260B26
:10337600370B39F318F3E7CFFA92EA92DA92CA9248
:10338600BA92AA929A928A927A926A925A924A9297
:10339600BA93AA939A938A930895FF84EE84DD8460
:1033A600CC84BB84AA84998488847F806E805D8067
:1033B6004C80BB81AA8199818881F0E0EC0FFD1FCA
:1033C600EF01089501E008959A938A93C80102C017
:1033D6000E94041A8C010E94121B202F012B69F4F3
:1033E600E9EDF6E02081318100E02030300781F3FD
:1033F600E091D906F32F0995EDCF022F8991999186
:1034060008950C94861820E008D0E9F708953BBF8C
:1034160027913BB702D0D9F708952D93015010405C
:10342600202F212B089506ED402E06E3502E00E0B6
:10343600602EF201362D6BBE07911691F201EE5FFA
:10344600FF4F3F4F3BBFA791B691F201362DEC5F80
:10345600FF4F3F4F3BBF479157916691242F252B36
:10346600262B21F0FA01362FD2DF01C0CCDF07E090
:10347600400E00E0501E601EA201662D443E5643DB
:103486006040B8F20895EBEDF6E000811181012B62
:1034960019F000E010E0089500E611E000831183C2
:1034A60020E034E0F8012083318308950D01D8012E
:1034B600012B09F455C01297ED91FC9111973497A1
:1034C60008F44EC00DED16E0F80153D019F0A2171E
:1034D600B30728F4FD0122833383F80123C0F901E1
:1034E60048D019F02A173B07D0F3408151819F013C
:1034F600240F351FA217B30798F12A173B0741F48B
:103506002D913C91420F531F40835183DF010CC024
:1035160030D021F027D02617370710F112962D93B9
:103526003C931397A283B383FD0123D0C9F01AD02D
:1035360062177307A9F420E0F80120832183FD01B7
:103546000281F381E02F208131814D915C91420F00
:10355600531F5C934E9302811381FD0102831383F3
:10356600D00108954D915C911197BD01640F751FAF
:10357600089522813381422F432B08959A938A938B
:10358600C80105C02E5F3F4F89010E94591AEDED13
:10359600F6E000811181202F212B61F40FED16E05A
:1035A60001C037D029D0F1F02ED0D8F322C02BD0CD
:1035B60000F52FD021D0D9F7EDEDF6E00081F181AD
:1035C600E02F1ED00FED16E007C0FA0140815181B1
:1035D6004817590770F41DD0F801408151814217F0
:1035E600530799F70E94461A9801012B59F600E0F5
:1035F60010E089919991089502D0232B0895F8013E
:10360600208131810895E081F32FFADF28173907E9
:103616000895F801008111810E5F1F4F08950E94E1
:10362600CB19C80102960817190718F000E010E038
:1036360047C0843000E0900710F484E090E08C01ED
:103646009DDF202F212B91F3DADFF901A081B181D3
:103656001497A817B90730F422813381D8012D9326
:103666003C9316C0280F391FD8012D933C934281F5
:10367600538129D04D935C9340815181481B590B4E
:10368600D8012D91BC91A22F4D935C938083918399
:10369600D8012D913C91232B59F015D02D913C91B9
:1036A600232B31F0D8010D911C910E5F1F4F02C0E4
:1036B60000E010E0ADEDB6E00D931C9332968F015D
:1036C600E4E00C94DC19D8012D91D90112960895E5
:1036D6001A01C7050000000700C005E43600010115
:0536E600005046000049
:0400000300000000F9
:00000001FF
