:020000020000FC
:100000000C94C11918951895189518951895189568
:100010001895189518951895189518951895189578
:10002000189518950C94F20118951895189518952F
:100030001895189518951895189518950C942203ED
:1000400018951895189518950C94F3180C942A196E
:100050001895189518951895189518951895189538
:100060001895189518951895189518951895189528
:100070001895189518951895189518951895189518
:10008000189518951895189518951895F90403055D
:1000900029055E058E05F804F804560B650BF80477
:1000A0000102010301020104010201030102010036
:1000B000474D20636F646500D9DA2020202020207E
:1000C0002020202020202020202020202020202030
:1000D0002020202020202020202020202020202020
:1000E0002020202020202020A2B5202020202020F9
:1000F000202020202020202041A042A1E045A3A4D0
:10010000A5A64BA74D484FA8504354A9AA58E1AB08
:10011000ACE2ADAE62AFB0B161B2B3B4E365B6B755
:10012000B8B9BABBBCBD6FBE7063BF79E478E5C037
:10013000C1E6C2C3C4C5C6C706090906000000005F
:10014000060F0F0600000000D30FD30FD30FD30FFD
:10015000D30FD30FD30F0D10D20FD20FD20FD20F58
:10016000D20FD30FAE106711D20FD20FD20FD20F12
:100170005E10D20F6212E011FD111A12681267119F
:10018000AF12D20FD20FD20FD20FD20F7812D20FDE
:100190001D131F132A1335136812D512D20F8113A2
:1001A000BE13DB13F81368124113D20F4414461424
:1001B0004814D20F68121314D20FE214E4140F156E
:1001C0003A1568125B14D20F78157A157C15D20F88
:1001D00068124715D20FD20FD20FD20FD20FD20F03
:1001E000D20FD20FD20FD20FD20FD20FD20FD20F07
:1001F000D20FD20FD20FD20FD20FD20FD20FD20FF7
:10020000D20FD20FD20FD20FD20FD20F0302040699
:1002100001537475636B20202020200053656E739A
:100220006F7273203A2000576F726B206D6F646598
:1002300020004C656E3D2020202020200045727259
:100240006F7220202020200053656E736F72732020
:100250003A20004C656E3D3F2020202020202020A9
:1002600020202000496E7075742070617373776F61
:1002700072643A0050617373776F726420657272B2
:100280006F7221004D656E753A0044697374616E3A
:10029000636520746F2053310000004469737461FA
:1002A0006E636520746F20533200000044697374DC
:1002B000616E636520746F205333000000446973DE
:1002C00074616E636520746F2053340000004469CC
:1002D0007374616E636520746F20533500000044B1
:1002E000697374616E636520746F2053360000007B
:1002F000536574206E65772070617373776F7264D5
:10030000005365742070617373776F72643A0053A1
:100310006176653F20282D2F2B2900446973746175
:100320006E636520746F205300536176653F20280B
:050330002D2F2B290018
:10033600410101177F1601931601A71601BB16018D
:10034600CF1601E31601F7161A7516018916019DD7
:100356001601B11601C51601D91601ED16FB4101AC
:100366000D188B17019F1701B31701C71701DB176C
:1003760001EF170103181A811701951701A9170133
:10038600BD1701D11701E51701F917FB2802780BF4
:1003960000E005BD05B5086005BD05B50F7B05BDCB
:1003A60005B50F7D05BD05B50F7E05BD05B50B7FF2
:1003B60005BD05B5026005BD05B5016005BD01D0E9
:1003C600089500E004BD0CE703BD06B70F7706BF2E
:1003D60006B70F7B06BF07B7006807BF08959A9355
:1003E6008A93FA93EA933A922A921A920A927A9303
:1003F6006A935A934A933A932A931A930A938FB716
:100406009BB707B70F7707BF78940091C70610917F
:10041600C8060E94A10D0E94170D0E948D150E940C
:100426004903CFDF9BBF8FBF09911991299139915C
:10043600499159916991799109901990299039902A
:10044600E991F9918991999118950FE210E00E942E
:10045600DE1A9801012B41F089010E941D0D0093BF
:10046600C7061093C806089500E010E00093C7067B
:100476001093C80608950E94CB010E9402030E94B1
:10048600B5180E944D030E94490208950E94BE03BA
:1004960008950E94900408950E94C01AE0970A8366
:1004A6001B83922FDA0180E026EEFE013496082F98
:1004B60010E0E00FF11F208383952BE0FE013496B8
:1004C600082F10E0E00FF11F2083839520E0FE0146
:1004D6003496082F10E0E00FF11F2083839520E06B
:1004E600FE013496082F10E0E00FF11F208383955C
:1004F6002A81FE013496082F10E0E00FF11F2083B9
:1005060083952B81FE013496082F10E0E00FF11F32
:1005160020838395FE013496082F10E0E00FF11F2B
:100526009083839540E0423030F520E0263008F590
:1005360060E06230E0F450E00CE010E00E94031A44
:10054600FD01E00FF11F022F10E0000F111FE00F59
:10055600F11F70E0E60FF71F3081FE013496082F79
:1005660010E0E00FF11F308383956395E2CF23956A
:10057600DDCF4395D8CF20E0263000F5022F10E0DE
:10058600000F111F40E050E0400F511F0E94E81974
:100596000883198300E0023078F4FE0110E0E00FD2
:1005A600F11F1081FE013496482F50E0E40FF51F2D
:1005B600108383950395EFCF2395DECF8E83282F67
:1005C60030E08E010C5F1F4F0E944E03FE013496F1
:1005D600282F30E0E20FF31F00838395442448164A
:1005E60050F4FE0134965524E40DF51D00810E9459
:1005F6005B194394F4CFE096E6E00C94D11A03B766
:100606000B7F03BF03B7026003BF03B7016003BFDD
:1006160003B70F7B03BF03B7086003BF03B70F7DA4
:1006260003BF03B70F7E03BF03B70F7703BF00E017
:1006360002BF09EF01BF07B7026007BF08959A938B
:100646008A93FA93EA933A922A921A920A927A93A0
:100656006A935A934A933A932A931A930A938FB7B3
:100666009BB70E944A039BBF8FBF0991199129919D
:1006760039914991599169917991099019902990E7
:100686003990E991F99189919991189508950E9467
:100696004C02089508950E94C21AD8010FEF80E017
:1006A60090E08217930764F410E04C9150E0042721
:1006B6001527F801E054FA4F008111960196F1CF03
:1006C600E4E00C94D31AC69AC69AC79A949A959A55
:1006D600BE9ABE9ABF9A8C9A8D9A0FE31CE9015076
:1006E6001040E9F700C0000095980895B80100E0B1
:1006F60010E0BE9ABF9A8C9A8D9AC7982AE02A95DE
:10070600F1F700C094982AE02A95F1F700C040E07E
:10071600403110F577FB16F421E001C020E020FB04
:1007260028B326F928BB2AE02A95F1F700C0C79A14
:100736002AE02A95F1F700C0000F111FC69B03C0DF
:10074600016021E030E0C798660F771F2AE02A95FE
:10075600F1F700C04395DCCF949A2AE02A95F1F789
:1007660000C008952FB7F8012083F8940895F80182
:1007760020812FBF08958A930E94660300E010E04F
:100786000E947903159A149A1D9A1C9A0CE010E09F
:100796000E94DE1A98018901232B49F050E06DE68C
:1007A60074E042E330E026E60E94691702C000E0EA
:1007B60010E00093CA061093CB060CE010E00E94EE
:1007C600DE1A0801012B51F051E06DE674E042E3B8
:1007D60031E026E680010E94691702C000E010E0C1
:1007E6000093CC061093CD060CE010E00E94DE1AB2
:1007F6000801012B51F052E06DE674E042E332E06D
:1008060026E680010E94691702C000E010E000930E
:10081600CE061093CF060CE010E00E94DE1A080107
:10082600012B51F053E06DE674E042E333E026E637
:1008360080010E94691702C000E010E00093D00614
:100846001093D1060CE010E00E94DE1A0801012B7D
:1008560051F054E06DE674E042E334E026E68001B0
:100866000E94691702C000E010E00093D2061093C0
:10087600D3060CE010E00E94DE1A0801012B51F0AD
:1008860055E06DE674E042E335E026E680010E941D
:10089600691702C000E010E00093D4061093D50655
:1008A6000AE00093330700E00093C00680E086303C
:1008B60078F4082F10E0000F111FF801E653F94FE6
:1008C600008111810E94B218182F04D08395EFCFB2
:1008D600899108959A938A93902F812F0091D60635
:1008E60010913307011798F401E000932D07182F94
:1008F600092F2091D60630E0220F331FF901E45765
:10090600FF4F259134913197F901099503C000E015
:100916000093D6068991999108950091C006002307
:1009260009F062C00091D7060023D1F00091C106FC
:100936001091C206083A21E6120748F4E1ECF6E007
:10094600008111810F5F1F4F0083118309C000E0F2
:100956000093D70601E00093D80605E00093D6067B
:100966000091CA061091CB060E9453180091CC063E
:100976001091CD060E9453180091CE061091CF0615
:100986000E9453180091D0061091D1060E94531868
:100996000091D2061091D3060E9453180091D406F6
:1009A6001091D5060E945318E091D906F091DA0607
:1009B600329740F0E9EDF6E00081118101501040D8
:1009C600008311830091D9061091DA06013020E0E8
:1009D600120751F400E010E00093D9061093DA06EE
:1009E6000091DB060093D6060895089520E0209333
:1009F600D70620E02093C90621E02093D606089565
:100A06000E94C21AA02F912FB0E080E0863098F4A1
:100A1600082F10E0000F111FF801E653F94F00816F
:100A260011810E94B218002311F401E001C000E018
:100A3600B02B8395EBCFBB2331F401E00093C906BD
:100A460002E00093D606E4E00C94D31A9A938A93B4
:100A5600802F912F1D9A1C9A00E010E000932B071F
:100A660010932C0740E04230D0F420E02630A8F462
:100A760060E070E050E00CE010E00E94031AECED3C
:100A8600F6E0E00FF11F022F10E0000F111FE00F3C
:100A9600F11F608371832395E9CF4395E4CF00E08E
:100AA6000093D70603E00093D606192F082F03D02C
:100AB600899199910895402F212F442359F501E0FA
:100AC60010E00093C1061093C20601E00093D7061A
:100AD60000E00093D8066091C1067091C20650E00E
:100AE6000CE010E00E94031AECEDF6E0E00FF11FB7
:100AF600022F10E0000F111FE00FF11F60837183BA
:100B060004E00093D606222329F0EBE2F7E0008109
:100B16000160008308950E94C21A2297802FA12F98
:100B26008E010F5F1F4F0E94B50300E010E0009397
:100B3600D9061093DA068E010F5F1F4F0E94BA0383
:100B4600482F50E00CE010E00E94031AECEDF6E0AE
:100B5600E00FF11F0A2F10E0000F111FE00FF11F29
:100B660000811181012B71F04A2F01E010E00E94F3
:100B76000B1AEBE2F7E020813181202B312B208309
:100B8600318316C02091C1063091C206482F50E02D
:100B96000CE010E00E94031AECEDF6E0E00FF11F06
:100BA6000A2F10E0000F111FE00FF11F2083318381
:100BB60091E0B0E0B63070F40B2F10E0000F111F7B
:100BC600F801E653F94F008111810E94B218902373
:100BD600B395F0CF992379F08E010E94B50305E015
:100BE6000093DB0608E813E10093D9061093DA06B2
:100BF6008E010E94BA032296E4E00C94D31A0E9456
:100C0600B61A24978E010D5F1F4F0E94B5030091FF
:100C1600D606D02E8E010D5F1F4F0E94BA0307E045
:100C2600D01611F44AD53BC508E0D01611F454D5B8
:100C360036C505E0D01609F032C500E00093D706A8
:100C46000091D806002309F45CC080E0863008F5E0
:100C560000E0023010F40395FCCF082F10E0000FDF
:100C6600111FF801E653F94F008111810E94B21855
:100C7600002369F4482F01E010E00E940B1AEBE212
:100C8600F7E020813181202B312B2083318383951E
:100C9600DDCF00912B0710912C070093300700E061
:100CA60010E0009331071093320700E010E00E9435
:100CB60079031C980FEF19E628E1015010402040F7
:100CC600E1F700C000001D9801E000932E0706E042
:100CD6000093D6068E010E5F1F4F0E94B50307E0F4
:100CE6000093DB0608E813E10093D9061093DA06B1
:100CF6008E010E5F1F4F0E94BA0300E00093D806D4
:100D0600CEC400E0063040F42FEF10E0F801EC5DB1
:100D1600F84F20830395F6CF00E000932A0720E0E2
:100D2600263008F041C030E0323018F5432F50E04D
:100D36000CE010E00E94031AECEDF6E0E00FF11F64
:100D4600022F10E0000F111FE00FF11F008111812B
:100D5600012B69F4422F01E010E00E940B1AEBE22E
:100D6600F7E040815181402B512B408351833395CD
:100D7600DBCF60912B0770912C07422F01E010E02A
:100D86000E940B1A60237123672B61F400912A07D6
:100D960010E0F801EC5DF84F208300912A070395D7
:100DA60000932A072395BCCF00912A0700932F07AB
:100DB60000912B0710912C070093300780E090E0FC
:100DC600A0E0B0E0EE2400912A070330C0F50091C0
:100DD6002B0710912C070093300700E010E00093DA
:100DE60031071093320700E010E00E9479031C9847
:100DF6000FEF19E628E1015010402040E1F700C04E
:100E060000001D9801E000932E0706E00093D60629
:100E16008E010F5F1F4F0E94B50308E00093DB06AB
:100E260008E813E10093D9061093DA068E010F5FE6
:100E36001F4F0E94BA0300E00093D80630C4009109
:100E46002A0710E0F801ED5DF84F008110E0000F71
:100E5600111FF801E452F94F2081318100912407D6
:100E660010E0000F111FF801E452F94F04851585B3
:100E76002017310708F092C10091240710E0000FF7
:100E8600111FF801E452F94F0485158520912A07B0
:100E960030E0F901ED5DF84F208130E0220F331F7D
:100EA600F901E452F94F20813181021B130B20E036
:100EB60030E0E4EFF6E00083118322833383009170
:100EC6002A0710E0F801ED5DF84F008110E0000FF1
:100ED600111F40E050E0400F511F0E94E819B80171
:100EE6000091240710E0000F111F40E050E0400F72
:100EF600511F0E94E819601B710B8B0120E030E046
:100F0600ECEFF6E0008311832283338300912A07F6
:100F160010E0F801ED5DF84F008110E0000F111FA1
:100F260040E050E0400F511F0E94E819B8010091BF
:100F36002A0710E0F801EE5DF84F008110E0000F7F
:100F4600111F40E050E0400F511F0E94E819601B3E
:100F5600710B8B0120E030E0E4E0F7E000831183C1
:100F66002283338300912A0710E0F801ED5DF84FE4
:100F7600008110E0000F111FF801E452F94F0081C3
:100F8600118120912A0730E0F901EE5DF84F2081AA
:100F960030E0220F331FF901E452F94F20813181ED
:100FA600021B130B20E030E0E0E1F7E00083118341
:100FB600228333830091250710E0000F111F40E0C4
:100FC60050E0400F511F0E94E819B8010091240714
:100FD60010E0000F111F40E050E0400F511F0E942B
:100FE600E819601B710B8B0120E030E0E8E0F7E0C8
:100FF60000831183228333830091250710E0000FBD
:10100600111FF801E452F94F048515852091240734
:1010160030E0220F331FF901E452F94F248535855C
:10102600021B130B20E030E0E4E1F7E000831183BC
:1010360022833383E4E0F7E000811181228133814A
:10104600E8E0F7E04081518162817381040F151F4A
:10105600261F371FE0E0F7E00083118322833383E6
:10106600E0E1F7E00081118122813381E4E1F7E0DC
:101076004081518162817381040F151F261F371F1E
:10108600ECE0F7E00083118322833383E4E0F7E0AA
:101096000081118122813381E4EFF6E040815181A4
:1010A600628173810E94251A4AE050E060E070E098
:1010B6000E94251AE0E1F7E0408151816281738147
:1010C6000E94451A0B5F1F4F2F4F3F4F4AE050E0DB
:1010D60060E070E00E94451AECE1F7E000831183BE
:1010E60022833383E8E0F7E0008111812281338196
:1010F600E4EFF6E040815181628173810E94251AF6
:101106004AE050E060E070E00E94251AE4E1F7E072
:1011160040815181628173810E94451A0B5F1F4F86
:101126002F4F3F4F4AE050E060E070E00E94451AC2
:10113600E0E2F7E00083118322833383ECEFF6E0ED
:101146000081118122813381ECE1F7E040815181F8
:1011560062817381E0E2F7E00080118022803380B3
:10116600400D511D621D731D7695679557954795E0
:10117600040F151F261F371FE8E1F7E000831183D0
:1011860022833383E8E1F7E00081118122813381F4
:10119600800F911FA21FB31FE3942BC2CC24009192
:1011A6002A07C01608F025C20C2D10E0F801EC5DE8
:1011B600F84F008110E0000F111FF801E452F94FBB
:1011C60020813181FF24F701EC5DF84F008110E0AA
:1011D600000F111FF801E452F94F048515852017F9
:1011E600310708F404C2FF24F701EC5DF84F0081D3
:1011F60010E0000F111FF801E452F94F0485158520
:101206002C2D30E0F901ED5DF84F208130E0220F02
:10121600331FF901E452F94F20813181021B130B70
:1012260020E030E0E4EFF6E000831183228333838D
:101236000C2D10E0F801EC5DF84F008110E0000F76
:10124600111FF801E452F94F00811181FF24F701C3
:10125600EC5DF84F208130E0220F331FF901E45294
:10126600F94F24853585021B130B20E030E0E8EFAB
:10127600F6E00083118322833383E4EFF6E00081F6
:10128600118122813381E8EFF6E04081518162814C
:101296007381041715072607370708F0D4C00C2DED
:1012A60010E0F801ED5DF84F008110E0000F111F0E
:1012B60040E050E0400F511F0E94E819B801FF249A
:1012C600F701EC5DF84F008110E0000F111F40E0C0
:1012D60050E0400F511F0E94E819601B710B8B01F3
:1012E60020E030E0ECEFF6E00083118322833383C5
:1012F6000C2D10E0F801EC5DF84F008110E0000FB6
:10130600111F40E050E0400F511F0E94E819B8013C
:101316000C2D10E0F801ED5DF84F008110E0000F94
:10132600111F40E050E0400F511F0E94E819601B5A
:10133600710B8B0120E030E0E0E0F7E000831183E1
:10134600228333830C2D10E0F801EC5DF84F008109
:1013560010E0000F111FF801E452F94F00811181CE
:101366002C2D30E0F901ED5DF84F208130E0220FA1
:10137600331FF901E452F94F20813181021B130B0F
:1013860020E030E0ECE0F7E0008311832283338332
:101396004AE050E060E070E0ECEFF6E00081118199
:1013A600228133810E94251A48015901E0E0F7E0C5
:1013B6000081118122813381E4EFF6E04081518181
:1013C600628173810E94251AA801B9010DEE13E00E
:1013D60020E030E00E94251A2801390144E650E059
:1013E60060E070E0ECE0F7E000811181228133815A
:1013F6000E94251AA801B901820193010E94451A8B
:10140600A401B501400F511F621F731F4B5F5F4F51
:101416006F4F7F4F8A019B014AE050E060E070E029
:101426000E94451AE8E1F7E00083118322833383A3
:10143600E8E1F7E00081118122813381800F911F5D
:10144600A21FB31FD3C00C2D10E0F801EC5DF84FBE
:10145600008110E0000F111F40E050E0400F511FC7
:101466000E94E819B801FF24F701EC5DF84F0081EE
:1014760010E0000F111F40E050E0400F511F0E9486
:10148600E819601B710B8B0120E030E0ECEFF6E011
:1014960000831183228333830C2D10E0F801EC5D69
:1014A600F84F008110E0000F111F40E050E0400FA0
:1014B600511F0E94E819B8010C2D10E0F801ED5DEE
:1014C600F84F008110E0000F111F40E050E0400F80
:1014D600511F0E94E819601B710B8B0120E030E060
:1014E600E0E0F7E000831183228333830C2D10E0C4
:1014F600F801EC5DF84F008110E0000F111FF801B4
:10150600E452F94F008111812C2D30E0F901ED5D97
:10151600F84F208130E0220F331FF901E452F94FD2
:1015260020813181021B130B20E030E0ECE0F7E074
:1015360000831183228333834AE050E060E070E049
:10154600ECEFF6E000811181228133810E94251A99
:1015560048015901E0E0F7E00081118122813381E1
:10156600E8EFF6E040815181628173810E94251A7D
:10157600A801B90106EE13E020E030E00E94251A2A
:101586002801390144E650E060E070E0ECE0F7E065
:1015960000811181228133810E94251AA801B90197
:1015A600820193010E94451AA401B501401B510B0B
:1015B600620B730B4E5E5F4F6F4F7F4F8A019B012D
:1015C6004AE050E060E070E00E94451AE8E1F7E08A
:1015D6000083118322833383E8E1F7E000811181E0
:1015E60022813381800F911FA21FB31FE394C394FE
:1015F600D6CD4AE050E060E070E08C019D010E948B
:10160600251A4E2D50E060E070E00E94451A0B5FEF
:101616001F4F2F4F3F4F4AE050E060E070E00E94BE
:10162600451A009331071093320700913107109144
:101636003207000F111F000F111F0E94790300913E
:101646002A07063010F41C9801C01C9A0FEF19E601
:1016560028E1015010402040E1F700C000001D982D
:1016660001E000932E0706E00093D6068E010E9445
:10167600B50308E00093DB0608E813E10093D906FA
:101686001093DA068E010E94BA034CED56E02091C3
:10169600300700913107109132070E944F022496BD
:1016A600E0E10C94C71A9A938A93902F812F182FF2
:1016B600092FA6D98991999108951D9A01E0009361
:1016C600D60608959A938A93902F812F182F092F63
:1016D600BDD98991999108951D9A02E00093D60685
:1016E60000E010E00E947903089505E310E00E94EF
:1016F600DE1A9801012B39F089010CD000933407CA
:1017060010933507089500E010E000933407109316
:1017160035070895BA93AA93D8010DE010E00E9408
:10172600DE1A98018901232B41F063E050E040E086
:1017360030E027E60E94531602C000E010E09B96B8
:101746000D931C939C970DE010E00E94DE1A080191
:10175600012B49F062E050E040E031E027E68001ED
:101766000E94531602C000E010E09D960D931C9354
:101776009E970DE010E00E94DE1A0801012B49F049
:1017860061E050E040E032E027E680010E94531617
:1017960002C000E010E09F960D931C93D0970DE0D9
:1017A60010E00E94DE1A0801012B49F060E050E0CB
:1017B60040E033E027E680010E94531602C000E0B5
:1017C60010E0D1960D931C93D29700E00C9300E0A5
:1017D60011960C93119700E093960C93939792961B
:1017E6000C9392978D01A991B99108950E94C21AFE
:1017F600D8019B960D911C919C970E945A17802F99
:101806009D960D911C919E970E945A17902F9F9618
:101816000D911C91D0970E945A17892B802BD19637
:101826000D911C91D2970E945A17802BD4968C93B7
:10183600D497D4960C91D497D3961C91D39701172D
:1018460091F00C91043118F40C9103950C930C91C2
:10185600043178F0D4960C91D497D3960C93D39701
:1018660000E00C9306C00C91013018F00C910A951B
:101876000C93E4E00C94D31A9A938A93C8018C01D2
:10188600B5DF8C0103D0899199910895BA93AA93F3
:10189600D801FD0103A910E0F801E056FF4F0491BD
:1018A600FD0102A7FD0101810023B1F1FD0103A99C
:1018B6000F3031F1FD0104A115A10C3D25E0120701
:1018C60038F4FD0104A115A10F5F1F4F04A315A352
:1018D600FD0104A115A10C3D25E0120780F1FD01D3
:1018E60006A1043628F4FD0106A1039506A327C028
:1018F60000E0FD0106A3FD0122A58D0127D01FC032
:1019060000E010E0FD0104A315A300E0FD0106A31D
:1019160000E0FD01018313C0FD0103A90F3079F03A
:1019260001E0FD010183FD0122A58D010FD000E03C
:1019360010E0FD0104A315A300E0FD0106A3A99193
:10194600B9910895A8012F71022F08950E94C21A15
:10195600D801922F0FB7FD0107A3F894FD0123A12B
:1019660023958D01EFDF802FFD0102A1801741F045
:10197600082F10E0FD01E00FF11F9283FD0183A304
:10198600FD0107A10FBFE4E00C94D31A0E94C01A10
:101996002801D90180E00FB7F20100A7F894F201FF
:1019A60003A1F20112A1011781F081E0F20122A147
:1019B60023958201C7DFF20102A3F20102A110E022
:1019C600F201E00FF11F02810C93F20100A50FBF97
:1019D600082FE6E00C94D11AF8011FB711A7F89466
:1019E60013A122A1121738F410E222A1121B23A17F
:1019F600120F012F04C013A122A1121B012F11A542
:101A06001FBF08950091340710913507E5DF08954B
:101A16009A938A93C8019C01009134071091350767
:101A2600B5DF899199910895009134071091350792
:101A360023DF08959A938A93C8018C010FD08C01F5
:101A46001FD08C013BD08C0102D240EB50E020E04D
:101A56008C01DAD18C018991999108952FE02ABBE6
:101A66002FE02BBBD49ADC9AD59ADD9A4FEF59E634
:101A760068E1415050406040E1F700C00000089521
:101A860020E0F80123A7F80122A7F80100A711A773
:101A960020E0F80125A720E030E0F80120A331A3DB
:101AA60020E030E0F80122A333A320E0F80126A7C6
:101AB60020E030E0F80126A337A308959A938A938D
:101AC600C8010FEF13EF21E0015010402040E1F76D
:101AD60000C0000028E28C01CDD00FE31FE10150C9
:101AE6001040E9F700C0000028E28C01C3D00FE3E4
:101AF6001FE101501040E9F700C000002CE08C0106
:101B0600B9D021E08C01B6D00FE31FE1015010409F
:101B1600E9F700C0000026E08C01ACD022E08C0181
:101B2600A9D00FE31FE101501040E9F700C0000003
:101B360020E88C019FD08991999108950E94C21A3C
:101B4600D801FD0106A117A10F5F1F4F06A317A31A
:101B5600FD0106A117A1003024E0120728F000E0DD
:101B660010E0FD0106A317A3FD0100A511A50F5F57
:101B76001F4F00A711A7FD0103A5039503A7FD01AC
:101B860003A5003110F100E0FD0103A7FD0102A548
:101B9600039502A7FD0102A5023051F400E0FD0104
:101BA60002A7FD01A0A7B1A720E88D0163D009C057
:101BB6008D01005F1F4FFD0100A711A720EC8D01CD
:101BC60059D008EC00000A95E9F7FD0102A50023AB
:101BD600C9F4FD0120A131A1FD0143A501E010E0FA
:101BE6000E940B1A20233123232B49F0FD0106A165
:101BF60017A1013022E0120710F001E001C000E059
:101C0600802F18C0FD0122A133A1FD0143A501E0EB
:101C160010E00E940B1A20233123232B49F0FD01EB
:101C260006A117A1013022E0120710F001E001C061
:101C360000E0802FFD0100A511A5F8010081FD013E
:101C460004A7FD0104A5013848F0FD0104A510E034
:101C5600F801E85CFF4F0491FD0104A7882319F001
:101C660000E2FD0104A7FD0124A58D011FD0E4E0DB
:101C76000C94D31A0E94C31AC801A22F0FB700935F
:101C86003607F89408EC00000A95E9F7DD9B05C0D5
:101C9600DD9808EC00000A95E9F72A2F8C0122D07E
:101CA600009136070FBFE3E00C94D41A0E94C31AC2
:101CB600C801A22F0FB700933707F89408EC00006D
:101CC6000A95E9F7DD9905C0DD9A08EC00000A954A
:101CD600E9F72A2F8C0106D0009137070FBFE3E002
:101CE6000C94D41A4BB3407F322F32953F70432B5E
:101CF6004BBBDC9A000000000000DC9800000000EE
:101D060000004BB3407F322F3F70432B4BBBDC9A16
:101D1600000000000000DC9808950E94C11AC80166
:101D26000FB7402EF89420E48C01A4DF0FE91FE0E2
:101D360001501040E9F700C00000A0E0A03160F4B7
:101D4600B0E0FD01E85CFE4F24918C01AFDF00E5B9
:101D56000A95F1F7A395F2CF20E88C018BDF0FE906
:101D66001FE001501040E9F700C000004FBEE5E05B
:101D76000C94D21A203208F020E0422F50E0F801ED
:101D8600E40FF51F30830895BA931A2EF801622FD7
:101D9600532F603208F060E070E0DF01A60FB71F36
:101DA6005C93603130F48F01005E1F4F9801062E60
:101DB60007C08F010E5D1F4F9801062F0051002EA0
:101DC60006A5013080F0402D01E010E00E940B1ABC
:101DD600D9012D903C90202A312A3C922E9206A5BC
:101DE6000A9506A70EC0402D01E010E00E940B1ACE
:101DF60000951095D9012D903C90202231223C92DD
:101E06002E92A12DB9910895FA013491632F66237C
:101E160079F0203208F020E030E0F801E20FF31FFD
:101E2600608323954F5F5F4FFA013491632FEFCFA5
:101E3600089520E030E0F80120A331A320E030E04F
:101E4600F80122A333A320E0F80126A708959A9368
:101E56008A93C80100E0003240F420E210E0FC0161
:101E6600E00FF11F20830395F6CF8C01E2DF899105
:101E7600999108950E94BD1A2801B22F632ECA01B6
:101E86000B2F060D0A95A02F77247614F8F44AE056
:101E960050E08C010E94111A842EAA230AF4AFE1A5
:101EA600A0320CF0A0E0282D205D0A2F102F110F74
:101EB600110BF201E00FF11F2083AA954AE050E0D2
:101EC6008C010E94111AC8017394DFCFE9E00C94CB
:101ED600CE1A0E94BD1AD801522E832ECA01052D94
:101EE600080D0A95402E7724781488F54AE050E0CC
:101EF6008C010E94111A642E442012F40FE1402E28
:101F060000E240160CF04424772019F001E0601638
:101F160060F0262D205D042D102F110F110BFD01F1
:101F2600E00FF11F20834A940AC020E2042D102FEF
:101F3600110F110BFD01E00FF11F20834A944AE0B7
:101F460050E08C010E94111AC8017394CDCFE9E0CC
:101F56000C94CE1A0E943E0242ED54E034E020E09A
:101F66000091C7061091C8060E943D0F78940FEFA6
:101F760013ED20E3015010402040E1F700C00000BF
:101F86000091C7061091C8060E94900E0E94660333
:101F96000E94D30F0E9402060E94B815FBCF089537
:101FA600219701E0009338078E010E94B50300E0F7
:101FB60010E020E030E0E3ECF6E0008311832283BA
:101FC6003383E3ECF6E00081118122813381EBE378
:101FD600F7E000831183228333838E010E94BA03C4
:101FE6000091C7061091C8060E942A0F41E152E0EF
:101FF60020E00091C7061091C8060E94070F4CE129
:1020060052E020E10091C7061091C8060E94070F12
:10201600219608958A9380E0863008F041C0082F03
:1020260010E0000F111FF801E653F94F00811181EE
:102036000E94B218002351F030E2282F265E00914C
:10204600C7061091C8060E94C70E10C001E0E091B5
:10205600C706F091C80606A7382F3F5C282F265ED4
:102066000091C7061091C8060E94C70E082F10E0FF
:10207600000F111FF801E653F94F008111810E94EC
:10208600B218002311F431E001C030E0282F265F9A
:102096000091C7061091C8060E94BD0E8395BCCF5D
:1020A6000091D606002329F00091D606013009F0EA
:1020B60002D0899108958A9321978E010E94B503D3
:1020C60000E010E020E030E0E3ECF6E0008311836E
:1020D60022833383E3ECF6E0008111812281338190
:1020E600EBE3F7E000831183228333838E010E94A2
:1020F600BA030091C7061091C8060E942A0F02E093
:102106000093380747E252E020E00091C70610919D
:10211600C8060E94070F80E08630D0F4082F10E032
:10212600000F111FF801E653F94F008111810E943B
:10213600B218002311F431E001C030E0282F265FE9
:102146000091C7061091C8060E94BD0E8395E4CF84
:102156002196899108958A9300912D07002301F114
:1021660000E000932D0780E08630D0F4082F10E0C1
:10217600000F111FF801E653F94F008111810E94EB
:10218600B218002311F431E001C030E0282F265F99
:102196000091C7061091C8060E94BD0E8395E4CF34
:1021A60000912E07002309F480C000E000932E075B
:1021B6000091310710913207012B99F44DE352E05B
:1021C60020E00091C7061091C8060E94070F48E458
:1021D60052E020E10091C7061091C8060E94070F41
:1021E6003BC047E252E020E00091C7061091C806C6
:1021F6000E94070F42E352E020E10091C7061091CA
:10220600C8060E94070F48EE53E00091310710916F
:1022160032070E94111A302F305D24E10091C70663
:102226001091C8060E94BD0E3EE225E10091C70648
:102236001091C8060E94BD0E48EE53E0009131078A
:10224600109132070E94111A33E026E10091C70669
:102256001091C8060E943D0F80E0863030F520912F
:102266003007482F01E010E00E940B1A202322239A
:1022760089F001E0E091C706F091C80606A7382F5D
:102286003F5C282F265E0091C7061091C8060E9463
:10229600C70E09C030E2282F265E0091C7061091AE
:1022A600C8060E94C70E8395D8CF0091D606043083
:1022B60049F443E552E020E10091C7061091C806B3
:1022C6000E94070F8991089521978E010E94B503F8
:1022D60000E315E720E030E0E3ECF6E0008311834D
:1022E60022833383E3ECF6E000811181228133817E
:1022F600EBE3F7E000831183228333838E010E9490
:10230600BA03009138070093390703E000933807B2
:1023160000E00093480700E0053040F420E010E0BC
:10232600F801ED5BF84F20830395F6CF0091C706C1
:102336001091C8060E942A0F44E652E020E0009160
:10234600C7061091C8060E94070F02D0219608956D
:102356008A9380E080E000914807801788F400E0C7
:10236600E091C706F091C80606A73AE2282F205F3B
:102376000091C7061091C8060E94C70E8395EBCF41
:10238600009148070530B8F401E0E091C706F091E6
:10239600C80606A70091480710E0F801ED5BF84F64
:1023A6003081305D20914807205F0091C70610916B
:1023B600C8060E94C70E899108950091480710E04B
:1023C600F801ED5BF84F0081002349F409E0209104
:1023D600480730E0F901ED5BF84F008309C0009132
:1023E600480710E0F801ED5BF84F00810A9500837D
:1023F600AFDF08950091480710E0F801ED5BF84F54
:102406000081093048F000E02091480730E0F901EA
:10241600ED5BF84F008309C00091480710E0F80112
:10242600ED5BF84F00810395008392DF08959A9340
:102436008A9300914807039500934807009148073F
:10244600053080F40091480710E0F801EE5BF84F84
:1024560020810091480710E0F801ED5BF84F2083DA
:1024660077DF2AC081E091E020E02530F0F430E00B
:102476004CE050E0420F531F0E94E51930E0F9018D
:10248600ED5BF84F1081011709F080E030E0F901AB
:10249600E45FFD4F049130E0F901ED5BF84F1081E8
:1024A600011709F090E02395E0CF082F092B0023B0
:1024B60011F078D001C019D08991999108950091B1
:1024C6004807013008F001D008954091390750E0DF
:1024D6000EE010E00E94031AF801EC5AFE4F059137
:1024E60014913197F80109950895219704E0009316
:1024F60038070091C7061091C8060E942A0F44E7C4
:1025060052E020E00091C7061091C8060E94070F0E
:102516008E010E94B50300E010E020E030E0E3EC1D
:10252600F6E00083118322833383E3ECF6E0008137
:10253600118122813381EBE3F7E00083118322834B
:10254600338300E315E70093490710934A078E018A
:102556000E94BA03219608959A938A9321978E0131
:102566000E94B5030091490710914A07C8018E01E0
:102576000E94BA03823000E0900778F048EE53E0FC
:102586008C010E94111AA80132E020E10091C706D1
:102596001091C8060E946C0F01C097DF21968991A1
:1025A60099910895219705E0009338070091C70691
:1025B6001091C8060E942A0F8E010E94B50300E200
:1025C6001FEB22E030E0E3ECF6E000831183228388
:1025D6003383E3ECF6E00081118122813381EBE362
:1025E600F7E000831183228333838E010E94BA03AE
:1025F60044E852E020E00091C7061091C8060E9408
:10260600070F00E000934B0702D0219608954091F2
:102616004B0750E001E110E00E94031A4AE852E03D
:10262600400F511F20E10091C7061091C8060E9475
:10263600070F08954ADF089500914B07013028F0EF
:1026460000914B070A9500934B07E1DF089500912F
:102656004B07063028F400914B07039500934B0770
:10266600D6DF089500914B07063011F407D0089580
:1026760000914B07063008F41BD10895219706E018
:10268600009338078E010E94B50300E61AEE20E09B
:1026960030E0E3ECF6E00083118322833383E3EC3E
:1026A600F6E00081118122813381EBE3F7E00083BC
:1026B6001183228333838E010E94BA030091C706D9
:1026C6001091C8060E942A0F41E053E020E00091D5
:1026D600C7061091C8060E94070F00E0053040F4B7
:1026E60020E010E0F801ED5BF84F20830395F6CF6C
:1026F60000E00093480704D02196089553DF08951B
:102706009A938A9380E0009148078017B0F400E01E
:10271600E091C706F091C80606A790E0FC01ED5BC4
:10272600F84F3081305D282F205F0091C706109149
:10273600C8060E94C70E8395E6CF0091480705306C
:10274600B8F401E0E091C706F091C80606A700912B
:10275600480710E0F801ED5BF84F3081305D2091BD
:102766004807205F0091C7061091C8060E94C70E51
:102776008991999108950091480710E0F801ED5B61
:10278600F84F0081002349F409E02091480730E022
:10279600F901ED5BF84F008309C00091480710E08E
:1027A600F801ED5BF84F00810A950083A9DF0895D3
:1027B6000091480710E0F801ED5BF84F0081093001
:1027C60048F000E02091480730E0F901ED5BF84F52
:1027D600008309C00091480710E0F801ED5BF84F4F
:1027E6000081039500838CDF08950091480704302B
:1027F600A8F40091480703950093480700914807FD
:1028060010E0F801EE5BF84F20810091480710E0D8
:10281600F801ED5BF84F208373DF089501D008952A
:10282600219707E0009338078E010E94B50300E662
:102836001AEE20E030E0E3ECF6E000831183228319
:102846003383E3ECF6E00081118122813381EBE3EF
:10285600F7E000831183228333838E010E94BA033B
:102866000091C7061091C8060E942A0F4FE053E058
:1028760020E10091C7061091C8060E94070F219615
:10288600089590DE08958EDE089520E0253070F4D8
:1028960030E0F901ED5BF84F008130E04CE050E0AC
:1028A600420F531F0E94F6192395F0CF0EDE0895AE
:1028B600219708E00093380700914B0710E0000FBE
:1028C600111F40E050E0400F511F0E94E81900938D
:1028D6004C0710934D0703E000934E070091C7067F
:1028E6001091C8060E942A0F4BE153E020E00091A8
:1028F600C7061091C8060E94070F30914B073F5C30
:102906002DE00091C7061091C8060E94C70E1ED082
:102916008E010E94B50300EC14ED21E030E0E3ECFB
:10292600F6E00083118322833383E3ECF6E0008133
:10293600118122813381EBE3F7E000831183228347
:1029460033838E010E94BA03219608950E94C11A0C
:1029560000914C0710914D07C801A0E0A43060F526
:1029660003E00A1B402E4AE050E08C010E94111A37
:10297600B42F00914E070A1739F401E0E091C7061B
:10298600F091C80606A706C000E0E091C706F091E0
:10299600C80606A73B2F305D242D205F0091C70691
:1029A6001091C8060E94C70E4AE050E08C010E94B2
:1029B600111AC801A395D2CFE5E00C94D21AF2DD24
:1029C60008950E94C21AA1E0B0E020E000914E07EF
:1029D600201740F40AE010E0AD010E94031AD80166
:1029E6002395F4CFAD0100914C0710914D070E943D
:1029F600111A4AE050E00E94111A842F813040F0EB
:102A0600ECE4F7E0008111810A1B1B0B00831183A4
:102A16009DDFE4E00C94D31A0E94C21AA1E0B0E054
:102A260020E000914E07201740F40AE010E0AD01C7
:102A36000E94031AD8012395F4CFAD0100914C07EB
:102A460010914D070E94111A4AE050E00E94111A97
:102A5600842F893040F4ECE4F7E0008111810A0FFD
:102A66001B1F0083118372DFE4E00C94D31A0091DC
:102A76004E07013038F000914E070A9500934E0735
:102A860065DF089501D00895219709E0009338077E
:102A96000091C7061091C8060E942A0F49E253E02A
:102AA60020E10091C7061091C8060E94070F8E010B
:102AB6000E94B50300E315E720E030E0E3ECF6E022
:102AC6000083118322833383E3ECF6E000811181D6
:102AD60022813381EBE3F7E0008311832283338382
:102AE6008E010E94BA03219608955CDD08955ADD91
:102AF600089500914C0710914D0720914B0730E047
:102B0600220F331F40E050E0420F531F0E94FA1974
:102B160049DD0895EBE3F7E00081118122813381DD
:102B2600023040E0140740E0240740E0340770F02C
:102B3600EBE3F7E0008111812281338101501040DF
:102B4600204030400083118322833383E09149077C
:102B5600F0914A07329740F0E9E4F7E000811181ED
:102B66000150104000831183089523970E94050D9C
:102B7600013008F440C00AE317E00E940B0D8E01F5
:102B86000E5F1F4F0E94B503EBE3F7E00081118152
:102B960022813381023040E0140740E0240740E000
:102BA600340760F0E3ECF6E0008111812281338185
:102BB600EBE3F7E000831183228333838E010E5FFC
:102BC6001F4F0E94BA034091380750E00EE010E014
:102BD6000E94031AE8E4F1E0E00FF11F00913A07C2
:102BE60010E0000F111FE00FF11F059114913197AE
:102BF600F801099553C08E010F5F1F4F0E94B50360
:102C0600EBE3F7E00081118122813381EFE3F7E006
:102C160000831183228333838E010F5F1F4F0E942F
:102C2600BA03EFE3F7E0008111812281338101309D
:102C360040E0140740E0240740E0340701F58E0128
:102C46000E94B50300E010E020E030E0EBE3F7E09F
:102C560000831183228333838E010E94BA0340913D
:102C6600380750E00EE010E00E94031AF801EE5A11
:102C7600FE4F059114913197F80109950FC04091C7
:102C8600380750E00EE010E00E94031AF801E85BF6
:102C9600FE4F059114913197F801099523960895F1
:102CA6000E94BF1AC801622E532E442EB52FA62F9E
:102CB6006A2F5B2F442D352D262D8C0104D08C01D7
:102CC600E7E00C94D01A0E94BF1AD801622E832F17
:102CD600542E452E962F062DE6E3F0E0FBBFF3E0DB
:102CE6000C94711A09E3FD0105830AE3FD010483CF
:102CF6000BE3FD0106838CC009E3FD0105830AE3AE
:102D0600FD0104830BE3FD01068382C006E3FD019A
:102D1600058307E3FD01048308E3FD01068378C00C
:102D260006E3FD01058307E3FD01048308E3FD01D6
:102D360006836EC003E3FD01058304E3FD010483FE
:102D460005E3FD01068364C003E3FD01058304E397
:102D5600FD01048305E3FD0106835AC000E3FD017E
:102D6600058301E3FD01048302E3FD01068350C0F0
:102D760000E3FD01058301E3FD01048302E3FD0198
:102D8600068346C001E2FD01058302E2FD010483DC
:102D960003E2FD0106833CC001E2FD01058302E278
:102DA600FD01048303E2FD01068332C000E2FD015A
:102DB600058301E6FD01048302E6FD01068328C0C2
:102DC60000E2FD01058301E6FD01048302E6FD0143
:102DD60006831EC003E6FD01058304E6FD010483A8
:102DE60005E6FD01068314C003E6FD01058304E63E
:102DF600FD01048305E6FD0106830AC003E3FD0128
:102E0600058304E3FD01048305E3FD01068383E0F6
:102E1600883040F4482F01E010E00E940B1AFD01B3
:102E2600078303C001E0FD010783552051F0FD0132
:102E36001781FD010481E02FF0E00081012B008362
:102E46000AC0FD0117811095FD010481E02FF0E015
:102E5600008101230083FD011781FD010681E02F1A
:102E6600F0E00081012B008300E010E0FD01018706
:102E760012870D931C93119700E0FD010283FD015B
:102E860043828D010D5F1F4FFD0103871487983024
:102E960040F4492F01E010E00E940B1AFD01008763
:102EA60003C001E0FD010087E7E00C94D01AF801A9
:102EB6002581E22FF0E02081F801378123232223A8
:102EC60019F0F8010085089500E008950E94BE1AE1
:102ED600D801722E832F642E2B01952FFD0191832D
:102EE600FD0143825482FD01658200E00C93072DAB
:102EF600E4E6F0E0FBBFF3E00C94711A09E3FD0190
:102F060007830AE3FD0106830BE3FD0100878CC0FE
:102F160009E3FD0107830AE3FD0106830BE3FD01D7
:102F2600008782C006E3FD01078307E3FD010683F0
:102F360008E3FD01008778C006E3FD01078307E388
:102F4600FD01068308E3FD0100876EC003E3FD0172
:102F5600078304E3FD01068305E3FD01008764C0E2
:102F660003E3FD01078304E3FD01068305E3FD0199
:102F760000875AC000E3FD01078301E3FD010683D4
:102F860002E3FD01008750C000E3FD01078301E372
:102F9600FD01068302E3FD01008746C001E2FD0153
:102FA600078302E2FD01068303E2FD0100873CC0C0
:102FB60001E2FD01078302E2FD01068303E2FD0152
:102FC600008732C000E2FD01078301E6FD010683AA
:102FD60002E6FD01008728C000E2FD01078301E645
:102FE600FD01068302E6FD0100871EC003E6FD0122
:102FF600078304E6FD01068305E6FD01008714C08C
:1030060003E6FD01078304E6FD01068305E6FD01EF
:1030160000870AC003E6FD01078304E6FD01068377
:1030260005E6FD01008784E0883008F080E0482F3F
:1030360001E010E00E940B1AFD010187FD011185D8
:103046001095FD010681E02FF0E000810123008349
:10305600FD011185FD010085E02FF0E01083FD01E3
:103066000781E02FF0E00081FD0111850123002397
:1030760011F001E001C000E01C910127FD0102876B
:10308600FD010285002329F0FD010581FD0103876D
:1030960003C000E0FD0103878D01E8E00C94CF1A20
:1030A600BA93AA93D801FD010781E02FF0E00081D1
:1030B600FD01118501231C910127002349F1FD0122
:1030C6000385FD011581011720F4FD010385039594
:1030D6000387FD010385FD0115810117E8F1FD0157
:1030E60002850023C9F501E0FD010287FD01238168
:1030F600348100E010E02017310771F1FD011181E4
:10310600FD0102851396ED91FC911497099524C053
:10311600FD010385013020F0FD0103850A95038733
:10312600FD0103850023C1F4FD0102850023A1F002
:1031360000E0FD010287FD012381348100E010E0FB
:103146002017310749F0FD011181FD010285139613
:10315600ED91FC9114970995A991B9910895F801FB
:103166000285089528E630E08901012F10E00093DA
:103176009000022F09B900E0009395000091950098
:103186000F7E00939500009195000F7D00939500AA
:1031960000919500026000939500009195000460EF
:1031A60000939500529800919500077F0093950033
:1031B60000E00093D8070093D7070093D607009343
:1031C600D5070093D4070093D307009352070093C3
:1031D600510700E00AB9579A549A539A569A089595
:1031E600FA93EA935A934A933A932A931A930A9331
:1031F6004FB75BB70CB1202FE1E5F7E00081017016
:1032060003950170302F00915207301721F401E029
:103216000093D60711C000E00093D60730935107FC
:103226000091510710E0F801E15BF84F208300910F
:10323600D50703950093D5075BBF4FBF0991199139
:103246002991399149915991E991F9911895FA93F2
:10325600EA934A933A932A931A930A933FB74BB742
:103266001091D3072091D4071217A1F01091D4071B
:1032760013951F77012F0093D407509A10E0F80199
:10328600ED5AF84F10811CB91091D7071A95109373
:10329600D70704C0559810E01093D7074BBF3FBF20
:1032A60009911991299139914991E991F9911895C5
:1032B600402F1FB7512FF8941091D30713951F77FE
:1032C600212F1091D407211729F411E01093D80764
:1032D60000E00EC030E0F901ED5AF84F408320932C
:1032E600D307559A1091D70713951093D70701E086
:1032F6005FBF089520E030E000E10E94861901E0FA
:1033060010E00C94871908952297C8018883998341
:103316009E0101E00E948619F9CF0C9487190E943C
:10332600BB1A4801A22EDA01962F82E024016A2CEC
:103336000BC002E0400E511E611E823099F002E081
:10334600400E00E0501E601E4A165B06690689F0B4
:10335600F2016BBE4791569110E04030504049F360
:10336600823069F3F2016BBE0791F691E02F099561
:10337600E6CF8A95D9F6EBE00C94CC1A0FEB0DBF8D
:1033860005E00EBFC0E6D1E00E94DC1A002311F072
:103396000E940D1B02E913E020E046E953E060E0DD
:1033A6000E9492190E94AD0F0E94011A0C94901966
:1033B600E199FECF08954F5F5F4FFADF4EBB5FBBCB
:1033C600E09A0895FADF0DB30895F7DF0DB3F3DF42
:1033D6001DB308954F5F5F4F4EBB5FBBF894E29AF3
:1033E600E19A0FBE08950FB6E3DF0DBBF5CF0FB61A
:1033F600DFDF0DBBF1DFDCDF1DBBECCF0C949019DA
:10340600149F102D059F100D049F002D110D08957A
:103416004A951AF0000F111FFBCF089500241124BE
:10342600EFE0001F111F001C111C0416150610F0FA
:10343600041A150AEA95AAF7001F111FA0010095A4
:10344600109508952224349F302D259F300D169F08
:10345600300D079F300D249F202D310D159F200D17
:10346600311D069F200D311D149F102D210D321D7B
:10347600059F100D211D321D049F002D110D221DCB
:10348600321D0895002411241001E0E2EA9592F01D
:10349600001F111F221F331F001C111C221C331C6E
:1034A600041615062606370688F3041A150A260A90
:1034B600370AECCF001F111F221F331FA001B101D5
:1034C60000951095209530950895779167915791BD
:1034D6004791179011FA279037900895F9DF041B4A
:1034E60010E003C0F4DF041B150B20E030E005C03C
:1034F600ECDF041B150B260B370BB8F010FC17C0BE
:1035060047910790E00FF11F0417100540E02407CC
:10351600340758F436F406910024F101E01BF00953
:103526000994E00FF11F27903790F101099411F4E7
:10353600D6F7F1CF31960EF0319650E060E070E0AC
:1035460047914B3F48F089F34F3F29F04E3F11F02A
:103556007791679157914791041B150B260B370BF3
:1035660039F318F3E7CFFA92EA92DA92CA92BA924C
:10357600AA929A928A927A926A925A924A92BA93A4
:10358600AA939A938A930895FF84EE84DD84CC846B
:10359600BB84AA84998488847F806E805D804C80F9
:1035A600BB81AA8199818881F0E0EC0FFD1FEF01B4
:1035B600089501E008959A938A93C80102C00E9473
:1035C600FB1A8C010E94091C202F012B69F4E9EDDE
:1035D600F7E02081318100E02030300781F3E0916F
:1035E600D907F32F0995EDCF022F89919991089567
:1035F6000C947D1920E008D0E9F708953BBF279188
:103606003BB702D0D9F708952D9301501040202FD3
:10361600212B089504EC402E08E3502E00E0602E86
:10362600F201362D6BBE07911691F201EE5FFF4F48
:103636003F4F3BBFA791B691F201362DEC5FFF4F8E
:103646003F4F3BBF479157916691242F252B262B41
:1036560021F0FA01362FD2DF01C0CCDF07E0400EA1
:1036660000E0501E601EA201662D423D5843604098
:10367600B8F20895EBEDF7E000811181012B19F006
:1036860000E010E0089500E611E00083118320E0D9
:1036960034E0F8012083318308950D01D801012B10
:1036A60009F455C01297ED91FC911197349708F4DF
:1036B6004EC00DED17E0F80153D019F0A217B3076D
:1036C60028F4FD0122833383F80123C0F90148D091
:1036D60019F02A173B07D0F3408151819F01240F2F
:1036E600351FA217B30798F12A173B0741F42D910E
:1036F6003C91420F531F40835183DF010CC030D0F1
:1037060021F027D02617370710F112962D933C93F8
:103716001397A283B383FD0123D0C9F01AD0621791
:103726007307A9F420E0F80120832183FD010281BB
:10373600F381E02F208131814D915C91420F531F1F
:103746005C934E9302811381FD0102831383D001A2
:1037560008954D915C911197BD01640F751F0895F1
:1037660022813381422F432B08959A938A93C8016D
:1037760005C02E5F3F4F89010E94501BEDEDF7E01B
:1037860000811181202F212B61F40FED17E001C07C
:1037960037D029D0F1F02ED0D8F322C02BD000F5A7
:1037A6002FD021D0D9F7EDEDF7E00081F181E02FA0
:1037B6001ED00FED17E007C0FA014081518148176E
:1037C600590770F41DD0F801408151814217530703
:1037D60099F70E943D1B9801012B59F600E010E075
:1037E60089919991089502D0232B0895F80120819B
:1037F60031810895E081F32FFADF281739070895FC
:10380600F801008111810E5F1F4F08950E94C21AB0
:10381600C80102960817190718F000E010E047C023
:10382600843000E0900710F484E090E08C019DDF86
:10383600202F212B91F3DADFF901A081B1811497B2
:10384600A817B90730F422813381D8012D933C9310
:1038560016C0280F391FD8012D933C9342815381FE
:1038660029D04D935C9340815181481B590BD80157
:103876002D91BC91A22F4D935C9380839183D801A7
:103886002D913C91232B59F015D02D913C91232B52
:1038960031F0D8010D911C910E5F1F4F02C000E060
:1038A60010E0ADEDB7E00D931C9332968F01E4E086
:1038B6000C94D31AD8012D91D901129608951A01A4
:1038C600C7060000000701C005D238000031625368
:1038D600C4F5A697B988DBEA7D4C1F2E43722110EA
:1038E60087B6E5D4FACB98A93E0F5C6D86B7E4D5CA
:1038F600427320113F0E5D6CFBCA99A8C5F4A796CA
:10390600013063527C4D1E2FB889DAEB3D0C5F6E99
:10391600F9C89BAA84B5E6D7407122137E4F1C2DA9
:10392600BA8BD8E9C7F6A59403326150BB8AD9E8A9
:103936007F4E1D2C02336051C6F7A495F8C99AAB89
:103946003C0D5E6F4170231285B4E7D67A4B182979
:10395600BE8FDCEDC3F2A1900736655439085B6A69
:10396600FDCC9FAE80B1E2D344752617FCCD9EAF49
:1039760038095A6B4574271681B0E3D2BF8EDDEC49
:103986007B4A192806376455C2F3A0914776251459
:1039960083B2E1D0FECF9CAD3A0B58690435665729
:1039A600C0F1A293BD8CDFEE79481B2AC1F0A39229
:1039B6000534675678491A2BBC8DDEEF82B3E0D109
:1039C600467724153B0A5968FFCE9DAC010100508D
:0339D600460000A8
:0400000300000000F9
:00000001FF
