:020000020000FC
:100000000C94E32718951895189518951895189538
:100010001895189518951895189518951895189578
:10002000189518950C9422021895189518951895FE
:100030001895189518951895189518950C949F0271
:1000400018951895189518950C9408270C943F2727
:100050001895189518951895189518951895189538
:100060001895189518951895189518951895189528
:100070001895189518951895189518951895189518
:100080001895189518951895189518950F14BE037E
:10009000BE032114AA04BE03B8040B05BE03240545
:1000A00099053D054A0FBE03BE03BE03BE03BE0352
:1000B000BE03BE03BE03BE03BE03BE0301020103B3
:1000C000010201040102010301020100474D206306
:1000D0006F646500D9DA20202020202020202020F5
:1000E0002020202020202020202020202020202010
:1000F0002020202020202020202020202020202000
:1001000020202020A2B520202020202020202020D8
:100110002020202041A042A1E045A3A4A5A64BA7F2
:100120004D484FA8504354A9AA58E1ABACE2ADAE3C
:1001300062AFB0B161B2B3B4E365B6B7B8B9BABB38
:10014000BCBD6FBE7063BF79E478E5C0C1E6C2C3D1
:10015000C4C5C6C70609090600000000060F0F0641
:1001600000000000AC1AAC1AAC1AAC1AAC1AAC1AEB
:10017000AC1AE61AAB1AAB1AAB1AAB1AAB1AAC1A1A
:10018000741B4D1CAB1AAB1AAB1AAB1A3F1BAB1A44
:10019000481DC61CE31C001D4E1D4D1C951DAB1AB1
:1001A000AB1AAB1AAB1AAB1A5E1DF01D561E581EC9
:1001B000631E6E1E4E1DBB1DAB1AC61E031F201FE5
:1001C0003D1F4E1D861EAB1A891F8B1F8D1FAB1A3C
:1001D0004E1D581FAB1A2720292054207F204E1D6A
:1001E000A01FAB1ABD20BF20C120AB1A4E1D8C2012
:1001F000B9213F1BAB1AAB1AAB1AAB1A8D21AB1A44
:100200003F1B542170214F214C21D220AB1AAB1A35
:10021000AB1AAB1AAB1AAB1AAB1A030204060153A2
:100220007475636B20202020200053656E736F72FD
:1002300073203A20004C3D202020202020004572D1
:10024000726F722020200053656E736F72733A00D4
:100250004C3D3F2020202020202020202020202036
:1002600000496E7075742070617373776F72643AB1
:100270000050617373776F7264206572726F7221C0
:10028000004D656E753A0044697374616E63652054
:10029000746F20533120200044697374616E63656C
:1002A00020746F20533220200044697374616E63A0
:1002B0006520746F20533320200044697374616E8D
:1002C000636520746F205334202000446973746187
:1002D0006E636520746F2053352020004469737469
:1002E000616E636520746F2053362020004469736B
:1002F00074616E636520746F205337202000446959
:100300007374616E636520746F205338202000532E
:100310006574206E65772070617373776F72640007
:10032000446562756720736372207370656564202D
:10033000004465627567206F757420444143202036
:1003400020005365742070617373776F72643A0094
:10035000536176653F20282D2F2B29004469737443
:10036000616E636520746F205300536176653F2092
:10037000282D2F2B29004465627567204F75742046
:100380004441430031363030306D6D2D32302E30E7
:0503900030306D41005A
:1003960041010425822401962401AA2401BE2401D8
:1003A600D22401E62401FA241A7824018C2401A01F
:1003B6002401B42401C82401DC2401F024FB4101FA
:1003C60020269E2501B22501C62501DA2501EE2546
:1003D6000102260116261A942501A82501BC25012D
:1003E600D02501E42501F825010C26FB58022D1520
:1003F60000E005BD05B5086005BD05B50F7B05BD6B
:1004060005B50F7D05BD05B50F7E05BD05B50B7F91
:1004160005BD05B5026005BD05B5016005BD01D088
:10042600089500E004BD0CE703BD06B70F7706BFCD
:1004360006B70F7B06BF07B7006807BF08959A93F4
:100446008A93FA93EA933A922A921A920A927A93A2
:100456006A935A934A933A932A931A930A938FB7B5
:100466009BB707B70F7707BF789400911D0A1091C5
:100476001E0A0E9456170E94CC160E9490230E94C4
:10048600C602CFDF9BBF8FBF099119912991399180
:1004960049915991699179910990199029903990CA
:1004A600E991F9918991999118950FE210E00E94CE
:1004B60047299801012B41F089010E94D216009329
:1004C6001D0A10931E0A089500E010E000931D0A0D
:1004D60010931E0A08950E94FB010E947F020E944B
:1004E600CA260E9417030E94790208950E94561494
:1004F60008950E94DA03089503B7046003BF03B7A3
:100506000D7F03BF03B70E7F03BF03B70F7B03BF88
:1005160003B7086003BF03B70F7D03BF03B70F7EA2
:1005260003BF03B70F7703BF00E002BF01E301BFBC
:1005360007B7026007BF08959A938A93FA93EA93DE
:100546003A922A921A920A927A936A935A934A9301
:100556003A932A931A930A938FB79BB70E940A037A
:100566009BBF8FBF09911991299139914991599151
:10057600699179910990199029903990E991F991A9
:100586008991999118950895EFE1FAE0008111811A
:100596000F5F1F4F0083118300911F0A1091200ADD
:1005A600083823E1120790F100E010E000931F0ADB
:1005B6001093200A01E00093250A0091210A039571
:1005C6000093210A0091210A0C3300F100E0009308
:1005D600210A0091220A03950093220A0091220A19
:1005E6000C33A0F000E00093220A0091230A039541
:1005F6000093230A0091230A083140F000E000939B
:10060600230A0091240A03950093240A08950E9460
:100616007C02BADF08952FB7F8012083F894089575
:10062600F80120812FBF0895219705E00A3040F494
:1006360020E010E0F801E050F74F20830395F6CF55
:100646008E010E940E0300E010E000931F0A109333
:10065600200A00E00093210A00E00093220A00E04D
:100666000093230A00E00093240A01E00093250A80
:100676008E010E941303219608950E942B29D8010A
:100686000FEF80E090E08217930764F410E04C913E
:1006960050E004271527F801E65FF64F0081119612
:1006A6000196F1CFE4E00C943C29C69AC69AC79A03
:1006B600949A959ABE9ABE9ABF9A8C9A8D9A0FE38F
:1006C6001CE901501040E9F700C000009598089514
:1006D600B80100E010E0BE9ABF9A8C9A8D9AC7982E
:1006E6002AE02A95F1F700C094982AE02A95F1F7B6
:1006F60000C040E0403110F577FB16F421E001C060
:1007060020E020FB28B326F928BB2AE02A95F1F73A
:1007160000C0C79A2AE02A95F1F700C0000F111F02
:10072600C69B03C0016021E030E0C798660F771FC3
:100736002AE02A95F1F700C04395DCCF949A2AE087
:100746002A95F1F700C008959A938A93C801ADDF00
:100756008C0120E030E04FEF5FE960E070E00E943E
:10076600552840E157E260E070E00E947528B0DF4E
:10077600899199910895089521978E010E940E03FB
:1007860000E000933D0A8E010E941303219608950E
:100796008A9321978E010E940E0300913D0A802FB5
:1007A6008E010E941303082F2196899108950E94B5
:1007B600181500918A0A10E0000F111F000F111F73
:1007C600F801E257FF4F059114913197F801099509
:1007D600089521978E010E940E0300918A0A10E067
:1007E600000F111F000F111FF801E457FF4F05916D
:1007F60014913197F8010995E9E2FAE00081118137
:10080600228133810093260A1093270A00913E0A1B
:100816000093280A8E010E941303219608958A9355
:1008260021978E010E940E0300918A0A802F8E0165
:100836000E941303082F2196899108950E942B295F
:10084600602F212F422F01E010E00E943B281091DB
:100856003D0A102B10933D0A30E0F901E05FF54F99
:1008660060830091840A002309F46EC030E0422FB1
:1008760050E008E010E00E943328E0E4FAE0E00FE0
:10088600F11F062F10E0000F111F000F111FE00FC0
:10089600F11F00801180228033800128022803285E
:1008A60019F4662309F431E0613019F4222309F4BE
:1008B60031E0613059F4213048F0022F10E0F801A0
:1008C600E15FF54F0081002309F031E03323E1F1C8
:1008D60088EF94E2A1E0B0E0ECE0FAE08083918357
:1008E600A283B383E0E8FAE080819181A281B3819B
:1008F600422F50E008E010E00E943328E0E4FAE0DE
:10090600E00FF11F062F10E0000F111F000F111F3F
:10091600E00FF11F80839183A283B383422F01E00E
:1009260010E00E943B2810913F0A102B10933F0ABB
:1009360040910B0A542F550F550B022F10E040170C
:10094600510714F420930B0AE4E00C943C2900EAC6
:100956001BEB2DE030E0E5E8FAE00083118322830B
:10096600338303E000938A0A08950E942B290E948C
:1009760038140023F1F10E94531440E0483010F57A
:1009860060E06230E8F400E010E020E030E0C8010A
:10099600D90150E008E010E00E943328E0E4FAE0D4
:1009A600E00FF11F062F10E0000F111F000F111F9F
:1009B600E00FF11F80839183A283B3836395E1CF18
:1009C6004395DCCF01E010E020E030E0E0E8FAE01B
:1009D600008311832283338300E000933F0A0FEFE5
:1009E60000930B0A01E00093840A04E000938A0A4C
:1009F6000CC0E5E8FAE00081118122813381012BE8
:100A0600022B032B11F40E945014E4E00C943C29B1
:100A1600E5E8FAE00081118122813381012B022B66
:100A2600032B71F0E5E8FAE0008111812281338120
:100A360001501040204030400083118322833383CD
:100A4600089500913D0A0023A1F000E00093890A71
:100A560040910B0A439501E010E00E943B280A955D
:100A660010913F0A1095012300933E0A05E000937A
:100A76008A0A0895ECE0FAE000811181228133812F
:100A8600012B022B032BF1F1ECE0FAE0008111813E
:100A96002281338101501040204030400083118371
:100AA60022833383E0E8FAE00081118122813381D9
:100AB6000F5F1F4F2F4F3F4F0083118322833383D6
:100AC6000E943814002389F101E00093890AE0E4CA
:100AD600FAE000A911A922A933A9012B022B032BA5
:100AE60021F1E0E4FAE000AD11AD22AD33AD012B0A
:100AF600022B032BD1F006E000938A0A00E0009354
:100B0600840A08950091890A002339F006E00093CB
:100B16008A0A00E00093840A089500E00093840A9C
:100B26000E94501406E000938A0A089500913D0A37
:100B3600002379F040910B0A439501E010E00E94F2
:100B46003B280A9510913F0A1095012300933E0A0F
:100B5600089500E000933E0A08950E941F29AC976D
:100B660048835983902F312EC22E7B01B32E8CAC35
:100B76009DAC4EAC5FACFE01FF96A181B28120E038
:100B8600232C032D0A95802F022D102F110F110BE8
:100B9600DD240C151D050CF09DC088230AF49AC0AF
:100BA600FE01329630E047E050E089010E9433288A
:100BB600E00FF11F8483FE01329630E047E050E0FB
:100BC60089010E943328E00FF11F2582022D102F84
:100BD600110F110BF801E652F14F6081762F770F56
:100BE600770B660F771F40E050E0460F571F0E94B5
:100BF6000A28B801082F102F110F110BF801E65221
:100C0600F14F4081542F550F550B440F551F00E0EF
:100C160010E0040F151FA8010E940A28601B710B23
:100C2600FE01329630E047E050E089010E94332809
:100C3600E00FF11F60837183022D102F110F110B2E
:100C4600F801E652F14F6081762F770F770B48E077
:100C560050E08B010E943328F801E05CF54F40819B
:100C66005181628173813A01082F102F110F110BE8
:100C7600F801E652F14F6081762F770F770B48E047
:100C860050E08B010E943328F801E05CF54F40816B
:100C9600518162817381B301641B750BFE0132962B
:100CA60030E047E050E089010E943328E00FF11F51
:100CB6006283738331E0BE016E5F7F4F022E112483
:100CC60047E050E080010E943328600F711FFB014E
:100CD60036832395292E092F0A95802F022D102F52
:100CE600110F110BDD240C151D050CF09DC088237A
:100CF6000AF49AC0FE01329630E047E050E08901DE
:100D06000E943328E00FF11F8483FE01329630E003
:100D160047E050E089010E943328E00FF11F258249
:100D2600022D102F110F110BF801E652F14F6081C1
:100D3600762F770F770B660F771F40E050E0460F50
:100D4600571F0E940A28B801082F102F110F110BE8
:100D5600F801E652F14F4081542F550F550B440FC1
:100D6600551F00E010E0040F151FA8010E940A2875
:100D7600601B710BFE01329630E047E050E08901BE
:100D86000E943328E00FF11F60837183022D102F1C
:100D9600110F110BF801E652F14F6081762F770F94
:100DA600770B48E050E08B010E943328F801E05CA5
:100DB600F54F44815581668177813A01082F102FBE
:100DC600110F110BF801E652F14F6081762F770F64
:100DD600770B48E050E08B010E943328F801E05C75
:100DE600F54F4481558166817781B301641B750B8C
:100DF600FE01329630E047E050E089010E94332838
:100E0600E00FF11F6283738330E0BE016E5F7F4F98
:100E1600022E112447E050E080010E943328600F23
:100E2600711FFB0136832395032D0395202E832DF9
:100E3600022D102F110F110BDD240C151D050CF0C2
:100E46009DC088230AF49AC0FE01329630E047E03E
:100E560050E089010E943328E00FF11F8483FE01D0
:100E6600329630E047E050E089010E943328E00FD7
:100E7600F11F2582022D102F110F110BF801E652DA
:100E8600F14F6081762F770F770B660F771F40E063
:100E960050E0460F571F0E940A28B801082F102F4E
:100EA600110F110BF801E652F14F4081542F550FE7
:100EB600550B440F551F00E010E0040F151FA80145
:100EC6000E940A28601B710BFE01329630E047E053
:100ED60050E089010E943328E00FF11F608371837F
:100EE600022D102F110F110BF801E652F14F608100
:100EF600762F770F770B48E050E08B010E9433285E
:100F0600F801E05CF54F40815181628173813A01BD
:100F1600082F102F110F110BF801E652F14F6081C7
:100F2600762F770F770B48E050E08B010E9433282D
:100F3600F801E05CF54F4081518162817381B30114
:100F4600641B750BFE01329630E047E050E08901E4
:100F56000E943328E00FF11F6283738331E0BE01E4
:100F66006E5F7F4F022E112447E050E080010E9401
:100F76003328600F711FFB0136832395232C032D25
:100F86000250802F022D102F110F110BDD240C158E
:100F96001D050CF09DC088230AF49AC0FE01329606
:100FA60030E047E050E089010E943328E00FF11F4E
:100FB6008483FE01329630E047E050E089010E94CA
:100FC6003328E00FF11F2582022D102F110F110B70
:100FD600F801E652F14F6081762F770F770B660F97
:100FE600771F40E050E0460F571F0E940A28B801BD
:100FF600082F102F110F110BF801E652F14F408107
:10100600542F550F550B440F551F00E010E0040FE9
:10101600151FA8010E940A28601B710BFE0132965B
:1010260030E047E050E089010E943328E00FF11FCD
:1010360060837183022D102F110F110BF801E652F8
:10104600F14F6081762F770F770B48E050E08B01E8
:101056000E943328F801E05CF54F4081518162819E
:1010660073813A01082F102F110F110BF801E65268
:10107600F14F6081762F770F770B48E050E08B01B8
:101086000E943328F801E05CF54F4081518162816E
:101096007381B301641B750BFE01329630E047E0A5
:1010A60050E089010E943328E00FF11F62837383A9
:1010B60030E0BE016E5F7F4F022E112447E050E004
:1010C60080010E943328600F711FFB013683239530
:1010D600092F0395202E892F022D102F110F110B8A
:1010E600DD240C151D050CF09DC088230AF49AC05A
:1010F600FE01329630E047E050E089010E94332835
:10110600E00FF11F8483FE01329630E047E050E0A5
:1011160089010E943328E00FF11F2582022D102F2E
:10112600110F110BF801E652F14F6081762F770F00
:10113600770B660F771F40E050E0460F571F0E945F
:101146000A28B801082F102F110F110BF801E652CB
:10115600F14F4081542F550F550B440F551F00E09A
:1011660010E0040F151FA8010E940A28601B710BCE
:10117600FE01329630E047E050E089010E943328B4
:10118600E00FF11F60837183022D102F110F110BD9
:10119600F801E652F14F6081762F770F770B48E022
:1011A60050E08B010E943328F801E05CF54F448142
:1011B6005581668177813A01082F102F110F110B87
:1011C600F801E652F14F6081762F770F770B48E0F2
:1011D60050E08B010E943328F801E05CF54F448112
:1011E600558166817781B301641B750BFE013296CA
:1011F60030E047E050E089010E943328E00FF11FFC
:101206006283738331E0BE016E5F7F4F022E11242D
:1012160047E050E080010E943328600F711FFB01F8
:1012260036832395BB2019F0AA24A39401C0AA24CF
:1012360060E0621708F040C0FE01329670E047E0B9
:1012460050E08B010E943328E00FF11F0681002336
:1012560089F068807980FE01329670E047E050E0C0
:101266008B010E943328E00FF11F02811381601663
:10127600710604F5FE01329670E047E050E08B01FE
:101286000E943328E00FF11F00811181025E1F4F7B
:101296003801FE0132960A2C112447E050E0800105
:1012A6000E943328E00FF11F00811181601671063C
:1012B6000CF4A62E6395BDCFFE0132966A2D70E022
:1012C60047E050E08B010E943328E00FF11F0081B8
:1012D6001181F20100831183FE0132966A2D70E0BE
:1012E60047E050E08B010E943328E00FF11F028196
:1012F6001381FD0100831183FE0132966A2D70E091
:1013060047E050E08B010E943328E00FF11F048173
:10131600F7010083FE0132966A2D70E047E050E047
:101326008B010E943328E00FF11F0581F401008331
:10133600AC96E6E10C9430290E9425292697602E6A
:10134600412E822E0091D90E043610F001E000C124
:10135600662042F0042D102F110F110B9924081549
:10136600190514F000E0F4C05524042D102F110FB8
:10137600110BF801E652F14F0081102F110F110BDE
:10138600000F111F40E050E0400F511F0E940A2835
:101396009801762C770C7708F301E652F14F00811D
:1013A600102F110F110B000F111F40E050E0400FDE
:1013B600511F0E940A28201B310BD901762C770C6D
:1013C6007708F301E652F14F4081542F550F550B24
:1013D60008E010E00E943328F801E05CF54F048134
:1013E600158126813781B801042D102F110F110B9D
:1013F600F801E652F14F4081542F550F550B08E086
:1014060010E00E943328F801E05CF54F008111815D
:1014160022813381601B710BCB018E010E5F1F4F42
:101426001A930A938E010A5F1F4F1A930A938E012D
:101436000C5F1F4F1A930A9331E0BE01695F7F4F1D
:10144600AC01282D142D062D88DB4C815D8160E0D2
:10145600959F9001849F8001949F100D211D361F3A
:10146600589F100D211D361F4A815B8160E070E098
:101476000E947528C80121E04091D90E50E00BE08A
:1014860010E00E943328F801E357F54F208340917E
:10149600D90E50E00BE010E00E943328F801E35724
:1014A600F54F62824091D90E50E00BE010E00E94A9
:1014B6003328F801E357F54F438229814091D90E2D
:1014C60050E00BE010E00E943328F801E357F54F97
:1014D600248328814091D90E50E00BE010E00E9451
:1014E6003328F801E357F54F25834091D90E50E094
:1014F6000BE010E00E943328F801E357F54F86838E
:1015060097839D01280F391F4091D90E50E00BE0BB
:1015160010E00E943328F801E357F54F2087318702
:1015260021E04091D90E50E00BE010E00E943328F4
:10153600F801E357F54F22870091D90E03950093E2
:10154600D90E0091D90E043610F055245394052D6A
:101556002696EAE00C9436290E9425292697602EC5
:10156600A12F822E0091D90E043610F002E016C18A
:10157600662042F00A2F102F110F110B992408151F
:10158600190514F000E00AC1B0E0762C770C770854
:10159600F301E652F14F4081542F550F550B08E0E9
:1015A60010E00E943328F801E05CF54F04811581B4
:1015B60026813781B8010A2F102F110F110BF80160
:1015C600E752F14F4081542F550F550B08E010E0BC
:1015D6000E943328F801E05CF54F008111812281D9
:1015E6003381601B710BCB010A2F102F110F110BCA
:1015F600F801E752F14F0081102F110F110B000F68
:10160600111F40E050E0400F511F0E940A28980128
:10161600762C770C7708F301E652F14F0081102FF4
:10162600110F110B000F111F40E050E0400F511F2A
:101636000E940A28201B310B29018E010E5F1F4FC5
:101646001A930A938E010A5F1F4F1A930A938E010B
:101656000C5F1F4F1A930A9331E0BE01695F7F4FFB
:10166600AC01282D1A2F1A95062D77DA4C815D814B
:1016760060E0959F9001849F8001949F100D211D2D
:10168600361F589F100D211D361F4AE050E060E0BE
:1016960070E00E9455284A815B8160E070E00E94FC
:1016A60075280B5F1F4F2F4F3F4F4AE050E060E019
:1016B60070E00E947528C8018415950508F06DC074
:1016C60023E04091D90E50E00BE010E00E94332851
:1016D600F801E357F54F20834091D90E50E00BE017
:1016E60010E00E943328F801E357F54F62822A2F53
:1016F6002A954091D90E50E00BE010E00E94332865
:10170600F801E357F54F238329814091D90E50E024
:101716000BE010E00E943328F801E357F54F2483CD
:1017260028814091D90E50E00BE010E00E9433284A
:10173600F801E357F54F25834091D90E50E00BE0B1
:1017460010E00E943328F801E357F54F868397830C
:101756009201280F391F4091D90E50E00BE010E09E
:101766000E943328F801E357F54F2087318721E09F
:101776004091D90E50E00BE010E00E943328F801AA
:10178600E357F54F22870091D90E03950093D90EA2
:101796000091D90E043608F0B1E00B2F2696EAE048
:1017A6000C9436290E9425292697602E412E822EDA
:1017B6000091D90E043610F002E014C1662042F002
:1017C600042D102F110F110B99240815190514F06B
:1017D60000E008C15524042D102F110F110BF8013C
:1017E600E652F14F0081102F110F110B000F111F40
:1017F60040E050E0400F511F0E940A289801762CC5
:10180600770C7708F301E652F14F0081102F110F84
:10181600110B000F111F40E050E0400F511F0E94B6
:101826000A28201B310BD901042D102F110F110B83
:10183600F801E652F14F4081542F550F550B08E041
:1018460010E00E943328F801E05CF54F0081118119
:1018560022813381B801762C770C7708F301E652A2
:10186600F14F4081542F550F550B08E010E00E94B0
:101876003328F801E05CF54F048115812681378114
:10188600601B710BCB018E010E5F1F4F1A930A93DB
:101896008E010A5F1F4F1A930A938E010C5F1F4F2A
:1018A6001A930A9330E0BE01695F7F4FAC01282D81
:1018B600142D062D52D94C815D8160E0959F9001D3
:1018C600849F8001949F100D211D361F589F100D77
:1018D600211D361F4AE050E060E070E00E94552866
:1018E6004A815B8160E070E00E9475280B5F1F4FA4
:1018F6002F4F3F4F4AE050E060E070E00E947528AD
:10190600C8018A179B0708F06CC024E04091D90EE5
:1019160050E00BE010E00E943328F801E357F54F42
:1019260020834091D90E50E00BE010E00E9433284E
:10193600F801E357F54F62824091D90E50E00BE073
:1019460010E00E943328F801E357F54F43822981BE
:101956004091D90E50E00BE010E00E943328F801C8
:10196600E357F54F248328814091D90E50E00BE0D0
:1019760010E00E943328F801E357F54F2583409184
:10198600D90E50E00BE010E00E943328F801E3572F
:10199600F54F868397839D01281B390B4091D90EFD
:1019A60050E00BE010E00E943328F801E357F54FB2
:1019B6002087318722E04091D90E50E00BE010E0FD
:1019C6000E943328F801E357F54F22870091D90E7C
:1019D60003950093D90E0091D90E043610F05524C4
:1019E6005394052D2696EAE00C9436290E94252963
:1019F6002697A02F612E822E0091D90E043610F064
:101A060002E013C1AA233AF0762C770C77089924C2
:101A16006814790414F000E008C1B0E0762C770C65
:101A26007708F301E652F14F0081102F110F110BC9
:101A3600000F111F40E050E0400F511F0E940A287E
:101A460098010A2F102F110F110BF801E652F14FD2
:101A56000181102F110F110B000F111F40E050E0F4
:101A6600400F511F0E940A28201B310B29010A2F03
:101A7600102F110F110BF801E652F14F4181542F2F
:101A8600550F550B08E010E00E943328F801E05C82
:101A9600F54F0481158126813781B801762C770CA4
:101AA6007708F301E652F14F4081542F550F550B3D
:101AB60008E010E00E943328F801E05CF54F008151
:101AC600118122813381601B710BCB018E010E5F68
:101AD6001F4F1A930A938E010A5F1F4F1A930A9398
:101AE6008E010C5F1F4F1A930A9331E0BE01695FA6
:101AF6007F4FAC01282D162D0A2F03950E94B005A5
:101B06004C815D8160E0959F9001849F8001949F48
:101B1600100D211D361F589F100D211D361F4AE03E
:101B260050E060E070E00E9455284A815B8160E0E9
:101B360070E00E947528A8014B5F5F4F0AE010E035
:101B46000E943328C8018415950508F06DC026E06B
:101B56004091D90E50E00BE010E00E943328F801C6
:101B6600E357F54F20832A2F23954091D90E50E055
:101B76000BE010E00E943328F801E357F54F22836B
:101B86004091D90E50E00BE010E00E943328F80196
:101B9600E357F54F638229814091D90E50E00BE05F
:101BA60010E00E943328F801E357F54F248328817B
:101BB6004091D90E50E00BE010E00E943328F80166
:101BC600E357F54F25834091D90E50E00BE010E026
:101BD6000E943328F801E357F54F868397839201D5
:101BE600280F391F4091D90E50E00BE010E00E94FB
:101BF6003328F801E357F54F2087318721E04091DC
:101C0600D90E50E00BE010E00E943328F801E357AC
:101C1600F54F22870091D90E03950093D90E0091B6
:101C2600D90E043608F0B1E00B2F2696EAE00C94A4
:101C360036290E9425292697402EA12F822E009113
:101C4600D90E043610F002E01EC1E42DFE2FFF0F60
:101C5600FF0B319742F00A2F102F110F110B992409
:101C66000815190514F000E00EC1B0E00A2F102F78
:101C7600110F110BF801E752F14F0081102F110FD0
:101C8600110B000F111F40E050E0400F511F0E9442
:101C96000A289801542C550C5508F201E752F14FC9
:101CA6000081102F110F110B000F111F40E050E0A3
:101CB600400F511F0E940A28201B310B39010A2FA1
:101CC600102F110F110BF801E752F14F4081542FDD
:101CD600550F550B08E010E00E943328F801E05C30
:101CE600F54F0081118122813381B801542C550CA6
:101CF6005508F201E752F14F4081542F550F550B0D
:101D060008E010E00E943328F801E05CF54F0481FA
:101D1600158126813781601B710BCB018E010E5F09
:101D26001F4F1A930A938E010A5F1F4F1A930A9345
:101D36008E010C5F1F4F1A930A9330E0BE01695F54
:101D46007F4FAC01282D1A2F1A95042D0A950E9453
:101D5600B0054C815D8160E0959F9001849F800174
:101D6600949F100D211D361F589F100D211D361FE3
:101D76004AE050E060E070E00E9455284A815B81AD
:101D860060E070E00E9475280B5F1F4F2F4F3F4F9A
:101D96004AE050E060E070E00E947528C8018615B0
:101DA600970508F06FC028E04091D90E50E00BE08F
:101DB60010E00E943328F801E357F54F2083242DC5
:101DC6002A954091D90E50E00BE010E00E9433288E
:101DD600F801E357F54F22832A2F2A954091D90E11
:101DE60050E00BE010E00E943328F801E357F54F6E
:101DF600238329814091D90E50E00BE010E00E9428
:101E06003328F801E357F54F248328814091D90EF2
:101E160050E00BE010E00E943328F801E357F54F3D
:101E260025834091D90E50E00BE010E00E94332844
:101E3600F801E357F54F868397839301281B390BE7
:101E46004091D90E50E00BE010E00E943328F801D3
:101E5600E357F54F2087318722E04091D90E50E0B5
:101E66000BE010E00E943328F801E357F54F228774
:101E76000091D90E03950093D90E0091D90E043620
:101E860008F0B1E00B2F2696EAE00C9436290E9462
:101E96001F29659700E0083040F42FEF10E0F801A5
:101EA600E652F14F20830395F6CF00E00093E20E51
:101EB60000E000933E0A00E008830881083008F03D
:101EC6006FC100E00983488150E008E010E00E94FD
:101ED6003328F801E05CF54F0081118122813381BE
:101EE600012B022B032B09F43CC10091E20E0230B8
:101EF600A0F50091E20E002311F401E009830091A0
:101F0600E20E013049F50091E20E10E0F801E752C9
:101F1600F14F4081542F550F550B08E010E00E94F9
:101F26003328F801E05CF54F80819181A281B3816D
:101F3600488150E008E010E00E943328F801E05C98
:101F4600F54F008111812281338180179107A20705
:101F5600B30710F401E0098304C10091E20E10E01A
:101F6600F801E752F14F0081102F110F110B000FEE
:101F7600111F40E050E0400F511F0E940A28B8018F
:101F86000091E20E10E0F801E852F14F0081102FA7
:101F9600110F110B000F111F40E050E0400F511FB1
:101FA6000E940A28601B710B8B0120E030E040E1A3
:101FB60057E260E070E00E945528680179010091BF
:101FC600E20E10E0F801E752F14F4081542F550F11
:101FD600550B08E010E00E943328F801E05CF54F4D
:101FE60080819181A281B3810091E20E10E0F80117
:101FF600E852F14F4081542F550F550B08E010E081
:102006000E943328F801E05CF54F0081118122819E
:102016003381AC01BD01401B510B620B730B860172
:1020260097010E94752828013901088110E0000FE8
:10203600111F40E050E0400F511F0E940A28B801CE
:102046000091E20E10E0F801E752F14F0081102FE7
:10205600110F110B000F111F40E050E0400F511FF0
:102066000E940A28601B710B8B0120E030E040E1E2
:1020760057E260E070E00E945528680179014881C6
:1020860050E008E010E00E943328F801E05CF54FCC
:1020960080819181A281B3810091E20E10E0F80166
:1020A600E752F14F4081542F550F550B08E010E0D1
:1020B6000E943328F801E05CF54F008111812281EE
:1020C6003381AC01BD01401B510B620B730B8601C2
:1020D60097010E9475284801590101E0801600E029
:1020E600900600E0A00600E0B006DCF148145904B2
:1020F6006A047B0464F44E825F82688679862401D2
:1021060035010E811F81288539854801590148EE20
:1021160053E060E070E0820193010E945528A4011B
:10212600B5010E9498280A831B832C833D830A816C
:102136001B812C813D81085E1340204030400A837C
:102146001B832C833D830A811B812C813D810436B0
:1021560040E0140740E0240740E0340710F401E0B3
:1021660009830981002371F028810091E20E10E0B5
:10217600F801E652F14F20830091E20E0395009399
:10218600E20E0AC0488101E010E00E943B2810914F
:102196003E0A102B10933E0A0881039508838DCEC4
:1021A6000091E20E033090F478D302E000938A0A9D
:1021B6000AE010E020E030E0E9E2FAE00083118373
:1021C6002283338301E000930A0A52C100E00093A0
:1021D600D90E4091DA0E542F550F550B08E010E03A
:1021E6000E943328F801E05CF54F84819581A68131
:1021F600B7810091E20E10E0F801E752F14F4081FD
:10220600542F550F550B08E010E00E943328F801B3
:10221600E05CF54F0081118122813381801791079F
:10222600A207B30748F02091E20E1091E20E1A952C
:1022360000E00E949F0969C080E090E0E091E20E14
:10224600F0E031978E179F070CF05FC00091D90E12
:10225600043608F05AC0082F0395A02F0091E20E0D
:10226600A01708F050C00091D90E043608F04BC0F4
:10227600B0E0FD01E652F14F4081542F550F550B4A
:1022860008E010E00E943328F801E05CF54F40803A
:1022960051806280738090E0FC01E652F14F4081EC
:1022A600542F550F550B08E010E00E943328F80113
:1022B600E05CF54F04811581268137814016510671
:1022C60062067306F0F02091E20E1A2F082F0E9484
:1022D600AF0A0023C1F42091E20E1A2F082F0E94A4
:1022E600D50B002381F42091E20E1A2F082F7EDBF6
:1022F600002349F42091E20E1A2F082F9ADC0023BE
:1023060011F4A395ABCF839598CF31E0332309F42D
:102316005FC030E021E00091D90E2017B8F7422FB8
:1023260050E00BE010E00E943328F801E357F54F28
:1023360066817781422F50E00BE010E00E9433283F
:10234600F801E857F54F0081118160177107F0F524
:10235600BE01665F7F4FE2E8FAE0422F50E00BE0F5
:1023660010E00E943328E00FF11F8B014BE050E094
:102376000E94082962E87AE0422F50E00BE010E064
:102386000E943328600F711F422F50E00BE010E0CF
:102396000E943328EDE8FAE0E00FF11F8B014BE0D5
:1023A60050E00E940829422F50E00BE010E00E9406
:1023B60033286DE87AE0600F711FFE013A968B01B3
:1023C6004BE050E00E94082931E0A0CF2395A3CF2F
:1023D60000918F0A10E0F801E652F14F0081005D8E
:1023E600009300090091900A10E0F801E652F14FBF
:1023F6000081005D009301090BE200930209009140
:102406008D0A043061F000918D0A053041F000918B
:102416008D0A083021F000918D0A0A3019F40DE278
:10242600009302090091910A10E0F801E652F14F7B
:102436000081005D009303090091920A10E0F80103
:10244600E652F14F0081005D009304090091950A60
:102456001091960A20E030E0E9E2FAE00083118369
:102466002283338301E000930A0A00E000938A0A7C
:1024760007D001E000930A0A6596E0E10C94302942
:102486000E942629EF97EF97249706E0802E04E610
:10249600702E80E006EEFE017E9690E0E80FF91FB2
:1024A600008383950DE0FE017E9690E0E80FF91F0C
:1024B60000838395682E00E0FE017E9690E0E80F8B
:1024C600F91F008383950AEAFE017E9690E0E80FE5
:1024D600F91F0083839505E5FE017E9690E0E80FDF
:1024E600F91F0083839500913E0AFE017E9690E0D7
:1024F600E80FF91F00838395082F0A5FA02FE9E2F2
:10250600FAE00081118122813381280190E0963022
:1025160088F5933081F44EE28E01025E1F4FEA2F5A
:10252600F0E0292F30E0E21BF30B31970E0F1F1F4F
:10253600F80140831CC04AE050E082010E94412815
:10254600B42F4AE050E082010E94412828014B2F17
:10255600405D8E01025E1F4FEA2FF0E0292F30E02A
:10256600E21BF30B31970E0F1F1FF8014083839573
:102576009395CDCF00918F0A10E0F801E652F14F06
:102586000081FE017E9690E0E80FF91F0083839597
:102596000091900A10E0F801E652F14F0081FE0129
:1025A6007E9690E0E80FF91F0083839500918D0ACF
:1025B600FE017E9690E0E80FF91F00838395009157
:1025C600910A10E0F801E652F14F0081FE017E9675
:1025D60090E0E80FF91F008383950091920A10E0BE
:1025E600F801E652F14F0081FE017E9690E0E80F79
:1025F600F91F0083839500E0023070F410E0F801C3
:10260600E357F54F1681FE017E9690E0E80FF91F1D
:10261600108383950395F0CF20E02830F8F4022F3D
:1026260010E0000F111F40E050E0400F511F0E94C4
:102636000A280883198300E0023070F4FE0110E0D6
:10264600E00FF11F1081FE017E9690E0E80FF91F62
:10265600108383950395F0CF2395DFCF20E02230BA
:1026660040F540E0483018F560E06430F0F450E0A2
:1026760008E010E00E943328E0E4FAE0E00FF11FE2
:10268600022F10E0000F111F000F111FE00FF11FA6
:1026960070E0E60FF71F0081FE017E9690E0E80FDE
:1026A600F91F008383956395E0CF4395DBCF239590
:1026B600D6CF282F2395FE017E96062D10E0E00F3B
:1026C600F11F2083282F30E0215030408E01025E1A
:1026D6001F4F0E944003FE017E9690E0E80FF91F0F
:1026E60000838395843671F4A0E0A81750F4FE01A8
:1026F6007E96B0E0EA0FFB1F00810E947027A3952B
:10270600F4CF84C0BE01665F7F4FE6E9F5E530E0B1
:102716008B0144E150E00E94132994E1A0E0A9173F
:1027260050F4FE013A96B0E0EA0FFB1F00810E94CA
:102736007027A395F4CF8E010E5F1F4FD80140E19D
:10274600082F0E942528FD010083FD0100810A3023
:1027560028F0FD010081095C008304C0FD010081B1
:10276600005D0083119640E1082F0E942528FD0197
:102776004083FD0100810A3028F0FD010081095CDB
:10278600008304C0FD010081005D0083119601E213
:10279600FD01008311960DE3FD010083119606E00D
:1027A600FD010083FD0100810A3028F0FD01008152
:1027B600095C008304C0FD010081005D0083119661
:1027C60004E0FD010083FD0100810A3028F0FD01CF
:1027D6000081095C008304C0FD010081005D008367
:1027E60011960DE0FD01008311960AE0FD010083BC
:1027F60098E04424491650F4FE0132965524E40D1F
:10280600F51D00810E9470274394F4CFEF96EF9652
:102816002496E9E00C943729E9E2FAE00081118177
:10282600228133810E94A70308EA11E600938B0AEE
:1028360010938C0A01E000938A0A089500918B0A8E
:1028460010918C0A012B49F0EBE8FAE00081118126
:102856000150104000831183089500E010E00E94AB
:10286600A70302E000938A0A08959A938A9391E057
:1028760080E0883070F4082F10E0000F111FF80177
:10288600E35DF54F008111810E94C7269023839551
:10289600F0CF092F899199910895159A1D98089559
:1028A600159A1D9A08950CE010E00E944729980198
:1028B6008901232B49F050E061E274E04CE330E0FB
:1028C60026E60E946C2502C000E010E000932D0A67
:1028D60010932E0A0CE010E00E9447299801890106
:1028E600232B49F051E061E274E04CE331E026E647
:1028F6000E946C2502C000E010E000932F0A10939E
:10290600300A0CE010E00E94472998018901232B28
:1029160049F052E061E274E04CE332E026E60E94C0
:102926006C2502C000E010E00093310A1093320AD1
:102936000CE010E00E94472998018901232B49F0F9
:1029460053E061E274E04CE333E026E60E946C2536
:1029560002C000E010E00093330A1093340A0CE042
:1029660010E00E94472998018901232B49F054E081
:1029760061E274E04CE334E026E60E946C2502C076
:1029860000E010E00093350A1093360A0CE010E0E0
:102996000E94472998018901232B49F055E061E2FD
:1029A60074E04CE335E026E60E946C2502C000E0A8
:1029B60010E00093370A1093380A0CE010E00E94EA
:1029C600472998018901232B49F056E061E274E01A
:1029D6004CE336E026E60E946C2502C000E010E0DB
:1029E6000093390A10933A0A0CE010E00E94472936
:1029F60098018901232B49F057E061E274E04CE32A
:102A060037E026E60E946C2502C000E010E0009345
:102A16003B0A10933C0A00E000938A0A0E9458037E
:102A260000E010E00E946B0308958A930E94BF03A2
:102A360080E0883068F4082F10E0000F111FF801BD
:102A4600E35DF54F008111810E9468268395F1CFE1
:102A56008991089505E310E00E9447299801012B0A
:102A660039F089010CD00093E30E1093E40E08951B
:102A760000E010E00093E30E1093E40E0895BA937D
:102A8600AA93D8010DE010E00E9447299801890118
:102A9600232B41F063E050E040E030E027E60E945F
:102AA600562402C000E010E09B960D931C939C9761
:102AB6000DE010E00E9447290801012B49F062E071
:102AC60050E040E031E027E680010E94562402C033
:102AD60000E010E09D960D931C939E970DE010E08C
:102AE6000E9447290801012B49F061E050E040E0CF
:102AF60032E027E680010E94562402C000E010E082
:102B06009F960D931C93D0970DE010E00E944729E5
:102B16000801012B49F060E050E040E033E027E691
:102B260080010E94562402C000E010E0D1960D9369
:102B36001C93D29700E00C9300E011960C9311972A
:102B460000E093960C93939792960C9392978D012F
:102B5600A991B99108950E942B29D8019B960D91B0
:102B66001C919C970E945D25802F9D960D911C912E
:102B76009E970E945D25902F9F960D911C91D09750
:102B86000E945D25892B802BD1960D911C91D297A1
:102B96000E945D25802BD4968C93D497D4960C9165
:102BA600D497D3961C91D397011791F00C910431C9
:102BB60018F40C9103950C930C91043178F0D4968B
:102BC6000C91D497D3960C93D39700E00C9306C040
:102BD6000C91013018F00C910A950C93E4E00C94DA
:102BE6003C299A938A93C8018C01B5DF8C0103D0E6
:102BF600899199910895BA93AA93D801FD0103A9E1
:102C060010E0F801E454FF4F0491FD0102A7FD0115
:102C160001810023B1F1FD0103A90F3031F1FD015E
:102C260004A115A10C3D25E0120738F4FD0104A10D
:102C360015A10F5F1F4F04A315A3FD0104A115A144
:102C46000C3D25E0120780F1FD0106A1043628F4AB
:102C5600FD0106A1039506A327C000E0FD0106A31A
:102C6600FD0122A58D0127D01FC000E010E0FD0167
:102C760004A315A300E0FD0106A300E0FD01018306
:102C860013C0FD0103A90F3079F001E0FD010183B6
:102C9600FD0122A58D010FD000E010E0FD0104A387
:102CA60015A300E0FD0106A3A991B9910895A80115
:102CB6002F71022F08950E942B29D801922F0FB74A
:102CC600FD0107A3F894FD0123A123958D01EFDFF4
:102CD600802FFD0102A1801741F0082F10E0FD01B1
:102CE600E00FF11F9283FD0183A3FD0107A10FBF32
:102CF600E4E00C943C290E9429292801D90180E0AE
:102D06000FB7F20100A7F894F20103A1F20112A194
:102D1600011781F081E0F20122A123958201C7DF2C
:102D2600F20102A3F20102A110E0F201E00FF11F8D
:102D360002810C93F20100A50FBF082FE6E00C9468
:102D46003A29F8011FB711A7F89413A122A1121767
:102D560038F410E222A1121B23A1120F012F04C086
:102D660013A122A1121B012F11A51FBF08950091C7
:102D7600E30E1091E40EE5DF08959A938A93C80155
:102D86009C010091E30E1091E40EB5DF89919991B3
:102D960008950091E30E1091E40E23DF08959A93AF
:102DA6008A93C8018C010FD08C011FD08C013BD0B7
:102DB6008C0117D24CEC50E020E08C01EFD18C0155
:102DC6008991999108952FE02ABB2FE02BBBD49AC5
:102DD600DC9AD59ADD9A4FEF59E668E141505040AA
:102DE6006040E1F700C00000089520E0F80123A745
:102DF600F80122A7F80100A711A720E0F80125A7EE
:102E060020E030E0F80120A331A320E030E0F80113
:102E160022A333A320E0F80126A720E030E0F80142
:102E260026A337A308959A938A93C8010FEF13EF49
:102E360021E0015010402040E1F700C0000028E2E8
:102E46008C01CDD00FE31FE101501040E9F700C01F
:102E5600000028E28C01C3D00FE31FE101501040AF
:102E6600E9F700C000002CE08C01B9D021E08C010C
:102E7600B6D00FE31FE101501040E9F700C0000093
:102E860026E08C01ACD022E08C01A9D00FE31FE133
:102E960001501040E9F700C0000020E88C019FD0E7
:102EA6008991999108950E942B29D801FD0106A1C7
:102EB60017A10F5F1F4F06A317A3FD0106A117A1B8
:102EC600003024E0120728F000E010E0FD0106A320
:102ED60017A3FD0100A511A50F5F1F4F00A711A79E
:102EE600FD0103A5039503A7FD0103A5003110F11C
:102EF60000E0FD0103A7FD0102A5039502A7FD0160
:102F060002A5023051F400E0FD0102A7FD01A0A7D1
:102F1600B1A720E88D0163D009C08D01005F1F4F66
:102F2600FD0100A711A720EC8D0159D008EC000087
:102F36000A95E9F7FD0102A50023C9F4FD0120A1C8
:102F460031A1FD0143A501E010E00E943B282023AA
:102F56003123232B49F0FD0106A117A1013022E000
:102F6600120710F001E001C000E0802F18C0FD013B
:102F760022A133A1FD0143A501E010E00E943B28F8
:102F860020233123232B49F0FD0106A117A101308F
:102F960022E0120710F001E001C000E0802FFD01E1
:102FA60000A511A5F8010081FD0104A7FD0104A5F6
:102FB600013848F0FD0104A510E0F801EC5AFF4F76
:102FC6000491FD0104A7882319F000E2FD0104A77E
:102FD600FD0124A58D011FD0E4E00C943C290E943C
:102FE6002C29C801A22F0FB70093E50EF89408EC20
:102FF60000000A95E9F7DD9B05C0DD9808EC0000A6
:103006000A95E9F72A2F8C0122D00091E50E0FBF11
:10301600E3E00C943D290E942C29C801A22F0FB78A
:103026000093E60EF89408EC00000A95E9F7DD999E
:1030360005C0DD9A08EC00000A95E9F72A2F8C01F5
:1030460006D00091E60E0FBFE3E00C943D294BB38A
:10305600407F322F32953F70432B4BBBDC9A0000EA
:1030660000000000DC980000000000004BB3407F29
:10307600322F3F70432B4BBBDC9A00000000000050
:10308600DC9808950E942A29C8010FB7402EF894AB
:1030960020E48C01A4DF0FE91FE001501040E9F79E
:1030A60000C00000A0E0A03160F4B0E0FD01EC5AE1
:1030B600FE4F24918C01AFDF00E50A95F1F7A39549
:1030C600F2CF20E88C018BDF0FE91FE001501040A2
:1030D600E9F700C000004FBEE5E00C943B29203222
:1030E60008F020E0422F50E0F801E40FF51F30838E
:1030F6000895BA931A2EF801622F532F603208F002
:1031060060E070E0DF01A60FB71F5C93603130F41A
:103116008F01005E1F4F9801062E07C08F010E5DBE
:103126001F4F9801062F0051002E06A5013080F092
:10313600402D01E010E00E943B28D9012D903C90E3
:10314600202A312A3C922E9206A50A9506A70EC081
:10315600402D01E010E00E943B2800951095D90112
:103166002D903C90202231223C922E92A12DB99195
:103176000895FA013081632F662379F0203208F032
:1031860020E030E0F801E20FF31F608323954F5FE4
:103196005F4FFA013081632FEFCF0895FA01349122
:1031A600632F662379F0203208F020E030E0F80142
:1031B600E20FF31F608323954F5F5F4FFA0134914F
:1031C600632FEFCF089520E030E0F80120A331A36C
:1031D60020E030E0F80122A333A320E0F80126A77F
:1031E60008959A938A93C80100E0003240F420E2E1
:1031F60010E0FC01E00FF11F20830395F6CF8C0150
:10320600E2DF8991999108950E942729D801422EDB
:10321600532E942F042D050D0A95802F66246514D0
:10322600E8F44AE0092F0E942528742E88230AF420
:103236008FE180320CF080E0272D205D082F102FC3
:10324600110F110BFD01E00FF11F20838A954AE053
:10325600092F0E942528902F6394E1CFE8E00C9473
:1032660038290E9426292801B22F632ECA010B2F66
:10327600060D0A95A02F77247614F8F44AE050E05C
:103286008C010E944128842EAA230AF4AFE1A032C1
:103296000CF0A0E0282D205D0A2F102F110F110B26
:1032A600F201E00FF11F2083AA954AE050E08C015D
:1032B6000E944128C8017394DFCFE9E00C943729B6
:1032C6000E942729D801422E532E942F042D050D36
:1032D6000A95802F7724751468F54AE0092F0E9415
:1032E6002528642E88230AF48FE180320CF080E0D2
:1032F600772019F001E0601660F0262D205D082F7A
:10330600102F110F110BFD01E00FF11F20838A957D
:103316000AC020E2082F102F110F110BFD01E00F3C
:10332600F11F20838A954AE0092F0E942528902FB5
:103336007394D1CFE8E00C9438290E942629D8014D
:10334600522E832ECA01052D080D0A95402E66249D
:10335600681488F54AE050E08C010E944128742EDA
:10336600442012F40FE1402E00E240160CF04424F3
:10337600662019F0082F092B61F0272D205D042DFA
:10338600102F110F110BFD01E00FF11F20834A943E
:103396000AC020E2042D102F110F110BFD01E00FC2
:1033A600F11F20834A944AE050E08C010E94412894
:1033B600C8016394CDCFE9E00C9437290E946E02D0
:1033C60001E010E020E030E0E0E4FAE00083118361
:1033D6002283338301EF1EE520E030E0E0E4FAE0EB
:1033E600048315832683378300E010E020E030E075
:1033F600E0E4FAE0008711872287338700E010E0D7
:1034060020E030E0E0E4FAE0048715872687378776
:103416000FE618E120E030E0E0E4FAE0008B118BE3
:10342600228B338B01E617E720E030E0E0E4FAE098
:10343600048B158B268B378B07EA14E220E030E0ED
:10344600E0E4FAE0008F118F228F338F07E913E84B
:1034560020E030E0E0E4FAE0048F158F268F378F06
:103466000DED10E320E030E0E0E4FAE000A311A364
:1034760022A333A30EEC1FE820E030E0E0E4FAE0FC
:1034860004A315A326A337A307E71CE320E030E037
:10349600E0E4FAE000A711A722A733A709E61BE993
:1034A60020E030E0E0E4FAE004A715A726A737A756
:1034B60001EF18E720E030E0E0E4FAE000AB11AB02
:1034C60022AB33AB03EE17ED20E030E0E0E4FAE0A8
:1034D60004AB15AB26AB37AB06E312E720E030E0D2
:1034E600E0E4FAE000AF11AF22AF33AF00E010E046
:1034F60020E030E0ECE7FAE0008311832283338397
:103506000E944A0F0FEF13ED20E3015010402040B8
:10351600E1F700C0000078940FEF13ED20E30150AF
:1035260010402040E1F700C0000000911D0A1091F4
:103536001E0A0E9445180E9458030E94AC1A0E9457
:1035460092270E949A270E94EC030E94BB23F9CF80
:103556000895219701E00093E70E8E010E940E0365
:1035660000E010E020E030E0E8E1FAE000831183BB
:1035760022833383E8E1FAE00081118122813381DD
:10358600EAEEFEE000831183228333838E010E94DC
:10359600130300911D0A10911E0A0E94F4184FE1B0
:1035A60052E020E000911D0A10911E0A0E94D118D7
:1035B6004AE252E020E100911D0A10911E0A0E9483
:1035C600D118219608958A9380E0883008F041C08A
:1035D600082F10E0000F111FF801E35DF54F008181
:1035E60011810E94C726002351F030E2282F285E61
:1035F60000911D0A10911E0A0E947C1810C001E05D
:10360600E0911D0AF0911E0A06A7382F3F5C282F6D
:10361600285E00911D0A10911E0A0E947C18082F30
:1036260010E0000F111FF801E35DF54F00811181D5
:103636000E94C726002311F431E001C030E0282F94
:10364600285F00911D0A10911E0A0E947218839528
:10365600BCCF0E941204002369F00E9412040130BC
:1036660049F00E941204023029F00E94120403302D
:1036760009F002D08991089521978E010E940E03C8
:1036860000E010E020E030E0E8E1FAE0008311839A
:1036960022833383E8E1FAE00081118122813381BC
:1036A600EAEEFEE000831183228333838E010E94BB
:1036B600130300911D0A10911E0A0E94F41802E0DD
:1036C6000093E70E40E059E020E000911D0A1091BA
:1036D6001E0A0E94BC1801E000931C0A02D0219623
:1036E60008950E942C2990E080E000911C0A002396
:1036F60011F091E081E000910A0A002329F000E030
:1037060000930A0A91E081E00E94CB03002319F09E
:103716000E94BF0381E0992309F481C00091260A23
:103726001091270A012BB9F400911C0A002399F481
:103736004EE352E020E000911D0A10911E0A0E94FD
:10374600D11847E452E020E100911D0A10911E0AAB
:103756000E94D1183BC040E059E020E000911D0ACC
:1037660010911E0A0E94BC1845E352E020E1009128
:103776001D0A10911E0A0E94D11848EE53E00091CE
:10378600260A1091270A0E944128A80132E022E168
:1037960000911D0A10911E0A0E94A0193EE224E122
:1037A60000911D0A10911E0A0E94721848EE53E0FD
:1037B6000091260A1091270A0E94412833E025E14C
:1037C60000911D0A10911E0A0E943419A0E0A8302B
:1037D60030F52091280A4A2F01E010E00E943B288C
:1037E6002023222389F001E0E0911D0AF0911E0AB0
:1037F60006A73A2F3F5C2A2F285E00911D0A1091DA
:103806001E0A0E947C1809C030E22A2F285E009109
:103816001D0A10911E0A0E947C18A395D8CF8823F2
:10382600E9F0A0E0A830D0F40A2F10E0000F111F35
:10383600F801E35DF54F008111810E94C726002340
:1038460011F431E001C030E02A2F285F00911D0AF3
:1038560010911E0A0E947218A395E4CF0E941204CA
:10386600053091F440E059E020E000911D0A1091E6
:103876001E0A0E94BC1840E552E020E100911D0A94
:1038860010911E0A0E94D11800E000931C0AE3E082
:103896000C943D2921978E010E940E0300E315E743
:1038A60020E030E0E8E1FAE00083118322833383ED
:1038B600E8E1FAE00081118122813381EAEEFEE03F
:1038C60000831183228333838E010E9413030091A8
:1038D600E70E0093E80E03E00093E70E00E0009386
:1038E600F70E00E0053040F420E010E0F801EE505D
:1038F600F14F20830395F6CF00911D0A10911E0A01
:103906000E94F41841E652E020E000911D0A109151
:103916001E0A0E94D11802D0219608958A9380E04B
:1039260080E00091F70E801788F400E0E0911D0A10
:10393600F0911E0A06A73AE2282F205F00911D0A81
:1039460010911E0A0E947C188395EBCF0091F70E0A
:103956000530B8F401E0E0911D0AF0911E0A06A7B1
:103966000091F70E10E0F801EE50F14F3081305D16
:103976002091F70E205F00911D0A10911E0A0E94E9
:103986007C18899108950091F70E10E0F801EE5029
:10399600F14F0081002349F409E02091F70E30E051
:1039A600F901EE50F14F008309C00091F70E10E0C7
:1039B600F801EE50F14F00810A950083AFDF0895BC
:1039C6000091F70E10E0F801EE50F14F008109303A
:1039D60048F000E02091F70E30E0F901EE50F14F8B
:1039E600008309C00091F70E10E0F801EE50F14F88
:1039F60000810395008392DF08959A938A9300913C
:103A0600F70E03950093F70E0091F70E053080F43C
:103A16000091F70E10E0F801EF50F14F2081009170
:103A2600F70E10E0F801EE50F14F208377DF2AC041
:103A360081E091E020E02530F0F430E040E150E014
:103A4600420F531F0E94072830E0F901EE50F14F54
:103A56001081011709F080E030E0F901E65EFD4FC4
:103A6600049130E0F901EE50F14F1081011709F091
:103A760090E02395E0CF082F092B002311F078D092
:103A860001C019D08991999108950091F70E0130DE
:103A960008F001D008954091E80E50E00EE010E0E5
:103AA6000E943328F801E059FE4F05911491319791
:103AB600F80109950895219704E00093E70E009117
:103AC6001D0A10911E0A0E94F41841E752E020E0F8
:103AD60000911D0A10911E0A0E94D1188E010E94A3
:103AE6000E0300E010E020E030E0E8E1FAE00083B9
:103AF600118322833383E8E1FAE000811181228178
:103B06003381EAEEFEE0008311832283338300E3F0
:103B160015E70093F80E1093F90E8E010E94130319
:103B2600219608959A938A9321978E010E940E03F7
:103B36000091F80E1091F90EC8018E010E94130330
:103B4600823000E0900778F048EE53E08C010E9446
:103B56004128A80132E020E100911D0A10911E0AB9
:103B66000E94A01901C097DF219689919991089525
:103B7600219705E00093E70E00911D0A10911E0A99
:103B86000E94F4188E010E940E0300E21FEB22E051
:103B960030E0E8E1FAE00083118322833383E8E131
:103BA600FAE00081118122813381EAEEFEE0008392
:103BB6001183228333838E010E94130341E852E06E
:103BC60020E000911D0A10911E0A0E94D11800E003
:103BD6000093FA0E55D0219608958A9322978E0166
:103BE6000F5F1F4F0E940E030091250A802F8E0142
:103BF6000F5F1F4F0E9413038823F9F18E010E9465
:103C06000E0300E00093250A8E010E9413034091E3
:103C1600240A33E026E000911D0A10911E0A0E9434
:103C2600631934E629E000911D0A10911E0A0E94CC
:103C360072184091230A32E02AE000911D0A109181
:103C46001E0A0E94071938E62CE000911D0A109101
:103C56001E0A0E9472184091220A32E02DE000915D
:103C66001D0A10911E0A0E9407193DE62FE00091D9
:103C76001D0A10911E0A0E947218229689910895B3
:103C86004091FA0E50E001E110E00E94332847E827
:103C960052E0400F511F20E100911D0A10911E0AAB
:103CA6000E94D1180895F7DE08950091FA0E0130AA
:103CB60028F00091FA0E0A950093FA0EE1DF0895B6
:103CC6000091FA0E0A3028F40091FA0E039500933B
:103CD600FA0ED6DF08950091FA0E083011F413D0CB
:103CE60008950091FA0E083010F427D10895009136
:103CF600FA0E093011F40ED308950091FA0E0A3027
:103D060009F44DD20895219706E00093E70E8E013F
:103D16000E940E0300E61AEE20E030E0E8E1FAE049
:103D26000083118322833383E8E1FAE00081118165
:103D360022813381EAEEFEE00083118322833383FE
:103D46008E010E94130300911D0A10911E0A0E9403
:103D5600F41842E453E020E000911D0A10911E0A77
:103D66000E94D11800E0053040F420E010E0F80190
:103D7600EE50F14F20830395F6CF00E00093F70E47
:103D860004D021960895F4DE08959A938A9380E0EC
:103D96000091F70E8017B0F400E0E0911D0AF09153
:103DA6001E0A06A790E0FC01EE50F14F3081305D0F
:103DB600282F205F00911D0A10911E0A0E947C1870
:103DC6008395E6CF0091F70E0530B8F401E0E09157
:103DD6001D0AF0911E0A06A70091F70E10E0F801E1
:103DE600EE50F14F3081305D2091F70E205F00914B
:103DF6001D0A10911E0A0E947C18899199910895B6
:103E06000091F70E10E0F801EE50F14F008100230B
:103E160049F409E02091F70E30E0F901EE50F14F38
:103E2600008309C00091F70E10E0F801EE50F14F43
:103E360000810A950083A9DF08950091F70E10E02E
:103E4600F801EE50F14F0081093048F000E0209172
:103E5600F70E30E0F901EE50F14F008309C00091F2
:103E6600F70E10E0F801EE50F14F00810395008344
:103E76008CDF08950091F70E0430A8F40091F70E38
:103E860003950093F70E0091F70E10E0F801EF503E
:103E9600F14F20810091F70E10E0F801EE50F14F3E
:103EA600208373DF089501D00895219707E00093DA
:103EB600E70E8E010E940E0300E61AEE20E030E0C7
:103EC600E8E1FAE00083118322833383E8E1FAE034
:103ED6000081118122813381EAEEFEE000831183A5
:103EE600228333838E010E94130300911D0A1091D1
:103EF6001E0A0E94F41840E553E020E100911D0AD5
:103F060010911E0A0E94D1182196089531DE089557
:103F16002FDE089520E0253070F430E0F901EE50F0
:103F2600F14F008130E040E150E0420F531F0E9404
:103F360018282395F0CFAFDD0895219708E0009368
:103F4600E70E0091FA0E10E0000F111F40E050E05E
:103F5600400F511F0E940A280093FD0E1093FE0E7B
:103F660004E00093FF0E00911D0A10911E0A0E94A4
:103F7600F4184CE553E020E000911D0A10911E0A4A
:103F86000E94D1183091FA0E3F5C2DE000911D0A77
:103F960010911E0A0E947C181ED08E010E940E03EC
:103FA60000EC14ED21E030E0E8E1FAE00083118353
:103FB60022833383E8E1FAE0008111812281338193
:103FC600EAEEFEE000831183228333838E010E9492
:103FD6001303219608950E942A290091FD0E10913F
:103FE600FE0EC801A0E0A53060F504E00A1B402ED5
:103FF6004AE050E08C010E944128B42F0091FF0E48
:104006000A1739F401E0E0911D0AF0911E0A06A78D
:1040160006C000E0E0911D0AF0911E0A06A73B2F9C
:10402600305D242D205F00911D0A10911E0A0E940A
:104036007C184AE050E08C010E944128C801A395F3
:10404600D2CFE5E00C943B2993DD08950E942B29FD
:10405600A1E0B0E020E00091FF0E201740F40AE056
:1040660010E0AD010E943328D8012395F4CFAD01AD
:104076000091FD0E1091FE0E0E9441284AE050E08C
:104086000E944128842F813040F0EDEFFEE0008150
:1040960011810A1B1B0B008311839DDFE4E00C9446
:1040A6003C290E942B29A1E0B0E020E00091FF0E00
:1040B600201740F40AE010E0AD010E943328D80131
:1040C6002395F4CFAD010091FD0E1091FE0E0E94D6
:1040D60041284AE050E00E944128842F893040F46C
:1040E600EDEFFEE0008111810A0F1B1F0083118393
:1040F60072DFE4E00C943C290091FF0E013038F0A9
:104106000091FF0E0A950093FF0E65DF089501D01A
:104116000895219709E00093E70E00911D0A10917A
:104126001E0A0E94F4184AE653E020E100911D0A97
:1041360010911E0A0E94D1188E010E940E0300E300
:1041460015E720E030E0E8E1FAE0008311832283FE
:104156003383E8E1FAE00081118122813381EAEEBE
:10416600FEE000831183228333838E010E941303B2
:1041760021960895FDDC0895FBDC08950091FD0E5F
:104186001091FE0E2091FA0E30E0220F331F40E010
:1041960050E0420F531F0E941C28EADC0895219725
:1041A6000BE00093E70E08EE13E00093FB0E10936E
:1041B600FC0E00911D0A10911E0A0E94F41846E793
:1041C60053E020E000911D0A10911E0A0E94D118AA
:1041D6001ED08E010E940E0300EC14ED21E030E0AB
:1041E600E8E1FAE00083118322833383E8E1FAE011
:1041F6000081118122813381EAEEFEE00083118382
:10420600228333838E010E941303219608959A9385
:104216008A9344E853E020E100911D0A10911E0A9A
:104226000E94D1184091FB0E5091FC0E35E020E122
:1042360000911D0A10911E0A0E94A0190091FB0E02
:104246001091FC0E0056104FC80148EE53E08C0149
:104256000E944128A80132E028E100911D0A109130
:104266001E0A0E94A01948EE53E08C010E944128C4
:1042760033E02BE100911D0A10911E0A0E943419A9
:104286000091FB0E1091FC0E0E94A7038991999153
:10429600089502D0F1D9089500E010E00E94A70326
:1042A60008959A938A9348EE53E00091FB0E10917D
:1042B600FC0E0E944128C801082F092B09F001971E
:1042C60008EE13E0AC010E9433280093FB0E109316
:1042D600FC0E9DDF8991999108959A938A9348EEF1
:1042E60053E00091FB0E1091FC0E0E944128C8017C
:1042F600803100E0900708F4019608EE13E0AC0167
:104306000E9433280093FB0E1093FC0E80DF8991E8
:104316009991089521970AE00093E70E8E010E9475
:104326000E0300E010E020E030E0E8E1FAE0008370
:10433600118322833383E8E1FAE00081118122812F
:104346003381EAEEFEE000831183228333838E01FC
:104356000E94130300911D0A10911E0A0E94F41870
:1043660001E000931C0A02D0219608950E941F299D
:10437600279700E00A8300E0098300911C0A0023C6
:1043860021F001E00A8301E0098300910A0A002373
:1043960039F000E000930A0A01E00A8301E009838C
:1043A6000E94CB03002321F001E009830E94BF0392
:1043B6000A81002379F148EE53E00091260A109114
:1043C600270A0E944128A80131E020E000911D0A39
:1043D60010911E0A0E94A0193EE221E000911D0ADA
:1043E60010911E0A0E94721848EE53E00091260AA8
:1043F6001091270A0E9441288A014AE050E00E9453
:104406004128A80132E022E000911D0A10911E0AFF
:104416000E9434190981002309F47BC101E0088355
:104426000881602E06E0601608F0CCC0462D50E0EC
:1044360008E010E00E943328F801E05CF54FC480E4
:10444600D580E680F780462D50E008E010E00E9417
:104456003328F801E45CF54F008111812281338114
:10446600C01AD10AE20AF30A460157010881162D3D
:10447600101B03E0109F00E1000E402C01E08016A7
:1044860000E0900600E0A00600E0B006DCF430E2B2
:10449600242D00911D0A10911E0A0E9472183DE2F9
:1044A600242D239500911D0A10911E0A0E94721850
:1044B6003DE2242D2E5F00911D0A10911E0A0E94D6
:1044C60072187EC0062D10E0000F111F40E050E06C
:1044D600400F511F0E940A28B8014EEF5FEF062DCC
:1044E60010E0000F111F400F511F0E940A28601B89
:1044F600710B8B0120E030E00B831C832D833E8300
:1045060048E853E160E070E00B811C812D813E811B
:104516000E945528680179014AE050E060E070E0A9
:10452600840195010E945528A801B90186019701C9
:104536000E947528C801D9018B5F9F4FAF4FBF4FAF
:104546008C019D014AE050E060E070E00E94752811
:10455600C801D90130E2242D00911D0A10911E0ACE
:104566000E9472184AE050E060E070E08C019D0104
:104576000E947528080119014AE050E060E070E0E9
:10458600800191010E947528342F305D242D2395DA
:1045960000911D0A10911E0A0E9472184AE050E00E
:1045A60060E070E08C019D010E947528342F305D1B
:1045B600242D2E5F00911D0A10911E0A0E9472186A
:1045C600639430CF05E008830881C02E08E0C0164A
:1045D60008F09FC04C2D50E008E010E00E94332800
:1045E600F801E05CF54F40805180628073804C2D6D
:1045F60050E008E010E00E943328F801E85CF54F2F
:104606000081118122813381401A510A620A730A9C
:104616004201530108811C2D101B03E0109F06E088
:10462600000ED02C01E0801600E0900600E0A00607
:1046360000E0B006DCF430E22D2D00911D0A109149
:104646001E0A0E9472183DE22D2D239500911D0A27
:1046560010911E0A0E9472183DE22D2D2E5F0091C8
:104666001D0A10911E0A0E94721851C00C2D10E0EE
:10467600000F111F40E050E0400F511F0E940A2812
:10468600B8014EEF5FEF0C2D10E0000F111F400F29
:10469600511F0E940A28601B710B8B0120E030E03D
:1046A6000B831C832D833E8348E853E160E070E072
:1046B6000B811C812D813E810E94552828013901DC
:1046C6004AE050E060E070E0840195010E945528C0
:1046D600A801B901820193010E947528C801D90178
:1046E6008B5F9F4FAF4FBF4F8C019D014AE050E05B
:1046F60060E070E00E947528C801D901AC0133E082
:104706002D2D00911D0A10911E0A0E946319C39453
:104716005DCF2796E0E10C943029EAEEFEE00081B9
:10472600118122813381023040E0140740E02407E2
:1047360040E0340770F0EAEEFEE00081118122814C
:104746003381015010402040304000831183228382
:104756003383E091F80EF091F90E329740F0E8EFCE
:10476600FEE00081118101501040008311830895FD
:1047760023970E94BA16013008F440C009EE1EE0E5
:104786000E94C0168E010E5F1F4F0E940E03EAEEB6
:10479600FEE00081118122813381023040E014075E
:1047A60040E0240740E0340760F0E8E1FAE00081E9
:1047B600118122813381EAEEFEE000831183228398
:1047C60033838E010E5F1F4F0E9413034091E70E45
:1047D60050E00EE010E00E943328E4E6F1E0E00F3E
:1047E600F11F0091E90E10E0000F111FE00FF11FFD
:1047F600059114913197F801099553C08E010F5F09
:104806001F4F0E940E03EAEEFEE000811181228115
:104816003381EEEEFEE000831183228333838E0123
:104826000F5F1F4F0E941303EEEEFEE00081118121
:1048360022813381013040E0140740E0240740E044
:10484600340701F58E010E940E0300E010E020E01F
:1048560030E0EAEEFEE000831183228333838E018B
:104866000E9413034091E70E50E00EE010E00E9414
:104876003328F801E259FE4F059114913197F8015A
:1048860009950FC04091E70E50E00EE010E00E943F
:104896003328F801EC59FE4F059114913197F80130
:1048A6000995239608950E942829C801622E532E41
:1048B600442EB52FA62F6A2F5B2F442D352D262D7E
:1048C6008C0104D08C01E7E00C9439290E94282938
:1048D600D801622E832F542E452E962F062DE6E9FB
:1048E600F0E0FBBFF3E00C94C32809E3FD01058368
:1048F6000AE3FD0104830BE3FD0106838CC009E393
:10490600FD0105830AE3FD0104830BE3FD01068334
:1049160082C006E3FD01058307E3FD01048308E386
:10492600FD01068378C006E3FD01058307E3FD016B
:10493600048308E3FD0106836EC003E3FD010583DE
:1049460004E3FD01048305E3FD01068364C003E37C
:10495600FD01058304E3FD01048305E3FD010683F0
:104966005AC000E3FD01058301E3FD01048302E370
:10497600FD01068350C000E3FD01058301E3FD014F
:10498600048302E3FD01068346C001E2FD010583BF
:1049960002E2FD01048303E2FD0106833CC001E25D
:1049A600FD01058302E2FD01048303E2FD010683A6
:1049B60032C000E2FD01058301E6FD01048302E643
:1049C600FD01068328C000E2FD01058301E6FD0125
:1049D600048302E6FD0106831EC003E6FD0105838E
:1049E60004E6FD01048305E6FD01068314C003E623
:1049F600FD01058304E6FD01048305E6FD0106834A
:104A06000AC003E3FD01058304E3FD01048305E316
:104A1600FD01068383E0883040F4482F01E010E072
:104A26000E943B28FD01078303C001E0FD010783C7
:104A3600552051F0FD011781FD010481E02FF0E0C2
:104A46000081012B00830AC0FD0117811095FD012D
:104A56000481E02FF0E0008101230083FD0117812E
:104A6600FD010681E02FF0E00081012B008300E0CC
:104A760010E0FD01018712870D931C93119700E04A
:104A8600FD010283FD0143828D010D5F1F4FFD0174
:104A960003871487983040F4492F01E010E00E9404
:104AA6003B28FD01008703C001E0FD010087E7E028
:104AB6000C943929F8012581E22FF0E02081F801D4
:104AC60037812323222319F0F8010085089500E099
:104AD60008950E942729D801722E832F642E2B0158
:104AE600952FFD019183FD0143825482062D10E02E
:104AF60020E030E048E853E160E070E00E9455288D
:104B060048EE53E060E070E00E947528FD010583E1
:104B160000E00C93072DE4ECF0E0FBBFF3E00C940F
:104B2600C32809E3FD0107830AE3FD0106830BE3BE
:104B3600FD0100878CC009E3FD0107830AE3FD013F
:104B460006830BE3FD01008782C006E3FD010783B0
:104B560007E3FD01068308E3FD01008778C006E34D
:104B6600FD01078307E3FD01068308E3FD010087D6
:104B76006EC003E3FD01078304E3FD01068305E33D
:104B8600FD01008764C003E3FD01078304E3FD0123
:104B9600068305E3FD0100875AC000E3FD01078394
:104BA60001E3FD01068302E3FD01008750C000E337
:104BB600FD01078301E3FD01068302E3FD01008792
:104BC60046C001E2FD01078302E2FD01068303E21E
:104BD600FD0100873CC001E2FD01078302E2FD0101
:104BE600068303E2FD01008732C000E2FD01078370
:104BF60001E6FD01068302E6FD01008728C000E20A
:104C0600FD01078301E6FD01068302E6FD0100873B
:104C16001EC003E6FD01078304E6FD01068305E6E3
:104C2600FD01008714C003E6FD01078304E6FD01CC
:104C3600068305E6FD0100870AC003E6FD0107833A
:104C460004E6FD01068305E6FD01008784E0883061
:104C560008F080E0482F01E010E00E943B28FD01AB
:104C66000187FD0111851095FD010681E02FF0E019
:104C7600008101230083FD011185FD010085E02FE0
:104C8600F0E01083FD010781E02FF0E00081FD01D7
:104C960011850123002311F001E001C000E01C9101
:104CA6000127FD010287FD010285002329F0FD0190
:104CB6000581FD01038703C000E0FD0103878D0127
:104CC60004D08D01E8E00C943829BA93AA93D80150
:104CD600FD010781E02FF0E00081FD011185012330
:104CE6001C910127002349F1FD010385FD01158172
:104CF600011720F4FD01038503950387FD01038554
:104D0600FD0115810117E8F1FD0102850023C9F5B2
:104D160001E0FD010287FD012381348100E010E0FE
:104D26002017310771F1FD011181FD0102851396EE
:104D3600ED91FC911497099524C0FD01038501307E
:104D460020F0FD0103850A950387FD0103850023F5
:104D5600C1F4FD0102850023A1F000E0FD010287F8
:104D6600FD012381348100E010E02017310749F06E
:104D7600FD011181FD0102851396ED91FC911497B9
:104D86000995A991B9910895F8010285089528E633
:104D960030E08901012F10E000939000022F09B93D
:104DA60000E000939500009195000F7E009395001A
:104DB600009195000F7D009395000091950002608B
:104DC6000093950000919500046000939500529819
:104DD60000919500077F0093950000E00093890FEE
:104DE6000093880F0093870F0093860F0093850F1B
:104DF6000093840F0093030F0093020F00E00AB99B
:104E0600579A549A539A569A0895FA93EA935A934C
:104E16004A933A932A931A930A934FB75BB70CB106
:104E2600202FE2E0FFE00081017003950170302F32
:104E36000091030F301721F401E00093870F11C092
:104E460000E00093870F3093020F0091020F10E0ED
:104E5600F801E050F14F20830091860F03950093EF
:104E6600860F5BBF4FBF09911991299139914991DD
:104E76005991E991F9911895FA93EA934A933A93DD
:104E86002A931A930A933FB74BB71091840F209138
:104E9600850F1217A1F01091850F13951F77012F1B
:104EA6000093850F509A10E0F801EC5FF04F1081E7
:104EB6001CB91091880F1A951093880F04C0559845
:104EC60010E01093880F4BBF3FBF099119912991AC
:104ED60039914991E991F9911895402F1FB7512FB2
:104EE600F8941091840F13951F77212F1091850F39
:104EF600211729F411E01093890F00E00EC030E06D
:104F0600F901EC5FF04F40832093840F559A10917E
:104F1600880F13951093880F01E05FBF08953FB780
:104F2600F89418E10FE011BD01BD3FBF08951FB70A
:104F3600F894A8951FBF089520E030E000E10E9494
:104F4600A82701E010E00C94A92708952297C8012C
:104F5600888399839E0101E00E94A827F9CF0C94CB
:104F6600A9270E9424294801A22EDA01962F82E061
:104F760024016A2C0BC002E0400E511E611E8230D5
:104F860099F002E0400E00E0501E601E4A165B06D5
:104F9600690689F0F2016BBE4791569110E04030E8
:104FA600504049F3823069F3F2016BBE0791F691E6
:104FB600E02F0995E6CF8A95D9F6EBE00C943529D2
:104FC6000FEF0DBF08E00EBFC0E0D3E00E944529F9
:104FD600002311F00E94762902EF13E020E046EF4D
:104FE60053E060E00E94B4270E94E1190E94232842
:104FF6000C94B227E199FECF08954F5F5F4FFADF19
:105006004EBB5FBBE09A0895FADF0DB30895F7DF54
:105016000DB3F3DF1DB308954F5F5F4F4EBB5FBB0C
:10502600F894E29AE19A0FBE08950FB6E3DF0DBB3E
:10503600F5CF0FB6DFDF0DBBF1DFDCDF1DBBECCF3D
:105046000C94B2270024E8E0EA9532F0001F001C19
:105056000416D0F3041AF8CF001F402D00950895CA
:10506600149F102D059F100D049F002D110D0895FE
:105076004A951AF0000F111FFBCF08950024112442
:10508600EFE0001F111F001C111C0416150610F07E
:10509600041A150AEA95AAF7001F111FA001009528
:1050A600109508952224349F302D259F300D169F8C
:1050B600300D079F300D249F202D310D159F200D9B
:1050C600311D069F200D311D149F102D210D321DFF
:1050D600059F100D211D321D049F002D110D221D4F
:1050E600321D0895002411241001E0E2EA9592F0A1
:1050F600001F111F221F331F001C111C221C331CF2
:10510600041615062606370688F3041A150A260A13
:10511600370AECCF001F111F221F331FA001B10158
:1051260000951095209530950895FF27772312F462
:10513600F16015D0332312F4F09509D00E9475283A
:10514600F69508F404D0F69508F409C0089530954C
:105156002095109501951F4F2F4F3F4F089570953D
:105166006095509541955F4F6F4F7F4F08957791AA
:10517600679157914791179011FA279037900895A4
:10518600F9DF041B10E003C0F4DF041B150B20E05D
:1051960030E005C0ECDF041B150B260B370BB8F00F
:1051A60010FC17C047910790E00FF11F0417100578
:1051B60040E02407340758F436F406910024F10140
:1051C600E01BF0090994E00FF11F27903790F101D9
:1051D600099411F4D6F7F1CF31960EF0319650E0DE
:1051E60060E070E047914B3F48F089F34F3F29F06C
:1051F6004E3F11F07791679157914791041B150B1C
:10520600260B370B39F318F3E7CFAF93BF93D801CB
:1052160001900D9241505040D9F7BF91AF9108953A
:10522600AF93BF93D8013BBF07900D9241505040BA
:10523600D9F7BF91AF910895FA92EA92DA92CA929B
:10524600BA92AA929A928A927A926A925A924A92B8
:10525600BA93AA939A938A930895FF84EE84DD8481
:10526600CC84BB84AA84998488847F806E805D8088
:105276004C80BB81AA8199818881F0E0EC0FFD1FEB
:10528600EF01089501E008959A938A93C80102C038
:105296000E9464298C010E94722A202F012B69F436
:1052A600EAE8FFE02081318100E02030300781F319
:1052B600E0918A0FF32F0995EDCF022F89919991ED
:1052C60008950C949F2720E008D0E9F708953BBF86
:1052D60027913BB702D0D9F708952D93015010407E
:1052E600202F212B08950AEA402E05E5502E00E0D6
:1052F600602EF201362D6BBE07911691F201EE5F1C
:10530600FF4F3F4F3BBFA791B691F201362DEC5FA1
:10531600FF4F3F4F3BBF479157916691242F252B57
:10532600262B21F0FA01362FD2DF01C0CCDF07E0B1
:10533600400E00E0501E601EA201662D483B5545FA
:105346006040B8F20895ECE8FFE000811181012B7E
:1053560019F000E010E0089500E013E000831183E7
:1053660020E035E0F8012083318308950D01D8014E
:10537600012B09F455C01297ED91FC9111973497C2
:1053860008F44EC00EE81FE0F80153D019F0A2173A
:10539600B30728F4FD0122833383F80123C0F90102
:1053A60048D019F02A173B07D0F3408151819F015D
:1053B600240F351FA217B30798F12A173B0741F4AC
:1053C6002D913C91420F531F40835183DF010CC046
:1053D60030D021F027D02617370710F112962D93DB
:1053E6003C931397A283B383FD0123D0C9F01AD04F
:1053F60062177307A9F420E0F80120832183FD01D9
:105406000281F381E02F208131814D915C91420F21
:10541600531F5C934E9302811381FD010283138314
:10542600D00108954D915C911197BD01640F751FD0
:10543600089522813381422F432B08959A938A93AC
:10544600C80105C02E5F3F4F89010E94B929EEE8C9
:10545600FFE000811181202F212B61F400E91FE07C
:1054660001C037D029D0F1F02ED0D8F322C02BD0EE
:1054760000F52FD021D0D9F7EEE8FFE00081F181C9
:10548600E02F1ED000E91FE007C0FA0140815181DC
:105496004817590770F41DD0F80140815181421711
:1054A600530799F70E94A6299801012B59F600E0A7
:1054B60010E089919991089502D0232B0895F8015F
:1054C600208131810895E081F32FFADF281739070B
:1054D6000895F801008111810E5F1F4F08950E9403
:1054E6002B29C80102960817190718F000E010E0EA
:1054F60047C0843000E0900710F484E090E08C010F
:105506009DDF202F212B91F3DADFF901A081B181F4
:105516001497A817B90730F422813381D8012D9347
:105526003C9316C0280F391FD8012D933C93428116
:10553600538129D04D935C9340815181481B590B6F
:10554600D8012D91BC91A22F4D935C9380839183BA
:10555600D8012D913C91232B59F015D02D913C91DA
:10556600232B31F0D8010D911C910E5F1F4F02C005
:1055760000E010E0AEE8BFE00D931C9332968F0179
:10558600E4E00C943C29D8012D91D9011296089596
:105596004572726F72206D6F64756C652073656EEF
:1055A600640D0A0075051D0A0000001D010009B8FA
:1055B6005500464E2B735320000000000031625305
:1055C600C4F5A697B988DBEA7D4C1F2E43722110DD
:1055D60087B6E5D4FACB98A93E0F5C6D86B7E4D5BD
:1055E600427320113F0E5D6CFBCA99A8C5F4A796BD
:1055F600013063527C4D1E2FB889DAEB3D0C5F6E8D
:10560600F9C89BAA84B5E6D7407122137E4F1C2D9C
:10561600BA8BD8E9C7F6A59403326150BB8AD9E89C
:105626007F4E1D2C02336051C6F7A495F8C99AAB7C
:105636003C0D5E6F4170231285B4E7D67A4B18296C
:10564600BE8FDCEDC3F2A1900736655439085B6A5C
:10565600FDCC9FAE80B1E2D344752617FCCD9EAF3C
:1056660038095A6B4574271681B0E3D2BF8EDDEC3C
:105676007B4A192806376455C2F3A091477625144C
:1056860083B2E1D0FECF9CAD3A0B5869043566571C
:10569600C0F1A293BD8CDFEE79481B2AC1F0A3921C
:1056A6000534675678491A2BBC8DDEEF82B3E0D1FC
:1056B600467724153B0A5968FFCE9DAC01FFF824B6
:0F56C60001000303030303030303504600000125
:0400000300000000F9
:00000001FF
