:020000020000FC
:100000000C945726189518951895189518951895C5
:100010001895189518951895189518951895189578
:10002000189518950C9422021895189518951895FE
:100030001895189518951895189518950C949F0271
:1000400018951895189518950C947C250C94B32543
:100050001895189518951895189518951895189538
:100060001895189518951895189518951895189528
:100070001895189518951895189518951895189518
:100080001895189518951895189518958B12BE0304
:10009000BE039D12AA04BE03B8040B05BE032405CB
:1000A00099053D050D0FBE03BE03BE03BE03BE038F
:1000B000BE03BE03BE03BE03BE03BE0301020103B3
:1000C000010201040102010301020100474D206306
:1000D0006F646500D9DA20202020202020202020F5
:1000E0002020202020202020202020202020202010
:1000F0002020202020202020202020202020202000
:1001000020202020A2B520202020202020202020D8
:100110002020202041A042A1E045A3A4A5A64BA7F2
:100120004D484FA8504354A9AA58E1ABACE2ADAE3C
:1001300062AFB0B161B2B3B4E365B6B7B8B9BABB38
:10014000BCBD6FBE7063BF79E478E5C0C1E6C2C3D1
:10015000C4C5C6C70609090600000000060F0F0641
:100160000000000028192819281928192819281909
:100170002819621927192719271927192719281942
:10018000F019C91A2719271927192719BB1927196F
:10019000C41B421B5F1B7C1BCA1BC91A111C2719DD
:1001A0002719271927192719DA1B6C1CD21CD41CF4
:1001B000DF1CEA1CCA1B371C2719421D7F1D9C1D12
:1001C000B91DCA1B021D2719051E071E091E271966
:1001D000CA1BD41D2719A31EA51ED01EFB1ECA1B99
:1001E0001C1E2719391F3B1F3D1F2719CA1B081F3B
:1001F0002D20BB192719271927192719012027197D
:10020000BB19C81FE41F2719BB194E1F271927192F
:10021000271927192719271927190302040601533B
:100220007475636B20202020200053656E736F72FD
:1002300073203A20004C3D202020202020004572D1
:10024000726F722020200053656E736F72733A00D4
:100250004C3D3F2020202020202020202020202036
:1002600000496E7075742070617373776F72643AB1
:100270000050617373776F7264206572726F7221C0
:10028000004D656E753A0044697374616E63652054
:10029000746F20533120200044697374616E63656C
:1002A00020746F20533220200044697374616E63A0
:1002B0006520746F20533320200044697374616E8D
:1002C000636520746F205334202000446973746187
:1002D0006E636520746F2053352020004469737469
:1002E000616E636520746F2053362020004469736B
:1002F00074616E636520746F205337202000446959
:100300007374616E636520746F205338202000532E
:100310006574206E65772070617373776F72640007
:10032000446562756720736372207370656564202D
:10033000004465627567206F757420444143202036
:1003400020005365742070617373776F72643A0094
:10035000536176653F20282D2F2B29004469737443
:10036000616E636520746F205300536176653F2092
:10037000282D2F2B29004465627567204F75742046
:100380004441430031363030306D6D2D32302E30E7
:0503900030306D41005A
:1003960041017823F622010A23011E23013223019B
:1003A6004623015A23016E231AEC2201002301146D
:1003B60023012823013C23015023016423FB41012F
:1003C60094241224012624013A24014E2401622495
:1003D600017624018A241A0824011C2401302401F0
:1003E6004424015824016C24018024FB5802A913DB
:1003F60000E005BD05B5086005BD05B50F7B05BD6B
:1004060005B50F7D05BD05B50F7E05BD05B50B7F91
:1004160005BD05B5026005BD05B5016005BD01D088
:10042600089500E004BD0CE703BD06B70F7706BFCD
:1004360006B70F7B06BF07B7006807BF08959A93F4
:100446008A93FA93EA933A922A921A920A927A93A2
:100456006A935A934A933A932A931A930A938FB7B5
:100466009BB707B70F7707BF789400911D0A1091C5
:100476001E0A0E94D2150E9448150E9404220E945C
:10048600C602CFDF9BBF8FBF099119912991399180
:1004960049915991699179910990199029903990CA
:1004A600E991F9918991999118950FE210E00E94CE
:1004B60099279801012B41F089010E944E1500935E
:1004C6001D0A10931E0A089500E010E000931D0A0D
:1004D60010931E0A08950E94FB010E947F020E944B
:1004E6003E250E9417030E94790208950E94D212A7
:1004F60008950E94DA03089503B7046003BF03B7A3
:100506000D7F03BF03B70E7F03BF03B70F7B03BF88
:1005160003B7086003BF03B70F7D03BF03B70F7EA2
:1005260003BF03B70F7703BF00E002BF01E301BFBC
:1005360007B7026007BF08959A938A93FA93EA93DE
:100546003A922A921A920A927A936A935A934A9301
:100556003A932A931A930A938FB79BB70E940A037A
:100566009BBF8FBF09911991299139914991599151
:10057600699179910990199029903990E991F991A9
:100586008991999118950895EFE1FAE0008111811A
:100596000F5F1F4F0083118300911F0A1091200ADD
:1005A600083823E1120790F100E010E000931F0ADB
:1005B6001093200A01E00093250A0091210A039571
:1005C6000093210A0091210A0C3300F100E0009308
:1005D600210A0091220A03950093220A0091220A19
:1005E6000C33A0F000E00093220A0091230A039541
:1005F6000093230A0091230A083140F000E000939B
:10060600230A0091240A03950093240A08950E9460
:100616007C02BADF08952FB7F8012083F894089575
:10062600F80120812FBF0895219705E00A3040F494
:1006360020E010E0F801E050F74F20830395F6CF55
:100646008E010E940E0300E010E000931F0A109333
:10065600200A00E00093210A00E00093220A00E04D
:100666000093230A00E00093240A01E00093250A80
:100676008E010E941303219608950E947D27D801BA
:100686000FEF80E090E08217930764F410E04C913E
:1006960050E004271527F801E65FF64F0081119612
:1006A6000196F1CFE4E00C948E27C69AC69AC79AB3
:1006B600949A959ABE9ABE9ABF9A8C9A8D9A0FE38F
:1006C6001CE901501040E9F700C000009598089514
:1006D600B80100E010E0BE9ABF9A8C9A8D9AC7982E
:1006E6002AE02A95F1F700C094982AE02A95F1F7B6
:1006F60000C040E0403110F577FB16F421E001C060
:1007060020E020FB28B326F928BB2AE02A95F1F73A
:1007160000C0C79A2AE02A95F1F700C0000F111F02
:10072600C69B03C0016021E030E0C798660F771FC3
:100736002AE02A95F1F700C04395DCCF949A2AE087
:100746002A95F1F700C008959A938A93C801ADDF00
:100756008C0120E030E04FEF5FE960E070E00E943E
:10076600C92640E157E260E070E00E94E926B0DF6A
:10077600899199910895089521978E010E940E03FB
:1007860000E000933D0A8E010E941303219608950E
:100796008A9321978E010E940E0300913D0A802FB5
:1007A6008E010E941303082F2196899108950E94B5
:1007B600941300918A0A10E0000F111F000F111FF9
:1007C600F801E257FF4F059114913197F801099509
:1007D600089521978E010E940E0300918A0A10E067
:1007E600000F111F000F111FF801E457FF4F05916D
:1007F60014913197F8010995E9E2FAE00081118137
:10080600228133810093260A1093270A00913E0A1B
:100816000093280A8E010E941303219608958A9355
:1008260021978E010E940E0300918A0A802F8E0165
:100836000E941303082F2196899108950E947D270F
:10084600602F212F422F01E010E00E94AF26109169
:100856003D0A102B10933D0A30E0F901E05FF54F99
:1008660060830091840A002309F46EC030E0422FB1
:1008760050E008E010E00E94A726E0E4FAE0E00F6E
:10088600F11F062F10E0000F111F000F111FE00FC0
:10089600F11F00801180228033800128022803285E
:1008A60019F4662309F431E0613019F4222309F4BE
:1008B60031E0613059F4213048F0022F10E0F801A0
:1008C600E15FF54F0081002309F031E03323E1F1C8
:1008D60088EF94E2A1E0B0E0ECE0FAE08083918357
:1008E600A283B383E0E8FAE080819181A281B3819B
:1008F600422F50E008E010E00E94A726E0E4FAE06C
:10090600E00FF11F062F10E0000F111F000F111F3F
:10091600E00FF11F80839183A283B383422F01E00E
:1009260010E00E94AF2610913F0A102B10933F0A49
:1009360040910B0A542F550F550B022F10E040170C
:10094600510714F420930B0AE4E00C948E2700EA76
:100956001BEB2DE030E0E5E8FAE00083118322830B
:10096600338303E000938A0A08950E947D270E943C
:10097600B4120023F1F10E94CF1240E0483010F586
:1009860060E06230E8F400E010E020E030E0C8010A
:10099600D90150E008E010E00E94A726E0E4FAE062
:1009A600E00FF11F062F10E0000F111F000F111F9F
:1009B600E00FF11F80839183A283B3836395E1CF18
:1009C6004395DCCF01E010E020E030E0E0E8FAE01B
:1009D600008311832283338300E000933F0A0FEFE5
:1009E60000930B0A01E00093840A04E000938A0A4C
:1009F6000CC0E5E8FAE00081118122813381012BE8
:100A0600022B032B11F40E94CC12E4E00C948E27E7
:100A1600E5E8FAE00081118122813381012B022B66
:100A2600032B71F0E5E8FAE0008111812281338120
:100A360001501040204030400083118322833383CD
:100A4600089500913D0A0023A1F000E00093890A71
:100A560040910B0A439501E010E00E94AF260A95EB
:100A660010913F0A1095012300933E0A05E000937A
:100A76008A0A0895ECE0FAE000811181228133812F
:100A8600012B022B032BF1F1ECE0FAE0008111813E
:100A96002281338101501040204030400083118371
:100AA60022833383E0E8FAE00081118122813381D9
:100AB6000F5F1F4F2F4F3F4F0083118322833383D6
:100AC6000E94B412002389F101E00093890AE0E450
:100AD600FAE000A911A922A933A9012B022B032BA5
:100AE60021F1E0E4FAE000AD11AD22AD33AD012B0A
:100AF600022B032BD1F006E000938A0A00E0009354
:100B0600840A08950091890A002339F006E00093CB
:100B16008A0A00E00093840A089500E00093840A9C
:100B26000E94CC1202E000938A0A089500913D0AC1
:100B3600002379F040910B0A439501E010E00E94F2
:100B4600AF260A9510913F0A1095012300933E0A9D
:100B5600089500E000933E0A08950E947127AC971D
:100B660048835983902F312EC22E7B01B32E8CAC35
:100B76009DAC4EAC5FACFE01FF96A181B28120E038
:100B8600232C032D0A95802F022D102F110F110BE8
:100B9600DD240C151D050CF09DC088230AF49AC0AF
:100BA600FE01329630E047E050E089010E94A72618
:100BB600E00FF11F8483FE01329630E047E050E0FB
:100BC60089010E94A726E00FF11F2582022D102F12
:100BD600110F110BF801E652F14F6081762F770F56
:100BE600770B660F771F40E050E0460F571F0E94B5
:100BF6007E26B801082F102F110F110BF801E652AF
:100C0600F14F4081542F550F550B440F551F00E0EF
:100C160010E0040F151FA8010E947E26601B710BB1
:100C2600FE01329630E047E050E089010E94A72697
:100C3600E00FF11F60837183022D102F110F110B2E
:100C4600F801E652F14F6081762F770F770B48E077
:100C560050E08B010E94A726F801E05CF54F408129
:100C66005181628173813A01082F102F110F110BE8
:100C7600F801E652F14F6081762F770F770B48E047
:100C860050E08B010E94A726F801E05CF54F4081F9
:100C9600518162817381B301641B750BFE0132962B
:100CA60030E047E050E089010E94A726E00FF11FDF
:100CB6006283738331E0BE016E5F7F4F022E112483
:100CC60047E050E080010E94A726600F711FFB01DC
:100CD60036832395292E092F0A95802F022D102F52
:100CE600110F110BDD240C151D050CF09DC088237A
:100CF6000AF49AC0FE01329630E047E050E08901DE
:100D06000E94A726E00FF11F8483FE01329630E091
:100D160047E050E089010E94A726E00FF11F2582D7
:100D2600022D102F110F110BF801E652F14F6081C1
:100D3600762F770F770B660F771F40E050E0460F50
:100D4600571F0E947E26B801082F102F110F110B76
:100D5600F801E652F14F4081542F550F550B440FC1
:100D6600551F00E010E0040F151FA8010E947E2603
:100D7600601B710BFE01329630E047E050E08901BE
:100D86000E94A726E00FF11F60837183022D102FAA
:100D9600110F110BF801E652F14F6081762F770F94
:100DA600770B48E050E08B010E94A726F801E05C33
:100DB600F54F44815581668177813A01082F102FBE
:100DC600110F110BF801E652F14F6081762F770F64
:100DD600770B48E050E08B010E94A726F801E05C03
:100DE600F54F4481558166817781B301641B750B8C
:100DF600FE01329630E047E050E089010E94A726C6
:100E0600E00FF11F6283738330E0BE016E5F7F4F98
:100E1600022E112447E050E080010E94A726600FB1
:100E2600711FFB0136832395032D0395202E832DF9
:100E3600022D102F110F110BDD240C151D050CF0C2
:100E46009DC088230AF49AC0FE01329630E047E03E
:100E560050E089010E94A726E00FF11F8483FE015E
:100E6600329630E047E050E089010E94A726E00F65
:100E7600F11F2582022D102F110F110BF801E652DA
:100E8600F14F6081762F770F770B660F771F40E063
:100E960050E0460F571F0E947E26B801082F102FDC
:100EA600110F110BF801E652F14F4081542F550FE7
:100EB600550B440F551F00E010E0040F151FA80145
:100EC6000E947E26601B710BFE01329630E047E0E1
:100ED60050E089010E94A726E00FF11F608371830D
:100EE600022D102F110F110BF801E652F14F608100
:100EF600762F770F770B48E050E08B010E94A726EC
:100F0600F801E05CF54F40815181628173813A01BD
:100F1600082F102F110F110BF801E652F14F6081C7
:100F2600762F770F770B48E050E08B010E94A726BB
:100F3600F801E05CF54F4081518162817381B30114
:100F4600641B750BFE01329630E047E050E08901E4
:100F56000E94A726E00FF11F6283738331E0BE0172
:100F66006E5F7F4F022E112447E050E080010E9401
:100F7600A726600F711FFB0136832395232C032DB3
:100F86000250802F022D102F110F110BDD240C158E
:100F96001D050CF09DC088230AF49AC0FE01329606
:100FA60030E047E050E089010E94A726E00FF11FDC
:100FB6008483FE01329630E047E050E089010E94CA
:100FC600A726E00FF11F2582022D102F110F110BFE
:100FD600F801E652F14F6081762F770F770B660F97
:100FE600771F40E050E0460F571F0E947E26B8014B
:100FF600082F102F110F110BF801E652F14F408107
:10100600542F550F550B440F551F00E010E0040FE9
:10101600151FA8010E947E26601B710BFE013296E9
:1010260030E047E050E089010E94A726E00FF11F5B
:1010360060837183022D102F110F110BF801E652F8
:10104600F14F6081762F770F770B48E050E08B01E8
:101056000E94A726F801E05CF54F4081518162812C
:1010660073813A01082F102F110F110BF801E65268
:10107600F14F6081762F770F770B48E050E08B01B8
:101086000E94A726F801E05CF54F408151816281FC
:101096007381B301641B750BFE01329630E047E0A5
:1010A60050E089010E94A726E00FF11F6283738337
:1010B60030E0BE016E5F7F4F022E112447E050E004
:1010C60080010E94A726600F711FFB0136832395BE
:1010D600092F0395202E892F022D102F110F110B8A
:1010E600DD240C151D050CF09DC088230AF49AC05A
:1010F600FE01329630E047E050E089010E94A726C3
:10110600E00FF11F8483FE01329630E047E050E0A5
:1011160089010E94A726E00FF11F2582022D102FBC
:10112600110F110BF801E652F14F6081762F770F00
:10113600770B660F771F40E050E0460F571F0E945F
:101146007E26B801082F102F110F110BF801E65259
:10115600F14F4081542F550F550B440F551F00E09A
:1011660010E0040F151FA8010E947E26601B710B5C
:10117600FE01329630E047E050E089010E94A72642
:10118600E00FF11F60837183022D102F110F110BD9
:10119600F801E652F14F6081762F770F770B48E022
:1011A60050E08B010E94A726F801E05CF54F4481D0
:1011B6005581668177813A01082F102F110F110B87
:1011C600F801E652F14F6081762F770F770B48E0F2
:1011D60050E08B010E94A726F801E05CF54F4481A0
:1011E600558166817781B301641B750BFE013296CA
:1011F60030E047E050E089010E94A726E00FF11F8A
:101206006283738331E0BE016E5F7F4F022E11242D
:1012160047E050E080010E94A726600F711FFB0186
:1012260036832395BB2019F0AA24A39401C0AA24CF
:1012360060E0621708F040C0FE01329670E047E0B9
:1012460050E08B010E94A726E00FF11F06810023C4
:1012560089F068807980FE01329670E047E050E0C0
:101266008B010E94A726E00FF11F028113816016F1
:10127600710604F5FE01329670E047E050E08B01FE
:101286000E94A726E00FF11F00811181025E1F4F09
:101296003801FE0132960A2C112447E050E0800105
:1012A6000E94A726E00FF11F0081118160167106CA
:1012B6000CF4A62E6395BDCFFE0132966A2D70E022
:1012C60047E050E08B010E94A726E00FF11F008146
:1012D6001181F20100831183FE0132966A2D70E0BE
:1012E60047E050E08B010E94A726E00FF11F028124
:1012F6001381FD0100831183FE0132966A2D70E091
:1013060047E050E08B010E94A726E00FF11F048101
:10131600F7010083FE0132966A2D70E047E050E047
:101326008B010E94A726E00FF11F0581F4010083BF
:10133600AC96E6E10C9482270E9477272697602ECA
:10134600412E822E0091D90E043610F001E000C124
:10135600662042F0042D102F110F110B9924081549
:10136600190514F000E0F4C05524042D102F110FB8
:10137600110BF801E652F14F0081102F110F110BDE
:10138600000F111F40E050E0400F511F0E947E26C3
:101396009801762C770C7708F301E652F14F00811D
:1013A600102F110F110B000F111F40E050E0400FDE
:1013B600511F0E947E26201B310BD901762C770CFB
:1013C6007708F301E652F14F4081542F550F550B24
:1013D60008E010E00E94A726F801E05CF54F0481C2
:1013E600158126813781B801042D102F110F110B9D
:1013F600F801E652F14F4081542F550F550B08E086
:1014060010E00E94A726F801E05CF54F00811181EB
:1014160022813381601B710BCB018E010E5F1F4F42
:101426001A930A938E010A5F1F4F1A930A938E012D
:101436000C5F1F4F1A930A9331E0BE01695F7F4F1D
:10144600AC01282D142D062D88DB4C815D8160E0D2
:10145600959F9001849F8001949F100D211D361F3A
:10146600589F100D211D361F4A815B8160E070E098
:101476000E94E926C80121E04091D90E50E00BE018
:1014860010E00E94A726F801E357F54F208340910C
:10149600D90E50E00BE010E00E94A726F801E357B2
:1014A600F54F62824091D90E50E00BE010E00E94A9
:1014B600A726F801E357F54F438229814091D90EBB
:1014C60050E00BE010E00E94A726F801E357F54F25
:1014D600248328814091D90E50E00BE010E00E9451
:1014E600A726F801E357F54F25834091D90E50E022
:1014F6000BE010E00E94A726F801E357F54F86831C
:1015060097839D01280F391F4091D90E50E00BE0BB
:1015160010E00E94A726F801E357F54F2087318790
:1015260021E04091D90E50E00BE010E00E94A72682
:10153600F801E357F54F22870091D90E03950093E2
:10154600D90E0091D90E043610F055245394052D6A
:101556002696EAE00C9488270E9477272697602E25
:10156600A12F822E0091D90E043610F002E006C19A
:10157600662042F00A2F102F110F110B992408151F
:10158600190514F000E0FAC0B0E0762C770C770865
:10159600F301E652F14F4081542F550F550B08E0E9
:1015A60010E00E94A726F801E05CF54F0481158142
:1015B60026813781B8010A2F102F110F110BF80160
:1015C600E752F14F4081542F550F550B08E010E0BC
:1015D6000E94A726F801E05CF54F00811181228167
:1015E6003381601B710BCB010A2F102F110F110BCA
:1015F600F801E752F14F0081102F110F110B000F68
:10160600111F40E050E0400F511F0E947E269801B6
:10161600762C770C7708F301E652F14F0081102FF4
:10162600110F110B000F111F40E050E0400F511F2A
:101636000E947E26201B310B29018E010E5F1F4F53
:101646001A930A938E010A5F1F4F1A930A938E010B
:101656000C5F1F4F1A930A9331E0BE01695F7F4FFB
:10166600AC01282D1A2F1A95062D77DA4C815D814B
:1016760060E0959F9001849F8001949F100D211D2D
:10168600361F589F100D211D361F4A815B8160E071
:1016960070E00E94E926C8018415950508F06DC022
:1016A60023E04091D90E50E00BE010E00E94A726FF
:1016B600F801E357F54F20834091D90E50E00BE037
:1016C60010E00E94A726F801E357F54F62822A2F01
:1016D6002A954091D90E50E00BE010E00E94A72613
:1016E600F801E357F54F238329814091D90E50E045
:1016F6000BE010E00E94A726F801E357F54F24837C
:1017060028814091D90E50E00BE010E00E94A726F8
:10171600F801E357F54F25834091D90E50E00BE0D1
:1017260010E00E94A726F801E357F54F86839783BA
:101736009201280F391F4091D90E50E00BE010E0BE
:101746000E94A726F801E357F54F2087318721E04D
:101756004091D90E50E00BE010E00E94A726F80158
:10176600E357F54F22870091D90E03950093D90EC2
:101776000091D90E043608F0B1E00B2F2696EAE068
:101786000C9488270E9477272697602E412E822E5A
:101796000091D90E043610F002E004C1662042F032
:1017A600042D102F110F110B99240815190514F08B
:1017B60000E0F8C05524042D102F110F110BF8016D
:1017C600E652F14F0081102F110F110B000F111F60
:1017D60040E050E0400F511F0E947E269801762C73
:1017E600770C7708F301E652F14F0081102F110FA5
:1017F600110B000F111F40E050E0400F511F0E94D7
:101806007E26201B310BD901042D102F110F110B31
:10181600F801E652F14F4081542F550F550B08E061
:1018260010E00E94A726F801E05CF54F00811181C7
:1018360022813381B801762C770C7708F301E652C2
:10184600F14F4081542F550F550B08E010E00E94D0
:10185600A726F801E05CF54F0481158126813781C2
:10186600601B710BCB018E010E5F1F4F1A930A93FB
:101876008E010A5F1F4F1A930A938E010C5F1F4F4A
:101886001A930A9330E0BE01695F7F4FAC01282DA1
:10189600142D062D62D94C815D8160E0959F9001E3
:1018A600849F8001949F100D211D361F589F100D97
:1018B600211D361F4A815B8160E070E00E94E926A7
:1018C600C8018A179B0708F06CC024E04091D90E26
:1018D60050E00BE010E00E94A726F801E357F54F11
:1018E60020834091D90E50E00BE010E00E94A7261D
:1018F600F801E357F54F62824091D90E50E00BE0B4
:1019060010E00E94A726F801E357F54F438229818C
:101916004091D90E50E00BE010E00E94A726F80196
:10192600E357F54F248328814091D90E50E00BE010
:1019360010E00E94A726F801E357F54F2583409152
:10194600D90E50E00BE010E00E94A726F801E357FD
:10195600F54F868397839D01281B390B4091D90E3D
:1019660050E00BE010E00E94A726F801E357F54F80
:101976002087318722E04091D90E50E00BE010E03D
:101986000E94A726F801E357F54F22870091D90E4A
:1019960003950093D90E0091D90E043610F0552404
:1019A6005394052D2696EAE00C9488270E94772703
:1019B6002697A02F612E822E0091D90E043610F0A4
:1019C60002E006C1AA233AF0762C770C7708992410
:1019D6006814790414F000E0FBC0B0E0762C770CB4
:1019E6007708F301E652F14F0081102F110F110B0A
:1019F600000F111F40E050E0400F511F0E947E264D
:101A060098010A2F102F110F110BF801E652F14F12
:101A16000181102F110F110B000F111F40E050E034
:101A2600400F511F0E947E26201B310B29010A2FD1
:101A3600102F110F110BF801E652F14F4181542F6F
:101A4600550F550B08E010E00E94A726F801E05C50
:101A5600F54F0481158126813781B801762C770CE4
:101A66007708F301E652F14F4081542F550F550B7D
:101A760008E010E00E94A726F801E05CF54F00811F
:101A8600118122813381601B710BCB018E010E5FA8
:101A96001F4F1A930A938E010A5F1F4F1A930A93D8
:101AA6008E010C5F1F4F1A930A9331E0BE01695FE6
:101AB6007F4FAC01282D162D0A2F03950E94B005E5
:101AC6004C815D8160E0959F9001849F8001949F89
:101AD600100D211D361F589F100D211D361F4A81DE
:101AE6005B8160E070E00E94E926C80184159505D7
:101AF60008F06DC026E04091D90E50E00BE010E0F2
:101B06000E94A726F801E357F54F20832A2F239535
:101B16004091D90E50E00BE010E00E94A726F80194
:101B2600E357F54F22834091D90E50E00BE010E0C9
:101B36000E94A726F801E357F54F63822981409159
:101B4600D90E50E00BE010E00E94A726F801E357FB
:101B5600F54F248328814091D90E50E00BE010E028
:101B66000E94A726F801E357F54F25834091D90E29
:101B760050E00BE010E00E94A726F801E357F54F6E
:101B8600868397839201280F391F4091D90E50E022
:101B96000BE010E00E94A726F801E357F54F2087D7
:101BA600318721E04091D90E50E00BE010E00E9411
:101BB600A726F801E357F54F22870091D90E039522
:101BC6000093D90E0091D90E043608F0B1E00B2F20
:101BD6002696EAE00C9488270E9477272697402EBF
:101BE600A12F822E0091D90E043610F002E00EC10C
:101BF600E42DFE2FFF0FFF0B319742F00A2F102F17
:101C0600110F110B99240815190514F000E0FEC0F8
:101C1600B0E00A2F102F110F110BF801E752F14F08
:101C26000081102F110F110B000F111F40E050E023
:101C3600400F511F0E947E269801542C550C5508C2
:101C4600F201E752F14F0081102F110F110B000F17
:101C5600111F40E050E0400F511F0E947E26201BBE
:101C6600310B39010A2F102F110F110BF801E75212
:101C7600F14F4081542F550F550B08E010E00E949C
:101C8600A726F801E05CF54F00811181228133819E
:101C9600B801542C550C5508F201E752F14F40811A
:101CA600542F550F550B08E010E00E94A726F801A7
:101CB600E05CF54F0481158126813781601B710B2D
:101CC600CB018E010E5F1F4F1A930A938E010A5F96
:101CD6001F4F1A930A938E010C5F1F4F1A930A9394
:101CE60030E0BE01695F7F4FAC01282D1A2F1A958F
:101CF600042D0A950E94B0054C815D8160E0959F98
:101D06009001849F8001949F100D211D361F589FBE
:101D1600100D211D361F4A815B8160E070E00E9434
:101D2600E926C8018615970508F06FC028E040919E
:101D3600D90E50E00BE010E00E94A726F801E35709
:101D4600F54F2083242D2A954091D90E50E00BE0C3
:101D560010E00E94A726F801E357F54F22832A2FA9
:101D66002A954091D90E50E00BE010E00E94A7267C
:101D7600F801E357F54F238329814091D90E50E0AE
:101D86000BE010E00E94A726F801E357F54F2483E5
:101D960028814091D90E50E00BE010E00E94A72662
:101DA600F801E357F54F25834091D90E50E00BE03B
:101DB60010E00E94A726F801E357F54F8683978324
:101DC6009301281B390B4091D90E50E00BE010E02F
:101DD6000E94A726F801E357F54F2087318722E0B6
:101DE6004091D90E50E00BE010E00E94A726F801C2
:101DF600E357F54F22870091D90E03950093D90E2C
:101E06000091D90E043608F0B1E00B2F2696EAE0D1
:101E16000C9488270E9479272B9700E0083040F41D
:101E26002FEF10E0F801E652F14F20830395F6CF2D
:101E360000E00093E20E00E000933E0A20E0283026
:101E460070F530E0422F50E008E010E00E94A7262F
:101E5600F801E05CF54F4081518162817381452B29
:101E6600462B472B09F031E0332369F00091E20E4F
:101E760010E0F801E652F14F20830091E20E03953F
:101E86000093E20E0AC0422F01E010E00E94AF2646
:101E960010913E0A102B10933E0A2395D0CF009145
:101EA600E20E033090F475D302E000938A0A0AE04A
:101EB60010E020E030E0E9E2FAE0008311832283BB
:101EC600338301E000930A0A4FC100E00093D90E64
:101ED6004091DA0E542F550F550B08E010E00E9482
:101EE600A726F801E05CF54F84819581A681B7812C
:101EF6000091E20E10E0F801E752F14F4081542FB5
:101F0600550F550B08E010E00E94A726F801E05C8B
:101F1600F54F008111812281338180179107A20735
:101F2600B30748F02091E20E1091E20E1A9500E0F8
:101F36000E949F0969C080E090E0E091E20EF0E027
:101F460031978E179F070CF05FC00091D90E0436AB
:101F560008F05AC0082F0395A02F0091E20EA01793
:101F660008F050C00091D90E043608F04BC0B0E01E
:101F7600FD01E652F14F4081542F550F550B08E0F5
:101F860010E00E94A726F801E05CF54F40805180E2
:101F96006280738090E0FC01E652F14F4081542F3D
:101FA600550F550B08E010E00E94A726F801E05CEB
:101FB600F54F048115812681378140165106620648
:101FC6007306F0F02091E20E1A2F082F0E94AF0A36
:101FD6000023C1F42091E20E1A2F082F0E94C50B90
:101FE600002381F42091E20E1A2F082FDFDC002354
:101FF60049F42091E20E1A2F082FEEDD002311F48A
:10200600A395ABCF839598CF31E0332309F45CC019
:1020160030E021E00091D90E2017B8F7422F50E0AA
:102026000BE010E00E94A726F801E357F54F668102
:102036007781422F50E00BE010E00E94A726F801BE
:10204600E857F54F0081118160177107D8F5BE0179
:10205600E2E8FAE0422F50E00BE010E00E94A726EB
:10206600E00FF11F8B014BE050E00E945A2762E817
:102076007AE0422F50E00BE010E00E94A726600FA6
:10208600711F422F50E00BE010E00E94A726EDE8FA
:10209600FAE0E00FF11F8B014BE050E00E945A2757
:1020A600422F50E00BE010E00E94A7266DE87AE090
:1020B600600F711FFE018B014BE050E00E945A2712
:1020C60031E0A3CF2395A6CF00918F0A10E0F80147
:1020D600E652F14F0081005D009300090091900ADD
:1020E60010E0F801E652F14F0081005D009301090E
:1020F6000BE20093020900918D0A043061F0009111
:102106008D0A053041F000918D0A083021F00091CA
:102116008D0A0A3019F40DE2009302090091910A22
:1021260010E0F801E652F14F0081005D00930309CB
:102136000091920A10E0F801E652F14F0081005D2D
:10214600009304090091950A1091960A20E030E068
:10215600E9E2FAE0008311832283338301E00093EE
:102166000A0A00E000938A0A07D001E000930A0AEF
:102176002B96E8E00C948A270E947827EF97EF9732
:10218600249706E0802E04E6702E80E006EEFE011F
:102196007E9690E0E80FF91F008383950DE0FE011F
:1021A6007E9690E0E80FF91F00838395682E00E085
:1021B600FE017E9690E0E80FF91F008383950AEAF8
:1021C600FE017E9690E0E80FF91F0083839505E5F2
:1021D600FE017E9690E0E80FF91F0083839500913B
:1021E6003E0AFE017E9690E0E80FF91F0083839574
:1021F600082F0A5FA02FE9E2FAE00081118122810F
:102206003381280190E0963088F5933081F44EE2D0
:102216008E01025E1F4FEA2FF0E0292F30E0E21B0D
:10222600F30B31970E0F1F1FF80140831CC04AE0C5
:1022360050E082010E94B526B42F4AE050E08201A8
:102246000E94B52628014B2F405D8E01025E1F4F6E
:10225600EA2FF0E0292F30E0E21BF30B31970E0F47
:102266001F1FF801408383959395CDCF00918F0A68
:1022760010E0F801E652F14F0081FE017E9690E0F3
:10228600E80FF91F008383950091900A10E0F8018A
:10229600E652F14F0081FE017E9690E0E80FF91FAD
:1022A6000083839500918D0AFE017E9690E0E80FEB
:1022B600F91F008383950091910A10E0F801E65218
:1022C600F14F0081FE017E9690E0E80FF91F008332
:1022D60083950091920A10E0F801E652F14F0081D1
:1022E600FE017E9690E0E80FF91F0083839500E0DB
:1022F600023070F410E0F801E357F54F1681FE0145
:102306007E9690E0E80FF91F108383950395F0CF32
:1023160020E02830F8F4022F10E0000F111F40E0F3
:1023260050E0400F511F0E947E260883198300E06B
:10233600023070F4FE0110E0E00FF11F1081FE0183
:102346007E9690E0E80FF91F108383950395F0CFF2
:102356002395DFCF20E0223040F540E0483018F5E5
:1023660060E06430F0F450E008E010E00E94A72638
:10237600E0E4FAE0E00FF11F022F10E0000F111F5A
:10238600000F111FE00FF11F70E0E60FF71F00812D
:10239600FE017E9690E0E80FF91F00838395639512
:1023A600E0CF4395DBCF2395D6CF282F2395FE018B
:1023B6007E96062D10E0E00FF11F2083282F30E0D7
:1023C600215030408E01025E1F4F0E944003FE01E5
:1023D6007E9690E0E80FF91F00838395843671F4AA
:1023E600A0E0A81750F4FE017E96B0E0EA0FFB1FAE
:1023F60000810E94E425A395F4CF84C0BE01665FE8
:102406007F4FEAE3F2E530E08B0144E150E00E94C1
:10241600652794E1A0E0A91750F4FE013A96B0E0D2
:10242600EA0FFB1F00810E94E425A395F4CF8E01DD
:102436000E5F1F4FD80140E1082F0E949926FD012B
:102446000083FD0100810A3028F0FD010081095C4E
:10245600008304C0FD010081005D0083119640E108
:10246600082F0E949926FD014083FD0100810A3054
:1024760028F0FD010081095C008304C0FD01008194
:10248600005D0083119601E2FD01008311960DE3C4
:10249600FD010083119606E0FD010083FD01008128
:1024A6000A3028F0FD010081095C008304C0FD01AB
:1024B6000081005D0083119604E0FD010083FD01AB
:1024C60000810A3028F0FD010081095C008304C008
:1024D600FD010081005D008311960DE0FD01008382
:1024E60011960AE0FD01008398E04424491650F451
:1024F600FE0132965524E40DF51D00810E94E42567
:102506004394F4CFEF96EF962496E9E00C9489274E
:10251600E9E2FAE000811181228133810E94A7035A
:1025260008EA11E600938B0A10938C0A01E00093E7
:102536008A0A089500918B0A10918C0A012B49F0A2
:10254600EBE8FAE00081118101501040008311830D
:10255600089500E010E00E94A70302E000938A0AB3
:1025660008959A938A9391E080E0883070F4082F5A
:1025760010E0000F111FF801E35DF54F0081118196
:102586000E943B2590238395F0CF092F899199913D
:102596000895159A1D980895159A1D9A08950CE0A8
:1025A60010E00E94992798018901232B49F050E0F9
:1025B60061E274E04CE330E026E60E94E02302C0CC
:1025C60000E010E000932D0A10932E0A0CE010E0B4
:1025D6000E94992798018901232B49F051E061E275
:1025E60074E04CE331E026E60E94E02302C000E0FE
:1025F60010E000932F0A1093300A0CE010E00E94BE
:10260600992798018901232B49F052E061E274E091
:102616004CE332E026E60E94E02302C000E010E030
:102626000093310A1093320A0CE010E00E949927B9
:1026360098018901232B49F053E061E274E04CE3F1
:1026460033E026E60E94E02302C000E010E000939B
:10265600330A1093340A0CE010E00E94992798017F
:102666008901232B49F054E061E274E04CE334E045
:1026760026E60E94E02302C000E010E00093350A3F
:102686001093360A0CE010E00E9499279801890100
:10269600232B49F055E061E274E04CE335E026E691
:1026A6000E94E02302C000E010E00093370A109376
:1026B600380A0CE010E00E94992798018901232B23
:1026C60049F056E061E274E04CE336E026E60E940B
:1026D600E02302C000E010E00093390A10933A0AA2
:1026E6000CE010E00E94992798018901232B49F0FC
:1026F60057E061E274E04CE337E026E60E94E0230F
:1027060002C000E010E000933B0A10933C0A00E090
:1027160000938A0A0E94580300E010E00E946B03AF
:1027260008958A930E94BF0380E0883068F4082FDA
:1027360010E0000F111FF801E35DF54F00811181D4
:102746000E94DC248395F1CF8991089505E310E07A
:102756000E9499279801012B39F089010CD000932A
:10276600E30E1093E40E089500E010E00093E30EEC
:102776001093E40E0895BA93AA93D8010DE010E0E1
:102786000E94992798018901232B41F063E050E0CC
:1027960040E030E027E60E94CA2202C000E010E0D6
:1027A6009B960D931C939C970DE010E00E94992731
:1027B6000801012B49F062E050E040E031E027E6F5
:1027C60080010E94CA2202C000E010E09D960D938F
:1027D6001C939E970DE010E00E9499270801012B9B
:1027E60049F061E050E040E032E027E680010E94D7
:1027F600CA2202C000E010E09F960D931C93D0976A
:102806000DE010E00E9499270801012B49F060E0D5
:1028160050E040E033E027E680010E94CA2202C071
:1028260000E010E0D1960D931C93D29700E00C9334
:1028360000E011960C93119700E093960C939397F2
:1028460092960C9392978D01A991B99108950E9441
:102856007D27D8019B960D911C919C970E94D123B0
:10286600802F9D960D911C919E970E94D123902FAB
:102876009F960D911C91D0970E94D123892B802B76
:10288600D1960D911C91D2970E94D123802BD4967C
:102896008C93D497D4960C91D497D3961C91D397B6
:1028A600011791F00C91043118F40C9103950C93D7
:1028B6000C91043178F0D4960C91D497D3960C935E
:1028C600D39700E00C9306C00C91013018F00C91E0
:1028D6000A950C93E4E00C948E279A938A93C80188
:1028E6008C01B5DF8C0103D0899199910895BA9333
:1028F600AA93D801FD0103A910E0F801E454FF4FA3
:102906000491FD0102A7FD0101810023B1F1FD0142
:1029160003A90F3031F1FD0104A115A10C3D25E0FD
:10292600120738F4FD0104A115A10F5F1F4F04A380
:1029360015A3FD0104A115A10C3D25E0120780F1A8
:10294600FD0106A1043628F4FD0106A1039506A3A0
:1029560027C000E0FD0106A3FD0122A58D0127D0B9
:102966001FC000E010E0FD0104A315A300E0FD0177
:1029760006A300E0FD01018313C0FD0103A90F308A
:1029860079F001E0FD010183FD0122A58D010FD043
:1029960000E010E0FD0104A315A300E0FD0106A37D
:1029A600A991B9910895A8012F71022F08950E9447
:1029B6007D27D801922F0FB7FD0107A3F894FD01DB
:1029C60023A123958D01EFDF802FFD0102A1801742
:1029D60041F0082F10E0FD01E00FF11F9283FD0189
:1029E60083A3FD0107A10FBFE4E00C948E270E948C
:1029F6007B272801D90180E00FB7F20100A7F894E0
:102A0600F20103A1F20112A1011781F081E0F201A6
:102A160022A123958201C7DFF20102A3F20102A1DE
:102A260010E0F201E00FF11F02810C93F20100A504
:102A36000FBF082FE6E00C948C27F8011FB711A7EB
:102A4600F89413A122A1121738F410E222A1121B46
:102A560023A1120F012F04C013A122A1121B012FC3
:102A660011A51FBF08950091E30E1091E40EE5DF56
:102A760008959A938A93C8019C010091E30E1091E0
:102A8600E40EB5DF8991999108950091E30E1091B6
:102A9600E40E23DF08959A938A93C8018C010FD020
:102AA6008C011FD08C013BD08C0117D24CEC50E02E
:102AB60020E08C01EFD18C018991999108952FE046
:102AC6002ABB2FE02BBBD49ADC9AD59ADD9A4FEF1E
:102AD60059E668E1415050406040E1F700C000000F
:102AE600089520E0F80123A7F80122A7F80100A71E
:102AF60011A720E0F80125A720E030E0F80120A387
:102B060031A320E030E0F80122A333A320E0F8014E
:102B160026A720E030E0F80126A337A308959A936C
:102B26008A93C8010FEF13EF21E0015010402040B7
:102B3600E1F700C0000028E28C01CDD00FE31FE1D1
:102B460001501040E9F700C0000028E28C01C3D014
:102B56000FE31FE101501040E9F700C000002CE030
:102B66008C01B9D021E08C01B6D00FE31FE10150F2
:102B76001040E9F700C0000026E08C01ACD022E04E
:102B86008C01A9D00FE31FE101501040E9F700C006
:102B9600000020E88C019FD08991999108950E94A8
:102BA6007D27D801FD0106A117A10F5F1F4F06A3C0
:102BB60017A3FD0106A117A1003024E0120728F093
:102BC60000E010E0FD0106A317A3FD0100A511A575
:102BD6000F5F1F4F00A711A7FD0103A5039503A7CC
:102BE600FD0103A5003110F100E0FD0103A7FD0181
:102BF60002A5039502A7FD0102A5023051F400E0EB
:102C0600FD0102A7FD01A0A7B1A720E88D0163D0B1
:102C160009C08D01005F1F4FFD0100A711A720EC21
:102C26008D0159D008EC00000A95E9F7FD0102A5CF
:102C36000023C9F4FD0120A131A1FD0143A501E056
:102C460010E00E94AF2620233123232B49F0FD01FB
:102C560006A117A1013022E0120710F001E001C021
:102C660000E0802F18C0FD0122A133A1FD0143A57C
:102C760001E010E00E94AF2620233123232B49F0E8
:102C8600FD0106A117A1013022E0120710F001E0B4
:102C960001C000E0802FFD0100A511A5F80100810B
:102CA600FD0104A7FD0104A5013848F0FD0104A5B6
:102CB60010E0F801EC5AFF4F0491FD0104A78823A8
:102CC60019F000E2FD0104A7FD0124A58D011FD026
:102CD600E4E00C948E270E947E27C801A22F0FB72E
:102CE6000093E50EF89408EC00000A95E9F7DD9BE1
:102CF60005C0DD9808EC00000A95E9F72A2F8C013B
:102D060022D00091E50E0FBFE3E00C948F270E94BE
:102D16007E27C801A22F0FB70093E60EF89408ECA1
:102D260000000A95E9F7DD9905C0DD9A08EC000078
:102D36000A95E9F72A2F8C0106D00091E60E0FBFFF
:102D4600E3E00C948F274BB3407F322F32953F70D0
:102D5600432B4BBBDC9A000000000000DC9800000F
:102D6600000000004BB3407F322F3F70432B4BBB1C
:102D7600DC9A000000000000DC9808950E947C2781
:102D8600C8010FB7402EF89420E48C01A4DF0FE9A8
:102D96001FE001501040E9F700C00000A0E0A0319C
:102DA60060F4B0E0FD01EC5AFE4F24918C01AFDFD8
:102DB60000E50A95F1F7A395F2CF20E88C018BDFA9
:102DC6000FE91FE001501040E9F700C000004FBEB8
:102DD600E5E00C948D27203208F020E0422F50E0E9
:102DE600F801E40FF51F30830895BA931A2EF801FF
:102DF600622F532F603208F060E070E0DF01A60F0B
:102E0600B71F5C93603130F48F01005E1F4F98014D
:102E1600062E07C08F010E5D1F4F9801062F005129
:102E2600002E06A5013080F0402D01E010E00E9442
:102E3600AF26D9012D903C90202A312A3C922E9221
:102E460006A50A9506A70EC0402D01E010E00E94D7
:102E5600AF2600951095D9012D903C902022312265
:102E66003C922E92A12DB9910895FA013081632FDB
:102E7600662379F0203208F020E030E0F801E20F16
:102E8600F31F608323954F5F5F4FFA013081632FF5
:102E9600EFCF0895FA013491632F662379F020323B
:102EA60008F020E030E0F801E20FF31F608323957D
:102EB6004F5F5F4FFA013491632FEFCF089520E003
:102EC60030E0F80120A331A320E030E0F80122A38E
:102ED60033A320E0F80126A708959A938A93C801A0
:102EE60000E0003240F420E210E0FC01E00FF11FA8
:102EF60020830395F6CF8C01E2DF8991999108959D
:102F06000E947927D801422E532E942F042D050DA9
:102F16000A95802F66246514E8F44AE0092F0E947A
:102F26009926742E88230AF48FE180320CF080E013
:102F3600272D205D082F102F110F110BFD01E00F1B
:102F4600F11F20838A954AE0092F0E949926902F27
:102F56006394E1CFE8E00C948A270E947827280141
:102F6600B22F632ECA010B2F060D0A95A02F7724C8
:102F76007614F8F44AE050E08C010E94B526842EBF
:102F8600AA230AF4AFE1A0320CF0A0E0282D205DC0
:102F96000A2F102F110F110BF201E00FF11F2083E2
:102FA600AA954AE050E08C010E94B526C8017394A8
:102FB600DFCFE9E00C9489270E947927D801422EB9
:102FC600532E942F042D050D0A95802F7724751402
:102FD60068F54AE0092F0E949926642E88230AF490
:102FE6008FE180320CF080E0772019F001E0601666
:102FF60060F0262D205D082F102F110F110BFD01FB
:10300600E00FF11F20838A950AC020E2082F102FB7
:10301600110F110BFD01E00FF11F20838A954AE085
:10302600092F0E949926902F7394D1CFE8E00C9433
:103036008A270E947827D801522E832ECA01052D91
:10304600080D0A95402E6624681488F54AE050E07B
:103056008C010E94B526742E442012F40FE1402EF6
:1030660000E240160CF04424662019F0082F092BC4
:1030760061F0272D205D042D102F110F110BFD017E
:10308600E00FF11F20834A940AC020E2042D102F7E
:10309600110F110BFD01E00FF11F20834A944AE046
:1030A60050E08C010E94B526C8016394CDCFE9E0BB
:1030B6000C9489270E946E0201E010E020E030E0C7
:1030C600E0E4FAE0008311832283338301E019E10F
:1030D60020E030E0E0E4FAE00483158326833783BA
:1030E6000EE813E120E030E0E0E4FAE00087118723
:1030F600228733870CE81CE220E030E0E0E4FAE0C7
:10310600048715872687378709E117E220E030E034
:10311600E0E4FAE0008B118B228B338B07E110E49D
:1031260020E030E0E0E4FAE0048B158B268B378B49
:1031360004EA1AE320E030E0E0E4FAE0008F118FC1
:10314600228F338F05EA13E520E030E0E0E4FAE071
:10315600048F158F268F378F0FE21EE420E030E0B4
:10316600E0E4FAE000A311A322A333A300E317E6E9
:1031760020E030E0E0E4FAE004A315A326A337A399
:1031860002ED10E620E030E0E0E4FAE000A711A747
:1031960022A733A701EC19E720E030E0E0E4FAE0EB
:1031A60004A715A726A737A702EC16EB20E030E008
:1031B600E0E4FAE000AB11AB22AB33AB01EC1FEC61
:1031C60020E030E0E0E4FAE004AB15AB26AB37AB29
:1031D60009EB10EC20E030E0E0E4FAE000AF11AFDC
:1031E60022AF33AF0AEB19ED20E030E0ECE7FAE06E
:1031F60000831183228333830E940D0F0FEF13ED9B
:1032060020E3015010402040E1F700C00000789410
:103216000FEF13ED20E3015010402040E1F700C00E
:10322600000000911D0A10911E0A0E94C1160E94FC
:1032360058030E9428190E9406260E940E260E9404
:10324600EC030E942F22F9CF0895219701E0009305
:10325600E70E8E010E940E0300E010E020E030E051
:10326600E8E1FAE00083118322833383E8E1FAE0A0
:103276000081118122813381EAEEFEE00083118311
:10328600228333838E010E94130300911D0A10913D
:103296001E0A0E9470174FE152E020E000911D0ABD
:1032A60010911E0A0E944D174AE252E020E1009159
:1032B6001D0A10911E0A0E944D17219608958A93A1
:1032C60080E0883008F041C0082F10E0000F111F81
:1032D600F801E35DF54F008111810E943B25002333
:1032E60051F030E2282F285E00911D0A10911E0A27
:1032F6000E94F81610C001E0E0911D0AF0911E0A26
:1033060006A7382F3F5C282F285E00911D0A1091D2
:103316001E0A0E94F816082F10E0000F111FF80170
:10332600E35DF54F008111810E943B25002311F4D6
:1033360031E001C030E0282F285F00911D0A10916E
:103346001E0A0E94EE168395BCCF0E94120400232B
:1033560069F00E941204013049F00E941204023002
:1033660029F00E941204033009F002D089910895D1
:1033760021978E010E940E0300E010E020E030E06D
:10338600E8E1FAE00083118322833383E8E1FAE07F
:103396000081118122813381EAEEFEE000831183F0
:1033A600228333838E010E94130300911D0A10911C
:1033B6001E0A0E94701702E00093E70E40E059E0F3
:1033C60020E000911D0A10911E0A0E94381701E0A4
:1033D60000931C0A02D0219608950E947E2790E051
:1033E60080E000911C0A002311F091E081E0009139
:1033F6000A0A002329F000E000930A0A91E081E01E
:103406000E94CB03002319F00E94BF0381E0992399
:1034160009F481C00091260A1091270A012BB9F4FC
:1034260000911C0A002399F44EE352E020E000913B
:103436001D0A10911E0A0E944D1747E452E020E132
:1034460000911D0A10911E0A0E944D173BC040E0D4
:1034560059E020E000911D0A10911E0A0E943817BB
:1034660045E352E020E100911D0A10911E0A0E94D8
:103476004D1748EE53E00091260A1091270A0E9444
:10348600B526A80132E022E100911D0A10911E0A1C
:103496000E941C183EE224E100911D0A10911E0AAA
:1034A6000E94EE1648EE53E00091260A1091270A74
:1034B6000E94B52633E025E100911D0A10911E0AEF
:1034C6000E94B017A0E0A83030F52091280A4A2FB4
:1034D60001E010E00E94AF262023222389F001E0BC
:1034E600E0911D0AF0911E0A06A73A2F3F5C2A2F8B
:1034F600285E00911D0A10911E0A0E94F81609C046
:1035060030E22A2F285E00911D0A10911E0A0E94A1
:10351600F816A395D8CF8823E9F0A0E0A830D0F418
:103526000A2F10E0000F111FF801E35DF54F00812F
:1035360011810E943B25002311F431E001C030E0E7
:103546002A2F285F00911D0A10911E0A0E94EE166E
:10355600A395E4CF0E941204053091F440E059E0AF
:1035660020E000911D0A10911E0A0E94381740E5BE
:1035760052E020E100911D0A10911E0A0E944D178B
:1035860000E000931C0AE3E00C948F2721978E013C
:103596000E940E0300E315E720E030E0E8E1FAE0E0
:1035A6000083118322833383E8E1FAE000811181ED
:1035B60022813381EAEEFEE0008311832283338386
:1035C6008E010E9413030091E70E0093E80E03E0BC
:1035D6000093E70E00E00093F70E00E0053040F49C
:1035E60020E010E0F801EE50F14F20830395F6CF6E
:1035F60000911D0A10911E0A0E94701741E652E0C2
:1036060020E000911D0A10911E0A0E944D1702D05B
:10361600219608958A9380E080E00091F70E801746
:1036260088F400E0E0911D0AF0911E0A06A73AE22E
:10363600282F205F00911D0A10911E0A0E94F8167D
:103646008395EBCF0091F70E0530B8F401E0E091D9
:103656001D0AF0911E0A06A70091F70E10E0F80168
:10366600EE50F14F3081305D2091F70E205F0091D2
:103676001D0A10911E0A0E94F8168991089500915C
:10368600F70E10E0F801EE50F14F0081002349F4E7
:1036960009E02091F70E30E0F901EE50F14F00837A
:1036A60009C00091F70E10E0F801EE50F14F0081CD
:1036B6000A950083AFDF08950091F70E10E0F80138
:1036C600EE50F14F0081093048F000E02091F70EEE
:1036D60030E0F901EE50F14F008309C00091F70E7A
:1036E60010E0F801EE50F14F00810395008392DF60
:1036F60008959A938A930091F70E03950093F70E17
:103706000091F70E053080F40091F70E10E0F801F5
:10371600EF50F14F20810091F70E10E0F801EE50C6
:10372600F14F208377DF2AC081E091E020E0253049
:10373600F0F430E040E150E0420F531F0E947B2638
:1037460030E0F901EE50F14F1081011709F080E0E9
:1037560030E0F901E65EFD4F049130E0F901EE50EC
:10376600F14F1081011709F090E02395E0CF082F63
:10377600092B002311F078D001C019D089919991B5
:1037860008950091F70E013008F001D00895409198
:10379600E80E50E00EE010E00E94A726F801E0597E
:1037A600FE4F059114913197F801099508952197D7
:1037B60004E00093E70E00911D0A10911E0A0E9474
:1037C600701741E752E020E000911D0A10911E0A91
:1037D6000E944D178E010E940E0300E010E020E0CB
:1037E60030E0E8E1FAE00083118322833383E8E1E5
:1037F600FAE00081118122813381EAEEFEE0008346
:1038060011832283338300E315E70093F80E1093A8
:10381600F90E8E010E941303219608959A938A93B6
:1038260021978E010E940E030091F80E1091F90E59
:10383600C8018E010E941303823000E0900778F0E1
:1038460048EE53E08C010E94B526A80132E020E143
:1038560000911D0A10911E0A0E941C1801C097DFD4
:103866002196899199910895219705E00093E70E95
:1038760000911D0A10911E0A0E9470178E010E9467
:103886000E0300E21FEB22E030E0E8E1FAE00083FD
:10389600118322833383E8E1FAE0008111812281DA
:1038A6003381EAEEFEE000831183228333838E01A7
:1038B6000E94130341E852E020E000911D0A109196
:1038C6001E0A0E944D1700E00093FA0E55D021966D
:1038D60008958A9322978E010F5F1F4F0E940E0351
:1038E6000091250A802F8E010F5F1F4F0E94130340
:1038F6008823F9F18E010E940E0300E00093250A49
:103906008E010E9413034091240A33E026E00091C1
:103916001D0A10911E0A0E94DF1734E629E0009165
:103926001D0A10911E0A0E94EE164091230A32E0EB
:103936002AE000911D0A10911E0A0E94831738E69C
:103946002CE000911D0A10911E0A0E94EE1640916D
:10395600220A32E02DE000911D0A10911E0A0E94F3
:1039660083173DE62FE000911D0A10911E0A0E9462
:10397600EE162296899108954091FA0E50E001E1E3
:1039860010E00E94A72647E852E0400F511F20E1B1
:1039960000911D0A10911E0A0E944D170895F7DE28
:1039A60008950091FA0E013028F00091FA0E0A955A
:1039B6000093FA0EE1DF08950091FA0E0A3028F41A
:1039C6000091FA0E03950093FA0ED6DF0895009142
:1039D600FA0E083011F413D008950091FA0E08304B
:1039E60010F427D108950091FA0E093011F406D388
:1039F60008950091FA0E0A3009F44DD208952197E0
:103A060006E00093E70E8E010E940E0300E61AEE12
:103A160020E030E0E8E1FAE000831183228333837B
:103A2600E8E1FAE00081118122813381EAEEFEE0CD
:103A360000831183228333838E010E941303009136
:103A46001D0A10911E0A0E94701742E453E020E0FE
:103A560000911D0A10911E0A0E944D1700E00530C4
:103A660040F420E010E0F801EE50F14F208303957A
:103A7600F6CF00E00093F70E04D021960895F4DE09
:103A860008959A938A9380E00091F70E8017B0F418
:103A960000E0E0911D0AF0911E0A06A790E0FC01E5
:103AA600EE50F14F3081305D282F205F00911D0AC6
:103AB60010911E0A0E94F8168395E6CF0091F70E24
:103AC6000530B8F401E0E0911D0AF0911E0A06A740
:103AD6000091F70E10E0F801EE50F14F3081305DA5
:103AE6002091F70E205F00911D0A10911E0A0E9478
:103AF600F8168991999108950091F70E10E0F80152
:103B0600EE50F14F0081002349F409E02091F70EB1
:103B160030E0F901EE50F14F008309C00091F70E35
:103B260010E0F801EE50F14F00810A950083A9DFFD
:103B360008950091F70E10E0F801EE50F14F008164
:103B4600093048F000E02091F70E30E0F901EE5020
:103B5600F14F008309C00091F70E10E0F801EE5016
:103B6600F14F0081039500838CDF08950091F70ED5
:103B76000430A8F40091F70E03950093F70E009118
:103B8600F70E10E0F801EF50F14F20810091F70E8B
:103B960010E0F801EE50F14F208373DF089501D055
:103BA6000895219707E00093E70E8E010E940E0309
:103BB60000E61AEE20E030E0E8E1FAE00083118347
:103BC60022833383E8E1FAE0008111812281338187
:103BD600EAEEFEE000831183228333838E010E9486
:103BE600130300911D0A10911E0A0E94701740E5EA
:103BF60053E020E100911D0A10911E0A0E944D1704
:103C06002196089531DE08952FDE089520E02530AF
:103C160070F430E0F901EE50F14F008130E040E100
:103C260050E0420F531F0E948C262395F0CFAFDD44
:103C36000895219708E00093E70E0091FA0E10E030
:103C4600000F111F40E050E0400F511F0E947E26DA
:103C56000093FD0E1093FE0E04E00093FF0E0091FC
:103C66001D0A10911E0A0E9470174CE553E020E0D1
:103C760000911D0A10911E0A0E944D173091FA0EEE
:103C86003F5C2DE000911D0A10911E0A0E94F81655
:103C96001ED08E010E940E0300EC14ED21E030E0F0
:103CA600E8E1FAE00083118322833383E8E1FAE056
:103CB6000081118122813381EAEEFEE000831183C7
:103CC600228333838E010E941303219608950E9456
:103CD6007C270091FD0E1091FE0EC801A0E0A530D4
:103CE60060F504E00A1B402E4AE050E08C010E9479
:103CF600B526B42F0091FF0E0A1739F401E0E091C2
:103D06001D0AF0911E0A06A706C000E0E0911D0AF2
:103D1600F0911E0A06A73B2F305D242D205F0091EF
:103D26001D0A10911E0A0E94F8164AE050E08C0106
:103D36000E94B526C801A395D2CFE5E00C948D2745
:103D460093DD08950E947D27A1E0B0E020E0009178
:103D5600FF0E201740F40AE010E0AD010E94A726EE
:103D6600D8012395F4CFAD010091FD0E1091FE0E02
:103D76000E94B5264AE050E00E94B526842F813085
:103D860040F0EDEFFEE0008111810A1B1B0B008362
:103D960011839DDFE4E00C948E270E947D27A1E02D
:103DA600B0E020E00091FF0E201740F40AE010E09A
:103DB600AD010E94A726D8012395F4CFAD0100914D
:103DC600FD0E1091FE0E0E94B5264AE050E00E94BC
:103DD600B526842F893040F4EDEFFEE00081118195
:103DE6000A0F1B1F0083118372DFE4E00C948E27F9
:103DF6000091FF0E013038F00091FF0E0A950093F6
:103E0600FF0E65DF089501D00895219709E000931C
:103E1600E70E00911D0A10911E0A0E9470174AE6CD
:103E260053E020E100911D0A10911E0A0E944D17D1
:103E36008E010E940E0300E315E720E030E0E8E182
:103E4600FAE00083118322833383E8E1FAE00081FC
:103E5600118122813381EAEEFEE000831183228301
:103E660033838E010E94130321960895FDDC089585
:103E7600FBDC08950091FD0E1091FE0E2091FA0EC6
:103E860030E0220F331F40E050E0420F531F0E94E4
:103E96009026EADC089521970BE00093E70E08EEE2
:103EA60013E00093FB0E1093FC0E00911D0A109177
:103EB6001E0A0E94701746E753E020E000911D0A93
:103EC60010911E0A0E944D171ED08E010E940E03ED
:103ED60000EC14ED21E030E0E8E1FAE00083118324
:103EE60022833383E8E1FAE0008111812281338164
:103EF600EAEEFEE000831183228333838E010E9463
:103F06001303219608959A938A9344E853E020E197
:103F160000911D0A10911E0A0E944D174091FB0E3A
:103F26005091FC0E35E020E100911D0A10911E0A09
:103F36000E941C180091FB0E1091FC0E0056104FAB
:103F4600C80148EE53E08C010E94B526A80132E074
:103F560028E100911D0A10911E0A0E941C1848EEC5
:103F660053E08C010E94B52633E02BE100911D0A37
:103F760010911E0A0E94B0170091FB0E1091FC0EC4
:103F86000E94A7038991999108959A938A9348EE7E
:103F960053E00091FB0E1091FC0E0E94B526C8015D
:103FA600082F092B09F0019708EE13E0AC010E94D7
:103FB600A7260093FB0E1093FC0EA5DF899199911D
:103FC60008959A938A9348EE53E00091FB0E109160
:103FD600FC0E0E94B526C801803100E0900708F467
:103FE600019608EE13E0AC010E94A7260093FB0E93
:103FF6001093FC0E88DF89919991089521970AE024
:104006000093E70E8E010E940E0300E010E020E010
:1040160030E0E8E1FAE00083118322833383E8E1AC
:10402600FAE00081118122813381EAEEFEE000830D
:104036001183228333838E010E94130300911D0A8C
:1040460010911E0A0E94701701E000931C0A02D00C
:10405600219608950E947127279700E00A8300E0C1
:10406600098300911C0A002321F001E00A8301E084
:10407600098300910A0A002339F000E000930A0A36
:1040860001E00A8301E009830E94CB03002321F0AB
:1040960001E009830E94BF030A81002379F148EEFB
:1040A60053E00091260A1091270A0E94B526A8011E
:1040B60031E020E000911D0A10911E0A0E941C1892
:1040C6003EE221E000911D0A10911E0A0E94EE16A2
:1040D60048EE53E00091260A1091270A0E94B52661
:1040E6008A014AE050E00E94B526A80132E022E0AB
:1040F60000911D0A10911E0A0E94B0170981002323
:1041060009F47BC101E008830881602E06E0601691
:1041160008F0CCC0462D50E008E010E00E94A7262B
:10412600F801E05CF54FC480D580E680F780462D27
:1041360050E008E010E00E94A726F801E45CF54F85
:104146000081118122813381C01AD10AE20AF30A61
:10415600460157010881162D101B03E0109F00E150
:10416600000E402C01E0801600E0900600E0A0065C
:1041760000E0B006DCF430E2242D00911D0A109117
:104186001E0A0E94EE163DE2242D239500911D0A7B
:1041960010911E0A0E94EE163DE2242D2E5F00911C
:1041A6001D0A10911E0A0E94EE167EC0062D10E012
:1041B600000F111F40E050E0400F511F0E947E2665
:1041C600B8014EEF5FEF062D10E0000F111F400FF4
:1041D600511F0E947E26601B710B8B0120E030E090
:1041E6000B831C832D833E8348E853E160E070E037
:1041F6000B811C812D813E810E94C92668017901AF
:104206004AE050E060E070E0840195010E94C92612
:10421600A801B901860197010E94E926C801D901C2
:104226008B5F9F4FAF4FBF4F8C019D014AE050E01F
:1042360060E070E00E94E926C801D90130E2242D31
:1042460000911D0A10911E0A0E94EE164AE050E0E7
:1042560060E070E08C019D010E94E92608011901C9
:104266004AE050E060E070E0800191010E94E9269A
:10427600342F305D242D239500911D0A10911E0ABE
:104286000E94EE164AE050E060E070E08C019D016D
:104296000E94E926342F305D242D2E5F00911D0AE1
:1042A60010911E0A0E94EE16639430CF05E0088333
:1042B6000881C02E08E0C01608F09FC04C2D50E0C3
:1042C60008E010E00E94A726F801E05CF54F408068
:1042D6005180628073804C2D50E008E010E00E940F
:1042E600A726F801E85CF54F008111812281338110
:1042F600401A510A620A730A4201530108811C2DB1
:10430600101B03E0109F06E0000ED02C01E0801683
:1043160000E0900600E0A00600E0B006DCF430E223
:104326002D2D00911D0A10911E0A0E94EE163DE2E7
:104336002D2D239500911D0A10911E0A0E94EE163E
:104346003DE22D2D2E5F00911D0A10911E0A0E943E
:10435600EE1651C00C2D10E0000F111F40E050E08A
:10436600400F511F0E947E26B8014EEF5FEF0C2DC5
:1043760010E0000F111F400F511F0E947E26601B88
:10438600710B8B0120E030E00B831C832D833E8371
:1043960048E853E160E070E00B811C812D813E818D
:1043A6000E94C926280139014AE050E060E070E029
:1043B600840195010E94C926A801B90182019301D1
:1043C6000E94E926C801D9018B5F9F4FAF4FBF4FAF
:1043D6008C019D014AE050E060E070E00E94E92611
:1043E600C801D901AC0133E02D2D00911D0A1091B1
:1043F6001E0A0E94DF17C3945DCF2796E0E10C9456
:104406008227EAEEFEE000811181228133810230AB
:1044160040E0140740E0240740E0340770F0EAEE7D
:10442600FEE000811181228133810150104020403D
:1044360030400083118322833383E091F80EF0919C
:10444600F90E329740F0E8EFFEE00081118101504D
:10445600104000831183089523970E94361501307A
:1044660008F440C009EE1EE00E943C158E010E5F66
:104476001F4F0E940E03EAEEFEE0008111812281A9
:104486003381023040E0140740E0240740E034075F
:1044960060F0E8E1FAE00081118122813381EAEEE1
:1044A600FEE000831183228333838E010E5F1F4F4C
:1044B6000E9413034091E70E50E00EE010E00E94C8
:1044C600A726E4E6F1E0E00FF11F0091E90E10E007
:1044D600000F111FE00FF11F059114913197F8019C
:1044E600099553C08E010F5F1F4F0E940E03EAEE1F
:1044F600FEE00081118122813381EEEEFEE0008331
:104506001183228333838E010F5F1F4F0E94130393
:10451600EEEEFEE00081118122813381013040E020
:10452600140740E0240740E0340701F58E010E949D
:104536000E0300E010E020E030E0EAEEFEE000834B
:104546001183228333838E010E9413034091E70E69
:1045560050E00EE010E00E94A726F801E259FE4F57
:10456600059114913197F80109950FC04091E70E16
:1045760050E00EE010E00E94A726F801EC59FE4F2D
:10458600059114913197F8010995239608950E9493
:104596007A27C801622E532E442EB52FA62F6A2FD6
:1045A6005B2F442D352D262D8C0104D08C01E7E0A0
:1045B6000C948B270E947A27D801622E832F542EC3
:1045C600452E962F062DE6E9F0E0FBBFF3E00C94AE
:1045D600152709E3FD0105830AE3FD0104830BE3C7
:1045E600FD0106838CC009E3FD0105830AE3FD0195
:1045F60004830BE3FD01068382C006E3FD01058308
:1046060007E3FD01048308E3FD01068378C006E3A2
:10461600FD01058307E3FD01048308E3FD0106832D
:104626006EC003E3FD01058304E3FD01048305E396
:10463600FD01068364C003E3FD01058304E3FD0178
:10464600048305E3FD0106835AC000E3FD010583EB
:1046560001E3FD01048302E3FD01068350C000E38C
:10466600FD01058301E3FD01048302E3FD010683E9
:1046760046C001E2FD01058302E2FD01048303E277
:10468600FD0106833CC001E2FD01058302E2FD0156
:10469600048303E2FD01068332C000E2FD010583C7
:1046A60001E6FD01048302E6FD01068328C000E25F
:1046B600FD01058301E6FD01048302E6FD01068393
:1046C6001EC003E6FD01058304E6FD01048305E63D
:1046D600FD01068314C003E6FD01058304E6FD0122
:1046E600048305E6FD0106830AC003E3FD01058395
:1046F60004E3FD01048305E3FD01068383E08830BE
:1047060040F4482F01E010E00E94AF26FD01078328
:1047160003C001E0FD010783552051F0FD0117811B
:10472600FD010481E02FF0E00081012B00830AC027
:10473600FD0117811095FD010481E02FF0E0008155
:1047460001230083FD011781FD010681E02FF0E0C2
:104756000081012B008300E010E0FD010187128734
:104766000D931C93119700E0FD010283FD01438226
:104776008D010D5F1F4FFD0103871487983040F4AC
:10478600492F01E010E00E94AF26FD01008703C01B
:1047960001E0FD010087E7E00C948B27F8012581F5
:1047A600E22FF0E02081F80137812323222319F03C
:1047B600F8010085089500E008950E947927D80140
:1047C600722E832F642E2B01952FFD019183FD01FF
:1047D60043825482062D10E020E030E048E853E1A1
:1047E60060E070E00E94C92648EE53E060E070E0A9
:1047F6000E94E926FD01058300E00C93072DE4ECF9
:10480600F0E0FBBFF3E00C94152709E3FD010783F5
:104816000AE3FD0106830BE3FD0100878CC009E373
:10482600FD0107830AE3FD0106830BE3FD01008713
:1048360082C006E3FD01078307E3FD01068308E363
:10484600FD01008778C006E3FD01078307E3FD014C
:10485600068308E3FD0100876EC003E3FD010783BD
:1048660004E3FD01068305E3FD01008764C003E35D
:10487600FD01078304E3FD01068305E3FD010087CF
:104886005AC000E3FD01078301E3FD01068302E34D
:10489600FD01008750C000E3FD01078301E3FD0130
:1048A600068302E3FD01008746C001E2FD0107839E
:1048B60002E2FD01068303E2FD0100873CC001E23E
:1048C600FD01078302E2FD01068303E2FD01008785
:1048D60032C000E2FD01078301E6FD01068302E620
:1048E600FD01008728C000E2FD01078301E6FD0106
:1048F600068302E6FD0100871EC003E6FD0107836D
:1049060004E6FD01068305E6FD01008714C003E603
:10491600FD01078304E6FD01068305E6FD01008728
:104926000AC003E6FD01078304E6FD01068305E6EA
:10493600FD01008784E0883008F080E0482F01E020
:1049460010E00E94AF26FD010187FD01118510953B
:10495600FD010681E02FF0E0008101230083FD01C7
:104966001185FD010085E02FF0E01083FD01078130
:10497600E02FF0E00081FD0111850123002311F0F5
:1049860001E001C000E01C910127FD010287FD0145
:104996000285002329F0FD010581FD01038703C07F
:1049A60000E0FD0103878D0104D08D01E8E00C9441
:1049B6008A27BA93AA93D801FD010781E02FF0E078
:1049C6000081FD01118501231C910127002349F176
:1049D600FD010385FD011581011720F4FD01038505
:1049E60003950387FD010385FD0115810117E8F194
:1049F600FD0102850023C9F501E0FD010287FD01E5
:104A06002381348100E010E02017310771F1FD01A8
:104A16001181FD0102851396ED91FC91149709957C
:104A260024C0FD010385013020F0FD0103850A95B0
:104A36000387FD0103850023C1F4FD0102850023E0
:104A4600A1F000E0FD010287FD012381348100E031
:104A560010E02017310749F0FD011181FD010285A3
:104A66001396ED91FC9114970995A991B991089522
:104A7600F8010285089528E630E08901012F10E04B
:104A860000939000022F09B900E000939500009171
:104A960095000F7E00939500009195000F7D009381
:104AA6009500009195000260009395000091950095
:104AB600046000939500529800919500077F00933B
:104AC600950000E00093890F0093880F0093870FED
:104AD6000093860F0093850F0093840F0093030FB6
:104AE6000093020F00E00AB9579A549A539A569ABD
:104AF6000895FA93EA935A934A933A932A931A9308
:104B06000A934FB75BB70CB1202FE2E0FFE00081BC
:104B1600017003950170302F0091030F301721F4B7
:104B260001E00093870F11C000E00093870F3093D8
:104B3600020F0091020F10E0F801E050F14F2083C0
:104B46000091860F03950093860F5BBF4FBF0991B7
:104B560019912991399149915991E991F9911895AC
:104B6600FA93EA934A933A932A931A930A933FB78E
:104B76004BB71091840F2091850F1217A1F0109159
:104B8600850F13951F77012F0093850F509A10E01C
:104B9600F801EC5FF04F10811CB91091880F1A953F
:104BA6001093880F04C0559810E01093880F4BBFE0
:104BB6003FBF09911991299139914991E991F9914B
:104BC6001895402F1FB7512FF8941091840F139505
:104BD6001F77212F1091850F211729F411E01093CB
:104BE600890F00E00EC030E0F901EC5FF04F408322
:104BF6002093840F559A1091880F13951093880F60
:104C060001E05FBF08953FB7F89418E10FE011BDCA
:104C160001BD3FBF08951FB7F894A8951FBF08951B
:104C260020E030E000E10E941C2601E010E00C9438
:104C36001D2608952297C801888399839E0101E065
:104C46000E941C26F9CF0C941D260E947627480147
:104C5600A22EDA01962F82E024016A2C0BC002E014
:104C6600400E511E611E823099F002E0400E00E0B7
:104C7600501E601E4A165B06690689F0F2016BBE7D
:104C86004791569110E04030504049F3823069F325
:104C9600F2016BBE0791F691E02F0995E6CF8A9552
:104CA600D9F6EBE00C9487270FEF0DBF08E00EBF97
:104CB600C0E0D3E00E949727002311F00E94C82786
:104CC60002EF13E020E046EF53E060E00E94282662
:104CD6000E945D180E9497260C942626E199FECF25
:104CE60008954F5F5F4FFADF4EBB5FBBE09A0895B2
:104CF600FADF0DB30895F7DF0DB3F3DF1DB30895A3
:104D06004F5F5F4F4EBB5FBBF894E29AE19A0FBECE
:104D160008950FB6E3DF0DBBF5CF0FB6DFDF0DBB92
:104D2600F1DFDCDF1DBBECCF0C9426260024E8E087
:104D3600EA9532F0001F001C0416D0F3041AF8CFCF
:104D4600001F402D00950895149F102D059F100DEE
:104D5600049F002D110D08954A951AF0000F111F9A
:104D6600FBCF089500241124EFE0001F111F001C43
:104D7600111C0416150610F0041A150AEA95AAF76E
:104D8600001F111FA0010095109508952224349F3D
:104D9600302D259F300D169F300D079F300D249F17
:104DA600202D310D159F200D311D069F200D311D23
:104DB600149F102D210D321D059F100D211D321D32
:104DC600049F002D110D221D321D0895002411246B
:104DD6001001E0E2EA9592F0001F111F221F331F17
:104DE600001C111C221C331C041615062606370649
:104DF60088F3041A150A260A370AECCF001F111F7A
:104E0600221F331FA001B101009510952095309502
:104E160008957791679157914791179011FA2790C6
:104E260037900895F9DF041B10E003C0F4DF041B7C
:104E3600150B20E030E005C0ECDF041B150B260B3C
:104E4600370BB8F010FC17C047910790E00FF11F21
:104E56000417100540E02407340758F436F4069189
:104E66000024F101E01BF0090994E00FF11F2790DF
:104E76003790F101099411F4D6F7F1CF31960EF07F
:104E8600319650E060E070E047914B3F48F089F37F
:104E96004F3F29F04E3F11F0779167915791479117
:104EA600041B150B260B370B39F318F3E7CFAF931B
:104EB600BF93D80101900D9241505040D9F7BF9150
:104EC600AF910895AF93BF93D8013BBF07900D9262
:104ED60041505040D9F7BF91AF910895FA92EA92A6
:104EE600DA92CA92BA92AA929A928A927A926A921C
:104EF6005A924A92BA93AA939A938A930895FF84F0
:104F0600EE84DD84CC84BB84AA84998488847F80E3
:104F16006E805D804C80BB81AA8199818881F0E09A
:104F2600EC0FFD1FEF01089501E008959A938A930F
:104F3600C80102C00E94B6278C010E94C428202FF7
:104F4600012B69F4EAE8FFE02081318100E020309E
:104F5600300781F3E0918A0FF32F0995EDCF022FE9
:104F66008991999108950C94132620E008D0E9F7C9
:104F760008953BBF27913BB702D0D9F708952D93EB
:104F860001501040202F212B08950EE4402E02E5FB
:104F9600502E00E0602EF201362D6BBE0791169161
:104FA600F201EE5FFF4F3F4F3BBFA791B691F20173
:104FB600362DEC5FFF4F3F4F3BBF479157916691B0
:104FC600242F252B262B21F0FA01362FD2DF01C004
:104FD600CCDF07E0400E00E0501E601EA201662DE9
:104FE6004C3552456040B8F20895ECE8FFE0008188
:104FF6001181012B19F000E010E0089500E013E0A4
:105006000083118320E035E0F80120833183089581
:105016000D01D801012B09F455C01297ED91FC91B1
:105026001197349708F44EC00EE81FE0F80153D0EC
:1050360019F0A217B30728F4FD0122833383F80180
:1050460023C0F90148D019F02A173B07D0F3408155
:1050560051819F01240F351FA217B30798F12A1714
:105066003B0741F42D913C91420F531F40835183DE
:10507600DF010CC030D021F027D02617370710F1FA
:1050860012962D933C931397A283B383FD0123D0ED
:10509600C9F01AD062177307A9F420E0F80120833B
:1050A6002183FD010281F381E02F208131814D9121
:1050B6005C91420F531F5C934E9302811381FD0155
:1050C60002831383D00108954D915C911197BD0120
:1050D600640F751F089522813381422F432B089553
:1050E6009A938A93C80105C02E5F3F4F89010E949B
:1050F6000B28EEE8FFE000811181202F212B61F4BF
:1051060000E91FE001C037D029D0F1F02ED0D8F346
:1051160022C02BD000F52FD021D0D9F7EEE8FFE042
:105126000081F181E02F1ED000E91FE007C0FA01DF
:10513600408151814817590770F41DD0F80140810C
:1051460051814217530799F70E94F8279801012BBE
:1051560059F600E010E089919991089502D0232B29
:105166000895F801208131810895E081F32FFADF57
:10517600281739070895F801008111810E5F1F4F26
:1051860008950E947D27C80102960817190718F08E
:1051960000E010E047C0843000E0900710F484E09F
:1051A60090E08C019DDF202F212B91F3DADFF901AE
:1051B600A081B1811497A817B90730F422813381F1
:1051C600D8012D933C9316C0280F391FD8012D9373
:1051D6003C934281538129D04D935C934081518108
:1051E600481B590BD8012D91BC91A22F4D935C936E
:1051F60080839183D8012D913C91232B59F015D0B2
:105206002D913C91232B31F0D8010D911C910E5F0D
:105216001F4F02C000E010E0AEE8BFE00D931C9304
:1052260032968F01E4E00C948E27D8012D91D90196
:10523600129608954572726F72206D6F64756C6573
:105246002073656E640D0A0075051D0A0000001DB9
:105256000100095C5200464E2B73532000000000EB
:1052660000316253C4F5A697B988DBEA7D4C1F2E40
:105276004372211087B6E5D4FACB98A93E0F5C6D30
:1052860086B7E4D5427320113F0E5D6CFBCA99A820
:10529600C5F4A796013063527C4D1E2FB889DAEB10
:1052A6003D0C5F6EF9C89BAA84B5E6D74071221300
:1052B6007E4F1C2DBA8BD8E9C7F6A59403326150F0
:1052C600BB8AD9E87F4E1D2C02336051C6F7A495E0
:1052D600F8C99AAB3C0D5E6F4170231285B4E7D6D0
:1052E6007A4B1829BE8FDCEDC3F2A19007366554C0
:1052F60039085B6AFDCC9FAE80B1E2D344752617B0
:10530600FCCD9EAF38095A6B4574271681B0E3D29F
:10531600BF8EDDEC7B4A192806376455C2F3A0918F
:105326004776251483B2E1D0FECF9CAD3A0B58697F
:1053360004356657C0F1A293BD8CDFEE79481B2A6F
:10534600C1F0A3920534675678491A2BBC8DDEEF5F
:1053560082B3E0D1467724153B0A5968FFCE9DAC4F
:1053660001FFF8240100030303030303030350466C
:0353760000000133
:0400000300000000F9
:00000001FF
