:020000020000FC
:100000000C9497101895189518951895189518959B
:100010001895189518951895189518951895189578
:10002000189518950C94F60118951895189518952B
:100030001895189518951895189518950C9473029D
:1000400018951895189518950C94DE0F0C941510AA
:100050001895189518951895189518951895189538
:100060001895189518951895189518951895189528
:100070001895189518951895189518951895189518
:10008000189518951895189518951895010201035B
:10009000010201040102010301020100474D206336
:1000A0006F646500D9DA2020202020202020202025
:1000B0002020202020202020202020202020202040
:1000C0002020202020202020202020202020202030
:1000D00020202020A2B52020202020202020202009
:1000E0002020202041A042A1E045A3A4A5A64BA723
:1000F0004D484FA8504354A9AA58E1ABACE2ADAE6D
:1001000062AFB0B161B2B3B4E365B6B7B8B9BABB68
:10011000BCBD6FBE7063BF79E478E5C0C1E6C2C301
:10012000C4C5C6C70609090600000000060F0F0671
:10013000000000001F071F071F071F071F071F07DB
:100140001F0759071E071E071E071E071E071F074A
:10015000FE07C6081E071E071E071E07AA071E0762
:10016000C1093F095C097909C709C6080E0A1E07BB
:100170001E071E071E071E07D7091E077C0A7E0AD8
:10018000890A940AC709340A1E07E60A230B400BA2
:100190005D0BC709A60A1E07A90BAB0BAD0B1E070B
:1001A000C709780B1E07470C490C740C9F0CC70934
:1001B000C00B1E07DD0CDF0CE10C1E07C709AC0CE1
:1001C000330D5B0D5D0D6C0D7B0DC709F20C1E0729
:1001D0001E07B70DB90D1E07C7097D0D1E071E07A7
:1001E0001E071E071E071E071E071E071E071E07E7
:1001F0001E071E071E071E071E071E071E071E07D7
:100200001E071E071E070302040601537475636B65
:1002100020202020200053656E736F7273203A20D7
:1002200000576F726B206D6F646520004C656E3DEA
:10023000202020202020004572726F722020202074
:10024000200053656E736F7273203A20004C656E08
:100250003D3F202020202020202020202000496E0B
:100260007075742070617373776F72643A005061B7
:100270007373776F7264206572726F7221004D65BF
:100280006E753A0044697374616E636520746F2003
:10029000533120200044697374616E636520746F6C
:1002A00020533220200044697374616E63652074AA
:1002B0006F20533320200044697374616E6365209E
:1002C000746F20533420200044697374616E636539
:1002D00020746F20533520200044697374616E636D
:1002E0006520746F205336202000536574206E659E
:1002F000772070617373776F726400536574204B5D
:1003000020617665726167696E67200053657420AD
:1003100070617373776F72643A00536176653F2042
:10032000282D2F2B290044697374616E6365207436
:100330006F205300536176653F20282D2F2B290015
:100340002856312B5632292F4B20204B3D0063611C
:100350006E2E20202D20202B20656E746572005398
:0B0360006176653F20282D2F2B29001F
:10036C004101350FB30E01C70E01DB0E01EF0E017B
:10037C00030F01170F012B0F1AA90E01BD0E01D18E
:10038C000E01E50E01F90E010D0F01210FFB2C02E0
:10039C00B70200E005BD05B5086005BD05B50F7BCE
:1003AC0005BD05B50F7D05BD05B50F7E05BD05B5B4
:1003BC000B7F05BD05B5026005BD05B5016005BD2A
:1003CC0001D0089500E004BD0CE703BD06B70F771C
:1003DC0006BF06B70F7B06BF07B7006807BF0895B7
:1003EC009A938A93FA93EA933A922A921A920A92DD
:1003FC007A936A935A934A933A932A931A930A9349
:10040C008FB79BB707B70F7707BF78940091C905D3
:10041C001091CA050E94E0040E9456040E94C10D6E
:10042C000E949A02CFDF9BBF8FBF0991199129912E
:10043C003991499159916991799109901990299023
:10044C003990E991F9918991999118950FE210E001
:10045C000E9475119801012B41F089010E945C04E6
:10046C000093C9051093CA05089500E010E00093AD
:10047C00C9051093CA0508950E94CF010E9453022A
:10048C000E94A00F0E949E020E944D0208950E949D
:10049C00B40208950E94B502089503B70B7F03BF01
:1004AC0003B7026003BF03B7016003BF03B70F7B41
:1004BC0003BF03B7086003BF03B70F7D03BF03B7C8
:1004CC000F7E03BF03B70F7703BF00E002BF09EF36
:1004DC0001BF07B7026007BF08959A938A93FA93F6
:1004EC00EA933A922A921A920A927A936A935A93BC
:1004FC004A933A932A931A930A938FB79BB70E9405
:10050C009B029BBF8FBF09911991299139914991F8
:10051C005991699179910990199029903990E991A3
:10052C00F99189919991189508950E945002089516
:10053C000895C69AC69AC79A949A959ABE9ABE9AE4
:10054C00BF9A8C9A8D9A0FE31CE901501040E9F781
:10055C0000C000009598089503E00895089508954B
:10056C00089505E310E00E9475119801012B39F0F4
:10057C0089010CD00093D8051093D905089500E09B
:10058C0010E00093D8051093D9050895BA93AA9357
:10059C00D8010DE010E00E94751198018901232B00
:1005AC0041F063E050E040E030E027E60E94870E27
:1005BC0002C000E010E09B960D931C939C970DE0FD
:1005CC0010E00E9475110801012B49F062E050E027
:1005DC0040E031E027E680010E94870E02C000E077
:1005EC0010E09D960D931C939E970DE010E00E94D9
:1005FC0075110801012B49F061E050E040E032E058
:10060C0027E680010E94870E02C000E010E09F9652
:10061C000D931C93D0970DE010E00E94751108010A
:10062C00012B49F060E050E040E033E027E6800128
:10063C000E94870E02C000E010E0D1960D931C932F
:10064C00D29700E00C9300E011960C93119700E008
:10065C0093960C93939792960C9392978D01A991E4
:10066C00B99108950E945E11D8019B960D911C9131
:10067C009C970E948E0F802F9D960D911C919E979A
:10068C000E948E0F902F9F960D911C91D0970E94D7
:10069C008E0F892B802BD1960D911C91D2970E9495
:1006AC008E0F802BD4968C93D497D4960C91D49790
:1006BC00D3961C91D397011791F00C91043118F437
:1006CC000C9103950C930C91043178F0D4960C9109
:1006DC00D497D3960C93D39700E00C9306C00C914F
:1006EC00013018F00C910A950C93E4E00C946A110B
:1006FC009A938A93C8018C01B5DF8C0103D0899140
:10070C0099910895BA93AA93D801FD0103A910E019
:10071C00F801E457FF4F0491FD0102A7FD0101818F
:10072C000023B1F1FD0103A90F3031F1FD0104A14A
:10073C0015A10C3D25E0120738F4FD0104A115A10B
:10074C000F5F1F4F04A315A3FD0104A115A10C3DC0
:10075C0025E0120780F1FD0106A1043628F4FD0105
:10076C0006A1039506A327C000E0FD0106A3FD0129
:10077C0022A58D0127D01FC000E010E0FD0104A3CD
:10078C0015A300E0FD0106A300E0FD01018313C0E9
:10079C00FD0103A90F3079F001E0FD010183FD019A
:1007AC0022A58D010FD000E010E0FD0104A315A3DC
:1007BC0000E0FD0106A3A991B9910895A8012F713C
:1007CC00022F08950E945E11D801922F0FB7FD01E0
:1007DC0007A3F894FD0123A123958D01EFDF802F52
:1007EC00FD0102A1801741F0082F10E0FD01E00F80
:1007FC00F11F9283FD0183A3FD0107A10FBFE4E06C
:10080C000C946A110E945C112801D90180E00FB789
:10081C00F20100A7F894F20103A1F20112A1011751
:10082C0081F081E0F20122A123958201C7DFF20160
:10083C0002A3F20102A110E0F201E00FF11F02810C
:10084C000C93F20100A50FBF082FE6E00C94681181
:10085C00F8011FB711A7F89413A122A1121738F4AD
:10086C0010E222A1121B23A1120F012F04C013A10D
:10087C0022A1121B012F11A51FBF08950091D805AD
:10088C001091D905E5DF08959A938A93C8019C01CC
:10089C000091D8051091D905B5DF899199910895EA
:1008AC000091D8051091D90523DF08959A938A9366
:1008BC00C8018C010FD08C011FD08C013BD08C0156
:1008CC0002D24CE950E020E08C01DAD18C01899104
:1008DC00999108952FE02ABB2FE02BBBD49ADC9A78
:1008EC00D59ADD9A4FEF59E668E14150504060408F
:1008FC00E1F700C00000089520E0F80123A7F801FB
:10090C0022A7F80100A711A720E0F80125A720E0F5
:10091C0030E0F80120A331A320E030E0F80122A35D
:10092C0033A320E0F80126A720E030E0F80126A34D
:10093C0037A308959A938A93C8010FEF13EF21E020
:10094C00015010402040E1F700C0000028E28C016B
:10095C00CDD00FE31FE101501040E9F700C00000BB
:10096C0028E28C01C3D00FE31FE101501040E9F7DE
:10097C0000C000002CE08C01B9D021E08C01B6D075
:10098C000FE31FE101501040E9F700C0000026E022
:10099C008C01ACD022E08C01A9D00FE31FE10150F7
:1009AC001040E9F700C0000020E88C019FD089912D
:1009BC00999108950E945E11D801FD0106A117A11D
:1009CC000F5F1F4F06A317A3FD0106A117A100304F
:1009DC0024E0120728F000E010E0FD0106A317A3A5
:1009EC00FD0100A511A50F5F1F4F00A711A7FD0169
:1009FC0003A5039503A7FD0103A5003110F100E049
:100A0C00FD0103A7FD0102A5039502A7FD0102A5A7
:100A1C00023051F400E0FD0102A7FD01A0A7B1A72F
:100A2C0020E88D0163D009C08D01005F1F4FFD01CF
:100A3C0000A711A720EC8D0159D008EC00000A95F5
:100A4C00E9F7FD0102A50023C9F4FD0120A131A1A4
:100A5C00FD0143A501E010E00E94EF10202331239B
:100A6C00232B49F0FD0106A117A1013022E012074A
:100A7C0010F001E001C000E0802F18C0FD0122A1A0
:100A8C0033A1FD0143A501E010E00E94EF102023EB
:100A9C003123232B49F0FD0106A117A1013022E0DF
:100AAC00120710F001E001C000E0802FFD0100A54D
:100ABC0011A5F8010081FD0104A7FD0104A5013871
:100ACC0048F0FD0104A510E0F801EC5DFF4F049126
:100ADC00FD0104A7882319F000E2FD0104A7FD0124
:100AEC0024A58D011FD0E4E00C946A110E945F11C3
:100AFC00C801A22F0FB70093DA05F89408EC000098
:100B0C000A95E9F7DD9B05C0DD9808EC00000A9515
:100B1C00E9F72A2F8C0122D00091DA050FBFE3E010
:100B2C000C946B110E945F11C801A22F0FB7009398
:100B3C00DB05F89408EC00000A95E9F7DD9905C08F
:100B4C00DD9A08EC00000A95E9F72A2F8C0106D0F3
:100B5C000091DB050FBFE3E00C946B114BB3407FAE
:100B6C00322F32953F70432B4BBBDC9A00000000B8
:100B7C000000DC980000000000004BB3407F322FD7
:100B8C003F70432B4BBBDC9A000000000000DC984C
:100B9C0008950E945D11C8010FB7402EF89420E40F
:100BAC008C01A4DF0FE91FE001501040E9F700C0F1
:100BBC000000A0E0A03160F4B0E0FD01EC5DFE4F60
:100BCC0024918C01AFDF00E50A95F1F7A395F2CFE4
:100BDC0020E88C018BDF0FE91FE001501040E9F792
:100BEC0000C000004FBEE5E00C946911203208F003
:100BFC0020E0422F50E0F801E40FF51F30830895F8
:100C0C00BA931A2EF801622F532F603208F060E06D
:100C1C0070E0DF01A60FB71F5C93603130F48F01D9
:100C2C00005E1F4F9801062E07C08F010E5D1F4FEF
:100C3C009801062F0051002E06A5013080F0402DA2
:100C4C0001E010E00E94EF10D9012D903C90202A79
:100C5C00312A3C922E9206A50A9506A70EC0402D6D
:100C6C0001E010E00E94EF1000951095D9012D9035
:100C7C003C90202231223C922E92A12DB9910895C4
:100C8C00FA013491632F662379F0203208F020E0CA
:100C9C0030E0F801E20FF31F608323954F5F5F4F45
:100CAC00FA013491632FEFCF089520E030E0F80182
:100CBC0020A331A320E030E0F80122A333A320E0ED
:100CCC00F80126A708959A938A93C80100E0003290
:100CDC0040F420E210E0FC01E00FF11F20830395AB
:100CEC00F6CF8C01E2DF8991999108950E945911F8
:100CFC002801B22F632ECA010B2F060D0A95A02FC7
:100D0C0077247614F8F44AE050E08C010E94F51038
:100D1C00842EAA230AF4AFE1A0320CF0A0E0282D17
:100D2C00205D0A2F102F110F110BF201E00FF11F94
:100D3C002083AA954AE050E08C010E94F510C8016E
:100D4C007394DFCFE9E00C9465110E945911D8011E
:100D5C00522E832ECA01052D080D0A95402E77249C
:100D6C00781488F54AE050E08C010E94F510642E4E
:100D7C00442012F40FE1402E00E240160CF0442403
:100D8C00772019F001E0601660F0262D205D042D0F
:100D9C00102F110F110BFD01E00FF11F20834A944E
:100DAC000AC020E2042D102F110F110BFD01E00FD2
:100DBC00F11F20834A944AE050E08C010E94F51008
:100DCC00C8017394CDCFE9E00C9465110E944202E6
:100DDC0042ED54E034E020E00091C9051091CA05C1
:100DEC000E947C0678940FEF13ED20E30150104025
:100DFC002040E1F700C000000091C9051091CA0520
:100E0C000E94CF050E949F020E941F070E9446105D
:100E1C000E944E100E94B6020E94EC0DF9CF2FB723
:100E2C00F8012083F8940895F80120812FBF0895CC
:100E3C000895219701E00093DC058E010E941507AF
:100E4C0000E010E020E030E0E4ECF5E000831183FA
:100E5C0022833383E4ECF5E000811181228133811C
:100E6C00EFEDF5E000831183228333838E010E9422
:100E7C001A070091C9051091CA050E9469064BE03A
:100E8C0052E020E00091C9051091CA050E94460667
:100E9C0046E152E020E10091C9051091CA050E947B
:100EAC004606219608958A9380E0863008F041C06A
:100EBC00082F10E0000F111FF801E453FA4F0081C6
:100ECC0011810E949D0F002351F030E2282F265EE5
:100EDC000091C9051091CA050E94060610C001E0D8
:100EEC00E091C905F091CA0506A7382F3F5C282F61
:100EFC00265E0091C9051091CA050E940606082FAE
:100F0C0010E0000F111FF801E453FA4F008111811A
:100F1C000E949D0F002311F431E001C030E0282F16
:100F2C00265F0091C9051091CA050E94FC058395A6
:100F3C00BCCF0E94B202002329F00E94B202013001
:100F4C0009F002D0899108958A9321978E010E940D
:100F5C00150700E010E020E030E0E4ECF5E0008361
:100F6C00118322833383E4ECF5E00081118122812B
:100F7C003381EFEDF5E000831183228333838E01FF
:100F8C000E941A070091C9051091CA050E946906B2
:100F9C0002E00093DC0541E252E020E00091C9053B
:100FAC001091CA050E94460601E00093C80520D0A6
:100FBC0080E08630D0F4082F10E0000F111FF801EC
:100FCC00E453FA4F008111810E949D0F002311F40C
:100FDC0031E001C030E0282F265F0091C905109147
:100FEC00CA050E94FC058395E4CF2196899108954A
:100FFC008A930091C005002321F40091C8050023B9
:10100C0001F100E00093C00580E08630D0F4082F99
:10101C0010E0000F111FF801E453FA4F0081118109
:10102C000E949D0F002311F431E001C030E0282F05
:10103C00265F0091C9051091CA050E94FC05839595
:10104C00E4CF0091C105002329F40091C8050023C9
:10105C0009F484C000E00093C1050091C205109111
:10106C00C305012BB9F40091C805002399F447E39B
:10107C0052E020E00091C9051091CA050E94460675
:10108C0042E452E020E10091C9051091CA050E948A
:10109C0046063BC041E252E020E00091C9051091A8
:1010AC00CA050E9446064CE252E020E10091C905B7
:1010BC001091CA050E94460648EE53E00091C20505
:1010CC001091C3050E94F510302F305D24E1009182
:1010DC00C9051091CA050E94FC053EE225E100916C
:1010EC00C9051091CA050E94FC0548EE53E0009119
:1010FC00C2051091C3050E94F51033E026E1009162
:10110C00C9051091CA050E947C0680E0863030F536
:10111C002091CB05482F01E010E00E94EF10202316
:10112C00222389F001E0E091C905F091CA0506A7D8
:10113C00382F3F5C282F265E0091C9051091CA05F7
:10114C000E94060609C030E2282F265E0091C905D0
:10115C001091CA050E9406068395D8CF0E94B20250
:10116C00043049F44DE452E020E10091C90510919E
:10117C00CA050E94460600E00093C80589910895AF
:10118C0021978E010E94150700E315E720E030E05F
:10119C00E4ECF5E00083118322833383E4ECF5E087
:1011AC000081118122813381EFEDF5E00083118301
:1011BC00228333838E010E941A070091DC05009371
:1011CC00DD0503E00093DC0500E00093EC0500E096
:1011DC00053040F420E010E0F801E951FA4F20838B
:1011EC000395F6CF0091C9051091CA050E946906B6
:1011FC004EE552E020E00091C9051091CA050E940D
:10120C00460602D0219608958A9380E080E00091F2
:10121C00EC05801788F400E0E091C905F091CA054F
:10122C0006A73AE2282F205F0091C9051091CA0544
:10123C000E9406068395EBCF0091EC050530B8F4BF
:10124C0001E0E091C905F091CA0506A70091EC05F3
:10125C0010E0F801E951FA4F3081305D2091EC0536
:10126C00205F0091C9051091CA050E94060689915C
:10127C0008950091EC0510E0F801E951FA4F008156
:10128C00002349F409E02091EC0530E0F901E95123
:10129C00FA4F008309C00091EC0510E0F801E95108
:1012AC00FA4F00810A950083AFDF08950091EC0599
:1012BC0010E0F801E951FA4F0081093048F000E0E4
:1012CC002091EC0530E0F901E951FA4F008309C097
:1012DC000091EC0510E0F801E951FA4F00810395FB
:1012EC00008392DF08959A938A930091EC050395FD
:1012FC000093EC050091EC05053080F40091EC05B1
:10130C0010E0F801EA51FA4F20810091EC0510E051
:10131C00F801E951FA4F208377DF2AC081E091E090
:10132C0020E02530F0F430E04DE050E0420F531F48
:10133C000E94BB1030E0F901E951FA4F10810117FE
:10134C0009F080E030E0F901EA5FFD4F049130E0F4
:10135C00F901E951FA4F1081011709F090E023953A
:10136C00E0CF082F092B002311F078D001C019D041
:10137C008991999108950091EC05013008F001D004
:10138C0008954091DD0550E00EE010E00E94E7105A
:10139C00F801E05CFE4F059114913197F801099525
:1013AC000895219704E00093DC050091C905109184
:1013BC00CA050E9469064EE652E020E00091C9057C
:1013CC001091CA050E9446068E010E94150700E086
:1013DC0010E020E030E0E4ECF5E0008311832283A0
:1013EC003383E4ECF5E00081118122813381EFED50
:1013FC00F5E0008311832283338300E315E7009328
:10140C00ED051093EE058E010E941A0721960895A2
:10141C009A938A9321978E010E9415070091ED05EE
:10142C001091EE05C8018E010E941A07823000E06F
:10143C00900778F048EE53E08C010E94F510A8015B
:10144C0032E020E10091C9051091CA050E94AB065B
:10145C0001C097DF2196899199910895219705E014
:10146C000093DC050091C9051091CA050E9469061C
:10147C008E010E94150700E21FEB22E030E0E4EC45
:10148C00F5E00083118322833383E4ECF5E00081E3
:10149C00118122813381EFEDF5E0008311832283EA
:1014AC0033838E010E941A074EE752E020E0009130
:1014BC00C9051091CA050E94460600E00093EF058D
:1014CC0002D0219608954091EF0550E001E110E023
:1014DC000E94E71044E852E0400F511F20E10091B8
:1014EC00C9051091CA050E94460608954ADF089561
:1014FC000091EF05013028F00091EF050A9500935B
:10150C00EF05E1DF08950091EF05073028F4009115
:10151C00EF0503950093EF05D6DF08950091EF05D5
:10152C00063011F40DD008950091EF05063010F43B
:10153C0021D108950091EF05073009F44DD208959B
:10154C00219706E00093DC058E010E94150700E64A
:10155C001AEE20E030E0E4ECF5E000831183228306
:10156C003383E4ECF5E00081118122813381EFEDCE
:10157C00F5E000831183228333838E010E941A07C6
:10158C000091C9051091CA050E9469064CE053E010
:10159C0020E00091C9051091CA050E94460600E0A2
:1015AC00053040F420E010E0F801E951FA4F2083B7
:1015BC000395F6CF00E00093EC0504D02196089536
:1015CC004DDF08959A938A9380E00091EC05801783
:1015DC00B0F400E0E091C905F091CA0506A790E0CF
:1015EC00FC01E951FA4F3081305D282F205F0091CA
:1015FC00C9051091CA050E9406068395E6CF009195
:10160C00EC050530B8F401E0E091C905F091CA058C
:10161C0006A70091EC0510E0F801E951FA4F308172
:10162C00305D2091EC05205F0091C9051091CA0531
:10163C000E9406068991999108950091EC0510E09D
:10164C00F801E951FA4F0081002349F409E0209197
:10165C00EC0530E0F901E951FA4F008309C0009123
:10166C00EC0510E0F801E951FA4F00810A9500836E
:10167C00A9DF08950091EC0510E0F801E951FA4F4B
:10168C000081093048F000E02091EC0530E0F901D0
:10169C00E951FA4F008309C00091EC0510E0F80104
:1016AC00E951FA4F0081039500838CDF0895009176
:1016BC00EC050430A8F40091EC0503950093EC05BF
:1016CC000091EC0510E0F801EA51FA4F20810091ED
:1016DC00EC0510E0F801E951FA4F208373DF08950F
:1016EC0001D00895219707E00093DC058E010E943C
:1016FC00150700E61AEE20E030E0E4ECF5E000839C
:10170C00118322833383E4ECF5E000811181228183
:10171C003381EFEDF5E000831183228333838E0157
:10172C000E941A070091C9051091CA050E9469060A
:10173C004AE153E020E10091C9051091CA050E94CD
:10174C004606219608958ADE089588DE089520E0E5
:10175C00253070F430E0F901E951FA4F008130E0A6
:10176C004DE050E0420F531F0E94CC102395F0CF58
:10177C0008DE0895219708E00093DC050091EF0541
:10178C0010E0000F111F40E050E0400F511F0E946D
:10179C00BE100093F0051093F10503E00093F205E1
:1017AC000091C9051091CA050E94690646E253E0F2
:1017BC0020E00091C9051091CA050E94460630919F
:1017CC00EF053F5C2DE00091C9051091CA050E9400
:1017DC0006061ED08E010E94150700EC14ED21E0C8
:1017EC0030E0E4ECF5E00083118322833383E4ECF6
:1017FC00F5E00081118122813381EFEDF5E000836A
:10180C001183228333838E010E941A072196089537
:10181C000E945D110091F0051091F105C801A0E046
:10182C00A43060F503E00A1B402E4AE050E08C0126
:10183C000E94F510B42F0091F2050A1739F401E05B
:10184C00E091C905F091CA0506A706C000E0E09139
:10185C00C905F091CA0506A73B2F305D242D205FEA
:10186C000091C9051091CA050E9406064AE050E095
:10187C008C010E94F510C801A395D2CFE5E00C9421
:10188C006911ECDD08950E945E11A1E0B0E020E04A
:10189C000091F205201740F40AE010E0AD010E941F
:1018AC00E710D8012395F4CFAD010091F00510910C
:1018BC00F1050E94F5104AE050E00E94F510842FCB
:1018CC00813040F0E0EFF5E0008111810A1B1B0B29
:1018DC00008311839DDFE4E00C946A110E945E1179
:1018EC00A1E0B0E020E00091F205201740F40AE0FE
:1018FC0010E0AD010E94E710D8012395F4CFAD01A3
:10190C000091F0051091F1050E94F5104AE050E0AD
:10191C000E94F510842F893040F4E0EFF5E000814F
:10192C0011810A0F1B1F0083118372DFE4E00C94FA
:10193C006A110091F205013038F00091F2050A9518
:10194C000093F20565DF089501D00895219709E011
:10195C000093DC050091C9051091CA050E94690627
:10196C0044E353E020E10091C9051091CA050E949F
:10197C0046068E010E94150700E315E720E030E0D3
:10198C00E4ECF5E00083118322833383E4ECF5E08F
:10199C000081118122813381EFEDF5E00083118309
:1019AC00228333838E010E941A072196089556DDF7
:1019BC00089554DD08950091F0051091F1052091E2
:1019CC00EF0530E0220F331F40E050E0420F531F71
:1019DC000E94D01043DD089521974CE050E00E9406
:1019EC00BB100093F3050AE00093DC050091C905D8
:1019FC001091CA050E94690640E453E020E0009172
:101A0C00C9051091CA050E9446064EE453E020E138
:101A1C000091C9051091CA050E9446061ED08E0180
:101A2C000E94150700EC14ED21E030E0E4ECF5E049
:101A3C000083118322833383E4ECF5E00081118170
:101A4C0022813381EFEDF5E0008311832283338310
:101A5C008E010E941A07219608954AE00091F30521
:101A6C000E94D9104AE00E94D910405D342F2DE01D
:101A7C000091C9051091CA050E9406063EE22EE0AF
:101A8C000091C9051091CA050E9406064AE0009112
:101A9C00F3050E94D910405D342F2FE00091C90549
:101AAC001091CA050E9406060895D8DC089500918D
:101ABC00F305003120F40FE00093F30505C000910D
:101ACC00F3050A950093F305C8DF08950091F3051B
:101ADC00093120F009E10093F30505C00091F305ED
:101AEC0003950093F305B9DF089501D0089521976C
:101AFC000BE00093DC050091C9051091CA050E940A
:101B0C00690640E453E020E00091C9051091CA0534
:101B1C000E9446064FE553E020E10091C905109163
:101B2C00CA050E9446068E010E94150700E315E7C0
:101B3C0020E030E0E4ECF5E0008311832283338372
:101B4C00E4ECF5E00081118122813381EFEDF5E0C9
:101B5C0000831183228333838E010E941A072196FE
:101B6C0008950FDC08950091F3054CE050E00E94BD
:101B7C00CC1007DC0895EFEDF5E000811181228196
:101B8C003381023040E0140740E0240740E0340782
:101B9C0070F0EFEDF5E0008111812281338101506D
:101BAC001040204030400083118322833383E09126
:101BBC00ED05F091EE05329740F0EDEEF5E0008189
:101BCC0011810150104000831183089523970E94C6
:101BDC004404013008F440C00EED15E00E944A04A4
:101BEC008E010E5F1F4F0E941507EFEDF5E000818F
:101BFC00118122813381023040E0140740E0240738
:101C0C0040E0340760F0E4ECF5E0008111812281C2
:101C1C003381EFEDF5E000831183228333838E0152
:101C2C000E5F1F4F0E941A074091DC0550E00EE03A
:101C3C0010E00E94E710E4E3F1E0E00FF11F0091E7
:101C4C00DE0510E0000F111FE00FF11F059114913C
:101C5C003197F801099553C08E010F5F1F4F0E94F9
:101C6C001507EFEDF5E00081118122813381E3EE60
:101C7C00F5E000831183228333838E010F5F1F4FA6
:101C8C000E941A07E3EEF5E0008111812281338175
:101C9C00013040E0140740E0240740E0340701F530
:101CAC008E010E94150700E010E020E030E0EFED1F
:101CBC00F5E000831183228333838E010E941A077F
:101CCC004091DC0550E00EE010E00E94E710F801B6
:101CDC00E25CFE4F059114913197F80109950FC004
:101CEC004091DC0550E00EE010E00E94E710F80196
:101CFC00EC5CFE4F059114913197F80109952396F0
:101D0C0008950E945B11C801622E532E442EB52FEC
:101D1C00A62F6A2F5B2F442D352D262D8C0104D038
:101D2C008C01E7E00C9467110E945B11D801622EC4
:101D3C00832F542E452E962F062DECE6F0E0FBBF9C
:101D4C00F3E00C94121109E3FD0105830AE3FD0194
:101D5C0004830BE3FD0106838CC009E3FD010583BD
:101D6C000AE3FD0104830BE3FD01068382C006E355
:101D7C00FD01058307E3FD01048308E3FD010683F0
:101D8C0078C006E3FD01058307E3FD01048308E346
:101D9C00FD0106836EC003E3FD01058304E3FD0131
:101DAC00048305E3FD01068364C003E3FD010583A1
:101DBC0004E3FD01048305E3FD0106835AC000E33F
:101DCC00FD01058301E3FD01048302E3FD010683AC
:101DDC0050C000E3FD01058301E3FD01048302E330
:101DEC00FD01068346C001E2FD01058302E2FD010F
:101DFC00048303E2FD0106833CC001E2FD0105837F
:101E0C0002E2FD01048303E2FD01068332C000E21D
:101E1C00FD01058301E6FD01048302E6FD01068355
:101E2C0028C000E2FD01058301E6FD01048302E602
:101E3C00FD0106831EC003E6FD01058304E6FD01DA
:101E4C00048305E6FD01068314C003E6FD0105834A
:101E5C0004E6FD01048305E6FD0106830AC003E3E5
:101E6C00FD01058304E3FD01048305E3FD01068305
:101E7C0083E0883040F4482F01E010E00E94EF101E
:101E8C00FD01078303C001E0FD010783552051F0DC
:101E9C00FD011781FD010481E02FF0E00081012B91
:101EAC0000830AC0FD0117811095FD010481E02F0C
:101EBC00F0E0008101230083FD011781FD01068103
:101ECC00E02FF0E00081012B008300E010E0FD0129
:101EDC00018712870D931C93119700E0FD0102837B
:101EEC00FD0143828D010D5F1F4FFD010387148798
:101EFC00983040F4492F01E010E00E94EF10FD01F2
:101F0C00008703C001E0FD010087E7E00C94671136
:101F1C00F8012581E22FF0E02081F801378123239D
:101F2C00222319F0F8010085089500E00895F801C6
:101F3C000285089528E630E08901012F10E0009316
:101F4C009000022F09B900E00093950000919500D4
:101F5C000F7E00939500009195000F7D00939500E6
:101F6C00009195000260009395000091950004602B
:101F7C0000939500529800919500077F009395006F
:101F8C0000E000937D0600937C0600937B06009393
:101F9C007A0600937906009378060093F705009370
:101FAC00F60500E00AB9579A549A539A569A08952E
:101FBC00FA93EA935A934A933A932A931A930A936D
:101FCC004FB75BB70CB1202FE6EFF5E00081017045
:101FDC0003950170302F0091F705301721F401E0C3
:101FEC0000937B0611C000E000937B063093F6054E
:101FFC000091F60510E0F801EC50FA4F20830091A7
:10200C007A06039500937A065BBF4FBF099119912D
:10201C002991399149915991E991F9911895FA932E
:10202C00EA934A933A932A931A930A933FB74BB77E
:10203C0010917806209179061217A1F0109179066B
:10204C0013951F77012F00937906509A10E0F80131
:10205C00E850FA4F10811CB910917C061A95109318
:10206C007C0604C0559810E010937C064BBF3FBF14
:10207C0009911991299139914991E991F991189501
:10208C003FB7F89418E10EE011BD01BD3FBF0895B4
:10209C001FB7F894A8951FBF089520E030E000E129
:1020AC000E945C1001E010E00C945D1008952297E2
:1020BC00C801888399839E0101E00E945C10F9CFCE
:1020CC000C945D100E9457114801A22EDA01962F34
:1020DC0082E024016A2C0BC002E0400E511E611EEE
:1020EC00823099F002E0400E00E0501E601E4A164D
:1020FC005B06690689F0F2016BBE4791569110E0C0
:10210C004030504049F3823069F3F2016BBE0791C5
:10211C00F691E02F0995E6CF8A95D9F6EBE00C9471
:10212C0063110FEB0DBF05E00EBFC0E6D1E00E94BE
:10213C007311002311F00E94A4110AE913E020E0AE
:10214C004EE953E060E00E9468100E94EC060E9489
:10215C00D7100C946610E199FECF08954F5F5F4F36
:10216C00FADF4EBB5FBBE09A0895FADF0DB308951A
:10217C00F7DF0DB3F3DF1DB308954F5F5F4F4EBB19
:10218C005FBBF894E29AE19A0FBE08950FB6E3DFB5
:10219C000DBBF5CF0FB6DFDF0DBBF1DFDCDF1DBBF9
:1021AC00ECCF0C9466100024E8E0EA9532F0001FA6
:1021BC00001C0416D0F3041AF8CF001F402D009514
:1021CC000895149F102D059F100D049F002D110DC7
:1021DC0008954A951AF0000F111FFBCF08950024A3
:1021EC001124EFE0001F111F001C111C0416150612
:1021FC0010F0041A150AEA95AAF7001F111FA00186
:10220C000095109508957791679157914791179084
:10221C0011FA279037900895F9DF041B10E003C0E2
:10222C00F4DF041B150B20E030E005C0ECDF041BD1
:10223C00150B260B370BB8F010FC17C04791079005
:10224C00E00FF11F0417100540E02407340758F481
:10225C0036F406910024F101E01BF0090994E00F1B
:10226C00F11F27903790F101099411F4D6F7F1CFB3
:10227C0031960EF0319650E060E070E047914B3FA4
:10228C0048F089F34F3F29F04E3F11F07791679159
:10229C0057914791041B150B260B370B39F318F389
:1022AC00E7CFAA929A928A927A926A925A924A9218
:1022BC00BA93AA939A938A930895AA84998488844A
:1022CC007F806E805D804C80BB81AA8199818881E2
:1022DC00F0E0EC0FFD1FEF01089501E008959A93D3
:1022EC008A93C80102C00E9492118C010E94A01214
:1022FC00202F012B69F4EEE7F6E02081318100E01C
:10230C002030300781F3E0917E06F32F0995EDCF55
:10231C00022F8991999108950C94531020E008D0C4
:10232C00E9F708953BBF27913BB702D0D9F7089541
:10233C002D9301501040202F212B089502EF402E99
:10234C0005E2502E00E0602EF201362D6BBE079197
:10235C001691F201EE5FFF4F3F4F3BBFA791B69135
:10236C00F201362DEC5FFF4F3F4F3BBF479157912A
:10237C006691242F252B262B21F0FA01362FD2DF44
:10238C0001C0CCDF07E0400E00E0501E601EA20131
:10239C00662D403056426040B8F20895E0E8F6E011
:1023AC0000811181012B19F000E010E0089500E686
:1023BC0011E00083118320E034E0F80120833183A5
:1023CC0008950D01D801012B09F455C01297ED9118
:1023DC00FC911197349708F44EC002E816E0F8010E
:1023EC0053D019F0A217B30728F4FD0122833383CD
:1023FC00F80123C0F90148D019F02A173B07D0F394
:10240C00408151819F01240F351FA217B30798F10A
:10241C002A173B0741F42D913C91420F531F4083E7
:10242C005183DF010CC030D021F027D0261737079D
:10243C0010F112962D933C931397A283B383FD0155
:10244C0023D0C9F01AD062177307A9F420E0F80161
:10245C0020832183FD010281F381E02F20813181D2
:10246C004D915C91420F531F5C934E9302811381EB
:10247C00FD0102831383D00108954D915C91119756
:10248C00BD01640F751F089522813381422F432BA8
:10249C0008959A938A93C80105C02E5F3F4F890116
:1024AC000E94E711E2E8F6E000811181202F212B38
:1024BC0061F404E816E001C037D029D0F1F02ED039
:1024CC00D8F322C02BD000F52FD021D0D9F7E2E8D9
:1024DC00F6E00081F181E02F1ED004E816E007C081
:1024EC00FA01408151814817590770F41DD0F80149
:1024FC00408151814217530799F70E94D4119801DA
:10250C00012B59F600E010E089919991089502D0C1
:10251C00232B0895F801208131810895E081F32F58
:10252C00FADF281739070895F801008111810E5F31
:10253C001F4F08950E945E11C801029608171907D3
:10254C0018F000E010E047C0843000E0900710F471
:10255C0084E090E08C019DDF202F212B91F3DADFBA
:10256C00F901A081B1811497A817B90730F4228121
:10257C003381D8012D933C9316C0280F391FD801F5
:10258C002D933C934281538129D04D935C93408190
:10259C005181481B590BD8012D91BC91A22F4D9301
:1025AC005C9380839183D8012D913C91232B59F01E
:1025BC0015D02D913C91232B31F0D8010D911C910C
:1025CC000E5F1F4F02C000E010E0A2E8B6E00D93D2
:1025DC001C9332968F01E4E00C946A11D8012D9172
:1025EC00D90112960895BD00C9050000000900C06C
:0D25FC00050026000101010050460000010D
:0400000300000000F9
:00000001FF
