:020000020000FC
:100000000C94971B18951895189518951895189590
:100010001895189518951895189518951895189578
:10002000189518950C94160218951895189518950A
:100030001895189518951895189518950C944A03C5
:1000400018951895189518950C94C91A0C94001BBE
:100050001895189518951895189518951895189538
:100060001895189518951895189518951895189528
:100070001895189518951895189518951895189518
:10008000189518951895189518951895550566059D
:100090008905CE050C0654055405420C510C01028D
:1000A0000103010201040102010301020100474DA5
:1000B00020636F646500D9DA2020202020202020D2
:1000C0002020202020202020202020202020202030
:1000D0002020202020202020202020202020202020
:1000E000202020202020A2B52020202020202020F9
:1000F00020202020202041A042A1E045A3A4A5A6C5
:100100004BA74D484FA8504354A9AA58E1ABACE2C5
:10011000ADAE62AFB0B161B2B3B4E365B6B7B8B972
:10012000BABBBCBD6FBE7063BF79E478E5C0C1E601
:10013000C2C3C4C5C6C70609090600000000060FF1
:100140000F0600000000BF10BF10BF10BF10BF108F
:10015000BF10BF10F910BE10BE10BE10BE10BE10F2
:10016000BF109E116612BE10BE10BE10BE104A1106
:10017000BE106113DF12FC12191367136612AE135F
:10018000BE10BE10BE10BE10BE107713BE101C14E1
:100190001E14291434146713D413BE108614C31408
:1001A000E014FD1467134614BE1049154B154D1588
:1001B000BE1067131815BE10E715E91514163F1683
:1001C00067136015BE107D167F168116BE1067136B
:1001D0004C16D316FB16FD160C171B176713921639
:1001E000BE10BE1057175917BE1067131D17BE104B
:1001F000BE10BE10BE10BE10BE10BE10BE10BE108F
:10020000BE10BE10BE10BE10BE10BE10BE10BE107E
:10021000BE10BE10BE10BE1003020406015374755A
:10022000636B20202020200053656E736F72732053
:100230003A2000576F726B206D6F646520004C652B
:100240006E3D202020202020004572726F722020F9
:100250002020200053656E736F7273203A20004C8B
:10026000656E3D3F202020202020202020202000DF
:10027000496E7075742070617373776F72643A00A1
:1002800050617373776F7264206572726F722100B0
:100290004D656E753A0044697374616E63652074D0
:1002A0006F20533120200044697374616E636520B0
:1002B000746F20533220200044697374616E63654B
:1002C00020746F20533320200044697374616E637F
:1002D0006520746F20533420200044697374616E6C
:1002E000636520746F205335202000446973746166
:1002F0006E636520746F2053362020005365742090
:100300006E65772070617373776F726400536574E4
:10031000204B20617665726167696E6720005365C6
:10032000742070617373776F72643A0053617665FD
:100330003F20282D2F2B290044697374616E63655B
:1003400020746F205300536176653F20282D2F2B9A
:1003500029002856312B5632292F4B20204B3D00A7
:1003600063616E2E20202D20202B20656E74657217
:0D03700000536176653F20282D2F2B2900BA
:10037E004101D5185318016718017B18018F180118
:10038E00A31801B71801CB181A4918015D1801718D
:10039E001801851801991801AD1801C118FB41010A
:1003AE00E1195F19017319018719019B1901AF1921
:1003BE0001C31901D7191A5519016919017D1901BE
:1003CE00911901A51901B91901CD19FB4C02640C43
:1003DE0000E005BD05B5086005BD05B50F7B05BD83
:1003EE0005B50F7D05BD05B50F7E05BD05B50B7FAA
:1003FE0005BD05B5026005BD05B5016005BD01D0A1
:10040E00089500E004BD0CE703BD06B70F7706BFE5
:10041E0006B70F7B06BF07B7006807BF08959A930C
:10042E008A93FA93EA933A922A921A920A927A93BA
:10043E006A935A934A933A932A931A930A938FB7CD
:10044E009BB707B70F7707BF78940091CA06109134
:10045E00CB060E948D0E0E94030E0E9461170E9411
:10046E007103CFDF9BBF8FBF0991199129913991EC
:10047E0049915991699179910990199029903990E2
:10048E00E991F9918991999118950FE210E00E94E6
:10049E00C21C9801012B41F089010E94090E0093A4
:1004AE00CA061093CB06089500E010E00093CA062A
:1004BE001093CB0608950E94EF010E942A030E941A
:1004CE008B1A0E9475030E946D0208950E941304F8
:1004DE0008950E94E00408950E94A41CEF972997A6
:1004EE000A831B83922FDA0180E026EEFE013496FA
:1004FE00082F10E0E00FF11F208383952BE0FE0103
:10050E003496082F10E0E00FF11F2083839520E032
:10051E00FE013496082F10E0E00FF11F2083839523
:10052E0020E0FE013496082F10E0E00FF11F20832B
:10053E0083952A81FE013496082F10E0E00FF11FFB
:10054E00208383952B81FE013496082F10E0E00F57
:10055E00F11F20838395FE013496082F10E0E00FE3
:10056E00F11F9083839540E0423040F520E0263025
:10057E0018F560E06430F0F450E008E110E00E94FD
:10058E00E71BFD01E00FF11F022F10E0000F111FFE
:10059E00000F111FE00FF11F70E0E60FF71F308103
:1005AE00FE013496082F10E0E00FF11F3083839583
:1005BE006395E0CF2395DBCF4395D6CF20E0263051
:1005CE0000F5022F10E0000F111F40E050E0400F29
:1005DE00511F0E94BE1B0883198300E0043078F47B
:1005EE00FE0110E0E00FF11F1081FE013496482F3E
:1005FE0050E0E40FF51F108383950395EFCF2395FD
:10060E00DECF8E83282F30E08E010C5F1F4F0E94AD
:10061E007603FE013496282F30E0E20FF31F00839D
:10062E0083954424481650F4FE0134965524E40D67
:10063E00F51D00810E94311B4394F4CFEF9629964D
:10064E00E6E00C94B51C03B70B7F03BF03B7026043
:10065E0003BF03B7016003BF03B70F7B03BF03B72D
:10066E00086003BF03B70F7D03BF03B70F7E03BF41
:10067E0003B70F7703BF00E002BF09EF01BF07B753
:10068E00026007BF08959A938A93FA93EA933A9277
:10069E002A921A920A927A936A935A934A933A93A7
:1006AE002A931A930A938FB79BB70E9472039BBF2C
:1006BE008FBF099119912991399149915991699158
:1006CE0079910990199029903990E991F991899130
:1006DE009991189508950E947002089508950E94A8
:1006EE00A61CD8010FEF80E090E08217930764F408
:1006FE0010E04C9150E004271527F801E054FA4F12
:10070E00008111960196F1CFE4E00C94B71CC69AC5
:10071E00C69AC79A949A959ABE9ABE9ABF9A8C9A7E
:10072E008D9A0FE31CE901501040E9F700C000005C
:10073E0095980895B80100E010E0BE9ABF9A8C9A81
:10074E008D9AC7982AE02A95F1F700C094982AE06E
:10075E002A95F1F700C040E0403110F577FB16F412
:10076E0021E001C020E020FB28B326F928BB2AE0B7
:10077E002A95F1F700C0C79A2AE02A95F1F700C032
:10078E00000F111FC69B03C0016021E030E0C79827
:10079E00660F771F2AE02A95F1F700C04395DCCF4C
:1007AE00949A2AE02A95F1F700C008952FB7F80120
:1007BE002083F8940895F80120812FBF08950E9498
:1007CE00A61C2197D8018E010E94DD038C918E010B
:1007DE000E94E203082F2196E4E00C94B71C8A9342
:1007EE002197802F8E010E94DD038093D9068E0102
:1007FE000E94E2032196899108958A9321978E0192
:10080E000E94DD030091D906802F8E010E94E20323
:10081E00082F2196899108950E948E0300E010E022
:10082E000E94A103159A149A1D9A1C9A0CE010E0CE
:10083E000E94C21C98018901232B49F050E061EB04
:10084E0074E04CE330E026E60E943D1902C000E061
:10085E0010E00093CC061093CD060CE010E00E9441
:10086E00C21C98018901232B49F051E061EB74E021
:10087E004CE331E026E60E943D1902C000E010E094
:10088E000093CE061093CF060CE010E00E94C21C1F
:10089E0098018901232B49F052E061EB74E04CE39F
:1008AE0032E026E60E943D1902C000E010E00093FF
:1008BE00D0061093D1060CE010E00E94C21C9801E5
:1008CE008901232B49F053E061EB74E04CE333E0F4
:1008DE0026E60E943D1902C000E010E00093D20609
:1008EE001093D3060CE010E00E94C21C98018901FF
:1008FE00232B49F054E061EB74E04CE334E026E640
:10090E000E943D1902C000E010E00093D40610933F
:10091E00D5060CE010E00E94C21C98018901232B21
:10092E0049F055E061EB74E04CE335E026E60E94B9
:10093E003D1902C000E010E00093D6061093D706D2
:10094E0009E000934D0700E00093C00600E00E940E
:10095E00F60308950E94A51C2197902F812F09ED73
:10096E0016E00E94E603402E00914D074016D0F48B
:10097E0001E0009347078E010E94DD030091D90626
:10098E0010E0000F111FF801E457FF4F059114916D
:10099E003197D8018E010E94E203182F092FFD0115
:1009AE00099503C000E00E94F6032196E5E00C9441
:1009BE00B61C0091C006002309F06EC00091D80647
:1009CE00002331F1E1ECF6E00081118122813381C7
:1009DE00003848E3140741E0240740E0340778F478
:1009EE00E1ECF6E000811181228133810F5F1F4F10
:1009FE002F4F3F4F008311832283338309C000E0C2
:100A0E000093D80601E00093DA0605E00E94F60393
:100A1E000091CC061091CD060E94291A0091CE06A7
:100A2E001091CF060E94291A0091D0061091D1067E
:100A3E000E94291A0091D2061091D3060E94291AFB
:100A4E000091D4061091D5060E94291A0091D6065F
:100A5E001091D7060E94291A0091DB061091DC0630
:100A6E00013020E0120751F400E010E00093DB06A5
:100A7E001093DC060091DD060E94F603E091DB0682
:100A8E00F091DC06329740F0EBEDF6E0008111813B
:100A9E000150104000831183089508959A938A930C
:100AAE00802F912F8F3F41F48F3F31F400E0009360
:100ABE00D80601E00E94F6038991999108950E944B
:100ACE00A61CA02F912FB0E080E0863098F4082F5E
:100ADE0010E0000F111FF801E453F94F008111814E
:100AEE000E94881A002311F401E001C000E0B02B2F
:100AFE008395EBCFBB2319F402E00E94F603E4E0EA
:100B0E000C94B71C0E94A21C2197902F812F1D9A26
:100B1E001C9A00E010E000934507109346078E01E3
:100B2E000E94DD0340E0423010F560E06630E8F4EC
:100B3E0000E010E020E030E02801390150E008E14B
:100B4E0010E00E94E71BEEEDF6E0E00FF11F062F1E
:100B5E0010E0000F111F000F111FE00FF11F408258
:100B6E005182628273826395E1CF4395DCCF00E0C0
:100B7E000093D8068E010E94E20303E00E94F60362
:100B8E00182F092F04D02196E8E00C94B31C0E9474
:100B9E00A61C402F212F4423A9F581E090E0A0E070
:100BAE00B0E0E1ECF6E080839183A283B38301E0B1
:100BBE000093D80600E00093DA06E1ECF6E08081BF
:100BCE009181A281B38150E008E110E00E94E71B01
:100BDE00EEEDF6E0E00FF11F022F10E0000F111FF7
:100BEE00000F111FE00FF11F80839183A283B38347
:100BFE0004E00093D906222329F0E5E4F7E0008112
:100C0E0001600083E4E00C94B71C0E94A21C2297A2
:100C1E00902F812F8E010F5F1F4F0E94DD0300E08A
:100C2E0010E00093DB061093DC068E010F5F1F4F62
:100C3E000E94E203492F50E008E110E00E94E71BFA
:100C4E00EEEDF6E0E00FF11F082F10E0000F111F80
:100C5E00000F111FE00FF11F0081118122813381DE
:100C6E00012B022B032B71F0482F01E010E00E94A4
:100C7E00EF1BE5E4F7E020813181202B312B20831F
:100C8E0031831CC0E1ECF6E04080518062807380BD
:100C9E00492F50E008E110E00E94E71BEEEDF6E070
:100CAE00E00FF11F082F10E0000F111F000F111F92
:100CBE00E00FF11F4082518262827382A1E0B0E0A8
:100CCE00B63070F40B2F10E0000F111FF801E45333
:100CDE00F94F008111810E94881AA023B395F0CF9D
:100CEE00AA2379F08E010E94DD0305E00093DD0654
:100CFE0008E813E10093DB061093DC068E010E94D8
:100D0E00E2032296E8E00C94B31C0E949A1C2397EF
:100D1E000E940404D02EDD2051F41FEF0FEFECE8FB
:100D2E00F0E0259134913197F9010995A0C507E0BE
:100D3E00D01611F4AAD59BC508E0D01611F4B4D57F
:100D4E0096C505E0D01609F092C500E00093D806CE
:100D5E000091DA06002309F45CC080E0863008F5C5
:100D6E0000E0023010F40395FCCF082F10E0000FC6
:100D7E00111FF801E453F94F008111810E94881A66
:100D8E00002369F4482F01E010E00E94EF1BE5E418
:100D9E00F7E020813181202B312B20833183839505
:100DAE00DDCF009145071091460700934A0700E0FA
:100DBE0010E000934B0710934C0700E010E00E94E8
:100DCE00A1031C980FEF19E628E1015010402040B6
:100DDE00E1F700C000001D9801E00093480706E00F
:100DEE000E94F6038E010E5F1F4F0E94DD0307E087
:100DFE000093DD0608E813E10093DB061093DC0692
:100E0E008E010E5F1F4F0E94E20300E00093DA0690
:100E1E002EC500E0063040F42FEF10E0F801E25C42
:100E2E00F84F20830395F6CF00E00093440720E0AF
:100E3E00263008F047C030E0323048F5432F50E0FE
:100E4E0008E110E00E94E71BEEEDF6E0E00FF11F67
:100E5E00022F10E0000F111F000F111FE00FF11FE6
:100E6E004081518162817381452B462B472B69F45A
:100E7E00422F01E010E00E94EF1BE5E4F7E0408115
:100E8E005181402B512B408351833395D5CF6091A7
:100E9E00450770914607422F01E010E00E94EF1BBC
:100EAE0060237123672B61F40091440710E0F80171
:100EBE00E25CF84F208300914407039500934407AA
:100ECE002395B6CF0091440700934907009145073B
:100EDE001091460700934A0788249924AA24BB241C
:100EEE00EE24009144070330C0F5009145071091A0
:100EFE00460700934A0700E010E000934B0710935B
:100F0E004C0700E010E00E94A1031C980FEF19E6B9
:100F1E0028E1015010402040E1F700C000001D986C
:100F2E0001E00093480706E00E94F6038E010F5F72
:100F3E001F4F0E94DD0308E00093DD0608E813E171
:100F4E000093DB061093DC068E010F5F1F4F0E948D
:100F5E00E20300E00093DA068AC40091440710E031
:100F6E00F801E35CF84F008110E0000F111F000F35
:100F7E00111FF801E252F94F408151816281738154
:100F8E0000913E0710E0000F111F000F111FF80116
:100F9E00E252F94F008D118D228D338D401751077E
:100FAE006207730708F0BCC100913E0710E0000F06
:100FBE00111F000F111FF801E252F94F008D118D14
:100FCE00228D338D4091440750E0FA01E35CF84FD7
:100FDE00408150E0440F551F440F551FFA01E25255
:100FEE00F94F4081518162817381041B150B260BD1
:100FFE00370BEEE0F7E000831183228333830091F9
:10100E00440710E0F801E35CF84F008110E0000F98
:10101E00111F40E050E0400F511F0E94BE1BB8014F
:10102E0000913E0710E0000F111F40E050E0400F0E
:10103E00511F0E94BE1B601B710B8B0120E030E024
:10104E00E6E1F7E0008311832283338300914407A6
:10105E0010E0F801E35CF84F008110E0000F111F63
:10106E0040E050E0400F511F0E94BE1BB80100919E
:10107E00440710E0F801E45CF84F008110E0000F27
:10108E00111F40E050E0400F511F0E94BE1B601B1D
:10109E00710B8B0120E030E0EEE1F7E0008311836D
:1010AE00228333830091440710E0F801E35CF84F8C
:1010BE00008110E0000F111F000F111FF801E25206
:1010CE00F94F00811181228133814091440750E014
:1010DE00FA01E45CF84F408150E0440F551F440F75
:1010EE00551FFA01E252F94F40815181628173819D
:1010FE00041B150B260B370BEAE2F7E00083118376
:10110E002283338300913F0710E0000F111F40E050
:10111E0050E0400F511F0E94BE1BB80100913E07C8
:10112E0010E0000F111F40E050E0400F511F0E94D1
:10113E00BE1B601B710B8B0120E030E0E2E2F7E09A
:10114E00008311832283338300913F0710E0000F49
:10115E00111F000F111FF801E252F94F008D118D72
:10116E00228D338D40913E0750E0440F551F440FA2
:10117E00551FFA01E252F94F408D518D628D738DDC
:10118E00041B150B260B370BEEE2F7E000831183E1
:10119E0022833383EEE1F7E00081118122813381D6
:1011AE00E2E2F7E04081518162817381040F151FE5
:1011BE00261F371FEAE1F7E0008311832283338372
:1011CE00EAE2F7E00081118122813381EEE2F7E05D
:1011DE004081518162817381040F151F261F371FB5
:1011EE00E6E2F7E00083118322833383EEE1F7E03A
:1011FE000081118122813381EEE0F7E0408151813F
:10120E00628173810E94091C4AE050E060E070E048
:10121E000E94091CEAE2F7E04081518162817381EC
:10122E000E94291C0B5F1F4F2F4F3F4F4AE050E08B
:10123E0060E070E00E94291CE6E3F7E00083118372
:10124E0022833383E2E2F7E0008111812281338130
:10125E00EEE0F7E040815181628173810E94091CAA
:10126E004AE050E060E070E00E94091CEEE2F7E018
:10127E0040815181628173810E94291C0B5F1F4F37
:10128E002F4F3F4F4AE050E060E070E00E94291C73
:10129E00EAE3F7E00083118322833383E6E1F7E08C
:1012AE0080819181A281B381E6E3F7E00080118015
:1012BE0022803380EAE3F7E00081118122813381BD
:1012CE00000E111E221E331E4AE050E060E070E058
:1012DE00800191010E94091C080119014CE050E0A7
:1012EE000E94BB1B402F50E060E070E08001910136
:1012FE000E94291C800F911FA21FB31FE2E3F7E08B
:10130E0080839183A283B383E2E3F7E000811181AE
:10131E0022813381800E911EA21EB31EE39451C210
:10132E00CC2400914407C01608F04BC20C2D10E0DF
:10133E00F801E25CF84F008110E0000F111F000F62
:10134E00111FF801E252F94F008111812281338180
:10135E00FF24F701E25CF84F408150E0440F551F27
:10136E00440F551FFA01E252F94F408D518D628D97
:10137E00738D041715072607370708F420C2FF24BC
:10138E00F701E25CF84F008110E0000F111F000F13
:10139E00111FF801E252F94F008D118D228D338D00
:1013AE004C2D50E0FA01E35CF84F408150E0440FC1
:1013BE00551F440F551FFA01E252F94F40815181DA
:1013CE0062817381041B150B260B370BEEE0F7E0E1
:1013DE0000831183228333830C2D10E0F801E25C2D
:1013EE00F84F008110E0000F111F000F111FF801C0
:1013FE00E252F94F0081118122813381FF24F701DE
:10140E00E25CF84F408150E0440F551F440F551FCA
:10141E00FA01E252F94F408D518D628D738D041B8E
:10142E00150B260B370BE2E1F7E0008311832283C5
:10143E003383EEE0F7E00081118122813381E2E116
:10144E00F7E04081518162817381041715072607E9
:10145E00370708F0DAC00C2D10E0F801E35CF84F06
:10146E00008110E0000F111F40E050E0400F511FAF
:10147E000E94BE1BB801FF24F701E25CF84F008109
:10148E0010E0000F111F40E050E0400F511F0E946E
:10149E00BE1B601B710B8B0120E030E0E6E1F7E034
:1014AE0000831183228333830C2D10E0F801E25C5C
:1014BE00F84F008110E0000F111F40E050E0400F88
:1014CE00511F0E94BE1BB8010C2D10E0F801E35C09
:1014DE00F84F008110E0000F111F40E050E0400F68
:1014EE00511F0E94BE1B601B710B8B0120E030E070
:1014FE00EAE1F7E000831183228333830C2D10E0A1
:10150E00F801E25CF84F008110E0000F111F000F90
:10151E00111FF801E252F94F0081118122813381AE
:10152E004C2D50E0FA01E35CF84F408150E0440F3F
:10153E00551F440F551FFA01E252F94F4081518158
:10154E0062817381041B150B260B370BE6E2F7E065
:10155E0000831183228333834AE050E060E070E021
:10156E00E6E1F7E000811181228133810E94091C9E
:10157E00C801D901EAE1F7E00081118122813381AE
:10158E00EEE0F7E040815181628173810E94091C77
:10159E00A801B9010DEE13E020E030E00E94091C15
:1015AE002801390144E650E060E070E0E6E2F7E041
:1015BE0000811181228133810E94091CA801B90189
:1015CE00820193010E94291C800F911FA21FB31F3D
:1015DE008B5F9F4FAF4FBF4F8C019D014AE050E094
:1015EE0060E070E00E94291CE2E3F7E000831183C3
:1015FE0022833383E2E3F7E000811181228133817C
:10160E00800E911EA21EB31ED9C00C2D10E0F80143
:10161E00E25CF84F008110E0000F111F40E050E037
:10162E00400F511F0E94BE1BB801FF24F701E25C60
:10163E00F84F008110E0000F111F40E050E0400F06
:10164E00511F0E94BE1B601B710B8B0120E030E00E
:10165E00E6E1F7E000831183228333830C2D10E043
:10166E00F801E25CF84F008110E0000F111F40E01E
:10167E0050E0400F511F0E94BE1BB8010C2D10E010
:10168E00F801E35CF84F008110E0000F111F40E0FD
:10169E0050E0400F511F0E94BE1B601B710B8B014F
:1016AE0020E030E0EAE1F7E0008311832283338308
:1016BE000C2D10E0F801E25CF84F008110E0000FF5
:1016CE00111F000F111FF801E252F94F0081118115
:1016DE00228133814C2D50E0FA01E35CF84F4081BA
:1016EE0050E0440F551F440F551FFA01E252F94FB7
:1016FE004081518162817381041B150B260B370BC0
:10170E00E6E2F7E000831183228333834AE050E060
:10171E0060E070E0E6E1F7E0008111812281338123
:10172E000E94091CC801D901EAE1F7E0008111818C
:10173E0022813381E2E1F7E0408151816281738140
:10174E000E94091CA801B90106EE13E020E030E06A
:10175E000E94091C2801390144E650E060E070E067
:10176E00E6E2F7E000811181228133810E94091C9B
:10177E00A801B901820193010E94291C801B910BC3
:10178E00A20BB30B8E5E9F4FAF4FBF4F8C019D01CF
:10179E004AE050E060E070E00E94291CE2E3F7E0CE
:1017AE000083118322833383E2E3F7E0008111810A
:1017BE0022813381800E911EA21EB31EE394C39428
:1017CE00B0CD4AE050E060E070E0840195010E94E7
:1017DE00091C4E2D50E060E070E00E94291C0B5F4A
:1017EE001F4F2F4F3F4F4AE050E060E070E00E94E5
:1017FE00291C00934B0710934C0700914B07109137
:10180E004C07000F111F000F111F0E94A103009122
:10181E004407063010F41C9801C01C9A0FEF19E60D
:10182E0028E1015010402040E1F700C000001D9853
:10183E0001E00093480706E00093D9068E010E944E
:10184E00DD0308E00093DD0608E813E10093DB06F4
:10185E001093DC068E010E94E2034EED56E02091BD
:10186E004A0700914B0710914C070E947302239672
:10187E00E0E10C94AB1C9A938A93902F812F182F32
:10188E00092F1DD98991999108951D9A01E00E9401
:10189E00F60308959A938A93902F812F182F092F6C
:1018AE0031D98991999108951D9A02E00E94F6030B
:1018BE0000E010E00E94A103089505E310E00E94ED
:1018CE00C21C9801012B39F089010CD000934E07F0
:1018DE0010934F07089500E010E000934E07109309
:1018EE004F070895BA93AA93D8010DE010E00E9415
:1018FE00C21C98018901232B41F063E050E040E0C7
:10190E0030E027E60E94271802C000E010E09B9608
:10191E000D931C939C970DE010E00E94C21C0801D1
:10192E00012B49F062E050E040E031E027E6800113
:10193E000E94271802C000E010E09D960D931C93A4
:10194E009E970DE010E00E94C21C0801012B49F089
:10195E0061E050E040E032E027E680010E94271867
:10196E0002C000E010E09F960D931C93D0970DE0FF
:10197E0010E00E94C21C0801012B49F060E050E00B
:10198E0040E033E027E680010E94271802C000E005
:10199E0010E0D1960D931C93D29700E00C9300E0CB
:1019AE0011960C93119700E093960C939397929641
:1019BE000C9392978D01A991B99108950E94A61C3E
:1019CE00D8019B960D911C919C970E942E19802FE9
:1019DE009D960D911C919E970E942E19902F9F9669
:1019EE000D911C91D0970E942E19892B802BD19688
:1019FE000D911C91D2970E942E19802BD4968C9308
:101A0E00D497D4960C91D497D3961C91D397011753
:101A1E0091F00C91043118F40C9103950C930C91E8
:101A2E00043178F0D4960C91D497D3960C93D39727
:101A3E0000E00C9306C00C91013018F00C910A9541
:101A4E000C93E4E00C94B71C9A938A93C8018C0112
:101A5E00B5DF8C0103D0899199910895BA93AA9319
:101A6E00D801FD0103A910E0F801E256FF4F0491E1
:101A7E00FD0102A7FD0101810023B1F1FD0103A9C2
:101A8E000F3031F1FD0104A115A10C3D25E0120727
:101A9E0038F4FD0104A115A10F5F1F4F04A315A378
:101AAE00FD0104A115A10C3D25E0120780F1FD01F9
:101ABE0006A1043628F4FD0106A1039506A327C04E
:101ACE0000E0FD0106A3FD0122A58D0127D01FC058
:101ADE0000E010E0FD0104A315A300E0FD0106A344
:101AEE0000E0FD01018313C0FD0103A90F3079F061
:101AFE0001E0FD010183FD0122A58D010FD000E063
:101B0E0010E0FD0104A315A300E0FD0106A3A991B9
:101B1E00B9910895A8012F71022F08950E94A61C55
:101B2E00D801922F0FB7FD0107A3F894FD0123A151
:101B3E0023958D01EFDF802FFD0102A1801741F06B
:101B4E00082F10E0FD01E00FF11F9283FD0183A32A
:101B5E00FD0107A10FBFE4E00C94B71C0E94A41C6A
:101B6E002801D90180E00FB7F20100A7F894F20125
:101B7E0003A1F20112A1011781F081E0F20122A16D
:101B8E0023958201C7DFF20102A3F20102A110E048
:101B9E00F201E00FF11F02810C93F20100A50FBFBD
:101BAE00082FE6E00C94B51CF8011FB711A7F894A6
:101BBE0013A122A1121738F410E222A1121B23A1A5
:101BCE00120F012F04C013A122A1121B012F11A568
:101BDE001FBF089500914E0710914F07E5DF08953E
:101BEE009A938A93C8019C0100914E0710914F075A
:101BFE00B5DF89919991089500914E0710914F0785
:101C0E0023DF08959A938A93C8018C010FD08C011B
:101C1E001FD08C013BD08C0102D24EEA50E020E066
:101C2E008C01DAD18C018991999108952FE02ABB0C
:101C3E002FE02BBBD49ADC9AD59ADD9A4FEF59E65A
:101C4E0068E1415050406040E1F700C00000089547
:101C5E0020E0F80123A7F80122A7F80100A711A799
:101C6E0020E0F80125A720E030E0F80120A331A301
:101C7E0020E030E0F80122A333A320E0F80126A7EC
:101C8E0020E030E0F80126A337A308959A938A93B3
:101C9E00C8010FEF13EF21E0015010402040E1F793
:101CAE0000C0000028E28C01CDD00FE31FE10150EF
:101CBE001040E9F700C0000028E28C01C3D00FE30A
:101CCE001FE101501040E9F700C000002CE08C012C
:101CDE00B9D021E08C01B6D00FE31FE101501040C6
:101CEE00E9F700C0000026E08C01ACD022E08C01A8
:101CFE00A9D00FE31FE101501040E9F700C000002A
:101D0E0020E88C019FD08991999108950E94A61C7C
:101D1E00D801FD0106A117A10F5F1F4F06A317A340
:101D2E00FD0106A117A1003024E0120728F000E003
:101D3E0010E0FD0106A317A3FD0100A511A50F5F7D
:101D4E001F4F00A711A7FD0103A5039503A7FD01D2
:101D5E0003A5003110F100E0FD0103A7FD0102A56E
:101D6E00039502A7FD0102A5023051F400E0FD012A
:101D7E0002A7FD01A0A7B1A720E88D0163D009C07D
:101D8E008D01005F1F4FFD0100A711A720EC8D01F3
:101D9E0059D008EC00000A95E9F7FD0102A50023D1
:101DAE00C9F4FD0120A131A1FD0143A501E010E020
:101DBE000E94EF1B20233123232B49F0FD0106A1A6
:101DCE0017A1013022E0120710F001E001C000E07F
:101DDE00802F18C0FD0122A133A1FD0143A501E012
:101DEE0010E00E94EF1B20233123232B49F0FD012D
:101DFE0006A117A1013022E0120710F001E001C088
:101E0E0000E0802FFD0100A511A5F8010081FD0164
:101E1E0004A7FD0104A5013848F0FD0104A510E05A
:101E2E00F801EA5CFF4F0491FD0104A7882319F025
:101E3E0000E2FD0104A7FD0124A58D011FD0E4E001
:101E4E000C94B71C0E94A71CC801A22F0FB70093B9
:101E5E005007F89408EC00000A95E9F7DD9B05C0E1
:101E6E00DD9808EC00000A95E9F72A2F8C0122D0A4
:101E7E00009150070FBFE3E00C94B81C0E94A71C02
:101E8E00C801A22F0FB700935107F89408EC000079
:101E9E000A95E9F7DD9905C0DD9A08EC00000A9570
:101EAE00E9F72A2F8C0106D0009151070FBFE3E00E
:101EBE000C94B81C4BB3407F322F32953F70432B9E
:101ECE004BBBDC9A000000000000DC980000000014
:101EDE0000004BB3407F322F3F70432B4BBBDC9A3D
:101EEE00000000000000DC9808950E94A51CC801A7
:101EFE000FB7402EF89420E48C01A4DF0FE91FE009
:101F0E0001501040E9F700C00000A0E0A03160F4DD
:101F1E00B0E0FD01EA5CFE4F24918C01AFDF00E5DD
:101F2E000A95F1F7A395F2CF20E88C018BDF0FE92C
:101F3E001FE001501040E9F700C000004FBEE5E081
:101F4E000C94B61C203208F020E0422F50E0F8012D
:101F5E00E40FF51F30830895BA931A2EF801622FFD
:101F6E00532F603208F060E070E0DF01A60FB71F5C
:101F7E005C93603130F48F01005E1F4F9801062E86
:101F8E0007C08F010E5D1F4F9801062F0051002EC6
:101F9E0006A5013080F0402D01E010E00E94EF1BFD
:101FAE00D9012D903C90202A312A3C922E9206A5E2
:101FBE000A9506A70EC0402D01E010E00E94EF1B0F
:101FCE0000951095D9012D903C90202231223C9203
:101FDE002E92A12DB9910895FA013491632F6623A3
:101FEE0079F0203208F020E030E0F801E20FF31F24
:101FFE00608323954F5F5F4FFA013491632FEFCFCC
:10200E00089520E030E0F80120A331A320E030E075
:10201E00F80122A333A320E0F80126A708959A938E
:10202E008A93C80100E0003240F420E210E0FC0187
:10203E00E00FF11F20830395F6CF8C01E2DF89912B
:10204E00999108950E94A11C2801B22F632ECA01F6
:10205E000B2F060D0A95A02F77247614F8F44AE07C
:10206E0050E08C010E94F51B842EAA230AF4AFE1E6
:10207E00A0320CF0A0E0282D205D0A2F102F110F9A
:10208E00110BF201E00FF11F2083AA954AE050E0F8
:10209E008C010E94F51BC8017394DFCFE9E00C940C
:1020AE00B21C0E94A11CD801522E832ECA01052DEE
:1020BE00080D0A95402E7724781488F54AE050E0F2
:1020CE008C010E94F51B642E442012F40FE1402E69
:1020DE0000E240160CF04424772019F001E060165F
:1020EE0060F0262D205D042D102F110F110BFD0118
:1020FE00E00FF11F20834A940AC020E2042D102F16
:10210E00110F110BFD01E00FF11F20834A944AE0DD
:10211E0050E08C010E94F51BC8017394CDCFE9E00D
:10212E000C94B21C0E94620242ED54E034E020E0B6
:10213E000091CA061091CB060E94291078940FEFD9
:10214E0013ED20E3015010402040E1F700C00000E5
:10215E000091CA061091CB060E947C0F0E948E033E
:10216E000E94BF100E948C060E948C17FBCF089510
:10217E00219701E0009352078E010E94DD0300E0DB
:10218E0010E020E030E0E5ECF6E0008311832283DE
:10219E003383E5ECF6E00081118122813381E5E5A0
:1021AE00F7E000831183228333838E010E94E203C2
:1021BE000091CA061091CB060E9416104DE152E016
:1021CE0020E00091CA061091CB060E94F30F48E260
:1021DE0052E020E10091CA061091CB060E94F30F47
:1021EE00219608958A9380E0863008F041C0082F2A
:1021FE0010E0000F111FF801E453F94F0081118117
:10220E000E94881A002351F030E2282F265E00919A
:10221E00CA061091CB060E94B30F10C001E0E091E8
:10222E00CA06F091CB0606A7382F3F5C282F265EF4
:10223E000091CA061091CB060E94B30F082F10E032
:10224E00000F111FF801E453F94F008111810E9414
:10225E00881A002311F431E001C030E0282F265FE8
:10226E000091CA061091CB060E94A90F8395BCCF90
:10227E000E940404002329F00E940404013009F096
:10228E0002D0899108958A9321978E010E94DD03D1
:10229E0000E010E020E030E0E5ECF6E00083118392
:1022AE0022833383E5ECF6E00081118122813381B4
:1022BE00E5E5F7E000831183228333838E010E94CC
:1022CE00E2030091CA061091CB060E94161002E09E
:1022DE000093520743E352E020E00091CA061091AA
:1022EE00CB060E94F30F01E00093C90620D080E0D8
:1022FE008630D0F4082F10E0000F111FF801E453C0
:10230E00F94F008111810E94881A002311F431E0E7
:10231E0001C030E0282F265F0091CA061091CB062F
:10232E000E94A90F8395E4CF2196899108958A93EF
:10233E0000914707002321F40091C906002301F103
:10234E0000E00093470780E08630D0F4082F10E0BD
:10235E00000F111FF801E453F94F008111810E9403
:10236E00881A002311F431E001C030E0282F265FD7
:10237E000091CA061091CB060E94A90F8395E4CF57
:10238E0000914807002329F40091C906002309F49F
:10239E0084C000E00093480700914B0710914C0752
:1023AE00012BB9F40091C906002399F449E452E0D7
:1023BE0020E00091CA061091CB060E94F30F44E56F
:1023CE0052E020E10091CA061091CB060E94F30F55
:1023DE003BC043E352E020E00091CA061091CB06C9
:1023EE000E94F30F4EE352E020E10091CA061091D5
:1023FE00CB060E94F30F48EE53E000914B0710916D
:10240E004C070E94F51B302F305D24E10091CA0667
:10241E001091CB060E94A90F3EE225E10091CA065B
:10242E001091CB060E94A90F48EE53E000914B0786
:10243E0010914C070E94F51B33E026E10091CA066D
:10244E001091CB060E94291080E0863030F5209145
:10245E004A07482F01E010E00E94EF1B20232223A1
:10246E0089F001E0E091CA06F091CB0606A7382F5D
:10247E003F5C282F265E0091CA061091CB060E9463
:10248E00B30F09C030E2282F265E0091CA061091C4
:10249E00CB060E94B30F8395D8CF0E94040404305C
:1024AE0049F44FE552E020E10091CA061091CB06A7
:1024BE000E94F30F00E00093C906899108952197B9
:1024CE008E010E94DD0300E315E720E030E0E5EC2D
:1024DE00F6E00083118322833383E5ECF6E000817E
:1024EE00118122813381E5E5F7E000831183228398
:1024FE0033838E010E94E20300915207009353072B
:10250E0003E00093520700E00093620700E00530FD
:10251E0040F420E010E0F801E35AF84F20830395D1
:10252E00F6CF0091CA061091CB060E94161040E716
:10253E0052E020E00091CA061091CB060E94F30FE4
:10254E0002D0219608958A9380E080E00091620780
:10255E00801788F400E0E091CA06F091CB0606A73A
:10256E003AE2282F205F0091CA061091CB060E94F6
:10257E00B30F8395EBCF009162070530B8F401E0FD
:10258E00E091CA06F091CB0606A70091620710E013
:10259E00F801E35AF84F3081305D20916207205FD9
:1025AE000091CA061091CB060E94B30F899108952F
:1025BE000091620710E0F801E35AF84F0081002302
:1025CE0049F409E02091620730E0F901E35AF84F2F
:1025DE00008309C00091620710E0F801E35AF84F3A
:1025EE0000810A950083AFDF08950091620710E025
:1025FE00F801E35AF84F0081093048F000E02091CD
:10260E00620730E0F901E35AF84F008309C00091E8
:10261E00620710E0F801E35AF84F0081039500833A
:10262E0092DF08959A938A9300916207039500931F
:10263E00620700916207053080F40091620710E096
:10264E00F801E45AF84F20810091620710E0F8017A
:10265E00E35AF84F208377DF2AC081E091E020E033
:10266E002530F0F430E04DE050E0420F531F0E9451
:10267E00BB1B30E0F901E35AF84F1081011709F046
:10268E0080E030E0F901E85EFD4F049130E0F901A1
:10269E00E35AF84F1081011709F090E02395E0CF2F
:1026AE00082F092B002311F078D001C019D0899181
:1026BE009991089500916207013008F001D00895B4
:1026CE004091530750E00EE010E00E94E71BF80126
:1026DE00EE5AFE4F059114913197F8010995089520
:1026EE00219704E0009352070091CA061091CB0681
:1026FE000E94161040E852E020E00091CA061091A8
:10270E00CB060E94F30F8E010E94DD0300E010E065
:10271E0020E030E0E5ECF6E0008311832283338382
:10272E00E5ECF6E00081118122813381E5E5F7E0E9
:10273E00008311832283338300E315E7009363073D
:10274E00109364078E010E94E203219608959A93D6
:10275E008A9321978E010E94DD03009163071091E9
:10276E006407C8018E010E94E203823000E09007E8
:10277E0078F048EE53E08C010E94F51BA80132E080
:10278E0020E10091CA061091CB060E94581001C09C
:10279E0097DF2196899199910895219705E00093ED
:1027AE0052070091CA061091CB060E9416108E0198
:1027BE000E94DD0300E21FEB22E030E0E5ECF6E0E4
:1027CE000083118322833383E5ECF6E000811181CF
:1027DE0022813381E5E5F7E0008311832283338381
:1027EE008E010E94E20340E952E020E00091CA0609
:1027FE001091CB060E94F30F00E00093650702D004
:10280E00219608954091650750E001E110E00E9485
:10281E00E71B46E952E0400F511F20E10091CA0626
:10282E001091CB060E94F30F08954ADF0895009190
:10283E006507013028F0009165070A95009365073A
:10284E00E1DF089500916507073028F400916507D0
:10285E00039500936507D6DF08950091650706304E
:10286E0011F40DD0089500916507063010F421D1B2
:10287E00089500916507073009F44DD20895219708
:10288E0006E0009352078E010E94DD0300E61AEE69
:10289E0020E030E0E5ECF6E0008311832283338301
:1028AE00E5ECF6E00081118122813381E5E5F7E068
:1028BE0000831183228333838E010E94E2030091F1
:1028CE00CA061091CB060E9416104EE153E020E08E
:1028DE000091CA061091CB060E94F30F00E005305E
:1028EE0040F420E010E0F801E35AF84F20830395FE
:1028FE00F6CF00E00093620704D0219608954DDFD5
:10290E0008959A938A9380E0009162078017B0F43D
:10291E0000E0E091CA06F091CB0606A790E0FC011C
:10292E00E35AF84F3081305D282F205F0091CA06A0
:10293E001091CB060E94B30F8395E6CF00916207EC
:10294E000530B8F401E0E091CA06F091CB0606A777
:10295E000091620710E0F801E35AF84F3081305DC4
:10296E0020916207205F0091CA061091CB060E944B
:10297E00B30F8991999108950091620710E0F801C3
:10298E00E35AF84F0081002349F409E020916207D1
:10299E0030E0F901E35AF84F008309C00091620755
:1029AE0010E0F801E35AF84F00810A950083A9DF81
:1029BE0008950091620710E0F801E35AF84F008184
:1029CE00093048F000E02091620730E0F901E35A47
:1029DE00F84F008309C00091620710E0F801E35A36
:1029EE00F84F0081039500838CDF089500916207F4
:1029FE000430A8F4009162070395009362070091DA
:102A0E00620710E0F801E45AF84F20810091620746
:102A1E0010E0F801E35AF84F208373DF089501D0D8
:102A2E000895219707E0009352078E010E94DD035F
:102A3E0000E61AEE20E030E0E5ECF6E000831183CC
:102A4E0022833383E5ECF6E000811181228133810C
:102A5E00E5E5F7E000831183228333838E010E9424
:102A6E00E2030091CA061091CB060E9416104CE2AA
:102A7E0053E020E10091CA061091CB060E94F30F9D
:102A8E00219608958ADE089588DE089520E0253087
:102A9E0070F430E0F901E35AF84F008130E04DE078
:102AAE0050E0420F531F0E94CC1B2395F0CF08DE3F
:102ABE000895219708E0009352070091650710E0F2
:102ACE00000F111F40E050E0400F511F0E94BE1B2F
:102ADE00009366071093670703E000936807009161
:102AEE00CA061091CB060E94161048E353E020E070
:102AFE000091CA061091CB060E94F30F3091650724
:102B0E003F5C2DE00091CA061091CB060E94B30FD8
:102B1E001ED08E010E94DD0300EC14ED21E030E0AA
:102B2E00E5ECF6E00083118322833383E5ECF6E0D7
:102B3E000081118122813381E5E5F7E00083118365
:102B4E00228333838E010E94E203219608950E9410
:102B5E00A51C0091660710916707C801A0E0A4307C
:102B6E0060F503E00A1B402E4AE050E08C010E9403
:102B7E00F51BB42F009168070A1739F401E0E091B4
:102B8E00CA06F091CB0606A706C000E0E091CA0681
:102B9E00F091CB0606A73B2F305D242D205F0091D0
:102BAE00CA061091CB060E94B30F4AE050E08C018A
:102BBE000E94F51BC801A395D2CFE5E00C94B61C7C
:102BCE00ECDD08950E94A61CA1E0B0E020E000918B
:102BDE006807201740F40AE010E0AD010E94E71BE1
:102BEE00D8012395F4CFAD010091660710916707C8
:102BFE000E94F51B4AE050E00E94F51B842F8130A5
:102C0E0040F0E6E6F7E0008111810A1B1B0B008302
:102C1E0011839DDFE4E00C94B71C0E94A61CA1E07A
:102C2E00B0E020E000916807201740F40AE010E0C1
:102C3E00AD010E94E71BD8012395F4CFAD010091A1
:102C4E006607109167070E94F51B4AE050E00E944C
:102C5E00F51B842F893040F4E6E6F7E00081118100
:102C6E000A0F1B1F0083118372DFE4E00C94B71C64
:102C7E0000916807013038F0009168070A950093BB
:102C8E00680765DF089501D00895219709E0009344
:102C9E0052070091CA061091CB060E94161046E408
:102CAE0053E020E10091CA061091CB060E94F30F6B
:102CBE008E010E94DD0300E315E720E030E0E5EC35
:102CCE00F6E00083118322833383E5ECF6E0008186
:102CDE00118122813381E5E5F7E0008311832283A0
:102CEE0033838E010E94E2032196089556DD0895E6
:102CFE0054DD0895009166071091670720916507CE
:102D0E0030E0220F331F40E050E0420F531F0E946D
:102D1E00D01B43DD089521974CE050E00E94BB1B71
:102D2E00009369070AE0009352070091CA061091BA
:102D3E00CB060E94161042E553E020E00091CA0631
:102D4E001091CB060E94F30F40E653E020E1009174
:102D5E00CA061091CB060E94F30F1ED08E010E9460
:102D6E00DD0300EC14ED21E030E0E5ECF6E000834D
:102D7E00118322833383E5ECF6E0008111812281F9
:102D8E003381E5E5F7E000831183228333838E01DF
:102D9E000E94E203219608954AE0009169070E947D
:102DAE00D91B4AE00E94D91B405D342F2DE00091C3
:102DBE00CA061091CB060E94B30F3EE22EE00091A0
:102DCE00CA061091CB060E94B30F4AE00091690724
:102DDE000E94D91B405D342F2FE00091CA0610913E
:102DEE00CB060E94B30F0895D8DC089500916907B1
:102DFE00003120F40FE00093690705C000916907C8
:102E0E000A9500936907C8DF089500916907093193
:102E1E0020F009E10093690705C000916907039549
:102E2E0000936907B9DF089501D0089521970BE04B
:102E3E00009352070091CA061091CB060E941610FD
:102E4E0042E553E020E00091CA061091CB060E94A5
:102E5E00F30F41E753E020E10091CA061091CB0633
:102E6E000E94F30F8E010E94DD0300E315E720E0C0
:102E7E0030E0E5ECF6E00083118322833383E5EC4A
:102E8E00F6E00081118122813381E5E5F7E00083D0
:102E9E001183228333838E010E94E20321960895CB
:102EAE000FDC0895009169074CE050E00E94CC1BA6
:102EBE0007DC0895E5E5F7E0008111812281338179
:102ECE00023040E0140740E0240740E0340770F081
:102EDE00E5E5F7E000811181228133810150104038
:102EEE00204030400083118322833383E0916307B7
:102EFE00F0916407329740F0E3E6F7E0008111812C
:102F0E000150104000831183089523970E94F10D04
:102F1E00013008F440C004E517E00E94F70D8E0161
:102F2E000E5F1F4F0E94DD03E5E5F7E00081118182
:102F3E0022813381023040E0140740E0240740E054
:102F4E00340760F0E5ECF6E00081118122813381D7
:102F5E00E5E5F7E000831183228333838E010E5F54
:102F6E001F4F0E94E2034091520750E00EE010E026
:102F7E000E94E71BE6E4F1E0E00FF11F0091540719
:102F8E0010E0000F111FE00FF11F05911491319702
:102F9E00F801099553C08E010F5F1F4F0E94DD038C
:102FAE00E5E5F7E00081118122813381E9E5F7E063
:102FBE0000831183228333838E010F5F1F4F0E9484
:102FCE00E203E9E5F7E000811181228133810130CE
:102FDE0040E0140740E0240740E0340701F58E017D
:102FEE000E94DD0300E010E020E030E0E5E5F7E0D0
:102FFE0000831183228333838E010E94E20340916A
:10300E00520750E00EE010E00E94E71BF801E05B73
:10301E00FE4F059114913197F80109950FC040911B
:10302E00520750E00EE010E00E94E71BF801EA5B49
:10303E00FE4F059114913197F80109952396089545
:10304E000E94A31CC801622E532E442EB52FA62F0C
:10305E006A2F5B2F442D352D262D8C0104D08C012B
:10306E00E7E00C94B41C0E94A31CD801622E832F9F
:10307E00542E452E962F062DEEE7F0E0FBBFF3E023
:10308E000C94551C09E3FD0105830AE3FD0104833D
:10309E000BE3FD0106838CC009E3FD0105830AE302
:1030AE00FD0104830BE3FD01068382C006E3FD01EF
:1030BE00058307E3FD01048308E3FD01068378C061
:1030CE0006E3FD01058307E3FD01048308E3FD012B
:1030DE0006836EC003E3FD01058304E3FD01048353
:1030EE0005E3FD01068364C003E3FD01058304E3EC
:1030FE00FD01048305E3FD0106835AC000E3FD01D3
:10310E00058301E3FD01048302E3FD01068350C044
:10311E0000E3FD01058301E3FD01048302E3FD01EC
:10312E00068346C001E2FD01058302E2FD01048330
:10313E0003E2FD0106833CC001E2FD01058302E2CC
:10314E00FD01048303E2FD01068332C000E2FD01AE
:10315E00058301E6FD01048302E6FD01068328C016
:10316E0000E2FD01058301E6FD01048302E6FD0197
:10317E0006831EC003E6FD01058304E6FD010483FC
:10318E0005E6FD01068314C003E6FD01058304E692
:10319E00FD01048305E6FD0106830AC003E3FD017C
:1031AE00058304E3FD01048305E3FD01068383E04B
:1031BE00883040F4482F01E010E00E94EF1BFD0123
:1031CE00078303C001E0FD010783552051F0FD0187
:1031DE001781FD010481E02FF0E00081012B0083B7
:1031EE000AC0FD0117811095FD010481E02FF0E06A
:1031FE00008101230083FD011781FD010681E02F6F
:10320E00F0E00081012B008300E010E0FD0101875A
:10321E0012870D931C93119700E0FD010283FD01AF
:10322E0043828D010D5F1F4FFD0103871487983078
:10323E0040F4492F01E010E00E94EF1BFD010087D2
:10324E0003C001E0FD010087E7E00C94B41CF80117
:10325E002581E22FF0E02081F801378123232223FC
:10326E0019F0F8010085089500E008950E94A21C4F
:10327E00D801722E832F642E2B01952FFD01918381
:10328E00FD0143825482FD01658200E00C93072DFF
:10329E00ECEAF0E0FBBFF3E00C94551C09E3FD01F2
:1032AE0007830AE3FD0106830BE3FD0100878CC053
:1032BE0009E3FD0107830AE3FD0106830BE3FD012C
:1032CE00008782C006E3FD01078307E3FD01068345
:1032DE0008E3FD01008778C006E3FD01078307E3DD
:1032EE00FD01068308E3FD0100876EC003E3FD01C7
:1032FE00078304E3FD01068305E3FD01008764C037
:10330E0003E3FD01078304E3FD01068305E3FD01ED
:10331E0000875AC000E3FD01078301E3FD01068328
:10332E0002E3FD01008750C000E3FD01078301E3C6
:10333E00FD01068302E3FD01008746C001E2FD01A7
:10334E00078302E2FD01068303E2FD0100873CC014
:10335E0001E2FD01078302E2FD01068303E2FD01A6
:10336E00008732C000E2FD01078301E6FD010683FE
:10337E0002E6FD01008728C000E2FD01078301E699
:10338E00FD01068302E6FD0100871EC003E6FD0176
:10339E00078304E6FD01068305E6FD01008714C0E0
:1033AE0003E6FD01078304E6FD01068305E6FD0144
:1033BE0000870AC003E6FD01078304E6FD010683CC
:1033CE0005E6FD01008784E0883008F080E0482F94
:1033DE0001E010E00E94EF1BFD010187FD01118548
:1033EE001095FD010681E02FF0E00081012300839E
:1033FE00FD011185FD010085E02FF0E01083FD0138
:10340E000781E02FF0E00081FD01118501230023EB
:10341E0011F001E001C000E01C910127FD010287BF
:10342E00FD010285002329F0FD010581FD010387C1
:10343E0003C000E0FD0103878D0104D08D01E8E09B
:10344E000C94B31CBA93AA93D801FD010781E02F07
:10345E00F0E00081FD01118501231C91012700235D
:10346E0049F1FD010385FD011581011720F4FD01D0
:10347E00038503950387FD010385FD011581011762
:10348E00E8F1FD0102850023C9F501E0FD01028787
:10349E00FD012381348100E010E02017310771F126
:1034AE00FD011181FD0102851396ED91FC9114979A
:1034BE00099524C0FD010385013020F0FD0103852F
:1034CE000A950387FD0103850023C1F4FD010285E2
:1034DE000023A1F000E0FD010287FD01238134816C
:1034EE0000E010E02017310749F0FD011181FD01C8
:1034FE0002851396ED91FC9114970995A991B991B6
:10350E000895F8010285089528E630E08901012F1B
:10351E0010E000939000022F09B900E0009395008F
:10352E00009195000F7E00939500009195000F7D00
:10353E000093950000919500026000939500009114
:10354E009500046000939500529800919500077FB6
:10355E000093950000E00093F3070093F2070093A9
:10356E00F1070093F0070093EF070093EE07009327
:10357E006D0700936C0700E00AB9579A549A539A54
:10358E00569A0895FA93EA935A934A933A932A9342
:10359E001A930A934FB75BB70CB1202FECE6F7E006
:1035AE000081017003950170302F00916D07301767
:1035BE0021F401E00093F10711C000E00093F10740
:1035CE0030936C0700916C0710E0F801E659F84F44
:1035DE0020830091F00703950093F0075BBF4FBF68
:1035EE00099119912991399149915991E991F9913D
:1035FE001895FA93EA934A933A932A931A930A9355
:10360E003FB74BB71091EE072091EF071217A1F0BD
:10361E001091EF0713951F77012F0093EF07509A24
:10362E0010E0F801E259F84F10811CB91091F20721
:10363E001A951093F20704C0559810E01093F207F4
:10364E004BBF3FBF09911991299139914991E99148
:10365E00F9911895402F1FB7512FF8941091EE073E
:10366E0013951F77212F1091EF07211729F411E0E1
:10367E001093F30700E00EC030E0F901E259F84F65
:10368E0040832093EE07559A1091F20713951093ED
:10369E00F20701E05FBF089520E030E000E10E94F4
:1036AE005C1B01E010E00C945D1B08952297C8018D
:1036BE00888399839E0101E00E945C1BF9CF0C94D4
:1036CE005D1B0E949F1C4801A22EDA01962F82E0FC
:1036DE0024016A2C0BC002E0400E511E611E823086
:1036EE0099F002E0400E00E0501E601E4A165B0686
:1036FE00690689F0F2016BBE4791569110E0403099
:10370E00504049F3823069F3F2016BBE0791F69196
:10371E00E02F0995E6CF8A95D9F6EBE00C94B01C14
:10372E000FEB0DBF05E00EBFC0E6D1E00E94C01C3E
:10373E00002311F00E94F11C0AED13E020E04EED83
:10374E0053E060E00E94681B0E9499100E94D71BF4
:10375E000C94661BE199FECF08954F5F5F4FFADF21
:10376E004EBB5FBBE09A0895FADF0DB30895F7DF05
:10377E000DB3F3DF1DB308954F5F5F4F4EBB5FBBBD
:10378E00F894E29AE19A0FBE08950FB6E3DF0DBBEF
:10379E00F5CF0FB6DFDF0DBBF1DFDCDF1DBBECCFEE
:1037AE000C94661B0024E8E0EA9532F0001F001C22
:1037BE000416D0F3041AF8CF001F402D009508957B
:1037CE00149F102D059F100D049F002D110D0895AF
:1037DE004A951AF0000F111FFBCF089500241124F3
:1037EE00EFE0001F111F001C111C0416150610F02F
:1037FE00041A150AEA95AAF7001F111FA0010095D9
:10380E00109508952224349F302D259F300D169F3C
:10381E00300D079F300D249F202D310D159F200D4B
:10382E00311D069F200D311D149F102D210D321DAF
:10383E00059F100D211D321D049F002D110D221DFF
:10384E00321D0895002411241001E0E2EA9592F051
:10385E00001F111F221F331F001C111C221C331CA2
:10386E00041615062606370688F3041A150A260AC4
:10387E00370AECCF001F111F221F331FA001B10109
:10388E0000951095209530950895779167915791F1
:10389E004791179011FA279037900895F9DF041B7E
:1038AE0010E003C0F4DF041B150B20E030E005C070
:1038BE00ECDF041B150B260B370BB8F010FC17C0F2
:1038CE0047910790E00FF11F0417100540E0240701
:1038DE00340758F436F406910024F101E01BF00988
:1038EE000994E00FF11F27903790F101099411F41C
:1038FE00D6F7F1CF31960EF0319650E060E070E0E1
:10390E0047914B3F48F089F34F3F29F04E3F11F05E
:10391E007791679157914791041B150B260B370B27
:10392E0039F318F3E7CFFA92EA92DA92CA92BA9280
:10393E00AA929A928A927A926A925A924A92BA93D8
:10394E00AA939A938A930895FF84EE84DD84CC849F
:10395E00BB84AA84998488847F806E805D804C802D
:10396E00BB81AA8199818881F0E0EC0FFD1FEF01E8
:10397E00089501E008959A938A93C80102C00E94A7
:10398E00DF1C8C010E94ED1D202F012B69F4E4EF4A
:10399E00F7E02081318100E02030300781F3E091A3
:1039AE00F407F32F0995EDCF022F89919991089580
:1039BE000C94531B20E008D0E9F708953BBF2791E4
:1039CE003BB702D0D9F708952D9301501040202F08
:1039DE00212B08950CE8402E0CE3502E00E0602EB3
:1039EE00F201362D6BBE07911691F201EE5FFF4F7D
:1039FE003F4F3BBFA791B691F201362DEC5FFF4FC3
:103A0E003F4F3BBF479157916691242F252B262B75
:103A1E0021F0FA01362FD2DF01C0CCDF07E0400ED5
:103A2E0000E0501E601EA201662D4A395C436040C4
:103A3E00B8F20895E6EFF7E000811181012B19F03D
:103A4E0000E010E0089500E611E00083118320E00D
:103A5E0034E0F8012083318308950D01D801012B44
:103A6E0009F455C01297ED91FC911197349708F413
:103A7E004EC008EF17E0F80153D019F0A217B307A4
:103A8E0028F4FD0122833383F80123C0F90148D0C5
:103A9E0019F02A173B07D0F3408151819F01240F63
:103AAE00351FA217B30798F12A173B0741F42D9142
:103ABE003C91420F531F40835183DF010CC030D025
:103ACE0021F027D02617370710F112962D933C932D
:103ADE001397A283B383FD0123D0C9F01AD06217C6
:103AEE007307A9F420E0F80120832183FD010281F0
:103AFE00F381E02F208131814D915C91420F531F54
:103B0E005C934E9302811381FD0102831383D001D6
:103B1E0008954D915C911197BD01640F751F089525
:103B2E0022813381422F432B08959A938A93C801A1
:103B3E0005C02E5F3F4F89010E94341DE8EFF7E06C
:103B4E0000811181202F212B61F40AEF17E001C0B3
:103B5E0037D029D0F1F02ED0D8F322C02BD000F5DB
:103B6E002FD021D0D9F7E8EFF7E00081F181E02FD7
:103B7E001ED00AEF17E007C0FA01408151814817A5
:103B8E00590770F41DD0F801408151814217530737
:103B9E0099F70E94211D9801012B59F600E010E0C3
:103BAE0089919991089502D0232B0895F8012081CF
:103BBE0031810895E081F32FFADF28173907089530
:103BCE00F801008111810E5F1F4F08950E94A61CFF
:103BDE00C80102960817190718F000E010E047C058
:103BEE00843000E0900710F484E090E08C019DDFBB
:103BFE00202F212B91F3DADFF901A081B1811497E7
:103C0E00A817B90730F422813381D8012D933C9344
:103C1E0016C0280F391FD8012D933C934281538132
:103C2E0029D04D935C9340815181481B590BD8018B
:103C3E002D91BC91A22F4D935C9380839183D801DB
:103C4E002D913C91232B59F015D02D913C91232B86
:103C5E0031F0D8010D911C910E5F1F4F02C000E094
:103C6E0010E0A8EFB7E00D931C9332968F01E4E0BD
:103C7E000C94B71CD8012D91D901129608953201DA
:103C8E00CA060000000A01C0059A3C0000316253CA
:103C9E00C4F5A697B988DBEA7D4C1F2E437221101E
:103CAE0087B6E5D4FACB98A93E0F5C6D86B7E4D5FE
:103CBE00427320113F0E5D6CFBCA99A8C5F4A796FE
:103CCE00013063527C4D1E2FB889DAEB3D0C5F6ECE
:103CDE00F9C89BAA84B5E6D7407122137E4F1C2DDE
:103CEE00BA8BD8E9C7F6A59403326150BB8AD9E8DE
:103CFE007F4E1D2C02336051C6F7A495F8C99AABBE
:103D0E003C0D5E6F4170231285B4E7D67A4B1829AD
:103D1E00BE8FDCEDC3F2A1900736655439085B6A9D
:103D2E00FDCC9FAE80B1E2D344752617FCCD9EAF7D
:103D3E0038095A6B4574271681B0E3D2BF8EDDEC7D
:103D4E007B4A192806376455C2F3A091477625148D
:103D5E0083B2E1D0FECF9CAD3A0B5869043566575D
:103D6E00C0F1A293BD8CDFEE79481B2AC1F0A3925D
:103D7E000534675678491A2BBC8DDEEF82B3E0D13D
:103D8E00467724153B0A5968FFCE9DAC0101000011
:063D9E0000504600000188
:0400000300000000F9
:00000001FF
