:020000020000FC
:100000000C94DC1A1895189518951895189518954C
:100010001895189518951895189518951895189578
:10002000189518950C941702189518951895189509
:100030001895189518951895189518950C944703C8
:1000400018951895189518950C940E1A0C94451A35
:100050001895189518951895189518951895189538
:100060001895189518951895189518951895189528
:100070001895189518951895189518951895189518
:100080001895189518951895189518951E05280512
:100090004E058305B3051D051D05890B980B1D0530
:1000A0000102010301020104010201030102010036
:1000B000474D20636F646500D9DA2020202020207E
:1000C0002020202020202020202020202020202030
:1000D0002020202020202020202020202020202020
:1000E0002020202020202020A2B5202020202020F9
:1000F000202020202020202041A042A1E045A3A4D0
:10010000A5A64BA74D484FA8504354A9AA58E1AB08
:10011000ACE2ADAE62AFB0B161B2B3B4E365B6B755
:10012000B8B9BABBBCBD6FBE7063BF79E478E5C037
:10013000C1E6C2C3C4C5C6C706090906000000005F
:10014000060F0F060000000006100610061006102D
:1001500006100610061040100510051005100510B9
:1001600005100610E510AD1105100510051005105D
:1001700091100510A812261243126012AE12AD1192
:10018000F51205100510051005100510BE1205101A
:100190006313651370137B13AE121B130510CD137D
:1001A0000A1427144414AE128D13051090149214DF
:1001B00094140510AE125F1405102E1530155B1542
:1001C0008615AE12A7140510C415C615C81505105E
:1001D000AE1293151A164216441653166216AE1234
:1001E000D915051005109E16A0160510AE1264163E
:1001F0000510051005100510051005100510051057
:100200000510051005100510051005100510051046
:100210000510051005100510051003020406015312
:100220007475636B20202020200053656E736F72FD
:1002300073203A2000576F726B206D6F6465200049
:100240004C656E3D202020202020004572726F7288
:1002500020202020200053656E736F7273203A2097
:10026000004C656E3D3F20202020202020202020B3
:100270002000496E7075742070617373776F7264BB
:100280003A0050617373776F7264206572726F7297
:1002900021004D656E753A0044697374616E636543
:1002A00020746F20533120200044697374616E63A1
:1002B0006520746F20533220200044697374616E8E
:1002C000636520746F205333202000446973746188
:1002D0006E636520746F205334202000446973746A
:1002E000616E636520746F2053352020004469736C
:1002F00074616E636520746F20533620200053654F
:1003000074206E65772070617373776F7264005329
:100310006574204B20617665726167696E672000A5
:100320005365742070617373776F72643A00536120
:1003300076653F20282D2F2B290044697374616E48
:10034000636520746F205300536176653F20282D2C
:100350002F2B29002856312B5632292F4B20204B8A
:100360003D0063616E2E20202D20202B20656E74B1
:0F037000657200536176653F20282D2F2B2900E1
:1003800041011C189A1701AE1701C21701D61701B7
:10039000EA1701FE170112181A901701A41701B8E5
:1003A0001701CC1701E01701F417010818FB4101F0
:1003B0002819A61801BA1801CE1801E21801F6187A
:1003C000010A19011E191A9C1801B01801C418015C
:1003D000D81801EC18010019011419FB4D02AB0BE0
:1003E00000E005BD05B5086005BD05B50F7B05BD81
:1003F00005B50F7D05BD05B50F7E05BD05B50B7FA8
:1004000005BD05B5026005BD05B5016005BD01D09E
:10041000089500E004BD0CE703BD06B70F7706BFE3
:1004200006B70F7B06BF07B7006807BF08959A930A
:100430008A93FA93EA933A922A921A920A927A93B8
:100440006A935A934A933A932A931A930A938FB7CB
:100450009BB707B70F7707BF78940091C806109134
:10046000C9060E94D40D0E944A0D0E94A8160E943F
:100470006E03CFDF9BBF8FBF0991199129913991ED
:1004800049915991699179910990199029903990E0
:10049000E991F9918991999118950FE210E00E94E4
:1004A000071C9801012B41F089010E94500D009317
:1004B000C8061093C906089500E010E00093C8062E
:1004C0001093C90608950E94F0010E9427030E941C
:1004D000D0190E9472030E946E0208950E94E303E5
:1004E00008950E94B50408950E94E91BE0970A83CD
:1004F0001B83922FDA0180E026EEFE013496082F4E
:1005000010E0E00FF11F208383952BE0FE0134966D
:10051000082F10E0E00FF11F2083839520E0FE01FB
:100520003496082F10E0E00FF11F2083839520E020
:10053000FE013496082F10E0E00FF11F2083839511
:100540002A81FE013496082F10E0E00FF11F20836E
:1005500083952B81FE013496082F10E0E00FF11FE8
:1005600020838395FE013496082F10E0E00FF11FE1
:100570009083839540E0423030F520E0263008F546
:1005800060E06230E0F450E00CE010E00E942C1BD0
:10059000FD01E00FF11F022F10E0000F111FE00F0F
:1005A000F11F70E0E60FF71F3081FE013496082F2F
:1005B00010E0E00FF11F308383956395E2CF239520
:1005C000DDCF4395D8CF20E0263000F5022F10E094
:1005D000000F111F40E050E0400F511F0E94031B0D
:1005E0000883198300E0023078F4FE0110E0E00F88
:1005F000F11F1081FE013496482F50E0E40FF51FE3
:10060000108383950395EFCF2395DECF8E83282F1C
:1006100030E08E010C5F1F4F0E947303FE01349681
:10062000282F30E0E20FF31F0083839544244816FF
:1006300050F4FE0134965524E40DF51D00810E940E
:10064000761A4394F4CFE096E6E00C94FA1B03B7D5
:100650000B7F03BF03B7026003BF03B7016003BF93
:1006600003B70F7B03BF03B7086003BF03B70F7D5A
:1006700003BF03B70F7E03BF03B70F7703BF00E0CD
:1006800002BF09EF01BF07B7026007BF08959A9341
:100690008A93FA93EA933A922A921A920A927A9356
:1006A0006A935A934A933A932A931A930A938FB769
:1006B0009BB70E946F039BBF8FBF0991199129912E
:1006C000399149915991699179910990199029909D
:1006D0003990E991F99189919991189508950E941D
:1006E0007102089508950E94EB1BD8010FEF80E07E
:1006F00090E08217930764F410E04C9150E00427D7
:100700001527F801E054FA4F008111960196F1CFB8
:10071000E4E00C94FC1BC69AC69AC79A949A959AE0
:10072000BE9ABE9ABF9A8C9A8D9A0FE31CE901502B
:100730001040E9F700C0000095980895B80100E066
:1007400010E0BE9ABF9A8C9A8D9AC7982AE02A9593
:10075000F1F700C094982AE02A95F1F700C040E034
:10076000403110F577FB16F421E001C020E020FBBA
:1007700028B326F928BB2AE02A95F1F700C0C79ACA
:100780002AE02A95F1F700C0000F111FC69B03C095
:10079000016021E030E0C798660F771F2AE02A95B4
:1007A000F1F700C04395DCCF949A2AE02A95F1F73F
:1007B00000C008952FB7F8012083F8940895F80138
:1007C00020812FBF08958A930E948B0300E010E0E0
:1007D0000E949E03159A149A1D9A1C9A0CE010E030
:1007E0000E94071C98018901232B49F050E062E91F
:1007F00074E042E330E026E60E94841802C000E084
:1008000010E00093CB061093CC060CE010E00E94A1
:10081000071C0801012B51F051E062E974E042E34A
:1008200031E026E680010E94841802C000E010E05A
:100830000093CD061093CE060CE010E00E94071C3A
:100840000801012B51F052E062E974E042E332E02A
:1008500026E680010E94841802C000E010E00093A8
:10086000CF061093D0060CE010E00E94071C080190
:10087000012B51F053E062E974E042E333E026E6F5
:1008800080010E94841802C000E010E00093D106AD
:100890001093D2060CE010E00E94071C0801012B07
:1008A00051F054E062E974E042E334E026E680016E
:1008B0000E94841802C000E010E00093D306109359
:1008C000D4060CE010E00E94071C0801012B51F037
:1008D00055E062E974E042E335E026E680010E94DB
:1008E000841802C000E010E00093D5061093D606ED
:1008F0000AE00093340700E00093C00680E08630F1
:1009000078F4082F10E0000F111FF801E553F94F9C
:10091000008111810E94CD19182F04D08395EFCF4B
:10092000899108959A938A93902F812F0091D706E9
:1009300010913407011798F401E000932E07182F47
:10094000092F2091D70630E0220F331FF901E45719
:10095000FF4F259134913197F901099503C000E0CB
:100960000093D7068991999108950091C0060023BC
:1009700009F062C00091D8060023D1F00091C106B1
:100980001091C206083A21E6120748F4E1ECF6E0BD
:10099000008111810F5F1F4F0083118309C000E0A8
:1009A0000093D80601E00093D90605E00093D7062E
:1009B0000091CB061091CC060E946E190091CD06D5
:1009C0001091CE060E946E190091CF061091D006AC
:1009D0000E946E190091D1061091D2060E946E19E4
:1009E0000091D3061091D4060E946E190091D5068D
:1009F0001091D6060E946E19E091DA06F091DB069E
:100A0000329740F0EAEDF6E000811181015010408C
:100A1000008311830091DA061091DB06013020E09B
:100A2000120751F400E010E00093DA061093DB06A1
:100A30000091DC060093D7060895089520E02093E6
:100A4000D80620E02093CA0621E02093D706089517
:100A50000E94EB1BA02F912FB0E080E0863098F42D
:100A6000082F10E0000F111FF801E553F94F008126
:100A700011810E94CD19002311F401E001C000E0B2
:100A8000B02B8395EBCFBB2331F401E00093CA0672
:100A900002E00093D706E4E00C94FC1B9A938A933F
:100AA000802F912F1D9A1C9A00E010E000932C07D4
:100AB00010932D0740E04230D0F420E02630A8F417
:100AC00060E070E050E00CE010E00E942C1BEDEDC7
:100AD000F6E0E00FF11F022F10E0000F111FE00FF2
:100AE000F11F608371832395E9CF4395E4CF00E044
:100AF0000093D80603E00093D706192F082F03D0E0
:100B0000899199910895402F212F442359F501E0AF
:100B100010E00093C1061093C20601E00093D806CE
:100B200000E00093D9066091C1067091C20650E0C2
:100B30000CE010E00E942C1BEDEDF6E0E00FF11F41
:100B4000022F10E0000F111FE00FF11F608371836F
:100B500004E00093D706222329F0ECE2F7E00081BD
:100B60000160008308950E94EB1B2297802FA12F24
:100B70008E010F5F1F4F0E94DA0300E010E0009328
:100B8000DA061093DB068E010F5F1F4F0E94DF0312
:100B9000482F50E00CE010E00E942C1BEDEDF6E039
:100BA000E00FF11F0A2F10E0000F111FE00FF11FDF
:100BB00000811181012B71F04A2F01E010E00E94A9
:100BC000341BECE2F7E020813181202B312B208394
:100BD000318316C02091C1063091C206482F50E0E3
:100BE0000CE010E00E942C1BEDEDF6E0E00FF11F91
:100BF0000A2F10E0000F111FE00FF11F2083318337
:100C000091E0B0E0B63070F40B2F10E0000F111F30
:100C1000F801E553F94F008111810E94CD1990230D
:100C2000B395F0CF992379F08E010E94DA0305E0A5
:100C30000093DC0608E813E10093DA061093DB0664
:100C40008E010E94DF032296E4E00C94FC1B0E94BC
:100C5000DF1B24978E010D5F1F4F0E94DA03009166
:100C6000D706D02E8E010D5F1F4F0E94DF0307E0D5
:100C7000D01611F458D549C508E0D01611F462D544
:100C800044C505E0D01609F040C500E00093D80641
:100C90000091D906002309F45CC080E0863008F595
:100CA00000E0023010F40395FCCF082F10E0000F95
:100CB000111FF801E553F94F008111810E94CD19F0
:100CC000002369F4482F01E010E00E94341BECE29D
:100CD000F7E020813181202B312B208331838395D4
:100CE000DDCF00912C0710912D070093310700E014
:100CF00010E0009332071093330700E010E00E94E9
:100D00009E031C980FEF19E628E101501040204087
:100D1000E1F700C000001D9801E000932F0706E0F6
:100D20000093D7068E010E5F1F4F0E94DA0307E083
:100D30000093DC0608E813E10093DA061093DB0663
:100D40008E010E5F1F4F0E94DF0300E00093D90663
:100D5000DCC400E0063040F42FEF10E0F801EB5D5A
:100D6000F84F20830395F6CF00E000932B0720E097
:100D7000263008F041C030E0323018F5432F50E003
:100D80000CE010E00E942C1BEDEDF6E0E00FF11FEF
:100D9000022F10E0000F111FE00FF11F00811181E1
:100DA000012B69F4422F01E010E00E94341BECE2B9
:100DB000F7E040815181402B512B40835183339583
:100DC000DBCF60912C0770912D07422F01E010E0DE
:100DD0000E94341B60237123672B61F400912B0761
:100DE00010E0F801EB5DF84F208300912B0703958D
:100DF00000932B072395BCCF00912B07009330075E
:100E000000912C0710912D07009331078824992415
:100E1000AA24BB24EE2400912B070330C0F50091D7
:100E20002C0710912D070093310700E010E000938C
:100E300032071093330700E010E00E949E031C98D5
:100E40000FEF19E628E1015010402040E1F700C003
:100E500000001D9801E000932F0706E00093D706DD
:100E60008E010F5F1F4F0E94DA0308E00093DC063B
:100E700008E813E10093DA061093DB068E010F5F9A
:100E80001F4F0E94DF0300E00093D9063EC400918B
:100E90002B0710E0F801EC5DF84F008110E0000F27
:100EA000111FF801E352F94F20813181009125078C
:100EB00010E0000F111FF801E352F94F048515856A
:100EC0002017310708F0A4C10091250710E0000F9A
:100ED000111FF801E352F94F0485158520912B0766
:100EE00030E0F901EC5DF84F208130E0220F331F34
:100EF000F901E352F94F20813181021B130B20E0ED
:100F000030E0E5EFF6E00083118322833383009124
:100F10002B0710E0F801EC5DF84F008110E0000FA6
:100F2000111F40E050E0400F511F0E94031BB80109
:100F30000091250710E0000F111F40E050E0400F26
:100F4000511F0E94031B601B710B8B0120E030E0DE
:100F5000EDEFF6E0008311832283338300912B07AA
:100F600010E0F801EC5DF84F008110E0000F111F58
:100F700040E050E0400F511F0E94031BB801009158
:100F80002B0710E0F801ED5DF84F008110E0000F35
:100F9000111F40E050E0400F511F0E94031B601BD7
:100FA000710B8B0120E030E0E5E0F7E00083118376
:100FB0002283338300912B0710E0F801EC5DF84F9A
:100FC000008110E0000F111FF801E352F94F00817A
:100FD000118120912B0730E0F901ED5DF84F208160
:100FE00030E0220F331FF901E352F94F20813181A4
:100FF000021B130B20E030E0E1E1F7E000831183F6
:10100000228333830091260710E0000F111F40E078
:1010100050E0400F511F0E94031BB80100912507AB
:1010200010E0000F111F40E050E0400F511F0E94E0
:10103000031B601B710B8B0120E030E0E9E0F7E05F
:1010400000831183228333830091260710E0000F71
:10105000111FF801E352F94F0485158520912507EA
:1010600030E0220F331FF901E352F94F2485358513
:10107000021B130B20E030E0E5E1F7E00083118371
:1010800022833383E5E0F7E00081118122813381FF
:10109000E9E0F7E04081518162817381040F151FFF
:1010A000261F371FE1E0F7E000831183228333839B
:1010B000E1E1F7E00081118122813381E5E1F7E090
:1010C0004081518162817381040F151F261F371FD4
:1010D000EDE0F7E00083118322833383E5E0F7E05E
:1010E0000081118122813381E5EFF6E04081518159
:1010F000628173810E944E1B4AE050E060E070E024
:101100000E944E1BE1E1F7E04081518162817381D1
:101110000E946E1B0B5F1F4F2F4F3F4F4AE050E066
:1011200060E070E00E946E1BEDE1F7E00083118348
:1011300022833383E9E0F7E000811181228133814A
:10114000E5EFF6E040815181628173810E944E1B80
:101150004AE050E060E070E00E944E1BE5E1F7E0FD
:1011600040815181628173810E946E1B0B5F1F4F12
:101170002F4F3F4F4AE050E060E070E00E946E1B4E
:10118000E1E2F7E00083118322833383EDEFF6E0A1
:1011900080819181A281B381EDE1F7E0008011802F
:1011A00022803380E1E2F7E00081118122813381E6
:1011B000000E111E221E331E4AE050E060E070E077
:1011C000800191010E944E1B080119014CE050E082
:1011D0000E94001B402F50E060E070E08001910110
:1011E0000E946E1B800F911FA21FB31FE9E1F7E061
:1011F00080839183A283B383E9E1F7E000811181C9
:1012000022813381800E911EA21EB31EE39427C259
:10121000CC2400912B07C01608F021C20C2D10E041
:10122000F801EB5DF84F008110E0000F111FF8018D
:10123000E352F94F20813181FF24F701EB5DF84F34
:10124000008110E0000F111FF801E352F94F0485EF
:1012500015852017310708F400C2FF24F701EB5D64
:10126000F84F008110E0000F111FF801E352F94F11
:10127000048515852C2D30E0F901EC5DF84F2081B7
:1012800030E0220F331FF901E352F94F2081318101
:10129000021B130B20E030E0E5EFF6E00083118342
:1012A000228333830C2D10E0F801EB5DF84F0081B1
:1012B00010E0000F111FF801E352F94F0081118176
:1012C000FF24F701EB5DF84F208130E0220F331F40
:1012D000F901E352F94F24853585021B130B20E0F9
:1012E00030E0E9EFF6E00083118322833383E5EFFA
:1012F000F6E00081118122813381E9EFF6E040813F
:10130000518162817381041715072607370708F09A
:10131000D2C00C2D10E0F801EC5DF84F008110E018
:10132000000F111F40E050E0400F511F0E94031BAF
:10133000B801FF24F701EB5DF84F008110E0000FCA
:10134000111F40E050E0400F511F0E94031B601B23
:10135000710B8B0120E030E0EDEFF6E000831183AC
:10136000228333830C2D10E0F801EB5DF84F0081F0
:1013700010E0000F111F40E050E0400F511F0E948D
:10138000031BB8010C2D10E0F801EC5DF84F008153
:1013900010E0000F111F40E050E0400F511F0E946D
:1013A000031B601B710B8B0120E030E0E1E0F7E0F4
:1013B00000831183228333830C2D10E0F801EB5D51
:1013C000F84F008110E0000F111FF801E352F94FB0
:1013D000008111812C2D30E0F901EC5DF84F208166
:1013E00030E0220F331FF901E352F94F20813181A0
:1013F000021B130B20E030E0EDE0F7E000831183E7
:10140000228333834AE050E060E070E0EDEFF6E0E5
:1014100000811181228133810E944E1BC801D901B4
:10142000E1E0F7E00081118122813381E5EFF6E010
:1014300040815181628173810E944E1BA801B901D4
:101440000DEE13E020E030E00E944E1B2801390130
:1014500044E650E060E070E0EDE0F7E000811181EB
:10146000228133810E944E1BA801B90182019301A0
:101470000E946E1B800F911FA21FB31F8B5F9F4F97
:10148000AF4FBF4F8C019D014AE050E060E070E03B
:101490000E946E1BE9E1F7E000831183228333830E
:1014A000E9E1F7E00081118122813381800E911EF4
:1014B000A21EB31ED1C00C2D10E0F801EB5DF84F59
:1014C000008110E0000F111F40E050E0400F511F5D
:1014D0000E94031BB801FF24F701EB5DF84F008168
:1014E00010E0000F111F40E050E0400F511F0E941C
:1014F000031B601B710B8B0120E030E0EDEFF6E089
:1015000000831183228333830C2D10E0F801EB5DFF
:10151000F84F008110E0000F111F40E050E0400F35
:10152000511F0E94031BB8010C2D10E0F801EC5D67
:10153000F84F008110E0000F111F40E050E0400F15
:10154000511F0E94031B601B710B8B0120E030E0D8
:10155000E1E0F7E000831183228333830C2D10E058
:10156000F801EB5DF84F008110E0000F111FF8014A
:10157000E352F94F008111812C2D30E0F901EC5D2F
:10158000F84F208130E0220F331FF901E352F94F69
:1015900020813181021B130B20E030E0EDE0F7E009
:1015A00000831183228333834AE050E060E070E0DF
:1015B000EDEFF6E000811181228133810E944E1B04
:1015C000C801D901E1E0F7E0008111812281338176
:1015D000E9EFF6E040815181628173810E944E1BE8
:1015E000A801B90106EE13E020E030E00E944E1B96
:1015F0002801390144E650E060E070E0EDE0F7E0FA
:1016000000811181228133810E944E1BA801B90102
:10161000820193010E946E1B801B910BA20BB30BE6
:101620008E5E9F4FAF4FBF4F8C019D014AE050E04F
:1016300060E070E00E946E1BE9E1F7E00083118337
:1016400022833383E9E1F7E0008111812281338134
:10165000800E911EA21EB31EE394C394DACD4AE01D
:1016600050E060E070E0840195010E944E1B4E2D19
:1016700050E060E070E00E946E1B0B5F1F4F2F4F29
:101680003F4F4AE050E060E070E00E946E1B009324
:101690003207109333070091320710913307000F80
:1016A000111F000F111F0E949E0300912B0706308F
:1016B00010F41C9801C01C9A0FEF19E628E10150A4
:1016C00010402040E1F700C000001D9801E00093A9
:1016D0002F0706E00093D7068E010E94DA0308E088
:1016E0000093DC0608E813E10093DA061093DB06AA
:1016F0008E010E94DF034DED56E0209131070091ED
:101700003207109133070E9474022496E0E10C9492
:10171000F01B9A938A93902F812F182F092F98D915
:101720008991999108951D9A01E00093D706089533
:101730009A938A93902F812F182F092FAFD98991CF
:10174000999108951D9A02E00093D70600E010E0F9
:101750000E949E03089505E310E00E94071C980173
:10176000012B39F089010CD000933507109336070F
:10177000089500E010E000933507109336070895B0
:10178000BA93AA93D8010DE010E00E94071C9801BB
:101790008901232B41F063E050E040E030E027E690
:1017A0000E946E1702C000E010E09B960D931C9300
:1017B0009C970DE010E00E94071C0801012B49F0E6
:1017C00062E050E040E031E027E680010E946E17C1
:1017D00002C000E010E09D960D931C939E970DE0D3
:1017E00010E00E94071C0801012B49F061E050E065
:1017F00040E032E027E680010E946E1702C000E060
:1018000010E09F960D931C93D0970DE010E00E947E
:10181000071C0801012B49F060E050E040E033E094
:1018200027E680010E946E1702C000E010E0D1960A
:101830000D931C93D29700E00C9300E011960C934B
:10184000119700E093960C93939792960C9392972E
:101850008D01A991B99108950E94EB1BD8019B9627
:101860000D911C919C970E947518802F9D960D914B
:101870001C919E970E947518902F9F960D911C9118
:10188000D0970E947518892B802BD1960D911C91B1
:10189000D2970E947518802BD4968C93D497D496A7
:1018A0000C91D497D3961C91D397011791F00C917A
:1018B000043118F40C9103950C930C91043178F0D9
:1018C000D4960C91D497D3960C93D39700E00C93B5
:1018D00006C00C91013018F00C910A950C93E4E0CD
:1018E0000C94FC1B9A938A93C8018C01B5DF8C0180
:1018F00003D0899199910895BA93AA93D801FD01D3
:1019000003A910E0F801E056FF4F0491FD0102A782
:10191000FD0101810023B1F1FD0103A90F3031F177
:10192000FD0104A115A10C3D25E0120738F4FD01CD
:1019300004A115A10F5F1F4F04A315A3FD0104A16E
:1019400015A10C3D25E0120780F1FD0106A104362A
:1019500028F4FD0106A1039506A327C000E0FD01C0
:1019600006A3FD0122A58D0127D01FC000E010E0D5
:10197000FD0104A315A300E0FD0106A300E0FD01A5
:10198000018313C0FD0103A90F3079F001E0FD01CF
:101990000183FD0122A58D010FD000E010E0FD01C3
:1019A00004A315A300E0FD0106A3A991B991089530
:1019B000A8012F71022F08950E94EB1BD801922FCE
:1019C0000FB7FD0107A3F894FD0123A123958D0115
:1019D000EFDF802FFD0102A1801741F0082F10E0FA
:1019E000FD01E00FF11F9283FD0183A3FD0107A11B
:1019F0000FBFE4E00C94FC1B0E94E91B2801D901F5
:101A000080E00FB7F20100A7F894F20103A1F20100
:101A100012A1011781F081E0F20122A12395820138
:101A2000C7DFF20102A3F20102A110E0F201E00F10
:101A3000F11F02810C93F20100A50FBF082FE6E011
:101A40000C94FA1BF8011FB711A7F89413A122A157
:101A5000121738F410E222A1121B23A1120F012F3A
:101A600004C013A122A1121B012F11A51FBF0895AD
:101A70000091350710913607E5DF08959A938A9310
:101A8000C8019C010091350710913607B5DF899197
:101A900099910895009135071091360723DF089535
:101AA0009A938A93C8018C010FD08C011FD08C01AE
:101AB0003BD08C0102D240EB50E020E08C01DAD127
:101AC0008C018991999108952FE02ABB2FE02BBBBF
:101AD000D49ADC9AD59ADD9A4FEF59E668E14150E5
:101AE00050406040E1F700C00000089520E0F80198
:101AF00023A7F80122A7F80100A711A720E0F80109
:101B000025A720E030E0F80120A331A320E030E059
:101B1000F80122A333A320E0F80126A720E030E05B
:101B2000F80126A337A308959A938A93C8010FEF6B
:101B300013EF21E0015010402040E1F700C0000009
:101B400028E28C01CDD00FE31FE101501040E9F7EE
:101B500000C0000028E28C01C3D00FE31FE1015058
:101B60001040E9F700C000002CE08C01B9D021E062
:101B70008C01B6D00FE31FE101501040E9F700C01F
:101B8000000026E08C01ACD022E08C01A9D00FE34C
:101B90001FE101501040E9F700C0000020E88C016F
:101BA0009FD08991999108950E94EB1BD801FD0166
:101BB00006A117A10F5F1F4F06A317A3FD0106A1E2
:101BC00017A1003024E0120728F000E010E0FD012A
:101BD00006A317A3FD0100A511A50F5F1F4F00A7C6
:101BE00011A7FD0103A5039503A7FD0103A500317E
:101BF00010F100E0FD0103A7FD0102A5039502A776
:101C0000FD0102A5023051F400E0FD0102A7FD0133
:101C1000A0A7B1A720E88D0163D009C08D01005FA6
:101C20001F4FFD0100A711A720EC8D0159D008EC32
:101C300000000A95E9F7FD0102A50023C9F4FD01A2
:101C400020A131A1FD0143A501E010E00E94341B59
:101C500020233123232B49F0FD0106A117A10130D8
:101C600022E0120710F001E001C000E0802F18C050
:101C7000FD0122A133A1FD0143A501E010E00E9476
:101C8000341B20233123232B49F0FD0106A117A18A
:101C9000013022E0120710F001E001C000E0802FC7
:101CA000FD0100A511A5F8010081FD0104A7FD01BA
:101CB00004A5013848F0FD0104A510E0F801E85C36
:101CC000FF4F0491FD0104A7882319F000E2FD01F4
:101CD00004A7FD0124A58D011FD0E4E00C94FC1B9A
:101CE0000E94EC1BC801A22F0FB700933707F8948E
:101CF00008EC00000A95E9F7DD9B05C0DD9808ECCB
:101D000000000A95E9F72A2F8C0122D000913707AD
:101D10000FBFE3E00C94FD1B0E94EC1BC801A22F37
:101D20000FB700933807F89408EC00000A95E9F71C
:101D3000DD9905C0DD9A08EC00000A95E9F72A2F25
:101D40008C0106D0009138070FBFE3E00C94FD1B17
:101D50004BB3407F322F32953F70432B4BBBDC9A05
:101D6000000000000000DC980000000000004BB301
:101D7000407F322F3F70432B4BBBDC9A00000000AA
:101D80000000DC9808950E94EA1BC8010FB7402E9E
:101D9000F89420E48C01A4DF0FE91FE0015010400B
:101DA000E9F700C00000A0E0A03160F4B0E0FD0160
:101DB000E85CFE4F24918C01AFDF00E50A95F1F756
:101DC000A395F2CF20E88C018BDF0FE91FE00150D3
:101DD0001040E9F700C000004FBEE5E00C94FB1B8B
:101DE000203208F020E0422F50E0F801E40FF51F08
:101DF00030830895BA931A2EF801622F532F603260
:101E000008F060E070E0DF01A60FB71F5C9360315F
:101E100030F48F01005E1F4F9801062E07C08F011E
:101E20000E5D1F4F9801062F0051002E06A50130B0
:101E300080F0402D01E010E00E94341BD9012D906C
:101E40003C90202A312A3C922E9206A50A9506A79C
:101E50000EC0402D01E010E00E94341B009510954B
:101E6000D9012D903C90202231223C922E92A12D1E
:101E7000B9910895FA013491632F662379F02032E5
:101E800008F020E030E0F801E20FF31F60832395B3
:101E90004F5F5F4FFA013491632FEFCF089520E039
:101EA00030E0F80120A331A320E030E0F80122A3C4
:101EB00033A320E0F80126A708959A938A93C801D6
:101EC00000E0003240F420E210E0FC01E00FF11FDE
:101ED00020830395F6CF8C01E2DF899199910895D3
:101EE0000E94E61B2801B22F632ECA010B2F060D9C
:101EF0000A95A02F77247614F8F44AE050E08C017C
:101F00000E943A1B842EAA230AF4AFE1A0320CF0FF
:101F1000A0E0282D205D0A2F102F110F110BF201C8
:101F2000E00FF11F2083AA954AE050E08C010E9447
:101F30003A1BC8017394DFCFE9E00C94F71B0E94B1
:101F4000E61BD801522E832ECA01052D080D0A95D5
:101F5000402E7724781488F54AE050E08C010E94E6
:101F60003A1B642E442012F40FE1402E00E240168A
:101F70000CF04424772019F001E0601660F0262D63
:101F8000205D042D102F110F110BFD01E00FF11F2B
:101F900020834A940AC020E2042D102F110F110B48
:101FA000FD01E00FF11F20834A944AE050E08C01CC
:101FB0000E943A1BC8017394CDCFE9E00C94F71B43
:101FC0000E94630242ED54E034E020E00091C80634
:101FD0001091C9060E94700F78940FEF13ED20E363
:101FE000015010402040E1F700C000000091C806F9
:101FF0001091C9060E94C30E0E948B030E94061016
:102000000E9427060E94D316FBCF0895219701E076
:10201000009339078E010E94DA0300E010E020E00F
:1020200030E0E3ECF6E00083118322833383E3ECBA
:10203000F6E00081118122813381ECE3F7E0008337
:102040001183228333838E010E94DF030091C8062F
:102050001091C9060E945D0F4FE152E020E000910F
:10206000C8061091C9060E943A0F4AE252E020E1E8
:102070000091C8061091C9060E943A0F2196089552
:102080008A9380E0863008F041C0082F10E0000FEE
:10209000111FF801E553F94F008111810E94CD19FC
:1020A000002351F030E2282F265E0091C8061091DF
:1020B000C9060E94FA0E10C001E0E091C806F09136
:1020C000C90606A7382F3F5C282F265E0091C80658
:1020D0001091C9060E94FA0E082F10E0000F111F80
:1020E000F801E553F94F008111810E94CD190023B9
:1020F00011F431E001C030E0282F265F0091C806BE
:102100001091C9060E94F00E8395BCCF0091D706AE
:10211000002329F00091D706013009F002D08991FF
:1021200008958A9321978E010E94DA0300E010E05F
:1021300020E030E0E3ECF6E0008311832283338378
:10214000E3ECF6E00081118122813381ECE3F7E0DA
:1021500000831183228333838E010E94DF03009169
:10216000C8061091C9060E945D0F02E0009339076E
:1021700045E352E020E00091C8061091C9060E9494
:102180003A0F01E00093C70620D080E08630D0F4FB
:10219000082F10E0000F111FF801E553F94F0081DF
:1021A00011810E94CD19002311F431E001C030E00B
:1021B000282F265F0091C8061091C9060E94F00ED4
:1021C0008395E4CF2196899108958A9300912E07F3
:1021D000002321F40091C706002301F100E00093E1
:1021E0002E0780E08630D0F4082F10E0000F111F7A
:1021F000F801E553F94F008111810E94CD190023A8
:1022000011F431E001C030E0282F265F0091C806AC
:102210001091C9060E94F00E8395E4CF00912F071C
:10222000002329F40091C706002309F484C000E0CC
:1022300000932F070091320710913307012BB9F457
:102240000091C706002399F44BE452E020E000918E
:10225000C8061091C9060E943A0F46E552E020E1F7
:102260000091C8061091C9060E943A0F3BC045E391
:1022700052E020E00091C8061091C9060E943A0F72
:1022800040E452E020E10091C8061091C9060E9486
:102290003A0F48EE53E000913207109133070E9445
:1022A0003A1B302F305D24E10091C8061091C90619
:1022B0000E94F00E3EE225E10091C8061091C90689
:1022C0000E94F00E48EE53E0009132071091330760
:1022D0000E943A1B33E026E10091C8061091C9061E
:1022E0000E94700F80E0863030F520913107482F32
:1022F00001E010E00E94341B2023222389F001E03A
:10230000E091C806F091C90606A7382F3F5C282F38
:10231000265E0091C8061091C9060E94FA0E09C0F7
:1023200030E2282F265E0091C8061091C9060E944F
:10233000FA0E8395D8CF0091D706043049F441E6D0
:1023400052E020E10091C8061091C9060E943A0FA0
:1023500000E00093C7068991089521978E010E949D
:10236000DA0300E315E720E030E0E3ECF6E0008379
:10237000118322833383E3ECF6E000811181228113
:102380003381ECE3F7E000831183228333838E01F2
:102390000E94DF030091390700933A0703E000939E
:1023A000390700E00093490700E0053040F420E0E1
:1023B00010E0F801EC5BF84F20830395F6CF009115
:1023C000C8061091C9060E945D0F42E752E020E066
:1023D0000091C8061091C9060E943A0F02D02196BA
:1023E00008958A9380E080E000914907801788F47F
:1023F00000E0E091C806F091C90606A73AE2282F4E
:10240000205F0091C8061091C9060E94FA0E8395BC
:10241000EBCF009149070530B8F401E0E091C80620
:10242000F091C90606A70091490710E0F801EC5B9E
:10243000F84F3081305D20914907205F0091C80638
:102440001091C9060E94FA0E8991089500914907DA
:1024500010E0F801EC5BF84F0081002349F409E03B
:102460002091490730E0F901EC5BF84F008309C087
:102470000091490710E0F801EC5BF84F00810A95E4
:102480000083AFDF08950091490710E0F801EC5B8D
:10249000F84F0081093048F000E02091490730E012
:1024A000F901EC5BF84F008309C00091490710E087
:1024B000F801EC5BF84F00810395008392DF0895EB
:1024C0009A938A93009149070395009349070091D5
:1024D0004907053080F40091490710E0F801ED5BF1
:1024E000F84F20810091490710E0F801EC5BF84FAC
:1024F000208377DF2AC081E091E020E02530F0F4EE
:1025000030E04DE050E0420F531F0E94001B30E0CE
:10251000F901EC5BF84F1081011709F080E030E021
:10252000F901E65EFD4F049130E0F901EC5BF84FF4
:102530001081011709F090E02395E0CF082F092BB7
:10254000002311F078D001C019D089919991089594
:1025500000914907013008F001D0089540913A07F1
:1025600050E00EE010E00E942C1BF801EC5AFE4FE8
:10257000059114913197F80109950895219704E088
:10258000009339070091C8061091C9060E945D0F9B
:1025900042E852E020E00091C8061091C9060E946E
:1025A0003A0F8E010E94DA0300E010E020E030E0F4
:1025B000E3ECF6E00083118322833383E3ECF6E05F
:1025C0000081118122813381ECE3F7E000831183E4
:1025D0002283338300E315E700934A0710934B07E8
:1025E0008E010E94DF03219608959A938A93219782
:1025F0008E010E94DA0300914A0710914B07C8012F
:102600008E010E94DF03823000E0900778F048EEF0
:1026100053E08C010E943A1BA80132E020E10091B6
:10262000C8061091C9060E949F0F01C097DF21962E
:10263000899199910895219705E0009339070091B8
:10264000C8061091C9060E945D0F8E010E94DA0330
:1026500000E21FEB22E030E0E3ECF6E000831183C0
:1026600022833383E3ECF6E0008111812281338100
:10267000ECE3F7E000831183228333838E010E9411
:10268000DF0342E952E020E00091C8061091C9063C
:102690000E943A0F00E000934C0702D02196089563
:1026A00040914C0750E001E110E00E942C1B48E9EA
:1026B00052E0400F511F20E10091C8061091C90659
:1026C0000E943A0F08954ADF089500914C070130A7
:1026D00028F000914C070A9500934C07E1DF08951C
:1026E00000914C07073028F400914C0703950093A4
:1026F0004C07D6DF089500914C07063011F40DD039
:10270000089500914C07063010F421D108950091EE
:102710004C07073009F44DD20895219706E0009345
:1027200039078E010E94DA0300E61AEE20E030E05D
:10273000E3ECF6E00083118322833383E3ECF6E0DD
:102740000081118122813381ECE3F7E00083118362
:10275000228333838E010E94DF030091C80610910B
:10276000C9060E945D0F40E253E020E00091C806D8
:102770001091C9060E943A0F00E0053040F420E0B5
:1027800010E0F801EC5BF84F20830395F6CF00E0F2
:102790000093490704D0219608954DDF08959A9338
:1027A0008A9380E0009149078017B0F400E0E0913F
:1027B000C806F091C90606A790E0FC01EC5BF84F53
:1027C0003081305D282F205F0091C8061091C90626
:1027D0000E94FA0E8395E6CF009149070530B8F4C0
:1027E00001E0E091C806F091C90606A700914907EB
:1027F00010E0F801EC5BF84F3081305D2091490723
:10280000205F0091C8061091C9060E94FA0E8991B6
:10281000999108950091490710E0F801EC5BF84F99
:102820000081002349F409E02091490730E0F901D3
:10283000EC5BF84F008309C00091490710E0F801F4
:10284000EC5BF84F00810A950083A9DF08950091A1
:10285000490710E0F801EC5BF84F0081093048F0BF
:1028600000E02091490730E0F901EC5BF84F00836C
:1028700009C00091490710E0F801EC5BF84F0081B6
:10288000039500838CDF0895009149070430A8F474
:10289000009149070395009349070091490710E00B
:1028A000F801ED5BF84F20810091490710E0F80135
:1028B000EC5BF84F208373DF089501D008952197D2
:1028C00007E0009339078E010E94DA0300E61AEE52
:1028D00020E030E0E3ECF6E00083118322833383D1
:1028E000E3ECF6E00081118122813381ECE3F7E033
:1028F00000831183228333838E010E94DF030091C2
:10290000C8061091C9060E945D0F4EE253E020E117
:102910000091C8061091C9060E943A0F21960895A9
:102920008ADE089588DE089520E0253070F430E0D6
:10293000F901EC5BF84F008130E04DE050E0420FD0
:10294000531F0E94111B2395F0CF08DE0895219795
:1029500008E00093390700914C0710E0000F111FA9
:1029600040E050E0400F511F0E94031B00934D07B1
:1029700010934E0703E000934F070091C806109193
:10298000C9060E945D0F4AE353E020E00091C806AB
:102990001091C9060E943A0F30914C073F5C2DE020
:1029A0000091C8061091C9060E94FA0E1ED08E0131
:1029B0000E94DA0300EC14ED21E030E0E3ECF6E0F5
:1029C0000083118322833383E3ECF6E000811181DD
:1029D00022813381ECE3F7E0008311832283338388
:1029E0008E010E94DF03219608950E94EA1B009148
:1029F0004D0710914E07C801A0E0A43060F503E038
:102A00000A1B402E4AE050E08C010E943A1BB42F72
:102A100000914F070A1739F401E0E091C806F091E0
:102A2000C90606A706C000E0E091C806F091C906F5
:102A300006A73B2F305D242D205F0091C806109122
:102A4000C9060E94FA0E4AE050E08C010E943A1B2F
:102A5000C801A395D2CFE5E00C94FB1BECDD0895F3
:102A60000E94EB1BA1E0B0E020E000914F0720178F
:102A700040F40AE010E0AD010E942C1BD801239520
:102A8000F4CFAD0100914D0710914E070E943A1B03
:102A90004AE050E00E943A1B842F813040F0EDE480
:102AA000F7E0008111810A1B1B0B008311839DDF5E
:102AB000E4E00C94FC1B0E94EB1BA1E0B0E020E0E2
:102AC00000914F07201740F40AE010E0AD010E948A
:102AD0002C1BD8012395F4CFAD0100914D07109127
:102AE0004E070E943A1B4AE050E00E943A1B842F96
:102AF000893040F4EDE4F7E0008111810A0F1B1FDB
:102B00000083118372DFE4E00C94FC1B00914F07FB
:102B1000013038F000914F070A9500934F0765DFA9
:102B2000089501D00895219709E000933907009195
:102B3000C8061091C9060E945D0F48E453E020E1E9
:102B40000091C8061091C9060E943A0F8E010E949A
:102B5000DA0300E315E720E030E0E3ECF6E0008381
:102B6000118322833383E3ECF6E00081118122811B
:102B70003381ECE3F7E000831183228333838E01FA
:102B80000E94DF032196089556DD089554DD0895CF
:102B900000914D0710914E0720914C0730E0220F15
:102BA000331F40E050E0420F531F0E94151B43DDCE
:102BB000089521974CE050E00E94001B00935007BD
:102BC0000AE0009339070091C8061091C9060E94D7
:102BD0005D0F44E553E020E00091C8061091C9065E
:102BE0000E943A0F42E653E020E10091C80610919E
:102BF000C9060E943A0F1ED08E010E94DA0300EC33
:102C000014ED21E030E0E3ECF6E000831183228351
:102C10003383E3ECF6E00081118122813381ECE320
:102C2000F7E000831183228333838E010E94DF0348
:102C3000219608954AE0009150070E941E1B4AE029
:102C40000E941E1B405D342F2DE00091C80610919C
:102C5000C9060E94FA0E3EE22EE00091C8061091CD
:102C6000C9060E94FA0E4AE0009150070E941E1BFE
:102C7000405D342F2FE00091C8061091C9060E94D4
:102C8000FA0E0895D8DC089500915007003120F421
:102C90000FE00093500705C0009150070A9500937C
:102CA0005007C8DF089500915007093120F009E16D
:102CB0000093500705C000915007039500935007FB
:102CC000B9DF089501D0089521970BE000933907EB
:102CD0000091C8061091C9060E945D0F44E553E0BB
:102CE00020E00091C8061091C9060E943A0F43E700
:102CF00053E020E10091C8061091C9060E943A0FE6
:102D00008E010E94DA0300E315E720E030E0E3ECF7
:102D1000F6E00083118322833383E3ECF6E0008145
:102D2000118122813381ECE3F7E000831183228358
:102D300033838E010E94DF03219608950FDC0895EE
:102D4000009150074CE050E00E94111B07DC0895F1
:102D5000ECE3F7E00081118122813381023040E011
:102D6000140740E0240740E0340770F0ECE3F7E09C
:102D70000081118122813381015010402040304078
:102D80000083118322833383E0914A07F0914B073C
:102D9000329740F0EAE4F7E00081118101501040E1
:102DA00000831183089523970E94380D013008F4A1
:102DB00040C00BE317E00E943E0D8E010E5F1F4FD7
:102DC0000E94DA03ECE3F7E0008111812281338174
:102DD000023040E0140740E0240740E0340760F090
:102DE000E3ECF6E00081118122813381ECE3F7E02E
:102DF00000831183228333838E010E5F1F4F0E9455
:102E0000DF034091390750E00EE010E00E942C1BD8
:102E1000E8E4F1E0E00FF11F00913B0710E0000F44
:102E2000111FE00FF11F059114913197F8010995D9
:102E300053C08E010F5F1F4F0E94DA03ECE3F7E0EF
:102E40000081118122813381E0E4F7E00083118366
:102E5000228333838E010F5F1F4F0E94DF03E0E464
:102E6000F7E00081118122813381013040E01407B5
:102E700040E0240740E0340701F58E010E94DA03A8
:102E800000E010E020E030E0ECE3F7E000831183A5
:102E9000228333838E010E94DF034091390750E083
:102EA0000EE010E00E942C1BF801EE5AFE4F059137
:102EB00014913197F80109950FC04091390750E0FE
:102EC0000EE010E00E942C1BF801E85BFE4F05911C
:102ED00014913197F8010995239608950E94E81BF3
:102EE000C801622E532E442EB52FA62F6A2F5B2FBA
:102EF000442D352D262D8C0104D08C01E7E00C9457
:102F0000F91B0E94E81BD801622E832F542E452EF8
:102F1000962F062DE0E8F0E0FBBFF3E00C949A1B3F
:102F200009E3FD0105830AE3FD0104830BE3FD01D1
:102F300006838CC009E3FD0105830AE3FD010483D8
:102F40000BE3FD01068382C006E3FD01058307E371
:102F5000FD01048308E3FD01068378C006E3FD015B
:102F6000058307E3FD01048308E3FD0106836EC0CA
:102F700003E3FD01058304E3FD01048305E3FD0193
:102F8000068364C003E3FD01058304E3FD010483BC
:102F900005E3FD0106835AC000E3FD01058301E35B
:102FA000FD01048302E3FD01068350C000E3FD013F
:102FB000058301E3FD01048302E3FD01068346C0AE
:102FC00001E2FD01058302E2FD01048303E2FD014C
:102FD00006833CC001E2FD01058302E2FD0104839A
:102FE00003E2FD01068332C000E2FD01058301E634
:102FF000FD01048302E6FD01068328C000E2FD0115
:10300000058301E6FD01048302E6FD0106831EC07F
:1030100003E6FD01058304E6FD01048305E6FD01E9
:10302000068314C003E6FD01058304E6FD01048365
:1030300005E6FD0106830AC003E3FD01058304E301
:10304000FD01048305E3FD01068383E0883040F43D
:10305000482F01E010E00E94341BFD01078303C0EC
:1030600001E0FD010783552051F0FD011781FD01AD
:103070000481E02FF0E00081012B00830AC0FD01F4
:1030800017811095FD010481E02FF0E000810123FC
:103090000083FD011781FD010681E02FF0E0008132
:1030A000012B008300E010E0FD01018712870D93E2
:1030B0001C93119700E0FD010283FD0143828D0105
:1030C0000D5F1F4FFD0103871487983040F4492F8F
:1030D00001E010E00E94341BFD01008703C001E005
:1030E000FD010087E7E00C94F91BF8012581E22F30
:1030F000F0E02081F80137812323222319F0F80121
:103100000085089500E008950E94E71BD801722E03
:10311000832F642E2B01952FFD019183FD014382A6
:103120005482FD01658200E00C93072DEEEAF0E089
:10313000FBBFF3E00C949A1B09E3FD0107830AE34C
:10314000FD0106830BE3FD0100878CC009E3FD014F
:1031500007830AE3FD0106830BE3FD01008782C0BC
:1031600006E3FD01078307E3FD01068308E3FD0194
:10317000008778C006E3FD01078307E3FD010683AE
:1031800008E3FD0100876EC003E3FD01078304E34C
:10319000FD01068305E3FD01008764C003E3FD0133
:1031A000078304E3FD01068305E3FD0100875AC0A0
:1031B00000E3FD01078301E3FD01068302E3FD0156
:1031C000008750C000E3FD01078301E3FD01068392
:1031D00002E3FD01008746C001E2FD01078302E230
:1031E000FD01068303E2FD0100873CC001E2FD0111
:1031F000078302E2FD01068303E2FD01008732C07E
:1032000000E2FD01078301E6FD01068302E6FD0100
:10321000008728C000E2FD01078301E6FD01068367
:1032200002E6FD0100871EC003E6FD01078304E6F8
:10323000FD01068305E6FD01008714C003E6FD01DC
:10324000078304E6FD01068305E6FD0100870AC049
:1032500003E6FD01078304E6FD01068305E6FD01A3
:10326000008784E0883008F080E0482F01E010E01B
:103270000E94341BFD010187FD0111851095FD01A0
:103280000681E02FF0E0008101230083FD0111851C
:10329000FD010085E02FF0E01083FD010781E02FA4
:1032A000F0E00081FD0111850123002311F001E010
:1032B00001C000E01C910127FD010287FD0102858C
:1032C000002329F0FD010581FD01038703C000E013
:1032D000FD0103878D01E8E00C94F81BBA93AA93D3
:1032E000D801FD010781E02FF0E00081FD0111858B
:1032F00001231C910127002349F1FD010385FD01F4
:103300001581011720F4FD01038503950387FD0155
:103310000385FD0115810117E8F1FD0102850023F8
:10332000C9F501E0FD010287FD012381348100E040
:1033300010E02017310771F1FD011181FD010285B7
:103340001396ED91FC911497099524C0FD01038516
:10335000013020F0FD0103850A950387FD010385F7
:103360000023C1F4FD0102850023A1F000E0FD016E
:103370000287FD012381348100E010E0201731072E
:1033800049F0FD011181FD0102851396ED91FC913B
:1033900014970995A991B9910895F80102850895A6
:1033A00028E630E08901012F10E000939000022F01
:1033B00009B900E000939500009195000F7E0093FD
:1033C0009500009195000F7D009395000091950068
:1033D00002600093950000919500046000939500B1
:1033E000529800919500077F0093950000E00093AC
:1033F000DA070093D9070093D8070093D707009303
:10340000D6070093D507009354070093530700E0B5
:103410000AB9579A549A539A569A0895FA93EA9386
:103420005A934A933A932A931A930A934FB75BB7E6
:103430000CB1202FE3E5F7E00081017003950170E6
:10344000302F00915407301721F401E00093D80782
:1034500011C000E00093D807309353070091530741
:1034600010E0F801EF5AF84F20830091D707039539
:103470000093D7075BBF4FBF0991199129913991EB
:1034800049915991E991F9911895FA93EA934A93E0
:103490003A932A931A930A933FB74BB71091D507E3
:1034A0002091D6071217A1F01091D60713951F7718
:1034B000012F0093D607509A10E0F801EB5AF84F0D
:1034C00010811CB91091D9071A951093D90704C01F
:1034D000559810E01093D9074BBF3FBF0991199140
:1034E000299139914991E991F9911895402F1FB788
:1034F000512FF8941091D50713951F77212F109114
:10350000D607211729F411E01093DA0700E00EC066
:1035100030E0F901EB5AF84F40832093D507559AD4
:103520001091D90713951093D90701E05FBF089553
:1035300020E030E000E10E94A11A01E010E00C94CC
:10354000A21A08952297C801888399839E0101E0F9
:103550000E94A11AF9CF0C94A21A0E94E41B480100
:10356000A22EDA01962F82E024016A2C0BC002E021
:10357000400E511E611E823099F002E0400E00E0C4
:10358000501E601E4A165B06690689F0F2016BBE8A
:103590004791569110E04030504049F3823069F332
:1035A000F2016BBE0791F691E02F0995E6CF8A955F
:1035B000D9F6EBE00C94F51B0FEB0DBF05E00EBF49
:1035C000C0E6D1E00E94051C002311F00E94361CC9
:1035D0000CED13E020E040EE53E060E00E94AD1AF5
:1035E0000E94E00F0E941C1B0C94AB1AE199FECFC5
:1035F00008954F5F5F4FFADF4EBB5FBBE09A0895BF
:10360000FADF0DB30895F7DF0DB3F3DF1DB30895AF
:103610004F5F5F4F4EBB5FBBF894E29AE19A0FBEDB
:1036200008950FB6E3DF0DBBF5CF0FB6DFDF0DBB9F
:10363000F1DFDCDF1DBBECCF0C94AB1A0024E8E01B
:10364000EA9532F0001F001C0416D0F3041AF8CFDC
:10365000001F402D00950895149F102D059F100DFB
:10366000049F002D110D08954A951AF0000F111FA7
:10367000FBCF089500241124EFE0001F111F001C50
:10368000111C0416150610F0041A150AEA95AAF77B
:10369000001F111FA0010095109508952224349F4A
:1036A000302D259F300D169F300D079F300D249F24
:1036B000202D310D159F200D311D069F200D311D30
:1036C000149F102D210D321D059F100D211D321D3F
:1036D000049F002D110D221D321D08950024112478
:1036E0001001E0E2EA9592F0001F111F221F331F24
:1036F000001C111C221C331C041615062606370656
:1037000088F3041A150A260A370AECCF001F111F86
:10371000221F331FA001B10100951095209530950F
:1037200008957791679157914791179011FA2790D3
:1037300037900895F9DF041B10E003C0F4DF041B89
:10374000150B20E030E005C0ECDF041B150B260B49
:10375000370BB8F010FC17C047910790E00FF11F2E
:103760000417100540E02407340758F436F4069196
:103770000024F101E01BF0090994E00FF11F2790EC
:103780003790F101099411F4D6F7F1CF31960EF08C
:10379000319650E060E070E047914B3F48F089F38C
:1037A0004F3F29F04E3F11F0779167915791479124
:1037B000041B150B260B370B39F318F3E7CFFA92DE
:1037C000EA92DA92CA92BA92AA929A928A927A92D9
:1037D0006A925A924A92BA93AA939A938A930895B4
:1037E000FF84EE84DD84CC84BB84AA84998488849D
:1037F0007F806E805D804C80BB81AA8199818881A9
:10380000F0E0EC0FFD1FEF01089501E008959A9399
:103810008A93C80102C00E94241C8C010E94321DA0
:10382000202F012B69F4EBEDF7E02081318100E0DE
:103830002030300781F3E091DB07F32F0995EDCFBE
:10384000022F8991999108950C94981A20E008D03C
:10385000E9F708953BBF27913BB702D0D9F7089508
:103860002D9301501040202F212B089506E1402E6A
:103870000BE3502E00E0602EF201362D6BBE079157
:103880001691F201EE5FFF4F3F4F3BBFA791B691FC
:10389000F201362DEC5FFF4F3F4F3BBF47915791F1
:1038A0006691242F252B262B21F0FA01362FD2DF0B
:1038B00001C0CCDF07E0400E00E0501E601EA201F8
:1038C000662D44325B436040B8F20895EDEDF7E0B9
:1038D00000811181012B19F000E010E0089500E64D
:1038E00011E00083118320E034E0F801208331836C
:1038F00008950D01D801012B09F455C01297ED91DF
:10390000FC911197349708F44EC00FED17E0F801C1
:1039100053D019F0A217B30728F4FD012283338393
:10392000F80123C0F90148D019F02A173B07D0F35A
:10393000408151819F01240F351FA217B30798F1D1
:103940002A173B0741F42D913C91420F531F4083AE
:103950005183DF010CC030D021F027D02617370764
:1039600010F112962D933C931397A283B383FD011C
:1039700023D0C9F01AD062177307A9F420E0F80128
:1039800020832183FD010281F381E02F2081318199
:103990004D915C91420F531F5C934E9302811381B2
:1039A000FD0102831383D00108954D915C9111971D
:1039B000BD01640F751F089522813381422F432B6F
:1039C00008959A938A93C80105C02E5F3F4F8901DD
:1039D0000E94791CEFEDF7E000811181202F212B4F
:1039E00061F401EE17E001C037D029D0F1F02ED0FC
:1039F000D8F322C02BD000F52FD021D0D9F7EFED8E
:103A0000F7E00081F181E02F1ED001EE17E007C042
:103A1000FA01408151814817590770F41DD0F8010F
:103A2000408151814217530799F70E94661C980103
:103A3000012B59F600E010E089919991089502D088
:103A4000232B0895F801208131810895E081F32F1F
:103A5000FADF281739070895F801008111810E5FF8
:103A60001F4F08950E94EB1BC80102960817190703
:103A700018F000E010E047C0843000E0900710F438
:103A800084E090E08C019DDF202F212B91F3DADF81
:103A9000F901A081B1811497A817B90730F42281E8
:103AA0003381D8012D933C9316C0280F391FD801BC
:103AB0002D933C934281538129D04D935C93408157
:103AC0005181481B590BD8012D91BC91A22F4D93C8
:103AD0005C9380839183D8012D913C91232B59F0E5
:103AE00015D02D913C91232B31F0D8010D911C91D3
:103AF0000E5F1F4F02C000E010E0AFEDB7E00D9386
:103B00001C9332968F01E4E00C94FC1BD8012D919C
:103B1000D901129608951B01C8060000000801C0D3
:103B200005243B0000316253C4F5A697B988DBEA4F
:103B30007D4C1F2E4372211087B6E5D4FACB98A98D
:103B40003E0F5C6D86B7E4D5427320113F0E5D6C6D
:103B5000FBCA99A8C5F4A796013063527C4D1E2F6D
:103B6000B889DAEB3D0C5F6EF9C89BAA84B5E6D73D
:103B7000407122137E4F1C2DBA8BD8E9C7F6A5944D
:103B800003326150BB8AD9E87F4E1D2C023360514D
:103B9000C6F7A495F8C99AAB3C0D5E6F417023122D
:103BA00085B4E7D67A4B1829BE8FDCEDC3F2A1901D
:103BB0000736655439085B6AFDCC9FAE80B1E2D30D
:103BC00044752617FCCD9EAF38095A6B45742716ED
:103BD00081B0E3D2BF8EDDEC7B4A192806376455ED
:103BE000C2F3A0914776251483B2E1D0FECF9CADFD
:103BF0003A0B586904356657C0F1A293BD8CDFEECD
:103C000079481B2AC1F0A3920534675678491A2BCC
:103C1000BC8DDEEF82B3E0D1467724153B0A5968AC
:0C3C2000FFCE9DAC0101005046000001E9
:0400000300000000F9
:00000001FF
