:020000020000FC
:100000000C94E92E1895189518951895189518952B
:100010001895189518951895189518951895189578
:10002000189518950C944A021895189518951895D6
:100030001895189518951895189518950C94C70249
:1000400018951895189518950C940E2E0C94452E0D
:100050001895189518951895189518951895189538
:100060001895189518951895189518951895189528
:100070001895189518951895189518951895189518
:100080001895189518951895189518954A1AE60315
:10009000E6035C1AD204E603E0043305E6034C05EC
:1000A000C10565053212E603E603E603E603E6034F
:1000B000E603E603E603E603E603E60301020103C3
:1000C000010201040102010301020100474D206306
:1000D0006F646500D9DA20202020202020202020F5
:1000E0002020202020202020202020202020202010
:1000F0002020202020202020202020202020202000
:1001000020202020A2B520202020202020202020D8
:100110002020202041A042A1E045A3A4A5A64BA7F2
:100120004D484FA8504354A9AA58E1ABACE2ADAE3C
:1001300062AFB0B161B2B3B4E365B6B7B8B9BABB38
:10014000BCBD6FBE7063BF79E478E5C0C1E6C2C3D1
:10015000C4C5C6C70609090600000000060F0F0641
:1001600000000000E720E720E720E720E720E72065
:10017000E7202121E620E620E620E620E620E72011
:10018000AF218822E620E620E620E6207A21E6203C
:10019000832301231E233B2389238822D023E620A7
:1001A000E620E620E620E62099232B2491249324C0
:1001B0009E24A9248923F623E620072544256125CA
:1001C0007E258923C724E620CA25CC25CE25E62016
:1001D00089239925E62068266A269526C026892344
:1001E000E125E620FE2600270227E6208923CD26EA
:1001F000FA277A21E620E620E620E620CE27E62030
:100200007A219527B12790278D271327E620F623FB
:10021000372A472A592A7A21D129E620E620942A2A
:100220008A2AE6207A21592AE620E620E620E620DE
:10023000E620E620E6200302040601537475636B92
:1002400020202020200053656E736F7273203A20A7
:10025000004C3D202020202020004572726F72202B
:1002600020200053656E736F72733A004C3D3F203F
:1002700020202020202020202020202000496E70D7
:1002800075742070617373776F72643A0050617394
:1002900073776F7264206572726F7221004D656EA4
:1002A000753A0044697374616E636520746F2053FE
:1002B0003120200044697374616E636520746F207F
:1002C000533220200044697374616E636520746F3B
:1002D00020533320200044697374616E6365207479
:1002E0006F20533420200044697374616E6365206D
:1002F000746F20533520200044697374616E636508
:1003000020746F20533620200044697374616E633B
:100310006520746F20533720200044697374616E28
:10032000636520746F205338202000446562756730
:100330002073637220737065656420004465627584
:1003400067206F757420444143202020005365745A
:1003500020256C6576656C20737065656400536557
:1003600074206E65772070617373776F72640053C9
:1003700065742070617373776F72643A00536176AD
:10038000653F20282D2F2B290044697374616E630B
:100390006520746F205300536176653F20282D2F10
:1003A0002B29004465627567204F757420444143D2
:1003B0000031363030306D6D2D32302E3030306DB2
:1003C0004100537562205370656564006C65766505
:1003D0006C3D3230302E302500536176653F202849
:0503E0002D2F2B290068
:1003E60041010A2C882B019C2B01B02B01C42B0147
:1003F600D82B01EC2B01002C1A7E2B01922B01A687
:100406002B01BA2B01CE2B01E22B01F62BFB41016E
:10041600262DA42C01B82C01CC2C01E02C01F42CA7
:1004260001082D011C2D1A9A2C01AE2C01C22C019B
:10043600D62C01EA2C01FE2C01122DFB8002681B32
:1004460000E005BD05B5086005BD05B50F7B05BD1A
:1004560005B50F7D05BD05B50F7E05BD05B50B7F41
:1004660005BD05B5026005BD05B5016005BD01D038
:10047600089500E004BD0CE703BD06B70F7706BF7D
:1004860006B70F7B06BF07B7006807BF08959A93A4
:100496008A93FA93EA933A922A921A920A927A9352
:1004A6006A935A934A933A932A931A930A938FB765
:1004B6009BB707B70F7707BF789400911D0A109175
:1004C6001E0A0E94911D0E94071D0E94962A0E94E4
:1004D600EE02CFDF9BBF8FBF099119912991399108
:1004E600499159916991799109901990299039907A
:1004F600E991F9918991999118950FE210E00E947E
:100506004D309801012B41F089010E940D1D009389
:100516001D0A10931E0A089500E010E000931D0ABC
:1005260010931E0A08950E9423020E94A7020E94A9
:10053600D02D0E943F030E94A10208950E94911AA5
:1005460008950E940204089503B7046003BF03B729
:100556000D7F03BF03B70E7F03BF03B70F7B03BF38
:1005660003B7086003BF03B70F7D03BF03B70F7E52
:1005760003BF03B70F7703BF00E002BF01E301BF6C
:1005860007B7026007BF08959A938A93FA93EA938E
:100596003A922A921A920A927A936A935A934A93B1
:1005A6003A932A931A930A938FB79BB70E94320302
:1005B6009BBF8FBF09911991299139914991599101
:1005C600699179910990199029903990E991F99159
:1005D6008991999118950895EFE1FAE000811181CA
:1005E6000F5F1F4F0083118300911F0A1091200A8D
:1005F600083823E1120790F100E010E000931F0A8B
:100606001093200A01E00093250A0091210A039520
:100616000093210A0091210A0C3300F100E00093B7
:10062600210A0091220A03950093220A0091220AC8
:100636000C33A0F000E00093220A0091230A0395F0
:100646000093230A0091230A083140F000E000934A
:10065600230A0091240A03950093240A08950E9410
:10066600A402BADF08952FB7F8012083F8940895FD
:10067600F80120812FBF0895219705E00A3040F444
:1006860020E010E0F801E050F74F20830395F6CF05
:100696008E010E94360300E010E000931F0A1093BB
:1006A600200A00E00093210A00E00093220A00E0FD
:1006B6000093230A00E00093240A01E00093250A30
:1006C6008E010E943B03219608950E943130D80185
:1006D6000FEF80E090E08217930764F410E04C91EE
:1006E60050E004271527F801E65FF64F00811196C2
:1006F6000196F1CFE4E00C944230C69AC69AC79AA6
:10070600949A959ABE9ABE9ABF9A8C9A8D9A0FE33E
:100716001CE901501040E9F700C0000095980895C3
:10072600B80100E010E0BE9ABF9A8C9A8D9AC798DD
:100736002AE02A95F1F700C094982AE02A95F1F765
:1007460000C040E0403110F577FB16F421E001C00F
:1007560020E020FB28B326F928BB2AE02A95F1F7EA
:1007660000C0C79A2AE02A95F1F700C0000F111FB2
:10077600C69B03C0016021E030E0C798660F771F73
:100786002AE02A95F1F700C04395DCCF949A2AE037
:100796002A95F1F700C008959A938A93C801ADDFB0
:1007A6008C0120E030E04FEF5FE960E070E00E94EE
:1007B6005B2F40E157E260E070E00E947B2FB0DFE4
:1007C600899199910895089521978E010E94360383
:1007D60000E000933D0A8E010E943B032196089596
:1007E6008A9321978E010E94360300913D0A802F3D
:1007F6008E010E943B03082F2196899108950E943D
:10080600531B00918A0A10E0000F111F000F111FE1
:10081600F801E257FF4F059114913197F8010995B8
:10082600089521978E010E94360300918A0A10E0EE
:10083600000F111F000F111FF801E457FF4F05911C
:1008460014913197F8010995E9E2FAE000811181E6
:10085600228133810093260A1093270A00913E0ACB
:100866000093280A8E010E943B03219608958A93DD
:1008760021978E010E94360300918A0A802F8E01ED
:100886000E943B03082F2196899108950E943130DA
:10089600602F212F422F01E010E00E94412F10917E
:1008A6003D0A102B10933D0A30E0F901E05FF54F49
:1008B60060830091840A002309F46EC030E0422F61
:1008C60050E008E010E00E94392FE0E4FAE0E00F83
:1008D600F11F062F10E0000F111F000F111FE00F70
:1008E600F11F00801180228033800128022803280E
:1008F60019F4662309F431E0613019F4222309F46E
:1009060031E0613059F4213048F0022F10E0F8014F
:10091600E15FF54F0081002309F031E03323E1F177
:1009260088EF94E2A1E0B0E0ECE0FAE08083918306
:10093600A283B383E0E8FAE080819181A281B3814A
:10094600422F50E008E010E00E94392FE0E4FAE080
:10095600E00FF11F062F10E0000F111F000F111FEF
:10096600E00FF11F80839183A283B383422F01E0BE
:1009760010E00E94412F10913F0A102B10933F0A5E
:1009860040910B0A542F550F550B022F10E04017BC
:10099600510714F420930B0AE4E00C94423000EA69
:1009A6001BEB2DE030E0E5E8FAE0008311832283BB
:1009B600338303E000938A0A08950E9431300E942F
:1009C600731A0023F1F10E948E1A40E0483010F5A8
:1009D60060E06230E8F400E010E020E030E0C801BA
:1009E600D90150E008E010E00E94392FE0E4FAE077
:1009F600E00FF11F062F10E0000F111F000F111F4F
:100A0600E00FF11F80839183A283B3836395E1CFC7
:100A16004395DCCF01E010E020E030E0E0E8FAE0CA
:100A2600008311832283338300E000933F0A0FEF94
:100A360000930B0A01E00093840A04E000938A0AFB
:100A46000CC0E5E8FAE00081118122813381012B97
:100A5600022B032B11F40E948B1AE4E00C94423013
:100A6600E5E8FAE00081118122813381012B022B16
:100A7600032B71F0E5E8FAE00081118122813381D0
:100A8600015010402040304000831183228333837D
:100A9600089500913D0A0023A1F000E00093890A21
:100AA60040910B0A439501E010E00E94412F0A9500
:100AB60010913F0A1095012300933E0A05E000932A
:100AC6008A0A0895ECE0FAE00081118122813381DF
:100AD600012B022B032BF1F1ECE0FAE000811181EE
:100AE6002281338101501040204030400083118321
:100AF60022833383E0E8FAE0008111812281338189
:100B06000F5F1F4F2F4F3F4F008311832283338385
:100B16000E94731A002389F101E00093890AE0E438
:100B2600FAE000A911A922A933A9012B022B032B54
:100B360021F1E0E4FAE000AD11AD22AD33AD012BB9
:100B4600022B032BD1F006E000938A0A00E0009303
:100B5600840A08950091890A002339F006E000937B
:100B66008A0A00E00093840A089500E00093840A4C
:100B76000E948B1A06E000938A0A089500913D0AA6
:100B8600002379F040910B0A439501E010E00E94A2
:100B9600412F0A9510913F0A1095012300933E0AB2
:100BA600089500E000933E0A08950E942F30D80170
:100BB600C901A817B9071CF42D01DC01C2018D017A
:100BC600212F220F220B322F48EE53E060E070E017
:100BD6000E945B2FAC01652F660F660B762F0E9475
:100BE6009E2F085E134028018201E6E00C944030F7
:100BF6000E942530EB974FAB58AF69AF7AAF388379
:100C0600302E312F522EFE01FF96E684F784FE0128
:100C1600FF96C088D188FE01FF966288738860E0DF
:100C2600232E032F0A95402E422D542F550F550B78
:100C3600052D10E0401751070CF0D4C044200AF4EB
:100C4600D1C0022D102F110F110BF801E252F14FF6
:100C56004081542F550F550B08E010E00E94392FA4
:100C6600F801E05CF54F80819181A281B381892BE7
:100C76008A2B8B2B09F4B6C0042D102F110F110BE4
:100C8600F801E252F14F4081542F550F550B08E001
:100C960010E00E94392FF801E05CF54F80819181C8
:100CA600A281B381892B8A2B8B2B09F49BC0FE0171
:100CB6003196462F50E009E010E00E94392FE00FF0
:100CC600F11F4682FE013196462F50E009E010E002
:100CD6000E94392FE00FF11F2782022D102F110FCE
:100CE600110BF801E252F14F0081E02FFE2FFF0FAA
:100CF600FF0BEE0FFF1F40E050E04E0F5F1F0E94FC
:100D0600102F0801042D102F110F110BF801E252BC
:100D1600F14F0081E02FFE2FFF0FFF0BEE0FFF1F9D
:100D260040E050E04E0F5F1F0E94102F001A110A7C
:100D3600C001FE013196462F50E009E010E00E9406
:100D4600392FE00FF11F80839183022D102F110F91
:100D5600110BF801E252F14F4081542F550F550BFC
:100D660008E010E00E94392FF801E05CF54F808121
:100D76009181A281B381042D102F110F110BF8015F
:100D8600E252F14F0080102C110C110848E050E09F
:100D960080010E94392FF801E05CF54F8080918038
:100DA600A280B38088199909AA09BB09FE01319668
:100DB600062E112449E050E080010E94392FE00FF1
:100DC600F11F82839383A483B58321E0FE013196CC
:100DD600462F50E009E010E00E94392FE00FF11F86
:100DE60020876395232C032D0A95402E422D542FE0
:100DF600550F550B052D10E0401751070CF0D4C0C8
:100E060044200AF4D1C0022D102F110F110BF80146
:100E1600E252F14F4081542F550F550B08E010E078
:100E26000E94392FF801E05CF54F84819581A681F7
:100E3600B781892B8A2B8B2B09F4B6C0042D102F72
:100E4600110F110BF801E252F14F4081542F550F4B
:100E5600550B08E010E00E94392FF801E05CF54FD1
:100E660084819581A681B781892B8A2B8B2B09F4E6
:100E76009BC0FE013196462F50E009E010E00E942B
:100E8600392FE00FF11F4682FE013196462F50E0C2
:100E960009E010E00E94392FE00FF11F2782022D92
:100EA600102F110F110BF801E252F14F0081E02FC4
:100EB600FE2FFF0FFF0BEE0FFF1F40E050E04E0F1F
:100EC6005F1F0E94102F0801042D102F110F110B08
:100ED600F801E252F14F0081E02FFE2FFF0FFF0BCA
:100EE600EE0FFF1F40E050E04E0F5F1F0E94102FD5
:100EF600001A110AC001FE013196462F50E009E0A2
:100F060010E00E94392FE00FF11F80839183022D9C
:100F1600102F110F110BF801E252F14F4081542F9F
:100F2600550F550B08E010E00E94392FF801E05CE0
:100F3600F54F84819581A681B781042D102F110F5D
:100F4600110BF801E252F14F0080102C110C110820
:100F560048E050E080010E94392FF801E05CF54F2F
:100F660084809580A680B78088199909AA09BB094B
:100F7600FE013196062E112449E050E080010E94C0
:100F8600392FE00FF11F82839383A483B58320E07A
:100F9600FE013196462F50E009E010E00E94392FFD
:100FA600E00FF11F20876395032F0395202E432E14
:100FB600422D542F550F550B052D10E040175107A4
:100FC6000CF0D4C044200AF4D1C0022D102F110F0A
:100FD600110BF801E252F14F4081542F550F550B7A
:100FE60008E010E00E94392FF801E05CF54F80819F
:100FF6009181A281B381892B8A2B8B2B09F4B6C0F0
:10100600042D102F110F110BF801E252F14F408100
:10101600542F550F550B08E010E00E94392FF801A8
:10102600E05CF54F80819181A281B381892B8A2B67
:101036008B2B09F49BC0FE013196462F50E009E048
:1010460010E00E94392FE00FF11F4682FE01319613
:10105600462F50E009E010E00E94392FE00FF11F03
:101066002782022D102F110F110BF801E252F14FBA
:101076000081E02FFE2FFF0FFF0BEE0FFF1F40E05A
:1010860050E04E0F5F1F0E94102F0801042D102FF5
:10109600110F110BF801E252F14F0081E02FFE2FE4
:1010A600FF0FFF0BEE0FFF1F40E050E04E0F5F1FDC
:1010B6000E94102F001A110AC001FE013196462F18
:1010C60050E009E010E00E94392FE00FF11F808305
:1010D6009183022D102F110F110BF801E252F14FDF
:1010E6004081542F550F550B08E010E00E94392F10
:1010F600F801E05CF54F80819181A281B381042DD6
:10110600102F110F110BF801E252F14F0080102C35
:10111600110C110848E050E080010E94392FF801B7
:10112600E05CF54F80809180A280B3808819990990
:10113600AA09BB09FE013196062E112449E050E0AA
:1011460080010E94392FE00FF11F82839383A483CD
:10115600B58321E0FE013196462F50E009E010E00C
:101166000E94392FE00FF11F20876395232E032F4E
:101176000250402E422D542F550F550B052D10E0D1
:10118600401751070CF0D4C044200AF4D1C0022DF8
:10119600102F110F110BF801E252F14F4081542F1D
:1011A600550F550B08E010E00E94392FF801E05C5E
:1011B600F54F80819181A281B381892B8A2B8B2B5C
:1011C60009F4B6C0042D102F110F110BF801E252CD
:1011D600F14F4081542F550F550B08E010E00E9447
:1011E600392FF801E05CF54F80819181A281B381AE
:1011F600892B8A2B8B2B09F49BC0FE013196462F37
:1012060050E009E010E00E94392FE00FF11F4682FE
:10121600FE013196462F50E009E010E00E94392F7A
:10122600E00FF11F2782022D102F110F110BF8016D
:10123600E252F14F0081E02FFE2FFF0FFF0BEE0F62
:10124600FF1F40E050E04E0F5F1F0E94102F080165
:10125600042D102F110F110BF801E252F14F0081EE
:10126600E02FFE2FFF0FFF0BEE0FFF1F40E050E0B9
:101276004E0F5F1F0E94102F001A110AC001FE01B7
:101286003196462F50E009E010E00E94392FE00F1A
:10129600F11F80839183022D102F110F110BF8017E
:1012A600E252F14F4081542F550F550B08E010E0E4
:1012B6000E94392FF801E05CF54F80819181A2816F
:1012C600B381042D102F110F110BF801E252F14FCB
:1012D6000080102C110C110848E050E080010E949B
:1012E600392FF801E05CF54F80809180A280B380B1
:1012F60088199909AA09BB09FE013196062E1124FF
:1013060049E050E080010E94392FE00FF11F8283EF
:101316009383A483B58320E0FE013196462F50E0E7
:1013260009E010E00E94392FE00FF11F2087639536
:10133600032D0395202E432C422D542F550F550B6C
:10134600052D10E0401751070CF0D4C044200AF4D4
:10135600D1C0022D102F110F110BF801E252F14FDF
:101366004081542F550F550B08E010E00E94392F8D
:10137600F801E05CF54F84819581A681B781892BC0
:101386008A2B8B2B09F4B6C0042D102F110F110BCD
:10139600F801E252F14F4081542F550F550B08E0EA
:1013A60010E00E94392FF801E05CF54F84819581A9
:1013B600A681B781892B8A2B8B2B09F49BC0FE0152
:1013C6003196462F50E009E010E00E94392FE00FD9
:1013D600F11F4682FE013196462F50E009E010E0EB
:1013E6000E94392FE00FF11F2782022D102F110FB7
:1013F600110BF801E252F14F0081E02FFE2FFF0F93
:10140600FF0BEE0FFF1F40E050E04E0F5F1F0E94E4
:10141600102F0801042D102F110F110BF801E252A5
:10142600F14F0081E02FFE2FFF0FFF0BEE0FFF1F86
:1014360040E050E04E0F5F1F0E94102F001A110A65
:10144600C001FE013196462F50E009E010E00E94EF
:10145600392FE00FF11F80839183022D102F110F7A
:10146600110BF801E252F14F4081542F550F550BE5
:1014760008E010E00E94392FF801E05CF54F848106
:101486009581A681B781042D102F110F110BF8013C
:10149600E252F14F0080102C110C110848E050E088
:1014A60080010E94392FF801E05CF54F8480958019
:1014B600A680B78088199909AA09BB09FE01319649
:1014C600062E112449E050E080010E94392FE00FDA
:1014D600F11F82839383A483B58321E0FE013196B5
:1014E600462F50E009E010E00E94392FE00FF11F6F
:1014F600208763950881002311F071E001C070E038
:1015060020E0261708F045C0FE013196422F50E034
:1015160009E010E00E94392FE00FF11F008500233B
:10152600C1F08FA998ADA9ADBAADFE013196022ED4
:10153600112449E050E080010E94392FE00FF11F8D
:1015460082809380A480B58088159905AA05BB057D
:10155600F0F4FE013196422F50E009E010E00E94BF
:10156600392FE00FF11F808191814E96FE01319651
:10157600072E112449E050E080010E94392FE00F28
:10158600F11F008111818017910708F4722F2395AE
:10159600B8CFFE013196472F50E009E010E00E94D7
:1015A600392FE00FF11F00811181F60100831183AD
:1015B600FE013196472F50E009E010E00E94392FD6
:1015C600E00FF11F82819381A481B581F3018083AD
:1015D6009183A283B383FE013196472F50E009E041
:1015E60010E00E94392FE00FF11F0681DE01A55B96
:1015F600BF4FED91FC910083FE013196472F50E0DD
:1016060009E010E00E94392FE00FF11F0781F70172
:101616000083EB96E8E10C9436300E94253028973B
:10162600C02EA12EE22E0091DD0E043610F001E050
:1016360001C1CC2042F00A2D102F110F110BFF24EF
:101646000E151F0514F000E0F5C0BB240A2D102F5F
:10165600110F110BF801E252F14F0081102F110FFB
:10166600110B000F111F40E050E0400F511F0E9468
:10167600102FB801DC2CDD0CDD08F601E252F14F2B
:101686000081102F110F110B000F111F40E050E0C9
:10169600400F511F0E94102F601B710B4B01DC2C59
:1016A600DD0CDD08F601E252F14F4081542F550F53
:1016B600550B08E010E00E94392FF801E05CF54F69
:1016C60044805580668077800A2D102F110F110BEC
:1016D600F801E252F14F4081542F550F550B08E0A7
:1016E60010E00E94392FF801E05CF54F008111816E
:1016F60022813381401A510A620A730AC201D30158
:101706008E010C5F1F4F1A930A938E010C5F1F4FB9
:101716001A930A938E010C5F1F4F1A930A938E0138
:10172600095F1F4F1A930A9331E0AC01BD012E2DBC
:101736001A2D0C2D5DDA0A811B8120E030E0AC0108
:10174600BD010E945B2F4C815D816E817F810E946D
:101756007B2FC801D90121E04091DD0E50E00BE05E
:1017660010E00E94392FF801EF56F54F2083409183
:10177600DD0E50E00BE010E00E94392FF801EF5625
:10178600F54FC2824091DD0E50E00BE010E00E9462
:10179600392FF801EF56F54FA38229814091DD0ECE
:1017A60050E00BE010E00E94392FF801EF56F54F9C
:1017B600248328814091DD0E50E00BE010E00E946A
:1017C600392FF801EF56F54F25839C014091DD0E28
:1017D60050E00BE010E00E94392FF801EF56F54F6C
:1017E600268337838C019401200F311F4091DD0E33
:1017F60050E00BE010E00E94392FF801EF56F54F4C
:101806002087318721E04091DD0E50E00BE010E0AB
:101816000E94392FF801EF56F54F22870091DD0E11
:1018260003950093DD0E0091DD0E043610F0BB2407
:10183600B3940B2D2896E0E10C9436300E942530A7
:101846002897A02E812EE22E0091DD0E043610F090
:1018560002E026C1AA2042F0082D102F110F110B0D
:10186600FF240E151F0514F000E01AC19924BA2CA6
:10187600BB0CBB08F501E252F14F4081542F550FC6
:10188600550B08E010E00E94392FF801E05CF54F97
:101896004480558066807780082D102F110F110B1C
:1018A600F801E352F14F4081542F550F550B08E0D4
:1018B60010E00E94392FF801E05CF54F008111819C
:1018C60022813381401A510A620A730AC201D30186
:1018D600813000E0900700E0A00700E0B0070CF4BC
:1018E600DEC0082D102F110F110BF801E352F14F36
:1018F6000081102F110F110B000F111F40E050E057
:10190600400F511F0E94102FB801BA2CBB0CBB0808
:10191600F501E252F14F0081102F110F110B000F4C
:10192600111F40E050E0400F511F0E94102F601B16
:10193600710B6B018E010C5F1F4F1A930A938E0178
:101946000C5F1F4F1A930A938E010C5F1F4F1A9359
:101956000A938E01095F1F4F1A930A9331E0AC0177
:10196600BD012E2D182D1A950A2D42D90A811B81EB
:1019760020E030E0AC01BD010E945B2F4AE050E060
:1019860060E070E00E945B2F4C815D816E817F81FB
:101996000E947B2F0B5F1F4F2F4F3F4F4AE050E0B7
:1019A60060E070E00E947B2FC801D901860120E02B
:1019B60030E080179107A207B3070CF070C023E050
:1019C6004091DD0E50E00BE010E00E94392FF80147
:1019D600EF56F54F20834091DD0E50E00BE010E00E
:1019E6000E94392FF801EF56F54FA282282D2A952D
:1019F6004091DD0E50E00BE010E00E94392FF80117
:101A0600EF56F54F238329814091DD0E50E00BE020
:101A160010E00E94392FF801EF56F54F24832881F4
:101A26004091DD0E50E00BE010E00E94392FF801E6
:101A3600EF56F54F25839C014091DD0E50E00BE0FB
:101A460010E00E94392FF801EF56F54F26833783B1
:101A56008C019601200F311F4091DD0E50E00BE006
:101A660010E00E94392FF801EF56F54F2087318795
:101A760021E04091DD0E50E00BE010E00E94392F8E
:101A8600F801EF56F54F22870091DD0E039500937E
:101A9600DD0E0091DD0E043610F099249394092D85
:101AA6002896E0E10C9436300E9425302897C02E07
:101AB600A12EE22E0091DD0E043610F002E023C1C5
:101AC600CC2042F00A2D102F110F110BFF240E15FA
:101AD6001F0514F000E017C1BB240A2D102F110FAB
:101AE600110BF801E252F14F4081542F550F550B5F
:101AF60008E010E00E94392FF801E05CF54F4080C5
:101B0600518062807380DC2CDD0CDD08F601E25228
:101B1600F14F4081542F550F550B08E010E00E94FD
:101B2600392FF801E05CF54F048115812681378154
:101B3600401A510A620A730AC201D301813000E0D9
:101B4600900700E0A00700E0B0070CF4DBC00A2D08
:101B5600102F110F110BF801E252F14F0081102FD7
:101B6600110F110B000F111F40E050E0400F511FE5
:101B76000E94102FB801DC2CDD0CDD08F601E252C4
:101B8600F14F0081102F110F110B000F111F40E0B4
:101B960050E0400F511F0E94102F601B710B4B012C
:101BA6008E010C5F1F4F1A930A938E010C5F1F4F15
:101BB6001A930A938E010C5F1F4F1A930A938E0194
:101BC600095F1F4F1A930A9330E0AC01BD012E2D19
:101BD6001A2D0C2D0DD80A811B8120E030E0AC01B6
:101BE600BD010E945B2F4AE050E060E070E00E9479
:101BF6005B2F4C815D816E817F810E947B2F0B5F05
:101C06001F4F2F4F3F4F4AE050E060E070E00E94C8
:101C16007B2FC801D901840120E030E080179107AD
:101C2600A207B3070CF06EC024E04091DD0E50E031
:101C36000BE010E00E94392FF801EF56F54F208394
:101C46004091DD0E50E00BE010E00E94392FF801C4
:101C5600EF56F54FC2824091DD0E50E00BE010E0EA
:101C66000E94392FF801EF56F54FA3822981409142
:101C7600DD0E50E00BE010E00E94392FF801EF5620
:101C8600F54F248328814091DD0E50E00BE010E0F3
:101C96000E94392FF801EF56F54F25839C0140919C
:101CA600DD0E50E00BE010E00E94392FF801EF56F0
:101CB600F54F268337838C019401201B310B40910D
:101CC600DD0E50E00BE010E00E94392FF801EF56D0
:101CD600F54F2087318722E04091DD0E50E00BE082
:101CE60010E00E94392FF801EF56F54F2287009138
:101CF600DD0E03950093DD0E0091DD0E043610F027
:101D0600BB24B3940B2D2896E0E10C9436300E9448
:101D160025302897A02EC12EE22E0091DD0E043626
:101D260010F002E026C1AA203AF0DC2CDD0CDD081A
:101D3600FF24CE14DF0414F000E01BC1BB240A2DDF
:101D4600102F110F110BF801E252F14F4181542F60
:101D5600550F550B08E010E00E94392FF801E05CA2
:101D6600F54F4480558066807780DC2CDD0CDD08DD
:101D7600F601E252F14F4081542F550F550B08E002
:101D860010E00E94392FF801E05CF54F00811181C7
:101D960022813381401A510A620A730AC201D301B1
:101DA600813000E0900700E0A00700E0B0070CF4E7
:101DB600DFC0DC2CDD0CDD08F601E252F14F0081BC
:101DC600102F110F110B000F111F40E050E0400FB4
:101DD600511F0E94102FB8010A2D102F110F110B41
:101DE600F801E252F14F0181102F110F110B000F74
:101DF600111F40E050E0400F511F0E94102F601B42
:101E0600710B4B018E010C5F1F4F1A930A938E01C3
:101E16000C5F1F4F1A930A938E010C5F1F4F1A9384
:101E26000A938E01095F1F4F1A930A9331E0AC01A2
:101E3600BD012E2D1C2D0A2D03950E94FB050A813E
:101E46001B8120E030E0AC01BD010E945B2F4AE01F
:101E560050E060E070E00E945B2F4C815D816E81F6
:101E66007F810E947B2F0B5F1F4F2F4F3F4F4AE012
:101E760050E060E070E00E945B2FC801D901840148
:101E860020E030E080179107A207B3070CF070C07E
:101E960026E04091DD0E50E00BE010E00E94392F65
:101EA600F801EF56F54F20832A2D23954091DD0E3C
:101EB60050E00BE010E00E94392FF801EF56F54F85
:101EC60022834091DD0E50E00BE010E00E94392F96
:101ED600F801EF56F54FC38229814091DD0E50E09F
:101EE6000BE010E00E94392FF801EF56F54F2483DE
:101EF60028814091DD0E50E00BE010E00E94392F62
:101F0600F801EF56F54F25839C014091DD0E50E018
:101F16000BE010E00E94392FF801EF56F54F2683AB
:101F260037838C019401200F311F4091DD0E50E064
:101F36000BE010E00E94392FF801EF56F54F20878D
:101F4600318721E04091DD0E50E00BE010E00E9469
:101F5600392FF801EF56F54F22870091DD0E0395D4
:101F66000093DD0E0091DD0E043610F0BB24B39411
:101F76000B2D2896E0E10C9436300E9425302897E8
:101F8600C02EA12EE22E0091DD0E043610F002E0E6
:101F960024C1CC2042F00A2D102F110F110BFF2463
:101FA6000E151F0514F000E018C1BB24DC2CDD0C57
:101FB600DD08F601E252F14F4081542F550F550BC3
:101FC60008E010E00E94392FF801E05CF54F4480EC
:101FD6005580668077800A2D102F110F110BF8019E
:101FE600E252F14F4081542F550F550B08E010E097
:101FF6000E94392FF801E05CF54F008111812281A2
:102006003381401A510A620A730AC201D301813030
:1020160000E0900700E0A00700E0B0070CF4DCC089
:102026000A2D102F110F110BF801E252F14F00810A
:10203600102F110F110B000F111F40E050E0400F41
:10204600511F0E94102FB801DC2CDD0CDD08F601B3
:10205600E252F14F0081102F110F110B000F111FCB
:1020660040E050E0400F511F0E94102F601B710B83
:102076004B018E010C5F1F4F1A930A938E010C5F62
:102086001F4F1A930A938E010C5F1F4F1A930A93E0
:102096008E01095F1F4F1A930A9331E0AC01BD010F
:1020A6002E2D1A2D0C2D0E94FB050A811B8120E086
:1020B60030E0AC01BD010E945B2F4AE050E060E0D9
:1020C60070E00E945B2F4C815D816E817F810E9452
:1020D6007B2F0B5F1F4F2F4F3F4F4AE050E060E0D2
:1020E60070E00E947B2FC801D901840120E030E016
:1020F60080179107A207B3070CF06EC027E0409146
:10210600DD0E50E00BE010E00E94392FF801EF568B
:10211600F54F20834091DD0E50E00BE010E00E9469
:10212600392FF801EF56F54FC2824091DD0E50E08F
:102136000BE010E00E94392FF801EF56F54FA3820D
:1021460029814091DD0E50E00BE010E00E94392F0E
:10215600F801EF56F54F248328814091DD0E50E0BB
:102166000BE010E00E94392FF801EF56F54F25835A
:102176009C014091DD0E50E00BE010E00E94392FEB
:10218600F801EF56F54F268337838C019401200F13
:10219600311F4091DD0E50E00BE010E00E94392F18
:1021A600F801EF56F54F2087318721E04091DD0E8B
:1021B60050E00BE010E00E94392FF801EF56F54F82
:1021C60022870091DD0E03950093DD0E0091DD0E52
:1021D600043610F0BB24B3940B2D2896E0E10C9442
:1021E60036300E9425302897A02E812EE22E0091AF
:1021F600DD0E043610F002E02EC1EA2DFE2FFF0F91
:10220600FF0B319742F0082D102F110F110BFF24F1
:102216000E151F0514F000E01EC19924082D102F7D
:10222600110F110BF801E352F14F4081542F550F56
:10223600550B08E010E00E94392FF801E05CF54FDD
:102246004080518062807380BA2CBB0CBB08F501BC
:10225600E352F14F4081542F550F550B08E010E023
:102266000E94392FF801E05CF54F04811581268123
:102276003781401A510A620A730AC201D3018130BA
:1022860000E0900700E0A00700E0B0070CF4E2C011
:10229600082D102F110F110BF801E352F14F008199
:1022A600102F110F110B000F111F40E050E0400FCF
:1022B600511F0E94102FB801BA2CBB0CBB08F501A8
:1022C600E352F14F0081102F110F110B000F111F58
:1022D60040E050E0400F511F0E94102F601B710B11
:1022E6006B018E010C5F1F4F1A930A938E010C5FD0
:1022F6001F4F1A930A938E010C5F1F4F1A930A936E
:102306008E01095F1F4F1A930A9330E0AC01BD019D
:102316002E2D182D1A950A2D0A950E94FB050A8165
:102326001B8120E030E0AC01BD010E945B2F4AE03A
:1023360050E060E070E00E945B2F4C815D816E8111
:102346007F810E947B2F0B5F1F4F2F4F3F4F4AE02D
:1023560050E060E070E00E947B2FC801D901860141
:1023660020E030E080179107A207B3070CF072C097
:1023760028E04091DD0E50E00BE010E00E94392F7E
:10238600F801EF56F54F20832A2D2A954091DD0E50
:1023960050E00BE010E00E94392FF801EF56F54FA0
:1023A6002283282D2A954091DD0E50E00BE010E0A7
:1023B6000E94392FF801EF56F54F2383298140916A
:1023C600DD0E50E00BE010E00E94392FF801EF56C9
:1023D600F54F248328814091DD0E50E00BE010E09C
:1023E6000E94392FF801EF56F54F25839C01409145
:1023F600DD0E50E00BE010E00E94392FF801EF5699
:10240600F54F268337838C019601201B310B4091B3
:10241600DD0E50E00BE010E00E94392FF801EF5678
:10242600F54F2087318722E04091DD0E50E00BE02A
:1024360010E00E94392FF801EF56F54F22870091E0
:10244600DD0E03950093DD0E0091DD0E043610F0CF
:1024560099249394092D2896E0E10C9436300E9435
:102466002530E69700E0083048F42FEFFE0133965A
:1024760010E0E00FF11F20830395F5CFEE2400E076
:1024860000933E0A20E0283028F5422F50E008E06D
:1024960010E00E94392FF801E05CF54F4081518130
:1024A60062817381452B462B472B41F0FE01339603
:1024B600FF24EE0DFF1D2083E3940AC0422F01E0A6
:1024C60010E00E94412F10913E0A102B10933E0AF5
:1024D6002395D9CF04E0E01608F493C36FE578E1BD
:1024E60043E050E028E030E08E01025E1F4F0E947C
:1024F6000B31882499248E2D90E001978816990631
:102506000CF0F9C0FE0133969924E80DF91D0181FE
:10251600102F110F110B000F111F40E050E0400F5C
:10252600511F0E94102F9801FE0133969924E80D41
:10253600F91D0081102F110F110B000F111F40E024
:1025460050E0400F511F0E94102F201B310BA90194
:1025560060E070E008E813E120E030E00E945B2FC5
:1025660028013901FE0133969924E80DF91D4181B0
:10257600542F550F550B08E010E00E94392FF80133
:10258600E05CF54F80819181A281B381FE01339693
:102596009924E80DF91D4081542F550F550B08E07D
:1025A60010E00E94392FF801E05CF54F008111819F
:1025B60022813381AC01BD01401B510B620B730BB1
:1025C600820193010E947B2FEDE8FAE000831183DC
:1025D60022833383EDE8FAE0008111812281338181
:1025E600083E43E0140740E0240740E0340774F057
:1025F600EDE8FAE00081118122813381093B4BE04D
:10260600140740E0240740E034070CF072C0EDE800
:10261600FAE000811181228133810B5F1F4F2F4F1A
:102626003F4F4AE050E060E070E00E949E2FEDE8E8
:10263600FAE000831183228333834AE050E060E0AE
:1026460070E0EDE8FAE000811181228133810E9479
:102656005B2FEDE8FAE0008311832283338340E0A9
:10266600483008F046C0FE017E9650E003E010E0D8
:102676000E94392FE00FF11F00811181012BC1F05B
:10268600FE017E9650E003E010E00E94392FE00F35
:10269600F11F0081118120E030E0EDE8FAE00080D2
:1026A6001180228033800015110522053305F9F4C7
:1026B600EDE8FAE000811181228133819801FE0163
:1026C6007E9650E003E010E00E94392FE00FF11FE4
:1026D60020833183FE017E9650E003E010E00E94E5
:1026E600392FE00FF11F02810395028302C0439543
:1026F600B7CF8394FFCEFF2400E010E020E030E067
:10270600EDE8FAE0008311832283338340E048300A
:1027160008F04BC0FE017E9650E003E010E00E94F8
:10272600392FE00FF11F00811181012BF1F1FE011C
:102736007E9650E003E010E00E94392FE00FF11F73
:1027460060817181FE017E9650E003E010E00E94F8
:10275600392FE00FF11F22803324EDE8FAE00081E3
:1027660011812281338150E0739D200D311D629DC0
:10277600000D111D251F351F729D100D211D351FC2
:10278600369E100D211D351F00831183228333834E
:10279600FE017E9650E003E010E00E94392FE00F24
:1027A600F11F0281F00E4395B2CF4F2D50E060E04D
:1027B60070E0EDE8FAE000811181228133810E9408
:1027C6009E2FEDE8FAE0008311832283338300E035
:1027D6000093E60E00E0083040F42FEF10E0F80119
:1027E600E252F14F20830395F6CF80E090E0EE2D84
:1027F600F0E031978E179F070CF0C9C00091E60EE6
:10280600002309F0C4C0082F0395A02FEA2FF0E09B
:1028160090E0E81BF90B35970CF0B7C0B0E0EE2D51
:10282600F0E03197AE17BF070CF0AFC00091E60E8F
:10283600002309F0AAC0FE013396B0E0EA0FFB1FA1
:102846000081102F110F110B000F111F40E050E0F7
:10285600400F511F0E94102FB801FE01339690E0E1
:10286600E80FF91F0081102F110F110B000F111F18
:1028760040E050E0400F511F0E94102F601B710B6B
:102886008B0120E030E048E853E160E070E00E9410
:102896005B2F48015901FE013396B0E0EA0FFB1F9A
:1028A6004081542F550F550B08E010E00E94392F38
:1028B600F801E05CF54F4080518062807380FE0134
:1028C600339690E0E80FF91F4081542F550F550BB2
:1028D60008E010E00E94392FF801E05CF54F008116
:1028E600118122813381A201B301401B510B620B7E
:1028F600730B840195010E947B2F0E8B1F8B288FF3
:10290600398F0E891F89288D398D9801A901EDE827
:10291600FAE000811181228133819A010E94D80553
:1029260009831A8329813A8140E150E00E94102FE1
:102936002017310740F5FE01339690E0E80FF91FA6
:1029460020810091E60E10E0F801E252F14F20835B
:102956000091E60E03950093E60EFE013396B0E075
:10296600EA0FFB1F20810091E60E10E0F801E2520B
:10297600F14F20830091E60E03950093E60E0A2F91
:102986000395088302C0A39541CF83952FCF088175
:10299600802E8E1408F013C10091E60E10E0F801A7
:1029A600E352F14F0081102F110F110B000F111F71
:1029B60040E050E0400F511F0E94102F98010091F7
:1029C600E60E10E0F801E452F14F0081102F110FCE
:1029D600110B000F111F40E050E0400F511F0E94E5
:1029E600102F201B310BA90160E070E008E813E10D
:1029F60020E030E00E945B2F280139010091E60EAD
:102A060010E0F801E352F14F4081542F550F550B5A
:102A160008E010E00E94392FF801E05CF54F808154
:102A26009181A281B3810091E60E10E0F801E45293
:102A3600F14F4081542F550F550B08E010E00E94CE
:102A4600392FF801E05CF54F008111812281338135
:102A5600AC01BD01401B510B620B730B820193014C
:102A66000E947B2F0E8B1F8B288F398FFE0133968A
:102A76009924E80DF91D0081102F110F110B000F7D
:102A8600111F40E050E0400F511F0E94102F980187
:102A9600FE0133969924E80DF91D31970081102F18
:102AA600110F110B000F111F40E050E0400F511F96
:102AB6000E94102F201B310BA90160E070E008E88E
:102AC60013E120E030E00E945B2F28013901FE016E
:102AD60033969924E80DF91D4081542F550F550B57
:102AE60008E010E00E94392FF801E05CF54F808184
:102AF6009181A281B381FE0133969924E80DF91DD7
:102B060031974081542F550F550B08E010E00E9475
:102B1600392FF801E05CF54F008111812281338164
:102B2600AC01BD01401B510B620B730B820193017B
:102B36000E947B2F0A8F1B8F2C8F3D8F0A8D1B8D3A
:102B46002C8D3D8D98014E895F89688D798D8A011E
:102B56000E94D80509831A830A8D1B8D2C8D3D8D05
:102B66009801EDE8FAE040815181628173818A0122
:102B76000E94D805680129813A8140E150E00E940F
:102B8600102F20173107C8F440E150E00E94102FA3
:102B9600C016D10690F4FE0133969924E80DF91D6E
:102BA60020810091E60E10E0F801E252F14F2083F9
:102BB6000091E60E03950093E60E8394EACECC24AC
:102BC600DD2420E02830E0F4F601E252F14F0081E6
:102BD600102F110F110B30E00217130729F401E033
:102BE600C00E00E0D01E0AC0422F01E010E00E9495
:102BF600412F10913E0A102B10933E0A2395E2CFE7
:102C0600F3940091E60E033090F482D402E0009330
:102C16008A0A0AE010E020E030E0E9E2FAE0008308
:102C260011832283338301E000930A0A3DC200E048
:102C36000093DD0E4091DE0E542F550F550B08E024
:102C460010E00E94392FF801E05CF54F84819581F0
:102C5600A681B7810091E60E10E0F801E352F14F2C
:102C66004081542F550F550B08E010E00E94392F74
:102C7600F801E05CF54F00811181228133818017D4
:102C86009107A207B30748F02091E60E1091E60ED1
:102C96001A9500E00E94100B7BC080E090E0E09166
:102CA600E60EF0E031978E179F070CF071C0009189
:102CB600DD0E043608F06CC0082F0395A02F009196
:102CC600E60EA01708F062C00091DD0E043608F08B
:102CD6005DC0B0E0FD01E252F14F4081542F550F27
:102CE600550B08E010E00E94392FF801E05CF54F23
:102CF600408051806280738090E0FC01E252F14F87
:102D06004081542F550F550B08E010E00E94392FD3
:102D1600F801E05CF54F0481158126813781401664
:102D260051066206730640F4B0E0E091E60EF0E06C
:102D36003197AE17BF0744F12091E60E1A2F082FE0
:102D46000E94210C002311F52091E60E1A2F082F60
:102D56000E94570D0023D1F42091E60E1A2F082F5A
:102D66000E948A0E002391F42091E60E1A2F082F56
:102D76000E94C00F002351F42091E60E1A2F082F4F
:102D86000E94F410002311F4A39599CF839586CF62
:102D960031E0332309F45FC030E021E00091DD0E1D
:102DA6002017B8F7422F50E00BE010E00E94392FB1
:102DB600F801EF56F54F66817781422F50E00BE020
:102DC60010E00E94392FF801E457F54F0081118178
:102DD60060177107F0F5BE01655F7F4FE6E8FAE020
:102DE600422F50E00BE010E00E94392FE00FF11F58
:102DF6008B014BE050E00E940E3066E87AE0422FED
:102E060050E00BE010E00E94392F600F711F422F37
:102E160050E00BE010E00E94392FE1E9FAE0E00F04
:102E2600F11F8B014BE050E00E940E30422F50E024
:102E36000BE010E00E94392F61E97AE0600F711F04
:102E4600FE013B968B014BE050E00E940E3031E0D4
:102E5600A0CF2395A3CF31E0332309F4D2C030E0CD
:102E660021E00091DD0E2017B8F7422F50E00BE06D
:102E760010E00E94392FF801EF56F54F86819781B1
:102E8600C297422F50E00BE010E00E94392FF80164
:102E9600E457F54F008111818017910708F0AFC004
:102EA600422F50E00BE010E00E94392FF801EF5658
:102EB600F54F058110E0F801E252F14F0081102F25
:102EC600110F110B000F111F40E050E0400F511F72
:102ED6000E94102FB801422F50E00BE010E00E9434
:102EE600392FF801EF56F54F048110E0F801E25250
:102EF600F14F0081102F110F110B000F111F40E031
:102F060050E0400F511F0E94102F601B710B422F83
:102F160050E00BE010E00E94392FF801E557F54F1D
:102F2600008110E0F801E252F14F0081102F110FDD
:102F3600110B000F111F40E050E0400F511F0E947F
:102F4600102F1801422F50E00BE010E00E94392F9D
:102F5600F801E657F54F008110E0F801E252F14F13
:102F66000081102F110F110B000F111F40E050E0D0
:102F7600400F511F0E94102F201A310A6215730547
:102F8600F0F5BE01655F7F4FE6E8FAE0422F50E0BC
:102F96000BE010E00E94392FE00FF11F8B014BE090
:102FA60050E00E940E3066E87AE0422F50E00BE0D7
:102FB60010E00E94392F600F711F422F50E00BE086
:102FC60010E00E94392FE1E9FAE0E00FF11F8B01D2
:102FD6004BE050E00E940E30422F50E00BE010E034
:102FE6000E94392F61E97AE0600F711FFE013B965E
:102FF6008B014BE050E00E940E3031E02DCF23953F
:1030060030CF9E01255F3F4F61E97AE08901FB01E0
:103016004BE050E00E940E300D8510E0F801E252C0
:10302600F14F0081005D009300090E8510E0F80164
:10303600E252F14F0081005D009301090BE200931B
:1030460002090B85043049F00B85053031F00B85FC
:10305600083019F00B850A3019F40DE200930209C5
:103066000F8510E0F801E252F14F0081005D0093F8
:103076000309088910E0F801E252F14F0081005D72
:10308600009304090091990A10919A0A20E030E011
:10309600E9E2FAE0008311832283338301E000939F
:1030A6000A0A00E000938A0A10D001E000930A0A97
:1030B600E696E0E10C94363020E030E0F80120831B
:1030C600318320E0F801228308950E942C30EF9787
:1030D600EF97289706E0802E08E813E10A831B8302
:1030E60006E6702E80E006EEFE01B09690E0E80F50
:1030F600F91F008383950DE0FE01B09690E0E80F7E
:10310600F91F00838395682E00E0FE01B09690E0DB
:10311600E80FF91F008383950AEAFE01B09690E056
:10312600E80FF91F0083839505E5FE01B09690E050
:10313600E80FF91F0083839500913E0AFE01B096C1
:1031460090E0E80FF91F00838395082F0A5FA02FF0
:10315600E9E2FAE00081118122813381280190E0C1
:10316600963088F5933081F44EE28E01005E1F4F53
:10317600EA2FF0E0292F30E0E21BF30B31970E0F18
:103186001F1FF80140831CC04AE050E082010E94E4
:10319600472FB42F4AE050E082010E94472F2801B2
:1031A6004B2F405D8E01005E1F4FEA2FF0E0292F66
:1031B60030E0E21BF30B31970E0F1F1FF80140831F
:1031C60083959395CDCF0091930A10E0F801E252D2
:1031D600F14F0081FE01B09690E0E80FF91F0083E1
:1031E60083950091940A10E0F801E252F14F0081B4
:1031F600FE01B09690E0E80FF91F008383950091D9
:10320600910AFE01B09690E0E80FF91F00838395BE
:103216000091950A10E0F801E252F14F0081FE019B
:10322600B09690E0E80FF91F008383950091960A07
:1032360010E0F801E252F14F0081FE01B09690E0F5
:10324600E80FF91F0083839500E0023070F410E068
:10325600F801EF56F54F1681FE01B09690E0E80FA3
:10326600F91F108383950395F0CF20E02830F8F4FA
:10327600022F10E0000F111F40E050E0400F511FD9
:103286000E94102F0883198300E0023070F4FE01BB
:1032960010E0E00FF11F1081FE01B09690E0E80FFC
:1032A600F91F108383950395F0CF2395DFCF20E098
:1032B600223040F540E0483018F560E06430F0F424
:1032C60050E008E010E00E94392FE0E4FAE0E00F59
:1032D600F11F022F10E0000F111F000F111FE00F4A
:1032E600F11F70E0E60FF71F0081FE01B09690E037
:1032F600E80FF91F008383956395E0CF4395DBCFF5
:103306002395D6CF00E0023078F4FE01329610E025
:10331600E00FF11F1081FE01B09690E0E80FF91F53
:10332600108383950395EFCF282F2395FE01B09642
:10333600062D10E0E00FF11F2083282F30E02150EA
:1033460030408E01005E1F4F0E946803FE01B0965A
:1033560090E0E80FF91F00838395863671F4A0E0AC
:10336600A81750F4FE01B096B0E0EA0FFB1F0081EB
:103376000E94762EA395F4CF84C0BE01645F7F4F72
:10338600EAE6F4E630E08B0144E150E00E941930B1
:1033960094E1A0E0A91750F4FE013C96B0E0EA0FD4
:1033A600FB1F00810E94762EA395F4CF8E010C5F41
:1033B6001F4FD80140E1082F0E942B2FFD010083EB
:1033C600FD0100810A3028F0FD010081095C0083BF
:1033D60004C0FD010081005D0083119640E1082FC5
:1033E6000E942B2FFD014083FD0100810A3028F049
:1033F600FD010081095C008304C0FD010081005DC0
:103406000083119601E2FD01008311960DE3FD0193
:103416000083119606E0FD010083FD0100810A305C
:1034260028F0FD010081095C008304C0FD010081D4
:10343600005D0083119606E0FD010083FD01008119
:103446000A3028F0FD010081095C008304C0FD01FB
:103456000081005D008311960DE0FD010083119649
:103466000AE0FD01008398E04424491650F4FE0169
:1034760034965524E40DF51D00810E94762E439462
:10348600F4CFEF96EF962896E9E00C943D30E9E20A
:10349600FAE000811181228133810E94CF0308EA7C
:1034A60011E600938B0A10938C0A01E000938A0AB6
:1034B600089500918B0A10918C0A012B49F0EBE8D4
:1034C600FAE00081118101501040008311830895B4
:1034D60000E010E00E94CF0302E000938A0A0895FC
:1034E6009A938A9391E080E0883070F4082F10E078
:1034F600000F111FF801E35DF54F008111810E9455
:10350600CD2D90238395F0CF092F89919991089518
:10351600159A1D980895159A1D9A08950CE010E0C5
:103526000E944D3098018901232B49F050E069E44F
:1035360074E04CE330E026E60E94722C02C000E004
:1035460010E000932D0A10932E0A0CE010E00E9462
:103556004D3098018901232B49F051E069E474E06C
:103566004CE331E026E60E94722C02C000E010E037
:1035760000932F0A1093300A0CE010E00E944D30A1
:1035860098018901232B49F052E069E474E04CE389
:1035960032E026E60E94722C02C000E010E00093A2
:1035A600310A1093320A0CE010E00E944D30980167
:1035B6008901232B49F053E069E474E04CE333E0DE
:1035C60026E60E94722C02C000E010E00093330A47
:1035D6001093340A0CE010E00E944D3098018901E6
:1035E600232B49F054E069E474E04CE334E026E62A
:1035F6000E94722C02C000E010E00093350A10937E
:10360600360A0CE010E00E944D3098018901232B08
:1036160049F055E069E474E04CE335E026E60E94A3
:10362600722C02C000E010E00093370A1093380AAB
:103636000CE010E00E944D3098018901232B49F0DF
:1036460056E069E474E04CE336E026E60E94722C0C
:1036560002C000E010E00093390A10933A0A0CE029
:1036660010E00E944D3098018901232B49F057E064
:1036760069E474E04CE337E026E60E94722C02C04F
:1036860000E010E000933B0A10933C0A00E0009330
:103696008A0A0E94800300E010E00E9493030895C6
:1036A6008A930E94E70380E0883068F4082F10E0D0
:1036B600000F111FF801E35DF54F008111810E9493
:1036C6006E2D8395F1CF8991089505E310E00E9450
:1036D6004D309801012B39F089010CD00093E70E8B
:1036E6001093E80E089500E010E00093E70E1093A3
:1036F600E80E0895BA93AA93D8010DE010E00E944F
:103706004D3098018901232B41F063E050E040E001
:1037160030E027E60E945C2B02C000E010E09B969A
:103726000D931C939C970DE010E00E944D3008010C
:10373600012B49F062E050E040E031E027E68001ED
:103746000E945C2B02C000E010E09D960D931C9336
:103756009E970DE010E00E944D300801012B49F0C4
:1037660061E050E040E032E027E680010E945C2BF9
:1037760002C000E010E09F960D931C93D0970DE0D9
:1037860010E00E944D300801012B49F060E050E046
:1037960040E033E027E680010E945C2B02C000E097
:1037A60010E0D1960D931C93D29700E00C9300E0A5
:1037B60011960C93119700E093960C93939792961B
:1037C6000C9392978D01A991B99108950E94313079
:1037D600D8019B960D911C919C970E94632C802F7B
:1037E6009D960D911C919E970E94632C902F9F96FB
:1037F6000D911C91D0970E94632C892B802BD1961A
:103806000D911C91D2970E94632C802BD4968C9399
:10381600D497D4960C91D497D3961C91D39701172D
:1038260091F00C91043118F40C9103950C930C91C2
:10383600043178F0D4960C91D497D3960C93D39701
:1038460000E00C9306C00C91013018F00C910A951B
:103856000C93E4E00C9442309A938A93C8018C014D
:10386600B5DF8C0103D0899199910895BA93AA93F3
:10387600D801FD0103A910E0F801E454FF4F0491BB
:10388600FD0102A7FD0101810023B1F1FD0103A99C
:103896000F3031F1FD0104A115A10C3D25E0120701
:1038A60038F4FD0104A115A10F5F1F4F04A315A352
:1038B600FD0104A115A10C3D25E0120780F1FD01D3
:1038C60006A1043628F4FD0106A1039506A327C028
:1038D60000E0FD0106A3FD0122A58D0127D01FC032
:1038E60000E010E0FD0104A315A300E0FD0106A31E
:1038F60000E0FD01018313C0FD0103A90F3079F03B
:1039060001E0FD010183FD0122A58D010FD000E03C
:1039160010E0FD0104A315A300E0FD0106A3A99193
:10392600B9910895A8012F71022F08950E94313090
:10393600D801922F0FB7FD0107A3F894FD0123A12B
:1039460023958D01EFDF802FFD0102A1801741F045
:10395600082F10E0FD01E00FF11F9283FD0183A304
:10396600FD0107A10FBFE4E00C9442300E942F3006
:103976002801D90180E00FB7F20100A7F894F201FF
:1039860003A1F20112A1011781F081E0F20122A147
:1039960023958201C7DFF20102A3F20102A110E022
:1039A600F201E00FF11F02810C93F20100A50FBF97
:1039B600082FE6E00C944030F8011FB711A7F894E1
:1039C60013A122A1121738F410E222A1121B23A17F
:1039D600120F012F04C013A122A1121B012F11A542
:1039E6001FBF08950091E70E1091E80EE5DF0895D8
:1039F6009A938A93C8019C010091E70E1091E80EF4
:103A0600B5DF8991999108950091E70E1091E80E1E
:103A160023DF08959A938A93C8018C010FD08C01F5
:103A26001FD08C013BD08C0117D24CEC50E020E02B
:103A36008C01EFD18C018991999108952FE02ABBD1
:103A46002FE02BBBD49ADC9AD59ADD9A4FEF59E634
:103A560068E1415050406040E1F700C00000089521
:103A660020E0F80123A7F80122A7F80100A711A773
:103A760020E0F80125A720E030E0F80120A331A3DB
:103A860020E030E0F80122A333A320E0F80126A7C6
:103A960020E030E0F80126A337A308959A938A938D
:103AA600C8010FEF13EF21E0015010402040E1F76D
:103AB60000C0000028E28C01CDD00FE31FE10150C9
:103AC6001040E9F700C0000028E28C01C3D00FE3E4
:103AD6001FE101501040E9F700C000002CE08C0106
:103AE600B9D021E08C01B6D00FE31FE101501040A0
:103AF600E9F700C0000026E08C01ACD022E08C0182
:103B0600A9D00FE31FE101501040E9F700C0000003
:103B160020E88C019FD08991999108950E943130B7
:103B2600D801FD0106A117A10F5F1F4F06A317A31A
:103B3600FD0106A117A1003024E0120728F000E0DD
:103B460010E0FD0106A317A3FD0100A511A50F5F57
:103B56001F4F00A711A7FD0103A5039503A7FD01AC
:103B660003A5003110F100E0FD0103A7FD0102A548
:103B7600039502A7FD0102A5023051F400E0FD0104
:103B860002A7FD01A0A7B1A720E88D0163D009C057
:103B96008D01005F1F4FFD0100A711A720EC8D01CD
:103BA60059D008EC00000A95E9F7FD0102A50023AB
:103BB600C9F4FD0120A131A1FD0143A501E010E0FA
:103BC6000E94412F20233123232B49F0FD0106A11A
:103BD60017A1013022E0120710F001E001C000E059
:103BE600802F18C0FD0122A133A1FD0143A501E0EC
:103BF60010E00E94412F20233123232B49F0FD01A1
:103C060006A117A1013022E0120710F001E001C061
:103C160000E0802FFD0100A511A5F8010081FD013E
:103C260004A7FD0104A5013848F0FD0104A510E034
:103C3600F801EC5AFF4F0491FD0104A7882319F0FF
:103C460000E2FD0104A7FD0124A58D011FD0E4E0DB
:103C56000C9442300E943230C801A22F0FB7009355
:103C6600E90EF89408EC00000A95E9F7DD9B05C01B
:103C7600DD9808EC00000A95E9F72A2F8C0122D07E
:103C86000091E90E0FBFE3E00C9443300E943230FE
:103C9600C801A22F0FB70093EA0EF89408EC0000B3
:103CA6000A95E9F7DD9905C0DD9A08EC00000A954A
:103CB600E9F72A2F8C0106D00091EA0E0FBFE3E048
:103CC6000C9443304BB3407F322F32953F70432BD9
:103CD6004BBBDC9A000000000000DC9800000000EE
:103CE60000004BB3407F322F3F70432B4BBBDC9A17
:103CF600000000000000DC9808950E943030C801E2
:103D06000FB7402EF89420E48C01A4DF0FE91FE0E2
:103D160001501040E9F700C00000A0E0A03160F4B7
:103D2600B0E0FD01EC5AFE4F24918C01AFDF00E5B7
:103D36000A95F1F7A395F2CF20E88C018BDF0FE906
:103D46001FE001501040E9F700C000004FBEE5E05B
:103D56000C944130203208F020E0422F50E0F80168
:103D6600E40FF51F30830895BA931A2EF801622FD7
:103D7600532F603208F060E070E0DF01A60FB71F36
:103D86005C93603130F48F01005E1F4F9801062E60
:103D960007C08F010E5D1F4F9801062F0051002EA0
:103DA60006A5013080F0402D01E010E00E94412F71
:103DB600D9012D903C90202A312A3C922E9206A5BC
:103DC6000A9506A70EC0402D01E010E00E94412F83
:103DD60000951095D9012D903C90202231223C92DD
:103DE6002E92A12DB9910895FA013081632F662391
:103DF60079F0203208F020E030E0F801E20FF31FFE
:103E0600608323954F5F5F4FFA013081632FEFCFB9
:103E16000895FA013491632F662379F0203208F071
:103E260020E030E0F801E20FF31F608323954F5F37
:103E36005F4FFA013491632FEFCF089520E030E011
:103E4600F80120A331A320E030E0F80122A333A338
:103E560020E0F80126A708959A938A93C80100E006
:103E6600003240F420E210E0FC01E00FF11F208355
:103E76000395F6CF8C01E2DF8991999108950E940E
:103E86002D30D801422E532E942F042D050D0A9560
:103E9600802F66246514E8F44AE0092F0E942B2F30
:103EA600742E88230AF48FE180320CF080E0272DEF
:103EB600205D082F102F110F110BFD01E00FF11FD0
:103EC60020838A954AE0092F0E942B2F902F639416
:103ED600E1CFE8E00C943E300E942C302801B22F4E
:103EE600632ECA010B2F060D0A95A02F7724761490
:103EF600F8F44AE050E08C010E94472F842EAA2352
:103F06000AF4AFE1A0320CF0A0E0282D205D0A2FC4
:103F1600102F110F110BF201E00FF11F2083AA954C
:103F26004AE050E08C010E94472FC8017394DFCF0E
:103F3600E9E00C943D300E942D30D801422E532EDC
:103F4600942F042D050D0A95802F7724751468F596
:103F56004AE0092F0E942B2F642E88230AF48FE152
:103F660080320CF080E0772019F001E0601660F0F6
:103F7600262D205D082F102F110F110BFD01E00FCC
:103F8600F11F20838A950AC020E2082F102F110FF7
:103F9600110BFD01E00FF11F20838A954AE0092FDE
:103FA6000E942B2F902F7394D1CFE8E00C943E30D3
:103FB6000E942C30D801522E832ECA01052D080DE1
:103FC6000A95402E6624681488F54AE050E08C0174
:103FD6000E94472F742E442012F40FE1402E00E277
:103FE60040160CF04424662019F0082F092B61F0C6
:103FF600272D205D042D102F110F110BFD01E00F51
:10400600F11F20834A940AC020E2042D102F110FBD
:10401600110BFD01E00FF11F20834A944AE050E0A6
:104026008C010E94472FC8016394CDCFE9E00C9420
:104036003D300E94960201E010E020E030E0E0E42E
:10404600FAE0008311832283338308EF1EE420E025
:1040560030E0E0E4FAE004831583268337830EEC30
:104066001CE020E030E0E0E4FAE0008711872287D8
:1040760033870EE31BE520E030E0E0E4FAE0048756
:104086001587268737870AED18E120E030E0E0E45F
:10409600FAE0008B118B228B338B0BE017E620E0C6
:1040A60030E0E0E4FAE0048B158B268B378B03EDCA
:1040B60014E220E030E0E0E4FAE0008F118F228F76
:1040C600338F03E113E720E030E0E0E4FAE0048F09
:1040D600158F268F378F0EE210E320E030E0E0E404
:1040E600FAE000A311A322A333A302E611E820E01D
:1040F60030E0E0E4FAE004A315A326A337A30EE517
:104106001AE320E030E0E0E4FAE000A711A722A7D6
:1041160033A70BEF14E920E030E0E0E4FAE004A76F
:1041260015A726A737A70CE41EE620E030E0E0E45A
:10413600FAE000AB11AB22AB33AB04E711EF20E0A2
:1041460030E0E0E4FAE004AB15AB26AB37AB08E1B0
:1041560014E720E030E0E0E4FAE000AF11AF22AF70
:1041660033AF00E010E020E030E0ECE7FAE0008357
:104176001183228333830E9432120FEF13ED20E363
:10418600015010402040E1F700C0000078940FEF86
:1041960013ED20E3015010402040E1F700C000007D
:1041A60000911D0A10911E0A0E94801E0E94800323
:1041B6000E94E7200E94982E0E94A02E0E941404BE
:1041C6000E94C12AF9CF0895219701E00093EB0ED2
:1041D6008E010E94360300E010E020E030E0E8E1C6
:1041E600FAE00083118322833383E8E1FAE0008159
:1041F600118122813381EEEEFEE00083118322835A
:1042060033838E010E943B0300911D0A10911E0A02
:104216000E942F1F4BE352E020E000911D0A1091EF
:104226001E0A0E940C1F46E452E020E100911D0A7E
:1042360010911E0A0E940C1F219608958A9380E011
:10424600883008F041C0082F10E0000F111FF80158
:10425600E35DF54F008111810E94CD2D002351F0C1
:1042660030E2282F285E00911D0A10911E0A0E9436
:10427600B71E10C001E0E0911D0AF0911E0A06A7C4
:10428600382F3F5C282F285E00911D0A10911E0AC8
:104296000E94B71E082F10E0000F111FF801E35D02
:1042A600F54F008111810E94CD2D002311F431E0DC
:1042B60001C030E0282F285F00911D0A10911E0AC8
:1042C6000E94AD1E8395BCCF0E943A04002369F07C
:1042D6000E943A04013049F00E943A04023029F063
:1042E6000E943A04033009F002D08991089521977B
:1042F6008E010E94360300E010E020E030E0E8E1A5
:10430600FAE00083118322833383E8E1FAE0008137
:10431600118122813381EEEEFEE000831183228338
:1043260033838E010E943B0300911D0A10911E0AE1
:104336000E942F1F02E00093EB0E40E059E020E0C0
:1043460000911D0A10911E0A0E94F71E01E00093BB
:104356001C0A02D0219608950E94323090E080E037
:1043660000911C0A002311F091E081E000910A0AF5
:10437600002329F000E000930A0A91E081E00E9400
:10438600F303002319F00E94E70381E0992309F45F
:1043960081C00091260A1091270A012BB9F40091D9
:1043A6001C0A002399F44AE552E020E000911D0A18
:1043B60010911E0A0E940C1F43E652E020E1009174
:1043C6001D0A10911E0A0E940C1F3BC040E059E0D6
:1043D60020E000911D0A10911E0A0E94F71E41E579
:1043E60052E020E100911D0A10911E0A0E940C1F46
:1043F60048EE53E00091260A1091270A0E94472FA3
:10440600A80132E022E100911D0A10911E0A0E94C5
:10441600DB1F3EE224E100911D0A10911E0A0E9454
:10442600AD1E48EE53E00091260A1091270A0E941D
:10443600472F33E025E100911D0A10911E0A0E94C4
:104446006F1FA0E0A83030F52091280A4A2F01E01E
:1044560010E00E94412F2023222389F001E0E09101
:104466001D0AF0911E0A06A73A2F3F5C2A2F285EE6
:1044760000911D0A10911E0A0E94B71E09C030E263
:104486002A2F285E00911D0A10911E0A0E94B71E4F
:10449600A395D8CF8823E9F0A0E0A830D0F40A2F5E
:1044A60010E0000F111FF801E35DF54F0081118147
:1044B6000E94CD2D002311F431E001C030E02A2FF7
:1044C600285F00911D0A10911E0A0E94AD1EA39539
:1044D600E4CF0E943A04053091F440E059E020E030
:1044E60000911D0A10911E0A0E94F71E4CE652E02A
:1044F60020E100911D0A10911E0A0E940C1F00E087
:1045060000931C0AE3E00C94433021978E010E942D
:10451600360300E315E720E030E0E8E1FAE0008347
:10452600118322833383E8E1FAE00081118122813D
:104536003381EEEEFEE000831183228333838E0106
:104546000E943B030091EB0E0093EC0E03E00093F8
:10455600EB0E00E00093FB0E00E0053040F420E097
:1045660010E0F801EA50F14F20830395F6CF009151
:104576001D0A10911E0A0E942F1F4DE752E020E0EF
:1045860000911D0A10911E0A0E940C1F02D021964E
:1045960008958A9380E080E00091FB0E801788F4EE
:1045A60000E0E0911D0AF0911E0A06A73AE2282FC4
:1045B600205F00911D0A10911E0A0E94B71E839566
:1045C600EBCF0091FB0E0530B8F401E0E0911D0A37
:1045D600F0911E0A06A70091FB0E10E0F801EA50C2
:1045E600F14F3081305D2091FB0E205F00911D0A56
:1045F60010911E0A0E94B71E899108950091FB0E24
:1046060010E0F801EA50F14F0081002349F409E077
:104616002091FB0E30E0F901EA50F14F008309C00A
:104626000091FB0E10E0F801EA50F14F00810A9567
:104636000083AFDF08950091FB0E10E0F801EA5009
:10464600F14F0081093048F000E02091FB0E30E088
:10465600F901EA50F14F008309C00091FB0E10E00A
:10466600F801EA50F14F00810395008392DF089527
:104676009A938A930091FB0E03950093FB0E00918B
:10468600FB0E053080F40091FB0E10E0F801EB50B4
:10469600F14F20810091FB0E10E0F801EA50F14F36
:1046A600208377DF2AC081E091E020E02530F0F416
:1046B60030E042E150E0420F531F0E940D2F30E0E0
:1046C600F901EA50F14F1081011709F080E030E05E
:1046D600F901EA5CFD4F049130E0F901EA50F14F2F
:1046E6001081011709F090E02395E0CF082F092BE0
:1046F600002311F078D001C019D0899199910895BD
:104706000091FB0E013008F001D008954091EC0EA7
:1047160050E00EE010E00E94392FF801E059FE4FFC
:10472600059114913197F80109950895219704E0B0
:104736000093EB0E00911D0A10911E0A0E942F1F76
:104746004DE852E020E000911D0A10911E0A0E94D9
:104756000C1F8E010E94360300E010E020E030E0DE
:10476600E8E1FAE00083118322833383E8E1FAE08B
:104776000081118122813381EEEEFEE000831183F8
:104786002283338300E315E70093FC0E1093FD0E9E
:104796008E010E943B03219608959A938A9321974E
:1047A6008E010E9436030091FC0E1091FD0EC80189
:1047B6008E010E943B03823000E0900778F048EEBD
:1047C60053E08C010E94472FA80132E020E10091BE
:1047D6001D0A10911E0A0E94DB1F01C097DF219659
:1047E600899199910895219705E00093EB0E009128
:1047F6001D0A10911E0A0E942F1F8E010E94360369
:1048060000E21FEB22E030E0E8E1FAE000831183EA
:1048160022833383E8E1FAE000811181228133812A
:10482600EEEEFEE000831183228333838E010E9425
:104836003B034DE952E020E000911D0A10911E0A4B
:104846000E940C1F00E00093FE0E55D0219608959D
:104856008A9322978E010F5F1F4F0E9436030091A5
:10486600250A802F8E010F5F1F4F0E943B0388236E
:10487600F9F18E010E94360300E00093250A8E01AD
:104886000E943B034091240A33E026E000911D0A72
:1048960010911E0A0E949E1F34E629E000911D0A0F
:1048A60010911E0A0E94AD1E4091230A32E02AE0B2
:1048B60000911D0A10911E0A0E94421F38E62CE044
:1048C60000911D0A10911E0A0E94AD1E4091220AF7
:1048D60032E02DE000911D0A10911E0A0E94421F2F
:1048E6003DE62FE000911D0A10911E0A0E94AD1EA2
:1048F6002296899108954091FE0E50E001E110E064
:104906000E94392F43EA52E0400F511F20E10091E7
:104916001D0A10911E0A0E940C1F0895F7DE0895C5
:104926000091FE0E013028F00091FE0E0A950093CC
:10493600FE0EE1DF08950091FE0E0B3028F4009183
:10494600FE0E03950093FE0ED6DF08950091FE0E2F
:104956000B3011F419D008950091FE0E083010F4B2
:104966002DD108950091FE0E083011F414D3089548
:104976000091FE0E093011F453D208950091FE0EF7
:104986000A3009F40BD50895219706E00093EB0E43
:104996008E010E94360300E61AEE20E030E0E8E1E0
:1049A600FAE00083118322833383E8E1FAE0008191
:1049B600118122813381EEEEFEE000831183228392
:1049C60033838E010E943B0300911D0A10911E0A3B
:1049D6000E942F1F4FE653E020E000911D0A109120
:1049E6001E0A0E940C1F00E0053040F420E010E093
:1049F600F801EA50F14F20830395F6CF00E00093CB
:104A0600FB0E04D021960895EEDE08959A938A93BC
:104A160080E00091FB0E8017B0F400E0E0911D0AE3
:104A2600F0911E0A06A790E0FC01EA50F14F308192
:104A3600305D282F205F00911D0A10911E0A0E94EA
:104A4600B71E8395E6CF0091FB0E0530B8F401E062
:104A5600E0911D0AF0911E0A06A70091FB0E10E0D8
:104A6600F801EA50F14F3081305D2091FB0E205F56
:104A760000911D0A10911E0A0E94B71E89919991F4
:104A860008950091FB0E10E0F801EA50F14F008105
:104A9600002349F409E02091FB0E30E0F901EA50C9
:104AA600F14F008309C00091FB0E10E0F801EA50B7
:104AB600F14F00810A950083A9DF08950091FB0E4E
:104AC60010E0F801EA50F14F0081093048F000E0AB
:104AD6002091FB0E30E0F901EA50F14F008309C046
:104AE6000091FB0E10E0F801EA50F14F00810395AA
:104AF60000838CDF08950091FB0E0430A8F400912A
:104B0600FB0E03950093FB0E0091FB0E10E0F801DF
:104B1600EB50F14F20810091FB0E10E0F801EA50B6
:104B2600F14F208373DF089501D00895219707E0A0
:104B36000093EB0E8E010E94360300E61AEE20E08B
:104B460030E0E8E1FAE00083118322833383E8E171
:104B5600FAE00081118122813381EEEEFEE00083CE
:104B66001183228333838E010E943B0300911D0A29
:104B760010911E0A0E942F1F4DE753E020E100917D
:104B86001D0A10911E0A0E940C1F219608952BDE05
:104B9600089529DE089520E0253070F430E0F9010B
:104BA600EA50F14F008130E042E150E0420F531FDE
:104BB6000E941E2F2395F0CFA9DD0895219708E0C6
:104BC6000093EB0E0091FE0E10E0000F111F40E067
:104BD60050E0400F511F0E94102F0093010F1093B9
:104BE600020F04E00093030F00911D0A10911E0AA4
:104BF6000E942F1F49E853E020E000911D0A109102
:104C06001E0A0E940C1F3091FE0E3F5C2DE00091A3
:104C16001D0A10911E0A0E94B71E1ED08E010E9408
:104C2600360300EC14ED21E030E0E8E1FAE0008321
:104C3600118322833383E8E1FAE000811181228126
:104C46003381EEEEFEE000831183228333838E01EF
:104C56000E943B03219608950E9430300091010F77
:104C66001091020FC801A0E0A53060F504E00A1B10
:104C7600402E4AE050E08C010E94472FB42F00914D
:104C8600030F0A1739F401E0E0911D0AF0911E0A9C
:104C960006A706C000E0E0911D0AF0911E0A06A7CD
:104CA6003B2F305D242D205F00911D0A10911E0AB6
:104CB6000E94B71E4AE050E08C010E94472FC801AF
:104CC600A395D2CFE5E00C9441308DDD08950E9486
:104CD6003130A1E0B0E020E00091030F201740F44E
:104CE6000AE010E0AD010E94392FD8012395F4CFD8
:104CF600AD010091010F1091020F0E94472F4AE06B
:104D060050E00E94472F842F813040F0E1E0FFE021
:104D1600008111810A1B1B0B008311839DDFE4E0D8
:104D26000C9442300E943130A1E0B0E020E00091C6
:104D3600030F201740F40AE010E0AD010E94392F5E
:104D4600D8012395F4CFAD010091010F1091020F08
:104D56000E94472F4AE050E00E94472F842F893057
:104D660040F4E1E0FFE0008111810A0F1B1F008380
:104D7600118372DFE4E00C9442300091030F01309E
:104D860038F00091030F0A950093030F65DF08952D
:104D960001D00895219709E00093EB0E00911D0ABA
:104DA60010911E0A0E942F1F47E953E020E100914F
:104DB6001D0A10911E0A0E940C1F8E010E943603C6
:104DC60000E315E720E030E0E8E1FAE00083118334
:104DD60022833383E8E1FAE0008111812281338165
:104DE600EEEEFEE000831183228333838E010E9460
:104DF6003B0321960895F7DC0895F5DC08950091AC
:104E0600010F1091020F2091FE0E30E0220F331F8A
:104E160040E050E0420F531F0E94222FE4DC089529
:104E260021970BE00093EB0E08EE13E00093FF0EC4
:104E36001093000F00911D0A10911E0A0E942F1F49
:104E460043EA53E020E000911D0A10911E0A0E94D9
:104E56000C1F1ED08E010E94360300EC14ED21E0DB
:104E660030E0E8E1FAE00083118322833383E8E14E
:104E7600FAE00081118122813381EEEEFEE00083AB
:104E86001183228333838E010E943B03219608956A
:104E96009A938A9341EB53E020E100911D0A109109
:104EA6001E0A0E940C1F4091FF0E5091000F35E024
:104EB60020E100911D0A10911E0A0E94DB1F00913D
:104EC600FF0E1091000F0056104FC80148EE53E038
:104ED6008C010E94472FA80132E028E100911D0AAB
:104EE60010911E0A0E94DB1F48EE53E08C010E94BF
:104EF600472F33E02BE100911D0A10911E0A0E94F4
:104F06006F1F0091FF0E1091000F0E94CF03899131
:104F16009991089502D0EBD9089500E010E00E941F
:104F2600CF0308959A938A9348EE53E00091FF0EBB
:104F36001091000F0E94472FC801082F092B09F076
:104F4600019708EE13E0AC010E94392F0093FF0E83
:104F56001093000F9DDF8991999108959A938A93F2
:104F660048EE53E00091FF0E1091000F0E94472F6C
:104F7600C801803100E0900708F4019608EE13E0BE
:104F8600AC010E94392F0093FF0E1093000F80DFB3
:104F960089919991089521970AE00093EB0E8E016D
:104FA6000E94360300E010E020E030E0E8E1FAE09D
:104FB6000083118322833383E8E1FAE000811181C3
:104FC60022813381EEEEFEE0008311832283338358
:104FD6008E010E943B0300911D0A10911E0A0E9439
:104FE6002F1F01E000931C0A02D0219608950E940B
:104FF6002530279700E00A8300E0098300911C0A08
:10500600002321F001E00A8301E0098300910A0AE6
:10501600002339F000E000930A0A01E00A8301E068
:1050260009830E94F303002321F001E009830E9413
:10503600E7030A81002379F148EE53E00091260A3E
:105046001091270A0E94472FA80131E020E0009125
:105056001D0A10911E0A0E94DB1F3EE221E000910C
:105066001D0A10911E0A0E94AD1E48EE53E00091E3
:10507600260A1091270A0E94472F8A014AE050E02B
:105086000E94472FA80132E022E000911D0A1091EC
:105096001E0A0E946F1F0981002309F47BC101E0EB
:1050A60008830881602E06E0601608F0CCC0462D05
:1050B60050E008E010E00E94392FF801E05CF54F5F
:1050C600C480D580E680F780462D50E008E010E0E9
:1050D6000E94392FF801E45CF54F0081118122818D
:1050E6003381C01AD10AE20AF30A46015701088140
:1050F600162D101B03E0109F00E1000E402C01E06E
:10510600801600E0900600E0A00600E0B006DCF4A1
:1051160030E2242D00911D0A10911E0A0E94AD1E38
:105126003DE2242D239500911D0A10911E0A0E942E
:10513600AD1E3DE2242D2E5F00911D0A10911E0A20
:105146000E94AD1E7EC0062D10E0000F111F40E02C
:1051560050E0400F511F0E94102FB8014EEF5FEF35
:10516600062D10E0000F111F400F511F0E94102F37
:10517600601B710B8B0120E030E00B831C832D83B9
:105186003E8348E853E160E070E00B811C812D818D
:105196003E810E945B2F680179014AE050E060E0A1
:1051A60070E0840195010E945B2FA801B901860178
:1051B60097010E947B2FC801D9018B5F9F4FAF4F8C
:1051C600BF4F8C019D014AE050E060E070E00E9414
:1051D6007B2FC801D90130E2242D00911D0A1091C0
:1051E6001E0A0E94AD1E4AE050E060E070E08C01AD
:1051F6009D010E947B2F080119014AE050E060E002
:1052060070E0800191010E947B2F342F305D242DA8
:10521600239500911D0A10911E0A0E94AD1E4AE0B8
:1052260050E060E070E08C019D010E947B2F342FDE
:10523600305D242D2E5F00911D0A10911E0A0E94DA
:10524600AD1E639430CF05E008830881C02E08E0C8
:10525600C01608F09FC04C2D50E008E010E00E94F8
:10526600392FF801E05CF54F4080518062807380F1
:105276004C2D50E008E010E00E94392FF801E85C60
:10528600F54F0081118122813381401A510A620A49
:10529600730A4201530108811C2D101B03E0109F65
:1052A60006E0000ED02C01E0801600E0900600E03B
:1052B600A00600E0B006DCF430E22D2D00911D0AB8
:1052C60010911E0A0E94AD1E3DE22D2D23950091E0
:1052D6001D0A10911E0A0E94AD1E3DE22D2D2E5F65
:1052E60000911D0A10911E0A0E94AD1E51C00C2D80
:1052F60010E0000F111F40E050E0400F511F0E94C8
:10530600102FB8014EEF5FEF0C2D10E0000F111FAC
:10531600400F511F0E94102F601B710B8B0120E064
:1053260030E00B831C832D833E8348E853E160E025
:1053360070E00B811C812D813E810E945B2F28012C
:1053460039014AE050E060E070E0840195010E9476
:105356005B2FA801B901820193010E947B2FC8012E
:10536600D9018B5F9F4FAF4FBF4F8C019D014AE024
:1053760050E060E070E00E947B2FC801D901AC01CB
:1053860033E02D2D00911D0A10911E0A0E949E1FCA
:10539600C3945DCF2796E0E10C94363021970CE05C
:1053A6000093EB0E8E010E94360300E61AEE20E013
:1053B60030E0E8E1FAE00083118322833383E8E1F9
:1053C600FAE00081118122813381EEEEFEE0008356
:1053D6001183228333838E010E943B0300911D0AB1
:1053E60010911E0A0E942F1F42EC53E020E000910C
:1053F6001D0A10911E0A0E940C1F4CEC53E020E17E
:1054060000911D0A10911E0A0E940C1F40E150E0F7
:105416000E94102F0093040F1093050F02D02196BF
:1054260008954AE050E00091040F1091050F0E9484
:10543600472FA80133E026E100911D0A10911E0AAC
:105446000E94DB1F4AE050E00091040F1091050F07
:105456000E94472F342F305D2AE100911D0A1091DA
:105466001E0A0E94AD1E0895E091040FF091050FEB
:105476007A9748F0E4E0FFE0008111810150104086
:1054860000831183CEDF08950091040F1091050F5C
:10549600003A2FE0120748F4E4E0FFE000811181B2
:1054A6000F5F1F4F00831183BCDF089521970DE026
:1054B6000093EB0E00911D0A10911E0A0E942F1FE9
:1054C60049ED53E020E100911D0A10911E0A0E9449
:1054D6000C1F8E010E94360300E315E720E030E042
:1054E600E8E1FAE00083118322833383E8E1FAE0FE
:1054F6000081118122813381EEEEFEE0008311836B
:10550600228333838E010E943B03219608950091E6
:10551600040F1091050F40E150E00E94222FF6D8AB
:10552600089561D90895EEEEFEE000811181228191
:105536003381023040E0140740E0240740E034079E
:1055460070F0EEEEFEE00081118122813381015080
:105556001040204030400083118322833383E09142
:10556600FC0EF091FD0E329740F0ECEFFEE000816C
:1055760011810150104000831183089523970E94E2
:10558600F51C013008F440C00DEE1EE00E94FB1C25
:105596008E010E5F1F4F0E943603EEEEFEE0008185
:1055A600118122813381023040E0140740E0240754
:1055B60040E0340760F0E8E1FAE0008111812281E1
:1055C6003381EEEEFEE000831183228333838E0166
:1055D6000E5F1F4F0E943B034091EB0E50E00EE022
:1055E60010E00E94392FE4E6F1E0E00FF11F009190
:1055F600ED0E10E0000F111FE00FF11F0591149141
:105606003197F801099553C08E010F5F1F4F0E9415
:105616003603EEEEFEE00081118122813381E2EF56
:10562600FEE000831183228333838E010F5F1F4FB9
:105636000E943B03E2EFFEE000811181228133816B
:10564600013040E0140740E0240740E0340701F54C
:105656008E010E94360300E010E020E030E0EEEE1E
:10566600FEE000831183228333838E010E943B0375
:105676004091EB0E50E00EE010E00E94392FF80149
:10568600E259FE4F059114913197F80109950FC023
:105696004091EB0E50E00EE010E00E94392FF80129
:1056A600EC59FE4F059114913197F801099523960F
:1056B60008950E942E30C801622E532E442EB52F17
:1056C600A62F6A2F5B2F442D352D262D8C0104D055
:1056D6008C01E7E00C943F300E942E30D801622EF8
:1056E600832F542E452E962F062DE6EEF0E0FBBFB7
:1056F600F3E00C94C92F09E3FD0105830AE3FD01DC
:1057060004830BE3FD0106838CC009E3FD010583D9
:105716000AE3FD0104830BE3FD01068382C006E371
:10572600FD01058307E3FD01048308E3FD0106830C
:1057360078C006E3FD01058307E3FD01048308E362
:10574600FD0106836EC003E3FD01058304E3FD014D
:10575600048305E3FD01068364C003E3FD010583BD
:1057660004E3FD01048305E3FD0106835AC000E35B
:10577600FD01058301E3FD01048302E3FD010683C8
:1057860050C000E3FD01058301E3FD01048302E34C
:10579600FD01068346C001E2FD01058302E2FD012B
:1057A600048303E2FD0106833CC001E2FD0105839B
:1057B60002E2FD01048303E2FD01068332C000E23A
:1057C600FD01058301E6FD01048302E6FD01068372
:1057D60028C000E2FD01058301E6FD01048302E61F
:1057E600FD0106831EC003E6FD01058304E6FD01F7
:1057F600048305E6FD01068314C003E6FD01058367
:1058060004E6FD01048305E6FD0106830AC003E301
:10581600FD01058304E3FD01048305E3FD01068321
:1058260083E0883040F4482F01E010E00E94412FC9
:10583600FD01078303C001E0FD010783552051F0F8
:10584600FD011781FD010481E02FF0E00081012BAD
:1058560000830AC0FD0117811095FD010481E02F28
:10586600F0E0008101230083FD011781FD0106811F
:10587600E02FF0E00081012B008300E010E0FD0145
:10588600018712870D931C93119700E0FD01028397
:10589600FD0143828D010D5F1F4FFD0103871487B4
:1058A600983040F4492F01E010E00E94412FFD019D
:1058B600008703C001E0FD010087E7E00C943F305C
:1058C600F8012581E22FF0E02081F80137812323BA
:1058D600222319F0F8010085089500E008950E943A
:1058E6002D30D801722E832F642E2B01952FFD01AA
:1058F6009183FD0143825482062D10E020E030E0C2
:1059060048E853E160E070E00E945B2F48EE53E008
:1059160060E070E00E947B2FFD01058300E00C93A0
:10592600072DE4E1F0E0FBBFF4E00C94C92F09E396
:10593600FD0107830AE3FD0106830BE3FD010087F2
:105946008CC009E3FD0107830AE3FD0106830BE32F
:10595600FD01008782C006E3FD01078307E3FD0121
:10596600068308E3FD01008778C006E3FD0107838F
:1059760007E3FD01068308E3FD0100876EC003E32C
:10598600FD01078304E3FD01068305E3FD010087AE
:1059960064C003E3FD01078304E3FD01068305E319
:1059A600FD0100875AC000E3FD01078301E3FD0105
:1059B600068302E3FD01008750C000E3FD01078373
:1059C60001E3FD01068302E3FD01008746C001E213
:1059D600FD01078302E2FD01068303E2FD01008764
:1059E6003CC001E2FD01078302E2FD01068303E2FA
:1059F600FD01008732C000E2FD01078301E6FD01DB
:105A0600068302E6FD01008728C000E2FD01078348
:105A160001E6FD01068302E6FD0100871EC003E6DE
:105A2600FD01078304E6FD01068305E6FD01008707
:105A360014C003E6FD01078304E6FD01068305E6BF
:105A4600FD0100870AC003E6FD01078304E6FD01A8
:105A5600068305E6FD01008784E0883008F080E0D3
:105A6600482F01E010E00E94412FFD010187FD0152
:105A760011851095FD010681E02FF0E000810123DC
:105A86000083FD011185FD010085E02FF0E0108304
:105A9600FD010781E02FF0E00081FD011185012362
:105AA600002311F001E001C000E01C910127FD0177
:105AB6000287FD010285002329F0FD010581FD0114
:105AC600038703C000E0FD0103878D0104D08D012B
