:020000020000FC
:100000000C94311F189518951895189518951895F2
:100010001895189518951895189518951895189578
:10002000189518950C94010218951895189518951F
:100030001895189518951895189518950C947E0292
:1000400018951895189518950C94561E0C948D1E9D
:100050001895189518951895189518951895189538
:100060001895189518951895189518951895189528
:100070001895189518951895189518951895189518
:100080001895189518951895189518956E0E2503BE
:100090002503860E020425031004630425037C0453
:1000A000E7049504FE042503250325032503250302
:1000B0002503250325032503250325030102010349
:1000C000010201040102010301020100474D206306
:1000D0006F646500D9DA20202020202020202020F5
:1000E0002020202020202020202020202020202010
:1000F0002020202020202020202020202020202000
:1001000020202020A2B520202020202020202020D8
:100110002020202041A042A1E045A3A4A5A64BA7F2
:100120004D484FA8504354A9AA58E1ABACE2ADAE3C
:1001300062AFB0B161B2B3B4E365B6B7B8B9BABB38
:10014000BCBD6FBE7063BF79E478E5C0C1E6C2C3D1
:10015000C4C5C6C70609090600000000060F0F0641
:1001600000000000091409140914091409140914E1
:100170000914431408140814081408140814091462
:10018000D1148D1508140814081408149C140814AC
:1001900088160616231640168E168D15D5160814C9
:1001A00008140814081408149E1608144317451759
:1001B00050175B178E16FB160814AD17EA170718B1
:1001C00024188E166D1708147018721874180814F5
:1001D0008E163F1808140E1910193B1966198E1641
:1001E00087180814A419A619A81908148E167319CB
:1001F000E5199C140814081408140814B9190814F3
:10020000081408140814081408140814081408140E
:1002100008140814081408140814030204060153EF
:100220007475636B20202020200053656E736F72FD
:1002300073203A20004C3D202020202020004C3DFF
:100240003F20202020202020202020202020004986
:100250006E7075742070617373776F72643A0050BA
:10026000617373776F7264206572726F7221004DD3
:10027000656E753A0044697374616E636520746FCE
:1002800020533120200044697374616E63652074CB
:100290006F20533220200044697374616E636520BF
:1002A000746F20533320200044697374616E63655A
:1002B00020746F20533420200044697374616E638E
:1002C0006520746F20533520200044697374616E7B
:1002D000636520746F205336202000446973746175
:1002E0006E636520746F2053372020004469737457
:1002F000616E636520746F2053382020005365744D
:10030000206E65772070617373776F726400446547
:100310006275672073637220737065656420005393
:1003200065742070617373776F72643A00536176FD
:10033000653F20282D2F2B290044697374616E635B
:100340006520746F205300536176653F20282D2F60
:030350002B290056
:100354004101621CE01B01F41B01081C011C1C016F
:10036400301C01441C01581C1AD61B01EA1B01FE57
:100374001B01121C01261C013A1C014E1CFB4101ED
:100384006E1DEC1C01001D01141D01281D013C1DE6
:1003940001501D01641D1AE21C01F61C010A1D0115
:1003A4001E1D01321D01461D015A1DFB3702940F0B
:1003B40000E005BD05B5086005BD05B50F7B05BDAD
:1003C40005B50F7D05BD05B50F7E05BD05B50B7FD4
:1003D40005BD05B5026005BD05B5016005BD01D0CB
:1003E400089500E004BD0CE703BD06B70F7706BF10
:1003F40006B70F7B06BF07B7006807BF08959A9337
:100404008A93FA93EA933A922A921A920A927A93E4
:100414006A935A934A933A932A931A930A938FB7F7
:100424009BB707B70F7707BF7894009179081091AD
:100434007A080E94BD110E9433110E94EE1A0E9494
:10044400A502CFDF9BBF8FBF0991199129913991E3
:10045400499159916991799109901990299039900C
:10046400E991F9918991999118950FE210E00E9410
:1004740068209801012B41F089010E9439110093F1
:10048400790810937A08089500E010E00093790841
:1004940010937A0808950E94DA010E945E020E9475
:1004A400181E0E94A9020E94580208950E94BD0EBF
:1004B40008950E944103089503B70B7F03BF03B758
:1004C400026003BF03B7016003BF03B70F7B03BF21
:1004D40003B7086003BF03B70F7D03BF03B70F7EE5
:1004E40003BF03B70F7703BF00E002BF09EF01BFEB
:1004F40007B7026007BF08959A938A93FA93EA9321
:100504003A922A921A920A927A936A935A934A9343
:100514003A932A931A930A938FB79BB70E94A60221
:100524009BBF8FBF09911991299139914991599193
:10053400699179910990199029903990E991F991EB
:1005440089919991189508950E945B02089505E098
:100554000A3040F420E010E0F801E05AF84F20831C
:100564000395F6CF08950E944C20D8010FEF80E048
:1005740090E08217930764F410E04C9150E0042754
:100584001527F801E659F84F008111960196F1CF2D
:10059400E4E00C945D20C69AC69AC79A949A959AF8
:1005A400BE9ABE9ABF9A8C9A8D9A0FE31CE90150A9
:1005B4001040E9F700C0000095980895B80100E0E4
:1005C40010E0BE9ABF9A8C9A8D9AC7982AE02A9511
:1005D400F1F700C094982AE02A95F1F700C040E0B2
:1005E400403110F577FB16F421E001C020E020FB38
:1005F40028B326F928BB2AE02A95F1F700C0C79A48
:100604002AE02A95F1F700C0000F111FC69B03C012
:10061400016021E030E0C798660F771F2AE02A9531
:10062400F1F700C04395DCCF949A2AE02A95F1F7BC
:1006340000C008952FB7F8012083F8940895F801B5
:1006440020812FBF0895089521978E010E941C03D5
:1006540000E0009392088E010E94210321960895E0
:100664008A9321978E010E941C0300919208802F87
:100674008E010E942103082F2196899108950E94DA
:100684007F0F0091DF0810E0000F111F000F111FF2
:10069400F801E257FF4F059114913197F80109953C
:1006A400089521978E010E941C030091DF0810E039
:1006B400000F111F000F111FF801E457FF4F0591A0
:1006C40014913197F8010995EEE7F8E00081118162
:1006D4002281338100937B0810937C080091930856
:1006E40000937D088E010E942103219608958A9328
:1006F40021978E010E941C030091DF08802F8E0138
:100704000E942103082F2196899108950E944C206C
:10071400602F212F422F01E010E00E94891F1091C9
:100724009208102B1093920830E0F901E459F74F26
:1007340060830091D908002309F45FC030E0422FA0
:1007440050E008E010E00E94811FE5E9F8E0E00FC6
:10075400F11F062F10E0000F111F000F111FE00FF3
:10076400F11F008011802280338001280228032891
:1007740019F4662309F431E0613059F4213048F06A
:10078400022F10E0F801E559F74F0081002309F02A
:1007940031E0332391F1E5EDF8E080819181A2818C
:1007A400B381422F50E008E010E00E94811FE5E988
:1007B400F8E0E00FF11F062F10E0000F111F000FEB
:1007C400111FE00FF11F80839183A283B383422F13
:1007D40001E010E00E94891F10919408102B1093DF
:1007E400940840916B08542F550F550B022F10E0BD
:1007F4004017510714F420936B08E4E00C945D2037
:1008040000E21FEB22E030E0EAEDF8E00083118320
:100814002283338303E00093DF0808950E944C2071
:100824000E949F0E0023F1F10E94BA0E40E048306E
:1008340010F560E06230E8F400E010E020E030E021
:10084400C801D90150E008E010E00E94811FE5E9E9
:10085400F8E0E00FF11F062F10E0000F111F000F4A
:10086400111FE00FF11F80839183A283B3836395EB
:10087400E1CF4395DCCF01E010E020E030E0E5ED8E
:10088400F8E0008311832283338300E0009394080B
:100894000FEF00936B0801E00093D90804E0009384
:1008A400DF080CC0EAEDF8E0008111812281338178
:1008B400012B022B032B11F40E94B70EE4E00C94DD
:1008C4005D20EAEDF8E00081118122813381012B62
:1008D400022B032B71F0EAEDF8E0008111812281F3
:1008E4003381015010402040304000831183228323
:1008F40033830895009192080023A1F000E000934F
:10090400DE0840916B08439501E010E00E94891FC6
:100914000A9510919408109501230093930805E01B
:100924000093DF080895E5EDF8E00081118122814C
:10093400338100364AEE140740E0240740E03407D0
:1009440080F5E5EDF8E000811181228133810F5FAC
:100954001F4F2F4F3F4F00831183228333830E9405
:100964009F0E002389F101E00093DE08E5E9F8E039
:1009740000A911A922A933A9012B022B032B21F1D0
:10098400E5E9F8E000AD11AD22AD33AD012B022B4A
:10099400032BD1F006E00093DF0800E00093D908B0
:1009A40008950091DE08002339F006E00093DF0883
:1009B40000E00093D908089500E00093D9080E944C
:1009C400B70E02E00093DF08089500919208002317
:1009D40079F040916B08439501E010E00E94891F73
:1009E4000A95109194081095012300939308089593
:1009F40000E00093930808950E9440206497EE2439
:100A04000FEF0093DE09CC2400E0083040F42FEF10
:100A1400FE0110E0E00FF11F20830395F6CF00E004
:100A24000093930820E0283030F5422F50E008E08E
:100A340010E00E94811FF801EB56F74F408151816D
:100A440062817381452B462B472B49F0FE01FE2C16
:100A5400FF0CFF08EE0DFF1D2083E3940AC0422F14
:100A640001E010E00E94891F10919308102B10934D
:100A740093082395D8CF03E0E0169CF40E94B70EA8
:100A840002E00093DF080AE010E020E030E0EEE747
:100A9400F8E0008311832283338301E000936A0822
:100AA40010C7CC2460E070E08E2D982F990F990B1D
:100AB4000297681779070CF04EC1062F0395202F73
:100AC40030E0FE2CFF0CFF082E153F050CF041C151
:100AD400FE0130E0E20FF31F4081542F550F550BF8
:100AE40008E010E00E94811FF801EB56F74F808167
:100AF4009181A281B381FE0170E0E60FF71F40816E
:100B0400542F550F550B08E010E00E94811FF80187
:100B1400EB56F74F048015802680378080159105A9
:100B2400A205B30508F4B2C031E04C2D50E007E053
:100B340010E00E94811FF801EE51F74F30834C2DD5
:100B440050E007E010E00E94811FF801EE51F74FDA
:100B54006183322F3A954C2D50E007E010E00E945B
:100B6400811FF801EE51F74F3283FE0170E0E60F6A
:100B7400F71F4081542F550F550B08E010E00E94D9
:100B8400811FF801EB56F74F84819581A681B781C7
:100B9400FE0130E0E20FF31F31974081542F550FCF
:100BA400550B08E010E00E94811FF801EB56F74F47
:100BB400008011802280338080199109A209B30931
:100BC4004C2D50E007E010E00E94811FF801EE5127
:100BD400F74F83839483A583B683C39432E04C2D6B
:100BE40050E007E010E00E94811FF801EE51F74F3A
:100BF40030834C2D50E007E010E00E94811FF80183
:100C0400EE51F74F61834C2D50E007E010E00E9455
:100C1400811FF801EE51F74F2283FE0130E0E20F0D
:100C2400F31F4081542F550F550B08E010E00E942C
:100C3400811FF801EB56F74F80819181A281B38126
:100C4400FE0170E0E60FF71F4081542F550F550B3E
:100C540008E010E00E94811FF801EB56F74F048072
:100C640015802680378080199109A209B3094C2D7B
:100C740050E007E010E00E94811FF801EE51F74FA9
:100C840083839483A583B683C39461C030E08E2D9F
:100C9400982F990F990B01972817390709F057C016
:100CA40030E04C2D50E007E010E00E94811FF80175
:100CB400EE51F74F30834C2D50E007E010E00E94D6
:100CC400811FF801EE51F74F61834C2D50E007E08E
:100CD40010E00E94811FF801EE51F74F2283FE01BC
:100CE40070E0E60FF71F4081542F550F550B08E0B5
:100CF40010E00E94811FF801EB56F74F8481958123
:100D0400A681B781FE0130E0E20FF31F4081542F2A
:100D1400550F550B08E010E00E94811FF801EB56B7
:100D2400F74F008011802280338080199109A20935
:100D3400B3094C2D50E007E010E00E94811FF80138
:100D4400EE51F74F83839483A583B683C39423958D
:100D5400B7CE6395A8CE4C2D50E007E010E00E947A
:100D6400811FF801E252F74F008111812281338102
:100D7400088B198B2A8B3B8B0C2D0A950093DE096B
:100D84000C2D0A95402F44236AF1542F550F550B0F
:100D940007E010E00E94811FF801EE51F74F038134
:100DA400148125813681088819882A883B88001592
:100DB400110522053305A0F4542F550F550B07E0F8
:100DC40010E00E94811FF801EE51F74F0381148156
:100DD40025813681088B198B2A8B3B8B4093DE0946
:100DE4004A95D1CF9E014091DE0950E007E010E022
:100DF4000E94811FF801EE51F74F028110E0200F8D
:100E0400311FF9010081102F110F110B000F111F59
:100E140040E050E0400F511F0E94581F9801BE014E
:100E24004091DE0950E007E010E00E94811FF801C4
:100E3400EE51F74F018110E0600F711FFB016081DB
:100E4400762F770F770B660F771F40E050E0460F41
:100E5400571F0E94581F201B310BA90160E070E04E
:100E64002A013B019E014091DE0950E007E010E0B9
:100E74000E94811FF801EE51F74F018110E0200F0D
:100E8400311FF9010081005D009360079E014091CC
:100E9400DE0950E007E010E00E94811FF801EE51E6
:100EA400F74F028110E0200F311FF9010081005D2E
:100EB400009361074091DE0950E007E010E00E94D2
:100EC400811FF801EE51F74F0081002309F09FC103
:100ED4009E014091DE0950E007E010E00E94811F6E
:100EE400F801EE51F74F028110E0200F311FF90194
:100EF4000081102F110F110B000F111F40E050E063
:100F0400400F511F0E94581F9801BE014091DE09F5
:100F140050E007E010E00E94811FF801EE51F74F06
:100F2400028110E0600F711F61507040FB0160810D
:100F3400762F770F770B660F771F40E050E0460F50
:100F4400571F0E94581F201B310BA90160E070E05D
:100F54004A015B019E014091DE0950E007E010E088
:100F64000E94811FF801EE51F74F018110E0200F1C
:100F7400311FF9010181102F110F110B000F111FE7
:100F840040E050E0400F511F0E94581F9801BE01DD
:100F94004091DE0950E007E010E00E94811FF80153
:100FA400EE51F74F018110E0600F711FFB0160816A
:100FB400762F770F770B660F771F40E050E0460FD0
:100FC400571F0E94581F201B310BA90160E070E0DD
:100FD4004C875D876E877F870C851D852E853F85B1
:100FE400081519052A053B0508F075C00C851D85F3
:100FF4002E853F85480159019E014091DE0950E04C
:1010040007E010E00E94811FF801EE51F74F0181C3
:1010140010E0200F311FF9014181542F550F550B5A
:1010240008E010E00E94811FF801EB56F74F808121
:101034009181A281B3819E014091DE0950E007E0D5
:1010440010E00E94811FF801EE51F74F018110E07A
:10105400200F311FF9014081542F550F550B08E023
:1010640010E00E94811FF801EB56F74F00811181B7
:1010740022813381801B910BA20BB30B8887998744
:10108400AA87BB879E014091DE0950E007E010E08B
:101094000E94811FF801EE51F74F018110E0200FEB
:1010A400311FF9010081005D009363079E014091A7
:1010B400DE0950E007E010E00E94811FF801EE51C4
:1010C400F74F018110E0200F311FF9010181005D0C
:1010D4000093640772C09E014091DE0950E007E06E
:1010E40010E00E94811FF801EE51F74F028110E0D9
:1010F400200F311FF9014081542F550F550B08E083
:1011040010E00E94811FF801EB56F74F8081918116
:10111400A281B3819E014091DE0950E007E010E016
:101124000E94811FF801EE51F74F028110E0200F59
:10113400311F21503040F9014081542F550F550B78
:1011440008E010E00E94811FF801EB56F74F008180
:10115400118122813381801B910BA20BB30B8887F1
:101164009987AA87BB879E014091DE0950E007E07A
:1011740010E00E94811FF801EE51F74F028110E048
:10118400200F311F21503040F9010081005D009390
:1011940063079E014091DE0950E007E010E00E94E1
:1011A400811FF801EE51F74F028110E0200F311F2B
:1011B400F9010081005D009364074091DE0950E06D
:1011C40007E010E00E94811FF801EE51F74F038100
:1011D400148125813681A401B5010E94A31F48858D
:1011E40059856A857B850E94C31FA201B301400F04
:1011F400511F621F731FEEE7F8E04083518362833F
:10120400738301E000936A080BE200936207409144
:10121400DE0950E007E010E00E94811FF801EE5162
:10122400F74F0081013009F099C19E014091DE0918
:1012340050E007E010E00E94811FF801EE51F74FE3
:10124400028110E0200F311FF9010181102F110FCD
:10125400110B000F111F40E050E0400F511F0E947E
:10126400581F9801BE014091DE0950E007E010E0EC
:101274000E94811FF801EE51F74F028110E0600FC8
:10128400711FFB016081762F770F770B660F771F35
:1012940040E050E0460F571F0E94581F201B310B9F
:1012A400A90160E070E04A015B019E014091DE0902
:1012B40050E007E010E00E94811FF801EE51F74F63
:1012C400018110E0200F311FF9010181102F110F4E
:1012D400110B000F111F40E050E0400F511F0E94FE
:1012E400581F9801BE014091DE0950E007E010E06C
:1012F4000E94811FF801EE51F74F018110E0600F49
:10130400711FFB016081762F770F770B660F771FB4
:1013140040E050E0460F571F0E94581F201B310B1E
:10132400A90160E070E04C875D876E877F870C853C
:101334001D852E853F85081519052A053B0508F0EE
:1013440075C00C851D852E853F85480159019E0178
:101354004091DE0950E007E010E00E94811FF8018F
:10136400EE51F74F018110E0200F311FF901418147
:10137400542F550F550B08E010E00E94811FF8010F
:10138400EB56F74F80819181A281B3819E014091F8
:10139400DE0950E007E010E00E94811FF801EE51E1
:1013A400F74F018110E0200F311FF9014081542FC4
:1013B400550F550B08E010E00E94811FF801EB5611
:1013C400F74F0081118122813381801B910BA20B85
:1013D400B30B88879987AA87BB879E014091DE0952
:1013E40050E007E010E00E94811FF801EE51F74F32
:1013F400018110E0200F311FF9010081005D00938D
:1014040063079E014091DE0950E007E010E00E946E
:10141400811FF801EE51F74F018110E0200F311FB9
:10142400F9010181005D009364076EC09E01409143
:10143400DE0950E007E010E00E94811FF801EE5140
:10144400F74F028110E0200F311FF9014181542F21
:10145400550F550B08E010E00E94811FF801EB5670
:10146400F74F80819181A281B3819E014091DE0971
:1014740050E007E010E00E94811FF801EE51F74FA1
:10148400028110E0200F311FF9014081542F550FC4
:10149400550B08E010E00E94811FF801EB56F74F4E
:1014A4000081118122813381801B910BA20BB30B2C
:1014B40088879987AA87BB879E014091DE0950E0FF
:1014C40007E010E00E94811FF801EE51F74F0281FE
:1014D40010E0200F311FF9010081005D00936307C4
:1014E4009E014091DE0950E007E010E00E94811F58
:1014F400F801EE51F74F028110E0200F311FF9017E
:101504000181005D009364074091DE0950E007E02B
:1015140010E00E94811FF801EE51F74F03811481FE
:1015240025813681A401B5010E94A31F48855985F0
:101534006A857B850E94C31FA201B301400F511F1E
:10154400621F731FEEE7F8E0408351836283738365
:1015540001E000936A080BE2009362074091DE0900
:1015640050E007E010E00E94811FF801EE51F74FB0
:101574000081023009F09FC19E014091DE0950E0D4
:1015840007E010E00E94811FF801EE51F74F02813D
:1015940010E0200F311FF9010081102F110F110BE2
:1015A400000F111F40E050E0400F511F0E94581FD0
:1015B4009801BE014091DE0950E007E010E00E946E
:1015C400811FF801EE51F74F028110E0600F711F87
:1015D40061507040FB016081762F770F770B660FA7
:1015E400771F40E050E0460F571F0E94581F201BF2
:1015F400310BA90160E070E04A015B019E0140915A
:10160400DE0950E007E010E00E94811FF801EE516E
:10161400F74F018110E0200F311FF9010181102FD4
:10162400110F110B000F111F40E050E0400F511F2C
:101634000E94581F9801BE014091DE0950E007E066
:1016440010E00E94811FF801EE51F74F018110E074
:10165400600F711FFB016081762F770F770B660F88
:10166400771F40E050E0460F571F0E94581F201B71
:10167400310BA90160E070E04C875D876E877F873E
:101684000C851D852E853F85081519052A053B0502
:1016940008F075C00C851D852E853F8548015901CC
:1016A4009E014091DE0950E007E010E00E94811F96
:1016B400F801EE51F74F018110E0200F311FF901BD
:1016C4004181542F550F550B08E010E00E94811FF3
:1016D400F801EB56F74F80819181A281B3819E017D
:1016E4004091DE0950E007E010E00E94811FF801FC
:1016F400EE51F74F018110E0200F311FF9014081B5
:10170400542F550F550B08E010E00E94811FF8017B
:10171400EB56F74F0081118122813381801B910B9D
:10172400A20BB30B88879987AA87BB879E01409138
:10173400DE0950E007E010E00E94811FF801EE513D
:10174400F74F018110E0200F311FF9010081005D86
:10175400009363079E014091DE0950E007E010E02A
:101764000E94811FF801EE51F74F018110E0200F14
:10177400311FF9010181005D0093640772C09E016D
:101784004091DE0950E007E010E00E94811FF8015B
:10179400EE51F74F028110E0200F311FF901408113
:1017A400542F550F550B08E010E00E94811FF801DB
:1017B400EB56F74F80819181A281B3819E014091C4
:1017C400DE0950E007E010E00E94811FF801EE51AD
:1017D400F74F028110E0200F311F21503040F901F2
:1017E4004081542F550F550B08E010E00E94811FD3
:1017F400F801EB56F74F0081118122813381801B60
:10180400910BA20BB30B88879987AA87BB879E018C
:101814004091DE0950E007E010E00E94811FF801CA
:10182400EE51F74F028110E0200F311F215030405C
:10183400F9010081005D009363079E014091DE0978
:1018440050E007E010E00E94811FF801EE51F74FCD
:10185400028110E0200F311FF9010081005D009327
:1018640064074091DE0950E007E010E00E94811F08
:10187400F801EE51F74F0381148125813681A401CB
:10188400B5010E94A31F488559856A857B850E94FE
:10189400C31FA201B301401B510B620B730BEEE794
:1018A400F8E0408351836283738301E000936A0804
:1018B4000DE20093620700E00093650700E00093E7
:1018C400DF0807D001E000936A086496E0E10C9415
:1018D40051200E944720EF97EF97279706E0802E2C
:1018E40007E6702E80E006EEFE017E9690E0E80F9B
:1018F400F91F008383950CE0FE017E9690E0E80FCB
:10190400F91F00838395682E00E0FE017E9690E027
:10191400E80FF91F008383950AEAFE017E9690E0A2
:10192400E80FF91F0083839505E5FE017E9690E09C
:10193400E80FF91F0083839500919308FE017E96BA
:1019440090E0E80FF91F00838395082F0A5FA02F0A
:10195400EEE7F8E00081118122813381280190E0D3
:10196400963088F5933081F44EE28E01025E1F4F6B
:10197400EA2FF0E0292F30E0E21BF30B31970E0F32
:101984001F1FF80140831CC04AE050E082010E94FE
:101994008F1FB42F4AE050E082010E948F1F28015C
:1019A4004B2F405D8E01025E1F4FEA2FF0E0292F7E
:1019B40030E0E21BF30B31970E0F1F1FF801408339
:1019C40083959395CDCF20E02830F8F4022F10E0D2
:1019D400000F111F40E050E0400F511F0E94581F9C
:1019E4000883198300E0023070F4FE0110E0E00F78
:1019F400F11F1081FE017E9690E0E80FF91F10831D
:101A040083950395F0CF2395DFCF20E0223040F576
:101A140040E0483018F560E06430F0F450E008E04D
:101A240010E00E94811FE5E9F8E0E00FF11F022FAA
:101A340010E0000F111F000F111FE00FF11F70E0E5
:101A4400E60FF71F0081FE017E9690E0E80FF91F74
:101A5400008383956395E0CF4395DBCF2395D6CF61
:101A640005E5FE017E9690E0E80FF91F008383955B
:101A74000AEAFE017E9690E0E80FF91F0083839541
:101A840000E0002371F410E0F801E252F64F1081F7
:101A9400FE017E9690E0E80FF91F1083839503956D
:101AA400F0CF20E02223C1F44091DE0950E007E0AA
:101AB40010E00E94811FE2EEF8E0E00FF11F30E039
:101AC400E20FF31F0081FE017E9690E0E80FF91FFC
:101AD400008383952395E6CF20E02223C1F4E3EE2F
:101AE400F8E030E0E20FF31F4091DE0950E007E038
:101AF40010E00E94811FE00FF11F0081FE017E961D
:101B040090E0E80FF91F008383952395E6CF20E04A
:101B14002223C1F4E4EEF8E030E0E20FF31F409139
:101B2400DE0950E007E010E00E94811FE00FF11F82
:101B34000081FE017E9690E0E80FF91F00838395F3
:101B44002395E6CF20E02430C0F4E5EEF8E030E061
:101B5400E20FF31F4091DE0950E007E010E00E941D
:101B6400811FE00FF11F0081FE017E9690E0E80FD7
:101B7400F91F008383952395E6CF282F30E08E014B
:101B8400025E1F4F0E94B502FE017E9690E0E80FB0
:101B9400F91F00838395FE017E96062D10E0E00F69
:101BA400F11F8083873671F4A0E0A81750F4FE017A
:101BB4007E96B0E0EA0FFB1F00810E94BE1EA39533
:101BC400F4CF84C0BE01665F7F4FE8EDF3E430E0FC
:101BD4008B0144E150E00E94342094E1A0E0A91775
:101BE40050F4FE013A96B0E0EA0FFB1F00810E9418
:101BF400BE1EA395F4CF8E010E5F1F4FD80140E1A6
:101C0400082F0E94731FFD010083FD0100810A302B
:101C140028F0FD010081095C008304C0FD010081FE
:101C2400005D0083119640E1082F0E94731FFD019F
:101C34004083FD0100810A3028F0FD010081095C28
:101C4400008304C0FD010081005D0083119601E260
:101C5400FD01008311960DE3FD010083119606E05A
:101C6400FD010083FD0100810A3028F0FD0100819F
:101C7400095C008304C0FD010081005D00831196AE
:101C840007E0FD010083FD0100810A3028F0FD0119
:101C94000081095C008304C0FD010081005D0083B4
:101CA40011960DE0FD01008311960AE0FD01008309
:101CB40098E04424491650F4FE0132965524E40D6C
:101CC400F51D00810E94BE1E4394F4CFEF96EF965B
:101CD4002796E9E00C9458200E94CD02EEE7F8E044
:101CE4000081118122813381000F111F000F111F08
:101CF4000E94E00208E813E10093E0081093E10871
:101D040001E00093DF0808950091E0081091E108D4
:101D1400012B49F0E0EEF8E0008111810150104000
:101D24000083118308950E94CD0200E010E00E9418
:101D3400E00202E00093DF0808959A938A9391E009
:101D440080E0883070F4082F10E0000F111FF801B4
:101D5400EE57F74F008111810E94151E9023839541
:101D6400F0CF092F899199910895159A1D98089596
:101D7400159A1D9A08950CE010E00E9468209801BD
:101D84008901232B49F050E068E873E04CE330E02C
:101D940026E60E94CA1C02C000E010E000938208FC
:101DA400109383080CE010E00E94682098018901D8
:101DB400232B49F051E068E873E04CE331E026E678
:101DC4000E94CA1C02C000E010E000938408109333
:101DD40085080CE010E00E94682098018901232BFB
:101DE40049F052E068E873E04CE332E026E60E94F2
:101DF400CA1C02C000E010E0009386081093870814
:101E04000CE010E00E94682098018901232B49F01E
:101E140053E068E873E04CE333E026E60E94CA1C12
:101E240002C000E010E000938808109389080CE0D9
:101E340010E00E94682098018901232B49F054E0A6
:101E440068E873E04CE334E026E60E94CA1C02C052
:101E540000E010E000938A0810938B080CE010E077
:101E64000E94682098018901232B49F055E068E815
:101E740073E04CE335E026E60E94CA1C02C000E091
:101E840010E000938C0810938D080CE010E00E9481
:101E9400682098018901232B49F056E068E873E033
:101EA4004CE336E026E60E94CA1C02C000E010E0C3
:101EB40000938E0810938F080CE010E00E946820B5
:101EC40098018901232B49F057E068E873E04CE35B
:101ED40037E026E60E94CA1C02C000E010E000932E
:101EE40090081093910800E00093DF080E94CD024F
:101EF40000E010E00E94E00208958A930E94260305
:101F040080E0883068F4082F10E0000F111FF801FA
:101F1400EE57F74F008111810E94B61D8395F1CFD2
:101F24008991089505E310E00E9468209801012B2F
:101F340039F089010CD00093DF091093E00908956A
:101F440000E010E00093DF091093E0090895BA93CC
:101F5400AA93D8010DE010E00E946820980189013D
:101F6400232B41F063E050E040E030E027E60E949C
:101F7400B41B02C000E010E09B960D931C939C9749
:101F84000DE010E00E9468200801012B49F062E096
:101F940050E040E031E027E680010E94B41B02C01B
:101FA40000E010E09D960D931C939E970DE010E0C9
:101FB4000E9468200801012B49F061E050E040E0F4
:101FC40032E027E680010E94B41B02C000E010E06A
:101FD4009F960D931C93D0970DE010E00E9468200B
:101FE4000801012B49F060E050E040E033E027E6CF
:101FF40080010E94B41B02C000E010E0D1960D9352
:102004001C93D29700E00C9300E011960C93119767
:1020140000E093960C93939792960C9392978D016C
:10202400A991B99108950E944C20D8019B960D91D5
:102034001C919C970E94BB1C802F9D960D911C9116
:102044009E970E94BB1C902F9F960D911C91D09738
:102054000E94BB1C892B802BD1960D911C91D29789
:102064000E94BB1C802BD4968C93D497D4960C914D
:10207400D497D3961C91D397011791F00C91043106
:1020840018F40C9103950C930C91043178F0D496C8
:102094000C91D497D3960C93D39700E00C9306C07D
:1020A4000C91013018F00C910A950C93E4E00C9417
:1020B4005D209A938A93C8018C01B5DF8C0103D00B
:1020C400899199910895BA93AA93D801FD0103A91E
:1020D40010E0F801E454FF4F0491FD0102A7FD0153
:1020E40001810023B1F1FD0103A90F3031F1FD019C
:1020F40004A115A10C3D25E0120738F4FD0104A14B
:1021040015A10F5F1F4F04A315A3FD0104A115A181
:102114000C3D25E0120780F1FD0106A1043628F4E8
:10212400FD0106A1039506A327C000E0FD0106A357
:10213400FD0122A58D0127D01FC000E010E0FD01A4
:1021440004A315A300E0FD0106A300E0FD01018343
:1021540013C0FD0103A90F3079F001E0FD010183F3
:10216400FD0122A58D010FD000E010E0FD0104A3C4
:1021740015A300E0FD0106A3A991B9910895A80152
:102184002F71022F08950E944C20D801922F0FB76F
:10219400FD0107A3F894FD0123A123958D01EFDF31
:1021A400802FFD0102A1801741F0082F10E0FD01EE
:1021B400E00FF11F9283FD0183A3FD0107A10FBF6F
:1021C400E4E00C945D200E944A202801D90180E0BB
:1021D4000FB7F20100A7F894F20103A1F20112A1D2
:1021E400011781F081E0F20122A123958201C7DF6A
:1021F400F20102A3F20102A110E0F201E00FF11FCB
:1022040002810C93F20100A50FBF082FE6E00C94A5
:102214005B20F8011FB711A7F89413A122A112178C
:1022240038F410E222A1121B23A1120F012F04C0C3
:1022340013A122A1121B012F11A51FBF0895009104
:10224400DF091091E009E5DF08959A938A93C801A4
:102254009C010091DF091091E009B5DF8991999102
:1022640008950091DF091091E00923DF08959A93FE
:102274008A93C8018C010FD08C011FD08C013BD0F4
:102284008C0117D24CEC50E020E08C01EFD18C0192
:102294008991999108952FE02ABB2FE02BBBD49A02
:1022A400DC9AD59ADD9A4FEF59E668E141505040E7
:1022B4006040E1F700C00000089520E0F80123A782
:1022C400F80122A7F80100A711A720E0F80125A72B
:1022D40020E030E0F80120A331A320E030E0F80151
:1022E40022A333A320E0F80126A720E030E0F80180
:1022F40026A337A308959A938A93C8010FEF13EF87
:1023040021E0015010402040E1F700C0000028E225
:102314008C01CDD00FE31FE101501040E9F700C05C
:10232400000028E28C01C3D00FE31FE101501040EC
:10233400E9F700C000002CE08C01B9D021E08C0149
:10234400B6D00FE31FE101501040E9F700C00000D0
:1023540026E08C01ACD022E08C01A9D00FE31FE170
:1023640001501040E9F700C0000020E88C019FD024
:102374008991999108950E944C20D801FD0106A1EC
:1023840017A10F5F1F4F06A317A3FD0106A117A1F5
:10239400003024E0120728F000E010E0FD0106A35D
:1023A40017A3FD0100A511A50F5F1F4F00A711A7DB
:1023B400FD0103A5039503A7FD0103A5003110F159
:1023C40000E0FD0103A7FD0102A5039502A7FD019D
:1023D40002A5023051F400E0FD0102A7FD01A0A70F
:1023E400B1A720E88D0163D009C08D01005F1F4FA4
:1023F400FD0100A711A720EC8D0159D008EC0000C5
:102404000A95E9F7FD0102A50023C9F4FD0120A105
:1024140031A1FD0143A501E010E00E94891F2023A2
:102424003123232B49F0FD0106A117A1013022E03D
:10243400120710F001E001C000E0802F18C0FD0178
:1024440022A133A1FD0143A501E010E00E94891FF0
:1024540020233123232B49F0FD0106A117A10130CC
:1024640022E0120710F001E001C000E0802FFD011E
:1024740000A511A5F8010081FD0104A7FD0104A533
:10248400013848F0FD0104A510E0F801EC5AFF4FB3
:102494000491FD0104A7882319F000E2FD0104A7BB
:1024A400FD0124A58D011FD0E4E00C945D200E9461
:1024B4004D20C801A22F0FB70093E109F89408EC4E
:1024C40000000A95E9F7DD9B05C0DD9808EC0000E3
:1024D4000A95E9F72A2F8C0122D00091E1090FBF58
:1024E400E3E00C945E200E944D20C801A22F0FB798
:1024F4000093E209F89408EC00000A95E9F7DD99E5
:1025040005C0DD9A08EC00000A95E9F72A2F8C0132
:1025140006D00091E2090FBFE3E00C945E204BB3B8
:10252400407F322F32953F70432B4BBBDC9A000027
:1025340000000000DC980000000000004BB3407F66
:10254400322F3F70432B4BBBDC9A0000000000008D
:10255400DC9808950E944B20C8010FB7402EF894D0
:1025640020E48C01A4DF0FE91FE001501040E9F7DB
:1025740000C00000A0E0A03160F4B0E0FD01EC5A1E
:10258400FE4F24918C01AFDF00E50A95F1F7A39586
:10259400F2CF20E88C018BDF0FE91FE001501040DF
:1025A400E9F700C000004FBEE5E00C945C20203247
:1025B40008F020E0422F50E0F801E40FF51F3083CB
:1025C4000895BA931A2EF801622F532F603208F03F
:1025D40060E070E0DF01A60FB71F5C93603130F458
:1025E4008F01005E1F4F9801062E07C08F010E5DFC
:1025F4001F4F9801062F0051002E06A5013080F0D0
:10260400402D01E010E00E94891FD9012D903C90DB
:10261400202A312A3C922E9206A50A9506A70EC0BE
:10262400402D01E010E00E94891F00951095D9010A
:102634002D903C90202231223C922E92A12DB991D2
:102644000895FA013081632F662379F0203208F06F
:1026540020E030E0F801E20FF31F608323954F5F21
:102664005F4FFA013081632FEFCF0895FA0134915F
:10267400632F662379F0203208F020E030E0F8017F
:10268400E20FF31F608323954F5F5F4FFA0134918C
:10269400632FEFCF089520E030E0F80120A331A3A9
:1026A40020E030E0F80122A333A320E0F80126A7BC
:1026B40008959A938A93C80100E0003240F420E21E
:1026C40010E0FC01E00FF11F20830395F6CF8C018D
:1026D400E2DF8991999108950E9447202801B22F41
:1026E400632ECA010B2F060D0A95A02F77247614AA
:1026F400F8F44AE050E08C010E948F1F842EAA2334
:102704000AF4AFE1A0320CF0A0E0282D205D0A2FDE
:10271400102F110F110BF201E00FF11F2083AA9566
:102724004AE050E08C010E948F1FC8017394DFCFF0
:10273400E9E00C9458200E944720D801522E832EA1
:10274400CA01052D080D0A95402E7724781488F5C2
:102754004AE050E08C010E948F1F642E442012F442
:102764000FE1402E00E240160CF04424772019F0CB
:1027740001E0601660F0262D205D042D102F110F4E
:10278400110BFD01E00FF11F20834A940AC020E2DF
:10279400042D102F110F110BFD01E00FF11F2083E9
:1027A4004A944AE050E08C010E948F1FC801739440
:1027B400CDCFE9E00C9458200E944D020E946B0C8E
:1027C4000FEF13ED20E3015010402040E1F700C06B
:1027D400000078940FEF13ED20E3015010402040E7
:1027E400E1F700C000000091790810917A080E9476
:1027F400AC120E94CD020E9409140E94E01E0E94A5
:10280400E81E0E9453030E94191BF9CF08952197D3
:1028140001E00093E3098E010E941C0300E010E034
:1028240020E030E0E4E7F8E000831183228333837F
:10283400E4E7F8E00081118122813381E6EEF9E0DA
:1028440000831183228333838E010E94210300912C
:10285400790810917A080E945B134FE152E020E05E
:102864000091790810917A080E9438134AE252E0E4
:1028740020E10091790810917A080E94381321967A
:1028840008958A9380E0883008F041C0082F10E052
:10289400000F111FF801EE57F74F008111810E94BC
:1028A400151E002351F030E2282F285E009179088C
:1028B40010917A080E94E31210C001E0E0917908B7
:1028C400F0917A0806A7382F3F5C282F285E0091E4
:1028D400790810917A080E94E312082F10E0000F83
:1028E400111FF801EE57F74F008111810E94151E48
:1028F400002311F431E001C030E0282F285F00915B
:10290400790810917A080E94D9128395BCCF0E944D
:102914007903002369F00E947903013049F00E9491
:102924007903023029F00E947903033009F002D0C0
:102934008991089521978E010E941C0300E010E004
:1029440020E030E0E4E7F8E000831183228333835E
:10295400E4E7F8E00081118122813381E6EEF9E0B9
:1029640000831183228333838E010E94210300910B
:10297400790810917A080E945B1302E00093E3093E
:1029840040E657E020E00091790810917A080E940F
:10299400231301E00093780802D0219608950E9441
:1029A4004D2090E080E000917808002311F091E040
:1029B40081E000916A08002329F000E000936A088E
:1029C40091E081E00E943203002319F00E94260363
:1029D40081E0992309F464C040E657E020E00091C7
:1029E400790810917A080E94231345E352E020E10C
:1029F4000091790810917A080E94381348EE53E048
:102A040000917B0810917C080E948F1FA80132E07E
:102A140022E10091790810917A080E949D133EE208
:102A240024E10091790810917A080E94D91248EEA5
:102A340053E000917B0810917C080E948F1F33E0C3
:102A440025E10091790810917A080E946E13A0E0A4
:102A5400A83030F520917D084A2F01E010E00E9453
:102A6400891F2023222389F001E0E0917908F09165
:102A74007A0806A73A2F3F5C2A2F285E009179082E
:102A840010917A080E94E31209C030E22A2F285ECE
:102A94000091790810917A080E94E312A395D8CF87
:102AA4008823E9F0A0E0A830D0F40A2F10E0000F4A
:102AB400111FF801EE57F74F008111810E94151E76
:102AC400002311F431E001C030E02A2F285F009187
:102AD400790810917A080E94D912A395E4CF0E9434
:102AE4007903053091F440E657E020E0009179083D
:102AF40010917A080E9423134EE352E020E10091E2
:102B0400790810917A080E94381300E0009378083D
:102B1400E3E00C945E2021978E010E941C0300E3E5
:102B240015E720E030E0E4E7F8E000831183228336
:102B34003383E4E7F8E00081118122813381E6EEFA
:102B4400F9E000831183228333838E010E942103E1
:102B54000091E3090093E40903E00093E30900E032
:102B64000093F30900E0053040F420E010E0F801A0
:102B7400E251F64F20830395F6CF00917908109126
:102B84007A080E945B134FE452E020E00091790838
:102B940010917A080E94381302D0219608958A93DE
:102BA40080E080E00091F309801788F400E0E09170
:102BB4007908F0917A0806A73AE2282F205F00915D
:102BC400790810917A080E94E3128395EBCF009163
:102BD400F3090530B8F401E0E0917908F0917A083E
:102BE40006A70091F30910E0F801E251F64F308195
:102BF400305D2091F309205F0091790810917A08E3
:102C04000E94E312899108950091F30910E0F801FC
:102C1400E251F64F0081002349F409E02091F309C1
:102C240030E0F901E251F64F008309C00091F30945
:102C340010E0F801E251F64F00810A950083AFDFFE
:102C440008950091F30910E0F801E251F64F008174
:102C5400093048F000E02091F30930E0F901E25135
:102C6400F64F008309C00091F30910E0F801E25126
:102C7400F64F00810395008392DF08959A938A9317
:102C84000091F30903950093F3090091F3090530CA
:102C940080F40091F30910E0F801E351F64F20812C
:102CA4000091F30910E0F801E251F64F208377DF39
:102CB4002AC081E091E020E02530F0F430E040E1EA
:102CC40050E0420F531F0E94551F30E0F901E251BA
:102CD400F64F1081011709F080E030E0F901E65E5B
:102CE400FD4F049130E0F901E251F64F10810117D4
:102CF40009F090E02395E0CF082F092B002311F071
:102D040078D001C019D08991999108950091F3095F
:102D1400013008F001D008954091E40950E00EE03C
:102D240010E00E94811FF801E059FE4F05911491B3
:102D34003197F80109950895219704E00093E30978
:102D44000091790810917A080E945B134FE552E0D4
:102D540020E00091790810917A080E9438138E01BE
:102D64000E941C0300E010E020E030E0E4E7F8E01B
:102D74000083118322833383E4E7F8E00081118127
:102D840022813381E6EEF9E00083118322833383C9
:102D940000E315E70093F4091093F5098E010E94EE
:102DA4002103219608959A938A9321978E010E9474
:102DB4001C030091F4091091F509C8018E010E94C9
:102DC4002103823000E0900778F048EE53E08C0154
:102DD4000E948F1FA80132E020E100917908109130
:102DE4007A080E949D1301C097DF219689919991D9
:102DF4000895219705E00093E30900917908109163
:102E04007A080E945B138E010E941C0300E21FEBF0
:102E140022E030E0E4E7F8E0008311832283338387
:102E2400E4E7F8E00081118122813381E6EEF9E0E4
:102E340000831183228333838E010E9421034FE692
:102E440052E020E00091790810917A080E9438132A
:102E540000E00093F60902D0219608954091F60906
:102E640050E001E110E00E94811F45E752E0400F6D
:102E7400511F20E10091790810917A080E943813BB
:102E840008954ADF08950091F609013028F0009171
:102E9400F6090A950093F609E1DF08950091F60911
:102EA400093028F40091F60903950093F609D6DF5A
:102EB40008950091F609083011F40DD00895009199
:102EC400F609083010F421D108950091F60909306B
:102ED40009F44DD20895219706E00093E3098E0189
:102EE4000E941C0300E61AEE20E030E0E4E7F8E07C
:102EF4000083118322833383E4E7F8E000811181A6
:102F040022813381E6EEF9E0008311832283338347
:102F14008E010E9421030091790810917A080E9481
:102F24005B134FE153E020E00091790810917A0897
:102F34000E94381300E0053040F420E010E0F8016E
:102F4400E251F64F20830395F6CF00E00093F30996
:102F540004D0219608954DDF08959A938A9380E0D2
:102F64000091F3098017B0F400E0E0917908F09142
:102F74007A0806A790E0FC01E251F64F3081305DFB
:102F8400282F205F0091790810917A080E94E3129B
:102F94008395E6CF0091F3090530B8F401E0E091A0
:102FA4007908F0917A0806A70091F30910E0F80176
:102FB400E251F64F3081305D2091F309205F00919A
:102FC400790810917A080E94E312899199910895E1
:102FD4000091F30910E0F801E251F64F008100235B
:102FE40049F409E02091F30930E0F901E251F64F88
:102FF400008309C00091F30910E0F801E251F64F93
:1030040000810A950083A9DF08950091F30910E077
:10301400F801E251F64F0081093048F000E02091B8
:10302400F30930E0F901E251F64F008309C0009141
:10303400F30910E0F801E251F64F00810395008393
:103044008CDF08950091F3090430A8F40091F3098A
:1030540003950093F3090091F30910E0F801E3519B
:10306400F64F20810091F30910E0F801E251F64F88
:10307400208373DF089501D00895219707E000931A
:10308400E3098E010E941C0300E61AEE20E030E002
:10309400E4E7F8E00083118322833383E4E7F8E074
:1030A4000081118122813381E6EEF9E000831183EE
:1030B400228333838E010E942103009179081091A9
:1030C4007A080E945B134DE253E020E100917908F5
:1030D40010917A080E943813219608958ADE089583
:1030E40088DE089520E0253070F430E0F901E251E3
:1030F400F64F008130E040E150E0420F531F0E9440
:10310400661F2395F0CF08DE0895219708E0009309
:10311400E3090091F60910E0000F111F40E050E0B0
:10312400400F511F0E94581F0093F7091093F8098C
:1031340004E00093F9090091790810917A080E943B
:103144005B1349E353E020E00091790810917A0879
:103154000E9438133091F6093F5C2DE00091790804
:1031640010917A080E94E3121ED08E010E941C0363
:1031740000EC14ED21E030E0E4E7F8E00083118393
:1031840022833383E4E7F8E00081118122813381D3
:10319400E6EEF9E000831183228333838E010E94DB
:1031A4002103219608950E944B200091F709109164
:1031B400F809C801A0E0A53060F504E00A1B402E20
:1031C4004AE050E08C010E948F1FB42F0091F9094E
:1031D4000A1739F401E0E0917908F0917A0806A71A
:1031E40006C000E0E0917908F0917A0806A73B2F29
:1031F400305D242D205F0091790810917A080E9497
:10320400E3124AE050E08C010E948F1FC801A3958D
:10321400D2CFE5E00C945C20ECDD08950E944C20B4
:10322400A1E0B0E020E00091F909201740F40AE0A1
:1032340010E0AD010E94811FD8012395F4CFAD01A8
:103244000091F7091091F8090E948F1F4AE050E09D
:103254000E948F1F842F813040F0E7EFF9E0008156
:1032640011810A1B1B0B008311839DDFE4E00C9486
:103274005D200E944C20A1E0B0E020E00091F9091B
:10328400201740F40AE010E0AD010E94811FD8012C
:103294002395F4CFAD010091F7091091F8090E942C
:1032A4008F1F4AE050E00E948F1F842F893040F422
:1032B400E7EFF9E0008111810A0F1B1F00831183DE
:1032C40072DFE4E00C945D200091F909013038F0DC
:1032D4000091F9090A950093F90965DF089501D071
:1032E4000895219709E00093E3090091790810916A
:1032F4007A080E945B1347E453E020E100917908C7
:1033040010917A080E9438138E010E941C0300E376
:1033140015E720E030E0E4E7F8E00083118322833E
:103324003383E4E7F8E00081118122813381E6EE02
:10333400F9E000831183228333838E010E942103E9
:103344002196089556DD089554DD08950091F709F6
:103354001091F8092091F60930E0220F331F40E064
:1033640050E0420F531F0E946A1F43DD08952197C6
:103374000AE00093E3098E010E941C0300E010E0C0
:1033840020E030E0E4E7F8E0008311832283338314
:10339400E4E7F8E00081118122813381E6EEF9E06F
:1033A40000831183228333838E010E9421030091C1
:1033B400790810917A080E945B1301E00093780861
:1033C40002D0219608950E9440202497B0E090E016
:1033D40000917808002311F0B1E091E000916A08AF
:1033E400002329F000E000936A08B1E091E00E9414
:1033F4003203002319F091E00E942603BB2379F1E4
:1034040048EE53E000917B0810917C080E948F1FC6
:10341400A80131E020E00091790810917A080E9417
:103424009D133EE221E00091790810917A080E94F0
:10343400D91248EE53E000917B0810917C080E9459
:103444008F1F8A014AE050E00E948F1FA80132E0DA
:1034540022E00091790810917A080E946E13992352
:1034640009F4B6C0A1E0A63008F0B2C04A2F50E07B
:1034740008E010E00E94811FF801EB56F74F4480EA
:103484005580668077804A2F50E008E010E00E9463
:10349400811FF801EF56F74F00811181228133819A
:1034A400401A510A620A730A488259826A827B82EC
:1034B40003E0A09F0DE0000E802D488159816A81B0
:1034C4007B81413000E0500700E0600700E07007B6
:1034D400DCF430E2282F0091790810917A080E94D8
:1034E400D9123DE2282F23950091790810917A088A
:1034F4000E94D9123DE2282F2E5F00917908109185
:103504007A080E94D91262C02A2F30E0220F331F9A
:1035140040E050E0420F531F0E94581FB8014EEF85
:103524005FEF0A2F10E0000F111F400F511F0E9480
:10353400581F601B710B8B0120E030E048015901DA
:1035440044E650E060E070E0840195010E94A31F0E
:10355400488159816A817B810E94C31F6801790176
:1035640030E2282F0091790810917A080E94D9122C
:103574004AE050E060E070E0860197010E94C31FBA
:10358400080119014AE050E060E070E08001910117
:103594000E94C31F342F305D282F23950091790892
:1035A40010917A080E94D9124AE050E060E070E07D
:1035B400860197010E94C31F342F305D282F2E5F90
:1035C4000091790810917A080E94D912A3954BCFE3
:1035D4002496E0E10C945120E6EEF9E0008111819B
:1035E40022813381023040E0140740E0240740E0A8
:1035F400340770F0E6EEF9E0008111812281338115
:1036040001501040204030400083118322833383D3
:10361400E091F409F091F509329740F0E4EFF9E014
:103624000081118101501040008311830895239774
:103634000E942111013008F440C005EE19E00E94F7
:1036440027118E010E5F1F4F0E941C03E6EEF9E066
:103654000081118122813381023040E0140740E06F
:10366400240740E0340760F0E4E7F8E000811181CA
:1036740022813381E6EEF9E00083118322833383D0
:103684008E010E5F1F4F0E9421034091E30950E019
:103694000EE010E00E94811FE4E6F1E0E00FF11F6C
:1036A4000091E50910E0000F111FE00FF11F0591D3
:1036B40014913197F801099553C08E010F5F1F4F84
:1036C4000E941C03E6EEF9E000811181228133811E
:1036D400EAEEF9E000831183228333838E010F5FC6
:1036E4001F4F0E942103EAEEF9E00081118122813B
:1036F4003381013040E0140740E0240740E0340700
:1037040001F58E010E941C0300E010E020E030E08F
:10371400E6EEF9E000831183228333838E010E9455
:1037240021034091E30950E00EE010E00E94811F64
:10373400F801E259FE4F059114913197F80109956A
:103744000FC04091E30950E00EE010E00E94811F99
:10375400F801EC59FE4F059114913197F801099540
:10376400239608950E944920C801622E532E442EA8
:10377400B52FA62F6A2F5B2F442D352D262D8C01B6
:1037840004D08C01E7E00C945A200E944920D8010F
:10379400622E832F542E452E962F062DE4E5F0E05D
:1037A400FBBFF3E00C94EF1F09E3FD0105830AE37B
:1037B400FD0104830BE3FD0106838CC009E3FD01D5
:1037C40005830AE3FD0104830BE3FD01068382C044
:1037D40006E3FD01058307E3FD01048308E3FD011E
:1037E400068378C006E3FD01058307E3FD01048336
:1037F40008E3FD0106836EC003E3FD01058304E3D2
:10380400FD01048305E3FD01068364C003E3FD01B8
:10381400058304E3FD01048305E3FD0106835AC027
:1038240000E3FD01058301E3FD01048302E3FD01DF
:10383400068350C000E3FD01058301E3FD01048319
:1038440002E3FD01068346C001E2FD01058302E2B5
:10385400FD01048303E2FD0106833CC001E2FD0196
:10386400058302E2FD01048303E2FD01068332C005
:1038740000E2FD01058301E6FD01048302E6FD018A
:10388400068328C000E2FD01058301E6FD010483EF
:1038940002E6FD0106831EC003E6FD01058304E67E
:1038A400FD01048305E6FD01068314C003E6FD0162
:1038B400058304E6FD01048305E6FD0106830AC0D1
:1038C40003E3FD01058304E3FD01048305E3FD0136
:1038D400068383E0883040F4482F01E010E00E9422
:1038E400891FFD01078303C001E0FD010783552003
:1038F40051F0FD011781FD010481E02FF0E000810A
:10390400012B00830AC0FD0117811095FD0104817C
:10391400E02FF0E0008101230083FD011781FD0108
:103924000681E02FF0E00081012B008300E010E02D
:10393400FD01018712870D931C93119700E0FD018F
:103944000283FD0143828D010D5F1F4FFD0103873B
:103954001487983040F4492F01E010E00E94891F39
:10396400FD01008703C001E0FD010087E7E00C943E
:103974005A20F8012581E22FF0E02081F8013781F7
:103984002323222319F0F8010085089500E0089507
:103994000E944820D801722E832F642E2B01952F6C
:1039A400FD019183FD0143825482FD01658200E0A3
:1039B4000C93072DE2E8F0E0FBBFF3E00C94EF1F5B
:1039C40009E3FD0107830AE3FD0106830BE3FD011F
:1039D40000878CC009E3FD0107830AE3FD01068328
:1039E4000BE3FD01008782C006E3FD01078307E3C3
:1039F400FD01068308E3FD01008778C006E3FD01AD
:103A0400078307E3FD01068308E3FD0100876EC019
:103A140003E3FD01078304E3FD01068305E3FD01E0
:103A2400008764C003E3FD01078304E3FD0106830B
:103A340005E3FD0100875AC000E3FD01078301E3AC
:103A4400FD01068302E3FD01008750C000E3FD0190
:103A5400078301E3FD01068302E3FD01008746C0FD
:103A640001E2FD01078302E2FD01068303E2FD0199
:103A740000873CC001E2FD01078302E2FD010683E9
:103A840003E2FD01008732C000E2FD01078301E685
:103A9400FD01068302E6FD01008728C000E2FD0166
:103AA400078301E6FD01068302E6FD0100871EC0CF
:103AB40003E6FD01078304E6FD01068305E6FD0137
:103AC400008714C003E6FD01078304E6FD010683B5
:103AD40005E6FD0100870AC003E6FD01078304E64D
:103AE400FD01068305E6FD01008784E0883008F0C7
:103AF40080E0482F01E010E00E94891FFD0101874A
:103B0400FD0111851095FD010681E02FF0E0008193
:103B140001230083FD011185FD010085E02FF0E004
:103B24001083FD010781E02FF0E00081FD01118584
:103B34000123002311F001E001C000E01C910127E2
:103B4400FD010287FD010285002329F0FD010581A5
:103B5400FD01038703C000E0FD0103878D0104D04C
:103B64008D01E8E00C945920BA93AA93D801FD0181
:103B74000781E02FF0E00081FD01118501231C91F4
:103B84000127002349F1FD010385FD01158101177A
:103B940020F4FD01038503950387FD010385FD01E1
:103BA40015810117E8F1FD0102850023C9F501E043
:103BB400FD010287FD012381348100E010E020171C
:103BC400310771F1FD011181FD0102851396ED911B
:103BD400FC911497099524C0FD010385013020F060
:103BE400FD0103850A950387FD0103850023C1F4C4
:103BF400FD0102850023A1F000E0FD010287FD0123
:103C04002381348100E010E02017310749F0FD01E1
:103C14001181FD0102851396ED91FC91149709958C
:103C2400A991B9910895F8010285089528E630E034
:103C34008901012F10E000939000022F09B900E0E0
:103C440000939500009195000F7E009395000091DC
:103C540095000F7D009395000091950002600093FC
:103C6400950000919500046000939500529800918E
:103C74009500077F0093950000E00093830A00936A
:103C8400820A0093810A0093800A00937F0A0093BA
:103C94007E0A0093FD090093FC0900E00AB9579AD3
:103CA400549A539A569A0895FA93EA935A934A93D4
:103CB4003A932A931A930A934FB75BB70CB1202F08
:103CC400ECEFF9E00081017003950170302F009151
:103CD400FD09301721F401E00093810A11C000E0CE
:103CE4000093810A3093FC090091FC0910E0F8016B
:103CF400E650F64F20830091800A03950093800AD2
:103D04005BBF4FBF099119912991399149915991FB
:103D1400E991F9911895FA93EA934A933A932A937D
:103D24001A930A933FB74BB710917E0A20917F0AEA
:103D34001217A1F010917F0A13951F77012F00939A
:103D44007F0A509A10E0F801E250F64F10811CB936
:103D54001091820A1A951093820A04C0559810E0B3
:103D64001093820A4BBF3FBF099119912991399150
:103D74004991E991F9911895402F1FB7512FF89463
:103D840010917E0A13951F77212F10917F0A211716
:103D940029F411E01093830A00E00EC030E0F90129
:103DA400E250F64F408320937E0A559A1091820A7E
:103DB40013951093820A01E05FBF08953FB7F8940A
:103DC40018E10FE011BD01BD3FBF08951FB7F8947E
:103DD400A8951FBF089520E030E000E10E94F61E80
:103DE40001E010E00C94F71E08952297C80188831F
:103DF40099839E0101E00E94F61EF9CF0C94F71EF0
:103E04000E9445204801A22EDA01962F82E0240167
:103E14006A2C0BC002E0400E511E611E823099F0E4
:103E240002E0400E00E0501E601E4A165B06690662
:103E340089F0F2016BBE4791569110E0403050403A
:103E440049F3823069F3F2016BBE0791F691E02FDA
:103E54000995E6CF8A95D9F6EBE00C9456200FE548
:103E64000DBF07E00EBFC0E0D2E00E946620002331
:103E740011F00E94972000EB13E020E044EB53E0A4
:103E840060E00E94021F0E94DE130E94711F0C94C6
:103E9400001FE199FECF08954F5F5F4FFADF4EBBDD
:103EA4005FBBE09A0895FADF0DB30895F7DF0DB311
:103EB400F3DF1DB308954F5F5F4F4EBB5FBBF894B4
:103EC400E29AE19A0FBE08950FB6E3DF0DBBF5CF7A
:103ED4000FB6DFDF0DBBF1DFDCDF1DBBECCF0C94D5
:103EE400001F0024E8E0EA9532F0001F001C0416CD
:103EF400D0F3041AF8CF001F402D00950895149FA5
:103F0400102D059F100D049F002D110D08954A9545
:103F14001AF0000F111FFBCF089500241124EFE0C5
:103F2400001F111F001C111C0416150610F0041AA2
:103F3400150AEA95AAF7001F111FA0010095109514
:103F440008952224349F302D259F300D169F300D67
:103F5400079F300D249F202D310D159F200D311DFD
:103F6400069F200D311D149F102D210D321D059F1C
:103F7400100D211D321D049F002D110D221D321D17
:103F84000895002411241001E0E2EA9592F0001F44
:103F9400111F221F331F001C111C221C331C04166A
:103FA40015062606370688F3041A150A260A370A60
:103FB400ECCF001F111F221F331FA001B101009578
:103FC4001095209530950895779167915791479171
:103FD400179011FA279037900895F9DF041B10E029
:103FE40003C0F4DF041B150B20E030E005C0ECDF58
:103FF400041B150B260B370BB8F010FC17C04791A8
:104004000790E00FF11F0417100540E02407340760
:1040140058F436F406910024F101E01BF0090994E8
:10402400E00FF11F27903790F101099411F4D6F7AE
:10403400F1CF31960EF0319650E060E070E0479198
:104044004B3F48F089F34F3F29F04E3F11F07791F1
:10405400679157914791041B150B260B370B39F3C6
:1040640018F3E7CFAF93BF93D8013BBF07900D92EE
:1040740041505040D9F7BF91AF910895FA92EA9216
:10408400DA92CA92BA92AA929A928A927A926A928C
:104094005A924A92BA93AA939A938A930895FF8460
:1040A400EE84DD84CC84BB84AA84998488847F8054
:1040B4006E805D804C80BB81AA8199818881F0E00B
:1040C400EC0FFD1FEF01089501E008959A938A9380
:1040D400C80102C00E9485208C010E949321202FD8
:1040E400012B69F4E4E8FAE02081318100E020301A
:1040F400300781F3E091840AF32F0995EDCF022F65
:104104008991999108950C94ED1E20E008D0E9F767
:1041140008953BBF27913BB702D0D9F708952D935B
:1041240001501040202F212B08950CEE402E03E463
:10413400502E00E0602EF201362D6BBE07911691D1
:10414400F201EE5FFF4F3F4F3BBFA791B691F201E3
:10415400362DEC5FFF4F3F4F3BBF47915791669120
:10416400242F252B262B21F0FA01362FD2DF01C074
:10417400CCDF07E0400E00E0501E601EA201662D59
:104184004A3F53446040B8F20895E6E8FAE00081FB
:104194001181012B19F000E010E0089500E012E015
:1041A4000083118320E035E0F801208331830895F2
:1041B4000D01D801012B09F455C01297ED91FC9122
:1041C4001197349708F44EC008E81AE0F80153D068
:1041D40019F0A217B30728F4FD0122833383F801F1
:1041E40023C0F90148D019F02A173B07D0F34081C6
:1041F40051819F01240F351FA217B30798F12A1785
:104204003B0741F42D913C91420F531F408351834E
:10421400DF010CC030D021F027D02617370710F16A
:1042240012962D933C931397A283B383FD0123D05D
:10423400C9F01AD062177307A9F420E0F8012083AB
:104244002183FD010281F381E02F208131814D9191
:104254005C91420F531F5C934E9302811381FD01C5
:1042640002831383D00108954D915C911197BD0190
:10427400640F751F089522813381422F432B0895C3
:104284009A938A93C80105C02E5F3F4F89010E940B
:10429400DA20E8E8FAE000811181202F212B61F473
:1042A4000AE81AE001C037D029D0F1F02ED0D8F3B3
:1042B40022C02BD000F52FD021D0D9F7E8E8FAE0BE
:1042C4000081F181E02F1ED00AE81AE007C0FA014C
:1042D400408151814817590770F41DD0F80140817D
:1042E40051814217530799F70E94C7209801012B67
:1042F40059F600E010E089919991089502D0232B9A
:104304000895F801208131810895E081F32FFADFC7
:10431400281739070895F801008111810E5F1F4F96
:1043240008950E944C20C80102960817190718F036
:1043340000E010E047C0843000E0900710F484E00F
:1043440090E08C019DDF202F212B91F3DADFF9011E
:10435400A081B1811497A817B90730F42281338161
:10436400D8012D933C9316C0280F391FD8012D93E3
:104374003C934281538129D04D935C934081518178
:10438400481B590BD8012D91BC91A22F4D935C93DE
:1043940080839183D8012D913C91232B59F015D022
:1043A4002D913C91232B31F0D8010D911C910E5F7E
:1043B4001F4F02C000E010E0A8E8BAE00D931C9380
:1043C40032968F01E4E00C945D20D8012D91D9013F
:1043D400129608954572726F72206D6F64756C65E4
:1043E4002073656E640D0A00130279080000001939
:1043F400016007FA4300464E2B735320000000006F
:1044040000316253C4F5A697B988DBEA7D4C1F2EB0
:104414004372211087B6E5D4FACB98A93E0F5C6DA0
:1044240086B7E4D5427320113F0E5D6CFBCA99A890
:10443400C5F4A796013063527C4D1E2FB889DAEB80
:104444003D0C5F6EF9C89BAA84B5E6D74071221370
:104454007E4F1C2DBA8BD8E9C7F6A5940332615060
:10446400BB8AD9E87F4E1D2C02336051C6F7A49550
:10447400F8C99AAB3C0D5E6F4170231285B4E7D640
:104484007A4B1829BE8FDCEDC3F2A1900736655430
:1044940039085B6AFDCC9FAE80B1E2D34475261720
:1044A400FCCD9EAF38095A6B4574271681B0E3D210
:1044B400BF8EDDEC7B4A192806376455C2F3A09100
:1044C4004776251483B2E1D0FECF9CAD3A0B5869F0
:1044D40004356657C0F1A293BD8CDFEE79481B2AE0
:1044E400C1F0A3920534675678491A2BBC8DDEEFD0
:1044F40082B3E0D1467724153B0A5968FFCE9DACC0
:0F45040001FF03030303030303035046000001F9
:0400000300000000F9
:00000001FF
