:020000020000FC
:100000000C94312F189518951895189518951895E2
:100010001895189518951895189518951895189578
:10002000189518950C944A021895189518951895D6
:100030001895189518951895189518950C94C70249
:1000400018951895189518950C94562E0C948D2E7D
:100050001895189518951895189518951895189538
:100060001895189518951895189518951895189528
:100070001895189518951895189518951895189518
:10008000189518951895189518951895921AE603CD
:10009000E603A41AD204E603E0043305E6034C05A4
:1000A000C10565053212E603E603E603E603E6034F
:1000B000E603E603E603E603E603E60301020103C3
:1000C000010201040102010301020100474D206306
:1000D0006F646500D9DA20202020202020202020F5
:1000E0002020202020202020202020202020202010
:1000F0002020202020202020202020202020202000
:1001000020202020A2B520202020202020202020D8
:100110002020202041A042A1E045A3A4A5A64BA7F2
:100120004D484FA8504354A9AA58E1ABACE2ADAE3C
:1001300062AFB0B161B2B3B4E365B6B7B8B9BABB38
:10014000BCBD6FBE7063BF79E478E5C0C1E6C2C3D1
:10015000C4C5C6C70609090600000000060F0F0641
:10016000000000002F212F212F212F212F212F21AF
:100170002F2169212E212E212E212E212E212F21CA
:10018000F721D0222E212E212E212E21C2212E21F7
:10019000CB23492366238323D123D02218242E2165
:1001A0002E212E212E212E21E1237324D924DB247C
:1001B000E624F124D1233E242E214F258C25A92588
:1001C000C625D1230F252E211226142616262E21D0
:1001D000D123E1252E21B026B226DD260827D12302
:1001E00029262E21462748274A272E21D1231527A5
:1001F0004228C2212E212E212E212E2116282E21E9
:10020000C221DD27F927D827D5275B272E213E24B9
:100210007F2A8F2AA12AC221192A2E212E21DC2AE7
:10022000D22A2E21C221A12A2E212E212E212E2199
:100230002E212E212E210302040601537475636BB7
:1002400020202020200053656E736F7273203A20A7
:10025000004C3D202020202020004572726F72202B
:1002600020200053656E736F72733A004C3D3F203F
:1002700020202020202020202020202000496E70D7
:1002800075742070617373776F72643A0050617394
:1002900073776F7264206572726F7221004D656EA4
:1002A000753A0044697374616E636520746F2053FE
:1002B0003120200044697374616E636520746F207F
:1002C000533220200044697374616E636520746F3B
:1002D00020533320200044697374616E6365207479
:1002E0006F20533420200044697374616E6365206D
:1002F000746F20533520200044697374616E636508
:1003000020746F20533620200044697374616E633B
:100310006520746F20533720200044697374616E28
:10032000636520746F205338202000446562756730
:100330002073637220737065656420004465627584
:1003400067206F757420444143202020005365745A
:1003500020256C6576656C20737065656400536557
:1003600074206E65772070617373776F72640053C9
:1003700065742070617373776F72643A00536176AD
:10038000653F20282D2F2B290044697374616E630B
:100390006520746F205300536176653F20282D2F10
:1003A0002B29004465627567204F757420444143D2
:1003B0000031363030306D6D2D32302E3030306DB2
:1003C0004100537562205370656564006C65766505
:1003D0006C3D3230302E302500536176653F202849
:0503E0002D2F2B290068
:1003E6004101522CD02B01E42B01F82B010C2C01DE
:1003F600202C01342C01482C1AC62B01DA2B01EED5
:100406002B01022C01162C012A2C013E2CFB41014A
:100416006E2DEC2C01002D01142D01282D013C2DF3
:1004260001502D01642D1AE22C01F62C010A2D0132
:100436001E2D01322D01462D015A2DFB8002B01BC7
:1004460000E005BD05B5086005BD05B50F7B05BD1A
:1004560005B50F7D05BD05B50F7E05BD05B50B7F41
:1004660005BD05B5026005BD05B5016005BD01D038
:10047600089500E004BD0CE703BD06B70F7706BF7D
:1004860006B70F7B06BF07B7006807BF08959A93A4
:100496008A93FA93EA933A922A921A920A927A9352
:1004A6006A935A934A933A932A931A930A938FB765
:1004B6009BB707B70F7707BF789400911D0A109175
:1004C6001E0A0E94D91D0E944F1D0E94DE2A0E940C
:1004D600EE02CFDF9BBF8FBF099119912991399108
:1004E600499159916991799109901990299039907A
:1004F600E991F9918991999118950FE210E00E947E
:1005060095309801012B41F089010E94551D0093F9
:100516001D0A10931E0A089500E010E000931D0ABC
:1005260010931E0A08950E9423020E94A7020E94A9
:10053600182E0E943F030E94A10208950E94D91A14
:1005460008950E940204089503B7046003BF03B729
:100556000D7F03BF03B70E7F03BF03B70F7B03BF38
:1005660003B7086003BF03B70F7D03BF03B70F7E52
:1005760003BF03B70F7703BF00E002BF01E301BF6C
:1005860007B7026007BF08959A938A93FA93EA938E
:100596003A922A921A920A927A936A935A934A93B1
:1005A6003A932A931A930A938FB79BB70E94320302
:1005B6009BBF8FBF09911991299139914991599101
:1005C600699179910990199029903990E991F99159
:1005D6008991999118950895EFE1FAE000811181CA
:1005E6000F5F1F4F0083118300911F0A1091200A8D
:1005F600083823E1120790F100E010E000931F0A8B
:100606001093200A01E00093250A0091210A039520
:100616000093210A0091210A0C3300F100E00093B7
:10062600210A0091220A03950093220A0091220AC8
:100636000C33A0F000E00093220A0091230A0395F0
:100646000093230A0091230A083140F000E000934A
:10065600230A0091240A03950093240A08950E9410
:10066600A402BADF08952FB7F8012083F8940895FD
:10067600F80120812FBF0895219705E00A3040F444
:1006860020E010E0F801E050F74F20830395F6CF05
:100696008E010E94360300E010E000931F0A1093BB
:1006A600200A00E00093210A00E00093220A00E0FD
:1006B6000093230A00E00093240A01E00093250A30
:1006C6008E010E943B03219608950E947930D8013D
:1006D6000FEF80E090E08217930764F410E04C91EE
:1006E60050E004271527F801E65FF64F00811196C2
:1006F6000196F1CFE4E00C948A30C69AC69AC79A5E
:10070600949A959ABE9ABE9ABF9A8C9A8D9A0FE33E
:100716001CE901501040E9F700C0000095980895C3
:10072600B80100E010E0BE9ABF9A8C9A8D9AC798DD
:100736002AE02A95F1F700C094982AE02A95F1F765
:1007460000C040E0403110F577FB16F421E001C00F
:1007560020E020FB28B326F928BB2AE02A95F1F7EA
:1007660000C0C79A2AE02A95F1F700C0000F111FB2
:10077600C69B03C0016021E030E0C798660F771F73
:100786002AE02A95F1F700C04395DCCF949A2AE037
:100796002A95F1F700C008959A938A93C801ADDFB0
:1007A6008C0120E030E04FEF5FE960E070E00E94EE
:1007B600A32F40E157E260E070E00E94C32FB0DF54
:1007C600899199910895089521978E010E94360383
:1007D60000E000933D0A8E010E943B032196089596
:1007E6008A9321978E010E94360300913D0A802F3D
:1007F6008E010E943B03082F2196899108950E943D
:100806009B1B0091CA0A10E0000F111F000F111F59
:10081600F801E257FF4F059114913197F8010995B8
:10082600089521978E010E9436030091CA0A10E0AE
:10083600000F111F000F111FF801E457FF4F05911C
:1008460014913197F8010995E9E2FAE000811181E6
:10085600228133810093260A1093270A00913E0ACB
:100866000093280A8E010E943B03219608958A93DD
:1008760021978E010E9436030091CA0A802F8E01AD
:100886000E943B03082F2196899108950E94793092
:10089600602F212F422F01E010E00E94892F109136
:1008A6003D0A102B10933D0A30E0F901E05FF54F49
:1008B60060830091C40A002309F46EC030E0422F21
:1008C60050E008E010E00E94812FE0E4FAE0E00F3B
:1008D600F11F062F10E0000F111F000F111FE00F70
:1008E600F11F00801180228033800128022803280E
:1008F60019F4662309F431E0613019F4222309F46E
:1009060031E0613059F4213048F0022F10E0F8014F
:10091600E15FF54F0081002309F031E03323E1F177
:1009260088EF94E2A1E0B0E0ECE0FAE08083918306
:10093600A283B383E0ECFAE080819181A281B38146
:10094600422F50E008E010E00E94812FE0E4FAE038
:10095600E00FF11F062F10E0000F111F000F111FEF
:10096600E00FF11F80839183A283B383422F01E0BE
:1009760010E00E94892F10913F0A102B10933F0A16
:1009860040910B0A542F550F550B022F10E04017BC
:10099600510714F420930B0AE4E00C948A3000EA21
:1009A6001BEB2DE030E0E5ECFAE0008311832283B7
:1009B600338303E00093CA0A08950E9479300E94A7
:1009C600BB1A0023F1F10E94D61A40E0483010F518
:1009D60060E06230E8F400E010E020E030E0C801BA
:1009E600D90150E008E010E00E94812FE0E4FAE02F
:1009F600E00FF11F062F10E0000F111F000F111F4F
:100A0600E00FF11F80839183A283B3836395E1CFC7
:100A16004395DCCF01E010E020E030E0E0ECFAE0C6
:100A2600008311832283338300E000933F0A0FEF94
:100A360000930B0A01E00093C40A04E00093CA0A7B
:100A46000CC0E5ECFAE00081118122813381012B93
:100A5600022B032B11F40E94D31AE4E00C948A3083
:100A6600E5ECFAE00081118122813381012B022B12
:100A7600032B71F0E5ECFAE00081118122813381CC
:100A8600015010402040304000831183228333837D
:100A9600089500913D0A0023A1F000E00093C90AE1
:100AA60040910B0A439501E010E00E94892F0A95B8
:100AB60010913F0A1095012300933E0A05E000932A
:100AC600CA0A0895ECE0FAE000811181228133819F
:100AD600012B022B032BF1F1ECE0FAE000811181EE
:100AE6002281338101501040204030400083118321
:100AF60022833383E0ECFAE0008111812281338185
:100B06000F5F1F4F2F4F3F4F008311832283338385
:100B16000E94BB1A002389F101E00093C90AE0E4B0
:100B2600FAE000A911A922A933A9012B022B032B54
:100B360021F1E0E4FAE000AD11AD22AD33AD012BB9
:100B4600022B032BD1F006E00093CA0A00E00093C3
:100B5600C40A08950091C90A002339F006E00093FB
:100B6600CA0A00E00093C40A089500E00093C40A8C
:100B76000E94D31A06E00093CA0A089500913D0A1E
:100B8600002379F040910B0A439501E010E00E94A2
:100B9600892F0A9510913F0A1095012300933E0A6A
:100BA600089500E000933E0A08950E947730D80128
:100BB600C901A817B9071CF42D01DC01C2018D017A
:100BC600212F220F220B322F48EE53E060E070E017
:100BD6000E94A32FAC01652F660F660B762F0E942D
:100BE600E62F085E134028018201E6E00C94883067
:100BF6000E946D30EB974FAB58AF69AF7AAF388331
:100C0600302E312F522EFE01FF96E684F784FE0128
:100C1600FF96C088D188FE01FF966288738860E0DF
:100C2600232E032F0A95402E422D542F550F550B78
:100C3600052D10E0401751070CF0D4C044200AF4EB
:100C4600D1C0022D102F110F110BF801E25EF04FEB
:100C56004081542F550F550B08E010E00E94812F5C
:100C6600F801E05CF54F80819181A281B381892BE7
:100C76008A2B8B2B09F4B6C0042D102F110F110BE4
:100C8600F801E25EF04F4081542F550F550B08E0F6
:100C960010E00E94812FF801E05CF54F8081918180
:100CA600A281B381892B8A2B8B2B09F49BC0FE0171
:100CB6003196462F50E009E010E00E94812FE00FA8
:100CC600F11F4682FE013196462F50E009E010E002
:100CD6000E94812FE00FF11F2782022D102F110F86
:100CE600110BF801E25EF04F0081E02FFE2FFF0F9F
:100CF600FF0BEE0FFF1F40E050E04E0F5F1F0E94FC
:100D0600582F0801042D102F110F110BF801E25E68
:100D1600F04F0081E02FFE2FFF0FFF0BEE0FFF1F9E
:100D260040E050E04E0F5F1F0E94582F001A110A34
:100D3600C001FE013196462F50E009E010E00E9406
:100D4600812FE00FF11F80839183022D102F110F49
:100D5600110BF801E25EF04F4081542F550F550BF1
:100D660008E010E00E94812FF801E05CF54F8081D9
:100D76009181A281B381042D102F110F110BF8015F
:100D8600E25EF04F0080102C110C110848E050E094
:100D960080010E94812FF801E05CF54F80809180F0
:100DA600A280B38088199909AA09BB09FE01319668
:100DB600062E112449E050E080010E94812FE00FA9
:100DC600F11F82839383A483B58321E0FE013196CC
:100DD600462F50E009E010E00E94812FE00FF11F3E
:100DE60020876395232C032D0A95402E422D542FE0
:100DF600550F550B052D10E0401751070CF0D4C0C8
:100E060044200AF4D1C0022D102F110F110BF80146
:100E1600E25EF04F4081542F550F550B08E010E06D
:100E26000E94812FF801E05CF54F84819581A681AF
:100E3600B781892B8A2B8B2B09F4B6C0042D102F72
:100E4600110F110BF801E25EF04F4081542F550F40
:100E5600550B08E010E00E94812FF801E05CF54F89
:100E660084819581A681B781892B8A2B8B2B09F4E6
:100E76009BC0FE013196462F50E009E010E00E942B
:100E8600812FE00FF11F4682FE013196462F50E07A
:100E960009E010E00E94812FE00FF11F2782022D4A
:100EA600102F110F110BF801E25EF04F0081E02FB9
:100EB600FE2FFF0FFF0BEE0FFF1F40E050E04E0F1F
:100EC6005F1F0E94582F0801042D102F110F110BC0
:100ED600F801E25EF04F0081E02FFE2FFF0FFF0BBF
:100EE600EE0FFF1F40E050E04E0F5F1F0E94582F8D
:100EF600001A110AC001FE013196462F50E009E0A2
:100F060010E00E94812FE00FF11F80839183022D54
:100F1600102F110F110BF801E25EF04F4081542F94
:100F2600550F550B08E010E00E94812FF801E05C98
:100F3600F54F84819581A681B781042D102F110F5D
:100F4600110BF801E25EF04F0080102C110C110815
:100F560048E050E080010E94812FF801E05CF54FE7
:100F660084809580A680B78088199909AA09BB094B
:100F7600FE013196062E112449E050E080010E94C0
:100F8600812FE00FF11F82839383A483B58320E032
:100F9600FE013196462F50E009E010E00E94812FB5
:100FA600E00FF11F20876395032F0395202E432E14
:100FB600422D542F550F550B052D10E040175107A4
:100FC6000CF0D4C044200AF4D1C0022D102F110F0A
:100FD600110BF801E25EF04F4081542F550F550B6F
:100FE60008E010E00E94812FF801E05CF54F808157
:100FF6009181A281B381892B8A2B8B2B09F4B6C0F0
:10100600042D102F110F110BF801E25EF04F4081F5
:10101600542F550F550B08E010E00E94812FF80160
:10102600E05CF54F80819181A281B381892B8A2B67
:101036008B2B09F49BC0FE013196462F50E009E048
:1010460010E00E94812FE00FF11F4682FE013196CB
:10105600462F50E009E010E00E94812FE00FF11FBB
:101066002782022D102F110F110BF801E25EF04FAF
:101076000081E02FFE2FFF0FFF0BEE0FFF1F40E05A
:1010860050E04E0F5F1F0E94582F0801042D102FAD
:10109600110F110BF801E25EF04F0081E02FFE2FD9
:1010A600FF0FFF0BEE0FFF1F40E050E04E0F5F1FDC
:1010B6000E94582F001A110AC001FE013196462FD0
:1010C60050E009E010E00E94812FE00FF11F8083BD
:1010D6009183022D102F110F110BF801E25EF04FD4
:1010E6004081542F550F550B08E010E00E94812FC8
:1010F600F801E05CF54F80819181A281B381042DD6
:10110600102F110F110BF801E25EF04F0080102C2A
:10111600110C110848E050E080010E94812FF8016F
:10112600E05CF54F80809180A280B3808819990990
:10113600AA09BB09FE013196062E112449E050E0AA
:1011460080010E94812FE00FF11F82839383A48385
:10115600B58321E0FE013196462F50E009E010E00C
:101166000E94812FE00FF11F20876395232E032F06
:101176000250402E422D542F550F550B052D10E0D1
:10118600401751070CF0D4C044200AF4D1C0022DF8
:10119600102F110F110BF801E25EF04F4081542F12
:1011A600550F550B08E010E00E94812FF801E05C16
:1011B600F54F80819181A281B381892B8A2B8B2B5C
:1011C60009F4B6C0042D102F110F110BF801E25EC1
:1011D600F04F4081542F550F550B08E010E00E9448
:1011E600812FF801E05CF54F80819181A281B38166
:1011F600892B8A2B8B2B09F49BC0FE013196462F37
:1012060050E009E010E00E94812FE00FF11F4682B6
:10121600FE013196462F50E009E010E00E94812F32
:10122600E00FF11F2782022D102F110F110BF8016D
:10123600E25EF04F0081E02FFE2FFF0FFF0BEE0F57
:10124600FF1F40E050E04E0F5F1F0E94582F08011D
:10125600042D102F110F110BF801E25EF04F0081E3
:10126600E02FFE2FFF0FFF0BEE0FFF1F40E050E0B9
:101276004E0F5F1F0E94582F001A110AC001FE016F
:101286003196462F50E009E010E00E94812FE00FD2
:10129600F11F80839183022D102F110F110BF8017E
:1012A600E25EF04F4081542F550F550B08E010E0D9
:1012B6000E94812FF801E05CF54F80819181A28127
:1012C600B381042D102F110F110BF801E25EF04FC0
:1012D6000080102C110C110848E050E080010E949B
:1012E600812FF801E05CF54F80809180A280B38069
:1012F60088199909AA09BB09FE013196062E1124FF
:1013060049E050E080010E94812FE00FF11F8283A7
:101316009383A483B58320E0FE013196462F50E0E7
:1013260009E010E00E94812FE00FF11F20876395EE
:10133600032D0395202E432C422D542F550F550B6C
:10134600052D10E0401751070CF0D4C044200AF4D4
:10135600D1C0022D102F110F110BF801E25EF04FD4
:101366004081542F550F550B08E010E00E94812F45
:10137600F801E05CF54F84819581A681B781892BC0
:101386008A2B8B2B09F4B6C0042D102F110F110BCD
:10139600F801E25EF04F4081542F550F550B08E0DF
:1013A60010E00E94812FF801E05CF54F8481958161
:1013B600A681B781892B8A2B8B2B09F49BC0FE0152
:1013C6003196462F50E009E010E00E94812FE00F91
:1013D600F11F4682FE013196462F50E009E010E0EB
:1013E6000E94812FE00FF11F2782022D102F110F6F
:1013F600110BF801E25EF04F0081E02FFE2FFF0F88
:10140600FF0BEE0FFF1F40E050E04E0F5F1F0E94E4
:10141600582F0801042D102F110F110BF801E25E51
:10142600F04F0081E02FFE2FFF0FFF0BEE0FFF1F87
:1014360040E050E04E0F5F1F0E94582F001A110A1D
:10144600C001FE013196462F50E009E010E00E94EF
:10145600812FE00FF11F80839183022D102F110F32
:10146600110BF801E25EF04F4081542F550F550BDA
:1014760008E010E00E94812FF801E05CF54F8481BE
:101486009581A681B781042D102F110F110BF8013C
:10149600E25EF04F0080102C110C110848E050E07D
:1014A60080010E94812FF801E05CF54F84809580D1
:1014B600A680B78088199909AA09BB09FE01319649
:1014C600062E112449E050E080010E94812FE00F92
:1014D600F11F82839383A483B58321E0FE013196B5
:1014E600462F50E009E010E00E94812FE00FF11F27
:1014F600208763950881002311F071E001C070E038
:1015060020E0261708F045C0FE013196422F50E034
:1015160009E010E00E94812FE00FF11F00850023F3
:10152600C1F08FA998ADA9ADBAADFE013196022ED4
:10153600112449E050E080010E94812FE00FF11F45
:1015460082809380A480B58088159905AA05BB057D
:10155600F0F4FE013196422F50E009E010E00E94BF
:10156600812FE00FF11F808191814E96FE01319609
:10157600072E112449E050E080010E94812FE00FE0
:10158600F11F008111818017910708F4722F2395AE
:10159600B8CFFE013196472F50E009E010E00E94D7
:1015A600812FE00FF11F00811181F6010083118365
:1015B600FE013196472F50E009E010E00E94812F8E
:1015C600E00FF11F82819381A481B581F3018083AD
:1015D6009183A283B383FE013196472F50E009E041
:1015E60010E00E94812FE00FF11F0681DE01A55B4E
:1015F600BF4FED91FC910083FE013196472F50E0DD
:1016060009E010E00E94812FE00FF11F0781F7012A
:101616000083EB96E8E10C947E300E946D302897AB
:10162600C02EA12EE22E00911D0F043610F001E00F
:1016360001C1CC2042F00A2D102F110F110BFF24EF
:101646000E151F0514F000E0F5C0BB240A2D102F5F
:10165600110F110BF801E25EF04F0081102F110FF0
:10166600110B000F111F40E050E0400F511F0E9468
:10167600582FB801DC2CDD0CDD08F601E25EF04FD8
:101686000081102F110F110B000F111F40E050E0C9
:10169600400F511F0E94582F601B710B4B01DC2C11
:1016A600DD0CDD08F601E25EF04F4081542F550F48
:1016B600550B08E010E00E94812FF801E05CF54F21
:1016C60044805580668077800A2D102F110F110BEC
:1016D600F801E25EF04F4081542F550F550B08E09C
:1016E60010E00E94812FF801E05CF54F0081118126
:1016F60022813381401A510A620A730AC201D30158
:101706008E010C5F1F4F1A930A938E010C5F1F4FB9
:101716001A930A938E010C5F1F4F1A930A938E0138
:10172600095F1F4F1A930A9331E0AC01BD012E2DBC
:101736001A2D0C2D5DDA0A811B8120E030E0AC0108
:10174600BD010E94A32F4C815D816E817F810E9425
:10175600C32FC801D90121E040911D0F50E00BE0D5
:1017660010E00E94812FF801EF52F54F208340913F
:101776001D0F50E00BE010E00E94812FF801EF52A0
:10178600F54FC28240911D0F50E00BE010E00E9421
:10179600812FF801EF52F54FA382298140911D0F49
:1017A60050E00BE010E00E94812FF801EF52F54F58
:1017B6002483288140911D0F50E00BE010E00E9429
:1017C600812FF801EF52F54F25839C0140911D0FA3
:1017D60050E00BE010E00E94812FF801EF52F54F28
:1017E600268337838C019401200F311F40911D0FF2
:1017F60050E00BE010E00E94812FF801EF52F54F08
:101806002087318721E040911D0F50E00BE010E06A
:101816000E94812FF801EF52F54F228700911D0F8C
:10182600039500931D0F00911D0F043610F0BB2485
:10183600B3940B2D2896E0E10C947E300E946D3017
:101846002897A02E812EE22E00911D0F043610F04F
:1018560002E026C1AA2042F0082D102F110F110B0D
:10186600FF240E151F0514F000E01AC19924BA2CA6
:10187600BB0CBB08F501E25EF04F4081542F550FBB
:10188600550B08E010E00E94812FF801E05CF54F4F
:101896004480558066807780082D102F110F110B1C
:1018A600F801E35EF04F4081542F550F550B08E0C9
:1018B60010E00E94812FF801E05CF54F0081118154
:1018C60022813381401A510A620A730AC201D30186
:1018D600813000E0900700E0A00700E0B0070CF4BC
:1018E600DEC0082D102F110F110BF801E35EF04F2B
:1018F6000081102F110F110B000F111F40E050E057
:10190600400F511F0E94582FB801BA2CBB0CBB08C0
:10191600F501E25EF04F0081102F110F110B000F41
:10192600111F40E050E0400F511F0E94582F601BCE
:10193600710B6B018E010C5F1F4F1A930A938E0178
:101946000C5F1F4F1A930A938E010C5F1F4F1A9359
:101956000A938E01095F1F4F1A930A9331E0AC0177
:10196600BD012E2D182D1A950A2D42D90A811B81EB
:1019760020E030E0AC01BD010E94A32F4AE050E018
:1019860060E070E00E94A32F4C815D816E817F81B3
:101996000E94C32F0B5F1F4F2F4F3F4F4AE050E06F
:1019A60060E070E00E94C32FC801D901860120E0E3
:1019B60030E080179107A207B3070CF070C023E050
:1019C60040911D0F50E00BE010E00E94812FF801BE
:1019D600EF52F54F208340911D0F50E00BE010E0D1
:1019E6000E94812FF801EF52F54FA282282D2A95E9
:1019F60040911D0F50E00BE010E00E94812FF8018E
:101A0600EF52F54F2383298140911D0F50E00BE0E3
:101A160010E00E94812FF801EF52F54F24832881B0
:101A260040911D0F50E00BE010E00E94812FF8015D
:101A3600EF52F54F25839C0140911D0F50E00BE0BE
:101A460010E00E94812FF801EF52F54F268337836D
:101A56008C019601200F311F40911D0F50E00BE0C5
:101A660010E00E94812FF801EF52F54F2087318751
:101A760021E040911D0F50E00BE010E00E94812F05
:101A8600F801EF52F54F228700911D0F0395009341
:101A96001D0F00911D0F043610F099249394092D03
:101AA6002896E0E10C947E300E946D302897C02E77
:101AB600A12EE22E00911D0F043610F002E023C184
:101AC600CC2042F00A2D102F110F110BFF240E15FA
:101AD6001F0514F000E017C1BB240A2D102F110FAB
:101AE600110BF801E25EF04F4081542F550F550B54
:101AF60008E010E00E94812FF801E05CF54F40807D
:101B0600518062807380DC2CDD0CDD08F601E25E1C
:101B1600F04F4081542F550F550B08E010E00E94FE
:101B2600812FF801E05CF54F04811581268137810C
:101B3600401A510A620A730AC201D301813000E0D9
:101B4600900700E0A00700E0B0070CF4DBC00A2D08
:101B5600102F110F110BF801E25EF04F0081102FCC
:101B6600110F110B000F111F40E050E0400F511FE5
:101B76000E94582FB801DC2CDD0CDD08F601E25E70
:101B8600F04F0081102F110F110B000F111F40E0B5
:101B960050E0400F511F0E94582F601B710B4B01E4
:101BA6008E010C5F1F4F1A930A938E010C5F1F4F15
:101BB6001A930A938E010C5F1F4F1A930A938E0194
:101BC600095F1F4F1A930A9330E0AC01BD012E2D19
:101BD6001A2D0C2D0DD80A811B8120E030E0AC01B6
:101BE600BD010E94A32F4AE050E060E070E00E9431
:101BF600A32F4C815D816E817F810E94C32F0B5F75
:101C06001F4F2F4F3F4F4AE050E060E070E00E94C8
:101C1600C32FC801D901840120E030E08017910765
:101C2600A207B3070CF06EC024E040911D0F50E0F0
:101C36000BE010E00E94812FF801EF52F54F208350
:101C460040911D0F50E00BE010E00E94812FF8013B
:101C5600EF52F54FC28240911D0F50E00BE010E0AD
:101C66000E94812FF801EF52F54FA38229814091FE
:101C76001D0F50E00BE010E00E94812FF801EF529B
:101C8600F54F2483288140911D0F50E00BE010E0B2
:101C96000E94812FF801EF52F54F25839C01409158
:101CA6001D0F50E00BE010E00E94812FF801EF526B
:101CB600F54F268337838C019401201B310B40910D
:101CC6001D0F50E00BE010E00E94812FF801EF524B
:101CD600F54F2087318722E040911D0F50E00BE041
:101CE60010E00E94812FF801EF52F54F22870091F4
:101CF6001D0F039500931D0F00911D0F043610F064
:101D0600BB24B3940B2D2896E0E10C947E300E9400
:101D16006D302897A02EC12EE22E00911D0F04369D
:101D260010F002E026C1AA203AF0DC2CDD0CDD081A
:101D3600FF24CE14DF0414F000E01BC1BB240A2DDF
:101D4600102F110F110BF801E25EF04F4181542F55
:101D5600550F550B08E010E00E94812FF801E05C5A
:101D6600F54F4480558066807780DC2CDD0CDD08DD
:101D7600F601E25EF04F4081542F550F550B08E0F7
:101D860010E00E94812FF801E05CF54F008111817F
:101D960022813381401A510A620A730AC201D301B1
:101DA600813000E0900700E0A00700E0B0070CF4E7
:101DB600DFC0DC2CDD0CDD08F601E25EF04F0081B1
:101DC600102F110F110B000F111F40E050E0400FB4
:101DD600511F0E94582FB8010A2D102F110F110BF9
:101DE600F801E25EF04F0181102F110F110B000F69
:101DF600111F40E050E0400F511F0E94582F601BFA
:101E0600710B4B018E010C5F1F4F1A930A938E01C3
:101E16000C5F1F4F1A930A938E010C5F1F4F1A9384
:101E26000A938E01095F1F4F1A930A9331E0AC01A2
:101E3600BD012E2D1C2D0A2D03950E94FB050A813E
:101E46001B8120E030E0AC01BD010E94A32F4AE0D7
:101E560050E060E070E00E94A32F4C815D816E81AE
:101E66007F810E94C32F0B5F1F4F2F4F3F4F4AE0CA
:101E760050E060E070E00E94A32FC801D901840100
:101E860020E030E080179107A207B3070CF070C07E
:101E960026E040911D0F50E00BE010E00E94812FDC
:101EA600F801EF52F54F20832A2D239540911D0FFF
:101EB60050E00BE010E00E94812FF801EF52F54F41
:101EC600228340911D0F50E00BE010E00E94812F0D
:101ED600F801EF52F54FC382298140911D0F50E062
:101EE6000BE010E00E94812FF801EF52F54F24839A
:101EF600288140911D0F50E00BE010E00E94812FD9
:101F0600F801EF52F54F25839C0140911D0F50E0DB
:101F16000BE010E00E94812FF801EF52F54F268367
:101F260037838C019401200F311F40911D0F50E023
:101F36000BE010E00E94812FF801EF52F54F208749
:101F4600318721E040911D0F50E00BE010E00E9428
:101F5600812FF801EF52F54F228700911D0F03954F
:101F660000931D0F00911D0F043610F0BB24B3948F
:101F76000B2D2896E0E10C947E300E946D30289758
:101F8600C02EA12EE22E00911D0F043610F002E0A5
:101F960024C1CC2042F00A2D102F110F110BFF2463
:101FA6000E151F0514F000E018C1BB24DC2CDD0C57
:101FB600DD08F601E25EF04F4081542F550F550BB8
:101FC60008E010E00E94812FF801E05CF54F4480A4
:101FD6005580668077800A2D102F110F110BF8019E
:101FE600E25EF04F4081542F550F550B08E010E08C
:101FF6000E94812FF801E05CF54F0081118122815A
:102006003381401A510A620A730AC201D301813030
:1020160000E0900700E0A00700E0B0070CF4DCC089
:102026000A2D102F110F110BF801E25EF04F0081FF
:10203600102F110F110B000F111F40E050E0400F41
:10204600511F0E94582FB801DC2CDD0CDD08F6016B
:10205600E25EF04F0081102F110F110B000F111FC0
:1020660040E050E0400F511F0E94582F601B710B3B
:102076004B018E010C5F1F4F1A930A938E010C5F62
:102086001F4F1A930A938E010C5F1F4F1A930A93E0
:102096008E01095F1F4F1A930A9331E0AC01BD010F
:1020A6002E2D1A2D0C2D0E94FB050A811B8120E086
:1020B60030E0AC01BD010E94A32F4AE050E060E091
:1020C60070E00E94A32F4C815D816E817F810E940A
:1020D600C32F0B5F1F4F2F4F3F4F4AE050E060E08A
:1020E60070E00E94C32FC801D901840120E030E0CE
:1020F60080179107A207B3070CF06EC027E0409146
:102106001D0F50E00BE010E00E94812FF801EF5206
:10211600F54F208340911D0F50E00BE010E00E9428
:10212600812FF801EF52F54FC28240911D0F50E00A
:102136000BE010E00E94812FF801EF52F54FA382C9
:10214600298140911D0F50E00BE010E00E94812F85
:10215600F801EF52F54F2483288140911D0F50E07E
:102166000BE010E00E94812FF801EF52F54F258316
:102176009C0140911D0F50E00BE010E00E94812F62
:10218600F801EF52F54F268337838C019401200F17
:10219600311F40911D0F50E00BE010E00E94812F8F
:1021A600F801EF52F54F2087318721E040911D0F4E
:1021B60050E00BE010E00E94812FF801EF52F54F3E
:1021C600228700911D0F039500931D0F00911D0F8F
:1021D600043610F0BB24B3940B2D2896E0E10C9442
:1021E6007E300E946D302897A02E812EE22E00911F
:1021F6001D0F043610F002E02EC1EA2DFE2FFF0F50
:10220600FF0B319742F0082D102F110F110BFF24F1
:102216000E151F0514F000E01EC19924082D102F7D
:10222600110F110BF801E35EF04F4081542F550F4B
:10223600550B08E010E00E94812FF801E05CF54F95
:102246004080518062807380BA2CBB0CBB08F501BC
:10225600E35EF04F4081542F550F550B08E010E018
:102266000E94812FF801E05CF54F048115812681DB
:102276003781401A510A620A730AC201D3018130BA
:1022860000E0900700E0A00700E0B0070CF4E2C011
:10229600082D102F110F110BF801E35EF04F00818E
:1022A600102F110F110B000F111F40E050E0400FCF
:1022B600511F0E94582FB801BA2CBB0CBB08F50160
:1022C600E35EF04F0081102F110F110B000F111F4D
:1022D60040E050E0400F511F0E94582F601B710BC9
:1022E6006B018E010C5F1F4F1A930A938E010C5FD0
:1022F6001F4F1A930A938E010C5F1F4F1A930A936E
:102306008E01095F1F4F1A930A9330E0AC01BD019D
:102316002E2D182D1A950A2D0A950E94FB050A8165
:102326001B8120E030E0AC01BD010E94A32F4AE0F2
:1023360050E060E070E00E94A32F4C815D816E81C9
:102346007F810E94C32F0B5F1F4F2F4F3F4F4AE0E5
:1023560050E060E070E00E94C32FC801D9018601F9
:1023660020E030E080179107A207B3070CF072C097
:1023760028E040911D0F50E00BE010E00E94812FF5
:10238600F801EF52F54F20832A2D2A9540911D0F13
:1023960050E00BE010E00E94812FF801EF52F54F5C
:1023A6002283282D2A9540911D0F50E00BE010E066
:1023B6000E94812FF801EF52F54F23832981409126
:1023C6001D0F50E00BE010E00E94812FF801EF5244
:1023D600F54F2483288140911D0F50E00BE010E05B
:1023E6000E94812FF801EF52F54F25839C01409101
:1023F6001D0F50E00BE010E00E94812FF801EF5214
:10240600F54F268337838C019601201B310B4091B3
:102416001D0F50E00BE010E00E94812FF801EF52F3
:10242600F54F2087318722E040911D0F50E00BE0E9
:1024360010E00E94812FF801EF52F54F228700919C
:102446001D0F039500931D0F00911D0F043610F00C
:1024560099249394092D2896E0E10C947E300E94ED
:102466006D30E69700E0083048F42FEFFE01339612
:1024760010E0E00FF11F20830395F5CF40E04830D0
:1024860008F044C050E008E010E00E94812FF801F7
:10249600E05CF54F80819181A281B38150E008E034
:1024A60010E00E94812FF801E058F54F8083918358
:1024B600A283B38350E008E010E00E94812FF80168
:1024C600E05CF54F84819581A681B78150E008E0F4
:1024D60010E00E94812FF801E058F54F8483958320
:1024E600A683B783433080F080E090E0A0E0B0E0C0
:1024F60050E008E010E00E94812FF801E05CF54F03
:1025060084839583A683B7834395B9CFEE2400E0F1
:1025160000933E0A20E0283028F5422F50E008E0DC
:1025260010E00E94812FF801E05CF54F4081518157
:1025360062817381452B462B472B41F0FE01339672
:10254600FF24EE0DFF1D2083E3940AC0422F01E015
:1025560010E00E94892F10913E0A102B10933E0A1C
:102566002395D9CF04E0E01608F493C367EA78E12F
:1025760043E050E028E030E08E01025E1F4F0E94EB
:102586005331882499248E2D90E001978816990658
:102596000CF0F9C0FE0133969924E80DF91D01816E
:1025A600102F110F110B000F111F40E050E0400FCC
:1025B600511F0E94582F9801FE0133969924E80D69
:1025C600F91D0081102F110F110B000F111F40E094
:1025D60050E0400F511F0E94582F201B310BA901BC
:1025E60060E070E008E813E120E030E00E94A32FED
:1025F60028013901FE0133969924E80DF91D418120
:10260600542F550F550B08E010E00E94812FF8015A
:10261600E05CF54F80819181A281B381FE01339602
:102626009924E80DF91D4081542F550F550B08E0EC
:1026360010E00E94812FF801E05CF54F00811181C6
:1026460022813381AC01BD01401B510B620B730B20
:10265600820193010E94C32FEDECFAE000831183FF
:1026660022833383EDECFAE00081118122813381EC
:10267600083E43E0140740E0240740E0340774F0C6
:10268600EDECFAE00081118122813381093B4BE0B8
:10269600140740E0240740E034070CF072C0EDEC6C
:1026A600FAE000811181228133810B5F1F4F2F4F8A
:1026B6003F4F4AE050E060E070E00E94E62FEDEC0C
:1026C600FAE000831183228333834AE050E060E01E
:1026D60070E0EDECFAE000811181228133810E94E5
:1026E600A32FEDECFAE0008311832283338340E0CD
:1026F600483008F046C0FE017E9650E003E010E048
:102706000E94812FE00FF11F00811181012BC1F082
:10271600FE017E9650E003E010E00E94812FE00F5C
:10272600F11F0081118120E030E0EDECFAE000803D
:102736001180228033800015110522053305F9F436
:10274600EDECFAE000811181228133819801FE01CE
:102756007E9650E003E010E00E94812FE00FF11F0B
:1027660020833183FE017E9650E003E010E00E9454
:10277600812FE00FF11F02810395028302C043956A
:10278600B7CF8394FFCEFF2400E010E020E030E0D6
:10279600EDECFAE0008311832283338340E0483076
:1027A60008F04BC0FE017E9650E003E010E00E9468
:1027B600812FE00FF11F00811181012BF1F1FE0144
:1027C6007E9650E003E010E00E94812FE00FF11F9B
:1027D60060817181FE017E9650E003E010E00E9468
:1027E600812FE00FF11F22803324EDECFAE0008107
:1027F60011812281338150E0739D200D311D629D30
:10280600000D111D251F351F729D100D211D351F31
:10281600369E100D211D351F0083118322833383BD
:10282600FE017E9650E003E010E00E94812FE00F4B
:10283600F11F0281F00E4395B2CF4F2D50E060E0BC
:1028460070E0EDECFAE000811181228133810E9473
:10285600E62FEDECFAE0008311832283338300E058
:102866000093260F00E0083040F42FEF10E0F80147
:10287600E25EF04F20830395F6CF80E090E0EE2DE8
:10288600F0E031978E179F070CF0C9C00091260F14
:10289600002309F0C4C0082F0395A02FEA2FF0E00B
:1028A60090E0E81BF90B35970CF0B7C0B0E0EE2DC1
:1028B600F0E03197AE17BF070CF0AFC00091260FBE
:1028C600002309F0AAC0FE013396B0E0EA0FFB1F11
:1028D6000081102F110F110B000F111F40E050E067
:1028E600400F511F0E94582FB801FE01339690E009
:1028F600E80FF91F0081102F110F110B000F111F88
:1029060040E050E0400F511F0E94582F601B710B92
:102916008B0120E030E048E853E160E070E00E947F
:10292600A32F48015901FE013396B0E0EA0FFB1FC1
:102936004081542F550F550B08E010E00E94812F5F
:10294600F801E05CF54F4080518062807380FE01A3
:10295600339690E0E80FF91F4081542F550F550B21
:1029660008E010E00E94812FF801E05CF54F00813D
:10297600118122813381A201B301401B510B620BED
:10298600730B840195010E94C32F0E8B1F8B288F1A
:10299600398F0E891F89288D398D9801A901EDEC93
:1029A600FAE000811181228133819A010E94D805C3
:1029B60009831A8329813A8140E150E00E94582F09
:1029C6002017310740F5FE01339690E0E80FF91F16
:1029D60020810091260F10E0F801E25EF04F20837F
:1029E6000091260F03950093260FFE013396B0E063
:1029F600EA0FFB1F20810091260F10E0F801E25E2E
:102A0600F04F20830091260F03950093260F0A2F7F
:102A16000395088302C0A39541CF83952FCF0881E4
:102A2600802E8E1408F013C10091260F10E0F801D5
:102A3600E35EF04F0081102F110F110B000F111FD5
:102A460040E050E0400F511F0E94582F980100911E
:102A5600260F10E0F801E45EF04F0081102F110FF1
:102A6600110B000F111F40E050E0400F511F0E9454
:102A7600582F201B310BA90160E070E008E813E134
:102A860020E030E00E94A32F280139010091260F93
:102A960010E0F801E35EF04F4081542F550F550BBF
:102AA60008E010E00E94812FF801E05CF54F80817C
:102AB6009181A281B3810091260F10E0F801E45EB6
:102AC600F04F4081542F550F550B08E010E00E943F
:102AD600812FF801E05CF54F00811181228133815D
:102AE600AC01BD01401B510B620B730B82019301BC
:102AF6000E94C32F0E8B1F8B288F398FFE013396B2
:102B06009924E80DF91D0081102F110F110B000FEC
:102B1600111F40E050E0400F511F0E94582F9801AE
:102B2600FE0133969924E80DF91D31970081102F87
:102B3600110F110B000F111F40E050E0400F511F05
:102B46000E94582F201B310BA90160E070E008E8B5
:102B560013E120E030E00E94A32F28013901FE0195
:102B660033969924E80DF91D4081542F550F550BC6
:102B760008E010E00E94812FF801E05CF54F8081AB
:102B86009181A281B381FE0133969924E80DF91D46
:102B960031974081542F550F550B08E010E00E94E5
:102BA600812FF801E05CF54F00811181228133818C
:102BB600AC01BD01401B510B620B730B82019301EB
:102BC6000E94C32F0A8F1B8F2C8F3D8F0A8D1B8D62
:102BD6002C8D3D8D98014E895F89688D798D8A018E
:102BE6000E94D80509831A830A8D1B8D2C8D3D8D75
:102BF6009801EDECFAE040815181628173818A018E
:102C06000E94D805680129813A8140E150E00E947E
:102C1600582F20173107C8F440E150E00E94582F82
:102C2600C016D10690F4FE0133969924E80DF91DDD
:102C360020810091260F10E0F801E25EF04F20831C
:102C46000091260F03950093260F8394EACECC2499
:102C5600DD2420E02830E0F4F601E25EF04F00814A
:102C6600102F110F110B30E00217130729F401E0A2
:102C7600C00E00E0D01E0AC0422F01E010E00E9404
:102C8600892F10913E0A102B10933E0A2395E2CF0E
:102C9600F3940091260F033090F482D402E000935F
:102CA600CA0A0AE010E020E030E0E9E2FAE0008338
:102CB60011832283338301E000930A0A3DC200E0B8
:102CC60000931D0F40911E0F542F550F550B08E012
:102CD60010E00E94812FF801E05CF54F8481958118
:102CE600A681B7810091260F10E0F801E35EF04F50
:102CF6004081542F550F550B08E010E00E94812F9C
:102D0600F801E05CF54F0081118122813381801743
:102D16009107A207B30748F02091260F1091260FBE
:102D26001A9500E00E94100B7BC080E090E0E091D5
:102D3600260FF0E031978E179F070CF071C00091B7
:102D46001D0F043608F06CC0082F0395A02F0091C4
:102D5600260FA01708F062C000911D0F043608F078
:102D66005DC0B0E0FD01E25EF04F4081542F550F8B
:102D7600550B08E010E00E94812FF801E05CF54F4A
:102D8600408051806280738090E0FC01E25EF04FEB
:102D96004081542F550F550B08E010E00E94812FFB
:102DA600F801E05CF54F04811581268137814016D4
:102DB60051066206730640F4B0E0E091260FF0E09B
:102DC6003197AE17BF0744F12091260F1A2F082F0F
:102DD6000E94210C002311F52091260F1A2F082F8F
:102DE6000E94570D0023D1F42091260F1A2F082F89
:102DF6000E948A0E002391F42091260F1A2F082F85
:102E06000E94C00F002351F42091260F1A2F082F7D
:102E16000E94F410002311F4A39599CF839586CFD1
:102E260031E0332309F45FC030E021E000911D0F4B
:102E36002017B8F7422F50E00BE010E00E94812FD8
:102E4600F801EF52F54F66817781422F50E00BE093
:102E560010E00E94812FF801E453F54F00811181A3
:102E660060177107F0F5BE01655F7F4FE6ECFAE08B
:102E7600422F50E00BE010E00E94812FE00FF11F7F
:102E86008B014BE050E00E94563066EC7AE0422F10
:102E960050E00BE010E00E94812F600F711F422F5F
:102EA60050E00BE010E00E94812FE1EDFAE0E00F28
:102EB600F11F8B014BE050E00E945630422F50E04C
:102EC6000BE010E00E94812F61ED7AE0600F711F28
:102ED600FE013B968B014BE050E00E94563031E0FC
:102EE600A0CF2395A3CF31E0332309F4D2C030E03D
:102EF60021E000911D0F2017B8F7422F50E00BE09C
:102F060010E00E94812FF801EF52F54F86819781DC
:102F1600C297422F50E00BE010E00E94812FF8018B
:102F2600E453F54F008111818017910708F0AFC077
:102F3600422F50E00BE010E00E94812FF801EF5283
:102F4600F54F058110E0F801E25EF04F0081102F89
:102F5600110F110B000F111F40E050E0400F511FE1
:102F66000E94582FB801422F50E00BE010E00E945B
:102F7600812FF801EF52F54F048110E0F801E25E6F
:102F8600F04F0081102F110F110B000F111F40E0A1
:102F960050E0400F511F0E94582F601B710B422FAB
:102FA60050E00BE010E00E94812FF801E553F54F49
:102FB600008110E0F801E25EF04F0081102F110F42
:102FC600110B000F111F40E050E0400F511F0E94EF
:102FD600582F1801422F50E00BE010E00E94812F7D
:102FE600F801E653F54F008110E0F801E25EF04F7C
:102FF6000081102F110F110B000F111F40E050E040
:10300600400F511F0E94582F201A310A621573056E
:10301600F0F5BE01655F7F4FE6ECFAE0422F50E027
:103026000BE010E00E94812FE00FF11F8B014BE0B7
:1030360050E00E94563066EC7AE0422F50E00BE0FA
:1030460010E00E94812F600F711F422F50E00BE0AD
:1030560010E00E94812FE1EDFAE0E00FF11F8B01F5
:103066004BE050E00E945630422F50E00BE010E05B
:103076000E94812F61ED7AE0600F711FFE013B9681
:103086008B014BE050E00E94563031E02DCF239566
:1030960030CF9E01255F3F4F61ED7AE08901FB014C
:1030A6004BE050E00E9456300D8510E0F801E25EDC
:1030B600F04F0081005D009300090E8510E0F801D5
:1030C600E25EF04F0081005D009301090BE2009380
:1030D60002090B85043049F00B85053031F00B856C
:1030E600083019F00B850A3019F40DE20093020935
:1030F6000F8510E0F801E25EF04F0081005D00935D
:103106000309088910E0F801E25EF04F0081005DD6
:10311600009304090091D90A1091DA0A20E030E000
:10312600E9E2FAE0008311832283338301E000930E
:103136000A0A00E00093CA0A10D001E000930A0AC6
:10314600E696E0E10C947E3020E030E0F801208342
:10315600318320E0F801228308950E947430EF97AE
:10316600EF97289706E0802E08E813E10A831B8371
:1031760006E6702E80E006EEFE01B09690E0E80FBF
:10318600F91F008383950DE0FE01B09690E0E80FED
:10319600F91F00838395682E00E0FE01B09690E04B
:1031A600E80FF91F008383950AEAFE01B09690E0C6
:1031B600E80FF91F0083839505E5FE01B09690E0C0
:1031C600E80FF91F0083839500913E0AFE01B09631
:1031D60090E0E80FF91F00838395082F0A5FA02F60
:1031E600E9E2FAE00081118122813381280190E031
:1031F600963088F5933081F44EE28E01005E1F4FC3
:10320600EA2FF0E0292F30E0E21BF30B31970E0F87
:103216001F1FF80140831CC04AE050E082010E9453
:103226008F2FB42F4AE050E082010E948F2F280191
:103236004B2F405D8E01005E1F4FEA2FF0E0292FD5
:1032460030E0E21BF30B31970E0F1F1FF80140838E
:1032560083959395CDCF0091D30A10E0F801E25EF5
:10326600F04F0081FE01B09690E0E80FF91F008351
:1032760083950091D40A10E0F801E25EF04F0081D8
:10328600FE01B09690E0E80FF91F00838395009148
:10329600D10AFE01B09690E0E80FF91F00838395EE
:1032A6000091D50A10E0F801E25EF04F0081FE01C0
:1032B600B09690E0E80FF91F008383950091D60A37
:1032C60010E0F801E25EF04F0081FE01B09690E05A
:1032D600E80FF91F0083839500E0023070F410E0D8
:1032E600F801EF52F54F1681FE01B09690E0E80F17
:1032F600F91F108383950395F0CF20E02830F8F46A
:10330600022F10E0000F111F40E050E0400F511F48
:103316000E94582F0883198300E0023070F4FE01E2
:1033260010E0E00FF11F1081FE01B09690E0E80F6B
:10333600F91F108383950395F0CF2395DFCF20E007
:10334600223040F540E0483018F560E06430F0F493
:1033560050E008E010E00E94812FE0E8FAE0E00F7C
:10336600F11F022F10E0000F111F000F111FE00FB9
:10337600F11F70E0E60FF71F0081FE01B09690E0A6
:10338600E80FF91F008383956395E0CF4395DBCF64
:103396002395D6CF00E0023078F4FE01329610E095
:1033A600E00FF11F1081FE01B09690E0E80FF91FC3
:1033B600108383950395EFCF282F2395FE01B096B2
:1033C600062D10E0E00FF11F2083282F30E021505A
:1033D60030408E01005E1F4F0E946803FE01B096CA
:1033E60090E0E80FF91F00838395863671F4A0E01C
:1033F600A81750F4FE01B096B0E0EA0FFB1F00815B
:103406000E94BE2EA395F4CF84C0BE01645F7F4F99
:10341600EAEFF4E630E08B0144E150E00E946130CF
:1034260094E1A0E0A91750F4FE013C96B0E0EA0F43
:10343600FB1F00810E94BE2EA395F4CF8E010C5F68
:103446001F4FD80140E1082F0E94732FFD01008312
:10345600FD0100810A3028F0FD010081095C00832E
:1034660004C0FD010081005D0083119640E1082F34
:103476000E94732FFD014083FD0100810A3028F070
:10348600FD010081095C008304C0FD010081005D2F
:103496000083119601E2FD01008311960DE3FD0103
:1034A6000083119606E0FD010083FD0100810A30CC
:1034B60028F0FD010081095C008304C0FD01008144
:1034C600005D0083119606E0FD010083FD01008189
:1034D6000A3028F0FD010081095C008304C0FD016B
:1034E6000081005D008311960DE0FD0100831196B9
:1034F6000AE0FD01008398E04424491650F4FE01D9
:1035060034965524E40DF51D00810E94BE2E439489
:10351600F4CFEF96EF962896E9E00C948530E9E231
:10352600FAE000811181228133810E94CF0308EAEB
:1035360011E60093CB0A1093CC0A01E00093CA0A65
:1035460008950091CB0A1091CC0A012B49F0EBECBF
:10355600FAE0008111810150104000831183089523
:1035660000E010E00E94CF0302E00093CA0A08952B
:103576009A938A9391E080E0883070F4082F10E0E7
:10358600000F111FF801E35DF54F008111810E94C4
:10359600152E90238395F0CF092F8991999108953F
:1035A600159A1D980895159A1D9A08950CE010E035
:1035B6000E94953098018901232B49F050E069E477
:1035C60074E04CE330E026E60E94BA2C02C000E02C
:1035D60010E000932D0A10932E0A0CE010E00E94D2
:1035E600953098018901232B49F051E069E474E094
:1035F6004CE331E026E60E94BA2C02C000E010E05F
:1036060000932F0A1093300A0CE010E00E949530C8
:1036160098018901232B49F052E069E474E04CE3F8
:1036260032E026E60E94BA2C02C000E010E00093C9
:10363600310A1093320A0CE010E00E94953098018E
:103646008901232B49F053E069E474E04CE333E04D
:1036560026E60E94BA2C02C000E010E00093330A6E
:103666001093340A0CE010E00E949530980189010D
:10367600232B49F054E069E474E04CE334E026E699
:103686000E94BA2C02C000E010E00093350A1093A5
:10369600360A0CE010E00E94953098018901232B30
:1036A60049F055E069E474E04CE335E026E60E9413
:1036B600BA2C02C000E010E00093370A1093380AD3
:1036C6000CE010E00E94953098018901232B49F007
:1036D60056E069E474E04CE336E026E60E94BA2C34
:1036E60002C000E010E00093390A10933A0A0CE099
:1036F60010E00E94953098018901232B49F057E08C
:1037060069E474E04CE337E026E60E94BA2C02C076
:1037160000E010E000933B0A10933C0A00E000939F
:10372600CA0A0E94800300E010E00E9493030895F5
:103736008A930E94E70380E0883068F4082F10E03F
:10374600000F111FF801E35DF54F008111810E9402
:10375600B62D8395F1CF8991089505E310E00E9477
:1037660095309801012B39F089010CD00093270F71
:103776001093280F089500E010E00093270F109390
:10378600280F0895BA93AA93D8010DE010E00E947D
:10379600953098018901232B41F063E050E040E029
:1037A60030E027E60E94A42B02C000E010E09B96C2
:1037B6000D931C939C970DE010E00E949530080134
:1037C600012B49F062E050E040E031E027E680015D
:1037D6000E94A42B02C000E010E09D960D931C935E
:1037E6009E970DE010E00E9495300801012B49F0EC
:1037F60061E050E040E032E027E680010E94A42B21
:1038060002C000E010E09F960D931C93D0970DE048
:1038160010E00E9495300801012B49F060E050E06D
:1038260040E033E027E680010E94A42B02C000E0BE
:1038360010E0D1960D931C93D29700E00C9300E014
:1038460011960C93119700E093960C93939792968A
:103856000C9392978D01A991B99108950E947930A0
:10386600D8019B960D911C919C970E94AB2C802FA2
:103876009D960D911C919E970E94AB2C902F9F9622
:103886000D911C91D0970E94AB2C892B802BD19641
:103896000D911C91D2970E94AB2C802BD4968C93C1
:1038A600D497D4960C91D497D3961C91D39701179D
:1038B60091F00C91043118F40C9103950C930C9132
:1038C600043178F0D4960C91D497D3960C93D39771
:1038D60000E00C9306C00C91013018F00C910A958B
:1038E6000C93E4E00C948A309A938A93C8018C0175
:1038F600B5DF8C0103D0899199910895BA93AA9363
:10390600D801FD0103A910E0F801E454FF4F04912A
:10391600FD0102A7FD0101810023B1F1FD0103A90B
:103926000F3031F1FD0104A115A10C3D25E0120770
:1039360038F4FD0104A115A10F5F1F4F04A315A3C1
:10394600FD0104A115A10C3D25E0120780F1FD0142
:1039560006A1043628F4FD0106A1039506A327C097
:1039660000E0FD0106A3FD0122A58D0127D01FC0A1
:1039760000E010E0FD0104A315A300E0FD0106A38D
:1039860000E0FD01018313C0FD0103A90F3079F0AA
:1039960001E0FD010183FD0122A58D010FD000E0AC
:1039A60010E0FD0104A315A300E0FD0106A3A99103
:1039B600B9910895A8012F71022F08950E947930B8
:1039C600D801922F0FB7FD0107A3F894FD0123A19B
:1039D60023958D01EFDF802FFD0102A1801741F0B5
:1039E600082F10E0FD01E00FF11F9283FD0183A374
:1039F600FD0107A10FBFE4E00C948A300E947730E6
:103A06002801D90180E00FB7F20100A7F894F2016E
:103A160003A1F20112A1011781F081E0F20122A1B6
:103A260023958201C7DFF20102A3F20102A110E091
:103A3600F201E00FF11F02810C93F20100A50FBF06
:103A4600082FE6E00C948830F8011FB711A7F89408
:103A560013A122A1121738F410E222A1121B23A1EE
:103A6600120F012F04C013A122A1121B012F11A5B1
:103A76001FBF08950091270F1091280FE5DF0895C5
:103A86009A938A93C8019C010091270F1091280FE1
:103A9600B5DF8991999108950091270F1091280F0C
:103AA60023DF08959A938A93C8018C010FD08C0165
:103AB6001FD08C013BD08C0117D24CEC50E020E09B
:103AC6008C01EFD18C018991999108952FE02ABB41
:103AD6002FE02BBBD49ADC9AD59ADD9A4FEF59E6A4
:103AE60068E1415050406040E1F700C00000089591
:103AF60020E0F80123A7F80122A7F80100A711A7E3
:103B060020E0F80125A720E030E0F80120A331A34A
:103B160020E030E0F80122A333A320E0F80126A735
:103B260020E030E0F80126A337A308959A938A93FC
:103B3600C8010FEF13EF21E0015010402040E1F7DC
:103B460000C0000028E28C01CDD00FE31FE1015038
:103B56001040E9F700C0000028E28C01C3D00FE353
:103B66001FE101501040E9F700C000002CE08C0175
:103B7600B9D021E08C01B6D00FE31FE1015010400F
:103B8600E9F700C0000026E08C01ACD022E08C01F1
:103B9600A9D00FE31FE101501040E9F700C0000073
:103BA60020E88C019FD08991999108950E947930DF
:103BB600D801FD0106A117A10F5F1F4F06A317A38A
:103BC600FD0106A117A1003024E0120728F000E04D
:103BD60010E0FD0106A317A3FD0100A511A50F5FC7
:103BE6001F4F00A711A7FD0103A5039503A7FD011C
:103BF60003A5003110F100E0FD0103A7FD0102A5B8
:103C0600039502A7FD0102A5023051F400E0FD0173
:103C160002A7FD01A0A7B1A720E88D0163D009C0C6
:103C26008D01005F1F4FFD0100A711A720EC8D013C
:103C360059D008EC00000A95E9F7FD0102A500231A
:103C4600C9F4FD0120A131A1FD0143A501E010E069
:103C56000E94892F20233123232B49F0FD0106A141
:103C660017A1013022E0120710F001E001C000E0C8
:103C7600802F18C0FD0122A133A1FD0143A501E05B
:103C860010E00E94892F20233123232B49F0FD01C8
:103C960006A117A1013022E0120710F001E001C0D1
:103CA60000E0802FFD0100A511A5F8010081FD01AE
:103CB60004A7FD0104A5013848F0FD0104A510E0A4
:103CC600F801EC5AFF4F0491FD0104A7882319F06F
:103CD60000E2FD0104A7FD0124A58D011FD0E4E04B
:103CE6000C948A300E947A30C801A22F0FB7009335
:103CF600290FF89408EC00000A95E9F7DD9B05C04A
:103D0600DD9808EC00000A95E9F72A2F8C0122D0ED
:103D16000091290F0FBFE3E00C948B300E947A309C
:103D2600C801A22F0FB700932A0FF89408EC0000E1
:103D36000A95E9F7DD9905C0DD9A08EC00000A95B9
:103D4600E9F72A2F8C0106D000912A0F0FBFE3E076
:103D56000C948B304BB3407F322F32953F70432B00
:103D66004BBBDC9A000000000000DC98000000005D
:103D760000004BB3407F322F3F70432B4BBBDC9A86
:103D8600000000000000DC9808950E947830C80109
:103D96000FB7402EF89420E48C01A4DF0FE91FE052
:103DA60001501040E9F700C00000A0E0A03160F427
:103DB600B0E0FD01EC5AFE4F24918C01AFDF00E527
:103DC6000A95F1F7A395F2CF20E88C018BDF0FE976
:103DD6001FE001501040E9F700C000004FBEE5E0CB
:103DE6000C948930203208F020E0422F50E0F80190
:103DF600E40FF51F30830895BA931A2EF801622F47
:103E0600532F603208F060E070E0DF01A60FB71FA5
:103E16005C93603130F48F01005E1F4F9801062ECF
:103E260007C08F010E5D1F4F9801062F0051002E0F
:103E360006A5013080F0402D01E010E00E94892F98
:103E4600D9012D903C90202A312A3C922E9206A52B
:103E56000A9506A70EC0402D01E010E00E94892FAA
:103E660000951095D9012D903C90202231223C924C
:103E76002E92A12DB9910895FA013081632F662300
:103E860079F0203208F020E030E0F801E20FF31F6D
:103E9600608323954F5F5F4FFA013081632FEFCF29
:103EA6000895FA013491632F662379F0203208F0E1
:103EB60020E030E0F801E20FF31F608323954F5FA7
:103EC6005F4FFA013491632FEFCF089520E030E081
:103ED600F80120A331A320E030E0F80122A333A3A8
:103EE60020E0F80126A708959A938A93C80100E076
:103EF600003240F420E210E0FC01E00FF11F2083C5
:103F06000395F6CF8C01E2DF8991999108950E947D
:103F16007530D801422E532E942F042D050D0A9587
:103F2600802F66246514E8F44AE0092F0E94732F57
:103F3600742E88230AF48FE180320CF080E0272D5E
:103F4600205D082F102F110F110BFD01E00FF11F3F
:103F560020838A954AE0092F0E94732F902F63943D
:103F6600E1CFE8E00C9486300E9474302801B22F2D
:103F7600632ECA010B2F060D0A95A02F77247614FF
:103F8600F8F44AE050E08C010E948F2F842EAA2379
:103F96000AF4AFE1A0320CF0A0E0282D205D0A2F34
:103FA600102F110F110BF201E00FF11F2083AA95BC
:103FB6004AE050E08C010E948F2FC8017394DFCF36
:103FC600E9E00C9485300E947530D801422E532EBC
:103FD600942F042D050D0A95802F7724751468F506
:103FE6004AE0092F0E94732F642E88230AF48FE17A
:103FF60080320CF080E0772019F001E0601660F066
:10400600262D205D082F102F110F110BFD01E00F3B
:10401600F11F20838A950AC020E2082F102F110F66
:10402600110BFD01E00FF11F20838A954AE0092F4D
:104036000E94732F902F7394D1CFE8E00C948630B2
:104046000E947430D801522E832ECA01052D080D08
:104056000A95402E6624681488F54AE050E08C01E3
:104066000E948F2F742E442012F40FE1402E00E29E
:1040760040160CF04424662019F0082F092B61F035
:10408600272D205D042D102F110F110BFD01E00FC0
:10409600F11F20834A940AC020E2042D102F110F2D
:1040A600110BFD01E00FF11F20834A944AE050E016
:1040B6008C010E948F2FC8016394CDCFE9E00C9448
:1040C60085300E94960201E010E020E030E0E0E456
:1040D600FAE0008311832283338308EF1EE420E095
:1040E60030E0E0E4FAE004831583268337830EECA0
:1040F6001CE020E030E0E0E4FAE000871187228748
:1041060033870EE31BE520E030E0E0E4FAE00487C5
:104116001587268737870AED18E120E030E0E0E4CE
:10412600FAE0008B118B228B338B0BE017E620E035
:1041360030E0E0E4FAE0048B158B268B378B03ED39
:1041460014E220E030E0E0E4FAE0008F118F228FE5
:10415600338F03E113E720E030E0E0E4FAE0048F78
:10416600158F268F378F0EE210E320E030E0E0E473
:10417600FAE000A311A322A333A302E611E820E08C
:1041860030E0E0E4FAE004A315A326A337A30EE586
:104196001AE320E030E0E0E4FAE000A711A722A746
:1041A60033A70BEF14E920E030E0E0E4FAE004A7DF
:1041B60015A726A737A70CE41EE620E030E0E0E4CA
:1041C600FAE000AB11AB22AB33AB04E711EF20E012
:1041D60030E0E0E4FAE004AB15AB26AB37AB08E120
:1041E60014E720E030E0E0E4FAE000AF11AF22AFE0
:1041F60033AF00E010E020E030E0ECE7FAE00083C7
:104206001183228333830E9432120FEF13ED20E3D2
:10421600015010402040E1F700C0000078940FEFF5
:1042260013ED20E3015010402040E1F700C00000EC
:1042360000911D0A10911E0A0E94C81E0E9480034A
:104246000E942F210E94E02E0E94E82E0E94140454
:104256000E94092BF9CF0895219701E000932B0FB7
:104266008E010E94360300E010E020E030E0E8E135
:10427600FAE00083118322833383E8E1FAE00081C8
:10428600118122813381EEE2FFE0008311832283D4
:1042960033838E010E943B0300911D0A10911E0A72
:1042A6000E94771F4BE352E020E000911D0A109117
:1042B6001E0A0E94541F46E452E020E100911D0AA6
:1042C60010911E0A0E94541F219608958A9380E039
:1042D600883008F041C0082F10E0000F111FF801C8
:1042E600E35DF54F008111810E94152E002351F0E8
:1042F60030E2282F285E00911D0A10911E0A0E94A6
:10430600FF1E10C001E0E0911D0AF0911E0A06A7EB
:10431600382F3F5C282F285E00911D0A10911E0A37
:104326000E94FF1E082F10E0000F111FF801E35D29
:10433600F54F008111810E94152E002311F431E002
:1043460001C030E0282F285F00911D0A10911E0A37
:104356000E94F51E8395BCCF0E943A04002369F0A3
:104366000E943A04013049F00E943A04023029F0D2
:104376000E943A04033009F002D0899108952197EA
:104386008E010E94360300E010E020E030E0E8E114
:10439600FAE00083118322833383E8E1FAE00081A7
:1043A600118122813381EEE2FFE0008311832283B3
:1043B60033838E010E943B0300911D0A10911E0A51
:1043C6000E94771F02E000932B0F40E059E020E0A7
:1043D60000911D0A10911E0A0E943F1F01E00093E2
:1043E6001C0A02D0219608950E947A3090E080E05F
:1043F60000911C0A002311F091E081E000910A0A65
:10440600002329F000E000930A0A91E081E00E946F
:10441600F303002319F00E94E70381E0992309F4CE
:1044260081C00091260A1091270A012BB9F4009148
:104436001C0A002399F44AE552E020E000911D0A87
:1044460010911E0A0E94541F43E652E020E100919B
:104456001D0A10911E0A0E94541F3BC040E059E0FD
:1044660020E000911D0A10911E0A0E943F1F41E59F
:1044760052E020E100911D0A10911E0A0E94541F6D
:1044860048EE53E00091260A1091270A0E948F2FCA
:10449600A80132E022E100911D0A10911E0A0E9435
:1044A60023203EE224E100911D0A10911E0A0E947B
:1044B600F51E48EE53E00091260A1091270A0E9445
:1044C6008F2F33E025E100911D0A10911E0A0E94EC
:1044D600B71FA0E0A83030F52091280A4A2F01E046
:1044E60010E00E94892F2023222389F001E0E09129
:1044F6001D0AF0911E0A06A73A2F3F5C2A2F285E56
:1045060000911D0A10911E0A0E94FF1E09C030E28A
:104516002A2F285E00911D0A10911E0A0E94FF1E76
:10452600A395D8CF8823E9F0A0E0A830D0F40A2FCD
:1045360010E0000F111FF801E35DF54F00811181B6
:104546000E94152E002311F431E001C030E02A2F1D
:10455600285F00911D0A10911E0A0E94F51EA39560
:10456600E4CF0E943A04053091F440E059E020E09F
:1045760000911D0A10911E0A0E943F1F4CE652E050
:1045860020E100911D0A10911E0A0E94541F00E0AE
:1045960000931C0AE3E00C948B3021978E010E9455
:1045A600360300E315E720E030E0E8E1FAE00083B7
:1045B600118322833383E8E1FAE0008111812281AD
:1045C6003381EEE2FFE000831183228333838E0181
:1045D6000E943B0300912B0F00932C0F03E00093E6
:1045E6002B0F00E000933B0F00E0053040F420E085
:1045F60010E0F801EA5CF04F20830395F6CF0091B6
:104606001D0A10911E0A0E94771F4DE752E020E016
:1046160000911D0A10911E0A0E94541F02D0219675
:1046260008958A9380E080E000913B0F801788F41C
:1046360000E0E0911D0AF0911E0A06A73AE2282F33
:10464600205F00911D0A10911E0A0E94FF1E83958D
:10465600EBCF00913B0F0530B8F401E0E0911D0A65
:10466600F0911E0A06A700913B0F10E0F801EA5CE4
:10467600F04F3081305D20913B0F205F00911D0A85
:1046860010911E0A0E94FF1E8991089500913B0F0A
:1046960010E0F801EA5CF04F0081002349F409E0DC
:1046A60020913B0F30E0F901EA5CF04F008309C02E
:1046B60000913B0F10E0F801EA5CF04F00810A958B
:1046C6000083AFDF089500913B0F10E0F801EA5C2C
:1046D600F04F0081093048F000E020913B0F30E0B8
:1046E600F901EA5CF04F008309C000913B0F10E02E
:1046F600F801EA5CF04F00810395008392DF08958C
:104706009A938A9300913B0F039500933B0F009178
:104716003B0F053080F400913B0F10E0F801EB5C95
:10472600F04F208100913B0F10E0F801EA5CF04F5A
:10473600208377DF2AC081E091E020E02530F0F485
:1047460030E042E150E0420F531F0E94552F30E007
:10475600F901EA5CF04F1081011709F080E030E0C2
:10476600F901EA5CFD4F049130E0F901EA5CF04F93
:104776001081011709F090E02395E0CF082F092B4F
:10478600002311F078D001C019D08991999108952C
:1047960000913B0F013008F001D0089540912C0F95
:1047A60050E00EE010E00E94812FF801E059FE4F24
:1047B600059114913197F80109950895219704E020
:1047C60000932B0F00911D0A10911E0A0E94771F5D
:1047D6004DE852E020E000911D0A10911E0A0E9449
:1047E600541F8E010E94360300E010E020E030E006
:1047F600E8E1FAE00083118322833383E8E1FAE0FB
:104806000081118122813381EEE2FFE00083118372
:104816002283338300E315E700933C0F10933D0F8B
:104826008E010E943B03219608959A938A932197BD
:104836008E010E94360300913C0F10913D0FC80176
:104846008E010E943B03823000E0900778F048EE2C
:1048560053E08C010E948F2FA80132E020E10091E5
:104866001D0A10911E0A0E94232001C097DF21967F
:10487600899199910895219705E000932B0F009156
:104886001D0A10911E0A0E94771F8E010E94360390
:1048960000E21FEB22E030E0E8E1FAE0008311835A
:1048A60022833383E8E1FAE000811181228133819A
:1048B600EEE2FFE000831183228333838E010E94A0
:1048C6003B034DE952E020E000911D0A10911E0ABB
:1048D6000E94541F00E000933E0F55D02196089584
:1048E6008A9322978E010F5F1F4F0E943603009115
:1048F600250A802F8E010F5F1F4F0E943B038823DE
:10490600F9F18E010E94360300E00093250A8E011C
:104916000E943B034091240A33E026E000911D0AE1
:1049260010911E0A0E94E61F34E629E000911D0A36
:1049360010911E0A0E94F51E4091230A32E02AE0D9
:1049460000911D0A10911E0A0E948A1F38E62CE06B
:1049560000911D0A10911E0A0E94F51E4091220A1E
:1049660032E02DE000911D0A10911E0A0E948A1F56
:104976003DE62FE000911D0A10911E0A0E94F51EC9
:1049860022968991089540913E0F50E001E110E092
:104996000E94812F43EA52E0400F511F20E100910F
:1049A6001D0A10911E0A0E94541F0895F7DE0895ED
:1049B60000913E0F013028F000913E0F0A950093BA
:1049C6003E0FE1DF089500913E0F0B3028F4009171
:1049D6003E0F039500933E0FD6DF089500913E0FDC
:1049E6000B3011F419D0089500913E0F083010F4E1
:1049F6002DD1089500913E0F083011F414D3089577
:104A060000913E0F093011F453D2089500913E0FE4
:104A16000A3009F40BD50895219706E000932B0F71
:104A26008E010E94360300E61AEE20E030E0E8E14F
:104A3600FAE00083118322833383E8E1FAE0008100
:104A4600118122813381EEE2FFE00083118322830C
:104A560033838E010E943B0300911D0A10911E0AAA
:104A66000E94771F4FE653E020E000911D0A109147
:104A76001E0A0E94541F00E0053040F420E010E0BA
:104A8600F801EA5CF04F20830395F6CF00E000932F
:104A96003B0F04D021960895EEDE08959A938A93EB
:104AA60080E000913B0F8017B0F400E0E0911D0A12
:104AB600F0911E0A06A790E0FC01EA5CF04F3081F7
:104AC600305D282F205F00911D0A10911E0A0E945A
:104AD600FF1E8395E6CF00913B0F0530B8F401E049
:104AE600E0911D0AF0911E0A06A700913B0F10E007
:104AF600F801EA5CF04F3081305D20913B0F205F7A
:104B060000911D0A10911E0A0E94FF1E899199911B
:104B1600089500913B0F10E0F801EA5CF04F008128
:104B2600002349F409E020913B0F30E0F901EA5CEB
:104B3600F04F008309C000913B0F10E0F801EA5CDA
:104B4600F04F00810A950083A9DF089500913B0F7D
:104B560010E0F801EA5CF04F0081093048F000E00F
:104B660020913B0F30E0F901EA5CF04F008309C069
:104B760000913B0F10E0F801EA5CF04F00810395CD
:104B860000838CDF089500913B0F0430A8F4009158
:104B96003B0F039500933B0F00913B0F10E0F8018C
:104BA600EB5CF04F208100913B0F10E0F801EA5CCE
:104BB600F04F208373DF089501D00895219707E011
:104BC60000932B0F8E010E94360300E61AEE20E0BA
:104BD60030E0E8E1FAE00083118322833383E8E1E1
:104BE600FAE00081118122813381EEE2FFE0008349
:104BF6001183228333838E010E943B0300911D0A99
:104C060010911E0A0E94771F4DE753E020E10091A4
:104C16001D0A10911E0A0E94541F219608952BDE2C
:104C2600089529DE089520E0253070F430E0F9017A
:104C3600EA5CF04F008130E042E150E0420F531F42
:104C46000E94662F2395F0CFA9DD0895219708E0ED
:104C560000932B0F00913E0F10E0000F111F40E054
:104C660050E0400F511F0E94582F0093410F1093A0
:104C7600420F04E00093430F00911D0A10911E0A93
:104C86000E94771F49E853E020E000911D0A109129
:104C96001E0A0E94541F30913E0F3F5C2DE000918A
:104CA6001D0A10911E0A0E94FF1E1ED08E010E9430
:104CB600360300EC14ED21E030E0E8E1FAE0008391
:104CC600118322833383E8E1FAE000811181228196
:104CD6003381EEE2FFE000831183228333838E016A
:104CE6000E943B03219608950E9478300091410F5F
:104CF6001091420FC801A0E0A53060F504E00A1B40
:104D0600402E4AE050E08C010E948F2FB42F009174
:104D1600430F0A1739F401E0E0911D0AF0911E0ACB
:104D260006A706C000E0E0911D0AF0911E0A06A73C
:104D36003B2F305D242D205F00911D0A10911E0A25
:104D46000E94FF1E4AE050E08C010E948F2FC8018E
:104D5600A395D2CFE5E00C9489308DDD08950E94AD
:104D66007930A1E0B0E020E00091430F201740F435
:104D76000AE010E0AD010E94812FD8012395F4CFFF
:104D8600AD010091410F1091420F0E948F2F4AE012
:104D960050E00E948F2F842F813040F0E1E4FFE045
:104DA600008111810A1B1B0B008311839DDFE4E048
:104DB6000C948A300E947930A1E0B0E020E00091A6
:104DC600430F201740F40AE010E0AD010E94812F46
:104DD600D8012395F4CFAD010091410F1091420FF8
:104DE6000E948F2F4AE050E00E948F2F842F893037
:104DF60040F4E1E4FFE0008111810A0F1B1F0083EC
:104E0600118372DFE4E00C948A300091430F013085
:104E160038F00091430F0A950093430F65DF08951C
:104E260001D00895219709E000932B0F00911D0AE8
:104E360010911E0A0E94771F47E953E020E1009176
:104E46001D0A10911E0A0E94541F8E010E943603ED
:104E560000E315E720E030E0E8E1FAE000831183A3
:104E660022833383E8E1FAE00081118122813381D4
:104E7600EEE2FFE000831183228333838E010E94DA
:104E86003B0321960895F7DC0895F5DC089500911B
:104E9600410F1091420F20913E0F30E0220F331F39
:104EA60040E050E0420F531F0E946A2FE4DC089551
:104EB60021970BE000932B0F08EE13E000933F0FB2
:104EC6001093400F00911D0A10911E0A0E94771F31
:104ED60043EA53E020E000911D0A10911E0A0E9449
:104EE600541F1ED08E010E94360300EC14ED21E003
:104EF60030E0E8E1FAE00083118322833383E8E1BE
:104F0600FAE00081118122813381EEE2FFE0008325
:104F16001183228333838E010E943B0321960895D9
:104F26009A938A9341EB53E020E100911D0A109178
:104F36001E0A0E94541F40913F0F5091400F35E0CA
:104F460020E100911D0A10911E0A0E942320009163
:104F56003F0F1091400F0056104FC80148EE53E026
:104F66008C010E948F2FA80132E028E100911D0AD2
:104F760010911E0A0E94232048EE53E08C010E94E5
:104F86008F2F33E02BE100911D0A10911E0A0E941B
:104F9600B71F00913F0F1091400F0E94CF038991D8
:104FA6009991089502D0EBD9089500E010E00E948F
:104FB600CF0308959A938A9348EE53E000913F0FEA
:104FC6001091400F0E948F2FC801082F092B09F05E
:104FD600019708EE13E0AC010E94812F00933F0F6A
:104FE6001093400F9DDF8991999108959A938A9322
:104FF60048EE53E000913F0F1091400F0E948F2F13
:10500600C801803100E0900708F4019608EE13E02D
:10501600AC010E94812F00933F0F1093400F80DF59
:1050260089919991089521970AE000932B0F8E019B
:105036000E94360300E010E020E030E0E8E1FAE00C
:105046000083118322833383E8E1FAE00081118132
:1050560022813381EEE2FFE00083118322833383D2
:105066008E010E943B0300911D0A10911E0A0E94A8
:10507600771F01E000931C0A02D0219608950E9432
:105086006D30279700E00A8300E0098300911C0A2F
:10509600002321F001E00A8301E0098300910A0A56
:1050A600002339F000E000930A0A01E00A8301E0D8
:1050B60009830E94F303002321F001E009830E9483
:1050C600E7030A81002379F148EE53E00091260AAE
:1050D6001091270A0E948F2FA80131E020E000914D
:1050E6001D0A10911E0A0E9423203EE221E0009133
:1050F6001D0A10911E0A0E94F51E48EE53E000910B
:10510600260A1091270A0E948F2F8A014AE050E052
:105116000E948F2FA80132E022E000911D0A109113
:105126001E0A0E94B71F0981002309F47BC101E012
:1051360008830881602E06E0601608F0CCC0462D74
:1051460050E008E010E00E94812FF801E05CF54F86
:10515600C480D580E680F780462D50E008E010E058
:105166000E94812FF801E45CF54F008111812281B4
:105176003381C01AD10AE20AF30A460157010881AF
:10518600162D101B03E0109F00E1000E402C01E0DD
:10519600801600E0900600E0A00600E0B006DCF411
:1051A60030E2242D00911D0A10911E0A0E94F51E60
:1051B6003DE2242D239500911D0A10911E0A0E949E
:1051C600F51E3DE2242D2E5F00911D0A10911E0A48
:1051D6000E94F51E7EC0062D10E0000F111F40E054
:1051E60050E0400F511F0E94582FB8014EEF5FEF5D
:1051F600062D10E0000F111F400F511F0E94582F5F
:10520600601B710B8B0120E030E00B831C832D8328
:105216003E8348E853E160E070E00B811C812D81FC
:105226003E810E94A32F680179014AE050E060E0C8
:1052360070E0840195010E94A32FA801B90186019F
:1052460097010E94C32FC801D9018B5F9F4FAF4FB3
:10525600BF4F8C019D014AE050E060E070E00E9483
:10526600C32FC801D90130E2242D00911D0A1091E7
:105276001E0A0E94F51E4AE050E060E070E08C01D4
:105286009D010E94C32F080119014AE050E060E029
:1052960070E0800191010E94C32F342F305D242DD0
:1052A600239500911D0A10911E0A0E94F51E4AE0E0
:1052B60050E060E070E08C019D010E94C32F342F06
:1052C600305D242D2E5F00911D0A10911E0A0E944A
:1052D600F51E639430CF05E008830881C02E08E0F0
:1052E600C01608F09FC04C2D50E008E010E00E9468
:1052F600812FF801E05CF54F408051806280738019
:105306004C2D50E008E010E00E94812FF801E85C87
:10531600F54F0081118122813381401A510A620AB8
:10532600730A4201530108811C2D101B03E0109FD4
:1053360006E0000ED02C01E0801600E0900600E0AA
:10534600A00600E0B006DCF430E22D2D00911D0A27
:1053560010911E0A0E94F51E3DE22D2D2395009107
:105366001D0A10911E0A0E94F51E3DE22D2D2E5F8C
:1053760000911D0A10911E0A0E94F51E51C00C2DA7
:1053860010E0000F111F40E050E0400F511F0E9437
:10539600582FB8014EEF5FEF0C2D10E0000F111FD4
:1053A600400F511F0E94582F601B710B8B0120E08C
:1053B60030E00B831C832D833E8348E853E160E095
:1053C60070E00B811C812D813E810E94A32F280154
:1053D60039014AE050E060E070E0840195010E94E6
:1053E600A32FA801B901820193010E94C32FC8010E
:1053F600D9018B5F9F4FAF4FBF4F8C019D014AE094
:1054060050E060E070E00E94C32FC801D901AC01F2
:1054160033E02D2D00911D0A10911E0A0E94E61FF1
:10542600C3945DCF2796E0E10C947E3021970CE083
:1054360000932B0F8E010E94360300E61AEE20E041
:1054460030E0E8E1FAE00083118322833383E8E168
:10545600FAE00081118122813381EEE2FFE00083D0
:105466001183228333838E010E943B0300911D0A20
:1054760010911E0A0E94771F42EC53E020E0009133
:105486001D0A10911E0A0E94541F4CEC53E020E1A5
:1054960000911D0A10911E0A0E94541F40E150E01F
:1054A6000E94582F0093440F1093450F02D0219667
:1054B60008954AE050E00091440F1091450F0E9474
:1054C6008F2FA80133E026E100911D0A10911E0AD4
:1054D6000E9423204AE050E00091440F1091450FAE
:1054E6000E948F2F342F305D2AE100911D0A109102
:1054F6001E0A0E94F51E0895E091440FF091450F93
:105506007A9748F0E4E4FFE00081118101501040F1
:1055160000831183CEDF08950091440F1091450F4B
:10552600003A2FE0120748F4E4E4FFE0008111811D
:105536000F5F1F4F00831183BCDF089521970DE095
:1055460000932B0F00911D0A10911E0A0E94771FCF
:1055560049ED53E020E100911D0A10911E0A0E94B8
:10556600541F8E010E94360300E315E720E030E069
:10557600E8E1FAE00083118322833383E8E1FAE06D
:105586000081118122813381EEE2FFE000831183E5
:10559600228333838E010E943B0321960895009156
:1055A600440F1091450F40E150E00E946A2FF6D853
:1055B600089561D90895EEE2FFE00081118122810C
:1055C6003381023040E0140740E0240740E034070E
:1055D60070F0EEE2FFE000811181228133810150FB
:1055E6001040204030400083118322833383E091B2
:1055F6003C0FF0913D0F329740F0ECE3FFE0008165
:1056060011810150104000831183089523970E9451
:105616003D1D013008F440C00DE21FE00E94431D0D
:105626008E010E5F1F4F0E943603EEE2FFE00081FF
:10563600118122813381023040E0140740E02407C3
:1056460040E0340760F0E8E1FAE000811181228150
:105656003381EEE2FFE000831183228333838E01E0
:105666000E5F1F4F0E943B0340912B0F50E00EE050
:1056760010E00E94812FE4E6F1E0E00FF11F0091B7
:105686002D0F10E0000F111FE00FF11F059114916F
:105696003197F801099553C08E010F5F1F4F0E9485
:1056A6003603EEE2FFE00081118122813381E2E3DD
:1056B600FFE000831183228333838E010F5F1F4F28
:1056C6000E943B03E2E3FFE00081118122813381E6
:1056D600013040E0140740E0240740E0340701F5BC
:1056E6008E010E94360300E010E020E030E0EEE29A
:1056F600FFE000831183228333838E010E943B03E4
:1057060040912B0F50E00EE010E00E94812FF8012F
:10571600E259FE4F059114913197F80109950FC092
:1057260040912B0F50E00EE010E00E94812FF8010F
:10573600EC59FE4F059114913197F801099523967E
:1057460008950E947630C801622E532E442EB52F3E
:10575600A62F6A2F5B2F442D352D262D8C0104D0C4
:105766008C01E7E00C9487300E947630D801622ED7
:10577600832F542E452E962F062DE6EEF0E0FBBF26
:10578600F3E00C94113009E3FD0105830AE3FD0102
:1057960004830BE3FD0106838CC009E3FD01058349
:1057A6000AE3FD0104830BE3FD01068382C006E3E1
:1057B600FD01058307E3FD01048308E3FD0106837C
:1057C60078C006E3FD01058307E3FD01048308E3D2
:1057D600FD0106836EC003E3FD01058304E3FD01BD
:1057E600048305E3FD01068364C003E3FD0105832D
:1057F60004E3FD01048305E3FD0106835AC000E3CB
:10580600FD01058301E3FD01048302E3FD01068337
:1058160050C000E3FD01058301E3FD01048302E3BB
:10582600FD01068346C001E2FD01058302E2FD019A
:10583600048303E2FD0106833CC001E2FD0105830A
:1058460002E2FD01048303E2FD01068332C000E2A9
:10585600FD01058301E6FD01048302E6FD010683E1
:1058660028C000E2FD01058301E6FD01048302E68E
:10587600FD0106831EC003E6FD01058304E6FD0166
:10588600048305E6FD01068314C003E6FD010583D6
:1058960004E6FD01048305E6FD0106830AC003E371
:1058A600FD01058304E3FD01048305E3FD01068391
:1058B60083E0883040F4482F01E010E00E94892FF1
:1058C600FD01078303C001E0FD010783552051F068
:1058D600FD011781FD010481E02FF0E00081012B1D
:1058E60000830AC0FD0117811095FD010481E02F98
:1058F600F0E0008101230083FD011781FD0106818F
:10590600E02FF0E00081012B008300E010E0FD01B4
:10591600018712870D931C93119700E0FD01028306
:10592600FD0143828D010D5F1F4FFD010387148723
:10593600983040F4492F01E010E00E94892FFD01C4
:10594600008703C001E0FD010087E7E00C94873083
:10595600F8012581E22FF0E02081F8013781232329
:10596600222319F0F8010085089500E008950E94A9
:105976007530D801722E832F642E2B01952FFD01D1
:105986009183FD0143825482062D10E020E030E031
:1059960048E853E160E070E00E94A32F48EE53E030
:1059A60060E070E00E94C32FFD01058300E00C93C8
:1059B600072DE4E1F0E0FBBFF4E00C94113009E3BD
:1059C600FD0107830AE3FD0106830BE3FD01008762
:1059D6008CC009E3FD0107830AE3FD0106830BE39F
:1059E600FD01008782C006E3FD01078307E3FD0191
:1059F600068308E3FD01008778C006E3FD010783FF
:105A060007E3FD01068308E3FD0100876EC003E39B
:105A1600FD01078304E3FD01068305E3FD0100871D
:105A260064C003E3FD01078304E3FD01068305E388
:105A3600FD0100875AC000E3FD01078301E3FD0174
:105A4600068302E3FD01008750C000E3FD010783E2
:105A560001E3FD01068302E3FD01008746C001E282
:105A6600FD01078302E2FD01068303E2FD010087D3
:105A76003CC001E2FD01078302E2FD01068303E269
:105A8600FD01008732C000E2FD01078301E6FD014A
:105A9600068302E6FD01008728C000E2FD010783B8
:105AA60001E6FD01068302E6FD0100871EC003E64E
:105AB600FD01078304E6FD01068305E6FD01008777
:105AC60014C003E6FD01078304E6FD01068305E62F
