:020000020000FC
:100000000C94AD2C18951895189518951895189569
:100010001895189518951895189518951895189578
:10002000189518950C9422021895189518951895FE
:100030001895189518951895189518950C949F0271
:1000400018951895189518950C94D22B0C94092C8A
:100050001895189518951895189518951895189538
:100060001895189518951895189518951895189528
:100070001895189518951895189518951895189518
:10008000189518951895189518951895A119BE03E7
:10009000BE03B319A604BE03B4040705BE032005BE
:1000A0008B0539050616BE03BE03BE03BE03BE03A1
:1000B000BE03BE03BE03BE03BE03BE0301020103B3
:1000C000010201040102010301020100474D206306
:1000D0006F646500D9DA20202020202020202020F5
:1000E0002020202020202020202020202020202010
:1000F0002020202020202020202020202020202000
:1001000020202020A2B520202020202020202020D8
:100110002020202041A042A1E045A3A4A5A64BA7F2
:100120004D484FA8504354A9AA58E1ABACE2ADAE3C
:1001300062AFB0B161B2B3B4E365B6B7B8B9BABB38
:10014000BCBD6FBE7063BF79E478E5C0C1E6C2C3D1
:10015000C4C5C6C70609090600000000060F0F0641
:10016000000000009C1F9C1F9C1F9C1F9C1F9C1F2D
:100170009C1FD61F9B1F9B1F9B1F9B1F9B1F9C1F72
:1001800064203D219B1F9B1F9B1F9B1F2F209B1F9C
:100190003822B621D321F0213E223D2185229B1F0A
:1001A0009B1F9B1F9B1F9B1F4E22E0224623482321
:1001B00053235E233E22AB229B1FB623F32310243E
:1001C0002D243E2276239B1F79247B247D249B1F94
:1001D0003E2248249B1F1725192544256F253E22C2
:1001E00090249B1FAD25AF25B1259B1F3E227C256A
:1001F000A1262F209B1F9B1F9B1F9B1F75269B1FAC
:100200002F203C2658269B1F2F20C2259B1F9B1F5B
:100210009B1F9B1F9B1F9B1F9B1F030204060153D9
:100220007475636B20202020200053656E736F72FD
:1002300073203A20004C3D202020202020004572D1
:10024000726F722020200053656E736F72733A00D4
:100250004C3D3F2020202020202020202020202036
:1002600000496E7075742070617373776F72643AB1
:100270000050617373776F7264206572726F7221C0
:10028000004D656E753A0044697374616E63652054
:10029000746F20533120200044697374616E63656C
:1002A00020746F20533220200044697374616E63A0
:1002B0006520746F20533320200044697374616E8D
:1002C000636520746F205334202000446973746187
:1002D0006E636520746F2053352020004469737469
:1002E000616E636520746F2053362020004469736B
:1002F00074616E636520746F205337202000446959
:100300007374616E636520746F205338202000532E
:100310006574206E65772070617373776F72640007
:10032000446562756720736372207370656564202D
:10033000004465627567206F757420444143202036
:1003400020005365742070617373776F72643A0094
:10035000536176653F20282D2F2B29004469737443
:10036000616E636520746F205300536176653F2092
:10037000282D2F2B29004465627567204F75742046
:100380004441430031363030306D6D2D32302E30E7
:0503900030306D41005A
:100396004101DE295C29017029018429019829017E
:1003A600AC2901C02901D4291A5229016629017AEA
:1003B60029018E2901A22901B62901CA29FB410179
:1003C600EA2A682A017C2A01902A01A42A01B82A6D
:1003D60001CC2A01E02A1A5E2A01722A01862A0124
:1003E6009A2A01AE2A01C22A01D62AFB5802BF1A4E
:1003F60000E005BD05B5086005BD05B50F7B05BD6B
:1004060005B50F7D05BD05B50F7E05BD05B50B7F91
:1004160005BD05B5026005BD05B5016005BD01D088
:10042600089500E004BD0CE703BD06B70F7706BFCD
:1004360006B70F7B06BF07B7006807BF08959A93F4
:100446008A93FA93EA933A922A921A920A927A93A2
:100456006A935A934A933A932A931A930A938FB7B5
:100466009BB707B70F7707BF789400911B0A1091C7
:100476001C0A0E94E81C0E945E1C0E946A280E94B8
:10048600C602CFDF9BBF8FBF099119912991399180
:1004960049915991699179910990199029903990CA
:1004A600E991F9918991999118950FE210E00E94CE
:1004B600EF2D9801012B41F089010E94641C0093E5
:1004C6001B0A10931C0A089500E010E000931B0A13
:1004D60010931C0A08950E94FB010E947F020E944D
:1004E600942B0E9417030E94790208950E94E8192E
:1004F60008950E94DA03089503B7046003BF03B7A3
:100506000D7F03BF03B70E7F03BF03B70F7B03BF88
:1005160003B7086003BF03B70F7D03BF03B70F7EA2
:1005260003BF03B70F7703BF00E002BF09EF01BFA8
:1005360007B7026007BF08959A938A93FA93EA93DE
:100546003A922A921A920A927A936A935A934A9301
:100556003A932A931A930A938FB79BB70E940A037A
:100566009BBF8FBF09911991299139914991599151
:10057600699179910990199029903990E991F991A9
:100586008991999118950895EDE1FAE0008111811C
:100596000F5F1F4F0083118300911D0A10911E0AE1
:1005A600083E23E0120790F100E010E000931D0AD8
:1005B60010931E0A01E00093230A00911F0A039577
:1005C60000931F0A00911F0A0C3300F100E000930C
:1005D6001F0A0091200A03950093200A0091200A21
:1005E6000C33A0F000E00093200A0091210A039545
:1005F6000093210A0091210A083140F000E000939F
:10060600210A0091220A03950093220A08950E9466
:100616007C02BADF08952FB7F8012083F894089575
:10062600F80120812FBF0895219705E00A3040F494
:1006360020E010E0F801E050F74F20830395F6CF55
:100646008E010E940E0300E010E000931D0A109335
:100656001E0A00E000931F0A00E00093200A00E053
:100666000093210A00E00093220A01E00093230A86
:100676008E010E941303219608950E94D32DD8015E
:100686000FEF80E090E08217930764F410E04C913E
:1006960050E004271527F801E65FF64F0081119612
:1006A6000196F1CFE4E00C94E42DC69AC69AC79A57
:1006B600949A959ABE9ABE9ABF9A8C9A8D9A0FE38F
:1006C6001CE901501040E9F700C000009598089514
:1006D600B80100E010E0BE9ABF9A8C9A8D9AC7982E
:1006E6002AE02A95F1F700C094982AE02A95F1F7B6
:1006F60000C040E0403110F577FB16F421E001C060
:1007060020E020FB28B326F928BB2AE02A95F1F73A
:1007160000C0C79A2AE02A95F1F700C0000F111F02
:10072600C69B03C0016021E030E0C798660F771FC3
:100736002AE02A95F1F700C04395DCCF949A2AE087
:100746002A95F1F700C008959A938A93C801ADDF00
:100756008C0120E030E04FEF5FE960E070E00E943E
:100766001F2D40E157E260E070E00E943F2DB0DFB0
:10077600899199910895089521978E010E940E03FB
:1007860000E000933B0A8E010E9413032196089510
:100796008A9321978E010E940E0300913B0A802FB7
:1007A6008E010E941303082F2196899108950E94B5
:1007B600AA1A0091880A10E0000F111F000F111FDE
:1007C600F801E257FF4F059114913197F801099509
:1007D600089521978E010E940E030091880A10E069
:1007E600000F111F000F111FF801E457FF4F05916D
:1007F60014913197F8010995E7E2FAE00081118139
:10080600228133810093240A1093250A00913C0A21
:100816000093260A8E010E941303219608958A9357
:1008260021978E010E940E030091880A802F8E0167
:100836000E941303082F2196899108950E94D32DB3
:10084600602F212F422F01E010E00E94052D10910C
:100856003B0A102B10933B0A30E0F901E25FF54F9B
:1008660060830091820A002309F46AC030E0422FB7
:1008760050E008E010E00E94FD2CEEE3FAE0E00F05
:10088600F11F062F10E0000F111F000F111FE00FC0
:10089600F11F00801180228033800128022803285E
:1008A60019F4662309F431E0613019F4222309F4BE
:1008B60031E0613059F4213048F0022F10E0F801A0
:1008C600E35FF54F0081002309F031E03323C1F1E6
:1008D60008E91AE300930C0A10930D0AEEE7FAE012
:1008E60080819181A281B381422F50E008E010E01F
:1008F6000E94FD2CEEE3FAE0E00FF11F062F10E058
:10090600000F111F000F111FE00FF11F808391834D
:10091600A283B383422F01E010E00E94052D1091BF
:100926003D0A102B10933D0A40910B0A542F550F88
:10093600550B022F10E04017510714F420930B0AB1
:10094600E4E00C94E42D00E21FEB22E030E0E3E863
:10095600FAE0008311832283338303E00093880A3D
:1009660008950E94D32D0E94CA190023F1F10E9416
:10097600E51940E0483010F560E06230E8F400E048
:1009860010E020E030E0C801D90150E008E010E0B6
:100996000E94FD2CEEE3FAE0E00FF11F062F10E0B7
:1009A600000F111F000F111FE00FF11F80839183AD
:1009B600A283B3836395E1CF4395DCCF01E010E0DA
:1009C60020E030E0EEE7FAE00083118322833383F0
:1009D60000E000933D0A0FEF00930B0A01E000933D
:1009E600820A04E00093880A0CC0E3E8FAE000817A
:1009F600118122813381012B022B032B11F40E94DA
:100A0600E219E4E00C94E42DE3E8FAE000811181B8
:100A160022813381012B022B032B71F0E3E8FAE0EC
:100A260000811181228133810150104020403040E5
:100A36000083118322833383089500913B0A0023A8
:100A4600A1F000E00093870A40910B0A439501E06C
:100A560010E00E94052D0A9510913D0A109501237C
:100A660000933C0A05E00093880A089500910C0A59
:100A760010910D0A012BC1F1ECE0FAE00081118121
:100A86000150104000831183EEE7FAE000811181E6
:100A9600228133810F5F1F4F2F4F3F4F00831183FA
:100AA600228333830E94CA19002389F101E000934F
:100AB600870AEEE3FAE000A911A922A933A9012BBE
:100AC600022B032B21F1EEE3FAE000AD11AD22ADCE
:100AD60033AD012B022B032BD1F006E00093880ADD
:100AE60000E00093820A08950091870A002339F0F6
:100AF60006E00093880A00E00093820A089500E069
:100B06000093820A0E94E21902E00093880A08957F
:100B160000913B0A002379F040910B0A439501E0CE
:100B260010E00E94052D0A9510913D0A10950123AB
:100B360000933C0A089500E000933C0A08950E9441
:100B4600C72DAC9748835983902F312EC22E7B0137
:100B5600B32E8CAC9DAC4EAC5FACFE01FF96A18172
:100B6600B28120E0232C032D0A95802F022D102F11
:100B7600110F110BDD240C151D050CF09DC08823EB
:100B86000AF49AC0FE01329630E047E050E089014F
:100B96000E94FD2CE00FF11F8483FE01329630E0A7
:100BA60047E050E089010E94FD2CE00FF11F2582ED
:100BB600022D102F110F110BF801E852F14F608131
:100BC600762F770F770B660F771F40E050E0460FC2
:100BD600571F0E94D42CB801082F102F110F110B8C
:100BE600F801E852F14F4081542F550F550B440F31
:100BF600551F00E010E0040F151FA8010E94D42C19
:100C0600601B710BFE01329630E047E050E089012F
:100C16000E94FD2CE00FF11F60837183022D102FBF
:100C2600110F110BF801E852F14F6081762F770F03
:100C3600770B48E050E08B010E94FD2CF801E25C46
:100C4600F54F40815181628173813A01082F102F3F
:100C5600110F110BF801E852F14F6081762F770FD3
:100C6600770B48E050E08B010E94FD2CF801E25C16
:100C7600F54F4081518162817381B301641B750B0D
:100C8600FE01329630E047E050E089010E94FD2CDB
:100C9600E00FF11F6283738331E0BE016E5F7F4F09
:100CA600022E112447E050E080010E94FD2C600FC7
:100CB600711FFB0136832395292E092F0A95802F54
:100CC600022D102F110F110BDD240C151D050CF034
:100CD6009DC088230AF49AC0FE01329630E047E0B0
:100CE60050E089010E94FD2CE00FF11F8483FE0174
:100CF600329630E047E050E089010E94FD2CE00F7B
:100D0600F11F2582022D102F110F110BF801E85249
:100D1600F14F6081762F770F770B660F771F40E0D4
:100D260050E0460F571F0E94D42CB801082F102FF1
:100D3600110F110BF801E852F14F4081542F550F56
:100D4600550B440F551F00E010E0040F151FA801B6
:100D56000E94D42C601B710BFE01329630E047E0F6
:100D660050E089010E94FD2CE00FF11F6083718322
:100D7600022D102F110F110BF801E852F14F60816F
:100D8600762F770F770B48E050E08B010E94FD2C01
:100D9600F801E25CF54F44815581668177813A011D
:100DA600082F102F110F110BF801E852F14F608137
:100DB600762F770F770B48E050E08B010E94FD2CD1
:100DC600F801E25CF54F4481558166817781B30174
:100DD600641B750BFE01329630E047E050E0890156
:100DE6000E94FD2CE00FF11F6283738330E0BE0189
:100DF6006E5F7F4F022E112447E050E080010E9473
:100E0600FD2C600F711FFB0136832395032D03957F
:100E1600202E832D022D102F110F110BDD240C1502
:100E26001D050CF09DC088230AF49AC0FE01329677
:100E360030E047E050E089010E94FD2CE00FF11FF1
:100E46008483FE01329630E047E050E089010E943B
:100E5600FD2CE00FF11F2582022D102F110F110B13
:100E6600F801E852F14F6081762F770F770B660F06
:100E7600771F40E050E0460F571F0E94D42CB80160
:100E8600082F102F110F110BF801E852F14F408176
:100E9600542F550F550B440F551F00E010E0040F5B
:100EA600151FA8010E94D42C601B710BFE013296FF
:100EB60030E047E050E089010E94FD2CE00FF11F71
:100EC60060837183022D102F110F110BF801E85268
:100ED600F14F6081762F770F770B48E050E08B015A
:100EE6000E94FD2CF801E25CF54F40815181628140
:100EF60073813A01082F102F110F110BF801E852D8
:100F0600F14F6081762F770F770B48E050E08B0129
:100F16000E94FD2CF801E25CF54F4081518162810F
:100F26007381B301641B750BFE01329630E047E016
:100F360050E089010E94FD2CE00FF11F628373834C
:100F460031E0BE016E5F7F4F022E112447E050E074
:100F560080010E94FD2C600F711FFB0136832395D3
:100F6600232C032D0250802F022D102F110F110B51
:100F7600DD240C151D050CF09DC088230AF49AC0CB
:100F8600FE01329630E047E050E089010E94FD2CD8
:100F9600E00FF11F8483FE01329630E047E050E017
:100FA60089010E94FD2CE00FF11F2582022D102FD2
:100FB600110F110BF801E852F14F6081762F770F70
:100FC600770B660F771F40E050E0460F571F0E94D1
:100FD600D42CB801082F102F110F110BF801E8526D
:100FE600F14F4081542F550F550B440F551F00E00C
:100FF60010E0040F151FA8010E94D42C601B710B72
:10100600FE01329630E047E050E089010E94FD2C57
:10101600E00FF11F60837183022D102F110F110B4A
:10102600F801E852F14F6081762F770F770B48E091
:1010360050E08B010E94FD2CF801E25CF54F4081E7
:101046005181628173813A01082F102F110F110B04
:10105600F801E852F14F6081762F770F770B48E061
:1010660050E08B010E94FD2CF801E25CF54F4081B7
:10107600518162817381B301641B750BFE01329647
:1010860030E047E050E089010E94FD2CE00FF11F9F
:101096006283738330E0BE016E5F7F4F022E1124A0
:1010A60047E050E080010E94FD2C600F711FFB019C
:1010B60036832395092F0395202E892F022D102F75
:1010C600110F110BDD240C151D050CF09DC0882396
:1010D6000AF49AC0FE01329630E047E050E08901FA
:1010E6000E94FD2CE00FF11F8483FE01329630E052
:1010F60047E050E089010E94FD2CE00FF11F258298
:10110600022D102F110F110BF801E852F14F6081DB
:10111600762F770F770B660F771F40E050E0460F6C
:10112600571F0E94D42CB801082F102F110F110B36
:10113600F801E852F14F4081542F550F550B440FDB
:10114600551F00E010E0040F151FA8010E94D42CC3
:10115600601B710BFE01329630E047E050E08901DA
:101166000E94FD2CE00FF11F60837183022D102F6A
:10117600110F110BF801E852F14F6081762F770FAE
:10118600770B48E050E08B010E94FD2CF801E25CF1
:10119600F54F44815581668177813A01082F102FDA
:1011A600110F110BF801E852F14F6081762F770F7E
:1011B600770B48E050E08B010E94FD2CF801E25CC1
:1011C600F54F4481558166817781B301641B750BA8
:1011D600FE01329630E047E050E089010E94FD2C86
:1011E600E00FF11F6283738331E0BE016E5F7F4FB4
:1011F600022E112447E050E080010E94FD2C600F72
:10120600711FFB0136832395BB2019F0AA24A394F2
:1012160001C0AA2460E0621708F040C0FE013296C1
:1012260070E047E050E08B010E94FD2CE00FF11FBB
:101236000681002389F068807980FE01329670E08D
:1012460047E050E08B010E94FD2CE00FF11F028168
:1012560013816016710604F5FE01329670E047E0D0
:1012660050E08B010E94FD2CE00FF11F00811181DF
:10127600025E1F4F3801FE0132960A2C112447E008
:1012860050E080010E94FD2CE00FF11F00811181CA
:10129600601671060CF4A62E6395BDCFFE0132963C
:1012A6006A2D70E047E050E08B010E94FD2CE00FB4
:1012B600F11F00811181F20100831183FE01329634
:1012C6006A2D70E047E050E08B010E94FD2CE00F94
:1012D600F11F02811381FD0100831183FE01329605
:1012E6006A2D70E047E050E08B010E94FD2CE00F74
:1012F600F11F0481F7010083FE0132966A2D70E02A
:1013060047E050E08B010E94FD2CE00FF11F0581A4
:10131600F4010083AC96E6E10C94D82D0E94CD2D05
:101326002697602EA12F822E0091D70E043610F03C
:1013360001E0FEC0662042F00A2F102F110F110B9C
:1013460099240815190514F000E0F2C0B0E00A2F40
:10135600102F110F110BF801E852F14F0081102FD9
:10136600110F110B000F111F40E050E0400F511FED
:101376000E94D42C9801762C770C7708F301E8525A
:10138600F14F0081102F110F110B000F111F40E0BC
:1013960050E0400F511F0E94D42C201B310BC90175
:1013A600762C770C7708F301E852F14F4081542FE1
:1013B600550F550B08E010E00E94FD2CF801E25C89
:1013C600F54F0481158126813781B8010A2F102F28
:1013D600110F110BF801E852F14F4081542F550FB0
:1013E600550B08E010E00E94FD2CF801E25CF54F79
:1013F6000081118122813381601B710B2B018E01CB
:101406000E5F1F4F1A930A938E010A5F1F4F1A939E
:101416000A938E010C5F1F4F1A930A9331E0BE01A7
:10142600695F7F4FA201282D1A2F062D88DB21E048
:101436004091D70E50E00BE010E00E94FD2CF80121
:10144600E557F54F20834091D70E50E00BE010E0B2
:101456000E94FD2CF801E557F54F62824091D70EA8
:1014660050E00BE010E00E94FD2CF801E557F54F27
:10147600A38329814091D70E50E00BE010E00E9433
:10148600FD2CF801E557F54F248328814091D70EAE
:1014960050E00BE010E00E94FD2CF801E557F54FF7
:1014A60025834091D70E50E00BE010E00E94FD2C02
:1014B600F801E557F54F468257824C815D8160E021
:1014C600559E9001449E8001549E100D211D361F8D
:1014D600549D100D211D361F4A815B8160E070E02E
:1014E6000E943F2D9C01200F311F4091D70E50E0E6
:1014F6000BE010E00E94FD2CF801E557F54F208720
:10150600318721E04091D70E50E00BE010E00E94B9
:10151600FD2CF801E557F54F22870091D70E03956C
:101526000093D70E0091D70E043608F0B1E00B2FCA
:101536002696EAE00C94DE2D0E94CD2D2697602E8D
:10154600412E822E0091D70E043610F002E068C1BB
:10155600662042F0042D102F110F110B9924081547
:10156600190514F000E05CC15524042D102F110F4D
:10157600110BF801E952F14F4081542F550F550BCD
:1015860008E010E00E94FD2CF801E25CF54F808136
:101596009181A281B381762C770C7708F301E8520A
:1015A600F14F4081542F550F550B08E010E00E9473
:1015B600FD2CF801E25CF54F048115812681378107
:1015C60080179107A207B30708F029C1042D102F31
:1015D600110F110BF801E852F14F4081542F550FAE
:1015E600550B08E010E00E94FD2CF801E25CF54F77
:1015F60080819181A281B381762C770C7708F301E3
:10160600E852F14F4081542F550F550B08E010E07A
:101616000E94FD2CF801E25CF54F048115812681BC
:10162600378180179107A207B30708F4F8C0042D85
:10163600102F110F110BF801E952F14F0081102FF5
:10164600110F110B000F111F40E050E0400F511F0A
:101656000E94D42C9801762C770C7708F301E85277
:10166600F14F0081102F110F110B000F111F40E0D9
:1016760050E0400F511F0E94D42C201B310BC90192
:10168600762C770C7708F301E852F14F4081542FFE
:10169600550F550B08E010E00E94FD2CF801E25CA6
:1016A600F54F0481158126813781B801042D102F4D
:1016B600110F110BF801E952F14F4081542F550FCC
:1016C600550B08E010E00E94FD2CF801E25CF54F96
:1016D6000081118122813381601B710BDB01A81708
:1016E600B90708F09CC08E010E5F1F4F1A930A932C
:1016F6008E010A5F1F4F1A930A938E010C5F1F4FCC
:101706001A930A9331E0BE01695F7F4FAD01282D20
:10171600142D1A95062D13DA23E04091D70E50E0CA
:101726000BE010E00E94FD2CF801E557F54F2083F1
:101736004091D70E50E00BE010E00E94FD2CF8011E
:10174600E557F54F6282242D2A954091D70E50E039
:101756000BE010E00E94FD2CF801E557F54F2383BE
:1017660029814091D70E50E00BE010E00E94FD2C3D
:10177600F801E557F54F248328814091D70E50E0B4
:101786000BE010E00E94FD2CF801E557F54F25838C
:101796004091D70E50E00BE010E00E94FD2CF801BE
:1017A600E557F54FA683B7834C815D8160E0B59F11
:1017B6009001A49F8001B49F100D211D361F5A9FD2
:1017C600100D211D361F4A815B8160E070E00E948A
:1017D6003F2D9C01200F311F4091D70E50E00BE0AA
:1017E60010E00E94FD2CF801E557F54F2087318760
:1017F60021E04091D70E50E00BE010E00E94FD2C56
:10180600F801E557F54F22870091D70E039500930F
:10181600D70E0091D70E043610F055245394052D9B
:101826002696EAE00C94DE2D0E94CD2D2697602E9A
:10183600412E822E0091D70E043610F002E065C1CB
:10184600662042F0042D102F110F110B9924081554
:10185600190514F000E059C15524042D102F110F5D
:10186600110BF801E952F14F4081542F550F550BDA
:1018760008E010E00E94FD2CF801E25CF54F808143
:101886009181A281B381762C770C7708F301E85217
:10189600F14F4081542F550F550B08E010E00E9480
:1018A600FD2CF801E25CF54F048115812681378114
:1018B60080179107A207B30708F026C1042D102F41
:1018C600110F110BF801E852F14F4081542F550FBB
:1018D600550B08E010E00E94FD2CF801E25CF54F84
:1018E60080819181A281B381762C770C7708F301F0
:1018F600E852F14F4081542F550F550B08E010E088
:101906000E94FD2CF801E25CF54F048115812681C9
:10191600378180179107A207B30708F4F5C0042D95
:10192600102F110F110BF801E852F14F0081102F03
:10193600110F110B000F111F40E050E0400F511F17
:101946000E94D42C9801762C770C7708F301E85284
:10195600F14F0081102F110F110B000F111F40E0E6
:1019660050E0400F511F0E94D42C201B310BC9019F
:10197600042D102F110F110BF801E852F14F408181
:10198600542F550F550B08E010E00E94FD2CF8016E
:10199600E25CF54F0081118122813381B801762CFA
:1019A600770C7708F301E852F14F4081542F550F19
:1019B600550B08E010E00E94FD2CF801E25CF54FA3
:1019C6000481158126813781601B710BDB01A81705
:1019D600B90708F099C08E010E5F1F4F1A930A933C
:1019E6008E010A5F1F4F1A930A938E010C5F1F4FD9
:1019F6001A930A9330E0BE01695F7F4FAD01282D2F
:101A0600142D062D9CD824E04091D70E50E00BE013
:101A160010E00E94FD2CF801E557F54F2083409118
:101A2600D70E50E00BE010E00E94FD2CF801E557C0
:101A3600F54F62824091D70E50E00BE010E00E9415
:101A4600FD2CF801E557F54F438229814091D70EC9
:101A560050E00BE010E00E94FD2CF801E557F54F31
:101A6600248328814091D70E50E00BE010E00E94BD
:101A7600FD2CF801E557F54F25834091D70E50E030
:101A86000BE010E00E94FD2CF801E557F54FA68308
:101A9600B7834C815D8160E0B59F9001A49F800172
:101AA600B49F100D211D361F5A9F100D211D361F84
:101AB6004A815B8160E070E00E943F2D9C01201B03
:101AC600310B4091D70E50E00BE010E00E94FD2C48
:101AD600F801E557F54F2087318722E04091D70E70
:101AE60050E00BE010E00E94FD2CF801E557F54FA1
:101AF60022870091D70E03950093D70E0091D70E3B
:101B0600043610F055245394052D2696EAE00C94DD
:101B1600DE2D0E94CD2D2697602E412E822E00911D
:101B2600D70E043610F002E066C1662042F0042D9E
:101B3600102F110F110B99240815190514F000E048
:101B46005AC15524762C770C7708F301E852F14FE9
:101B56004081542F550F550B08E010E00E94FD2CD4
:101B6600F801E25CF54F84819581A681B781042D49
:101B7600102F110F110BF801E852F14F4081542F2D
:101B8600550F550B08E010E00E94FD2CF801E25CB1
:101B9600F54F008111812281338180179107A207B9
:101BA600B30708F027C1762C770C7708F301E852C3
:101BB600F14F4181542F550F550B08E010E00E945C
:101BC600FD2CF801E25CF54F84819581A681B781F1
:101BD600042D102F110F110BF801E852F14F40811F
:101BE600542F550F550B08E010E00E94FD2CF8010C
:101BF600E25CF54F048115812681378180179107B4
:101C0600A207B30708F4F6C0042D102F110F110B0D
:101C1600F801E852F14F0081102F110F110B000F40
:101C2600111F40E050E0400F511F0E94D42C980134
:101C3600762C770C7708F301E852F14F0081102FCC
:101C4600110F110B000F111F40E050E0400F511F04
:101C56000E94D42C201B310BC901042D102F110F0B
:101C6600110BF801E852F14F4081542F550F550BD7
:101C760008E010E00E94FD2CF801E25CF54F0081BF
:101C8600118122813381B801762C770C7708F30114
:101C9600E852F14F4081542F550F550B08E010E0E4
:101CA6000E94FD2CF801E25CF54F04811581268126
:101CB6003781601B710BDB01A817B90708F09AC0C2
:101CC6008E010E5F1F4F1A930A938E010A5F1F4FF4
:101CD6001A930A938E010C5F1F4F1A930A9330E0F2
:101CE600BE01695F7F4FAD01282D142D062D0E9480
:101CF600A20525E04091D70E50E00BE010E00E94CF
:101D0600FD2CF801E557F54F20834091D70E50E0A2
:101D16000BE010E00E94FD2CF801E557F54F6282BA
:101D26004091D70E50E00BE010E00E94FD2CF80128
:101D3600E557F54F438229814091D70E50E00BE0DD
:101D460010E00E94FD2CF801E557F54F2483288109
:101D56004091D70E50E00BE010E00E94FD2CF801F8
:101D6600E557F54F25834091D70E50E00BE010E084
:101D76000E94FD2CF801E557F54FA683B7834C81E9
:101D86005D8160E0B59F9001A49F8001B49F100D16
:101D9600211D361F5A9F100D211D361F4A815B815A
:101DA60060E070E00E943F2D9C01201B310B4091AA
:101DB600D70E50E00BE010E00E94FD2CF801E5572D
:101DC600F54F2087318722E04091D70E50E00BE097
:101DD60010E00E94FD2CF801E557F54F228700918F
:101DE600D70E03950093D70E0091D70E043610F048
:101DF60055245394052D2696EAE00C94DE2D0E9478
:101E0600CD2D2697402E612E822E0091D70E0436B8
:101E160010F002E068C144203AF0762C770C77087F
:101E260099246814790414F000E05DC15524042D4A
:101E3600102F110F110BF801E852F14F4081542F6A
:101E4600550F550B08E010E00E94FD2CF801E25CEE
:101E5600F54F84819581A681B781762C770C77081A
:101E6600F301E852F14F4081542F550F550B08E00E
:101E760010E00E94FD2CF801E25CF54F0081118113
:101E86002281338180179107A207B30708F02AC180
:101E9600042D102F110F110BF801E852F14F41815B
:101EA600542F550F550B08E010E00E94FD2CF80149
:101EB600E25CF54F84819581A681B781762C770CFB
:101EC6007708F301E852F14F4081542F550F550B17
:101ED60008E010E00E94FD2CF801E25CF54F00815D
:101EE60011812281338180179107A207B30708F475
:101EF600F9C0762C770C7708F301E852F14F008190
:101F0600102F110F110B000F111F40E050E0400F72
:101F1600511F0E94D42C9801042D102F110F110B64
:101F2600F801E852F14F0181102F110F110B000F2C
:101F3600111F40E050E0400F511F0E94D42C201B7F
:101F4600310BC901042D102F110F110BF801E852A6
:101F5600F14F4181542F550F550B08E010E00E94B8
:101F6600FD2CF801E25CF54F04811581268137814D
:101F7600B801762C770C7708F301E852F14F4081CF
:101F8600542F550F550B08E010E00E94FD2CF80168
:101F9600E25CF54F0081118122813381601B710B58
:101FA600DB01A817B90708F09DC08E010E5F1F4F11
:101FB6001A930A938E010A5F1F4F1A930A938E0192
:101FC6000C5F1F4F1A930A9331E0BE01695F7F4F82
:101FD600AD01282D162D042D03950E94A20526E09D
:101FE6004091D70E50E00BE010E00E94FD2CF80166
:101FF600E557F54F2083242D23954091D70E50E0C9
:102006000BE010E00E94FD2CF801E557F54F228306
:102016004091D70E50E00BE010E00E94FD2CF80135
:10202600E557F54F638229814091D70E50E00BE0CA
:1020360010E00E94FD2CF801E557F54F2483288116
:102046004091D70E50E00BE010E00E94FD2CF80105
:10205600E557F54F25834091D70E50E00BE010E091
:102066000E94FD2CF801E557F54FA683B7834C81F6
:102076005D8160E0B59F9001A49F8001B49F100D23
:10208600211D361F5A9F100D211D361F4A815B8167
:1020960060E070E00E943F2D9C01200F311F4091AF
:1020A600D70E50E00BE010E00E94FD2CF801E5573A
:1020B600F54F2087318721E04091D70E50E00BE0A5
:1020C60010E00E94FD2CF801E557F54F228700919C
:1020D600D70E03950093D70E0091D70E043610F055
:1020E60055245394052D2696EAE00C94DE2D0E9485
:1020F600CD2D2697602E412E822E0091D70E0436C6
:1021060010F002E038C1662042F0042D102F110FA6
:10211600110B99240815190514F000E02CC155245B
:10212600042D102F110F110BF801E952F14F4081C8
:10213600542F550F550B08E010E00E94FD2CF801B6
:10214600E25CF54F80819181A281B381762C770C78
:102156007708F301E852F14F4081542F550F550B84
:1021660008E010E00E94FD2CF801E25CF54F0481C6
:1021760015812681378180179107A207B30708F0DA
:10218600F9C0042D102F110F110BF801E952F14F70
:102196000081102F110F110B000F111F40E050E0AE
:1021A600400F511F0E94D42C9801762C770C77088B
:1021B600F301E852F14F0081102F110F110B000FA0
:1021C600111F40E050E0400F511F0E94D42C201BED
:1021D600310BC901762C770C7708F301E852F14FE1
:1021E6004081542F550F550B08E010E00E94FD2C3E
:1021F600F801E25CF54F0481158126813781B8012B
:10220600042D102F110F110BF801E952F14F4081E7
:10221600542F550F550B08E010E00E94FD2CF801D5
:10222600E25CF54F0081118122813381601B710BC5
:10223600DB01A817B90708F09DC08E010E5F1F4F7E
:102246001A930A938E010A5F1F4F1A930A938E01FF
:102256000C5F1F4F1A930A9331E0BE01695F7F4FEF
:10226600AD01282D142D1A95062D0E94A20527E0F2
:102276004091D70E50E00BE010E00E94FD2CF801D3
:10228600E557F54F20834091D70E50E00BE010E064
:102296000E94FD2CF801E557F54F6282242D2A9500
:1022A6004091D70E50E00BE010E00E94FD2CF801A3
:1022B600E557F54F238329814091D70E50E00BE077
:1022C60010E00E94FD2CF801E557F54F2483288184
:1022D6004091D70E50E00BE010E00E94FD2CF80173
:1022E600E557F54F25834091D70E50E00BE010E0FF
:1022F6000E94FD2CF801E557F54FA683B7834C8164
:102306005D8160E0B59F9001A49F8001B49F100D90
:10231600211D361F5A9F100D211D361F4A815B81D4
:1023260060E070E00E943F2D9C01200F311F40911C
:10233600D70E50E00BE010E00E94FD2CF801E557A7
:10234600F54F2087318721E04091D70E50E00BE012
:1023560010E00E94FD2CF801E557F54F2287009109
:10236600D70E03950093D70E0091D70E043610F0C2
:1023760055245394052D2696EAE00C94DE2D0E94F2
:10238600CD2D2697602E412E822E0091D70E043633
:1023960010F002E070C1E62DFE2FFF0FFF0B319704
:1023A60042F0042D102F110F110B99240815190551
:1023B60014F000E060C15524762C770C7708F30101
:1023C600E952F14F4081542F550F550B08E010E0AC
:1023D6000E94FD2CF801E25CF54F84819581A6816F
:1023E600B781042D102F110F110BF801E952F14F8F
:1023F6004081542F550F550B08E010E00E94FD2C2C
:10240600F801E25CF54F008111812281338180174A
:102416009107A207B30708F02DC1762C770C770831
:10242600F301E852F14F4081542F550F550B08E048
:1024360010E00E94FD2CF801E25CF54F8481958145
:10244600A681B781042D102F110F110BF801E95247
:10245600F14F4081542F550F550B08E010E00E94B4
:10246600FD2CF801E25CF54F008111812281338158
:1024760080179107A207B30708F4FCC0042D102F9C
:10248600110F110BF801E952F14F0081102F110FB6
:10249600110B000F111F40E050E0400F511F0E942A
:1024A600D42C9801762C770C7708F301E952F14F7A
:1024B6000081102F110F110B000F111F40E050E08B
:1024C600400F511F0E94D42C201B310BC901042D33
:1024D600102F110F110BF801E952F14F4081542FC3
:1024E600550F550B08E010E00E94FD2CF801E25C48
:1024F600F54F0081118122813381B801762C770C4A
:102506007708F301E952F14F4081542F550F550BCF
:1025160008E010E00E94FD2CF801E25CF54F048112
:10252600158126813781601B710BDB01A817B9075E
:1025360008F0A0C08E010E5F1F4F1A930A938E01FA
:102546000A5F1F4F1A930A938E010C5F1F4F1A934F
:102556000A9330E0BE01695F7F4FAD01282D142D2F
:102566001A95062D0A950E94A20528E04091D70EDD
:1025760050E00BE010E00E94FD2CF801E557F54F06
:102586002083262D2A954091D70E50E00BE010E0CF
:102596000E94FD2CF801E557F54F2283242D2A953C
:1025A6004091D70E50E00BE010E00E94FD2CF801A0
:1025B600E557F54F238329814091D70E50E00BE074
:1025C60010E00E94FD2CF801E557F54F2483288181
:1025D6004091D70E50E00BE010E00E94FD2CF80170
:1025E600E557F54F25834091D70E50E00BE010E0FC
:1025F6000E94FD2CF801E557F54FA683B7834C8161
:102606005D8160E0B59F9001A49F8001B49F100D8D
:10261600211D361F5A9F100D211D361F4A815B81D1
:1026260060E070E00E943F2D9C01201B310B409121
:10263600D70E50E00BE010E00E94FD2CF801E557A4
:10264600F54F2087318722E04091D70E50E00BE00E
:1026560010E00E94FD2CF801E557F54F2287009106
:10266600D70E03950093D70E0091D70E043610F0BF
:1026760055245394052D2696EAE00C94DE2D0E94EF
:10268600CD2D2697402E612E822E0091D70E043630
:1026960010F002E037C144203AF0762C770C770828
:1026A60099246814790414F000E02CC15524762C82
:1026B600770C7708F301E852F14F4081542F550FFC
:1026C600550B08E010E00E94FD2CF801E25CF54F86
:1026D60080819181A281B381042D102F110F110BDE
:1026E600F801E852F14F4181542F550F550B08E080
:1026F60010E00E94FD2CF801E25CF54F0481158183
:102706002681378180179107A207B30708F0F9C021
:10271600762C770C7708F301E852F14F0081102FE1
:10272600110F110B000F111F40E050E0400F511F19
:102736000E94D42C9801042D102F110F110BF801B3
:10274600E852F14F0181102F110F110B000F111FCD
:1027560040E050E0400F511F0E94D42C201B310B4B
:10276600C901042D102F110F110BF801E852F14F7A
:102776004181542F550F550B08E010E00E94FD2CA7
:10278600F801E25CF54F0481158126813781B80195
:10279600762C770C7708F301E852F14F4081542FDD
:1027A600550F550B08E010E00E94FD2CF801E25C85
:1027B600F54F0081118122813381601B710BDB0192
:1027C600A817B90708F09DC08E010E5F1F4F1A9318
:1027D6000A938E010A5F1F4F1A930A938E010C5FAC
:1027E6001F4F1A930A9331E0BE01695F7F4FAD0117
:1027F600282D162D042D03950E94A20529E040914F
:10280600D70E50E00BE010E00E94FD2CF801E557D2
:10281600F54F2083242D23954091D70E50E00BE0F1
:1028260010E00E94FD2CF801E557F54F22834091F8
:10283600D70E50E00BE010E00E94FD2CF801E557A2
:10284600F54F638229814091D70E50E00BE010E0EE
:102856000E94FD2CF801E557F54F2483288140910D
:10286600D70E50E00BE010E00E94FD2CF801E55772
:10287600F54F25834091D70E50E00BE010E00E9403
:10288600FD2CF801E557F54FA683B7834C815D8192
:1028960060E0B59F9001A49F8001B49F100D211D9B
:1028A600361F5A9F100D211D361F4A815B8160E03D
:1028B60070E00E943F2D9C01200F311F4091D70EE2
:1028C60050E00BE010E00E94FD2CF801E557F54FB3
:1028D6002087318721E04091D70E50E00BE010E0D1
:1028E6000E94FD2CF801E557F54F22870091D70E7F
:1028F60003950093D70E0091D70E043610F0552499
:102906005394052D2696EAE00C94DE2D0E94CD2DDB
:102916002697602E412E822E0091D70E043610F097
:1029260002E06DC166204AF0842D982F990F990B0D
:10293600019699248815990514F000E060C1552484
:10294600042D102F110F110BF801E852F14F4081A1
:10295600542F550F550B08E010E00E94FD2CF8018E
:10296600E25CF54F80819181A281B381762C770C50
:102976007708F301E852F14F4181542F550F550B5B
:1029860008E010E00E94FD2CF801E25CF54F04819E
:1029960015812681378180179107A207B30708F0B2
:1029A6002DC1042D102F110F110BF801E852F14F14
:1029B6004181542F550F550B08E010E00E94FD2C65
:1029C600F801E25CF54F80819181A281B381762C7A
:1029D600770C7708F301E852F14F4181542F550FD8
:1029E600550B08E010E00E94FD2CF801E25CF54F63
:1029F600048115812681378180179107A207B307C5
:102A060008F4FCC0042D102F110F110BF801E85229
:102A1600F14F0181102F110F110B000F111F40E014
:102A260050E0400F511F0E94D42C9801762C770C51
:102A36007708F301E852F14F0181102F110F110BA6
:102A4600000F111F40E050E0400F511F0E94D42C90
:102A5600201B310BC901042D102F110F110BF8018A
:102A6600E852F14F4181542F550F550B08E010E005
:102A76000E94FD2CF801E25CF54F00811181228154
:102A86003381B801762C770C7708F301E852F14FC1
:102A96004181542F550F550B08E010E00E94FD2C84
:102AA600F801E25CF54F0481158126813781601BB0
:102AB600710BDB01A817B90708F0A0C08E010E5FE5
:102AC6001F4F1A930A938E010A5F1F4F1A930A9398
:102AD6008E010C5F1F4F1A930A9330E0BE01695FA7
:102AE6007F4FAD01282D142D1395062D03950E94B9
:102AF600A2052AE04091D70E50E00BE010E00E94BC
:102B0600FD2CF801E557F54F2083262D239540919E
:102B1600D70E50E00BE010E00E94FD2CF801E557BF
:102B2600F54F2283242D23954091D70E50E00BE0DC
:102B360010E00E94FD2CF801E557F54F238329810B
:102B46004091D70E50E00BE010E00E94FD2CF801FA
:102B5600E557F54F248328814091D70E50E00BE0CE
:102B660010E00E94FD2CF801E557F54F25834091B2
:102B7600D70E50E00BE010E00E94FD2CF801E5575F
:102B8600F54FA683B7834C815D8160E0B59F9001C8
:102B9600A49F8001B49F100D211D361F5A9F100D52
:102BA600211D361F4A815B8160E070E00E943F2D47
:102BB6009C01201B310B4091D70E50E00BE010E03A
:102BC6000E94FD2CF801E557F54F2087318722E05A
:102BD6004091D70E50E00BE010E00E94FD2CF8016A
:102BE600E557F54F22870091D70E03950093D70E30
:102BF6000091D70E043610F055245394052D2696D1
:102C0600EAE00C94DE2D0E94CF2D2B9700E00830D1
:102C160040F42FEF10E0F801E852F14F20830395BE
:102C2600F6CF00E00093E00E00E000933C0A20E0BF
:102C3600283070F530E0422F50E008E010E00E94A6
:102C4600FD2CF801E25CF54F408151816281738170
:102C5600452B462B472B09F031E0332369F00091D1
:102C6600E00E10E0F801E852F14F20830091E00EEB
:102C760003950093E00E0AC0422F01E010E00E9487
:102C8600052D10913C0A102B10933C0A2395D0CFAA
:102C96000091E00E033090F492D302E00093880A8C
:102CA6000AE010E020E030E0E7E2FAE0008311837A
:102CB6002283338301E000930A0A6CC100E000938B
:102CC600D70E4091D80E542F550F550B08E010E043
:102CD6000E94FD2CF801E25CF54F84819581A68166
:102CE600B7810091E00E10E0F801E952F14F408102
:102CF600542F550F550B08E010E00E94FD2CF801EB
:102D0600E25CF54F008111812281338180179107A2
:102D1600A207B30748F02091E00E1091E00E1A9535
:102D260000E00E94910986C080E090E0E091E00E0C
:102D3600F0E032978E179F070CF07CC00091D70EFB
:102D4600043608F077C0082F0395A02F0091E00EF7
:102D5600A01708F06DC00091D70E043608F068C0C1
:102D6600B0E0FD01E852F14F4081542F550F550B4D
:102D760008E010E00E94FD2CF801E25CF54F40806F
:102D860051806280738090E0FC01E852F14F4081EF
:102D9600542F550F550B08E010E00E94FD2CF8014A
:102DA600E25CF54F04811581268137814016510674
:102DB60062067306D8F12091E00E1A2F082F0E94A2
:102DC6009F0A0023A9F52091E00E1A2F082F0E94D2
:102DD600170C002369F52091E00E1A2F082F0E9488
:102DE6008C0D002329F52091E00E1A2F082F07D805
:102DF6000023F1F42091E00E1A2F082F78D9002332
:102E0600B9F42091E00E1A2F082FB9DA002381F4C5
:102E16002091E00E1A2F082F32DC002349F420916E
:102E2600E00E1A2F082F72DD002311F4A3958ECF22
:102E360083957BCF31E0332309F45CC030E021E099
:102E46000091D70E2017B8F7422F50E00BE010E0A4
:102E56000E94FD2CF801E557F54F66817781422FD8
:102E660050E00BE010E00E94FD2CF801EA57F54F08
:102E76000081118160177107D8F5BE01E0E8FAE01C
:102E8600422F50E00BE010E00E94FD2CE00FF11FF6
:102E96008B014BE050E00E94B02D60E87AE0422FB3
:102EA60050E00BE010E00E94FD2C600F711F422FD6
:102EB60050E00BE010E00E94FD2CEBE8FAE0E00F9A
:102EC600F11F8B014BE050E00E94B02D422F50E0E5
:102ED6000BE010E00E94FD2C6BE87AE0600F711F9A
:102EE600FE018B014BE050E00E94B02D31E0A3CFF4
:102EF6002395A6CF00918D0A10E0F801E852F14F14
:102F06000081005D0093000900918E0A10E0F8012F
:102F1600E852F14F0081005D009301090BE2009336
:102F2600020900918B0A043061F000918B0A05308A
:102F360041F000918B0A083021F000918B0A0A308B
:102F460019F40DE20093020900918F0A10E0F801CE
:102F5600E852F14F0081005D009303090091900A49
:102F660010E0F801E852F14F0081005D009304097A
:102F76000091930A1091940A20E030E0E7E2FAE02B
:102F8600008311832283338301E000930A0A00E061
:102F96000093880A07D001E000930A0A2B96E8E01E
:102FA6000C94E02D0E94CE2DEF97EF97249706E024
:102FB600802E04E6702E80E006EEFE017E9690E0FE
:102FC600E80FF91F008383950DE0FE017E9690E0E1
:102FD600E80FF91F00838395682E00E0FE017E96B8
:102FE60090E0E80FF91F008383950AEAFE017E96BA
:102FF60090E0E80FF91F0083839505E5FE017E96B4
:1030060090E0E80FF91F0083839500913C0AFE01CA
:103016007E9690E0E80FF91F00838395082F0A5FDC
:10302600A02FE7E2FAE00081118122813381280195
:1030360090E0963088F5933081F44EE28E01025E80
:103046001F4FEA2FF0E0292F30E0E21BF30B3197F8
:103056000E0F1F1FF80140831CC04AE050E082019A
:103066000E940B2DB42F4AE050E082010E940B2DE6
:1030760028014B2F405D8E01025E1F4FEA2FF0E0C4
:10308600292F30E0E21BF30B31970E0F1F1FF801BB
:10309600408383959395CDCF00918D0A10E0F8017A
:1030A600E852F14F0081FE017E9690E0E80FF91F8D
:1030B6000083839500918E0A10E0F801E852F14FE3
:1030C6000081FE017E9690E0E80FF91F008383954C
:1030D60000918B0AFE017E9690E0E80FF91F0083AF
:1030E600839500918F0A10E0F801E852F14F0081B4
:1030F600FE017E9690E0E80FF91F0083839500910C
:10310600900A10E0F801E852F14F0081FE017E9628
:1031160090E0E80FF91F0083839500E0023070F419
:1031260010E0F801E557F54F1681FE017E9690E016
:10313600E80FF91F108383950395F0CF20E0283020
:10314600F8F4022F10E0000F111F40E050E0400F8E
:10315600511F0E94D42C0883198300E0023070F4BA
:10316600FE0110E0E00FF11F1081FE017E9690E057
:10317600E80FF91F108383950395F0CF2395DFCFD2
:1031860020E0223040F540E0483018F560E0643039
:10319600F0F450E008E010E00E94FD2CEEE3FAE0C7
:1031A600E00FF11F022F10E0000F111F000F111F7B
:1031B600E00FF11F70E0E60FF71F0081FE017E961B
:1031C60090E0E80FF91F008383956395E0CF439560
:1031D600DBCF2395D6CF282F2395FE017E96062D8D
:1031E60010E0E00FF11F2083282F30E021503040FF
:1031F6008E01025E1F4F0E944003FE017E9690E004
:10320600E80FF91F00838395843671F4A0E0A817B0
:1032160050F4FE017E96B0E0EA0FFB1F00810E948B
:103226003A2CA395F4CF84C0BE01665F7F4FE6EECD
:10323600FEE530E08B0144E150E00E94BB2D94E1B5
:10324600A0E0A91750F4FE013A96B0E0EA0FFB1F82
:1032560000810E943A2CA395F4CF8E010E5F1F4F7A
:10326600D80140E1082F0E94EF2CFD010083FD01EB
:1032760000810A3028F0FD010081095C008304C04A
:10328600FD010081005D0083119640E1082F0E9438
:10329600EF2CFD014083FD0100810A3028F0FD017D
:1032A6000081095C008304C0FD010081005D00838C
:1032B600119601E2FD01008311960DE3FD010083E5
:1032C600119606E0FD010083FD0100810A3028F019
:1032D600FD010081095C008304C0FD010081005DE1
:1032E6000083119604E0FD010083FD0100810A3090
:1032F60028F0FD010081095C008304C0FD01008106
:10330600005D008311960DE0FD01008311960AE031
:10331600FD01008398E04424491650F4FE013296DC
:103326005524E40DF51D00810E943A2C4394F4CFF8
:10333600EF96EF962496E9E00C94DF2DE7E2FAE0AB
:1033460000811181228133810E94A70308E813E1DD
:103356000093890A10938A0A01E00093880A089567
:103366000091890A10918A0A012B49F0E9E8FAE0EE
:10337600008111810150104000831183089500E0FF
:1033860010E00E94A70302E00093880A08959A932A
:103396008A9391E080E0883070F4082F10E0000FE7
:1033A600111FF801E55DF54F008111810E94912BF7
:1033B60090238395F0CF092F899199910895159AB5
:1033C6001D980895159A1D9A08950CE010E00E9424
:1033D600EF2D98018901232B49F050E061E274E05A
:1033E6004CE330E026E60E94462A02C000E010E0E8
:1033F60000932B0A10932C0A0CE010E00E94EF2D8C
:1034060098018901232B49F051E061E274E04CE315
:1034160031E026E60E94462A02C000E010E0009352
:103426002D0A10932E0A0CE010E00E94EF2D980151
:103436008901232B49F052E061E274E04CE332E06B
:1034460026E60E94462A02C000E010E000932F0AFA
:103456001093300A0CE010E00E94EF2D98018901CC
:10346600232B49F053E061E274E04CE333E026E6B7
:103476000E94462A02C000E010E00093310A109331
:10348600320A0CE010E00E94EF2D98018901232BEF
:1034960049F054E061E274E04CE334E026E60E9431
:1034A600462A02C000E010E00093330A1093340A63
:1034B6000CE010E00E94EF2D98018901232B49F0C2
:1034C60055E061E274E04CE335E026E60E94462AC8
:1034D60002C000E010E00093350A1093360A0CE0B3
:1034E60010E00E94EF2D98018901232B49F056E048
:1034F60061E274E04CE336E026E60E94462A02C00A
:1035060000E010E00093370A1093380A0CE010E050
:103516000E94EF2D98018901232B49F057E061E2C3
:1035260074E04CE337E026E60E94462A02C000E03B
:1035360010E00093390A10933A0A00E00093880AD3
:103546000E94580300E010E00E946B0308958A93DE
:103556000E94BF0380E0883068F4082F10E0000F57
:10356600111FF801E55DF54F008111810E94322B94
:103576008395F1CF8991089505E310E00E94EF2D20
:103586009801012B39F089010CD00093E10E1093BC
:10359600E20E089500E010E00093E10E1093E20EB3
:1035A6000895BA93AA93D8010DE010E00E94EF2D7A
:1035B60098018901232B41F063E050E040E030E0C0
:1035C60027E60E94302902C000E010E09B960D938A
:1035D6001C939C970DE010E00E94EF2D0801012B33
:1035E60049F062E050E040E031E027E680010E94C9
:1035F600302902C000E010E09D960D931C939E9723
:103606000DE010E00E94EF2D0801012B49F061E06A
:1036160050E040E032E027E680010E94302902C0F7
:1036260000E010E09F960D931C93D0970DE010E0FC
:103636000E94EF2D0801012B49F060E050E040E0C8
:1036460033E027E680010E94302902C000E010E046
:10365600D1960D931C93D29700E00C9300E011963F
:103666000C93119700E093960C93939792960C9374
:1036760092978D01A991B99108950E94D32DD801F1
:103686009B960D911C919C970E94372A802F9D96A0
:103696000D911C919E970E94372A902F9F960D910F
:1036A6001C91D0970E94372A892B802BD1960D9199
:1036B6001C91D2970E94372A802BD4968C93D4974C
:1036C600D4960C91D497D3961C91D397011791F069
:1036D6000C91043118F40C9103950C930C91043160
:1036E60078F0D4960C91D497D3960C93D39700E0A8
:1036F6000C9306C00C91013018F00C910A950C93AE
:10370600E4E00C94E42D9A938A93C8018C01B5DF0A
:103716008C0103D0899199910895BA93AA93D801FF
:10372600FD0103A910E0F801E454FF4F0491FD01E7
:1037360002A7FD0101810023B1F1FD0103A90F30AC
:1037460031F1FD0104A115A10C3D25E0120738F465
:10375600FD0104A115A10F5F1F4F04A315A3FD01D1
:1037660004A115A10C3D25E0120780F1FD0106A17B
:10377600043628F4FD0106A1039506A327C000E040
:10378600FD0106A3FD0122A58D0127D01FC000E083
:1037960010E0FD0104A315A300E0FD0106A300E06F
:1037A600FD01018313C0FD0103A90F3079F001E08B
:1037B600FD010183FD0122A58D010FD000E010E07F
:1037C600FD0104A315A300E0FD0106A3A991B9918B
:1037D6000895A8012F71022F08950E94D32DD801B4
:1037E600922F0FB7FD0107A3F894FD0123A123959E
:1037F6008D01EFDF802FFD0102A1801741F0082F18
:1038060010E0FD01E00FF11F9283FD0183A3FD018E
:1038160007A10FBFE4E00C94E42D0E94D12D2801EE
:10382600D90180E00FB7F20100A7F894F20103A1D5
:10383600F20112A1011781F081E0F20122A1239584
:103846008201C7DFF20102A3F20102A110E0F20138
:10385600E00FF11F02810C93F20100A50FBF082FA4
:10386600E6E00C94E22DF8011FB711A7F89413A116
:1038760022A1121738F410E222A1121B23A1120F63
:10388600012F04C013A122A1121B012F11A51FBFD6
:1038960008950091E10E1091E20EE5DF08959A93E6
:1038A6008A93C8019C010091E10E1091E20EB5DFEA
:1038B6008991999108950091E10E1091E20E23DF0E
:1038C60008959A938A93C8018C010FD08C011FD05A
:1038D6008C013BD08C0117D24CEC50E020E08C01DF
:1038E600EFD18C018991999108952FE02ABB2FE0A1
:1038F6002BBBD49ADC9AD59ADD9A4FEF59E668E14C
:10390600415050406040E1F700C00000089520E0BB
:10391600F80123A7F80122A7F80100A711A720E0C4
:10392600F80125A720E030E0F80120A331A320E02C
:1039360030E0F80122A333A320E0F80126A720E017
:1039460030E0F80126A337A308959A938A93C80115
:103956000FEF13EF21E0015010402040E1F700C0C7
:10396600000028E28C01CDD00FE31FE1015010408A
:10397600E9F700C0000028E28C01C3D00FE31FE185
:1039860001501040E9F700C000002CE08C01B9D0CE
:1039960021E08C01B6D00FE31FE101501040E9F79A
:1039A60000C0000026E08C01ACD022E08C01A9D03A
:1039B6000FE31FE101501040E9F700C0000020E8C6
:1039C6008C019FD08991999108950E94D32DD80199
:1039D600FD0106A117A10F5F1F4F06A317A3FD0147
:1039E60006A117A1003024E0120728F000E010E03D
:1039F600FD0106A317A3FD0100A511A50F5F1F4F2B
:103A060000A711A7FD0103A5039503A7FD0103A5C3
:103A1600003110F100E0FD0103A7FD0102A50395A9
:103A260002A7FD0102A5023051F400E0FD0102A744
:103A3600FD01A0A7B1A720E88D0163D009C08D01C3
:103A4600005F1F4FFD0100A711A720EC8D0159D083
:103A560008EC00000A95E9F7FD0102A50023C9F468
:103A6600FD0120A131A1FD0143A501E010E00E9466
:103A7600052D20233123232B49F0FD0106A117A193
:103A8600013022E0120710F001E001C000E0802FB3
:103A960018C0FD0122A133A1FD0143A501E010E0FC
:103AA6000E94052D20233123232B49F0FD0106A179
:103AB60017A1013022E0120710F001E001C000E07A
:103AC600802FFD0100A511A5F8010081FD0104A7C5
:103AD600FD0104A5013848F0FD0104A510E0F80138
:103AE600EC5AFF4F0491FD0104A7882319F000E268
:103AF600FD0104A7FD0124A58D011FD0E4E00C946F
:103B0600E42D0E94D42DC801A22F0FB70093E30E17
:103B1600F89408EC00000A95E9F7DD9B05C0DD98EE
:103B260008EC00000A95E9F72A2F8C0122D00091B3
:103B3600E30E0FBFE3E00C94E52D0E94D42DC801DF
:103B4600A22F0FB70093E40EF89408EC00000A9534
:103B5600E9F7DD9905C0DD9A08EC00000A95E9F75A
:103B66002A2F8C0106D00091E40E0FBFE3E00C94DF
:103B7600E52D4BB3407F322F32953F70432B4BBB25
:103B8600DC9A000000000000DC9800000000000045
:103B96004BB3407F322F3F70432B4BBBDC9A000068
:103BA60000000000DC9808950E94D22DC8010FB7CE
:103BB600402EF89420E48C01A4DF0FE91FE00150A9
:103BC6001040E9F700C00000A0E0A03160F4B0E0CA
:103BD600FD01EC5AFE4F24918C01AFDF00E50A95FA
:103BE600F1F7A395F2CF20E88C018BDF0FE91FE0F8
:103BF60001501040E9F700C000004FBEE5E00C940C
:103C0600E32D203208F020E0422F50E0F801E40FC7
:103C1600F51F30830895BA931A2EF801622F532F99
:103C2600603208F060E070E0DF01A60FB71F5C931A
:103C3600603130F48F01005E1F4F9801062E07C0D9
:103C46008F010E5D1F4F9801062F0051002E06A50D
:103C5600013080F0402D01E010E00E94052DD901D1
:103C66002D903C90202A312A3C922E9206A50A9548
:103C760006A70EC0402D01E010E00E94052D00951C
:103C86001095D9012D903C90202231223C922E9203
:103C9600A12DB9910895FA013081632F662379F039
:103CA600203208F020E030E0F801E20FF31F6083D5
:103CB60023954F5F5F4FFA013081632FEFCF089551
:103CC600FA013491632F662379F0203208F020E060
:103CD60030E0F801E20FF31F608323954F5F5F4FDB
:103CE600FA013491632FEFCF089520E030E0F80118
:103CF60020A331A320E030E0F80122A333A320E083
:103D0600F80126A708959A938A93C80100E0003225
:103D160040F420E210E0FC01E00FF11F2083039540
:103D2600F6CF8C01E2DF8991999108950E94CF2DFB
:103D3600D801422E532E942F042D050D0A95802F5F
:103D460066246514E8F44AE0092F0E94EF2C742ECD
:103D560088230AF48FE180320CF080E0272D205D65
:103D6600082F102F110F110BFD01E00FF11F2083FB
:103D76008A954AE0092F0E94EF2C902F6394E1CF99
:103D8600E8E00C94E02D0E94CE2D2801B22F632E80
:103D9600CA010B2F060D0A95A02F77247614F8F486
:103DA6004AE050E08C010E940B2D842EAA230AF4CF
:103DB600AFE1A0320CF0A0E0282D205D0A2F102FD5
:103DC600110F110BF201E00FF11F2083AA954AE0B3
:103DD60050E08C010E940B2DC8017394DFCFE9E0FF
:103DE6000C94DF2D0E94CF2DD801422E532E942FF6
:103DF600042D050D0A95802F7724751468F54AE081
:103E0600092F0E94EF2C642E88230AF48FE180325A
:103E16000CF080E0772019F001E0601660F0262DA6
:103E2600205D082F102F110F110BFD01E00FF11F60
:103E360020838A950AC020E2082F102F110F110B3C
:103E4600FD01E00FF11F20838A954AE0092F0E94A9
:103E5600EF2C902F7394D1CFE8E00C94E02D0E94C4
:103E6600CE2DD801522E832ECA01052D080D0A9596
:103E7600402E6624681488F54AE050E08C010E94C2
:103E86000B2D742E442012F40FE1402E00E2401652
:103E96000CF04424662019F0082F092B61F0272D19
:103EA600205D042D102F110F110BFD01E00FF11FE6
:103EB60020834A940AC020E2042D102F110F110B03
:103EC600FD01E00FF11F20834A944AE050E08C0187
:103ED6000E940B2DC8016394CDCFE9E00C94DF2D31
:103EE6000E946E020FEF13ED20E3015010402040B8
:103EF600E1F700C0000078940FEF13ED20E30150C6
:103F060010402040E1F700C0000000911B0A10910C
:103F16001C0A0E94D71D0E9458030E949C1F0E94E3
:103F26005C2C0E94642C0E94EC030E949528F9CF19
:103F36000895219701E00093E50E8E010E940E037D
:103F460000E010E020E030E0E6E1FAE000831183D3
:103F560022833383E6E1FAE00081118122813381F5
:103F6600E8EEFEE000831183228333838E010E94F4
:103F7600130300911B0A10911C0A0E94861E4FE132
:103F860052E020E000911B0A10911C0A0E94631E59
:103F96004AE252E020E100911B0A10911C0A0E949D
:103FA600631E219608958A9380E0883008F041C008
:103FB600082F10E0000F111FF801E55DF54F008195
:103FC60011810E94912B002351F030E2282F285EA8
:103FD60000911B0A10911C0A0E940E1E10C001E0DF
:103FE600E0911B0AF0911C0A06A7382F3F5C282F88
:103FF600285E00911B0A10911C0A0E940E1E082FB3
:1040060010E0000F111FF801E55DF54F00811181E9
:104016000E94912B002311F431E001C030E0282FDB
:10402600285F00911B0A10911C0A0E94041E8395AA
:10403600BCCF0E941204002369F00E9412040130D2
:1040460049F00E941204023029F00E941204033043
:1040560009F002D08991089521978E010E940E03DE
:1040660000E010E020E030E0E6E1FAE000831183B2
:1040760022833383E6E1FAE00081118122813381D4
:10408600E8EEFEE000831183228333838E010E94D3
:10409600130300911B0A10911C0A0E94861E02E05F
:1040A6000093E50E40E059E020E000911B0A1091D4
:1040B6001C0A0E944E1E01E000931A0A02D02196A5
:1040C60008950E94D42D90E080E000911A0A002302
:1040D60011F091E081E000910A0A002329F000E046
:1040E60000930A0A91E081E00E94CB03002319F0B5
:1040F6000E94BF0381E0992309F481C00091240A3C
:104106001091250A012BB9F400911A0A002399F49B
:104116004EE352E020E000911B0A10911C0A0E9417
:10412600631E47E452E020E100911B0A10911C0A2D
:104136000E94631E3BC040E059E020E000911B0A4C
:1041460010911C0A0E944E1E45E352E020E10091A8
:104156001B0A10911C0A0E94631E48EE53E0009150
:10416600240A1091250A0E940B2DA80132E022E1B3
:1041760000911B0A10911C0A0E94321F3EE224E1A4
:1041860000911B0A10911C0A0E94041E48EE53E07F
:104196000091240A1091250A0E940B2D33E025E197
:1041A60000911B0A10911C0A0E94C61EA0E0A830AE
:1041B60030F52091260A4A2F01E010E00E94052DD5
:1041C6002023222389F001E0E0911B0AF0911C0ACA
:1041D60006A73A2F3F5C2A2F285E00911B0A1091F2
:1041E6001C0A0E940E1E09C030E22A2F285E00918A
:1041F6001B0A10911C0A0E940E1EA395D8CF882375
:10420600E9F0A0E0A830D0F40A2F10E0000F111F4B
:10421600F801E55DF54F008111810E94912B002385
:1042260011F431E001C030E02A2F285F00911B0A0B
:1042360010911C0A0E94041EA395E4CF0E9412044A
:10424600053091F440E059E020E000911B0A1091FE
:104256001C0A0E944E1E40E552E020E100911B0A16
:1042660010911C0A0E94631E00E000931A0AE3E004
:104276000C94E52D21978E010E940E0300E315E7AD
:1042860020E030E0E6E1FAE0008311832283338305
:10429600E6E1FAE00081118122813381E8EEFEE059
:1042A60000831183228333838E010E9413030091BE
:1042B600E50E0093E60E03E00093E50E00E00093A2
:1042C600F50E00E0053040F420E010E0F801E05182
:1042D600F14F20830395F6CF00911B0A10911C0A1B
:1042E6000E94861E41E652E020E000911B0A1091D2
:1042F6001C0A0E94631E02D0219608958A9380E0CC
:1043060080E00091F50E801788F400E0E0911B0A2A
:10431600F0911C0A06A73AE2282F205F00911B0A9B
:1043260010911C0A0E940E1E8395EBCF0091F50E8C
:104336000530B8F401E0E0911B0AF0911C0A06A7CB
:104346000091F50E10E0F801E051F14F3081305D3B
:104356002091F50E205F00911B0A10911C0A0E9405
:104366000E1E899108950091F50E10E0F801E051B6
:10437600F14F0081002349F409E02091F50E30E069
:10438600F901E051F14F008309C00091F50E10E0EC
:10439600F801E051F14F00810A950083AFDF0895DF
:1043A6000091F50E10E0F801E051F14F008109305F
:1043B60048F000E02091F50E30E0F901E051F14FB0
:1043C600008309C00091F50E10E0F801E051F14FAD
:1043D60000810395008392DF08959A938A93009152
:1043E600F50E03950093F50E0091F50E053080F459
:1043F6000091F50E10E0F801E151F14F2081009196
:10440600F50E10E0F801E051F14F208377DF2AC066
:1044160081E091E020E02530F0F430E040E150E02A
:10442600420F531F0E94D12C30E0F901E051F14FA9
:104436001081011709F080E030E0F901E65EFD4FDA
:10444600049130E0F901E051F14F1081011709F0B4
:1044560090E02395E0CF082F092B002311F078D0A8
:1044660001C019D08991999108950091F50E0130F6
:1044760008F001D008954091E60E50E00EE010E0FD
:104486000E94FD2CF801E059FE4F059114913197D9
:10449600F80109950895219704E00093E50E00912F
:1044A6001B0A10911C0A0E94861E41E752E020E07A
:1044B60000911B0A10911C0A0E94631E8E010E9425
:1044C6000E0300E010E020E030E0E6E1FAE00083D1
:1044D600118322833383E6E1FAE000811181228190
:1044E6003381E8EEFEE0008311832283338300E309
:1044F60015E70093F60E1093F70E8E010E94130334
:10450600219608959A938A9321978E010E940E030D
:104516000091F60E1091F70EC8018E010E9413034A
:10452600823000E0900778F048EE53E08C010E945C
:104536000B2DA80132E020E100911B0A10911C0A04
:104546000E94321F01C097DF2196899199910895A3
:10455600219705E00093E50E00911B0A10911C0AB5
:104566000E94861E8E010E940E0300E21FEB22E0CF
:1045760030E0E6E1FAE00083118322833383E6E14B
:10458600FAE00081118122813381E8EEFEE00083AA
:104596001183228333838E010E94130341E852E084
:1045A60020E000911B0A10911C0A0E94631E00E085
:1045B6000093F80E55D0219608958A9322978E017E
:1045C6000F5F1F4F0E940E030091230A802F8E015A
:1045D6000F5F1F4F0E9413038823F9F18E010E947B
:1045E6000E0300E00093230A8E010E9413034091FC
:1045F600220A33E026E000911B0A10911C0A0E9451
:10460600F51E34E629E000911B0A10911C0A0E944F
:10461600041E4091210A32E02AE000911B0A109103
:104626001C0A0E94991E38E62CE000911B0A109184
:104636001C0A0E94041E4091200A32E02DE00091DF
:104646001B0A10911C0A0E94991E3DE62FE000915C
:104656001B0A10911C0A0E94041E22968991089535
:104666004091F80E50E001E110E00E94FD2C47E871
:1046760052E0400F511F20E100911B0A10911C0AC5
:104686000E94631E0895F7DE08950091F80E01302A
:1046960028F00091F80E0A950093F80EE1DF0895D0
:1046A6000091F80E0A3028F40091F80E0395009355
:1046B600F80ED6DF08950091F80E083011F413D0E5
:1046C60008950091F80E083010F427D1089500914E
:1046D600F80E093011F406D308950091F80E0A3049
:1046E60009F44DD20895219706E00093E50E8E0158
:1046F6000E940E0300E61AEE20E030E0E6E1FAE062
:104706000083118322833383E6E1FAE0008111817D
:1047160022813381E8EEFEE0008311832283338316
:104726008E010E94130300911B0A10911C0A0E941D
:10473600861E42E453E020E000911B0A10911C0AF9
:104746000E94631E00E0053040F420E010E0F8010E
:10475600E051F14F20830395F6CF00E00093F50E6C
:1047660004D021960895F4DE08959A938A9380E002
:104776000091F50E8017B0F400E0E0911B0AF0916D
:104786001C0A06A790E0FC01E051F14F3081305D34
:10479600282F205F00911B0A10911C0A0E940E1EF2
:1047A6008395E6CF0091F50E0530B8F401E0E0916F
:1047B6001B0AF0911C0A06A70091F50E10E0F801FD
:1047C600E051F14F3081305D2091F50E205F009170
:1047D6001B0A10911C0A0E940E1E89919991089538
:1047E6000091F50E10E0F801E051F14F0081002331
:1047F60049F409E02091F50E30E0F901E051F14F5E
:10480600008309C00091F50E10E0F801E051F14F68
:1048160000810A950083A9DF08950091F50E10E046
:10482600F801E051F14F0081093048F000E0209195
:10483600F50E30E0F901E051F14F008309C0009117
:10484600F50E10E0F801E051F14F00810395008369
:104856008CDF08950091F50E0430A8F40091F50E52
:1048660003950093F50E0091F50E10E0F801E15165
:10487600F14F20810091F50E10E0F801E051F14F63
:10488600208373DF089501D00895219707E00093F0
:10489600E50E8E010E940E0300E61AEE20E030E0DF
:1048A600E6E1FAE00083118322833383E6E1FAE04E
:1048B6000081118122813381E8EEFEE000831183BD
:1048C600228333838E010E94130300911B0A1091E9
:1048D6001C0A0E94861E40E553E020E100911B0A57
:1048E60010911C0A0E94631E2196089531DE0895D8
:1048F6002FDE089520E0253070F430E0F901E05114
:10490600F14F008130E040E150E0420F531F0E941A
:10491600E22C2395F0CFAFDD0895219708E00093B0
:10492600E50E0091F80E10E0000F111F40E050E078
:10493600400F511F0E94D42C0093FB0E1093FC0EC7
:1049460004E00093FD0E00911B0A10911C0A0E94C0
:10495600861E4CE553E020E000911B0A10911C0ACC
:104966000E94631E3091F80E3F5C2DE000911B0AF9
:1049760010911C0A0E940E1E1ED08E010E940E036C
:1049860000EC14ED21E030E0E6E1FAE0008311836B
:1049960022833383E6E1FAE00081118122813381AB
:1049A600E8EEFEE000831183228333838E010E94AA
:1049B6001303219608950E94D22D0091FB0E1091AB
:1049C600FC0EC801A0E0A53060F504E00A1B402EED
:1049D6004AE050E08C010E940B2DB42F0091FD0E91
:1049E6000A1739F401E0E0911B0AF0911C0A06A7A8
:1049F60006C000E0E0911B0AF0911C0A06A73B2FB7
:104A0600305D242D205F00911B0A10911C0A0E9424
:104A16000E1E4AE050E08C010E940B2DC801A395A2
:104A2600D2CFE5E00C94E32D93DD08950E94D32DBB
:104A3600A1E0B0E020E00091FD0E201740F40AE06E
:104A460010E0AD010E94FD2CD8012395F4CFAD01F5
:104A56000091FB0E1091FC0E0E940B2D4AE050E0D7
:104A66000E940B2D842F813040F0EBEFFEE0008199
:104A760011810A1B1B0B008311839DDFE4E00C945C
:104A8600E42D0E94D32DA1E0B0E020E00091FD0EC0
:104A9600201740F40AE010E0AD010E94FD2CD80179
:104AA6002395F4CFAD010091FB0E1091FC0E0E94F0
:104AB6000B2D4AE050E00E940B2D842F893040F4E4
:104AC600EBEFFEE0008111810A0F1B1F00831183AB
:104AD60072DFE4E00C94E42D0091FD0E013038F015
:104AE6000091FD0E0A950093FD0E65DF089501D035
:104AF6000895219709E00093E50E00911B0A109195
:104B06001C0A0E94861E4AE653E020E100911B0A19
:104B160010911C0A0E94631E8E010E940E0300E380
:104B260015E720E030E0E6E1FAE000831183228316
:104B36003383E6E1FAE00081118122813381E8EED8
:104B4600FEE000831183228333838E010E941303C8
:104B560021960895FDDC0895FBDC08950091FB0E77
:104B66001091FC0E2091F80E30E0220F331F40E02A
:104B760050E0420F531F0E94E62CEADC089521976D
:104B86000BE00093E50E08EE13E00093F90E109388
:104B9600FA0E00911B0A10911C0A0E94861E46E717
:104BA60053E020E000911B0A10911C0A0E94631E2C
:104BB6001ED08E010E940E0300EC14ED21E030E0C1
:104BC600E6E1FAE00083118322833383E6E1FAE02B
:104BD6000081118122813381E8EEFEE0008311839A
:104BE600228333838E010E941303219608959A939C
:104BF6008A9344E853E020E100911B0A10911C0AB5
:104C06000E94631E4091F90E5091FA0E35E020E1A4
:104C160000911B0A10911C0A0E94321F0091F90E86
:104C26001091FA0E0056104FC80148EE53E08C0161
:104C36000E940B2DA80132E028E100911B0A109179
:104C46001C0A0E94321F48EE53E08C010E940B2D75
:104C560033E02BE100911B0A10911C0A0E94C61E2C
:104C66000091F90E1091FA0E0E94A703899199916D
:104C760008959A938A9348EE53E00091F90E1091A5
:104C8600FA0E0E940B2DC801082F092B09F0019777
:104C960008EE13E0AC010E94FD2C0093F90E109370
:104CA600FA0EA5DF8991999108959A938A9348EE11
:104CB60053E00091F90E1091FA0E0E940B2DC801D7
:104CC600803100E0900708F4019608EE13E0AC018D
:104CD6000E94FD2C0093F90E1093FA0E88DF89913D
:104CE6009991089521970AE00093E50E8E010E949E
:104CF6000E0300E010E020E030E0E6E1FAE0008399
:104D0600118322833383E6E1FAE000811181228157
:104D16003381E8EEFEE000831183228333838E0124
:104D26000E94130300911B0A10911C0A0E94861E02
:104D360001E000931A0A02D0219608950E94C72D19
:104D4600259700E00883B0E000911A0A002319F0C5
:104D560001E00883B1E000910A0A002331F000E087
:104D660000930A0A01E00883B1E00E94CB03002306
:104D760019F0B1E00E94BF030881002379F148EEE3
:104D860053E00091240A1091250A0E940B2DA801D8
:104D960031E020E000911B0A10911C0A0E94321F8C
:104DA6003EE221E000911B0A10911C0A0E94041E9B
:104DB60048EE53E00091240A1091250A0E940B2D1B
:104DC6008A014AE050E00E940B2DA80132E022E061
:104DD60000911B0A10911C0A0E94C61EBB2309F4EF
:104DE60072C191E0A92FA63008F0B4C04A2F50E056
:104DF60008E010E00E94FD2CF801E25CF54F4480CB
:104E06005580668077804A2F50E008E010E00E94C7
:104E1600FD2CF801E65CF54F00811181228133817A
:104E2600401A510A620A730A49825A826B827C824C
:104E36001A2F191B03E0109F00E1000E802D4981F7
:104E46005A816B817C81413000E0500700E06007A9
:104E560000E07007DCF430E2282F00911B0A109165
:104E66001C0A0E94041E3DE2282F239500911B0A6E
:104E760010911C0A0E94041E3DE2282F2E5F00910D
:104E86001B0A10911C0A0E94041E62C02A2F30E0E1
:104E9600220F331F40E050E0420F531F0E94D42CD4
:104EA600B8014EEF5FEF0A2F10E0000F111F400F01
:104EB600511F0E94D42C601B710B8B0120E030E047
:104EC600480159014AE050E060E070E08401950134
:104ED6000E941F2D49815A816B817C810E943F2D42
:104EE6006801790130E2282F00911B0A10911C0AF3
:104EF6000E94041E4AE050E060E070E086019701DF
:104F06000E943F2D080119014AE050E060E070E080
:104F1600800191010E943F2D342F305D282F23956B
:104F260000911B0A10911C0A0E94041E4AE050E0E0
:104F360060E070E0860197010E943F2D342F305DBE
:104F4600282F2E5F00911B0A10911C0A0E94041E36
:104F5600A39549CF95E0A92FA83008F0B4C04A2FF1
:104F660050E008E010E00E94FD2CF801E25CF54FED
:104F760040805180628073804A2F50E008E010E044
:104F86000E94FD2CF801EA5CF54F00811181228117
:104F96003381401A510A620A730A49825A826B8225
:104FA6007C821A2F191B03E0109F06E0000E802D4D
:104FB60049815A816B817C81413000E0500700E0D5
:104FC600600700E07007DCF430E2282F00911B0A2E
:104FD60010911C0A0E94041E3DE2282F2395009181
:104FE6001B0A10911C0A0E94041E3DE2282F2E5F08
:104FF60000911B0A10911C0A0E94041E62C02A2FEF
:1050060030E0220F331F40E050E0420F531F0E9452
:10501600D42CB8014EEF5FEF0A2F10E0000F111FDE
:10502600400F511F0E94D42C601B710B8B0120E096
:1050360030E0480159014AE050E060E070E0840148
:1050460095010E941F2D49815A816B817C810E94A6
:105056003F2D6801790130E2282F00911B0A10913B
:105066001C0A0E94041E4AE050E060E070E08601DF
:1050760097010E943F2D080119014AE050E060E0C7
:1050860070E0800191010E943F2D342F305D282F62
:10509600239500911B0A10911C0A0E94041E4AE0E7
:1050A60050E060E070E0860197010E943F2D342FAA
:1050B600305D282F2E5F00911B0A10911C0A0E945A
:1050C600041EA39549CF2596E0E10C94D82DE8EE71
:1050D600FEE00081118122813381023040E0140715
:1050E60040E0240740E0340770F0E8EEFEE000817F
:1050F60011812281338101501040204030400083CD
:10510600118322833383E091F60EF091F70E3297E6
:1051160040F0E6EFFEE0008111810150104000836F
:105126001183089523970E944C1C013008F440C057
:1051360007EE1EE00E94521C8E010E5F1F4F0E945A
:105146000E03E8EEFEE000811181228133810230F8
:1051560040E0140740E0240740E0340760F0E6E151
:10516600FAE00081118122813381E8EEFEE00083BE
:105176001183228333838E010E5F1F4F0E94130318
:105186004091E50E50E00EE010E00E94FD2CE4E6B2
:10519600F1E0E00FF11F0091E70E10E0000F111F84
:1051A600E00FF11F059114913197F801099553C04D
:1051B6008E010F5F1F4F0E940E03E8EEFEE0008196
:1051C600118122813381ECEEFEE00083118322837C
:1051D60033838E010F5F1F4F0E941303ECEEFEE038
:1051E6000081118122813381013040E0140740E0C3
:1051F600240740E0340701F58E010E940E0300E00B
:1052060010E020E030E0E8EEFEE000831183228328
:1052160033838E010E9413034091E50E50E00EE0A9
:1052260010E00E94FD2CF801E259FE4F0591149101
:105236003197F80109950FC04091E50E50E00EE058
:1052460010E00E94FD2CF801EC59FE4F05911491D7
:105256003197F8010995239608950E94D02DC8012B
:10526600622E532E442EB52FA62F6A2F5B2F442D68
:10527600352D262D8C0104D08C01E7E00C94E12D10
:105286000E94D02DD801622E832F542E452E962FA4
:10529600062DE6E9F0E0FBBFF3E00C946B2D09E385
:1052A600FD0105830AE3FD0104830BE3FD0106838B
:1052B6008CC009E3FD0105830AE3FD0104830BE3CA
:1052C600FD01068382C006E3FD01058307E3FD01B8
:1052D600048308E3FD01068378C006E3FD01058328
:1052E60007E3FD01048308E3FD0106836EC003E3C3
:1052F600FD01058304E3FD01048305E3FD01068347
:1053060064C003E3FD01058304E3FD01048305E3B3
:10531600FD0106835AC000E3FD01058301E3FD019B
:10532600048302E3FD01068350C000E3FD0105830B
:1053360001E3FD01048302E3FD01068346C001E2A9
:10534600FD01058302E2FD01048303E2FD010683FC
:105356003CC001E2FD01058302E2FD01048303E294
:10536600FD01068332C000E2FD01058301E6FD0171
:10537600048302E6FD01068328C000E2FD010583E1
:1053860001E6FD01048302E6FD0106831EC003E675
:10539600FD01058304E6FD01048305E6FD010683A0
:1053A60014C003E6FD01058304E6FD01048305E65A
:1053B600FD0106830AC003E3FD01058304E3FD0145
:1053C600048305E3FD01068383E0883040F4482F1B
:1053D60001E010E00E94052DFD01078303C001E0F6
:1053E600FD010783552051F0FD011781FD01048160
:1053F600E02FF0E00081012B00830AC0FD01178138
:105406001095FD010481E02FF0E000810123008367
:10541600FD011781FD010681E02FF0E00081012BDF
:10542600008300E010E0FD01018712870D931C93B5
:10543600119700E0FD010283FD0143828D010D5F9E
:105446001F4FFD0103871487983040F4492F01E070
:1054560010E00E94052DFD01008703C001E0FD015B
:105466000087E7E00C94E12DF8012581E22FF0E0BA
:105476002081F80137812323222319F0F8010085C2
:10548600089500E008950E94CF2DD801722E832F33
:10549600642E2B01952FFD019183FD0143825482D9
:1054A600FD01658200E00C93072DE4ECF0E0FBBF04
:1054B600F3E00C946B2D09E3FD0107830AE3FD017C
:1054C60006830BE3FD0100878CC009E3FD0107831A
:1054D6000AE3FD0106830BE3FD01008782C006E3B4
:1054E600FD01078307E3FD01068308E3FD0100874D
:1054F60078C006E3FD01078307E3FD01068308E3A1
:10550600FD0100876EC003E3FD01078304E3FD018F
:10551600068305E3FD01008764C003E3FD010783FD
:1055260004E3FD01068305E3FD0100875AC000E39D
:10553600FD01078301E3FD01068302E3FD01008708
:1055460050C000E3FD01078301E3FD01068302E38A
:10555600FD01008746C001E2FD01078302E2FD016D
:10556600068303E2FD0100873CC001E2FD010783DB
:1055760002E2FD01068303E2FD01008732C000E27C
:10558600FD01078301E6FD01068302E6FD010087B2
:1055960028C000E2FD01078301E6FD01068302E65D
:1055A600FD0100871EC003E6FD01078304E6FD0139
:1055B600068305E6FD01008714C003E6FD010783A7
:1055C60004E6FD01068305E6FD0100870AC003E641
:1055D600FD01078304E6FD01068305E6FD0100875C
:1055E60084E0883008F080E0482F01E010E00E9457
:1055F600052DFD010187FD0111851095FD0106812F
:10560600E02FF0E0008101230083FD011185FD01FB
:105616000085E02FF0E01083FD010781E02FF0E028
:105626000081FD0111850123002311F001E001C075
:1056360000E01C910127FD010287FD010285002380
:1056460029F0FD010581FD01038703C000E0FD018E
:1056560003878D0104D08D01E8E00C94E02DBA9308
:10566600AA93D801FD010781E02FF0E00081FD013A
:10567600118501231C910127002349F1FD010385B2
:10568600FD011581011720F4FD01038503950387AC
:10569600FD010385FD0115810117E8F1FD01028574
:1056A6000023C9F501E0FD010287FD012381348154
:1056B60000E010E02017310771F1FD011181FD01B5
:1056C60002851396ED91FC911497099524C0FD016E
:1056D6000385013020F0FD0103850A950387FD014E
:1056E60003850023C1F4FD0102850023A1F000E03B
:1056F600FD010287FD012381348100E010E02017BF
:10570600310749F0FD011181FD0102851396ED91E6
:10571600FC9114970995A991B9910895F80102850C
:10572600089528E630E08901012F10E000939000EB
:10573600022F09B900E000939500009195000F7EB5
:1057460000939500009195000F7D009395000091C0
:105756009500026000939500009195000460009307
:105766009500529800919500077F0093950000E000
:105776000093870F0093860F0093850F0093840F85
:105786000093830F0093820F0093010F0093000F85
:1057960000E00AB9579A549A539A569A0895FA937A
:1057A600EA935A934A933A932A931A930A934FB7D2
:1057B6005BB70CB1202FE0E0FFE00081017003959C
:1057C6000170302F0091010F301721F401E0009392
:1057D600850F11C000E00093850F3093000F0091F4
:1057E600000F10E0F801E250F14F20830091840F82
:1057F60003950093840F5BBF4FBF099119912991BF
:10580600399149915991E991F9911895FA93EA9349
:105816004A933A932A931A930A933FB74BB7109138
:10582600820F2091830F1217A1F01091830F139509
:105836001F77012F0093830F509A10E0F801EE5F57
:10584600F04F10811CB91091860F1A951093860F90
:1058560004C0559810E01093860F4BBF3FBF0991C7
:105866001991299139914991E991F9911895402F0A
:105876001FB7512FF8941091820F13951F77212F80
:105886001091830F211729F411E01093870F00E080
:105896000EC030E0F901EE5FF04F40832093820F97
:1058A600559A1091860F13951093860F01E05FBFEE
:1058B60008953FB7F89418E10FE011BD01BD3FBF51
:1058C60008951FB7F894A8951FBF089520E030E00B
:1058D60000E10E94722C01E010E00C94732C0895F4
:1058E6002297C801888399839E0101E00E94722C49
:1058F600F9CF0C94732C0E94CC2D4801A22EDA010C
:10590600962F82E024016A2C0BC002E0400E511E45
:10591600611E823099F002E0400E00E0501E601ECB
:105926004A165B06690689F0F2016BBE47915691ED
:1059360010E04030504049F3823069F3F2016BBE0B
:105946000791F691E02F0995E6CF8A95D9F6EBE017
:105956000C94DD2D0FEF0DBF08E00EBFC0E0D3E0C5
:105966000E94ED2D002311F00E941E2E02EF13E07F
:1059760020E046EF53E060E00E947E2C0E94731FF9
:105986000E94ED2C0C947C2CE199FECF08954F5F7C
:105996005F4FFADF4EBB5FBBE09A0895FADF0DB3A7
:1059A6000895F7DF0DB3F3DF1DB308954F5F5F4F23
:1059B6004EBB5FBBF894E29AE19A0FBE08950FB60C
:1059C600E3DF0DBBF5CF0FB6DFDF0DBBF1DFDCDFAD
:1059D6001DBBECCF0C947C2C0024E8E0EA9532F059
:1059E600001F001C0416D0F3041AF8CF001F402D28
:1059F60000950895149F102D059F100D049F002DEE
:105A0600110D08954A951AF0000F111FFBCF089546
:105A160000241124EFE0001F111F001C111C0416A6
:105A2600150610F0041A150AEA95AAF7001F111FA9
:105A3600A0010095109508952224349F302D259FAE
:105A4600300D169F300D079F300D249F202D310DF0
:105A5600159F200D311D069F200D311D149F102D01
:105A6600210D321D059F100D211D321D049F002D95
:105A7600110D221D321D0895002411241001E0E2AB
:105A8600EA9592F0001F111F221F331F001C111CE4
:105A9600221C331C041615062606370688F3041A3C
:105AA600150A260A370AECCF001F111F221F331FC3
:105AB600A001B10100951095209530950895779134
:105AC600679157914791179011FA2790379008954B
