:020000020000FC
:100000000C94642F189518951895189518951895AF
:100010001895189518951895189518951895189578
:10002000189518950C9467021895189518951895B9
:100030001895189518951895189518950C94E4022C
:1000400018951895189518950C94892E0C94C02E17
:100050001895189518951895189518951895189538
:100060001895189518951895189518951895189528
:100070001895189518951895189518951895189518
:10008000189518951895189518951895B81A030489
:100090000304CA1AEF040304FD04500503046905B0
:1000A000DE0582054F120304030403040304030462
:1000B000030403040304030403040304010201030F
:1000C000010201040102010301020100474D206306
:1000D0006F646500D9DA20202020202020202020F5
:1000E0002020202020202020202020202020202010
:1000F0002020202020202020202020202020202000
:1001000020202020A2B520202020202020202020D8
:100110002020202041A042A1E045A3A4A5A64BA7F2
:100120004D484FA8504354A9AA58E1ABACE2ADAE3C
:1001300062AFB0B161B2B3B4E365B6B7B8B9BABB38
:10014000BCBD6FBE7063BF79E478E5C0C1E6C2C3D1
:10015000C4C5C6C70609090600000000060F0F0641
:1001600000000000B320B320B320B320B320B3209D
:10017000B320ED20B220B220B220B220B220B320B2
:100180007B215422B220B220B220B2204621B220DC
:100190004F23CD22EA220723552354229C23B22049
:1001A000B220B220B220B2206523F7235D245F2461
:1001B0006A2475245523C223B220D9241625332559
:1001C000502555239924B2209C259E25A025B22098
:1001D00055236B25B2203A263C26672692265523C6
:1001E000B325B220D026D226D426B22055239F266E
:1001F000CC274621B220B220B220B220A027B220C4
:1002000046216727832762275F27E526B220C2237E
:10021000092A192A2B2A4621A329B220B220662AAC
:100220005C2AB22046212B2AB220B220B82AC72A43
:10023000B2204621682AB220B2200F2B072BB22011
:100240004621D62A0302040601537475636B2020ED
:100250002020200053656E736F7273203A20004C8B
:100260003D202020202020004572726F7220202027
:100270000053656E736F72733A004C3D3F2020202F
:100280002020202020202020202000496E7075741E
:100290002070617373776F72643A00506173737783
:1002A0006F7264206572726F7221004D656E753ACF
:1002B0000044697374616E636520746F205331204C
:1002C000200044697374616E636520746F2053323B
:1002D00020200044697374616E636520746F20533D
:1002E0003320200044697374616E636520746F204D
:1002F000533420200044697374616E636520746F09
:1003000020533520200044697374616E6365207446
:100310006F20533620200044697374616E6365203A
:10032000746F20533720200044697374616E6365D5
:1003300020746F2053382020004465627567207355
:100340006372207370656564200044656275672080
:100350006F7574204441432020200053657420258C
:100360006C6576656C2073706565640053657420F8
:1003700073656E7343727574636865730053657457
:10038000206E65772070617373776F7264005365B8
:10039000742070617373776F72643A00536176658D
:1003A0003F20282D2F2B290044697374616E6365EB
:1003B00020746F205300536176653F20282D2F2B2A
:1003C00029004465627567204F75742044414300DD
:1003D00031363030306D6D2D32302E3030306D4151
:1003E00000537562205370656564006C6576656CBA
:1003F0003D3230302E302500536176653F20282D68
:100400002F2B2900437275746368657320546169EA
:100410006C0066726F6D2073656E736F723D330092
:100420004101852C032C01172C012B2C013F2C01A1
:10043000532C01672C017B2C1AF92B010D2C012167
:100440002C01352C01492C015D2C01712CFB410143
:10045000A12D1F2D01332D01472D015B2D016F2D86
:1004600001832D01972D1A152D01292D013D2D01F7
:10047000512D01652D01792D018D2DFB9D02D61B7E
:1004800000E005BD05B5086005BD05B50F7B05BDE0
:1004900005B50F7D05BD05B50F7E05BD05B50B7F07
:1004A00005BD05B5026005BD05B5016005BD01D0FE
:1004B000089500E004BD0CE703BD06B70F7706BF43
:1004C00006B70F7B06BF07B7006807BF08959A936A
:1004D0008A93FA93EA933A922A921A920A927A9318
:1004E0006A935A934A933A932A931A930A938FB72B
:1004F0009BB707B70F7707BF789400911D0A10913B
:100500001E0A0E94FF1D0E94751D0E94112B0E9451
:100510000B03CFDF9BBF8FBF0991199129913991AF
:10052000499159916991799109901990299039903F
:10053000E991F9918991999118950FE210E00E9443
:10054000C8309801012B41F089010E947B1D009366
:100550001D0A10931E0A089500E010E000931D0A82
:1005600010931E0A08950E9440020E94C4020E9435
:100570004B2E0E945C030E94BE0208950E94FF1A47
:1005800008950E941F04089503B7046003BF03B7D2
:100590000D7F03BF03B70E7F03BF03B70F7B03BFFE
:1005A00003B7086003BF03B70F7D03BF03B70F7E18
:1005B00003BF03B70F7703BF00E002BF01E301BF32
:1005C00007B7026007BF08959A938A93FA93EA9354
:1005D0003A922A921A920A927A936A935A934A9377
:1005E0003A932A931A930A938FB79BB70E944F03AB
:1005F0009BBF8FBF099119912991399149915991C7
:10060000699179910990199029903990E991F9911E
:100610008991999118950895EFE1FAE0008111818F
:100620000F5F1F4F0083118300911F0A1091200A52
:10063000083823E1120790F100E010E000931F0A50
:100640001093200A01E00093250A0091210A0395E6
:100650000093210A0091210A0C3300F100E000937D
:10066000210A0091220A03950093220A0091220A8E
:100670000C33A0F000E00093220A0091230A0395B6
:100680000093230A0091230A083140F000E0009310
:10069000230A0091240A03950093240A08950E94D6
:1006A000C102BADF08952FB7F8012083F8940895A6
:1006B000F80120812FBF0895219705E00A3040F40A
:1006C00020E010E0F801E050F74F20830395F6CFCB
:1006D0008E010E94530300E010E000931F0A109364
:1006E000200A00E00093210A00E00093220A00E0C3
:1006F0000093230A00E00093240A01E00093250AF6
:100700008E010E945803219608950E94AC30D801B2
:100710000FEF80E090E08217930764F410E04C91B3
:1007200050E004271527F801E65FF64F0081119687
:100730000196F1CFE4E00C94BD30C69AC69AC79AF0
:10074000949A959ABE9ABE9ABF9A8C9A8D9A0FE304
:100750001CE901501040E9F700C000009598089589
:10076000B80100E010E0BE9ABF9A8C9A8D9AC798A3
:100770002AE02A95F1F700C094982AE02A95F1F72B
:1007800000C040E0403110F577FB16F421E001C0D5
:1007900020E020FB28B326F928BB2AE02A95F1F7B0
:1007A00000C0C79A2AE02A95F1F700C0000F111F78
:1007B000C69B03C0016021E030E0C798660F771F39
:1007C0002AE02A95F1F700C04395DCCF949A2AE0FD
:1007D0002A95F1F700C008959A938A93C801ADDF76
:1007E0008C0120E030E04FEF5FE960E070E00E94B4
:1007F000D62F40E157E260E070E00E94F62FB0DFB4
:10080000899199910895089521978E010E9453032B
:1008100000E000933D0A8E010E945803219608953E
:100820008A9321978E010E94530300913D0A802FE5
:100830008E010E945803082F2196899108950E94E5
:10084000C11B0091CA0A10E0000F111F000F111FF9
:10085000F801E257FF4F059114913197F80109957E
:10086000089521978E010E9453030091CA0A10E057
:10087000000F111F000F111FF801E457FF4F0591E2
:1008800014913197F8010995E9E2FAE000811181AC
:10089000228133810093260A1093270A00913E0A91
:1008A0000093280A8E010E945803219608958A9386
:1008B00021978E010E9453030091CA0A802F8E0156
:1008C0000E945803082F2196899108950E94AC3008
:1008D000602F212F422F01E010E00E94BC2F1091C9
:1008E0003D0A102B10933D0A30E0F901E05FF54F0F
:1008F00060830091C40A002309F46EC030E0422FE7
:1009000050E008E010E00E94B42FE0E4FAE0E00FCD
:10091000F11F062F10E0000F111F000F111FE00F35
:10092000F11F0080118022803380012802280328D3
:1009300019F4662309F431E0613019F4222309F433
:1009400031E0613059F4213048F0022F10E0F80115
:10095000E15FF54F0081002309F031E03323E1F13D
:1009600088EF94E2A1E0B0E0ECE0FAE080839183CC
:10097000A283B383E0ECFAE080819181A281B3810C
:10098000422F50E008E010E00E94B42FE0E4FAE0CB
:10099000E00FF11F062F10E0000F111F000F111FB5
:1009A000E00FF11F80839183A283B383422F01E084
:1009B00010E00E94BC2F10913F0A102B10933F0AA9
:1009C00040910B0A542F550F550B022F10E0401782
:1009D000510714F420930B0AE4E00C94BD3000EAB4
:1009E0001BEB2DE030E0E5ECFAE00083118322837D
:1009F000338303E00093CA0A08950E94AC300E943A
:100A0000E11A0023F1F10E94FC1A40E0483010F591
:100A100060E06230E8F400E010E020E030E0C8017F
:100A2000D90150E008E010E00E94B42FE0E4FAE0C1
:100A3000E00FF11F062F10E0000F111F000F111F14
:100A4000E00FF11F80839183A283B3836395E1CF8D
:100A50004395DCCF01E010E020E030E0E0ECFAE08C
:100A6000008311832283338300E000933F0A0FEF5A
:100A700000930B0A01E00093C40A04E00093CA0A41
:100A80000CC0E5ECFAE00081118122813381012B59
:100A9000022B032B11F40E94F91AE4E00C94BD30F0
:100AA000E5ECFAE00081118122813381012B022BD8
:100AB000032B71F0E5ECFAE0008111812281338192
:100AC0000150104020403040008311832283338343
:100AD000089500913D0A0023A1F000E00093C90AA7
:100AE00040910B0A439501E010E00E94BC2F0A954B
:100AF00010913F0A1095012300933E0A05E00093F0
:100B0000CA0A0895ECE0FAE0008111812281338164
:100B1000012B022B032BF1F1ECE0FAE000811181B3
:100B200022813381015010402040304000831183E6
:100B300022833383E0ECFAE000811181228133814A
:100B40000F5F1F4F2F4F3F4F00831183228333834B
:100B50000E94E11A002389F101E00093C90AE0E450
:100B6000FAE000A911A922A933A9012B022B032B1A
:100B700021F1E0E4FAE000AD11AD22AD33AD012B7F
:100B8000022B032BD1F006E00093CA0A00E0009389
:100B9000C40A08950091C90A002339F006E00093C1
:100BA000CA0A00E00093C40A089500E00093C40A52
:100BB0000E94F91A06E00093CA0A089500913D0ABE
:100BC000002379F040910B0A439501E010E00E9468
:100BD000BC2F0A9510913F0A1095012300933E0AFD
:100BE000089500E000933E0A08950E94AA30D801BB
:100BF000C901A817B9071CF42D01DC01C2018D0140
:100C0000212F220F220B322F48EE53E060E070E0DC
:100C10000E94D62FAC01652F660F660B762F0E94BF
:100C20001930085E134028018201E6E00C94BB30C5
:100C30000E94A030EB974FAB58AF69AF7AAF3883C3
:100C4000302E312F522EFE01FF96E684F784FE01EE
:100C5000FF96C088D188FE01FF966288738860E0A5
:100C6000232E032F0A95402E422D542F550F550B3E
:100C7000052D10E0401751070CF0D4C044200AF4B1
:100C8000D1C0022D102F110F110BF801E25EF04FB1
:100C90004081542F550F550B08E010E00E94B42FEF
:100CA000F801E05CF54F80819181A281B381892BAD
:100CB0008A2B8B2B09F4B6C0042D102F110F110BAA
:100CC000F801E25EF04F4081542F550F550B08E0BC
:100CD00010E00E94B42FF801E05CF54F8081918113
:100CE000A281B381892B8A2B8B2B09F49BC0FE0137
:100CF0003196462F50E009E010E00E94B42FE00F3B
:100D0000F11F4682FE013196462F50E009E010E0C7
:100D10000E94B42FE00FF11F2782022D102F110F18
:100D2000110BF801E25EF04F0081E02FFE2FFF0F64
:100D3000FF0BEE0FFF1F40E050E04E0F5F1F0E94C1
:100D40008B2F0801042D102F110F110BF801E25EFB
:100D5000F04F0081E02FFE2FFF0FFF0BEE0FFF1F64
:100D600040E050E04E0F5F1F0E948B2F001A110AC7
:100D7000C001FE013196462F50E009E010E00E94CC
:100D8000B42FE00FF11F80839183022D102F110FDC
:100D9000110BF801E25EF04F4081542F550F550BB7
:100DA00008E010E00E94B42FF801E05CF54F80816C
:100DB0009181A281B381042D102F110F110BF80125
:100DC000E25EF04F0080102C110C110848E050E05A
:100DD00080010E94B42FF801E05CF54F8080918083
:100DE000A280B38088199909AA09BB09FE0131962E
:100DF000062E112449E050E080010E94B42FE00F3C
:100E0000F11F82839383A483B58321E0FE01319691
:100E1000462F50E009E010E00E94B42FE00FF11FD0
:100E200020876395232C032D0A95402E422D542FA5
:100E3000550F550B052D10E0401751070CF0D4C08D
:100E400044200AF4D1C0022D102F110F110BF8010C
:100E5000E25EF04F4081542F550F550B08E010E033
:100E60000E94B42FF801E05CF54F84819581A68142
:100E7000B781892B8A2B8B2B09F4B6C0042D102F38
:100E8000110F110BF801E25EF04F4081542F550F06
:100E9000550B08E010E00E94B42FF801E05CF54F1C
:100EA00084819581A681B781892B8A2B8B2B09F4AC
:100EB0009BC0FE013196462F50E009E010E00E94F1
:100EC000B42FE00FF11F4682FE013196462F50E00D
:100ED00009E010E00E94B42FE00FF11F2782022DDD
:100EE000102F110F110BF801E25EF04F0081E02F7F
:100EF000FE2FFF0FFF0BEE0FFF1F40E050E04E0FE5
:100F00005F1F0E948B2F0801042D102F110F110B52
:100F1000F801E25EF04F0081E02FFE2FFF0FFF0B84
:100F2000EE0FFF1F40E050E04E0F5F1F0E948B2F1F
:100F3000001A110AC001FE013196462F50E009E067
:100F400010E00E94B42FE00FF11F80839183022DE7
:100F5000102F110F110BF801E25EF04F4081542F5A
:100F6000550F550B08E010E00E94B42FF801E05C2B
:100F7000F54F84819581A681B781042D102F110F23
:100F8000110BF801E25EF04F0080102C110C1108DB
:100F900048E050E080010E94B42FF801E05CF54F7A
:100FA00084809580A680B78088199909AA09BB0911
:100FB000FE013196062E112449E050E080010E9486
:100FC000B42FE00FF11F82839383A483B58320E0C5
:100FD000FE013196462F50E009E010E00E94B42F48
:100FE000E00FF11F20876395032F0395202E432EDA
:100FF000422D542F550F550B052D10E0401751076A
:101000000CF0D4C044200AF4D1C0022D102F110FCF
:10101000110BF801E25EF04F4081542F550F550B34
:1010200008E010E00E94B42FF801E05CF54F8081E9
:101030009181A281B381892B8A2B8B2B09F4B6C0B5
:10104000042D102F110F110BF801E25EF04F4081BB
:10105000542F550F550B08E010E00E94B42FF801F3
:10106000E05CF54F80819181A281B381892B8A2B2D
:101070008B2B09F49BC0FE013196462F50E009E00E
:1010800010E00E94B42FE00FF11F4682FE0131965E
:10109000462F50E009E010E00E94B42FE00FF11F4E
:1010A0002782022D102F110F110BF801E25EF04F75
:1010B0000081E02FFE2FFF0FFF0BEE0FFF1F40E020
:1010C00050E04E0F5F1F0E948B2F0801042D102F40
:1010D000110F110BF801E25EF04F0081E02FFE2F9F
:1010E000FF0FFF0BEE0FFF1F40E050E04E0F5F1FA2
:1010F0000E948B2F001A110AC001FE013196462F63
:1011000050E009E010E00E94B42FE00FF11F80834F
:101110009183022D102F110F110BF801E25EF04F99
:101120004081542F550F550B08E010E00E94B42F5A
:10113000F801E05CF54F80819181A281B381042D9B
:10114000102F110F110BF801E25EF04F0080102CF0
:10115000110C110848E050E080010E94B42FF80102
:10116000E05CF54F80809180A280B3808819990956
:10117000AA09BB09FE013196062E112449E050E070
:1011800080010E94B42FE00FF11F82839383A48318
:10119000B58321E0FE013196462F50E009E010E0D2
:1011A0000E94B42FE00FF11F20876395232E032F99
:1011B0000250402E422D542F550F550B052D10E097
:1011C000401751070CF0D4C044200AF4D1C0022DBE
:1011D000102F110F110BF801E25EF04F4081542FD8
:1011E000550F550B08E010E00E94B42FF801E05CA9
:1011F000F54F80819181A281B381892B8A2B8B2B22
:1012000009F4B6C0042D102F110F110BF801E25E86
:10121000F04F4081542F550F550B08E010E00E940D
:10122000B42FF801E05CF54F80819181A281B381F8
:10123000892B8A2B8B2B09F49BC0FE013196462FFC
:1012400050E009E010E00E94B42FE00FF11F468249
:10125000FE013196462F50E009E010E00E94B42FC5
:10126000E00FF11F2782022D102F110F110BF80133
:10127000E25EF04F0081E02FFE2FFF0FFF0BEE0F1D
:10128000FF1F40E050E04E0F5F1F0E948B2F0801B0
:10129000042D102F110F110BF801E25EF04F0081A9
:1012A000E02FFE2FFF0FFF0BEE0FFF1F40E050E07F
:1012B0004E0F5F1F0E948B2F001A110AC001FE0102
:1012C0003196462F50E009E010E00E94B42FE00F65
:1012D000F11F80839183022D102F110F110BF80144
:1012E000E25EF04F4081542F550F550B08E010E09F
:1012F0000E94B42FF801E05CF54F80819181A281BA
:10130000B381042D102F110F110BF801E25EF04F85
:101310000080102C110C110848E050E080010E9460
:10132000B42FF801E05CF54F80809180A280B380FB
:1013300088199909AA09BB09FE013196062E1124C4
:1013400049E050E080010E94B42FE00FF11F82833A
:101350009383A483B58320E0FE013196462F50E0AD
:1013600009E010E00E94B42FE00FF11F2087639581
:10137000032D0395202E432C422D542F550F550B32
:10138000052D10E0401751070CF0D4C044200AF49A
:10139000D1C0022D102F110F110BF801E25EF04F9A
:1013A0004081542F550F550B08E010E00E94B42FD8
:1013B000F801E05CF54F84819581A681B781892B86
:1013C0008A2B8B2B09F4B6C0042D102F110F110B93
:1013D000F801E25EF04F4081542F550F550B08E0A5
:1013E00010E00E94B42FF801E05CF54F84819581F4
:1013F000A681B781892B8A2B8B2B09F49BC0FE0118
:101400003196462F50E009E010E00E94B42FE00F23
:10141000F11F4682FE013196462F50E009E010E0B0
:101420000E94B42FE00FF11F2782022D102F110F01
:10143000110BF801E25EF04F0081E02FFE2FFF0F4D
:10144000FF0BEE0FFF1F40E050E04E0F5F1F0E94AA
:101450008B2F0801042D102F110F110BF801E25EE4
:10146000F04F0081E02FFE2FFF0FFF0BEE0FFF1F4D
:1014700040E050E04E0F5F1F0E948B2F001A110AB0
:10148000C001FE013196462F50E009E010E00E94B5
:10149000B42FE00FF11F80839183022D102F110FC5
:1014A000110BF801E25EF04F4081542F550F550BA0
:1014B00008E010E00E94B42FF801E05CF54F848151
:1014C0009581A681B781042D102F110F110BF80102
:1014D000E25EF04F0080102C110C110848E050E043
:1014E00080010E94B42FF801E05CF54F8480958064
:1014F000A680B78088199909AA09BB09FE0131960F
:10150000062E112449E050E080010E94B42FE00F24
:10151000F11F82839383A483B58321E0FE0131967A
:10152000462F50E009E010E00E94B42FE00FF11FB9
:10153000208763950881002311F071E001C070E0FD
:1015400020E0261708F045C0FE013196422F50E0FA
:1015500009E010E00E94B42FE00FF11F0085002386
:10156000C1F08FA998ADA9ADBAADFE013196022E9A
:10157000112449E050E080010E94B42FE00FF11FD8
:1015800082809380A480B58088159905AA05BB0543
:10159000F0F4FE013196422F50E009E010E00E9485
:1015A000B42FE00FF11F808191814E96FE0131969C
:1015B000072E112449E050E080010E94B42FE00F73
:1015C000F11F008111818017910708F4722F239574
:1015D000B8CFFE013196472F50E009E010E00E949D
:1015E000B42FE00FF11F00811181F60100831183F8
:1015F000FE013196472F50E009E010E00E94B42F21
:10160000E00FF11F82819381A481B581F301808372
:101610009183A283B383FE013196472F50E009E006
:1016200010E00E94B42FE00FF11F0681DE01A55BE0
:10163000BF4FED91FC910083FE013196472F50E0A2
:1016400009E010E00E94B42FE00FF11F0781F701BD
:101650000083EB96E8E10C94B1300E94A03028970B
:10166000C02EA12EE22E00911D0F043610F001E0D5
:1016700001C1CC2042F00A2D102F110F110BFF24B5
:101680000E151F0514F000E0F5C0BB240A2D102F25
:10169000110F110BF801E25EF04F0081102F110FB6
:1016A000110B000F111F40E050E0400F511F0E942E
:1016B0008B2FB801DC2CDD0CDD08F601E25EF04F6B
:1016C0000081102F110F110B000F111F40E050E08F
:1016D000400F511F0E948B2F601B710B4B01DC2CA4
:1016E000DD0CDD08F601E25EF04F4081542F550F0E
:1016F000550B08E010E00E94B42FF801E05CF54FB4
:1017000044805580668077800A2D102F110F110BB1
:10171000F801E25EF04F4081542F550F550B08E061
:1017200010E00E94B42FF801E05CF54F00811181B8
:1017300022813381401A510A620A730AC201D3011D
:101740008E010C5F1F4F1A930A938E010C5F1F4F7F
:101750001A930A938E010C5F1F4F1A930A938E01FE
:10176000095F1F4F1A930A9331E0AC01BD012E2D82
:101770001A2D0C2D5DDA0A811B8120E030E0AC01CE
:10178000BD010E94D62F4C815D816E817F810E94B8
:10179000F62FC801D90121E040911D0F50E00BE068
:1017A00010E00E94B42FF801EF52F54F20834091D2
:1017B0001D0F50E00BE010E00E94B42FF801EF5233
:1017C000F54FC28240911D0F50E00BE010E00E94E7
:1017D000B42FF801EF52F54FA382298140911D0FDC
:1017E00050E00BE010E00E94B42FF801EF52F54FEB
:1017F0002483288140911D0F50E00BE010E00E94EF
:10180000B42FF801EF52F54F25839C0140911D0F35
:1018100050E00BE010E00E94B42FF801EF52F54FBA
:10182000268337838C019401200F311F40911D0FB7
:1018300050E00BE010E00E94B42FF801EF52F54F9A
:101840002087318721E040911D0F50E00BE010E030
:101850000E94B42FF801EF52F54F228700911D0F1F
:10186000039500931D0F00911D0F043610F0BB244B
:10187000B3940B2D2896E0E10C94B1300E94A03077
:101880002897A02E812EE22E00911D0F043610F015
:1018900002E026C1AA2042F0082D102F110F110BD3
:1018A000FF240E151F0514F000E01AC19924BA2C6C
:1018B000BB0CBB08F501E25EF04F4081542F550F81
:1018C000550B08E010E00E94B42FF801E05CF54FE2
:1018D0004480558066807780082D102F110F110BE2
:1018E000F801E35EF04F4081542F550F550B08E08F
:1018F00010E00E94B42FF801E05CF54F00811181E7
:1019000022813381401A510A620A730AC201D3014B
:10191000813000E0900700E0A00700E0B0070CF481
:10192000DEC0082D102F110F110BF801E35EF04FF0
:101930000081102F110F110B000F111F40E050E01C
:10194000400F511F0E948B2FB801BA2CBB0CBB0853
:10195000F501E25EF04F0081102F110F110B000F07
:10196000111F40E050E0400F511F0E948B2F601B61
:10197000710B6B018E010C5F1F4F1A930A938E013E
:101980000C5F1F4F1A930A938E010C5F1F4F1A931F
:101990000A938E01095F1F4F1A930A9331E0AC013D
:1019A000BD012E2D182D1A950A2D42D90A811B81B1
:1019B00020E030E0AC01BD010E94D62F4AE050E0AB
:1019C00060E070E00E94D62F4C815D816E817F8146
:1019D0000E94F62F0B5F1F4F2F4F3F4F4AE050E002
:1019E00060E070E00E94F62FC801D901860120E076
:1019F00030E080179107A207B3070CF070C023E016
:101A000040911D0F50E00BE010E00E94B42FF80150
:101A1000EF52F54F208340911D0F50E00BE010E096
:101A20000E94B42FF801EF52F54FA282282D2A957B
:101A300040911D0F50E00BE010E00E94B42FF80120
:101A4000EF52F54F2383298140911D0F50E00BE0A9
:101A500010E00E94B42FF801EF52F54F2483288143
:101A600040911D0F50E00BE010E00E94B42FF801F0
:101A7000EF52F54F25839C0140911D0F50E00BE084
:101A800010E00E94B42FF801EF52F54F2683378300
:101A90008C019601200F311F40911D0F50E00BE08B
:101AA00010E00E94B42FF801EF52F54F20873187E4
:101AB00021E040911D0F50E00BE010E00E94B42F98
:101AC000F801EF52F54F228700911D0F0395009307
:101AD0001D0F00911D0F043610F099249394092DC9
:101AE0002896E0E10C94B1300E94A0302897C02ED7
:101AF000A12EE22E00911D0F043610F002E023C14A
:101B0000CC2042F00A2D102F110F110BFF240E15BF
:101B10001F0514F000E017C1BB240A2D102F110F70
:101B2000110BF801E25EF04F4081542F550F550B19
:101B300008E010E00E94B42FF801E05CF54F40800F
:101B4000518062807380DC2CDD0CDD08F601E25EE2
:101B5000F04F4081542F550F550B08E010E00E94C4
:101B6000B42FF801E05CF54F04811581268137819F
:101B7000401A510A620A730AC201D301813000E09F
:101B8000900700E0A00700E0B0070CF4DBC00A2DCE
:101B9000102F110F110BF801E25EF04F0081102F92
:101BA000110F110B000F111F40E050E0400F511FAB
:101BB0000E948B2FB801DC2CDD0CDD08F601E25E03
:101BC000F04F0081102F110F110B000F111F40E07B
:101BD00050E0400F511F0E948B2F601B710B4B0177
:101BE0008E010C5F1F4F1A930A938E010C5F1F4FDB
:101BF0001A930A938E010C5F1F4F1A930A938E015A
:101C0000095F1F4F1A930A9330E0AC01BD012E2DDE
:101C10001A2D0C2D0DD80A811B8120E030E0AC017B
:101C2000BD010E94D62F4AE050E060E070E00E94C3
:101C3000D62F4C815D816E817F810E94F62F0B5FD4
:101C40001F4F2F4F3F4F4AE050E060E070E00E948E
:101C5000F62FC801D901840120E030E080179107F8
:101C6000A207B3070CF06EC024E040911D0F50E0B6
:101C70000BE010E00E94B42FF801EF52F54F2083E3
:101C800040911D0F50E00BE010E00E94B42FF801CE
:101C9000EF52F54FC28240911D0F50E00BE010E073
:101CA0000E94B42FF801EF52F54FA3822981409191
:101CB0001D0F50E00BE010E00E94B42FF801EF522E
:101CC000F54F2483288140911D0F50E00BE010E078
:101CD0000E94B42FF801EF52F54F25839C014091EB
:101CE0001D0F50E00BE010E00E94B42FF801EF52FE
:101CF000F54F268337838C019401201B310B4091D3
:101D00001D0F50E00BE010E00E94B42FF801EF52DD
:101D1000F54F2087318722E040911D0F50E00BE006
:101D200010E00E94B42FF801EF52F54F2287009186
:101D30001D0F039500931D0F00911D0F043610F029
:101D4000BB24B3940B2D2896E0E10C94B1300E9493
:101D5000A0302897A02EC12EE22E00911D0F043630
:101D600010F002E026C1AA203AF0DC2CDD0CDD08E0
:101D7000FF24CE14DF0414F000E01BC1BB240A2DA5
:101D8000102F110F110BF801E25EF04F4181542F1B
:101D9000550F550B08E010E00E94B42FF801E05CED
:101DA000F54F4480558066807780DC2CDD0CDD08A3
:101DB000F601E25EF04F4081542F550F550B08E0BD
:101DC00010E00E94B42FF801E05CF54F0081118112
:101DD00022813381401A510A620A730AC201D30177
:101DE000813000E0900700E0A00700E0B0070CF4AD
:101DF000DFC0DC2CDD0CDD08F601E25EF04F008177
:101E0000102F110F110B000F111F40E050E0400F79
:101E1000511F0E948B2FB8010A2D102F110F110B8B
:101E2000F801E25EF04F0181102F110F110B000F2E
:101E3000111F40E050E0400F511F0E948B2F601B8C
:101E4000710B4B018E010C5F1F4F1A930A938E0189
:101E50000C5F1F4F1A930A938E010C5F1F4F1A934A
:101E60000A938E01095F1F4F1A930A9331E0AC0168
:101E7000BD012E2D1C2D0A2D03950E9418060A81E6
:101E80001B8120E030E0AC01BD010E94D62F4AE06A
:101E900050E060E070E00E94D62F4C815D816E8141
:101EA0007F810E94F62F0B5F1F4F2F4F3F4F4AE05D
:101EB00050E060E070E00E94D62FC801D901840193
:101EC00020E030E080179107A207B3070CF070C044
:101ED00026E040911D0F50E00BE010E00E94B42F6F
:101EE000F801EF52F54F20832A2D239540911D0FC5
:101EF00050E00BE010E00E94B42FF801EF52F54FD4
:101F0000228340911D0F50E00BE010E00E94B42F9F
:101F1000F801EF52F54FC382298140911D0F50E027
:101F20000BE010E00E94B42FF801EF52F54F24832C
:101F3000288140911D0F50E00BE010E00E94B42F6B
:101F4000F801EF52F54F25839C0140911D0F50E0A1
:101F50000BE010E00E94B42FF801EF52F54F2683FA
:101F600037838C019401200F311F40911D0F50E0E9
:101F70000BE010E00E94B42FF801EF52F54F2087DC
:101F8000318721E040911D0F50E00BE010E00E94EE
:101F9000B42FF801EF52F54F228700911D0F0395E2
:101FA00000931D0F00911D0F043610F0BB24B39455
:101FB0000B2D2896E0E10C94B1300E94A0302897B8
:101FC000C02EA12EE22E00911D0F043610F002E06B
:101FD00024C1CC2042F00A2D102F110F110BFF2429
:101FE0000E151F0514F000E018C1BB24DC2CDD0C1D
:101FF000DD08F601E25EF04F4081542F550F550B7E
:1020000008E010E00E94B42FF801E05CF54F448036
:102010005580668077800A2D102F110F110BF80163
:10202000E25EF04F4081542F550F550B08E010E051
:102030000E94B42FF801E05CF54F008111812281EC
:102040003381401A510A620A730AC201D3018130F6
:1020500000E0900700E0A00700E0B0070CF4DCC04F
:102060000A2D102F110F110BF801E25EF04F0081C5
:10207000102F110F110B000F111F40E050E0400F07
:10208000511F0E948B2FB801DC2CDD0CDD08F601FE
:10209000E25EF04F0081102F110F110B000F111F86
:1020A00040E050E0400F511F0E948B2F601B710BCE
:1020B0004B018E010C5F1F4F1A930A938E010C5F28
:1020C0001F4F1A930A938E010C5F1F4F1A930A93A6
:1020D0008E01095F1F4F1A930A9331E0AC01BD01D5
:1020E0002E2D1A2D0C2D0E9418060A811B8120E02E
:1020F00030E0AC01BD010E94D62F4AE050E060E024
:1021000070E00E94D62F4C815D816E817F810E949C
:10211000F62F0B5F1F4F2F4F3F4F4AE050E060E01C
:1021200070E00E94F62FC801D901840120E030E060
:1021300080179107A207B3070CF06EC027E040910B
:102140001D0F50E00BE010E00E94B42FF801EF5299
:10215000F54F208340911D0F50E00BE010E00E94EE
:10216000B42FF801EF52F54FC28240911D0F50E09D
:102170000BE010E00E94B42FF801EF52F54FA3825C
:10218000298140911D0F50E00BE010E00E94B42F18
:10219000F801EF52F54F2483288140911D0F50E044
:1021A0000BE010E00E94B42FF801EF52F54F2583A9
:1021B0009C0140911D0F50E00BE010E00E94B42FF5
:1021C000F801EF52F54F268337838C019401200FDD
:1021D000311F40911D0F50E00BE010E00E94B42F22
:1021E000F801EF52F54F2087318721E040911D0F14
:1021F00050E00BE010E00E94B42FF801EF52F54FD1
:10220000228700911D0F039500931D0F00911D0F54
:10221000043610F0BB24B3940B2D2896E0E10C9407
:10222000B1300E94A0302897A02E812EE22E00917E
:102230001D0F043610F002E02EC1EA2DFE2FFF0F15
:10224000FF0B319742F0082D102F110F110BFF24B7
:102250000E151F0514F000E01EC19924082D102F43
:10226000110F110BF801E35EF04F4081542F550F11
:10227000550B08E010E00E94B42FF801E05CF54F28
:102280004080518062807380BA2CBB0CBB08F50182
:10229000E35EF04F4081542F550F550B08E010E0DE
:1022A0000E94B42FF801E05CF54F0481158126816E
:1022B0003781401A510A620A730AC201D301813080
:1022C00000E0900700E0A00700E0B0070CF4E2C0D7
:1022D000082D102F110F110BF801E35EF04F008154
:1022E000102F110F110B000F111F40E050E0400F95
:1022F000511F0E948B2FB801BA2CBB0CBB08F501F3
:10230000E35EF04F0081102F110F110B000F111F12
:1023100040E050E0400F511F0E948B2F601B710B5B
:102320006B018E010C5F1F4F1A930A938E010C5F95
:102330001F4F1A930A938E010C5F1F4F1A930A9333
:102340008E01095F1F4F1A930A9330E0AC01BD0163
:102350002E2D182D1A950A2D0A950E9418060A810D
:102360001B8120E030E0AC01BD010E94D62F4AE085
:1023700050E060E070E00E94D62F4C815D816E815C
:102380007F810E94F62F0B5F1F4F2F4F3F4F4AE078
:1023900050E060E070E00E94F62FC801D90186018C
:1023A00020E030E080179107A207B3070CF072C05D
:1023B00028E040911D0F50E00BE010E00E94B42F88
:1023C000F801EF52F54F20832A2D2A9540911D0FD9
:1023D00050E00BE010E00E94B42FF801EF52F54FEF
:1023E0002283282D2A9540911D0F50E00BE010E02C
:1023F0000E94B42FF801EF52F54F238329814091B9
:102400001D0F50E00BE010E00E94B42FF801EF52D6
:10241000F54F2483288140911D0F50E00BE010E020
:102420000E94B42FF801EF52F54F25839C01409193
:102430001D0F50E00BE010E00E94B42FF801EF52A6
:10244000F54F268337838C019601201B310B409179
:102450001D0F50E00BE010E00E94B42FF801EF5286
:10246000F54F2087318722E040911D0F50E00BE0AF
:1024700010E00E94B42FF801EF52F54F228700912F
:102480001D0F039500931D0F00911D0F043610F0D2
:1024900099249394092D2896E0E10C94B1300E9480
:1024A000A030E69700E0083048F42FEFFE013396A5
:1024B00010E0E00FF11F20830395F5CF20E02830D6
:1024C00008F04DC0422F50E008E010E00E94B42F09
:1024D000F801E05CF54F80819181A281B381422FA8
:1024E00050E008E010E00E94B42FF801E058F54FEA
:1024F00080839183A283B383422F50E008E010E0F1
:102500000E94B42FF801E05CF54F84819581A6818B
:10251000B781422F50E008E010E00E94B42FF8018C
:10252000E058F54F84839583A683B78342E150E05A
:102530000E94882F201788F080E090E0A0E0B0E0B3
:10254000422F50E008E010E00E94B42FF801E05C58
:10255000F54F84839583A683B7832395B0CFEE246C
:1025600000E000933E0A20E0283028F5422F50E09A
:1025700008E010E00E94B42FF801E05CF54F4081C4
:10258000518162817381452B462B472B41F0FE011F
:102590003396FF24EE0DFF1D2083E3940AC0422FE3
:1025A00001E010E00E94BC2F10913E0A102B109306
:1025B0003E0A2395D9CF04E0E01608F493C36DECEE
:1025C00078E143E050E028E030E08E01025E1F4FEA
:1025D0000E948631882499248E2D90E001978816D8
:1025E00099060CF0F9C0FE0133969924E80DF91D07
:1025F0000181102F110F110B000F111F40E050E04F
:10260000400F511F0E948B2F9801FE013396992491
:10261000E80DF91D0081102F110F110B000F111F74
:1026200040E050E0400F511F0E948B2F201B310BC8
:10263000A90160E070E008E813E120E030E00E94CA
:10264000D62F28013901FE0133969924E80DF91D92
:102650004181542F550F550B08E010E00E94B42F14
:10266000F801E05CF54F80819181A281B381FE0188
:1026700033969924E80DF91D4081542F550F550BC1
:1026800008E010E00E94B42FF801E05CF54F0081F3
:10269000118122813381AC01BD01401B510B620BC2
:1026A000730B820193010E94F62FEDECFAE0008398
:1026B000118322833383EDECFAE0008111812281C2
:1026C0003381083E43E0140740E0240740E034072C
:1026D00074F0EDECFAE00081118122813381093B35
:1026E0004BE0140740E0240740E034070CF072C0D0
:1026F000EDECFAE000811181228133810B5F1F4FE5
:102700002F4F3F4F4AE050E060E070E00E941930E8
:10271000EDECFAE000831183228333834AE050E03A
:1027200060E070E0EDECFAE00081118122813381FC
:102730000E94D62FEDECFAE00083118322833383CD
:1027400040E0483008F046C0FE017E9650E003E0CD
:1027500010E00E94B42FE00FF11F00811181012BC6
:10276000C1F0FE017E9650E003E010E00E94B42F1D
:10277000E00FF11F0081118120E030E0EDECFAE084
:102780000080118022803380001511052205330559
:10279000F9F4EDECFAE00081118122813381980196
:1027A000FE017E9650E003E010E00E94B42FE00F9F
:1027B000F11F20833183FE017E9650E003E010E09C
:1027C0000E94B42FE00FF11F02810395028302C023
:1027D0004395B7CF8394FFCEFF2400E010E020E0C4
:1027E00030E0EDECFAE0008311832283338340E094
:1027F000483008F04BC0FE017E9650E003E010E048
:102800000E94B42FE00FF11F00811181012BF1F123
:10281000FE017E9650E003E010E00E94B42FE00F2E
:10282000F11F60817181FE017E9650E003E010E0AF
:102830000E94B42FE00FF11F22803324EDECFAE068
:10284000008111812281338150E0739D200D311D63
:10285000629D000D111D251F351F729D100D211D3C
:10286000351F369E100D211D351F008311832283D5
:102870003383FE017E9650E003E010E00E94B42F07
:10288000E00FF11F0281F00E4395B2CF4F2D50E0C3
:1028900060E070E0EDECFAE000811181228133818B
:1028A0000E941930EDECFAE0008311832283338318
:1028B00000E00093260F00E0083040F42FEF10E016
:1028C000F801E25EF04F20830395F6CF80E090E0C0
:1028D000EE2DF0E031978E179F070CF0C9C00091E4
:1028E000260F002309F0C4C0082F0395A02FEA2F5C
:1028F000F0E090E0E81BF90B35970CF0B7C0B0E0C2
:10290000EE2DF0E03197AE17BF070CF0AFC000918D
:10291000260F002309F0AAC0FE013396B0E0EA0FAB
:10292000FB1F0081102F110F110B000F111F40E032
:1029300050E0400F511F0E948B2FB801FE013396CB
:1029400090E0E80FF91F0081102F110F110B000FFD
:10295000111F40E050E0400F511F0E948B2F601B61
:10296000710B8B0120E030E048E853E160E070E05B
:102970000E94D62F48015901FE013396B0E0EA0FBC
:10298000FB1F4081542F550F550B08E010E00E94AB
:10299000B42FF801E05CF54F408051806280738075
:1029A000FE01339690E0E80FF91F4081542F550F38
:1029B000550B08E010E00E94B42FF801E05CF54FE1
:1029C0000081118122813381A201B301401B510B8F
:1029D000620B730B840195010E94F62F0E8B1F8BE7
:1029E000288F398F0E891F89288D398D9801A9016B
:1029F000EDECFAE000811181228133819A010E947D
:102A0000F50509831A8329813A8140E150E00E944B
:102A10008B2F2017310740F5FE01339690E0E80F29
:102A2000F91F20810091260F10E0F801E25EF04FBF
:102A300020830091260F03950093260FFE01339605
:102A4000B0E0EA0FFB1F20810091260F10E0F80193
:102A5000E25EF04F20830091260F03950093260F2E
:102A60000A2F0395088302C0A39541CF83952FCFEA
:102A70000881802E8E1408F013C10091260F10E0FB
:102A8000F801E35EF04F0081102F110F110B000FC2
:102A9000111F40E050E0400F511F0E948B2F980102
:102AA0000091260F10E0F801E45EF04F0081102F36
:102AB000110F110B000F111F40E050E0400F511F8C
:102AC0000E948B2F201B310BA90160E070E008E809
:102AD00013E120E030E00E94D62F28013901009157
:102AE000260F10E0F801E35EF04F4081542F550FA0
:102AF000550B08E010E00E94B42FF801E05CF54FA0
:102B000080819181A281B3810091260F10E0F801AC
:102B1000E45EF04F4081542F550F550B08E010E054
:102B20000E94B42FF801E05CF54F008111812281F1
:102B30003381AC01BD01401B510B620B730B820151
:102B400093010E94F62F0E8B1F8B288F398FFE0169
:102B500033969924E80DF91D0081102F110F110BE8
:102B6000000F111F40E050E0400F511F0E948B2FBB
:102B70009801FE0133969924E80DF91D31970081E3
:102B8000102F110F110B000F111F40E050E0400FEC
:102B9000511F0E948B2F201B310BA90160E070E0B8
:102BA00008E813E120E030E00E94D62F2801390127
:102BB000FE0133969924E80DF91D4081542F550FDD
:102BC000550B08E010E00E94B42FF801E05CF54FCF
:102BD00080819181A281B381FE0133969924E80D11
:102BE000F91D31974081542F550F550B08E010E027
:102BF0000E94B42FF801E05CF54F00811181228121
:102C00003381AC01BD01401B510B620B730B820180
:102C100093010E94F62F0A8F1B8F2C8F3D8F0A8DF8
:102C20001B8D2C8D3D8D98014E895F89688D798D26
:102C30008A010E94F50509831A830A8D1B8D2C8D4C
:102C40003D8D9801EDECFAE0408151816281738104
:102C50008A010E94F505680129813A8140E150E02E
:102C60000E948B2F20173107C8F440E150E00E94EA
:102C70008B2FC016D10690F4FE0133969924E80DEF
:102C8000F91D20810091260F10E0F801E25EF04F5F
:102C900020830091260F03950093260F8394EACE9C
:102CA000CC24DD2420E02830E0F4F601E25EF04F91
:102CB0000081102F110F110B30E00217130729F4B8
:102CC00001E0C00E00E0D01E0AC0422F01E010E07B
:102CD0000E94BC2F10913E0A102B10933E0A2395A0
:102CE000E2CFF3940091260F033090F482D402E0F7
:102CF0000093CA0A0AE010E020E030E0E9E2FAE0DE
:102D0000008311832283338301E000930A0A3DC2CA
:102D100000E000931D0F40911E0F542F550F550BCF
:102D200008E010E00E94B42FF801E05CF54F8481C8
:102D30009581A681B7810091260F10E0F801E35E2E
:102D4000F04F4081542F550F550B08E010E00E94C2
:102D5000B42FF801E05CF54F0081118122813381AD
:102D600080179107A207B30748F02091260F109112
:102D7000260F1A9500E00E942D0B7BC080E090E0AA
:102D8000E091260FF0E031978E179F070CF071C08D
:102D900000911D0F043608F06CC0082F0395A02F7A
:102DA0000091260FA01708F062C000911D0F043695
:102DB00008F05DC0B0E0FD01E25EF04F4081542FAD
:102DC000550F550B08E010E00E94B42FF801E05CAD
:102DD000F54F408051806280738090E0FC01E25E9C
:102DE000F04F4081542F550F550B08E010E00E9422
:102DF000B42FF801E05CF54F0481158126813781FD
:102E0000401651066206730640F4B0E0E091260FCA
:102E1000F0E03197AE17BF0744F12091260F1A2F2B
:102E2000082F0E943E0C002311F52091260F1A2F27
:102E3000082F0E94740D0023D1F42091260F1A2F21
:102E4000082F0E94A70E002391F42091260F1A2F1D
:102E5000082F0E94DD0F002351F42091260F1A2F16
:102E6000082F0E941111002311F4A39599CF839587
:102E700086CF31E0332309F45FC030E021E00091D8
:102E80001D0F2017B8F7422F50E00BE010E00E9412
:102E9000B42FF801EF52F54F66817781422F50E051
:102EA0000BE010E00E94B42FF801E453F54F0081CD
:102EB000118160177107F0F5BE01655F7F4FE6EC89
:102EC000FAE0422F50E00BE010E00E94B42FE00F38
:102ED000F11F8B014BE050E00E94893066EC7AE0F4
:102EE000422F50E00BE010E00E94B42F600F711FE2
:102EF000422F50E00BE010E00E94B42FE1EDFAE029
:102F0000E00FF11F8B014BE050E00E948930422F0F
:102F100050E00BE010E00E94B42F61ED7AE0600F0A
:102F2000711FFE013B968B014BE050E00E948930FF
:102F300031E0A0CF2395A3CF31E0332309F4D2C0F1
:102F400030E021E000911D0F2017B8F7422F50E02C
:102F50000BE010E00E94B42FF801EF52F54F86818C
:102F600097810597422F50E00BE010E00E94B42FAC
:102F7000F801E453F54F008111818017910708F0A3
:102F8000AFC0422F50E00BE010E00E94B42FF801D8
:102F9000EF52F54F058110E0F801E25EF04F00813D
:102FA000102F110F110B000F111F40E050E0400FC8
:102FB000511F0E948B2FB801422F50E00BE010E010
:102FC0000E94B42FF801EF52F54F048110E0F80190
:102FD000E25EF04F0081102F110F110B000F111F37
:102FE00040E050E0400F511F0E948B2F601B710B7F
:102FF000422F50E00BE010E00E94B42FF801E5539F
:10300000F54F008110E0F801E25EF04F0081102FD3
:10301000110F110B000F111F40E050E0400F511F26
:103020000E948B2F1801422F50E00BE010E00E940D
:10303000B42FF801E653F54F008110E0F801E25E8D
:10304000F04F0081102F110F110B000F111F40E0E6
:1030500050E0400F511F0E948B2F201A310A621539
:103060007305F0F5BE01655F7F4FE6ECFAE0422F95
:1030700050E00BE010E00E94B42FE00FF11F8B0135
:103080004BE050E00E94893066EC7AE0422F50E03D
:103090000BE010E00E94B42F600F711F422F50E030
:1030A0000BE010E00E94B42FE1EDFAE0E00FF11F19
:1030B0008B014BE050E00E948930422F50E00BE042
:1030C00010E00E94B42F61ED7AE0600F711FFE01E5
:1030D0003B968B014BE050E00E94893031E02DCFD0
:1030E000239530CF9E01255F3F4F61ED7AE0890146
:1030F000FB014BE050E00E9489300D8510E0F801A3
:10310000E25EF04F0081005D009300090E8510E043
:10311000F801E25EF04F0081005D009301090BE2CF
:10312000009302090B85043049F00B85053031F01E
:103130000B85083019F00B850A3019F40DE2009365
:1031400002090F8510E0F801E25EF04F0081005D9A
:1031500000930309088910E0F801E25EF04F008156
:10316000005D009304090091D90A1091DA0A20E069
:1031700030E0E9E2FAE0008311832283338301E047
:1031800000930A0A00E00093CA0A10D001E00093FD
:103190000A0AE696E0E10C94B13020E030E0F80154
:1031A0002083318320E0F801228308950E94A73014
:1031B000EF97EF97289706E0802E08E813E10A833F
:1031C0001B8306E6702E80E006EEFE01B09690E0CE
:1031D000E80FF91F008383950DE0FE01B09690E0A3
:1031E000E80FF91F00838395682E00E0FE01B0967A
:1031F00090E0E80FF91F008383950AEAFE01B0967C
:1032000090E0E80FF91F0083839505E5FE01B09675
:1032100090E0E80FF91F0083839500913E0AFE01BC
:10322000B09690E0E80FF91F00838395082F0A5F9E
:10323000A02FE9E2FAE00081118122813381280187
:1032400090E0963088F5933081F44EE28E01005E76
:103250001F4FEA2FF0E0292F30E0E21BF30B3197EC
:103260000E0F1F1FF80140831CC04AE050E082018E
:103270000E94C22FB42F4AE050E082010E94C22F68
:1032800028014B2F405D8E01005E1F4FEA2FF0E0BA
:10329000292F30E0E21BF30B31970E0F1F1FF801AF
:1032A000408383959395CDCF0091D30A10E0F80128
:1032B000E25EF04F0081FE01B09690E0E80FF91F4A
:1032C000008383950091D40A10E0F801E25EF04F8C
:1032D0000081FE01B09690E0E80FF91F008383950E
:1032E0000091D10AFE01B09690E0E80FF91F00832B
:1032F00083950091D50A10E0F801E25EF04F00815D
:10330000FE01B09690E0E80FF91F008383950091CD
:10331000D60A10E0F801E25EF04F0081FE01B0969F
:1033200090E0E80FF91F0083839500E0023070F40D
:1033300010E0F801EF52F54F1681FE01B09690E0D3
:10334000E80FF91F108383950395F0CF20E0283014
:10335000F8F4022F10E0000F111F40E050E0400F82
:10336000511F0E948B2F0883198300E0023070F4F4
:10337000FE0110E0E00FF11F1081FE01B09690E019
:10338000E80FF91F108383950395F0CF2395DFCFC6
:1033900020E0223040F540E0483018F560E064302D
:1033A000F0F450E008E010E00E94B42FE0E8FAE00A
:1033B000E00FF11F022F10E0000F111F000F111F6F
:1033C000E00FF11F70E0E60FF71F0081FE01B096DD
:1033D00090E0E80FF91F008383956395E0CF439554
:1033E000DBCF2395D6CF00E0023078F4FE01329691
:1033F00010E0E00FF11F1081FE01B09690E0E80FA1
:10340000F91F108383950395EFCF282F2395FE0195
:10341000B096062D10E0E00FF11F2083282F30E03A
:10342000215030408E01005E1F4F0E948503FE0137
:10343000B09690E0E80FF91F00838395863671F40B
:10344000A0E0A81750F4FE01B096B0E0EA0FFB1F11
:1034500000810E94F12EA395F4CF84C0BE01645F69
:103460007F4FE0E6F5E630E08B0144E150E00E945A
:10347000943094E1A0E0A91750F4FE013C96B0E02E
:10348000EA0FFB1F00810E94F12EA395F4CF8E015D
:103490000C5F1F4FD80140E1082F0E94A62FFD01AD
:1034A0000083FD0100810A3028F0FD010081095CE4
:1034B000008304C0FD010081005D0083119640E19E
:1034C000082F0E94A62FFD014083FD0100810A30D4
:1034D00028F0FD010081095C008304C0FD0100812A
:1034E000005D0083119601E2FD01008311960DE35A
:1034F000FD010083119606E0FD010083FD010081BE
:103500000A3028F0FD010081095C008304C0FD0140
:103510000081005D0083119606E0FD010083FD013E
:1035200000810A3028F0FD010081095C008304C09D
:10353000FD010081005D008311960DE0FD01008317
:1035400011960AE0FD01008398E04424491650F4E6
:10355000FE0134965524E40DF51D00810E94F12EE4
:103560004394F4CFEF96EF962896E9E00C94B830A8
:10357000E9E2FAE000811181228133810E94EC03AB
:1035800008EA11E60093CB0A1093CC0A01E00093FD
:10359000CA0A08950091CB0A1091CC0A012B49F078
:1035A000EBECFAE00081118101501040008311839F
:1035B000089500E010E00E94EC0302E00093CA0AC4
:1035C00008959A938A9391E080E0883070F4082FF0
:1035D00010E0000F111FF801E35DF54F008111812C
:1035E0000E94482E90238395F0CF092F89919991BD
:1035F0000895159A1D980895159A1D9A08950CE03E
:1036000010E00E94C83098018901232B49F050E056
:1036100066E674E04CE330E026E60E94ED2C02C042
:1036200000E010E000932D0A10932E0A0CE010E049
:103630000E94C83098018901232B49F051E066E6C9
:1036400074E04CE331E026E60E94ED2C02C000E07D
:1036500010E000932F0A1093300A0CE010E00E9453
:10366000C83098018901232B49F052E066E674E0E6
:103670004CE332E026E60E94ED2C02C000E010E0B0
:103680000093310A1093320A0CE010E00E94C83017
:1036900098018901232B49F053E066E674E04CE37E
:1036A00033E026E60E94ED2C02C000E010E000931B
:1036B000330A1093340A0CE010E00E94C8309801DD
:1036C0008901232B49F054E066E674E04CE334E0D2
:1036D00026E60E94ED2C02C000E010E00093350ABF
:1036E0001093360A0CE010E00E94C830980189015E
:1036F000232B49F055E066E674E04CE335E026E61E
:103700000E94ED2C02C000E010E00093370A1093F5
:10371000380A0CE010E00E94C83098018901232B80
:1037200049F056E066E674E04CE336E026E60E9497
:10373000ED2C02C000E010E00093390A10933A0A21
:103740000CE010E00E94C83098018901232B49F059
:1037500057E066E674E04CE337E026E60E94ED2C85
:1037600002C000E010E000933B0A10933C0A00E026
:103770000093CA0A0E949D0300E010E00E94B0037B
:1037800008958A930E94040480E0883068F4082F2A
:1037900010E0000F111FF801E35DF54F008111816A
:1037A0000E94E92D8395F1CF8991089505E310E0FA
:1037B0000E94C8309801012B39F089010CD0009388
:1037C000270F1093280F089500E010E00093270FB3
:1037D0001093280F0895BA93AA93D8010DE010E032
:1037E0000E94C83098018901232B41F063E050E02A
:1037F00040E030E027E60E94D72B02C000E010E056
:103800009B960D931C939C970DE010E00E94C8308E
:103810000801012B49F062E050E040E031E027E68A
:1038200080010E94D72B02C000E010E09D960D930E
:103830001C939E970DE010E00E94C8300801012BF8
:1038400049F061E050E040E032E027E680010E946C
:10385000D72B02C000E010E09F960D931C93D097E9
:103860000DE010E00E94C8300801012B49F060E033
:1038700050E040E033E027E680010E94D72B02C0F1
:1038800000E010E0D1960D931C93D29700E00C93CA
:1038900000E011960C93119700E093960C93939788
:1038A00092960C9392978D01A991B99108950E94D7
:1038B000AC30D8019B960D911C919C970E94DE2CF8
:1038C000802F9D960D911C919E970E94DE2C902F2B
:1038D0009F960D911C91D0970E94DE2C892B802BF6
:1038E000D1960D911C91D2970E94DE2C802BD496FC
:1038F0008C93D497D4960C91D497D3961C91D3974C
:10390000011791F00C91043118F40C9103950C936C
:103910000C91043178F0D4960C91D497D3960C93F3
:10392000D39700E00C9306C00C91013018F00C9175
:103930000A950C93E4E00C94BD309A938A93C801E5
:103940008C01B5DF8C0103D0899199910895BA93C8
:10395000AA93D801FD0103A910E0F801E454FF4F38
:103960000491FD0102A7FD0101810023B1F1FD01D8
:1039700003A90F3031F1FD0104A115A10C3D25E093
:10398000120738F4FD0104A115A10F5F1F4F04A316
:1039900015A3FD0104A115A10C3D25E0120780F13E
:1039A000FD0106A1043628F4FD0106A1039506A336
:1039B00027C000E0FD0106A3FD0122A58D0127D04F
:1039C0001FC000E010E0FD0104A315A300E0FD010D
:1039D00006A300E0FD01018313C0FD0103A90F3020
:1039E00079F001E0FD010183FD0122A58D010FD0D9
:1039F00000E010E0FD0104A315A300E0FD0106A313
:103A0000A991B9910895A8012F71022F08950E94DC
:103A1000AC30D801922F0FB7FD0107A3F894FD0138
:103A200023A123958D01EFDF802FFD0102A18017D7
:103A300041F0082F10E0FD01E00FF11F9283FD011E
:103A400083A3FD0107A10FBFE4E00C94BD300E94E9
:103A5000AA302801D90180E00FB7F20100A7F8943D
:103A6000F20103A1F20112A1011781F081E0F2013C
:103A700022A123958201C7DFF20102A3F20102A174
:103A800010E0F201E00FF11F02810C93F20100A59A
:103A90000FBF082FE6E00C94BB30F8011FB711A749
:103AA000F89413A122A1121738F410E222A1121BDC
:103AB00023A1120F012F04C013A122A1121B012F59
:103AC00011A51FBF08950091270F1091280FE5DF62
:103AD00008959A938A93C8019C010091270F109131
:103AE000280FB5DF8991999108950091270F1091C2
:103AF000280F23DF08959A938A93C8018C010FD071
:103B00008C011FD08C013BD08C0117D24CEC50E0C3
:103B100020E08C01EFD18C018991999108952FE0DB
:103B20002ABB2FE02BBBD49ADC9AD59ADD9A4FEFB3
:103B300059E668E1415050406040E1F700C00000A4
:103B4000089520E0F80123A7F80122A7F80100A7B3
:103B500011A720E0F80125A720E030E0F80120A31C
:103B600031A320E030E0F80122A333A320E0F801E4
:103B700026A720E030E0F80126A337A308959A9302
:103B80008A93C8010FEF13EF21E00150104020404D
:103B9000E1F700C0000028E28C01CDD00FE31FE167
:103BA00001501040E9F700C0000028E28C01C3D0AA
:103BB0000FE31FE101501040E9F700C000002CE0C6
:103BC0008C01B9D021E08C01B6D00FE31FE1015088
:103BD0001040E9F700C0000026E08C01ACD022E0E4
:103BE0008C01A9D00FE31FE101501040E9F700C09C
:103BF000000020E88C019FD08991999108950E943E
:103C0000AC30D801FD0106A117A10F5F1F4F06A31D
:103C100017A3FD0106A117A1003024E0120728F028
:103C200000E010E0FD0106A317A3FD0100A511A50A
:103C30000F5F1F4F00A711A7FD0103A5039503A761
:103C4000FD0103A5003110F100E0FD0103A7FD0116
:103C500002A5039502A7FD0102A5023051F400E080
:103C6000FD0102A7FD01A0A7B1A720E88D0163D047
:103C700009C08D01005F1F4FFD0100A711A720ECB7
:103C80008D0159D008EC00000A95E9F7FD0102A565
:103C90000023C9F4FD0120A131A1FD0143A501E0EC
:103CA00010E00E94BC2F20233123232B49F0FD017B
:103CB00006A117A1013022E0120710F001E001C0B7
:103CC00000E0802F18C0FD0122A133A1FD0143A512
:103CD00001E010E00E94BC2F20233123232B49F068
:103CE000FD0106A117A1013022E0120710F001E04A
:103CF00001C000E0802FFD0100A511A5F8010081A1
:103D0000FD0104A7FD0104A5013848F0FD0104A54B
:103D100010E0F801EC5AFF4F0491FD0104A788233D
:103D200019F000E2FD0104A7FD0124A58D011FD0BB
:103D3000E4E00C94BD300E94AD30C801A22F0FB753
:103D40000093290FF89408EC00000A95E9F7DD9B31
:103D500005C0DD9808EC00000A95E9F72A2F8C01D0
:103D600022D00091290F0FBFE3E00C94BE300E94D7
:103D7000AD30C801A22F0FB700932A0FF89408ECBA
:103D800000000A95E9F7DD9905C0DD9A08EC00000E
:103D90000A95E9F72A2F8C0106D000912A0F0FBF50
:103DA000E3E00C94BE304BB3407F322F32953F702E
:103DB000432B4BBBDC9A000000000000DC980000A5
:103DC000000000004BB3407F322F3F70432B4BBBB2
:103DD000DC9A000000000000DC9808950E94AB30DF
:103DE000C8010FB7402EF89420E48C01A4DF0FE93E
:103DF0001FE001501040E9F700C00000A0E0A03132
:103E000060F4B0E0FD01EC5AFE4F24918C01AFDF6D
:103E100000E50A95F1F7A395F2CF20E88C018BDF3E
:103E20000FE91FE001501040E9F700C000004FBE4D
:103E3000E5E00C94BC30203208F020E0422F50E046
:103E4000F801E40FF51F30830895BA931A2EF80194
:103E5000622F532F603208F060E070E0DF01A60FA0
:103E6000B71F5C93603130F48F01005E1F4F9801E3
:103E7000062E07C08F010E5D1F4F9801062F0051BF
:103E8000002E06A5013080F0402D01E010E00E94D8
:103E9000BC2FD9012D903C90202A312A3C922E92A1
:103EA00006A50A9506A70EC0402D01E010E00E946D
:103EB000BC2F00951095D9012D903C9020223122E5
:103EC0003C922E92A12DB9910895FA013081632F71
:103ED000662379F0203208F020E030E0F801E20FAC
:103EE000F31F608323954F5F5F4FFA013081632F8B
:103EF000EFCF0895FA013491632F662379F02032D1
:103F000008F020E030E0F801E20FF31F6083239512
:103F10004F5F5F4FFA013491632FEFCF089520E098
:103F200030E0F80120A331A320E030E0F80122A323
:103F300033A320E0F80126A708959A938A93C80135
:103F400000E0003240F420E210E0FC01E00FF11F3D
:103F500020830395F6CF8C01E2DF89919991089532
:103F60000E94A830D801422E532E942F042D050D07
:103F70000A95802F66246514E8F44AE0092F0E9410
:103F8000A62F742E88230AF48FE180320CF080E093
:103F9000272D205D082F102F110F110BFD01E00FB1
:103FA000F11F20838A954AE0092F0E94A62F902FA7
:103FB0006394E1CFE8E00C94B9300E94A730280167
:103FC000B22F632ECA010B2F060D0A95A02F77245E
:103FD0007614F8F44AE050E08C010E94C22F842E3F
:103FE000AA230AF4AFE1A0320CF0A0E0282D205D56
:103FF0000A2F102F110F110BF201E00FF11F208378
:10400000AA954AE050E08C010E94C22FC801739427
:10401000DFCFE9E00C94B8300E94A830D801422EDE
:10402000532E942F042D050D0A95802F7724751497
:1040300068F54AE0092F0E94A62F642E88230AF40F
:104040008FE180320CF080E0772019F001E06016FB
:1040500060F0262D205D082F102F110F110BFD0190
:10406000E00FF11F20838A950AC020E2082F102F4D
:10407000110F110BFD01E00FF11F20838A954AE01B
:10408000092F0E94A62F902F7394D1CFE8E00C94B3
:10409000B9300E94A730D801522E832ECA01052DB7
:1040A000080D0A95402E6624681488F54AE050E011
:1040B0008C010E94C22F742E442012F40FE1402E76
:1040C00000E240160CF04424662019F0082F092B5A
:1040D00061F0272D205D042D102F110F110BFD0114
:1040E000E00FF11F20834A940AC020E2042D102F14
:1040F000110F110BFD01E00FF11F20834A944AE0DC
:1041000050E08C010E94C22FC8016394CDCFE9E03A
:104110000C94B8300E94B3020FEF13ED20E301506E
:1041200010402040E1F700C0000078940FEF13ED3D
:1041300020E3015010402040E1F700C00000009152
:104140001D0A10911E0A0E94EE1E0E949D030E94ED
:10415000B3200E94132F0E941B2F0E9431040E9443
:104160003C2BF9CF0895219701E000932B0F8E018E
:104170000E94530300E010E020E030E0E8E1FAE0C4
:104180000083118322833383E8E1FAE00081118107
:1041900022813381EEE2FFE00083118322833383A7
:1041A0008E010E94580300911D0A10911E0A0E9460
:1041B0009D1F49E452E020E000911D0A10911E0A63
:1041C0000E947A1F44E552E020E100911D0A1091FF
:1041D0001E0A0E947A1F219608958A9380E08830F3
:1041E00008F041C0082F10E0000F111FF801E35D37
:1041F000F54F008111810E94482E002351F030E2DA
:10420000282F285E00911D0A10911E0A0E94251F6A
:1042100010C001E0E0911D0AF0911E0A06A7382F98
:104220003F5C282F285E00911D0A10911E0A0E94F3
:10423000251F082F10E0000F111FF801E35DF54F57
:10424000008111810E94482E002311F431E001C049
:1042500030E0282F285F00911D0A10911E0A0E944D
:104260001B1F8395BCCF0E945704002369F00E9456
:104270005704013049F00E945704023029F00E948F
:104280005704033009F002D08991089521978E01D7
:104290000E94530300E010E020E030E0E8E1FAE0A3
:1042A0000083118322833383E8E1FAE000811181E6
:1042B00022813381EEE2FFE0008311832283338386
:1042C0008E010E94580300911D0A10911E0A0E943F
:1042D0009D1F02E000932B0F40E059E020E0009189
:1042E0001D0A10911E0A0E94651F01E000931C0A1E
:1042F00002D0219608950E94AD3090E080E00091B8
:104300001C0A002311F091E081E000910A0A0023C9
:1043100029F000E000930A0A91E081E00E94100475
:10432000002319F00E94040481E0992309F481C05C
:104330000091260A1091270A012BB9F400911C0A5A
:10434000002399F448E652E020E000911D0A109104
:104350001E0A0E947A1F41E752E020E100911D0AE7
:1043600010911E0A0E947A1F3BC040E059E020E0F5
:1043700000911D0A10911E0A0E94651F4FE552E030
:1043800020E100911D0A10911E0A0E947A1F48EE3A
:1043900053E00091260A1091270A0E94C22FA8011B
:1043A00032E022E100911D0A10911E0A0E9449206C
:1043B0003EE224E100911D0A10911E0A0E941B1F7B
:1043C00048EE53E00091260A1091270A0E94C22F5E
:1043D00033E025E100911D0A10911E0A0E94DD1FA5
:1043E000A0E0A83030F52091280A4A2F01E010E023
:1043F0000E94BC2F2023222389F001E0E0911D0AB6
:10440000F0911E0A06A73A2F3F5C2A2F285E0091E2
:104410001D0A10911E0A0E94251F09C030E22A2F92
:10442000285E00911D0A10911E0A0E94251FA39567
:10443000D8CF8823E9F0A0E0A830D0F40A2F10E00C
:10444000000F111FF801E35DF54F008111810E94FB
:10445000482E002311F431E001C030E02A2F285FFC
:1044600000911D0A10911E0A0E941B1FA395E4CF04
:104470000E945704053091F440E059E020E000919B
:104480001D0A10911E0A0E94651F4AE752E020E1B2
:1044900000911D0A10911E0A0E947A1F00E00093ED
:1044A0001C0AE3E00C94BE3021978E010E94530356
:1044B00000E315E720E030E0E8E1FAE00083118353
:1044C00022833383E8E1FAE0008111812281338184
:1044D000EEE2FFE000831183228333838E010E948A
:1044E000580300912B0F00932C0F03E000932B0F28
:1044F00000E000933B0F00E0053040F420E010E0C6
:10450000F801EA5CF04F20830395F6CF00911D0A75
:1045100010911E0A0E949D1F4BE852E020E000917E
:104520001D0A10911E0A0E947A1F02D0219608953A
:104530008A9380E080E000913B0F801788F400E0D0
:10454000E0911D0AF0911E0A06A73AE2282F205F8B
:1045500000911D0A10911E0A0E94251F8395EBCF22
:1045600000913B0F0530B8F401E0E0911D0AF09195
:104570001E0A06A700913B0F10E0F801EA5CF04F1D
:104580003081305D20913B0F205F00911D0A10911A
:104590001E0A0E94251F8991089500913B0F10E08B
:1045A000F801EA5CF04F0081002349F409E0209112
:1045B0003B0F30E0F901EA5CF04F008309C0009145
:1045C0003B0F10E0F801EA5CF04F00810A95008390
:1045D000AFDF089500913B0F10E0F801EA5CF04F67
:1045E0000081093048F000E020913B0F30E0F901F4
:1045F000EA5CF04F008309C000913B0F10E0F80126
:10460000EA5CF04F00810395008392DF08959A934E
:104610008A9300913B0F039500933B0F00913B0F52
:10462000053080F400913B0F10E0F801EB5CF04F97
:10463000208100913B0F10E0F801EA5CF04F2083ED
:1046400077DF2AC081E091E020E02530F0F430E00F
:1046500043E150E0420F531F0E94882F30E0F901E0
:10466000EA5CF04F1081011709F080E030E0F901B9
:10467000EC5BFD4F049130E0F901EA5CF04F1081F2
:10468000011709F090E02395E0CF082F092B0023B4
:1046900011F078D001C019D08991999108950091B5
:1046A0003B0F013008F001D0089540912C0F50E0ED
:1046B0000EE010E00E94B42FF801E059FE4F059182
:1046C00014913197F80109950895219704E000931A
:1046D0002B0F00911D0A10911E0A0E949D1F4BE98D
:1046E00052E020E000911D0A10911E0A0E947A1FDC
:1046F0008E010E94530300E010E020E030E0E8E18A
:10470000FAE00083118322833383E8E1FAE0008139
:10471000118122813381EEE2FFE000831183228345
:10472000338300E315E700933C0F10933D0F8E0198
:104730000E945803219608959A938A9321978E0197
:104740000E94530300913C0F10913D0FC8018E0150
:104750000E945803823000E0900778F048EE53E062
:104760008C010E94C22FA80132E020E100911D0AB5
:1047700010911E0A0E94492001C097DF219689915D
:1047800099910895219705E000932B0F00911D0A40
:1047900010911E0A0E949D1F8E010E94530300E289
:1047A0001FEB22E030E0E8E1FAE00083118322838E
:1047B0003383E8E1FAE00081118122813381EEE266
:1047C000FFE000831183228333838E010E9458030C
:1047D0004BEA52E020E000911D0A10911E0A0E944F
:1047E0007A1F00E000933E0F55D0219608958A93DA
:1047F00022978E010F5F1F4F0E9453030091250ADD
:10480000802F8E010F5F1F4F0E9458038823F9F1FC
:104810008E010E94530300E00093250A8E010E943E
:1048200058034091240A33E026E000911D0A1091BC
:104830001E0A0E940C2034E629E000911D0A109106
:104840001E0A0E941B1F4091230A32E02AE00091B9
:104850001D0A10911E0A0E94B01F38E62CE000913C
:104860001D0A10911E0A0E941B1F4091220A32E06D
:104870002DE000911D0A10911E0A0E94B01F3DE616
:104880002FE000911D0A10911E0A0E941B1F229604
:104890008991089540913E0F50E001E110E00E949F
:1048A000B42F41EB52E0400F511F20E100911D0A4F
:1048B00010911E0A0E947A1F0895F7DE0895009154
:1048C0003E0F013028F000913E0F0A9500933E0FF5
:1048D000E1DF089500913E0F0C3028F400913E0F67
:1048E000039500933E0FD6DF089500913E0F0C30E4
:1048F00011F41FD0089500913E0F083010F433D109
:10490000089500913E0F083011F41AD308950091D4
:104910003E0F093011F459D2089500913E0F0A302C
:1049200011F411D5089500913E0F0B3009F4D0D544
:104930000895219706E000932B0F8E010E945303E8
:1049400000E61AEE20E030E0E8E1FAE000831183AF
:1049500022833383E8E1FAE00081118122813381EF
:10496000EEE2FFE000831183228333838E010E94F5
:10497000580300911D0A10911E0A0E949D1F4EE8C7
:1049800053E020E000911D0A10911E0A0E947A1F38
:1049900000E0053040F420E010E0F801EA5CF04F60
:1049A00020830395F6CF00E000933B0F04D02196BF
:1049B0000895E8DE08959A938A9380E000913B0F72
:1049C0008017B0F400E0E0911D0AF0911E0A06A7DE
:1049D00090E0FC01EA5CF04F3081305D282F205FD1
:1049E00000911D0A10911E0A0E94251F8395E6CF93
:1049F00000913B0F0530B8F401E0E0911D0AF09101
:104A00001E0A06A700913B0F10E0F801EA5CF04F88
:104A10003081305D20913B0F205F00911D0A109185
:104A20001E0A0E94251F89919991089500913B0FBC
:104A300010E0F801EA5CF04F0081002349F409E03E
:104A400020913B0F30E0F901EA5CF04F008309C090
:104A500000913B0F10E0F801EA5CF04F00810A95ED
:104A60000083A9DF089500913B0F10E0F801EA5C94
:104A7000F04F0081093048F000E020913B0F30E01A
:104A8000F901EA5CF04F008309C000913B0F10E090
:104A9000F801EA5CF04F0081039500838CDF0895F4
:104AA00000913B0F0430A8F400913B0F0395009355
:104AB0003B0F00913B0F10E0F801EB5CF04F2081C1
:104AC00000913B0F10E0F801EA5CF04F208373DFA8
:104AD000089501D00895219707E000932B0F8E01D0
:104AE0000E94530300E61AEE20E030E0E8E1FAE02D
:104AF0000083118322833383E8E1FAE0008111818E
:104B000022813381EEE2FFE000831183228333832D
:104B10008E010E94580300911D0A10911E0A0E94E6
:104B20009D1F4CE953E020E100911D0A10911E0ADF
:104B30000E947A1F2196089525DE089523DE0895A8
:104B400020E0253070F430E0F901EA5CF04F00819C
:104B500030E043E150E0420F531F0E94992F23950C
:104B6000F0CFA3DD0895219708E000932B0F00916B
:104B70003E0F10E0000F111F40E050E0400F511FAA
:104B80000E948B2F0093420F1093430F04E0009379
:104B9000440F00911D0A10911E0A0E949D1F48EAB1
:104BA00053E020E000911D0A10911E0A0E947A1F16
:104BB00030913E0F3F5C2DE000911D0A10911E0ABE
:104BC0000E94251F1ED08E010E94530300EC14ED9D
:104BD00021E030E0E8E1FAE00083118322833383AF
:104BE000E8E1FAE00081118122813381EEE2FFE009
:104BF00000831183228333838E010E945803219600
:104C000008950E94AB300091420F1091430FC801EC
:104C1000A0E0A53060F504E00A1B402E4AE050E019
:104C20008C010E94C22FB42F0091440F0A1739F44F
:104C300001E0E0911D0AF0911E0A06A706C000E0FF
:104C4000E0911D0AF0911E0A06A73B2F305D242D2E
:104C5000205F00911D0A10911E0A0E94251F4AE044
:104C600050E08C010E94C22FC801A395D2CFE5E08D
:104C70000C94BC3087DD08950E94AC30A1E0B0E018
:104C800020E00091440F201740F40AE010E0AD014D
:104C90000E94B42FD8012395F4CFAD010091420FAB
:104CA0001091430F0E94C22F4AE050E00E94C22F91
:104CB000842F813040F0E2E4FFE0008111810A1B83
:104CC0001B0B008311839DDFE4E00C94BD300E9438
:104CD000AC30A1E0B0E020E00091440F201740F498
:104CE0000AE010E0AD010E94B42FD8012395F4CF63
:104CF000AD010091420F1091430F0E94C22F4AE074
:104D000050E00E94C22F842F893040F4E2E4FFE09B
:104D1000008111810A0F1B1F0083118372DFE4E001
:104D20000C94BD300091440F013038F00091440FD5
:104D30000A950093440F65DF089501D008952197E7
:104D400009E000932B0F00911D0A10911E0A0E948A
:104D50009D1F46EB53E020E100911D0A10911E0AB1
:104D60000E947A1F8E010E94530300E315E720E0A2
:104D700030E0E8E1FAE00083118322833383E8E145
:104D8000FAE00081118122813381EEE2FFE00083AD
:104D90001183228333838E010E9458032196089544
:104DA000F1DC0895EFDC08950091420F1091430F5C
:104DB00020913E0F30E0220F331F40E050E0420FC1
:104DC000531F0E949D2FDEDC089521970BE0009376
:104DD0002B0F08EE13E000933F0F1093400F00914C
:104DE0001D0A10911E0A0E949D1F42EC53E020E014
:104DF00000911D0A10911E0A0E947A1F1ED08E017A
:104E00000E94530300EC14ED21E030E0E8E1FAE009
:104E10000083118322833383E8E1FAE0008111816A
:104E200022813381EEE2FFE000831183228333830A
:104E30008E010E945803219608959A938A9340ED1B
:104E400053E020E100911D0A10911E0A0E947A1F72
:104E500040913F0F5091400F35E020E100911D0A35
:104E600010911E0A0E94492000913F0F1091400F9F
:104E70000056104FC80148EE53E08C010E94C22F2B
:104E8000A80132E028E100911D0A10911E0A0E943B
:104E9000492048EE53E08C010E94C22F33E02BE101
:104EA00000911D0A10911E0A0E94DD1F00913F0F04
:104EB0001091400F0E94EC0389919991089502D0BE
:104EC000E5D9089500E010E00E94EC0308959A935C
:104ED0008A9348EE53E000913F0F1091400F0E94DB
:104EE000C22FC801082F092B09F0019708EE13E023
:104EF000AC010E94B42F00933F0F1093400F9DDF31
:104F00008991999108959A938A9348EE53E000917C
:104F10003F0F1091400F0E94C22FC801803100E066
:104F2000900708F4019608EE13E0AC010E94B42F3C
:104F300000933F0F1093400F80DF8991999108955E
:104F400021970AE000932B0F8E010E94530300E08B
:104F500010E020E030E0E8E1FAE0008311832283F2
:104F60003383E8E1FAE00081118122813381EEE2AE
:104F7000FFE000831183228333838E010E94580354
:104F800000911D0A10911E0A0E949D1F01E00093CE
:104F90001C0A02D0219608950E94A030279700E0B5
:104FA0000A8300E0098300911C0A002321F001E03C
:104FB0000A8301E0098300910A0A002339F000E026
:104FC00000930A0A01E00A8301E009830E941004A9
:104FD000002321F001E009830E9404040A810023D8
:104FE00079F148EE53E00091260A1091270A0E94B9
:104FF000C22FA80131E020E000911D0A10911E0A85
:105000000E9449203EE221E000911D0A10911E0AF3
:105010000E941B1F48EE53E00091260A1091270AB8
:105020000E94C22F8A014AE050E00E94C22FA801CC
:1050300032E022E000911D0A10911E0A0E94DD1F3D
:105040000981002309F47BC101E008830881602EF7
:1050500006E0601608F0CCC0462D50E008E010E0F5
:105060000E94B42FF801E05CF54FC480D580E68043
:10507000F780462D50E008E010E00E94B42FF801C0
:10508000E45CF54F0081118122813381C01AD10A7D
:10509000E20AF30A460157010881162D101B03E0AE
:1050A000109F00E1000E402C01E0801600E0900609
:1050B00000E0A00600E0B006DCF430E2242D009110
:1050C0001D0A10911E0A0E941B1F3DE2242D2395EC
:1050D00000911D0A10911E0A0E941B1F3DE2242D03
:1050E0002E5F00911D0A10911E0A0E941B1F7EC098
:1050F000062D10E0000F111F40E050E0400F511F3F
:105100000E948B2FB8014EEF5FEF062D10E0000FCD
:10511000111F400F511F0E948B2F601B710B8B01C1
:1051200020E030E00B831C832D833E8348E853E16D
:1051300060E070E00B811C812D813E810E94D62FA2
:10514000680179014AE050E060E070E08401950177
:105150000E94D62FA801B901860197010E94F62F5F
:10516000C801D9018B5F9F4FAF4FBF4F8C019D018D
:105170004AE050E060E070E00E94F62FC801D901DB
:1051800030E2242D00911D0A10911E0A0E941B1F5F
:105190004AE050E060E070E08C019D010E94F62F33
:1051A000080119014AE050E060E070E080019101DF
:1051B0000E94F62F342F305D242D239500911D0A77
:1051C00010911E0A0E941B1F4AE050E060E070E050
:1051D0008C019D010E94F62F342F305D242D2E5F0F
:1051E00000911D0A10911E0A0E941B1F639430CF6C
:1051F00005E008830881C02E08E0C01608F09FC0B3
:105200004C2D50E008E010E00E94B42FF801E05C63
:10521000F54F40805180628073804C2D50E008E053
:1052200010E00E94B42FF801E85CF54F0081118175
:1052300022813381401A510A620A730A42015301E2
:1052400008811C2D101B03E0109F06E0000ED02CDF
:1052500001E0801600E0900600E0A00600E0B00645
:10526000DCF430E22D2D00911D0A10911E0A0E94DF
:105270001B1F3DE22D2D239500911D0A10911E0A42
:105280000E941B1F3DE22D2D2E5F00911D0A1091E3
:105290001E0A0E941B1F51C00C2D10E0000F111F91
:1052A00040E050E0400F511F0E948B2FB8014EEF9D
:1052B0005FEF0C2D10E0000F111F400F511F0E94D7
:1052C0008B2F601B710B8B0120E030E00B831C8364
:1052D0002D833E8348E853E160E070E00B811C8140
:1052E0002D813E810E94D62F280139014AE050E0ED
:1052F00060E070E0840195010E94D62FA801B901F9
:10530000820193010E94F62FC801D9018B5F9F4F44
:10531000AF4FBF4F8C019D014AE050E060E070E06C
:105320000E94F62FC801D901AC0133E02D2D009168
:105330001D0A10911E0A0E940C20C3945DCF27966F
:10534000E0E10C94B13021970CE000932B0F8E011B
:105350000E94530300E61AEE20E030E0E8E1FAE0B4
:105360000083118322833383E8E1FAE00081118115
:1053700022813381EEE2FFE00083118322833383B5
:105380008E010E94580300911D0A10911E0A0E946E
:105390009D1F41EE53E020E000911D0A10911E0A6E
:1053A0000E947A1F4BEE53E020E100911D0A1091FC
:1053B0001E0A0E947A1F40E150E00E948B2F00934A
:1053C000450F1093460F02D0219608954AE050E011
:1053D0000091450F1091460F0E94C22FA80133E0A3
:1053E00026E100911D0A10911E0A0E9449204AE000
:1053F00050E00091450F1091460F0E94C22F342FAC
:10540000305D2AE100911D0A10911E0A0E941B1FA7
:105410000895E091450FF091460F7A9748F0E5E442
:10542000FFE0008111810150104000831183CEDF25
:1054300008950091450F1091460F003A2FE0120792
:1054400048F4E5E4FFE0008111810F5F1F4F008306
:105450001183BCDF089521970DE000932B0F00917D
:105460001D0A10911E0A0E949D1F48EF53E020E183
:1054700000911D0A10911E0A0E947A1F8E010E943F
:10548000530300E315E720E030E0E8E1FAE00083B1
:10549000118322833383E8E1FAE0008111812281C4
:1054A0003381EEE2FFE000831183228333838E0198
:1054B0000E945803219608950091450F1091460FC0
:1054C00040E150E00E949D2FF0D808955BD90895E7
:1054D00021970EE000932B0F8E010E94530300E6EC
:1054E0001AEE20E030E0E8E1FAE000831183228345
:1054F0003383E8E1FAE00081118122813381EEE219
:10550000FFE000831183228333838E010E945803BE
:1055100000911D0A10911E0A0E949D1F44E054E054
:1055200020E000911D0A10911E0A0E947A1F42E19C
:1055300054E020E100911D0A10911E0A0E947A1F7A
:1055400042E150E00E94882F0093410F02D0219643
:1055500008954AE00091410F0E94A62F405D342F2C
:105560002CE100911D0A10911E0A0E941B1F089534
:105570000091410F033030F00091410F0A950093E4
:10558000410F03C002E00093410FE3DF0895009153
:10559000410F083030F40091410F03950093410F03
:1055A00003C008E00093410FD4DF089521970FE076
:1055B00000932B0F00911D0A10911E0A0E949D1F3F
:1055C00048EF53E020E100911D0A10911E0A0E944D
:1055D0007A1F8E010E94530300E315E720E030E0BC
:1055E000E8E1FAE00083118322833383E8E1FAE003
:1055F0000081118122813381EEE2FFE0008311837B
:10560000228333838E010E945803219608950091CE
:10561000410F42E150E00E94992F47D80895B2D837
:105620000895EEE2FFE00081118122813381023092
:1056300040E0140740E0240740E0340770F0EEE259
:10564000FFE0008111812281338101501040204010
:1056500030400083118322833383E0913C0FF0912B
:105660003D0F329740F0ECE3FFE0008111810150E3
:10567000104000831183089523970E94631D013019
:1056800008F440C00DE21FE00E94691D8E010E5F0C
:105690001F4F0E945303EEE2FFE00081118122813F
:1056A0003381023040E0140740E0240740E0340733
:1056B00060F0E8E1FAE00081118122813381EEE2BD
:1056C000FFE000831183228333838E010E5F1F4F1F
:1056D0000E94580340912B0F50E00EE010E00E9412
:1056E000B42FE4E6F1E0E00FF11F00912D0F10E080
:1056F000000F111FE00FF11F059114913197F80170
:10570000099553C08E010F5F1F4F0E945303EEE2B5
:10571000FFE00081118122813381E2E3FFE0008319
:105720001183228333838E010F5F1F4F0E94580322
:10573000E2E3FFE00081118122813381013040E00A
:10574000140740E0240740E0340701F58E010E9471
:10575000530300E010E020E030E0EEE2FFE00083E1
:105760001183228333838E010E94580340912B0FB3
:1057700050E00EE010E00E94B42FF801E259FE4F15
:10578000059114913197F80109950FC040912B0FA5
:1057900050E00EE010E00E94B42FF801EC59FE4FEB
:1057A000059114913197F8010995239608950E9467
:1057B000A930C801622E532E442EB52FA62F6A2F72
:1057C0005B2F442D352D262D8C0104D08C01E7E074
:1057D0000C94BA300E94A930D801622E832F542E27
:1057E000452E962F062DE0E2F0E0FBBFF4E00C948E
:1057F000443009E3FD0105830AE3FD0104830BE363
:10580000FD0106838CC009E3FD0105830AE3FD0168
:1058100004830BE3FD01068382C006E3FD010583DB
:1058200007E3FD01048308E3FD01068378C006E376
:10583000FD01058307E3FD01048308E3FD01068301
:105840006EC003E3FD01058304E3FD01048305E36A
:10585000FD01068364C003E3FD01058304E3FD014C
:10586000048305E3FD0106835AC000E3FD010583BF
:1058700001E3FD01048302E3FD01068350C000E360
:10588000FD01058301E3FD01048302E3FD010683BD
:1058900046C001E2FD01058302E2FD01048303E24B
:1058A000FD0106833CC001E2FD01058302E2FD012A
:1058B000048303E2FD01068332C000E2FD0105839B
:1058C00001E6FD01048302E6FD01068328C000E233
:1058D000FD01058301E6FD01048302E6FD01068367
:1058E0001EC003E6FD01058304E6FD01048305E611
:1058F000FD01068314C003E6FD01058304E6FD01F6
:10590000048305E6FD0106830AC003E3FD01058368
:1059100004E3FD01048305E3FD01068383E0883091
:1059200040F4482F01E010E00E94BC2FFD010783E6
:1059300003C001E0FD010783552051F0FD011781EF
:10594000FD010481E02FF0E00081012B00830AC0FB
:10595000FD0117811095FD010481E02FF0E0008129
:1059600001230083FD011781FD010681E02FF0E096
:105970000081012B008300E010E0FD010187128708
:105980000D931C93119700E0FD010283FD014382FA
:105990008D010D5F1F4FFD0103871487983040F480
:1059A000492F01E010E00E94BC2FFD01008703C0D9
:1059B00001E0FD010087E7E00C94BA30F801258191
:1059C000E22FF0E02081F80137812323222319F010
:1059D000F8010085089500E008950E94A830D801DC
:1059E000722E832F642E2B01952FFD019183FD01D3
:1059F00043825482062D10E020E030E048E853E175
:105A000060E070E00E94D62F48EE53E060E070E066
:105A10000E94F62FFD01058300E00C93072DEEE4B4
:105A2000F0E0FBBFF4E00C94443009E3FD01078390
:105A30000AE3FD0106830BE3FD0100878CC009E347
:105A4000FD0107830AE3FD0106830BE3FD010087E7
:105A500082C006E3FD01078307E3FD01068308E337
:105A6000FD01008778C006E3FD01078307E3FD0120
:105A7000068308E3FD0100876EC003E3FD01078391
:105A800004E3FD01068305E3FD01008764C003E331
:105A9000FD01078304E3FD01068305E3FD010087A3
:105AA0005AC000E3FD01078301E3FD01068302E321
:105AB000FD01008750C000E3FD01078301E3FD0104
:105AC000068302E3FD01008746C001E2FD01078372
:105AD00002E2FD01068303E2FD0100873CC001E212
