:020000020000FC
:100000000C947817189518951895189518951895B3
:100010001895189518951895189518951895189578
:10002000189518950C94F20118951895189518952F
:100030001895189518951895189518950C946D02A3
:100040001895189518951895189518951895189548
:100050001895189518951895189518951895189538
:100060001895189518951895189518951895189528
:100070001895189518951895189518951895189518
:100080001895189518951895189518952C043604F8
:100090005C049104C1042B042B04D509E4092B044E
:1000A0000102010301020104010201030102010036
:1000B000474D20636F646500D9DA2020202020207E
:1000C0002020202020202020202020202020202030
:1000D0002020202020202020202020202020202020
:1000E0002020202020202020A2B5202020202020F9
:1000F000202020202020202041A042A1E045A3A4D0
:10010000A5A64BA74D484FA8504354A9AA58E1AB08
:10011000ACE2ADAE62AFB0B161B2B3B4E365B6B755
:10012000B8B9BABBBCBD6FBE7063BF79E478E5C037
:10013000C1E6C2C3C4C5C6C706090906000000005F
:10014000060F0F0600000000520E520E520E520E05
:10015000520E520E520E8C0E510E510E510E510E69
:10016000510E520E2D0FE60F510E510E510E510E23
:10017000DD0E510EE1105F107C109910E710E60FB4
:100180002E11510E510E510E510E510EF710510EEF
:100190009C119E11A911B411E7105411510E0012B7
:1001A0003D125A127712E710C011510EC312C51238
:1001B000C712510EE7109212510E611363138E1382
:1001C000B913E710DA12510EF713F913FB13510E9E
:1001D000E710C613510E510E510E510E510E510E15
:1001E000510E510E510E510E510E510E510E510E17
:1001F000510E510E510E510E510E510E510E510E07
:10020000510E510E510E510E510E510E03020406A5
:1002100001537475636B20202020200053656E739A
:100220006F7273203A2000576F726B206D6F646598
:1002300020004C656E3D2020202020200045727259
:100240006F7220202020200053656E736F72732020
:100250003A20004C656E3D3F2020202020202020A9
:1002600020202000496E7075742070617373776F61
:1002700072643A0050617373776F726420657272B2
:100280006F7221004D656E753A0044697374616E3A
:10029000636520746F2053310000004469737461FA
:1002A0006E636520746F20533200000044697374DC
:1002B000616E636520746F205333000000446973DE
:1002C00074616E636520746F2053340000004469CC
:1002D0007374616E636520746F20533500000044B1
:1002E000697374616E636520746F2053360000007B
:1002F000536574206E65772070617373776F7264D5
:10030000005365742070617373776F72643A0053A1
:100310006176653F20282D2F2B2900446973746175
:100320006E636520746F205300536176653F20280B
:050330002D2F2B290018
:1003360041018015FE14011215012615013A150119
:100346004E150162150176151AF414010815011CE3
:1003560015013015014415015815016C15FB4101B5
:100366008C160A16011E16013216014616015A1679
:10037600016E160182161A001601141601281601BE
:100386003C16015016016416017816FB2802F7097F
:1003960000E005BD05B5086005BD05B50F7B05BDCB
:1003A60005B50F7D05BD05B50F7E05BD05B50B7FF2
:1003B60005BD05B5026005BD05B5016005BD01D0E9
:1003C600089500E004BD0CE703BD06B70F7706BF2E
:1003D60006B70F7B06BF07B7006807BF08959A9355
:1003E6008A93FA93EA933A922A921A920A927A9303
:1003F6006A935A934A933A932A931A930A938FB716
:100406009BB707B70F7707BF78940091C705109180
:10041600C8050E94200C0E94960B0E940C140E9494
:100426009402CFDF9BBF8FBF099119912991399112
:10043600499159916991799109901990299039902A
:10044600E991F9918991999118950FE210E00E942E
:1004560095189801012B41F089010E949C0B00938D
:10046600C7051093C805089500E010E00093C7057E
:100476001093C80508950E94CB010E944D020E9468
:1004860098020E94470208950E94F10208950E9470
:10049600C303089503B70B7F03BF03B7026003BF0F
:1004A60003B7016003BF03B70F7B03BF03B7086041
:1004B60003BF03B70F7D03BF03B70F7E03BF03B7A9
:1004C6000F7703BF00E002BF09EF01BF07B7026065
:1004D60007BF08959A938A93FA93EA933A922A92D7
:1004E6001A920A927A936A935A934A933A932A9360
:1004F6001A930A938FB79BB70E9495029BBF8FBF33
:100506000991199129913991499159916991799155
:100516000990199029903990E991F99189919991C9
:10052600189508950E944A0208950895C69AC69A93
:10053600C79A949A959ABE9ABE9ABF9A8C9A8D9AA1
:100546000FE31CE901501040E9F700C00000959840
:100556000895B80100E010E0BE9ABF9A8C9A8D9A71
:10056600C7982AE02A95F1F700C094982AE02A95C0
:10057600F1F700C040E0403110F577FB16F421E0BA
:1005860001C020E020FB28B326F928BB2AE02A95E3
:10059600F1F700C0C79A2AE02A95F1F700C0000FCC
:1005A600111FC69B03C0016021E030E0C798660FAB
:1005B600771F2AE02A95F1F700C04395DCCF949A7D
:1005C6002AE02A95F1F700C008952FB7F801208395
:1005D600F8940895F80120812FBF08958A930E9408
:1005E600990200E010E00E94AC02159A149A1D9A36
:1005F6001C9A0CE010E00E94951898018901232BA3
:1006060049F050E060EA73E042E330E026E60E94FB
:10061600E81502C000E010E00093CA051093CB0570
:100626000CE010E00E9495180801012B51F051E0F2
:1006360060EA73E042E331E026E680010E94E815B5
:1006460002C000E010E00093CC051093CD050CE04D
:1006560010E00E9495180801012B51F052E060EA63
:1006660073E042E332E026E680010E94E81502C00C
:1006760000E010E00093CE051093CF050CE010E0EB
:100686000E9495180801012B51F053E060EA73E0CF
:1006960042E333E026E680010E94E81502C000E04E
:1006A60010E00093D0051093D1050CE010E00E94F5
:1006B60095180801012B51F054E060EA73E042E31B
:1006C60034E026E680010E94E81502C000E010E052
:1006D6000093D2051093D3050CE010E00E94951804
:1006E6000801012B51F055E060EA73E042E335E082
:1006F60026E680010E94E81502C000E010E00093A3
:10070600D4051093D5050AE000931B0600E000937C
:10071600C00580E0863078F4082F10E0000F111F26
:10072600F801E653FA4F008111810E943117182F04
:1007360004D08395EFCF899108959A938A93902F49
:10074600812F0091D60510911B06011798F401E040
:1007560000931506182F092F2091D60530E0220F99
:10076600331FF901E457FF4F259134913197F90171
:10077600099503C000E00093D605899199910895E3
:100786000091C005002309F062C00091D70500233F
:10079600D1F00091C1051091C205083A21E6120771
:1007A60048F4E1ECF5E0008111810F5F1F4F0083F3
:1007B600118309C000E00093D70501E00093D80536
:1007C60005E00093D6050091CA051091CB050E945D
:1007D600D2160091CC051091CD050E94D21600913B
:1007E600CE051091CF050E94D2160091D00510912A
:1007F600D1050E94D2160091D2051091D3050E9410
:10080600D2160091D4051091D5050E94D216E0911A
:10081600D905F091DA05329740F0E9EDF5E000816F
:10082600118101501040008311830091D905109168
:10083600DA05013020E0120751F400E010E00093E1
:10084600D9051093DA050091DB050093D6050895C6
:10085600089520E02093D70520E02093C90521E0E4
:100866002093D60508950E947918A02F912FB0E005
:1008760080E0863098F4082F10E0000F111FF80171
:10088600E653FA4F008111810E943117002311F4BB
:1008960001E001C000E0B02B8395EBCFBB2331F420
:1008A60001E00093C90502E00093D605E4E00C944C
:1008B6008A189A938A93802F912F1D9A1C9A00E08A
:1008C60010E0009313061093140640E04230D0F473
:1008D60020E02630A8F460E070E050E00CE010E084
:1008E6000E94BA17ECEDF5E0E00FF11F022F10E0C1
:1008F600000F111FE00FF11F608371832395E9CF6D
:100906004395E4CF00E00093D70503E00093D605B6
:10091600192F082F03D0899199910895402F212FDF
:10092600442359F501E010E00093C1051093C20578
:1009360001E00093D70500E00093D8056091C1055A
:100946007091C20550E00CE010E00E94BA17ECED81
:10095600F5E0E00FF11F022F10E0000F111FE00F6E
:10096600F11F6083718304E00093D605222329F0EA
:10097600E3E1F6E000810160008308950E947918A2
:100986002297802FA12F8E010F5F1F4F0E94E80232
:1009960000E010E00093D9051093DA058E010F5F91
:1009A6001F4F0E94ED02482F50E00CE010E00E941D
:1009B600BA17ECEDF5E0E00FF11F0A2F10E0000F7B
:1009C600111FE00FF11F00811181012B71F04A2FD9
:1009D60001E010E00E94C217E3E1F6E020813181D8
:1009E600202B312B2083318316C02091C1053091F5
:1009F600C205482F50E00CE010E00E94BA17ECED5B
:100A0600F5E0E00FF11F0A2F10E0000F111FE00FB5
:100A1600F11F2083318391E0B0E0B63070F40B2FE4
:100A260010E0000F111FF801E653FA4F0081118103
:100A36000E9431179023B395F0CF992379F08E0158
:100A46000E94E80205E00093DB0508E813E1009345
:100A5600D9051093DA058E010E94ED022296E4E094
:100A66000C948A180E946D1824978E010D5F1F4FF3
:100A76000E94E8020091D605D02E8E010D5F1F4F11
:100A86000E94ED0207E0D01611F496D487C408E060
:100A9600D01611F4A0D482C405E0D01609F07EC4A5
:100AA60000E00093D7050091D805002309F45CC047
:100AB60080E0863008F500E0023010F40395FCCFA4
:100AC600082F10E0000F111FF801E653FA4F0081BE
:100AD60011810E943117002369F4482F01E010E0CC
:100AE6000E94C217E3E1F6E020813181202B312BF1
:100AF600208331838395DDCF009113061091140670
:100B06000093180600E010E00093190610931A06E9
:100B160000E010E00E94AC021C980FEF19E628E1F5
:100B2600015010402040E1F700C000001D9801E090
:100B36000093160606E00093D6058E010E5F1F4F42
:100B46000E94E80207E00093DB0508E813E1009342
:100B5600D9051093DA058E010E5F1F4F0E94ED0234
:100B660000E00093D8051AC400E0063040F42FEFE9
:100B760010E0F801E45FF94F20830395F6CF00E01B
:100B86000093120620E0263008F041C030E03230F3
:100B960018F5432F50E00CE010E00E94BA17ECED78
:100BA600F5E0E00FF11F022F10E0000F111FE00F1C
:100BB600F11F00811181012B69F4422F01E010E041
:100BC6000E94C217E3E1F6E040815181402B512B90
:100BD600408351833395DBCF6091130670911406E1
:100BE600422F01E010E00E94C21760237123672B99
:100BF60061F40091120610E0F801E45FF94F2083DA
:100C0600009112060395009312062395BCCF00911E
:100C1600120600931706009113061091140600930E
:100C260018064424552466247724EE2400911206DF
:100C36000330C0F5009113061091140600931806B0
:100C460000E010E00093190610931A0600E010E089
:100C56000E94AC021C980FEF19E628E101501040E3
:100C66002040E1F700C000001D9801E00093160641
:100C760006E00093D6058E010F5F1F4F0E94E80223
:100C860008E00093DB0508E813E10093D90510930B
:100C9600DA058E010F5F1F4F0E94ED0200E0009300
:100CA600D8057CC30091120610E0F801E55FF94F04
:100CB600008110E0000F111FF801E452FA4F208165
:100CC600318100910C0610E0000F111FF801E4526B
:100CD600FA4F048515852017310708F0E8C0009102
:100CE6000C0610E0000F111FF801E452FA4F0485BC
:100CF60015852091120630E0F901E55FF94F208154
:100D060030E0220F331FF901E452FA4F208131817E
:100D1600021B130B20E030E0E4EFF5E000831183C3
:100D2600228333830091120610E0F801E55FF94F44
:100D3600008110E0000F111F40E050E0400F511FEE
:100D46000E949F17B80100910C0610E0000F111FBA
:100D560040E050E0400F511F0E949F17601B710B2F
:100D66008B0120E030E0ECEFF5E000831183228375
:100D760033830091120610E0F801E55FF94F008118
:100D860010E0000F111F40E050E0400F511F0E947D
:100D96009F17B8010091120610E0F801E65FF94FBF
:100DA600008110E0000F111F40E050E0400F511F7E
:100DB6000E949F17601B710B8B0120E030E0E0E082
:100DC600F6E000831183228333830091120610E03C
:100DD600F801E55FF94F008110E0000F111FF801DF
:100DE600E452FA4F008111812091120630E0F90198
:100DF600E65FF94F208130E0220F331FF901E452FC
:100E0600FA4F20813181021B130B20E030E0E4E031
:100E1600F6E00083118322833383ECEFF5E08081D3
:100E26009181A281B381E0E0F6E000811181228107
:100E36003381E4EFF5E040815181628173810E9444
:100E4600DC17080119014AE050E060E070E080011B
:100E560091010E94DC17E4E0F6E040815181628155
:100E660073810E94FC170B5F1F4F2F4F3F4F0801E6
:100E760019014AE050E060E070E0800191010E94B3
:100E8600FC17800F911FA21FB31FE8E0F6E08083D6
:100E96009183A283B383E8E0F6E000811181228189
:100EA6003381400E511E621E731EE3942BC2CC2466
:100EB60000911206C01608F025C20C2D10E0F801AC
:100EC600E45FF94F008110E0000F111FF801E452B2
:100ED600FA4F20813181FF24F701E45FF94F008149
:100EE60010E0000F111FF801E452FA4F0485158532
:100EF6002017310708F404C2FF24F701E45FF94F15
:100F0600008110E0000F111FF801E452FA4F04852A
:100F160015852C2D30E0F901E55FF94F208130E091
:100F2600220F331FF901E452FA4F20813181021B4F
:100F3600130B20E030E0E4EFF5E000831183228319
:100F460033830C2D10E0F801E45FF94F008110E0C7
:100F5600000F111FF801E452FA4F00811181FF249E
:100F6600F701E45FF94F208130E0220F331FF901CA
:100F7600E452FA4F24853585021B130B20E030E03E
:100F8600E8EFF5E00083118322833383E4EFF5E095
:100F96000081118122813381E8EFF5E040815181A2
:100FA60062817381041715072607370708F0D4C036
:100FB6000C2D10E0F801E55FF94F008110E0000FFD
:100FC600111F40E050E0400F511F0E949F17B801CB
:100FD600FF24F701E45FF94F008110E0000F111FB5
:100FE60040E050E0400F511F0E949F17601B710B9D
:100FF6008B0120E030E0ECEFF5E0008311832283E3
:1010060033830C2D10E0F801E45FF94F008110E006
:10101600000F111F40E050E0400F511F0E949F1724
:10102600B8010C2D10E0F801E55FF94F008110E0E2
:10103600000F111F40E050E0400F511F0E949F1704
:10104600601B710B8B0120E030E0E0E0F6E00083EE
:101056001183228333830C2D10E0F801E45FF94FEE
:10106600008110E0000F111FF801E452FA4F0081D1
:1010760011812C2D30E0F901E55FF94F208130E038
:10108600220F331FF901E452FA4F20813181021BEE
:10109600130B20E030E0E4E0F6E0008311832283C6
:1010A60033834AE050E060E070E0ECEFF5E0008169
:1010B6001181228133810E94DC1748015901E0E049
:1010C600F6E00081118122813381E4EFF5E0408171
:1010D6005181628173810E94DC17A801B9010DEE6E
:1010E60013E020E030E00E94DC17C801D90144E695
:1010F60050E060E070E0E4E0F6E0008111812281DA
:1011060033810E94DC17A801B9018C019D010E9460
:10111600FC17A401B501400F511F621F731F4B5FDF
:101126005F4F6F4F7F4F8A019B014AE050E060E0BE
:1011360070E00E94FC17E8E0F6E00083118322834A
:101146003383E8E0F6E00081118122813381400E8D
:10115600511E621E731ED3C00C2D10E0F801E45F11
:10116600F94F008110E0000F111F40E050E0400FE2
:10117600511F0E949F17B801FF24F701E45FF94F42
:10118600008110E0000F111F40E050E0400F511F9A
:101196000E949F17601B710B8B0120E030E0ECEF83
:1011A600F5E000831183228333830C2D10E0F801D0
:1011B600E45FF94F008110E0000F111F40E050E09E
:1011C600400F511F0E949F17B8010C2D10E0F80127
:1011D600E55FF94F008110E0000F111F40E050E07D
:1011E600400F511F0E949F17601B710B8B0120E05F
:1011F60030E0E0E0F6E000831183228333830C2D98
:1012060010E0F801E45FF94F008110E0000F111FB4
:10121600F801E452FA4F008111812C2D30E0F901DA
:10122600E55FF94F208130E0220F331FF901E452C8
:10123600FA4F20813181021B130B20E030E0E4E0FD
:10124600F6E000831183228333834AE050E060E0B6
:1012560070E0ECEFF5E000811181228133810E947C
:10126600DC1748015901E0E0F6E000811181228196
:101276003381E8EFF5E040815181628173810E94FC
:10128600DC17A801B90106EE13E020E030E00E9469
:10129600DC17C801D90144E650E060E070E0E4E004
:1012A600F6E000811181228133810E94DC17A801BA
:1012B600B9018C019D010E94FC17A401B501401BD8
:1012C600510B620B730B4E5E5F4F6F4F7F4F8A0160
:1012D6009B014AE050E060E070E00E94FC17E8E005
:1012E600F6E00083118322833383E8E0F6E0008191
:1012F600118122813381400E511E621E731EE394BA
:10130600C394D6CD4AE050E060E070E082019301DC
:101316000E94DC174E2D50E060E070E00E94FC1742
:101326000B5F1F4F2F4F3F4F4AE050E060E070E0E9
:101336000E94FC170093190610931A0600911906CD
:1013460010911A06000F111F000F111F0E94AC0208
:1013560000911206063010F41C9801C01C9A0FEF7B
:1013660019E628E1015010402040E1F700C00000D6
:101376001D9801E00093160606E00093D6058E013F
:101386000E94E80208E00093DB0508E813E10093F9
:10139600D9051093DA058E010E94ED022496E0E14C
:1013A6000C947E189A938A93902F812F182F092FC9
:1013B6005ADA8991999108951D9A01E00093D6050C
:1013C60008959A938A93902F812F182F092F71DAF7
:1013D6008991999108951D9A02E00093D60500E03F
:1013E60010E00E94AC02089505E310E00E949518F3
:1013F6009801012B39F089010CD000931C0610933B
:101406001D06089500E010E000931C0610931D06CB
:101416000895BA93AA93D8010DE010E00E9495189A
:1014260098018901232B41F063E050E040E030E071
:1014360027E60E94D21402C000E010E09B960D93AE
:101446001C939C970DE010E00E9495180801012B53
:1014560049F062E050E040E031E027E680010E947A
:10146600D21402C000E010E09D960D931C939E9747
:101476000DE010E00E9495180801012B49F061E08B
:1014860050E040E032E027E680010E94D21402C01C
:1014960000E010E09F960D931C93D0970DE010E0AE
:1014A6000E9495180801012B49F060E050E040E0E9
:1014B60033E027E680010E94D21402C000E010E06B
:1014C600D1960D931C93D29700E00C9300E01196F1
:1014D6000C93119700E093960C93939792960C9326
:1014E60092978D01A991B99108950E947918D80112
:1014F6009B960D911C919C970E94D915802F9D96C5
:101506000D911C919E970E94D915902F9F960D9133
:101516001C91D0970E94D915892B802BD1960D91BD
:101526001C91D2970E94D915802BD4968C93D49770
:10153600D4960C91D497D3961C91D397011791F01A
:101546000C91043118F40C9103950C930C91043111
:1015560078F0D4960C91D497D3960C93D39700E059
:101566000C9306C00C91013018F00C910A950C935F
:10157600E4E00C948A189A938A93C8018C01B5DF2B
:101586008C0103D0899199910895BA93AA93D801B1
:10159600FD0103A910E0F801E056FF4F0491FD019B
:1015A60002A7FD0101810023B1F1FD0103A90F305E
:1015B60031F1FD0104A115A10C3D25E0120738F417
:1015C600FD0104A115A10F5F1F4F04A315A3FD0183
:1015D60004A115A10C3D25E0120780F1FD0106A12D
:1015E600043628F4FD0106A1039506A327C000E0F2
:1015F600FD0106A3FD0122A58D0127D01FC000E035
:1016060010E0FD0104A315A300E0FD0106A300E020
:10161600FD01018313C0FD0103A90F3079F001E03C
:10162600FD010183FD0122A58D010FD000E010E030
:10163600FD0104A315A300E0FD0106A3A991B9913C
:101646000895A8012F71022F08950E947918D801D4
:10165600922F0FB7FD0107A3F894FD0123A123954F
:101666008D01EFDF802FFD0102A1801741F0082FC9
:1016760010E0FD01E00FF11F9283FD0183A3FD0140
:1016860007A10FBFE4E00C948A180E94771828017E
:10169600D90180E00FB7F20100A7F894F20103A187
:1016A600F20112A1011781F081E0F20122A1239536
:1016B6008201C7DFF20102A3F20102A110E0F201EA
:1016C600E00FF11F02810C93F20100A50FBF082F56
:1016D600E6E00C948818F8011FB711A7F89413A137
:1016E60022A1121738F410E222A1121B23A1120F15
:1016F600012F04C013A122A1121B012F11A51FBF88
:10170600089500911C0610911D06E5DF08959A9331
:101716008A93C8019C0100911C0610911D06B5DF35
:1017260089919991089500911C0610911D0623DF59
:1017360008959A938A93C8018C010FD08C011FD00B
:101746008C013BD08C0102D240EB50E020E08C01B2
:10175600DAD18C018991999108952FE02ABB2FE067
:101766002BBBD49ADC9AD59ADD9A4FEF59E668E1FD
:10177600415050406040E1F700C00000089520E06D
:10178600F80123A7F80122A7F80100A711A720E076
:10179600F80125A720E030E0F80120A331A320E0DE
:1017A60030E0F80122A333A320E0F80126A720E0C9
:1017B60030E0F80126A337A308959A938A93C801C7
:1017C6000FEF13EF21E0015010402040E1F700C079
:1017D600000028E28C01CDD00FE31FE1015010403C
:1017E600E9F700C0000028E28C01C3D00FE31FE137
:1017F60001501040E9F700C000002CE08C01B9D080
:1018060021E08C01B6D00FE31FE101501040E9F74B
:1018160000C0000026E08C01ACD022E08C01A9D0EB
:101826000FE31FE101501040E9F700C0000020E877
:101836008C019FD08991999108950E947918D801B9
:10184600FD0106A117A10F5F1F4F06A317A3FD01F8
:1018560006A117A1003024E0120728F000E010E0EE
:10186600FD0106A317A3FD0100A511A50F5F1F4FDC
:1018760000A711A7FD0103A5039503A7FD0103A575
:10188600003110F100E0FD0103A7FD0102A503955B
:1018960002A7FD0102A5023051F400E0FD0102A7F6
:1018A600FD01A0A7B1A720E88D0163D009C08D0175
:1018B600005F1F4FFD0100A711A720EC8D0159D035
:1018C60008EC00000A95E9F7FD0102A50023C9F41A
:1018D600FD0120A131A1FD0143A501E010E00E9418
:1018E600C21720233123232B49F0FD0106A117A19E
:1018F600013022E0120710F001E001C000E0802F65
:1019060018C0FD0122A133A1FD0143A501E010E0AD
:101916000E94C21720233123232B49F0FD0106A183
:1019260017A1013022E0120710F001E001C000E02B
:10193600802FFD0100A511A5F8010081FD0104A776
:10194600FD0104A5013848F0FD0104A510E0F801E9
:10195600E85CFF4F0491FD0104A7882319F000E21B
:10196600FD0104A7FD0124A58D011FD0E4E00C9420
:101976008A180E947A18C801A22F0FB700931E0674
:10198600F89408EC00000A95E9F7DD9B05C0DD98A0
:1019960008EC00000A95E9F72A2F8C0122D0009165
:1019A6001E060FBFE3E00C948B180E947A18C8013C
:1019B600A22F0FB700931F06F89408EC00000A95B3
:1019C600E9F7DD9905C0DD9A08EC00000A95E9F70C
:1019D6002A2F8C0106D000911F060FBFE3E00C945E
:1019E6008B184BB3407F322F32953F70432B4BBB46
:1019F600DC9A000000000000DC98000000000000F7
:101A06004BB3407F322F3F70432B4BBBDC9A000019
:101A160000000000DC9808950E947818C8010FB7EE
:101A2600402EF89420E48C01A4DF0FE91FE001505A
:101A36001040E9F700C00000A0E0A03160F4B0E07B
:101A4600FD01E85CFE4F24918C01AFDF00E50A95AD
:101A5600F1F7A395F2CF20E88C018BDF0FE91FE0A9
:101A660001501040E9F700C000004FBEE5E00C94BD
:101A76008918203208F020E0422F50E0F801E40FE8
:101A8600F51F30830895BA931A2EF801622F532F4B
:101A9600603208F060E070E0DF01A60FB71F5C93CC
:101AA600603130F48F01005E1F4F9801062E07C08B
:101AB6008F010E5D1F4F9801062F0051002E06A5BF
:101AC600013080F0402D01E010E00E94C217D901DC
:101AD6002D903C90202A312A3C922E9206A50A95FA
:101AE60006A70EC0402D01E010E00E94C217009527
:101AF6001095D9012D903C90202231223C922E92B5
:101B0600A12DB9910895FA013491632F662379F0D6
:101B1600203208F020E030E0F801E20FF31F608386
:101B260023954F5F5F4FFA013491632FEFCF0895EE
:101B360020E030E0F80120A331A320E030E0F801F6
:101B460022A333A320E0F80126A708959A938A9347
:101B5600C80100E0003240F420E210E0FC01E00F92
:101B6600F11F20830395F6CF8C01E2DF89919991CD
:101B760008950E9474182801B22F632ECA010B2FF4
:101B8600060D0A95A02F77247614F8F44AE050E063
:101B96008C010E94C817842EAA230AF4AFE1A03252
:101BA6000CF0A0E0282D205D0A2F102F110F110B2D
:101BB600F201E00FF11F2083AA954AE050E08C0164
:101BC6000E94C817C8017394DFCFE9E00C9485180A
:101BD6000E947418D801522E832ECA01052D080DB5
:101BE6000A95402E7724781488F54AE050E08C0157
:101BF6000E94C817642E442012F40FE1402E00E222
:101C060040160CF04424772019F001E0601660F0CD
:101C1600262D205D042D102F110F110BFD01E00F55
:101C2600F11F20834A940AC020E2042D102F110FC1
:101C3600110BFD01E00FF11F20834A944AE050E0AA
:101C46008C010E94C817C8017394CDCFE9E00C94AB
:101C560085180E943E0242ED54E034E020E00091F7
:101C6600C7051091C8050E94BC0D78940FEF13EDBF
:101C760020E3015010402040E1F700C00000009131
:101C8600C7051091C8050E940F0D0E9499020E9477
:101C9600520E0E9435050E943714FBCF08952197F6
:101CA60001E0009320068E010E94E80200E010E0A9
:101CB60020E030E0E3ECF5E00083118322833383F8
:101CC600E3ECF5E00081118122813381E3E2F6E065
:101CD60000831183228333838E010E94ED020091DB
:101CE600C7051091C8050E94A90D41E152E020E008
:101CF6000091C7051091C8050E94860D4CE152E07F
:101D060020E10091C7051091C8050E94860D219615
:101D160008958A9380E0863008F041C0082F10E0CD
:101D2600000F111FF801E653FA4F008111810E943E
:101D36003117002351F030E2282F265E0091C705A7
:101D46001091C8050E94460D10C001E0E091C7053C
:101D5600F091C80506A7382F3F5C282F265E009114
:101D6600C7051091C8050E94460D082F10E0000F08
:101D7600111FF801E653FA4F008111810E943117B5
:101D8600002311F431E001C030E0282F265F0091D6
:101D9600C7051091C8050E943C0D8395BCCF0091E4
:101DA600D605002329F00091D605013009F002D0AE
:101DB600899108958A9321978E010E94E80200E096
:101DC60010E020E030E0E3ECF5E0008311832283AD
:101DD6003383E3ECF5E00081118122813381E3E274
:101DE600F6E000831183228333838E010E94ED0285
:101DF6000091C7051091C8050E94A90D02E0009345
:101E0600200647E252E020E00091C7051091C80580
:101E16000E94860D80E08630D0F4082F10E0000F77
:101E2600111FF801E653FA4F008111810E94311704
:101E3600002311F431E001C030E0282F265F009125
:101E4600C7051091C8050E943C0D8395E4CF2196E5
:101E5600899108958A9300911506002301F100E007
:101E66000093150680E08630D0F4082F10E0000FAE
:101E7600111FF801E653FA4F008111810E943117B4
:101E8600002311F431E001C030E0282F265F0091D5
:101E9600C7051091C8050E943C0D8395E4CF0091BB
:101EA6001606002309F480C000E000931606009190
:101EB600190610911A06012B99F44DE352E020E021
:101EC6000091C7051091C8050E94860D48E452E0AE
:101ED60020E10091C7051091C8050E94860D3BC000
:101EE60047E252E020E00091C7051091C8050E9424
:101EF600860D42E352E020E10091C7051091C80526
:101F06000E94860D48EE53E00091190610911A06BC
:101F16000E94C817302F305D24E10091C70510914B
:101F2600C8050E943C0D3EE225E10091C7051091CF
:101F3600C8050E943C0D48EE53E000911906109129
:101F46001A060E94C81733E026E10091C7051091D2
:101F5600C8050E94BC0D80E0863030F52091180639
:101F6600482F01E010E00E94C2172023222389F0A7
:101F760001E0E091C705F091C80506A7382F3F5C40
:101F8600282F265E0091C7051091C8050E94460DB0
:101F960009C030E2282F265E0091C7051091C805BA
:101FA6000E94460D8395D8CF0091D605043049F49A
:101FB60043E552E020E10091C7051091C8050E9453
:101FC600860D8991089521978E010E94E80200E30B
:101FD60015E720E030E0E3ECF5E00083118322838F
:101FE6003383E3ECF5E00081118122813381E3E262
:101FF600F6E000831183228333838E010E94ED0273
:10200600009120060093210603E00093200600E0DD
:102016000093300600E0053040F420E010E0F801BF
:10202600E55DF94F20830395F6CF0091C705109122
:10203600C8050E94A90D44E652E020E00091C705BC
:102046001091C8050E94860D02D0219608958A93A4
:1020560080E080E000913006801788F400E0E0918F
:10206600C705F091C80506A73AE2282F205F009120
:10207600C7051091C8050E94460D8395EBCF0091C8
:1020860030060530B8F401E0E091C705F091C805C7
:1020960006A70091300610E0F801E55DF94F3081A2
:1020A600305D20913006205F0091C7051091C8056C
:1020B6000E94460D899108950091300610E0F801BE
:1020C600E55DF94F0081002349F409E020913006CF
:1020D60030E0F901E55DF94F008309C00091300653
:1020E60010E0F801E55DF94F00810A950083AFDF46
:1020F60008950091300610E0F801E55DF94F008182
:10210600093048F000E02091300630E0F901E55D45
:10211600F94F008309C00091300610E0F801E55D33
:10212600F94F00810395008392DF08959A938A936D
:102136000091300603950093300600913006053075
:1021460080F40091300610E0F801E65DF94F208139
:102156000091300610E0F801E55DF94F208377DF46
:102166002AC081E091E020E02530F0F430E04CE038
:1021760050E0420F531F0E949C1730E0F901E55DC5
:10218600F94F1081011709F080E030E0F901E45FB2
:10219600FD4F049130E0F901E55DF94F108101171B
:1021A60009F090E02395E0CF082F092B002311F0CA
:1021B60078D001C019D0899199910895009130067F
:1021C600013008F001D008954091210650E00EE05C
:1021D60010E00E94BA17F801EC5AFE4F05911491CF
:1021E6003197F80109950895219704E00093200698
:1021F6000091C7051091C8050E94A90D44E752E059
:1022060020E00091C7051091C8050E94860D8E0139
:102216000E94E80200E010E020E030E0E3ECF5E0A8
:102226000083118322833383E3ECF5E0008111817F
:1022360022813381E3E2F6E0008311832283338334
:1022460000E315E700933106109332068E010E94D3
:10225600ED02219608959A938A9321978E010E9402
:10226600E8020091310610913206C8018E010E94E3
:10227600ED02823000E0900778F048EE53E08C01E2
:102286000E94C817A80132E020E10091C70510910D
:10229600C8050E94EB0D01C097DF2196899199919F
:1022A6000895219705E0009320060091C705109137
:1022B600C8050E94A90D8E010E94E80200E21FEBEC
:1022C60022E030E0E3ECF5E00083118322833383E0
:1022D600E3ECF5E00081118122813381E3E2F6E04F
:1022E60000831183228333838E010E94ED0244E82A
:1022F60052E020E00091C7051091C8050E94860DA6
:1023060000E00093330602D02196089540913306EB
:1023160050E001E110E00E94BA174AE852E0400F8F
:10232600511F20E10091C7051091C8050E94860D36
:1023360008954ADF089500913306013028F0009190
:1023460033060A9500933306E1DF089500913306BC
:10235600063028F400913306039500933306D6DF42
:10236600089500913306063011F407D008950091C0
:102376003306063008F41BD10895219706E0009332
:1023860020068E010E94E80200E61AEE20E030E008
:10239600E3ECF5E00083118322833383E3ECF5E07D
:1023A6000081118122813381E3E2F6E0008311830B
:1023B600228333838E010E94ED020091C70510919E
:1023C600C8050E94A90D41E053E020E00091C70531
:1023D6001091C8050E94860D00E0053040F420E00B
:1023E60010E0F801E55DF94F20830395F6CF00E094
:1023F6000093300604D02196089553DF08959A93EA
:102406008A9380E0009130068017B0F400E0E091F6
:10241600C705F091C80506A790E0FC01E55DF94FF8
:102426003081305D282F205F0091C7051091C805C7
:102436000E94460D8395E6CF009130060530B8F42C
:1024460001E0E091C705F091C80506A700913006A6
:1024560010E0F801E55DF94F3081305D20913006DE
:10246600205F0091C7051091C8050E94460D89910D
:10247600999108950091300610E0F801E55DF94F55
:102486000081002349F409E02091300630E0F9018B
:10249600E55DF94F008309C00091300610E0F801B0
:1024A600E55DF94F00810A950083A9DF0895009143
:1024B600300610E0F801E55DF94F0081093048F07B
:1024C60000E02091300630E0F901E55DF94F008328
:1024D60009C00091300610E0F801E55DF94F008172
:1024E600039500838CDF0895009130060430A8F42C
:1024F600009130060395009330060091300610E0F7
:10250600F801E65DF94F20810091300610E0F801F0
:10251600E55DF94F208373DF089501D00895219773
:1025260007E0009320068E010E94E80200E61AEEFC
:1025360020E030E0E3ECF5E000831183228333836F
:10254600E3ECF5E00081118122813381E3E2F6E0DC
:1025560000831183228333838E010E94ED02009152
:10256600C7051091C8050E94A90D4FE053E020E170
:102576000091C7051091C8050E94860D2196089501
:1025860090DE08958EDE089520E0253070F430E068
:10259600F901E55DF94F008130E04CE050E0420F73
:1025A600531F0E94AD172395F0CF0EDE0895219795
:1025B60008E0009320060091330610E0000F111F7B
:1025C60040E050E0400F511F0E949F1700933406D1
:1025D6001093350603E0009336060091C705109167
:1025E600C8050E94A90D4BE153E020E00091C70504
:1025F6001091C8050E94860D309133063F5C2DE090
:102606000091C7051091C8050E94460D1ED08E0187
:102616000E94E80200EC14ED21E030E0E3ECF5E086
:102626000083118322833383E3ECF5E0008111817B
:1026360022813381E3E2F6E0008311832283338330
:102646008E010E94ED02219608950E94781800914D
:10265600340610913506C801A0E0A43060F503E009
:102666000A1B402E4AE050E08C010E94C817B42F86
:10267600009136060A1739F401E0E091C705F0919A
:10268600C80506A706C000E0E091C705F091C80599
:1026960006A73B2F305D242D205F0091C7051091C2
:1026A600C8050E94460D4AE050E08C010E94C817FA
:1026B600C801A395D2CFE5E00C948918F2DD089500
:1026C6000E947918A1E0B0E020E0009136062017BC
:1026D60040F40AE010E0AD010E94BA17D801239534
:1026E600F4CFAD0100913406109135060E94C8174B
:1026F6004AE050E00E94C817842F813040F0E4E39E
:10270600F6E0008111810A1B1B0B008311839DDFFC
:10271600E4E00C948A180E947918A1E0B0E020E069
:1027260000913606201740F40AE010E0AD010E9441
:10273600BA17D8012395F4CFAD0100913406109154
:1027460035060E94C8174AE050E00E94C817842F39
:10275600893040F4E4E3F6E0008111810A0F1B1F83
:102766000083118372DFE4E00C948A180091360628
:10277600013038F0009136060A950093360665DF7B
:10278600089501D00895219709E00093200600914D
:10279600C7051091C8050E94A90D49E253E020E142
:1027A6000091C7051091C8050E94860D8E010E94F2
:1027B600E80200E315E720E030E0E3ECF5E0008313
:1027C600118322833383E3ECF5E0008111812281BA
:1027D6003381E3E2F6E000831183228333838E01A3
:1027E6000E94ED02219608955CDD08955ADD089554
:1027F60000913406109135062091330630E0220F01
:10280600331F40E050E0420F531F0E94B11749DDCD
:102816000895E3E2F6E000811181228133810230DE
:1028260040E0140740E0240740E0340770F0E3E29C
:10283600F6E0008111812281338101501040204051
:1028460030400083118322833383E0913106F09177
:102856003206329740F0E1E3F6E000811181015043
:10286600104000831183089523970E94840B013042
:1028760008F440C002E216E00E948A0B8E010E5F49
:102886001F4F0E94E802E3E2F6E0008111812281F7
:102896003381023040E0140740E0240740E034076B
:1028A60060F0E3ECF5E00081118122813381E3E2FF
:1028B600F6E000831183228333838E010E5F1F4F60
:1028C6000E94ED024091200650E00EE010E00E94CA
:1028D600BA17E8E4F1E0E00FF11F0091220610E0DC
:1028E600000F111FE00FF11F059114913197F801A8
:1028F600099553C08E010F5F1F4F0E94E802E3E265
:10290600F6E00081118122813381E7E2F6E000835F
:102916001183228333838E010F5F1F4F0E94ED02C6
:10292600E7E2F6E00081118122813381013040E047
:10293600140740E0240740E0340701F58E010E94A9
:10294600E80200E010E020E030E0E3E2F6E0008399
:102956001183228333838E010E94ED02409120066B
:1029660050E00EE010E00E94BA17F801EE5AFE4F52
:10297600059114913197F80109950FC040912006F1
:1029860050E00EE010E00E94BA17F801E85BFE4F37
:10299600059114913197F8010995239608950E949F
:1029A6007618C801622E532E442EB52FA62F6A2FF5
:1029B6005B2F442D352D262D8C0104D08C01E7E0AC
:1029C6000C9487180E947618D801622E832F542EF5
:1029D600452E962F062DE6E3F0E0FBBFF3E00C94C0
:1029E600281809E3FD0105830AE3FD0104830BE3CF
:1029F600FD0106838CC009E3FD0105830AE3FD01A1
:102A060004830BE3FD01068382C006E3FD01058313
:102A160007E3FD01048308E3FD01068378C006E3AE
:102A2600FD01058307E3FD01048308E3FD01068339
:102A36006EC003E3FD01058304E3FD01048305E3A2
:102A4600FD01068364C003E3FD01058304E3FD0184
:102A5600048305E3FD0106835AC000E3FD010583F7
:102A660001E3FD01048302E3FD01068350C000E398
:102A7600FD01058301E3FD01048302E3FD010683F5
:102A860046C001E2FD01058302E2FD01048303E283
:102A9600FD0106833CC001E2FD01058302E2FD0162
:102AA600048303E2FD01068332C000E2FD010583D3
:102AB60001E6FD01048302E6FD01068328C000E26B
:102AC600FD01058301E6FD01048302E6FD0106839F
:102AD6001EC003E6FD01058304E6FD01048305E649
:102AE600FD01068314C003E6FD01058304E6FD012E
:102AF600048305E6FD0106830AC003E3FD010583A1
:102B060004E3FD01048305E3FD01068383E08830C9
:102B160040F4482F01E010E00E94C217FD01078330
:102B260003C001E0FD010783552051F0FD01178127
:102B3600FD010481E02FF0E00081012B00830AC033
:102B4600FD0117811095FD010481E02FF0E0008161
:102B560001230083FD011781FD010681E02FF0E0CE
:102B66000081012B008300E010E0FD010187128740
:102B76000D931C93119700E0FD010283FD01438232
:102B86008D010D5F1F4FFD0103871487983040F4B8
:102B9600492F01E010E00E94C217FD01008703C023
:102BA60001E0FD010087E7E00C948718F801258114
:102BB600E22FF0E02081F80137812323222319F048
:102BC600F8010085089500E008950E947518D8015F
:102BD600722E832F642E2B01952FFD019183FD010B
:102BE60043825482FD01658200E00C93072DE4E6E2
:102BF600F0E0FBBFF3E00C94281809E3FD0107831E
:102C06000AE3FD0106830BE3FD0100878CC009E39F
:102C1600FD0107830AE3FD0106830BE3FD0100873F
:102C260082C006E3FD01078307E3FD01068308E38F
:102C3600FD01008778C006E3FD01078307E3FD0178
:102C4600068308E3FD0100876EC003E3FD010783E9
:102C560004E3FD01068305E3FD01008764C003E389
:102C6600FD01078304E3FD01068305E3FD010087FB
:102C76005AC000E3FD01078301E3FD01068302E379
:102C8600FD01008750C000E3FD01078301E3FD015C
:102C9600068302E3FD01008746C001E2FD010783CA
:102CA60002E2FD01068303E2FD0100873CC001E26A
:102CB600FD01078302E2FD01068303E2FD010087B1
:102CC60032C000E2FD01078301E6FD01068302E64C
:102CD600FD01008728C000E2FD01078301E6FD0132
:102CE600068302E6FD0100871EC003E6FD01078399
:102CF60004E6FD01068305E6FD01008714C003E630
:102D0600FD01078304E6FD01068305E6FD01008754
:102D16000AC003E6FD01078304E6FD01068305E616
:102D2600FD01008784E0883008F080E0482F01E04C
:102D360010E00E94C217FD010187FD011185109563
:102D4600FD010681E02FF0E0008101230083FD01F3
:102D56001185FD010085E02FF0E01083FD0107815C
:102D6600E02FF0E00081FD0111850123002311F021
:102D760001E001C000E01C910127FD010287FD0171
:102D86000285002329F0FD010581FD01038703C0AB
:102D960000E0FD0103878D01E8E00C948618BA93E4
:102DA600AA93D801FD010781E02FF0E00081FD0123
:102DB600118501231C910127002349F1FD0103859B
:102DC600FD011581011720F4FD0103850395038795
:102DD600FD010385FD0115810117E8F1FD0102855D
:102DE6000023C9F501E0FD010287FD01238134813D
:102DF60000E010E02017310771F1FD011181FD019E
:102E060002851396ED91FC911497099524C0FD0156
:102E16000385013020F0FD0103850A950387FD0136
:102E260003850023C1F4FD0102850023A1F000E023
:102E3600FD010287FD012381348100E010E02017A7
:102E4600310749F0FD011181FD0102851396ED91CF
:102E5600FC9114970995A991B9910895F8010285F5
:102E6600089520E030E000E10E943D1701E010E007
:102E76000C943E1708952297C801888399839E0172
:102E860001E00E943D17F9CF0C943E170E9472187C
:102E96004801A22EDA01962F82E024016A2C0BC08B
:102EA60002E0400E511E611E823099F002E0400E93
:102EB60000E0501E601E4A165B06690689F0F201A4
:102EC6006BBE4791569110E04030504049F3823036
:102ED60069F3F2016BBE0791F691E02F0995E6CFF3
:102EE6008A95D9F6EBE00C9483180FEB0DBF05E03D
:102EF6000EBFC0E6D1E00E949318002311F00E9495
:102F0600C41802E913E020E046E953E060E00E94BD
:102F160049170E942C0E0E94B8170C944717E19986
:102F2600FECF08954F5F5F4FFADF4EBB5FBBE09A5F
:102F36000895FADF0DB30895F7DF0DB3F3DF1DB380
:102F460008954F5F5F4F4EBB5FBBF894E29AE19ADC
:102F56000FBE08950FB6E3DF0DBBF5CF0FB6DFDF6B
:102F66000DBBF1DFDCDF1DBBECCF0C944717149FC4
:102F7600102D059F100D049F002D110D08954A95E3
:102F86001AF0000F111FFBCF089500241124EFE063
:102F9600001F111F001C111C0416150610F0041A40
:102FA600150AEA95AAF7001F111FA00100951095B2
:102FB60008952224349F302D259F300D169F300D05
:102FC600079F300D249F202D310D159F200D311D9B
:102FD600069F200D311D149F102D210D321D059FBA
:102FE600100D211D321D049F002D110D221D321DB5
:102FF6000895002411241001E0E2EA9592F0001FE2
:10300600111F221F331F001C111C221C331C041607
:1030160015062606370688F3041A150A260A370AFD
:10302600ECCF001F111F221F331FA001B101009515
:10303600109520953095089577916791579147910E
:10304600179011FA279037900895F9DF041B10E0C6
:1030560003C0F4DF041B150B20E030E005C0ECDFF5
:10306600041B150B260B370BB8F010FC17C0479145
:103076000790E00FF11F0417100540E024073407FE
:1030860058F436F406910024F101E01BF009099486
:10309600E00FF11F27903790F101099411F4D6F74C
:1030A600F1CF31960EF0319650E060E070E0479136
:1030B6004B3F48F089F34F3F29F04E3F11F077918F
:1030C600679157914791041B150B260B370B39F364
:1030D60018F3E7CFFA92EA92DA92CA92BA92AA92D1
:1030E6009A928A927A926A925A924A92BA93AA9338
:1030F6009A938A930895FF84EE84DD84CC84BB84FE
:10310600AA84998488847F806E805D804C80BB8190
:10311600AA8199818881F0E0EC0FFD1FEF010895E7
:1031260001E008959A938A93C80102C00E94B218DA
:103136008C010E94C019202F012B69F4E7E3F6E009
:103146002081318100E02030300781F3E09137069D
:10315600F32F0995EDCF022F8991999108950C943B
:10316600341720E008D0E9F708953BBF27913BB715
:1031760002D0D9F708952D9301501040202F212B0E
:10318600089502E3402E04E3502E00E0602EF20183
:10319600362D6BBE07911691F201EE5FFF4F3F4F42
:1031A6003BBFA791B691F201362DEC5FFF4F3F4F23
:1031B6003BBF479157916691242F252B262B21F053
:1031C600FA01362FD2DF01C0CCDF07E0400E00E067
:1031D600501E601EA201662D403454436040B8F272
:1031E6000895E9E3F6E000811181012B19F000E072
:1031F60010E0089500E611E00083118320E034E03A
:10320600F8012083318308950D01D801012B09F4BB
:1032160055C01297ED91FC911197349708F44EC062
:103226000BE316E0F80153D019F0A217B30728F400
:10323600FD0122833383F80123C0F90148D019F038
:103246002A173B07D0F3408151819F01240F351F78
:10325600A217B30798F12A173B0741F42D913C9129
:10326600420F531F40835183DF010CC030D021F041
:1032760027D02617370710F112962D933C931397F4
:10328600A283B383FD0123D0C9F01AD06217730756
:10329600A9F420E0F80120832183FD010281F38156
:1032A600E02F208131814D915C91420F531F5C9339
:1032B6004E9302811381FD0102831383D001089589
:1032C6004D915C911197BD01640F751F0895228180
:1032D6003381422F432B08959A938A93C80105C0E0
:1032E6002E5F3F4F89010E940719EBE3F6E000814C
:1032F6001181202F212B61F40DE316E001C037D098
:1033060029D0F1F02ED0D8F322C02BD000F52FD043
:1033160021D0D9F7EBE3F6E00081F181E02F1ED052
:103326000DE316E007C0FA0140815181481759079D
:1033360070F41DD0F801408151814217530799F767
:103346000E94F4189801012B59F600E010E08991CB
:103356009991089502D0232B0895F8012081318197
:103366000895E081F32FFADF281739070895F80149
:10337600008111810E5F1F4F08950E947918C801C0
:1033860002960817190718F000E010E047C08430CD
:1033960000E0900710F484E090E08C019DDF202F80
:1033A600212B91F3DADFF901A081B1811497A817D7
:1033B600B90730F422813381D8012D933C9316C08E
:1033C600280F391FD8012D933C934281538129D070
:1033D6004D935C9340815181481B590BD8012D9127
:1033E600BC91A22F4D935C9380839183D8012D913C
:1033F6003C91232B59F015D02D913C91232B31F084
:10340600D8010D911C910E5F1F4F02C000E010E025
:10341600ABE3B6E00D931C9332968F01E4E00C9477
:103426008A18D8012D91D901129608957800C705FA
:103436000000000700C005403400010100504600AE
:013446000085
:0400000300000000F9
:00000001FF
