:020000020000FC
:100000000C94FF1318951895189518951895189530
:100010001895189518951895189518951895189578
:10002000189518950C9425021895189518951895FB
:100030001895189518951895189518950C94A2026E
:1000400018951895189518950C9446130C947D13D3
:100050001895189518951895189518951895189538
:100060001895189518951895189518951895189528
:100070001895189518951895189518951895189518
:10008000189518951895189518951895EC02EC0286
:10009000EC02EC025E03EC026C03CD03EC02E6031F
:1000A000EC02F903EC02EC02EC02EC02EC02EC02D2
:1000B000EC02EC02EC02EC02EC02EC0201020103A5
:1000C000010201040102010301020100474D206306
:1000D0006F646500D9DA20202020202020202020F5
:1000E0002020202020202020202020202020202010
:1000F0002020202020202020202020202020202000
:1001000020202020A2B520202020202020202020D8
:100110002020202041A042A1E045A3A4A5A64BA7F2
:100120004D484FA8504354A9AA58E1ABACE2ADAE3C
:1001300062AFB0B161B2B3B4E365B6B7B8B9BABB38
:10014000BCBD6FBE7063BF79E478E5C0C1E6C2C3D1
:10015000C4C5C6C70609090600000000060F0F0641
:10016000000000003C093C093C093C093C093C09F1
:100170003C0976093B093B093B093B093B093C0922
:100180001B0AE30A3B093B093B093B09C7093B0939
:10019000DE0B5C0B790B960BE40BE30A2B0C3B0993
:1001A0003B093B093B093B09F40B3B09990C9B0CB0
:1001B000A60CB10CE40B510C3B09030D400D5D0D79
:1001C0007A0DE40BC30C3B09C60DC80DCA0D3B09E3
:1001D000E40B950D3B09640E660E910EBC0EE40B0C
:1001E000DD0D3B09FA0EFC0EFE0E3B09E40BC90EB9
:1001F000500F780F7A0F890F980FE40B0F0F3B0900
:100200003B09D40FD60F3B09E40B9A0F3B093B097E
:100210003B093B093B093B093B093B093B093B09BE
:100220003B093B093B093B093B093B093B093B09AE
:100230003B093B093B090302040601537475636BD8
:1002400020202020200053656E736F7273203A20A7
:1002500000576F726B206D6F646520004C656E3DBA
:10026000202020202020004572726F722020202044
:10027000200053656E736F7273203A20004C656ED8
:100280003D3F202020202020202020202000496EDB
:100290007075742070617373776F72643A00506187
:1002A0007373776F7264206572726F7221004D658F
:1002B0006E753A0044697374616E636520746F20D3
:1002C000533120200044697374616E636520746F3C
:1002D00020533220200044697374616E636520747A
:1002E0006F20533320200044697374616E6365206E
:1002F000746F20533420200044697374616E636509
:1003000020746F20533520200044697374616E633C
:100310006520746F205336202000536574206E656D
:10032000772070617373776F726400536574204B2C
:1003300020617665726167696E672000536574207D
:1003400070617373776F72643A00536176653F2012
:10035000282D2F2B290044697374616E6365207406
:100360006F205300536176653F20282D2F2B2900E5
:100370002856312B5632292F4B20204B3D006361EC
:100380006E2E20202D20202B20656E746572005368
:0B0390006176653F20282D2F2B2900EF
:10039C0041015211D01001E41001F810010C1101AF
:1003AC0020110134110148111AC61001DA1001EEA6
:1003BC0010010211011611012A11013E11FB41011C
:1003CC005E12DC1101F011010412011812012C1241
:1003DC000140120154121AD21101E61101FA110155
:1003EC000E12012212013612014A12FB5B02DD04CD
:1003FC0000E005BD05B5086005BD05B50F7B05BD65
:10040C0005B50F7D05BD05B50F7E05BD05B50B7F8B
:10041C0005BD05B5026005BD05B5016005BD01D082
:10042C00089500E004BD0CE703BD06B70F7706BFC7
:10043C0006B70F7B06BF07B7006807BF08959A93EE
:10044C008A93FA93EA933A922A921A920A927A939C
:10045C006A935A934A933A932A931A930A938FB7AF
:10046C009BB707B70F7707BF78940091C905109118
:10047C00CA050E9406070E947C060E94DE0F0E949D
:10048C00C902CFDF9BBF8FBF099119912991399177
:10049C0049915991699179910990199029903990C4
:1004AC00E991F9918991999118950FE210E00E94C8
:1004BC00DD149801012B41F089010E948206009302
:1004CC00C9051093CA05089500E010E00093C90512
:1004DC001093CA0508950E94FE010E9482020E9498
:1004EC0008130E94CD020E947C0208950E940E0403
:1004FC0008950E94ED02089503B70B7F03BF03B765
:10050C00026003BF03B7016003BF03B70F7B03BFD8
:10051C0003B7086003BF03B70F7D03BF03B70F7E9C
:10052C0003BF03B70F7703BF00E002BF09EF01BFA2
:10053C0007B7026007BF08959A938A93FA93EA93D8
:10054C003A922A921A920A927A936A935A934A93FB
:10055C003A932A931A930A938FB79BB70E94CA02B5
:10056C009BBF8FBF0991199129913991499159914B
:10057C00699179910990199029903990E991F991A3
:10058C0089919991189508950E947F020895089574
:10059C00C69AC69AC79A949A959ABE9ABE9ABF9AC8
:1005AC008C9A8D9A0FE31CE901501040E9F700C0BA
:1005BC000000959808952FB7F8012083F8940895BA
:1005CC00F80120812FBF089503E0089508950E943B
:1005DC00C7040091260610E0000F111F000F111F19
:1005EC00F801E257FF4F059114913197F8010995E5
:1005FC00089521978E010E94E1020091260610E0D9
:10060C00000F111F000F111FF801E457FF4F059148
:10061C0014913197F80109958E010E94E6022196FA
:10062C0008950E94C614202F312F432F50E008E06C
:10063C0010E00E944F14EEEDF5E0E00FF11F022FD9
:10064C0010E0000F111F000F111FE00FF11F408170
:10065C00518162817381452B462B472BE1F4EEE1EE
:10066C00F6E080819181A281B381432F50E008E0B4
:10067C0010E00E944F14EEEDF5E0E00FF11F022F99
:10068C0010E0000F111F000F111FE00FF11F8083EE
:10069C009183A283B383432F01E010E00E9457148F
:1006AC001091DC05102B1093DC05E4E00C94D214B3
:1006BC0000E21FEB22E030E0E2E2F6E0008311837F
:1006CC002283338303E00093260608950E94C2140C
:1006DC0080E0A0E0A830B8F40A2F10E0000F111F42
:1006EC00F801E453FA4F008111810E940513002395
:1006FC0011F401E001C000E010E04A2F0E945714F1
:10070C00802BA395E7CF8823A1F57FD040E048301C
:10071C0010F560E06230E8F400E010E020E030E03A
:10072C002801390150E008E010E00E944F14EEED72
:10073C00F5E0E00FF11F062F10E0000F111F000F66
:10074C00111FE00FF11F4082518262827382639508
:10075C00E1CF4395DCCF01E010E020E030E0EEE1AA
:10076C00F6E0008311832283338304E00093260692
:10077C000BC0E2E2F6E00081118122813381012B72
:10078C00022B032B09F43ED0E8E00C94CE14E2E2E9
:10079C00F6E00081118122813381012B022B032B86
:1007AC0071F0E2E2F6E00081118122813381015087
:1007BC0010402040304000831183228333830895FE
:1007CC000091DC05002371F00FEF0093DD05009123
:1007DC00DC0500951091DD0510231093DD0505E077
:1007EC00009326060895EEE1F6E000811181228146
:1007FC0033810F5F1F4F2F4F3F4F00831183228395
:10080C0033830895159A1D980895159A1D9A089585
:10081C000CE010E00E94DD1498018901232B49F0B3
:10082C0050E067E173E04CE330E026E60E94BA1139
:10083C0002C000E010E00093CC051093CD050CE055
:10084C0010E00E94DD1498018901232B49F051E03E
:10085C0067E173E04CE331E026E60E94BA1102C076
:10086C0000E010E00093CE051093CF050CE010E0F3
:10087C000E94DD1498018901232B49F052E067E1B5
:10088C0073E04CE332E026E60E94BA1102C000E0AD
:10089C0010E00093D0051093D1050CE010E00E94FD
:1008AC00DD1498018901232B49F053E067E173E0D3
:1008BC004CE333E026E60E94BA1102C000E010E0DF
:1008CC000093D2051093D3050CE010E00E94DD14C8
:1008DC0098018901232B49F054E067E173E04CE364
:1008EC0034E026E60E94BA1102C000E010E000934A
:1008FC00D4051093D5050CE010E00E94DD1498018E
:10090C008901232B49F055E067E173E04CE335E0B6
:10091C0026E60E94BA1102C000E010E00093D60552
:10092C001093D7050CE010E00E94DD1498018901AA
:10093C00232B49F056E067E173E04CE334E026E604
:10094C000E94BA1102C000E010E00093D805109389
:10095C00D9050CE010E00E94DD1498018901232BCD
:10096C0049F057E067E173E04CE335E026E60E947E
:10097C00BA1102C000E010E00093DA051093DB0519
:10098C0008958A9300E00093DC0580E0883068F4D9
:10099C00082F10E0000F111FF801E453FA4F0081EB
:1009AC0011810E94A6128395F1CF8991089505E3D8
:1009BC0010E00E94DD149801012B39F089010CD054
:1009CC000093270610932806089500E010E000938A
:1009DC002706109328060895BA93AA93D8010DE020
:1009EC0010E00E94DD1498018901232B41F063E093
:1009FC0050E040E030E027E60E94A41002C000E086
:100A0C0010E09B960D931C939C970DE010E00E94B8
:100A1C00DD140801012B49F062E050E040E031E0C8
:100A2C0027E680010E94A41002C000E010E09D9611
:100A3C000D931C939E970DE010E00E94DD140801AD
:100A4C00012B49F061E050E040E032E027E6800104
:100A5C000E94A41002C000E010E09F960D931C931E
:100A6C00D0970DE010E00E94DD140801012B49F035
:100A7C0060E050E040E033E027E680010E94A410E3
:100A8C0002C000E010E0D1960D931C93D29700E0C9
:100A9C000C9300E011960C93119700E093960C9335
:100AAC00939792960C9392978D01A991B991089571
:100ABC000E94C614D8019B960D911C919C970E9484
:100ACC00AB11802F9D960D911C919E970E94AB119E
:100ADC00902F9F960D911C91D0970E94AB11892B52
:100AEC00802BD1960D911C91D2970E94AB11802B2B
:100AFC00D4968C93D497D4960C91D497D3961C916E
:100B0C00D397011791F00C91043118F40C910395C3
:100B1C000C930C91043178F0D4960C91D497D39615
:100B2C000C93D39700E00C9306C00C91013018F095
:100B3C000C910A950C93E4E00C94D2149A938A933A
:100B4C00C8018C01B5DF8C0103D08991999108956E
:100B5C00BA93AA93D801FD0103A910E0F801E4545B
:100B6C00FF4F0491FD0102A7FD0101810023B1F1AA
:100B7C00FD0103A90F3031F1FD0104A115A10C3DBC
:100B8C0025E0120738F4FD0104A115A10F5F1F4FDA
:100B9C0004A315A3FD0104A115A10C3D25E012072A
:100BAC0080F1FD0106A1043628F4FD0106A1039590
:100BBC0006A327C000E0FD0106A3FD0122A58D01BF
:100BCC0027D01FC000E010E0FD0104A315A300E036
:100BDC00FD0106A300E0FD01018313C0FD0103A983
:100BEC000F3079F001E0FD010183FD0122A58D019B
:100BFC000FD000E010E0FD0104A315A300E0FD01FF
:100C0C0006A3A991B9910895A8012F71022F0895F7
:100C1C000E94C614D801922F0FB7FD0107A3F894B8
:100C2C00FD0123A123958D01EFDF802FFD0102A192
:100C3C00801741F0082F10E0FD01E00FF11F9283A7
:100C4C00FD0183A3FD0107A10FBFE4E00C94D214B6
:100C5C000E94C4142801D90180E00FB7F20100A74B
:100C6C00F894F20103A1F20112A1011781F081E0C5
:100C7C00F20122A123958201C7DFF20102A3F20146
:100C8C0002A110E0F201E00FF11F02810C93F201BE
:100C9C0000A50FBF082FE6E00C94D014F8011FB785
:100CAC0011A7F89413A122A1121738F410E222A173
:100CBC00121B23A1120F012F04C013A122A1121B7E
:100CCC00012F11A51FBF089500912706109128062A
:100CDC00E5DF08959A938A93C8019C010091270639
:100CEC0010912806B5DF89919991089500912706F6
:100CFC001091280623DF08959A938A93C8018C01DA
:100D0C000FD08C011FD08C013BD08C0102D24CEC4B
:100D1C0050E020E08C01DAD18C01899199910895F1
:100D2C002FE02ABB2FE02BBBD49ADC9AD59ADD9A04
:100D3C004FEF59E668E1415050406040E1F700C088
:100D4C000000089520E0F80123A7F80122A7F8017C
:100D5C0000A711A720E0F80125A720E030E0F8015A
:100D6C0020A331A320E030E0F80122A333A320E03C
:100D7C00F80126A720E030E0F80126A337A3089558
:100D8C009A938A93C8010FEF13EF21E001501040A2
:100D9C002040E1F700C0000028E28C01CDD00FE329
:100DAC001FE101501040E9F700C0000028E28C015F
:100DBC00C3D00FE31FE101501040E9F700C0000061
:100DCC002CE08C01B9D021E08C01B6D00FE31FE1EF
:100DDC0001501040E9F700C0000026E08C01ACD0B7
:100DEC0022E08C01A9D00FE31FE101501040E9F77C
:100DFC0000C0000020E88C019FD089919991089542
:100E0C000E94C614D801FD0106A117A10F5F1F4F48
:100E1C0006A317A3FD0106A117A1003024E01207B9
:100E2C0028F000E010E0FD0106A317A3FD0100A5CA
:100E3C0011A50F5F1F4F00A711A7FD0103A5039577
:100E4C0003A7FD0103A5003110F100E0FD0103A78C
:100E5C00FD0102A5039502A7FD0102A5023051F484
:100E6C0000E0FD0102A7FD01A0A7B1A720E88D01BC
:100E7C0063D009C08D01005F1F4FFD0100A711A7B2
:100E8C0020EC8D0159D008EC00000A95E9F7FD0122
:100E9C0002A50023C9F4FD0120A131A1FD0143A548
:100EAC0001E010E00E94571420233123232B49F03A
:100EBC00FD0106A117A1013022E0120710F001E09C
:100ECC0001C000E0802F18C0FD0122A133A1FD015B
:100EDC0043A501E010E00E94571420233123232B5B
:100EEC0049F0FD0106A117A1013022E0120710F014
:100EFC0001E001C000E0802FFD0100A511A5F80163
:100F0C000081FD0104A7FD0104A5013848F0FD0195
:100F1C0004A510E0F801EC5AFF4F0491FD0104A761
:100F2C00882319F000E2FD0104A7FD0124A58D0121
:100F3C001FD0E4E00C94D2140E94C714C801A22F55
:100F4C000FB700932906F89408EC00000A95E9F70E
:100F5C00DD9B05C0DD9808EC00000A95E9F72A2F07
:100F6C008C0122D0009129060FBFE3E00C94D3141E
:100F7C000E94C714C801A22F0FB700932A06F89439
:100F8C0008EC00000A95E9F7DD9905C0DD9A08EC3C
:100F9C0000000A95E9F72A2F8C0106D000912A0649
:100FAC000FBFE3E00C94D3144BB3407F322F329538
:100FBC003F70432B4BBBDC9A000000000000DC9818
:100FCC000000000000004BB3407F322F3F70432BDA
:100FDC004BBBDC9A000000000000DC9808950E94D6
:100FEC00C514C8010FB7402EF89420E48C01A4DF7F
:100FFC000FE91FE001501040E9F700C00000A0E02D
:10100C00A03160F4B0E0FD01EC5AFE4F24918C014C
:10101C00AFDF00E50A95F1F7A395F2CF20E88C013C
:10102C008BDF0FE91FE001501040E9F700C0000012
:10103C004FBEE5E00C94D114203208F020E0422F92
:10104C0050E0F801E40FF51F30830895BA931A2E7F
:10105C00F801622F532F603208F060E070E0DF017E
:10106C00A60FB71F5C93603130F48F01005E1F4FE9
:10107C009801062E07C08F010E5D1F4F9801062F99
:10108C000051002E06A5013080F0402D01E010E04B
:10109C000E945714D9012D903C90202A312A3C9261
:1010AC002E9206A50A9506A70EC0402D01E010E071
:1010BC000E94571400951095D9012D903C90202238
:1010CC0031223C922E92A12DB9910895FA013491BE
:1010DC00632F662379F0203208F020E030E0F8012D
:1010EC00E20FF31F608323954F5F5F4FFA0134913A
:1010FC00632FEFCF089520E030E0F80120A331A357
:10110C0020E030E0F80122A333A320E0F80126A769
:10111C0008959A938A93C80100E0003240F420E2CB
:10112C0010E0FC01E00FF11F20830395F6CF8C013A
:10113C00E2DF8991999108950E94C1142801B22F80
:10114C00632ECA010B2F060D0A95A02F7724761457
:10115C00F8F44AE050E08C010E945D14842EAA231E
:10116C000AF4AFE1A0320CF0A0E0282D205D0A2F8C
:10117C00102F110F110BF201E00FF11F2083AA9514
:10118C004AE050E08C010E945D14C8017394DFCFDB
:10119C00E9E00C94CD140E94C114D801522E832E78
:1011AC00CA01052D080D0A95402E7724781488F570
:1011BC004AE050E08C010E945D14642E442012F42D
:1011CC000FE1402E00E240160CF04424772019F079
:1011DC0001E0601660F0262D205D042D102F110FFC
:1011EC00110BFD01E00FF11F20834A940AC020E28D
:1011FC00042D102F110F110BFD01E00FF11F208397
:10120C004A944AE050E08C010E945D14C80173942A
:10121C00CDCFE9E00C94CD140E94710242ED54E064
:10122C0034E020E00091C9051091CA050E94A20883
:10123C0078940FEF13ED20E3015010402040E1F7BC
:10124C0000C000000091C9051091CA050E94F50765
:10125C000E94CE020E943C090E94AE130E94B6135B
:10126C000E94FF020E940910F9CF0895219701E016
:10127C0000932B068E010E94E10200E010E020E0BA
:10128C0030E0E4ECF5E00083118322833383E4EC5B
:10129C00F5E00081118122813381EEE2F6E00083DA
:1012AC001183228333838E010E94E6020091C905CB
:1012BC001091CA050E948F084BE352E020E0009188
:1012CC00C9051091CA050E946C0846E452E020E161
:1012DC000091C9051091CA050E946C0821960895C9
:1012EC008A9380E0863008F041C0082F10E0000F90
:1012FC00111FF801E453FA4F008111810E9405136C
:10130C00002351F030E2282F265E0091C905109180
:10131C00CA050E942C0810C001E0E091C905F091AB
:10132C00CA0506A7382F3F5C282F265E0091C905F9
:10133C001091CA050E942C08082F10E0000F111FF5
:10134C00F801E453FA4F008111810E940513002328
:10135C0011F431E001C030E0282F265F0091C9055F
:10136C001091CA050E9422088395BCCF0E94EA0204
:10137C00002329F00E94EA02013009F002D0899181
:10138C0008958A9321978E010E94E10200E010E0FB
:10139C0020E030E0E4ECF5E000831183228333831A
:1013AC00E4ECF5E00081118122813381EEE2F6E07C
:1013BC0000831183228333838E010E94E602009105
:1013CC00C9051091CA050E948F0802E000932B06F4
:1013DC0041E552E020E00091C9051091CA050E9438
:1013EC006C0801E00093C80520D080E08630D0F472
:1013FC00082F10E0000F111FF801E453FA4F008181
:10140C0011810E940513002311F431E001C030E07A
:10141C00282F265F0091C9051091CA050E94220849
:10142C008395E4CF2196899108958A930091C00504
:10143C00002321F40091C805002301F100E0009382
:10144C00C00580E08630D0F4082F10E0000F111F8B
:10145C00F801E453FA4F008111810E940513002317
:10146C0011F431E001C030E0282F265F0091C9054E
:10147C001091CA050E9422088395E4CF0091C10502
:10148C00002329F40091C805002309F484C000E06E
:10149C000093C1050091C2051091C305012BB9F44D
:1014AC000091C805002399F447E652E020E0009132
:1014BC00C9051091CA050E946C0842E752E020E170
:1014CC000091C9051091CA050E946C083BC041E50A
:1014DC0052E020E00091C9051091CA050E946C08E9
:1014EC004CE552E020E10091C9051091CA050E941B
:1014FC006C0848EE53E00091C2051091C3050E94A0
:10150C005D14302F305D24E10091C9051091CA059E
:10151C000E9422083EE225E10091C9051091CA05FE
:10152C000E94220848EE53E00091C2051091C305B9
:10153C000E945D1433E026E10091C9051091CA05A3
:10154C000E94A20880E0863030F52091CB05482F10
:10155C0001E010E00E9457142023222389F001E0BF
:10156C00E091C905F091CA0506A7382F3F5C282FDA
:10157C00265E0091C9051091CA050E942C0809C06D
:10158C0030E2282F265E0091C9051091CA050E94F1
:10159C002C088395D8CF0E94EA02043049F44DE719
:1015AC0052E020E10091C9051091CA050E946C0817
:1015BC0000E00093C8058991089521978E010E943F
:1015CC00E10200E315E720E030E0E4ECF5E0008315
:1015DC00118322833383E4ECF5E0008111812281B5
:1015EC003381EEE2F6E000831183228333838E0194
:1015FC000E94E60200912B0600932C0603E0009358
:10160C002B0600E000933B0600E0053040F420E0A0
:10161C0010E0F801EA5CF94F20830395F6CF0091B6
:10162C00C9051091CA050E948F084EE852E020E0CF
:10163C000091C9051091CA050E946C0802D0219630
:10164C0008958A9380E080E000913B06801788F42F
:10165C0000E0E091C905F091CA0506A73AE2282FEF
:10166C00205F0091C9051091CA050E942C08839532
:10167C00EBCF00913B060530B8F401E0E091C905D1
:10168C00F091CA0506A700913B0610E0F801EA5C50
:10169C00F94F3081305D20913B06205F0091C905E8
:1016AC001091CA050E942C088991089500913B065F
:1016BC0010E0F801EA5CF94F0081002349F409E0DD
:1016CC0020913B0630E0F901EA5CF94F008309C038
:1016DC0000913B0610E0F801EA5CF94F00810A9595
:1016EC000083AFDF089500913B0610E0F801EA5C3F
:1016FC00F94F0081093048F000E020913B0630E0C2
:10170C00F901EA5CF94F008309C000913B0610E037
:10171C00F801EA5CF94F00810395008392DF08958C
:10172C009A938A9300913B06039500933B06009194
:10173C003B06053080F400913B0610E0F801EB5CB1
:10174C00F94F208100913B0610E0F801EA5CF94F5B
:10175C00208377DF2AC081E091E020E02530F0F48F
:10176C0030E04DE050E0420F531F0E94231430E054
:10177C00F901EA5CF94F1081011709F080E030E0C3
:10178C00F901EA5CFD4F049130E0F901EA5CF94F94
:10179C001081011709F090E02395E0CF082F092B59
:1017AC00002311F078D001C019D089919991089536
:1017BC0000913B06013008F001D0089540912C06B1
:1017CC0050E00EE010E00E944F14F801E059FE4F7B
:1017DC00059114913197F80109950895219704E02A
:1017EC0000932B060091C9051091CA050E948F0821
:1017FC004EE952E020E00091C9051091CA050E9403
:10180C006C088E010E94E10200E010E020E030E064
:10181C00E4ECF5E00083118322833383E4ECF5E000
:10182C000081118122813381EEE2F6E00083118385
:10183C002283338300E315E700933C0610933D06A7
:10184C008E010E94E602219608959A938A9321971D
:10185C008E010E94E10200913C0610913D06C801E8
:10186C008E010E94E602823000E0900778F048EE8C
:10187C0053E08C010E945D14A80132E020E100913C
:10188C00C9051091CA050E94D10801C097DF2196A5
:10189C00899199910895219705E000932B06009169
:1018AC00C9051091CA050E948F088E010E94E102A1
:1018BC0000E21FEB22E030E0E4ECF5E00083118362
:1018CC0022833383E4ECF5E00081118122813381A2
:1018DC00EEE2F6E000831183228333838E010E94B3
:1018EC00E6024EEA52E020E00091C9051091CA05CB
:1018FC000E946C0800E000933E0602D021960895E9
:10190C0040913E0650E001E110E00E944F1444EB80
:10191C0052E0400F511F20E10091C9051091CA05FA
:10192C000E946C0808954ADF089500913E0601302C
:10193C0028F000913E060A9500933E06E1DF0895DB
:10194C0000913E06073028F400913E060395009363
:10195C003E06D6DF089500913E06063011F40DD0F8
:10196C00089500913E06063010F421D1089500919F
:10197C003E06073009F44DD20895219706E00093F6
:10198C002B068E010E94E10200E61AEE20E030E008
:10199C00E4ECF5E00083118322833383E4ECF5E07F
:1019AC000081118122813381EEE2F6E00083118304
:1019BC00228333838E010E94E6020091C9051091A7
:1019CC00CA050E948F084CE353E020E00091C90542
:1019DC001091CA050E946C0800E0053040F420E02C
:1019EC0010E0F801EA5CF94F20830395F6CF00E094
:1019FC0000933B0604D0219608954DDF08959A93E9
:101A0C008A9380E000913B068017B0F400E0E091EF
:101A1C00C905F091CA0506A790E0FC01EA5CF94FF4
:101A2C003081305D282F205F0091C9051091CA05C7
:101A3C000E942C088395E6CF00913B060530B8F444
:101A4C0001E0E091C905F091CA0506A700913B069B
:101A5C0010E0F801EA5CF94F3081305D20913B06D3
:101A6C00205F0091C9051091CA050E942C0889912C
:101A7C009991089500913B0610E0F801EA5CF94F4A
:101A8C000081002349F409E020913B0630E0F90184
:101A9C00EA5CF94F008309C000913B0610E0F801A5
:101AAC00EA5CF94F00810A950083A9DF0895009143
:101ABC003B0610E0F801EA5CF94F0081093048F070
:101ACC0000E020913B0630E0F901EA5CF94F00831D
:101ADC0009C000913B0610E0F801EA5CF94F008167
:101AEC00039500838CDF089500913B060430A8F425
:101AFC0000913B06039500933B0600913B0610E0DA
:101B0C00F801EB5CF94F208100913B0610E0F801E5
:101B1C00EA5CF94F208373DF089501D00895219773
:101B2C0007E000932B068E010E94E10200E61AEEFC
:101B3C0020E030E0E4ECF5E0008311832283338372
:101B4C00E4ECF5E00081118122813381EEE2F6E0D4
:101B5C0000831183228333838E010E94E60200915D
:101B6C00C9051091CA050E948F084AE453E020E190
:101B7C000091C9051091CA050E946C082196089520
:101B8C008ADE089588DE089520E0253070F430E078
:101B9C00F901EA5CF94F008130E04DE050E0420F72
:101BAC00531F0E9434142395F0CF08DE089521971B
:101BBC0008E000932B0600913E0610E0000F111F69
:101BCC0040E050E0400F511F0E94261400933F0646
:101BDC001093400603E0009341060091C905109153
:101BEC00CA050E948F0846E553E020E00091C90524
:101BFC001091CA050E946C0830913E063F5C2DE0A6
:101C0C000091C9051091CA050E942C081ED08E01A6
:101C1C000E94E10200EC14ED21E030E0E4ECF5E090
:101C2C000083118322833383E4ECF5E0008111817E
:101C3C0022813381EEE2F6E0008311832283338329
:101C4C008E010E94E602219608950E94C51400910F
:101C5C003F0610914006C801A0E0A43060F503E0F7
:101C6C000A1B402E4AE050E08C010E945D14B42FF8
:101C7C00009141060A1739F401E0E091C905F09191
:101C8C00CA0506A706C000E0E091C905F091CA0597
:101C9C0006A73B2F305D242D205F0091C9051091C4
:101CAC00CA050E942C084AE050E08C010E945D1489
:101CBC00C801A395D2CFE5E00C94D114ECDD0895C6
:101CCC000E94C614A1E0B0E020E00091410620176C
:101CDC0040F40AE010E0AD010E944F14D8012395A6
:101CEC00F4CFAD0100913F06109140060E945D14A7
:101CFC004AE050E00E945D14842F813040F0EFE305
:101D0C00F6E0008111810A1B1B0B008311839DDF00
:101D1C00E4E00C94D2140E94C614A1E0B0E020E0E0
:101D2C0000914106201740F40AE010E0AD010E943A
:101D3C004F14D8012395F4CFAD0100913F061091BB
:101D4C0040060E945D144AE050E00E945D14842F0E
:101D5C00893040F4EFE3F6E0008111810A0F1B1F7C
:101D6C000083118372DFE4E00C94D21400914106DD
:101D7C00013038F0009141060A950093410665DF69
:101D8C00089501D00895219709E000932B06009146
:101D9C00C9051091CA050E948F0844E653E020E162
:101DAC000091C9051091CA050E946C088E010E9411
:101DBC00E10200E315E720E030E0E4ECF5E000831D
:101DCC00118322833383E4ECF5E0008111812281BD
:101DDC003381EEE2F6E000831183228333838E019C
:101DEC000E94E6022196089556DD089554DD08956B
:101DFC0000913F061091400620913E0630E0220FE4
:101E0C00331F40E050E0420F531F0E94381443DD53
:101E1C00089521974CE050E00E9423140093420651
:101E2C000AE000932B060091C9051091CA050E9487
:101E3C008F0840E753E020E00091C9051091CA05D6
:101E4C000E946C084EE753E020E10091C905109107
:101E5C00CA050E946C081ED08E010E94E10200ECA3
:101E6C0014ED21E030E0E4ECF5E0008311832283F3
:101E7C003383E4ECF5E00081118122813381EEE2C1
:101E8C00F6E000831183228333838E010E94E602E5
:101E9C00219608954AE0009142060E9441144AE0BE
:101EAC000E944114405D342F2DE00091C905109122
:101EBC00CA050E942C083EE22EE00091C905109143
:101ECC00CA050E942C084AE0009142060E94411467
:101EDC00405D342F2FE00091C9051091CA050E9476
:101EEC002C080895D8DC089500914206003120F4A6
:101EFC000FE00093420605C0009142060A9500933C
:101F0C004206C8DF089500914206093120F009E12C
:101F1C000093420605C000914206039500934206C9
:101F2C00B9DF089501D0089521970BE000932B069B
:101F3C000091C9051091CA050E948F0840E753E033
:101F4C0020E00091C9051091CA050E946C084FE869
:101F5C0053E020E10091C9051091CA050E946C085C
:101F6C008E010E94E10200E315E720E030E0E4EC92
:101F7C00F5E00083118322833383E4ECF5E00081E8
:101F8C00118122813381EEE2F6E0008311832283FA
:101F9C0033838E010E94E602219608950FDC08958A
:101FAC00009142064CE050E00E94341407DC089586
:101FBC00EEE2F6E00081118122813381023040E0B3
:101FCC00140740E0240740E0340770F0EEE2F6E03E
:101FDC00008111812281338101501040204030401A
:101FEC000083118322833383E0913C06F0913D06FC
:101FFC00329740F0ECE3F6E0008111810150104083
:10200C0000831183089523970E946A06013008F417
:10201C0040C00DE216E00E9470068E010E5F1F4F4D
:10202C000E94E102EEE2F6E000811181228133810F
:10203C00023040E0140740E0240740E0340760F031
:10204C00E4ECF5E00081118122813381EEE2F6E0CF
:10205C0000831183228333838E010E5F1F4F0E94F6
:10206C00E60240912B0650E00EE010E00E944F1467
:10207C00E4E6F1E0E00FF11F00912D0610E0000FF7
:10208C00111FE00FF11F059114913197F80109957B
:10209C0053C08E010F5F1F4F0E94E102EEE2F6E08B
:1020AC000081118122813381E2E3F6E00083118308
:1020BC00228333838E010F5F1F4F0E94E602E2E3FF
:1020CC00F6E00081118122813381013040E0140758
:1020DC0040E0240740E0340701F58E010E94E10244
:1020EC0000E010E020E030E0EEE2F6E00083118347
:1020FC00228333838E010E94E60240912B0650E02E
:10210C000EE010E00E944F14F801E259FE4F0591C9
:10211C0014913197F80109950FC040912B0650E0AE
:10212C000EE010E00E944F14F801EC59FE4F05919F
:10213C0014913197F8010995239608950E94C314C0
:10214C00C801622E532E442EB52FA62F6A2F5B2F5B
:10215C00442D352D262D8C0104D08C01E7E00C94F8
:10216C00CF140E94C314D801622E832F542E452EF7
:10217C00962F062DECE9F0E0FBBFF3E00C947A14FB
:10218C0009E3FD0105830AE3FD0104830BE3FD0173
:10219C0006838CC009E3FD0105830AE3FD0104837A
:1021AC000BE3FD01068382C006E3FD01058307E313
:1021BC00FD01048308E3FD01068378C006E3FD01FD
:1021CC00058307E3FD01048308E3FD0106836EC06C
:1021DC0003E3FD01058304E3FD01048305E3FD0135
:1021EC00068364C003E3FD01058304E3FD0104835E
:1021FC0005E3FD0106835AC000E3FD01058301E3FD
:10220C00FD01048302E3FD01068350C000E3FD01E0
:10221C00058301E3FD01048302E3FD01068346C04F
:10222C0001E2FD01058302E2FD01048303E2FD01ED
:10223C0006833CC001E2FD01058302E2FD0104833B
:10224C0003E2FD01068332C000E2FD01058301E6D5
:10225C00FD01048302E6FD01068328C000E2FD01B6
:10226C00058301E6FD01048302E6FD0106831EC021
:10227C0003E6FD01058304E6FD01048305E6FD018B
:10228C00068314C003E6FD01058304E6FD01048307
:10229C0005E6FD0106830AC003E3FD01058304E3A3
:1022AC00FD01048305E3FD01068383E0883040F4DF
:1022BC00482F01E010E00E945714FD01078303C072
:1022CC0001E0FD010783552051F0FD011781FD014F
:1022DC000481E02FF0E00081012B00830AC0FD0196
:1022EC0017811095FD010481E02FF0E0008101239E
:1022FC000083FD011781FD010681E02FF0E00081D4
:10230C00012B008300E010E0FD01018712870D9383
:10231C001C93119700E0FD010283FD0143828D01A6
:10232C000D5F1F4FFD0103871487983040F4492F30
:10233C0001E010E00E945714FD01008703C001E08A
:10234C00FD010087E7E00C94CF14F8012581E22F02
:10235C00F0E02081F80137812323222319F0F801C2
:10236C000085089500E008950E94C214D801722ED1
:10237C00832F642E2B01952FFD019183FD01438248
:10238C005482FD01658200E00C93072DEAECF0E02D
:10239C00FBBFF3E00C947A1409E3FD0107830AE315
:1023AC00FD0106830BE3FD0100878CC009E3FD01F1
:1023BC0007830AE3FD0106830BE3FD01008782C05E
:1023CC0006E3FD01078307E3FD01068308E3FD0136
:1023DC00008778C006E3FD01078307E3FD01068350
:1023EC0008E3FD0100876EC003E3FD01078304E3EE
:1023FC00FD01068305E3FD01008764C003E3FD01D5
:10240C00078304E3FD01068305E3FD0100875AC041
:10241C0000E3FD01078301E3FD01068302E3FD01F7
:10242C00008750C000E3FD01078301E3FD01068333
:10243C0002E3FD01008746C001E2FD01078302E2D1
:10244C00FD01068303E2FD0100873CC001E2FD01B2
:10245C00078302E2FD01068303E2FD01008732C01F
:10246C0000E2FD01078301E6FD01068302E6FD01A2
:10247C00008728C000E2FD01078301E6FD01068309
:10248C0002E6FD0100871EC003E6FD01078304E69A
:10249C00FD01068305E6FD01008714C003E6FD017E
:1024AC00078304E6FD01068305E6FD0100870AC0EB
:1024BC0003E6FD01078304E6FD01068305E6FD0145
:1024CC00008784E0883008F080E0482F01E010E0BD
:1024DC000E945714FD010187FD0111851095FD0126
:1024EC000681E02FF0E0008101230083FD011185BE
:1024FC00FD010085E02FF0E01083FD010781E02F46
:10250C00F0E00081FD0111850123002311F001E0B1
:10251C0001C000E01C910127FD010287FD0102852D
:10252C00002329F0FD010581FD01038703C000E0B4
:10253C00FD0103878D0104D08D01E8E00C94CE14CD
:10254C00BA93AA93D801FD010781E02FF0E0008136
:10255C00FD01118501231C910127002349F1FD0187
:10256C000385FD011581011720F4FD0103850395F9
:10257C000387FD010385FD0115810117E8F1FD01BC
:10258C0002850023C9F501E0FD010287FD012381CD
:10259C00348100E010E02017310771F1FD01118149
:1025AC00FD0102851396ED91FC911497099524C0B9
:1025BC00FD010385013020F0FD0103850A95038799
:1025CC00FD0103850023C1F4FD0102850023A1F068
:1025DC0000E0FD010287FD012381348100E010E061
:1025EC002017310749F0FD011181FD010285139679
:1025FC00ED91FC9114970995A991B9910895F80161
:10260C000285089528E630E08901012F10E000933F
:10261C009000022F09B900E00093950000919500FD
:10262C000F7E00939500009195000F7D009395000F
:10263C000091950002600093950000919500046054
:10264C0000939500529800919500077F0093950098
:10265C0000E00093CC060093CB060093CA060093CF
:10266C00C9060093C8060093C7060093460600935C
:10267C00450600E00AB9579A549A539A569A089507
:10268C00FA93EA935A934A933A932A931A930A9396
:10269C004FB75BB70CB1202FE5E4F6E00081017079
:1026AC0003950170302F00914606301721F401E09C
:1026BC000093CA0611C000E00093CA063093450689
:1026CC000091450610E0F801ED5BF94F2083009175
:1026DC00C90603950093C9065BBF4FBF09911991B9
:1026EC002991399149915991E991F9911895FA9358
:1026FC00EA934A933A932A931A930A933FB74BB7A8
:10270C001091C7062091C8061217A1F01091C806A7
:10271C0013951F77012F0093C806509A10E0F8010B
:10272C00E95BF94F10811CB91091CB061A951093E7
:10273C00CB0604C0559810E01093CB064BBF3FBF9F
:10274C0009911991299139914991E991F99118952A
:10275C003FB7F89418E10EE011BD01BD3FBF0895DD
:10276C001FB7F894A8951FBF089520E030E000E152
:10277C000E94C41301E010E00C94C5130895229735
:10278C00C801888399839E0101E00E94C413F9CF8C
:10279C000C94C5130E94BF144801A22EDA01962F87
:1027AC0082E024016A2C0BC002E0400E511E611E17
:1027BC00823099F002E0400E00E0501E601E4A1676
:1027CC005B06690689F0F2016BBE4791569110E0E9
:1027DC004030504049F3823069F3F2016BBE0791EF
:1027EC00F691E02F0995E6CF8A95D9F6EBE00C949B
:1027FC00CB140FEB0DBF05E00EBFC0E6D1E00E947D
:10280C00DB14002311F00E940C1508EF13E020E0FC
:10281C004CEF53E060E00E94D0130E9412090E941A
:10282C003F140C94CE13E199FECF08954F5F5F4F88
:10283C00FADF4EBB5FBBE09A0895FADF0DB3089543
:10284C00F7DF0DB3F3DF1DB308954F5F5F4F4EBB42
:10285C005FBBF894E29AE19A0FBE08950FB6E3DFDE
:10286C000DBBF5CF0FB6DFDF0DBBF1DFDCDF1DBB22
:10287C00ECCF0C94CE130024E8E0EA9532F0001F64
:10288C00001C0416D0F3041AF8CF001F402D00953D
:10289C000895149F102D059F100D049F002D110DF0
:1028AC0008954A951AF0000F111FFBCF08950024CC
:1028BC001124EFE0001F111F001C111C041615063B
:1028CC0010F0041A150AEA95AAF7001F111FA001AF
:1028DC0000951095089577916791579147911790AE
:1028EC0011FA279037900895F9DF041B10E003C00C
:1028FC00F4DF041B150B20E030E005C0ECDF041BFB
:10290C00150B260B370BB8F010FC17C0479107902E
:10291C00E00FF11F0417100540E02407340758F4AA
:10292C0036F406910024F101E01BF0090994E00F44
:10293C00F11F27903790F101099411F4D6F7F1CFDC
:10294C0031960EF0319650E060E070E047914B3FCD
:10295C0048F089F34F3F29F04E3F11F07791679182
:10296C0057914791041B150B260B370B39F318F3B2
:10297C00E7CFAA929A928A927A926A925A924A9241
:10298C00BA93AA939A938A930895AA849984888473
:10299C007F806E805D804C80BB81AA81998188810B
:1029AC00F0E0EC0FFD1FEF01089501E008959A93FC
:1029BC008A93C80102C00E94FA148C010E94081666
:1029CC00202F012B69F4EDECF6E02081318100E041
:1029DC002030300781F3E091CD06F32F0995EDCF30
:1029EC00022F8991999108950C94BB1320E008D083
:1029FC00E9F708953BBF27913BB702D0D9F708956B
:102A0C002D9301501040202F212B089502EC402EC5
:102A1C000CE2502E00E0602EF201362D6BBE0791B9
:102A2C001691F201EE5FFF4F3F4F3BBFA791B6915E
:102A3C00F201362DEC5FFF4F3F4F3BBF4791579153
:102A4C006691242F252B262B21F0FA01362FD2DF6D
:102A5C0001C0CCDF07E0400E00E0501E601EA2015A
:102A6C00662D403D5C426040B8F20895EFECF6E014
:102A7C0000811181012B19F000E010E0089500E6AF
:102A8C0011E00083118320E034E0F80120833183CE
:102A9C0008950D01D801012B09F455C01297ED9141
:102AAC00FC911197349708F44EC001ED16E0F80133
:102ABC0053D019F0A217B30728F4FD0122833383F6
:102ACC00F80123C0F90148D019F02A173B07D0F3BD
:102ADC00408151819F01240F351FA217B30798F134
:102AEC002A173B0741F42D913C91420F531F408311
:102AFC005183DF010CC030D021F027D026173707C7
:102B0C0010F112962D933C931397A283B383FD017E
:102B1C0023D0C9F01AD062177307A9F420E0F8018A
:102B2C0020832183FD010281F381E02F20813181FB
:102B3C004D915C91420F531F5C934E930281138114
:102B4C00FD0102831383D00108954D915C9111977F
:102B5C00BD01640F751F089522813381422F432BD1
:102B6C0008959A938A93C80105C02E5F3F4F89013F
:102B7C000E944F15E1EDF6E000811181202F212BF1
:102B8C0061F403ED16E001C037D029D0F1F02ED05E
:102B9C00D8F322C02BD000F52FD021D0D9F7E1EDFE
:102BAC00F6E00081F181E02F1ED003ED16E007C0A6
:102BBC00FA01408151814817590770F41DD0F80172
:102BCC00408151814217530799F70E943C15980197
:102BDC00012B59F600E010E089919991089502D0EB
:102BEC00232B0895F801208131810895E081F32F82
:102BFC00FADF281739070895F801008111810E5F5B
:102C0C001F4F08950E94C614C80102960817190791
:102C1C0018F000E010E047C0843000E0900710F49A
:102C2C0084E090E08C019DDF202F212B91F3DADFE3
:102C3C00F901A081B1811497A817B90730F422814A
:102C4C003381D8012D933C9316C0280F391FD8011E
:102C5C002D933C934281538129D04D935C934081B9
:102C6C005181481B590BD8012D91BC91A22F4D932A
:102C7C005C9380839183D8012D913C91232B59F047
:102C8C0015D02D913C91232B31F0D8010D911C9135
:102C9C000E5F1F4F02C000E010E0A1EDB6E00D93F7
:102CAC001C9332968F01E4E00C94D214D8012D9130
:102CBC00D901129608950C01C9050000000900C045
:0D2CCC0005D02C0001010100504600000160
:0400000300000000F9
:00000001FF
