:020000020000FC
:100000000C941B2018951895189518951895189507
:100010001895189518951895189518951895189578
:10002000189518950C94010218951895189518951F
:100030001895189518951895189518950C947E0292
:1000400018951895189518950C94401F0C94771FC7
:100050001895189518951895189518951895189538
:100060001895189518951895189518951895189528
:100070001895189518951895189518951895189518
:10008000189518951895189518951895980E250394
:100090002503B00E0D0425031B046E0425038704FD
:1000A000F204A004090525032503250325032503E0
:1000B0002503250325032503250325030102010349
:1000C000010201040102010301020100474D206306
:1000D0006F646500D9DA20202020202020202020F5
:1000E0002020202020202020202020202020202010
:1000F0002020202020202020202020202020202000
:1001000020202020A2B520202020202020202020D8
:100110002020202041A042A1E045A3A4A5A64BA7F2
:100120004D484FA8504354A9AA58E1ABACE2ADAE3C
:1001300062AFB0B161B2B3B4E365B6B7B8B9BABB38
:10014000BCBD6FBE7063BF79E478E5C0C1E6C2C3D1
:10015000C4C5C6C70609090600000000060F0F0641
:1001600000000000331433143314331433143314E5
:1001700033146D1432143214321432143214331412
:10018000FB14B7153214321432143214C61432145C
:10019000B21630164D166A16B816B715FF16321479
:1001A0003214321432143214C81632146D176F1709
:1001B0007A178517B81625173214D717141831185F
:1001C0004E18B816971732149A189C189E183214A5
:1001D000B8166918321438193A1965199019B816F1
:1001E000B1183214CE19D019D2193214B8169D197B
:1001F0000F1AC6143214321432143214E3193214A2
:1002000032143214321432143214321432143214BE
:10021000321432143214321432140302040601531D
:100220007475636B20202020200053656E736F72FD
:1002300073203A20004C3D202020202020004C3DFF
:100240003F20202020202020202020202020004986
:100250006E7075742070617373776F72643A0050BA
:10026000617373776F7264206572726F7221004DD3
:10027000656E753A0044697374616E636520746FCE
:1002800020533120200044697374616E63652074CB
:100290006F20533220200044697374616E636520BF
:1002A000746F20533320200044697374616E63655A
:1002B00020746F20533420200044697374616E638E
:1002C0006520746F20533520200044697374616E7B
:1002D000636520746F205336202000446973746175
:1002E0006E636520746F2053372020004469737457
:1002F000616E636520746F2053382020005365744D
:10030000206E65772070617373776F726400446547
:100310006275672073637220737065656420005393
:1003200065742070617373776F72643A00536176FD
:10033000653F20282D2F2B290044697374616E635B
:100340006520746F205300536176653F20282D2F60
:030350002B290056
:1003540041014C1DCA1C01DE1C01F21C01061D01D9
:100364001A1D012E1D01421D1AC01C01D41C01E8D6
:100374001C01FC1C01101D01241D01381DFB410141
:10038400581ED61D01EA1D01FE1D01121E01261E66
:10039400013A1E014E1E1ACC1D01E01D01F41D017F
:1003A400081E011C1E01301E01441EFB3702BE0F35
:1003B40000E005BD05B5086005BD05B50F7B05BDAD
:1003C40005B50F7D05BD05B50F7E05BD05B50B7FD4
:1003D40005BD05B5026005BD05B5016005BD01D0CB
:1003E400089500E004BD0CE703BD06B70F7706BF10
:1003F40006B70F7B06BF07B7006807BF08959A9337
:100404008A93FA93EA933A922A921A920A927A93E4
:100414006A935A934A933A932A931A930A938FB7F7
:100424009BB707B70F7707BF78940091BB0810916B
:10043400BC080E94E7110E945D110E94D81B0E9413
:10044400A502CFDF9BBF8FBF0991199129913991E3
:10045400499159916991799109901990299039900C
:10046400E991F9918991999118950FE210E00E9410
:1004740052219801012B41F089010E9463110093DC
:10048400BB081093BC08089500E010E00093BB087B
:100494001093BC0808950E94DA010E945E020E9433
:1004A400021F0E94A9020E94580208950E94E70EAA
:1004B40008950E944103089503B70B7F03BF03B758
:1004C400026003BF03B7016003BF03B70F7B03BF21
:1004D40003B7086003BF03B70F7D03BF03B70F7EE5
:1004E40003BF03B70F7703BF00E002BF09EF01BFEB
:1004F40007B7026007BF08959A938A93FA93EA9321
:100504003A922A921A920A927A936A935A934A9343
:100514003A932A931A930A938FB79BB70E94A60221
:100524009BBF8FBF09911991299139914991599193
:10053400699179910990199029903990E991F991EB
:1005440089919991189508950E945B02089505E098
:100554000A3040F420E010E0F801E056F84F208320
:100564000395F6CF08950E943621D8010FEF80E05D
:1005740090E08217930764F410E04C9150E0042754
:100584001527F801E655F84F008111960196F1CF31
:10059400E4E00C944721C69AC69AC79A949A959A0D
:1005A400BE9ABE9ABF9A8C9A8D9A0FE31CE90150A9
:1005B4001040E9F700C0000095980895B80100E0E4
:1005C40010E0BE9ABF9A8C9A8D9AC7982AE02A9511
:1005D400F1F700C094982AE02A95F1F700C040E0B2
:1005E400403110F577FB16F421E001C020E020FB38
:1005F40028B326F928BB2AE02A95F1F700C0C79A48
:100604002AE02A95F1F700C0000F111FC69B03C012
:10061400016021E030E0C798660F771F2AE02A9531
:10062400F1F700C04395DCCF949A2AE02A95F1F7BC
:1006340000C008952FB7F8012083F8940895F801B5
:1006440020812FBF0895089521978E010E941C03D5
:1006540000E00093D4088E010E942103219608959E
:100664008A9321978E010E941C030091D408802F45
:100674008E010E942103082F2196899108950E94DA
:10068400A90F0091210910E0000F111F000F111F85
:10069400F801E257FF4F059114913197F80109953C
:1006A400089521978E010E941C030091210910E0F6
:1006B400000F111F000F111FF801E457FF4F0591A0
:1006C40014913197F8010995E0ECF8E0008111816B
:1006D400228133810093BD081093BE080091D50890
:1006E4000093BF088E010E942103219608958A93E6
:1006F40021978E010E941C0300912109802F8E01F5
:100704000E942103082F2196899108950E94362181
:10071400602F212F422F01E010E00E9473201091DE
:10072400D408102B1093D40830E0F901E255F74FA8
:10073400608300911B09002309F46AC030E0422F52
:1007440050E008E010E00E946B20E7EDF8E0E00FD5
:10075400F11F062F10E0000F111F000F111FE00FF3
:10076400F11F008011802280338001280228032891
:1007740019F4662309F431E0613019F4222309F4F1
:1007840031E0613059F4213048F0022F10E0F801D3
:10079400E355F74F0081002309F031E03323C1F121
:1007A40008E91AE30093AC081093AD08E7E1F9E017
:1007B40080819181A281B381422F50E008E010E052
:1007C4000E946B20E7EDF8E0E00FF11F062F10E028
:1007D400000F111F000F111FE00FF11F8083918381
:1007E400A283B383422F01E010E00E947320109192
:1007F400D608102B1093D6084091AB08542F550FF0
:10080400550B022F10E04017510714F42093AB0846
:10081400E4E00C94472100E21FEB22E030E0ECE13D
:10082400F9E0008311832283338303E000932109D9
:1008340008950E9436210E94C90E0023F1F10E94FE
:10084400E40E40E0483010F560E06230E8F400E087
:1008540010E020E030E0C801D90150E008E010E0E9
:100864000E946B20E7EDF8E0E00FF11F062F10E087
:10087400000F111F000F111FE00FF11F80839183E0
:10088400A283B3836395E1CF4395DCCF01E010E00D
:1008940020E030E0E7E1F9E0008311832283338331
:1008A40000E00093D6080FEF0093AB0801E000933B
:1008B4001B0904E0009321090CC0ECE1F9E000817C
:1008C400118122813381012B022B032B11F40E940D
:1008D400E10EE4E00C944721ECE1F9E000811181A0
:1008E40022813381012B022B032B71F0ECE1F9E01F
:1008F4000081118122813381015010402040304019
:10090400008311832283338308950091D408002344
:10091400A1F000E0009320094091AB08439501E069
:1009240010E00E9473200A951091D60810950123B7
:100934000093D50805E00093210908950091AC08BF
:100944001091AD08012BC1F1ECEAF8E000811181AE
:100954000150104000831183E7E1F9E00081118127
:10096400228133810F5F1F4F2F4F3F4F008311832D
:10097400228333830E94C90E002389F101E000938E
:100984002009E7EDF8E000A911A922A933A9012B58
:10099400022B032B21F1E7EDF8E000AD11AD22AD00
:1009A40033AD012B022B032BD1F006E00093210978
:1009B40000E000931B09089500912009002339F0F9
:1009C40006E00093210900E000931B09089500E06C
:1009D40000931B090E94E10E02E00093210908958F
:1009E4000091D408002379F04091AB08439501E0CD
:1009F40010E00E9473200A951091D60810950123E7
:100A04000093D508089500E00093D50808950E9446
:100A14002A216497EE240FEF0093180BCC2400E0F6
:100A2400083040F42FEFFE0110E0E00FF11F2083A7
:100A34000395F6CF00E00093D50820E0283030F588
:100A4400422F50E008E010E00E946B20F801E952C8
:100A5400F74F4081518162817381452B462B472B8F
:100A640049F0FE01FE2CFF0CFF08EE0DFF1D208354
:100A7400E3940AC0422F01E010E00E947320109119
:100A8400D508102B1093D5082395D8CF03E0E01692
:100A94009CF40E94E10E02E0009321090AE010E0B8
:100AA40020E030E0E0ECF8E000831183228333831C
:100AB40001E00093AA082BC7CC2420E030E08E2D5F
:100AC400982F990F990B0297281739070CF069C1D1
:100AD400022F0395602F70E0FE2CFF0CFF086E15AB
:100AE4007F050CF05CC1FE0170E0E60FF71F40814A
:100AF400542F550F550B08E010E00E946B20F801AD
:100B0400E952F74F80819181A281B381FE0130E0E7
:100B1400E20FF31F4081542F550F550B08E010E0EE
:100B24000E946B20F801E952F74F0480158026805B
:100B3400378080159105A205B30508F4C4C004E606
:100B4400C01608F05FC030E0862F90E002972817A7
:100B5400390709F457C031E04C2D50E005E010E0AE
:100B64000E946B20F801EC5DF64F30834C2D50E071
:100B740005E010E00E946B20F801EC5DF64F218344
:100B8400362F3A954C2D50E005E010E00E946B2082
:100B9400F801EC5DF64F3283FE0130E0E20FF31F03
:100BA4004081542F550F550B08E010E00E946B2034
:100BB400F801E952F74F0480158026803780100130
:100BC400FE0170E0E60FF71F31974081542F550F57
:100BD400550B08E010E00E946B20F801E952F74F32
:100BE40080819181A281B381281A390A4C2D50E069
:100BF40005E010E00E946B20F801EC5DF64F2382C3
:100C04003482C39404E6C01608F0C7C030E0862FCF
:100C140090E001972817390709F4BFC032E04C2D42
:100C240050E005E010E00E946B20F801EC5DF64F07
:100C340030834C2D50E005E010E00E946B20F80159
:100C4400EC5DF64F21834C2D50E005E010E00E944E
:100C54006B20F801EC5DF64F6283FE0170E0E60F55
:100C6400F71F4081542F550F550B08E010E00E94E8
:100C74006B20F801E952F74F008011802280338005
:100C84001001FE0130E0E20FF31F4081542F550F95
:100C9400550B08E010E00E946B20F801E952F74F71
:100CA40084819581A681B781281A390A4C2D50E098
:100CB40005E010E00E946B20F801EC5DF64F238202
:100CC4003482C3946AC070E08E2D982F990F990BCB
:100CD40001976817790709F060C004E6C01608F0A8
:100CE4005CC030E0862F90E001972817390709F49B
:100CF40054C030E04C2D50E005E010E00E946B2021
:100D0400F801EC5DF64F30834C2D50E005E010E027
:100D14000E946B20F801EC5DF64F21834C2D50E0CE
:100D240005E010E00E946B20F801EC5DF64F628351
:100D3400FE0130E0E20FF31F4081542F550F550B95
:100D440008E010E00E946B20F801E952F74F04809C
:100D54001580268037801001FE0170E0E60FF71F32
:100D64004081542F550F550B08E010E00E946B2072
:100D7400F801E952F74F80819181A281B381281A49
:100D8400390A4C2D50E005E010E00E946B20F80178
:100D9400EC5DF64F23823482C39463959CCE2395F5
:100DA4008DCE4C2D50E005E010E00E946B20F80140
:100DB400EE5DF64F0081118120E030E0088B198B45
:100DC4002A8B3B8B0C2D0A950093180B0C2D0A953E
:100DD400402F44236AF1542F550F550B05E010E0C2
:100DE4000E946B20F801EC5DF64F038014802224EE
:100DF4003324088919892A893B8900161106220699
:100E04003306A0F4542F550F550B05E010E00E9453
:100E14006B20F801EC5DF64F0381148120E030E093
:100E2400088B198B2A8B3B8B4093180B4A95D1CF97
:100E34009E014091180B50E005E010E00E946B20E9
:100E4400F801EC5DF64F028110E0200F311FF9012B
:100E54000081102F110F110B000F111F40E050E003
:100E6400400F511F0E9442209801BE014091180B6F
:100E740050E005E010E00E946B20F801EC5DF64FB5
:100E8400018110E0600F711FFB016081762F770FE5
:100E9400770B660F771F40E050E0460F571F0E9404
:100EA4004220201B310BA90160E070E02A013B01C4
:100EB4009E014091180B50E005E010E00E946B2069
:100EC400F801EC5DF64F018110E0200F311FF901AC
:100ED4000081005D0093A0079E014091180B50E033
:100EE40005E010E00E946B20F801EC5DF64F0281F2
:100EF40010E0200F311FF9010081005D0093A1076C
:100F04004091180B50E005E010E00E946B20F801BE
:100F1400EC5DF64F0081002309F09FC19E014091D2
:100F2400180B50E005E010E00E946B20F801EC5D26
:100F3400F64F028110E0200F311FF9010081102FBC
:100F4400110F110B000F111F40E050E0400F511F13
:100F54000E9442209801BE014091180B50E005E028
:100F640010E00E946B20F801EC5DF64F028110E066
:100F7400600F711F61507040FB016081762F770F05
:100F8400770B660F771F40E050E0460F571F0E9413
:100F94004220201B310BA90160E070E04A015B0193
:100FA4009E014091180B50E005E010E00E946B2078
:100FB400F801EC5DF64F018110E0200F311FF901BB
:100FC4000181102F110F110B000F111F40E050E091
:100FD400400F511F0E9442209801BE014091180BFE
:100FE40050E005E010E00E946B20F801EC5DF64F44
:100FF400018110E0600F711FFB016081762F770F74
:10100400770B660F771F40E050E0460F571F0E9492
:101014004220201B310BA90160E070E04C875D8702
:101024006E877F870C851D852E853F8508151905DC
:101034002A053B0508F075C00C851D852E853F8566
:10104400480159019E014091180B50E005E010E061
:101054000E946B20F801EC5DF64F018110E0200F37
:10106400311FF9014181542F550F550B08E010E051
:101074000E946B20F801E952F74F80819181A2818F
:10108400B3819E014091180B50E005E010E00E94EE
:101094006B20F801EC5DF64F018110E0200F311F49
:1010A400F9014081542F550F550B08E010E00E94C0
:1010B4006B20F801E952F74F0081118122813381BD
:1010C400801B910BA20BB30B88879987AA87BB87D8
:1010D4009E014091180B50E005E010E00E946B2047
:1010E400F801EC5DF64F018110E0200F311FF9018A
:1010F4000081005D0093A3079E014091180B50E00E
:1011040005E010E00E946B20F801EC5DF64F0181D0
:1011140010E0200F311FF9010181005D0093A40745
:1011240072C09E014091180B50E005E010E00E944F
:101134006B20F801EC5DF64F028110E0200F311FA7
:10114400F9014081542F550F550B08E010E00E941F
:101154006B20F801E952F74F80819181A281B3811C
:101164009E014091180B50E005E010E00E946B20B6
:10117400F801EC5DF64F028110E0200F311F215081
:101184003040F9014081542F550F550B08E010E011
:101194000E946B20F801E952F74F008111812281EE
:1011A4003381801B910BA20BB30B88879987AA8785
:1011B400BB879E014091180B50E005E010E00E94AF
:1011C4006B20F801EC5DF64F028110E0200F311F17
:1011D40021503040F9010081005D0093A3079E0176
:1011E4004091180B50E005E010E00E946B20F801DC
:1011F400EC5DF64F028110E0200F311FF9010081F0
:10120400005D0093A4074091180B50E005E010E046
:101214000E946B20F801EC5DF64F0381148120E0FD
:1012240030E0A401B5010E948D20488559856A8566
:101234007B850E94AD20A201B301400F511F621FA4
:10124400731FE0ECF8E0408351836283738301E011
:101254000093AA080BE20093A2074091180B50E0F8
:1012640005E010E00E946B20F801EC5DF64F008170
:10127400013009F099C19E014091180B50E005E03E
:1012840010E00E946B20F801EC5DF64F028110E043
:10129400200F311FF9010181102F110F110B000FC5
:1012A400111F40E050E0400F511F0E94422098015E
:1012B400BE014091180B50E005E010E00E946B2045
:1012C400F801EC5DF64F028110E0600F711FFB0125
:1012D4006081762F770F770B660F771F40E050E021
:1012E400460F571F0E944220201B310BA90160E0CA
:1012F40070E04A015B019E014091180B50E005E04B
:1013040010E00E946B20F801EC5DF64F018110E0C3
:10131400200F311FF9010181102F110F110B000F44
:10132400111F40E050E0400F511F0E9442209801DD
:10133400BE014091180B50E005E010E00E946B20C4
:10134400F801EC5DF64F018110E0600F711FFB01A5
:101354006081762F770F770B660F771F40E050E0A0
:10136400460F571F0E944220201B310BA90160E049
:1013740070E04C875D876E877F870C851D852E8581
:101384003F85081519052A053B0508F075C00C852D
:101394001D852E853F85480159019E014091180BFA
:1013A40050E005E010E00E946B20F801EC5DF64F80
:1013B400018110E0200F311FF9014181542F550F95
:1013C400550B08E010E00E946B20F801E952F74F3A
:1013D40080819181A281B3819E014091180B50E0DC
:1013E40005E010E00E946B20F801EC5DF64F0181EE
:1013F40010E0200F311FF9014081542F550F550B78
:1014040008E010E00E946B20F801E952F74F0081D8
:10141400118122813381801B910BA20BB30B88872E
:101424009987AA87BB879E014091180B50E005E07D
:1014340010E00E946B20F801EC5DF64F018110E092
:10144400200F311FF9010081005D0093A3079E0165
:101454004091180B50E005E010E00E946B20F80169
:10146400EC5DF64F018110E0200F311FF90101817D
:10147400005D0093A4076EC09E014091180B50E0DC
:1014840005E010E00E946B20F801EC5DF64F02814C
:1014940010E0200F311FF9014181542F550F550BD6
:1014A40008E010E00E946B20F801E952F74F8081B8
:1014B4009181A281B3819E014091180B50E005E017
:1014C40010E00E946B20F801EC5DF64F028110E001
:1014D400200F311FF9014081542F550F550B08E09F
:1014E40010E00E946B20F801E952F74F008111814E
:1014F40022813381801B910BA20BB30B88879987C0
:10150400AA87BB879E014091180B50E005E010E0CC
:101514000E946B20F801EC5DF64F028110E0200F71
:10152400311FF9010081005D0093A3079E014091E2
:10153400180B50E005E010E00E946B20F801EC5D10
:10154400F64F028110E0200F311FF9010181005D87
:101554000093A4074091180B50E005E010E00E94AE
:101564006B20F801EC5DF64F0381148120E030E03C
:10157400A401B5010E948D20488559856A857B8523
:101584000E94AD20A201B301400F511F621F731FBF
:10159400E0ECF8E0408351836283738301E00093BD
:1015A400AA080BE20093A2074091180B50E005E053
:1015B40010E00E946B20F801EC5DF64F00810230D0
:1015C40009F09FC19E014091180B50E005E010E026
:1015D4000E946B20F801EC5DF64F028110E0200FB1
:1015E400311FF9010081102F110F110B000F111F72
:1015F40040E050E0400F511F0E9442209801BE017C
:101604004091180B50E005E010E00E946B20F801B7
:10161400EC5DF64F028110E0600F711F6150704065
:10162400FB016081762F770F770B660F771F40E001
:1016340050E0460F571F0E944220201B310BA90186
:1016440060E070E04A015B019E014091180B50E09C
:1016540005E010E00E946B20F801EC5DF64F01817B
:1016640010E0200F311FF9010181102F110F110B10
:10167400000F111F40E050E0400F511F0E94422014
:101684009801BE014091180B50E005E010E00E9463
:101694006B20F801EC5DF64F018110E0600F711FC3
:1016A400FB016081762F770F770B660F771F40E081
:1016B40050E0460F571F0E944220201B310BA90106
:1016C40060E070E04C875D876E877F870C851D85A1
:1016D4002E853F85081519052A053B0508F075C0B8
:1016E4000C851D852E853F85480159019E01409139
:1016F400180B50E005E010E00E946B20F801EC5D4F
:10170400F64F018110E0200F311FF9014181542F60
:10171400550F550B08E010E00E946B20F801E952C8
:10172400F74F80819181A281B3819E014091180B72
:1017340050E005E010E00E946B20F801EC5DF64FEC
:10174400018110E0200F311FF9014081542F550F02
:10175400550B08E010E00E946B20F801E952F74FA6
:101764000081118122813381801B910BA20BB30B69
:1017740088879987AA87BB879E014091180B50E000
:1017840005E010E00E946B20F801EC5DF64F01814A
:1017940010E0200F311FF9010081005D0093A307C1
:1017A4009E014091180B50E005E010E00E946B2070
:1017B400F801EC5DF64F018110E0200F311FF901B3
:1017C4000181005D0093A40772C09E014091180B33
:1017D40050E005E010E00E946B20F801EC5DF64F4C
:1017E400028110E0200F311FF9014081542F550F61
:1017F400550B08E010E00E946B20F801E952F74F06
:1018040080819181A281B3819E014091180B50E0A7
:1018140005E010E00E946B20F801EC5DF64F0281B8
:1018240010E0200F311F21503040F9014081542F26
:10183400550F550B08E010E00E946B20F801E952A7
:10184400F74F0081118122813381801B910BA20B00
:10185400B30B88879987AA87BB879E014091180B91
:1018640050E005E010E00E946B20F801EC5DF64FBB
:10187400028110E0200F311F21503040F901008116
:10188400005D0093A3079E014091180B50E005E012
:1018940010E00E946B20F801EC5DF64F028110E02D
:1018A400200F311FF9010081005D0093A4074091CE
:1018B400180B50E005E010E00E946B20F801EC5D8D
:1018C400F64F0381148120E030E0A401B5010E94A9
:1018D4008D20488559856A857B850E94AD20A201AB
:1018E400B301401B510B620B730BE0ECF8E0408337
:1018F40051836283738301E00093AA080DE200938D
:10190400A20700E00093A50700E00093210907D097
:1019140001E00093AA086496E0E10C943B210E9444
:101924003121EF97EF97259706E0802E05E6702E7C
:1019340080E006EEFE017E9690E0E80FF91F00833A
:1019440083950CE0FE017E9690E0E80FF91F00837A
:101954008395682E00E0FE017E9690E0E80FF91F63
:10196400008383950AEAFE017E9690E0E80FF91F52
:101974000083839505E5FE017E9690E0E80FF91F4C
:10198400008383950091D508FE017E9690E0E80FD0
:10199400F91F00838395082F0A5FA02FE0ECF8E07D
:1019A4000081118122813381280190E0963088F5ED
:1019B400933081F44EE28E01025E1F4FEA2FF0E075
:1019C400292F30E0E21BF30B31970E0F1F1FF80194
:1019D40040831CC04AE050E082010E947920B42F69
:1019E4004AE050E082010E94792028014B2F405D9B
:1019F4008E01025E1F4FEA2FF0E0292F30E0E21B38
:101A0400F30B31970E0F1F1FF801408383959395B5
:101A1400CDCF20E02830F8F4022F10E0000F111F82
:101A240040E050E0400F511F0E9442200883198378
:101A340000E0023070F4FE0110E0E00FF11F1081AD
:101A4400FE017E9690E0E80FF91F108383950395BD
:101A5400F0CF2395DFCF20E0223040F540E048303E
:101A640018F560E06430F0F450E008E010E00E9403
:101A74006B20E7EDF8E0E00FF11F022F10E0000FFC
:101A8400111F000F111FE00FF11F70E0E60FF71F89
:101A94000081FE017E9690E0E80FF91F0083839594
:101AA4006395E0CF4395DBCF2395D6CF05E5FE01C3
:101AB4007E9690E0E80FF91F008383950AEAFE0101
:101AC4007E9690E0E80FF91F0083839500E00023E1
:101AD40071F410E0F801E85EF44F1081FE017E9687
:101AE40090E0E80FF91F108383950395F0CF20E071
:101AF4002223C1F44091180B50E005E010E00E944D
:101B04006B20E4E2F9E0E00FF11F30E0E20FF31F95
:101B14000081FE017E9690E0E80FF91F0083839513
:101B24002395E6CF20E02223C1F4E5E2F9E030E09A
:101B3400E20FF31F4091180B50E005E010E00E9403
:101B44006B20E00FF11F0081FE017E9690E0E80F0C
:101B5400F91F008383952395E6CF20E02223C1F467
:101B6400E6E2F9E030E0E20FF31F4091180B50E099
:101B740005E010E00E946B20E00FF11F0081FE01E0
:101B84007E9690E0E80FF91F008383952395E6CFB6
:101B940020E02230C0F4E7E2F9E030E0E20FF31F86
:101BA4004091180B50E005E010E00E946B20E00F1C
:101BB400F11F0081FE017E9690E0E80FF91F00837B
:101BC40083952395E6CF282F2395FE017E96062D37
:101BD40010E0E00FF11F2083282F30E02150304027
:101BE4008E01025E1F4F0E94B502FE017E9690E0B8
:101BF400E80FF91F00838395853671F4A0E0A817D8
:101C040050F4FE017E96B0E0EA0FFB1F00810E94B3
:101C1400A81FA395F4CF84C0BE01665F7F4FECEA92
:101C2400F5E430E08B0144E150E00E941E2194E190
:101C3400A0E0A91750F4FE013A96B0E0EA0FFB1FAA
:101C440000810E94A81FA395F4CF8E010E5F1F4F41
:101C5400D80140E1082F0E945D20FD010083FD01B1
:101C640000810A3028F0FD010081095C008304C072
:101C7400FD010081005D0083119640E1082F0E9460
:101C84005D20FD014083FD0100810A3028F0FD0143
:101C94000081095C008304C0FD010081005D0083B4
:101CA400119601E2FD01008311960DE3FD0100830D
:101CB400119606E0FD010083FD0100810A3028F041
:101CC400FD010081095C008304C0FD010081005D09
:101CD4000083119605E0FD010083FD0100810A30B7
:101CE40028F0FD010081095C008304C0FD0100812E
:101CF400005D008311960DE0FD01008311960AE05A
:101D0400FD01008398E04424491650F4FE01329604
:101D14005524E40DF51D00810E94A81F4394F4CFBF
:101D2400EF96EF962596E9E00C9442210E94CD02AD
:101D3400E0ECF8E00081118122813381000F111F52
:101D4400000F111F0E94E00208E813E1009322092A
:101D54001093230901E000932109089500912209B9
:101D640010912309012B49F0E2E2F9E0008111818D
:101D7400015010400083118308950E94CD0200E0B9
:101D840010E00E94E00202E00093210908959A9372
:101D94008A9391E080E0883070F4082F10E0000FFF
:101DA400111FF801EC53F74F008111810E94FF1EAF
:101DB40090238395F0CF092F899199910895159ACD
:101DC4001D980895159A1D9A08950CE010E00E943C
:101DD400522198018901232B49F050E068E873E00F
:101DE4004CE330E026E60E94B41D02C000E010E09F
:101DF4000093C4081093C5080CE010E00E9452211F
:101E040098018901232B49F051E068E873E04CE321
:101E140031E026E60E94B41D02C000E010E0009309
:101E2400C6081093C7080CE010E00E9452219801E4
:101E34008901232B49F052E068E873E04CE332E077
:101E440026E60E94B41D02C000E010E00093C8081A
:101E54001093C9080CE010E00E94522198018901F6
:101E6400232B49F053E068E873E04CE333E026E6C3
:101E74000E94B41D02C000E010E00093CA08109351
:101E8400CB080CE010E00E94522198018901232B19
:101E940049F054E068E873E04CE334E026E60E943D
:101EA400B41D02C000E010E00093CC081093CD08EC
:101EB4000CE010E00E94522198018901232B49F083
:101EC40055E068E873E04CE335E026E60E94B41D73
:101ED40002C000E010E00093CE081093CF080CE09D
:101EE40010E00E94522198018901232B49F056E009
:101EF40068E873E04CE336E026E60E94B41D02C0B5
:101F040000E010E00093D0081093D1080CE010E03A
:101F14000E94522198018901232B49F057E068E877
:101F240073E04CE337E026E60E94B41D02C000E0F3
:101F340010E00093D2081093D30800E00093210925
:101F44000E94CD0200E010E00E94E00208958A930E
:101F54000E94260380E0883068F4082F10E0000F08
:101F6400111FF801EC53F74F008111810E94A01E4C
:101F74008395F1CF8991089505E310E00E945221E1
:101F84009801012B39F089010CD00093190B10939F
:101F94001A0B089500E010E00093190B10931A0B2C
:101FA4000895BA93AA93D8010DE010E00E9452213B
:101FB40098018901232B41F063E050E040E030E0D8
:101FC40027E60E949E1C02C000E010E09B960D9341
:101FD4001C939C970DE010E00E9452210801012BF4
:101FE40049F062E050E040E031E027E680010E94E1
:101FF4009E1C02C000E010E09D960D931C939E97DA
:102004000DE010E00E9452210801012B49F061E02B
:1020140050E040E032E027E680010E949E1C02C0AE
:1020240000E010E09F960D931C93D0970DE010E014
:102034000E9452210801012B49F060E050E040E089
:1020440033E027E680010E949E1C02C000E010E0FD
:10205400D1960D931C93D29700E00C9300E0119657
:102064000C93119700E093960C93939792960C938C
:1020740092978D01A991B99108950E943621D801B2
:102084009B960D911C919C970E94A51D802F9D9657
:102094000D911C919E970E94A51D902F9F960D91C6
:1020A4001C91D0970E94A51D892B802BD1960D9150
:1020B4001C91D2970E94A51D802BD4968C93D49703
:1020C400D4960C91D497D3961C91D397011791F081
:1020D4000C91043118F40C9103950C930C91043178
:1020E40078F0D4960C91D497D3960C93D39700E0C0
:1020F4000C9306C00C91013018F00C910A950C93C6
:10210400E4E00C9447219A938A93C8018C01B5DFCB
:102114008C0103D0899199910895BA93AA93D80117
:10212400FD0103A910E0F801E454FF4F0491FD01FF
:1021340002A7FD0101810023B1F1FD0103A90F30C4
:1021440031F1FD0104A115A10C3D25E0120738F47D
:10215400FD0104A115A10F5F1F4F04A315A3FD01E9
:1021640004A115A10C3D25E0120780F1FD0106A193
:10217400043628F4FD0106A1039506A327C000E058
:10218400FD0106A3FD0122A58D0127D01FC000E09B
:1021940010E0FD0104A315A300E0FD0106A300E087
:1021A400FD01018313C0FD0103A90F3079F001E0A3
:1021B400FD010183FD0122A58D010FD000E010E097
:1021C400FD0104A315A300E0FD0106A3A991B991A3
:1021D4000895A8012F71022F08950E943621D80175
:1021E400922F0FB7FD0107A3F894FD0123A12395B6
:1021F4008D01EFDF802FFD0102A1801741F0082F30
:1022040010E0FD01E00FF11F9283FD0183A3FD01A6
:1022140007A10FBFE4E00C9447210E943421280158
:10222400D90180E00FB7F20100A7F894F20103A1ED
:10223400F20112A1011781F081E0F20122A123959C
:102244008201C7DFF20102A3F20102A110E0F20150
:10225400E00FF11F02810C93F20100A50FBF082FBC
:10226400E6E00C944521F8011FB711A7F89413A1D7
:1022740022A1121738F410E222A1121B23A1120F7B
:10228400012F04C013A122A1121B012F11A51FBFEE
:1022940008950091190B10911A0BE5DF08959A9394
:1022A4008A93C8019C010091190B10911A0BB5DF98
:1022B4008991999108950091190B10911A0B23DFBC
:1022C40008959A938A93C8018C010FD08C011FD072
:1022D4008C013BD08C0117D24CEC50E020E08C01F7
:1022E400EFD18C018991999108952FE02ABB2FE0B9
:1022F4002BBBD49ADC9AD59ADD9A4FEF59E668E164
:10230400415050406040E1F700C00000089520E0D3
:10231400F80123A7F80122A7F80100A711A720E0DC
:10232400F80125A720E030E0F80120A331A320E044
:1023340030E0F80122A333A320E0F80126A720E02F
:1023440030E0F80126A337A308959A938A93C8012D
:102354000FEF13EF21E0015010402040E1F700C0DF
:10236400000028E28C01CDD00FE31FE101501040A2
:10237400E9F700C0000028E28C01C3D00FE31FE19D
:1023840001501040E9F700C000002CE08C01B9D0E6
:1023940021E08C01B6D00FE31FE101501040E9F7B2
:1023A40000C0000026E08C01ACD022E08C01A9D052
:1023B4000FE31FE101501040E9F700C0000020E8DE
:1023C4008C019FD08991999108950E943621D8015A
:1023D400FD0106A117A10F5F1F4F06A317A3FD015F
:1023E40006A117A1003024E0120728F000E010E055
:1023F400FD0106A317A3FD0100A511A50F5F1F4F43
:1024040000A711A7FD0103A5039503A7FD0103A5DB
:10241400003110F100E0FD0103A7FD0102A50395C1
:1024240002A7FD0102A5023051F400E0FD0102A75C
:10243400FD01A0A7B1A720E88D0163D009C08D01DB
:10244400005F1F4FFD0100A711A720EC8D0159D09B
:1024540008EC00000A95E9F7FD0102A50023C9F480
:10246400FD0120A131A1FD0143A501E010E00E947E
:10247400732020233123232B49F0FD0106A117A14A
:10248400013022E0120710F001E001C000E0802FCB
:1024940018C0FD0122A133A1FD0143A501E010E014
:1024A4000E94732020233123232B49F0FD0106A130
:1024B40017A1013022E0120710F001E001C000E092
:1024C400802FFD0100A511A5F8010081FD0104A7DD
:1024D400FD0104A5013848F0FD0104A510E0F80150
:1024E400EC5AFF4F0491FD0104A7882319F000E280
:1024F400FD0104A7FD0124A58D011FD0E4E00C9487
:1025040047210E943721C801A22F0FB700931B0B4C
:10251400F89408EC00000A95E9F7DD9B05C0DD9806
:1025240008EC00000A95E9F72A2F8C0122D00091CB
:102534001B0B0FBFE3E00C9448210E943721C80114
:10254400A22F0FB700931C0BF89408EC00000A9517
:10255400E9F7DD9905C0DD9A08EC00000A95E9F772
:102564002A2F8C0106D000911C0B0FBFE3E00C94C2
:1025740048214BB3407F322F32953F70432B4BBBE6
:10258400DC9A000000000000DC980000000000005D
:102594004BB3407F322F3F70432B4BBBDC9A000080
:1025A40000000000DC9808950E943521C8010FB78F
:1025B400402EF89420E48C01A4DF0FE91FE00150C1
:1025C4001040E9F700C00000A0E0A03160F4B0E0E2
:1025D400FD01EC5AFE4F24918C01AFDF00E50A9512
:1025E400F1F7A395F2CF20E88C018BDF0FE91FE010
:1025F40001501040E9F700C000004FBEE5E00C9424
:102604004621203208F020E0422F50E0F801E40F88
:10261400F51F30830895BA931A2EF801622F532FB1
:10262400603208F060E070E0DF01A60FB71F5C9332
:10263400603130F48F01005E1F4F9801062E07C0F1
:102644008F010E5D1F4F9801062F0051002E06A525
:10265400013080F0402D01E010E00E947320D90188
:102664002D903C90202A312A3C922E9206A50A9560
:1026740006A70EC0402D01E010E00E9473200095D3
:102684001095D9012D903C90202231223C922E921B
:10269400A12DB9910895FA013081632F662379F051
:1026A400203208F020E030E0F801E20FF31F6083ED
:1026B40023954F5F5F4FFA013081632FEFCF089569
:1026C400FA013491632F662379F0203208F020E078
:1026D40030E0F801E20FF31F608323954F5F5F4FF3
:1026E400FA013491632FEFCF089520E030E0F80130
:1026F40020A331A320E030E0F80122A333A320E09B
:10270400F80126A708959A938A93C80100E000323D
:1027140040F420E210E0FC01E00FF11F2083039558
:10272400F6CF8C01E2DF8991999108950E943121BD
:102734002801B22F632ECA010B2F060D0A95A02F74
:1027440077247614F8F44AE050E08C010E94792052
:10275400842EAA230AF4AFE1A0320CF0A0E0282DC5
:10276400205D0A2F102F110F110BF201E00FF11F42
:102774002083AA954AE050E08C010E947920C80188
:102784007394DFCFE9E00C9442210E943121D801F7
:10279400522E832ECA01052D080D0A95402E77244A
:1027A400781488F54AE050E08C010E947920642E68
:1027B400442012F40FE1402E00E240160CF04424B1
:1027C400772019F001E0601660F0262D205D042DBD
:1027D400102F110F110BFD01E00FF11F20834A94FC
:1027E4000AC020E2042D102F110F110BFD01E00F80
:1027F400F11F20834A944AE050E08C010E94792022
:10280400C8017394CDCFE9E00C9442210E944D029B
:102814000E94910C0FEF13ED20E301501040204073
:10282400E1F700C0000078940FEF13ED20E30150AE
:1028340010402040E1F700C000000091BB08109157
:10284400BC080E94D6120E94CD020E9433140E943A
:10285400CA1F0E94D21F0E9453030E94031CF9CF77
:102864000895219701E000931D0B8E010E941C0323
:1028740000E010E020E030E0E6EBF8E000831183B4
:1028840022833383E6EBF8E00081118122813381D6
:10289400E0E2FBE000831183228333838E010E94F4
:1028A40021030091BB081091BC080E9485134FE1DD
:1028B40052E020E00091BB081091BC080E94621312
:1028C4004AE252E020E10091BB081091BC080E944A
:1028D4006213219608958A9380E0883008F041C0FD
:1028E400082F10E0000F111FF801EC53F74F00817F
:1028F40011810E94FF1E002351F030E2282F285E30
:102904000091BB081091BC080E940D1310C001E097
:10291400E091BB08F091BC0806A7382F3F5C282F34
:10292400285E0091BB081091BC080E940D13082F6B
:1029340010E0000F111FF801EC53F74F00811181D3
:102944000E94FF1E002311F431E001C030E0282F63
:10295400285F0091BB081091BC080E940313839563
:10296400BCCF0E947903002369F00E9479030130EF
:1029740049F00E947903023029F00E947903033060
:1029840009F002D08991089521978E010E941C03B9
:1029940000E010E020E030E0E6EBF8E00083118393
:1029A40022833383E6EBF8E00081118122813381B5
:1029B400E0E2FBE000831183228333838E010E94D3
:1029C40021030091BB081091BC080E94851302E00A
:1029D40000931D0B40EA57E020E00091BB081091E2
:1029E400BC080E944D1301E00093BA0802D021965E
:1029F40008950E94372190E080E00091BA080023F6
:102A040011F091E081E00091AA08002329F000E090
:102A14000093AA0891E081E00E943203002319F098
:102A24000E94260381E0992309F464C040EA57E038
:102A340020E00091BB081091BC080E944D1345E3AF
:102A440052E020E10091BB081091BC080E9462137F
:102A540048EE53E00091BD081091BE080E94792011
:102A6400A80132E022E10091BB081091BC080E9449
:102A7400C7133EE224E10091BB081091BC080E94F8
:102A8400031348EE53E00091BD081091BE080E9464
:102A9400792033E025E10091BB081091BC080E9425
:102AA4009813A0E0A83030F52091BF084A2F01E028
:102AB40010E00E9473202023222389F001E0E0919A
:102AC400BB08F091BC0806A73A2F3F5C2A2F285E6A
:102AD4000091BB081091BC080E940D1309C030E29C
:102AE4002A2F285E0091BB081091BC080E940D1388
:102AF400A395D8CF8823E9F0A0E0A830D0F40A2F1A
:102B040010E0000F111FF801EC53F74F0081118101
:102B14000E94FF1E002311F431E001C030E02A2F8F
:102B2400285F0091BB081091BC080E940313A39571
:102B3400E4CF0E947903053091F440EA57E020E0A5
:102B44000091BB081091BC080E944D134EE352E063
:102B540020E10091BB081091BC080E94621300E0C0
:102B64000093BA08E3E00C94482121978E010E9457
:102B74001C0300E315E720E030E0E6EBF8E0008317
:102B8400118322833383E6EBF8E0008111812281F3
:102B94003381E0E2FBE000831183228333838E01DF
:102BA4000E94210300911D0B00931E0B03E0009370
:102BB4001D0B00E000932D0B00E0053040F420E0F5
:102BC40010E0F801E85DF44F20830395F6CF0091FF
:102BD400BB081091BC080E9485134FE452E020E02A
:102BE4000091BB081091BC080E94621302D0219688
:102BF40008958A9380E080E000912D0B801788F47B
:102C040000E0E091BB08F091BC0806A73AE2282F47
:102C1400205F0091BB081091BC080E940D1383959E
:102C2400EBCF00912D0B0530B8F401E0E091BB0827
:102C3400F091BC0806A700912D0B10E0F801E85DA7
:102C4400F44F3081305D20912D0B205F0091BB0843
:102C54001091BC080E940D138991089500912D0BC9
:102C640010E0F801E85DF44F0081002349F409E025
:102C740020912D0B30E0F901E85DF44F008309C089
:102C840000912D0B10E0F801E85DF44F00810A95E6
:102C94000083AFDF089500912D0B10E0F801E85D8B
:102CA400F44F0081093048F000E020912D0B30E012
:102CB400F901E85DF44F008309C000912D0B10E089
:102CC400F801E85DF44F00810395008392DF0895D5
:102CD4009A938A9300912D0B039500932D0B0091E9
:102CE4002D0B053080F400912D0B10E0F801E95D07
:102CF400F44F208100912D0B10E0F801E85DF44FB2
:102D0400208377DF2AC081E091E020E02530F0F4D1
:102D140030E040E150E0420F531F0E943F2030E07A
:102D2400F901E85DF44F1081011709F080E030E00B
:102D3400F901E65EFD4F049130E0F901E85DF44FDE
:102D44001081011709F090E02395E0CF082F092B9B
:102D5400002311F078D001C019D089919991089578
:102D640000912D0B013008F001D0089540911E0B05
:102D740050E00EE010E00E946B20F801E059FE4F95
:102D8400059114913197F80109950895219704E06C
:102D940000931D0B0091BB081091BC080E94851381
:102DA4004FE552E020E00091BB081091BC080E945E
:102DB40062138E010E941C0300E010E020E030E06A
:102DC400E6EBF8E00083118322833383E6EBF8E03B
:102DD4000081118122813381E0E2FBE000831183D1
:102DE4002283338300E315E700932E0B10932F0BFC
:102DF4008E010E942103219608959A938A93219724
:102E04008E010E941C0300912E0B10912F0BC80100
:102E14008E010E942103823000E0900778F048EE92
:102E240053E08C010E947920A80132E020E1009156
:102E3400BB081091BC080E94C71301C097DF2196FC
:102E4400899199910895219705E000931D0B0091B4
:102E5400BB081091BC080E9485138E010E941C03BC
:102E640000E21FEB22E030E0E6EBF8E000831183A0
:102E740022833383E6EBF8E00081118122813381E0
:102E8400E0E2FBE000831183228333838E010E94FE
:102E940021034FE652E020E00091BB081091BC08EA
:102EA4000E94621300E00093300B02D02196089533
:102EB4004091300B50E001E110E00E946B2045E7A7
:102EC40052E0400F511F20E10091BB081091BC0853
:102ED4000E94621308954ADF08950091300B013077
:102EE40028F00091300B0A950093300BE1DF089530
:102EF4000091300B093028F40091300B03950093B6
:102F0400300BD6DF08950091300B083011F40DD04A
:102F140008950091300B083010F421D108950091E8
:102F2400300B093009F44DD20895219706E000933F
:102F34001D0B8E010E941C0300E61AEE20E030E017
:102F4400E6EBF8E00083118322833383E6EBF8E0B9
:102F54000081118122813381E0E2FBE0008311834F
:102F6400228333838E010E9421030091BB081091B8
:102F7400BC080E9485134FE153E020E00091BB0898
:102F84001091BC080E94621300E0053040F420E078
:102F940010E0F801E85DF44F20830395F6CF00E0DC
:102FA40000932D0B04D0219608954DDF08959A9334
:102FB4008A9380E000912D0B8017B0F400E0E0913B
:102FC400BB08F091BC0806A790E0FC01E85DF44F53
:102FD4003081305D282F205F0091BB081091BC0820
:102FE4000E940D138395E6CF00912D0B0530B8F4A4
:102FF40001E0E091BB08F091BC0806A700912D0BFD
:1030040010E0F801E85DF44F3081305D20912D0B24
:10301400205F0091BB081091BC080E940D13899198
:103024009991089500912D0B10E0F801E85DF44F9B
:103034000081002349F409E020912D0B30E0F901CF
:10304400E85DF44F008309C000912D0B10E0F801F6
:10305400E85DF44F00810A950083A9DF089500918B
:103064002D0B10E0F801E85DF44F0081093048F0C1
:1030740000E020912D0B30E0F901E85DF44F00836E
:1030840009C000912D0B10E0F801E85DF44F0081B8
:10309400039500838CDF089500912D0B0430A8F470
:1030A40000912D0B039500932D0B00912D0B10E037
:1030B400F801E95DF44F208100912D0B10E0F80137
:1030C400E85DF44F208373DF089501D008952197BC
:1030D40007E000931D0B8E010E941C0300E61AEE0C
:1030E40020E030E0E6EBF8E00083118322833383B1
:1030F400E6EBF8E00081118122813381E0E2FBE01C
:1031040000831183228333838E010E942103009163
:10311400BB081091BC080E9485134DE253E020E1E6
:103124000091BB081091BC080E9462132196089577
:103134008ADE089588DE089520E0253070F430E0BA
:10314400F901E85DF44F008130E040E150E0420FC6
:10315400531F0E9450202395F0CF08DE0895219735
:1031640008E000931D0B0091300B10E0000F111FBD
:1031740040E050E0400F511F0E9442200093310B69
:103184001093320B04E00093330B0091BB081091B1
:10319400BC080E94851349E353E020E00091BB087A
:1031A4001091BC080E9462133091300B3F5C2DE0FB
:1031B4000091BB081091BC080E940D131ED08E0113
:1031C4000E941C0300EC14ED21E030E0E6EBF8E093
:1031D4000083118322833383E6EBF8E000811181BD
:1031E40022813381E0E2FBE0008311832283338375
:1031F4008E010E942103219608950E943521009199
:10320400310B1091320BC801A0E0A53060F504E049
:103214000A1B402E4AE050E08C010E947920B42F12
:103224000091330B0A1739F401E0E091BB08F091E7
:10323400BC0806A706C000E0E091BB08F091BC08FA
:1032440006A73B2F305D242D205F0091BB08109111
:10325400BC080E940D134AE050E08C010E947920C2
:10326400C801A395D2CFE5E00C944621ECDD089586
:103274000E943621A1E0B0E020E00091330B20173A
:1032840040F40AE010E0AD010E946B20D8012395C0
:10329400F4CFAD010091310B1091320B0E947920D3
:1032A4004AE050E00E947920842F813040F0E1E32D
:1032B400FBE0008111810A1B1B0B008311839DDF3E
:1032C400E4E00C9447210E943621A1E0B0E020E024
:1032D4000091330B201740F40AE010E0AD010E9486
:1032E4006B20D8012395F4CFAD010091310B1091DF
:1032F400320B0E9479204AE050E00E947920842F0A
:10330400893040F4E1E3FBE0008111810A0F1B1FC7
:103314000083118372DFE4E00C9447210091330BA6
:10332400013038F00091330B0A950093330B65DFBD
:10333400089501D00895219709E000931D0B009191
:10334400BB081091BC080E94851347E453E020E1B8
:103354000091BB081091BC080E9462138E010E9468
:103364001C0300E315E720E030E0E6EBF8E000831F
:10337400118322833383E6EBF8E0008111812281FB
:103384003381E0E2FBE000831183228333838E01E7
:103394000E9421032196089556DD089554DD089571
:1033A4000091310B1091320B2091300B30E0220F41
:1033B400331F40E050E0420F531F0E94542043DD6E
:1033C400089521970AE000931D0B8E010E941C03AF
:1033D40000E010E020E030E0E6EBF8E00083118349
:1033E40022833383E6EBF8E000811181228133816B
:1033F400E0E2FBE000831183228333838E010E9489
:1034040021030091BB081091BC080E94851301E0C0
:103414000093BA0802D0219608950E942A21259784
:1034240000E00883B0E00091BA08002319F001E03D
:103434000883B1E00091AA08002331F000E0009372
:10344400AA0801E00883B1E00E943203002319F0C6
:10345400B1E00E9426030881002379F148EE53E08D
:103464000091BD081091BE080E947920A80131E0A6
:1034740020E00091BB081091BC080E94C7133EE2F3
:1034840021E00091BB081091BC080E94031348EE90
:1034940053E00091BD081091BE080E9479208A0172
:1034A4004AE050E00E947920A80132E022E0009135
:1034B400BB081091BC080E949813BB2309F472C185
:1034C40091E0A92FA63008F0B4C04A2F50E008E0DC
:1034D40010E00E946B20F801E952F74F44805580B8
:1034E400668077804A2F50E008E010E00E946B204D
:1034F400F801ED52F74F0081118122813381401A86
:10350400510A620A730A49825A826B827C821A2F98
:10351400191B03E0109F00E1000E802D49815A81A0
:103524006B817C81413000E0500700E0600700E0DF
:103534007007DCF430E2282F0091BB081091BC081E
:103544000E9403133DE2282F23950091BB0810919C
:10355400BC080E9403133DE2282F2E5F0091BB0894
:103564001091BC080E94031362C02A2F30E0220F7E
:10357400331F40E050E0420F531F0E944220B80125
:103584004EEF5FEF0A2F10E0000F111F400F511F85
:103594000E944220601B710B8B0120E030E0480147
:1035A40059014AE050E060E070E0840195010E9416
:1035B4008D2049815A816B817C810E94AD206801F4
:1035C400790130E2282F0091BB081091BC080E94B9
:1035D40003134AE050E060E070E0860197010E9426
:1035E400AD20080119014AE050E060E070E080017C
:1035F40091010E94AD20342F305D282F2395009136
:10360400BB081091BC080E9403134AE050E060E03C
:1036140070E0860197010E94AD20342F305D282F81
:103624002E5F0091BB081091BC080E940313A39560
:1036340049CF95E0A92FA83008F0B4C04A2F50E034
:1036440008E010E00E946B20F801E952F74F408037
:103654005180628073804A2F50E008E010E00E949D
:103664006B20F801E153F74F0081118122813381EE
:10367400401A510A620A730A49825A826B827C8216
:103684001A2F191B03E0109F06E0000E802D4981BC
:103694005A816B817C81413000E0500700E0600773
:1036A40000E07007DCF430E2282F0091BB08109191
:1036B400BC080E9403133DE2282F23950091BB0808
:1036C4001091BC080E9403133DE2282F2E5F009145
:1036D400BB081091BC080E94031362C02A2F30E07B
:1036E400220F331F40E050E0420F531F0E9442203C
:1036F400B8014EEF5FEF0A2F10E0000F111F400FCB
:10370400511F0E944220601B710B8B0120E030E0AE
:10371400480159014AE050E060E070E084019501FD
:103724000E948D2049815A816B817C810E94AD2049
:103734006801790130E2282F0091BB081091BC0880
:103744000E9403134AE050E060E070E086019701B4
:103754000E94AD20080119014AE050E060E070E0E9
:10376400800191010E94AD20342F305D282F2395D4
:103774000091BB081091BC080E9403134AE050E07A
:1037840060E070E0860197010E94AD20342F305D27
:10379400282F2E5F0091BB081091BC080E940313D0
:1037A400A39549CF2596E0E10C943B21E0E2FBE0B0
:1037B4000081118122813381023040E0140740E00E
:1037C400240740E0340770F0E0E2FBE0008111815F
:1037D4002281338101501040204030400083118306
:1037E40022833383E0912E0BF0912F0B329740F01C
:1037F400EEE2FBE00081118101501040008311834F
:10380400089523970E944B11013008F440C00FE142
:103814001BE00E9451118E010E5F1F4F0E941C037A
:10382400E0E2FBE00081118122813381023040E03B
:10383400140740E0240740E0340760F0E6EBF8E0CA
:103844000081118122813381E0E2FBE00083118356
:10385400228333838E010E5F1F4F0E942103409108
:103864001D0B50E00EE010E00E946B20E4E6F1E056
:10387400E00FF11F00911F0B10E0000F111FE00F6C
:10388400F11F059114913197F801099553C08E01E8
:103894000F5F1F4F0E941C03E0E2FBE000811181D7
:1038A40022813381E4E2FBE00083118322833383AA
:1038B4008E010F5F1F4F0E942103E4E2FBE00081B1
:1038C400118122813381013040E0140740E0240754
:1038D40040E0340701F58E010E941C0300E010E073
:1038E40020E030E0E0E2FBE00083118322833383B5
:1038F4008E010E94210340911D0B50E00EE010E068
:103904000E946B20F801E259FE4F05911491319702
:10391400F80109950FC040911D0B50E00EE010E036
:103924000E946B20F801EC59FE4F059114913197D8
:10393400F8010995239608950E943321C801622E47
:10394400532E442EB52FA62F6A2F5B2F442D352DD1
:10395400262D8C0104D08C01E7E00C9444210E94B4
:103964003321D801622E832F542E452E962F062DF7
:10397400E4E5F0E0FBBFF3E00C94D92009E3FD019A
:1039840005830AE3FD0104830BE3FD0106838CC078
:1039940009E3FD0105830AE3FD0104830BE3FD0153
:1039A400068382C006E3FD01058307E3FD0104836A
:1039B40008E3FD01068378C006E3FD01058307E300
:1039C400FD01048308E3FD0106836EC003E3FD01EA
:1039D400058304E3FD01048305E3FD01068364C05C
:1039E40003E3FD01058304E3FD01048305E3FD0115
:1039F40006835AC000E3FD01058301E3FD0104834E
:103A040002E3FD01068350C000E3FD01058301E3E9
:103A1400FD01048302E3FD01068346C001E2FD01CA
:103A2400058302E2FD01048303E2FD0106833CC039
:103A340001E2FD01058302E2FD01048303E2FD01CD
:103A4400068332C000E2FD01058301E6FD01048323
:103A540002E6FD01068328C000E2FD01058301E6BC
:103A6400FD01048302E6FD0106831EC003E6FD0199
:103A7400058304E6FD01048305E6FD01068314C005
:103A840003E6FD01058304E6FD01048305E6FD016B
:103A940006830AC003E3FD01058304E3FD010483F7
:103AA40005E3FD01068383E0883040F4482F01E0FC
:103AB40010E00E947320FD01078303C001E0FD01B3
:103AC4000783552051F0FD011781FD010481E02F8A
:103AD400F0E00081012B00830AC0FD0117811095DD
:103AE400FD010481E02FF0E0008101230083FD014A
:103AF4001781FD010681E02FF0E00081012B008396
:103B040000E010E0FD01018712870D931C931197CB
:103B140000E0FD010283FD0143828D010D5F1F4F13
:103B2400FD0103871487983040F4492F01E010E029
:103B34000E947320FD01008703C001E0FD0100879E
:103B4400E7E00C944421F8012581E22FF0E0208184
:103B5400F80137812323222319F0F8010085089501
:103B640000E008950E943221D801722E832F642E22
:103B74002B01952FFD019183FD0143825482FD01A8
:103B8400658200E00C93072DE2E8F0E0FBBFF3E070
:103B94000C94D92009E3FD0107830AE3FD010683A0
:103BA4000BE3FD0100878CC009E3FD0107830AE3F1
:103BB400FD0106830BE3FD01008782C006E3FD01DE
:103BC400078307E3FD01068308E3FD01008778C04E
:103BD40006E3FD01078307E3FD01068308E3FD0116
:103BE40000876EC003E3FD01078304E3FD01068340
:103BF40005E3FD01008764C003E3FD01078304E3DB
:103C0400FD01068305E3FD0100875AC000E3FD01C1
:103C1400078301E3FD01068302E3FD01008750C031
:103C240000E3FD01078301E3FD01068302E3FD01D7
:103C3400008746C001E2FD01078302E2FD0106831D
:103C440003E2FD0100873CC001E2FD01078302E2BB
:103C5400FD01068303E2FD01008732C000E2FD019D
:103C6400078301E6FD01068302E6FD01008728C003
:103C740000E2FD01078301E6FD01068302E6FD0182
:103C840000871EC003E6FD01078304E6FD010683E9
:103C940005E6FD01008714C003E6FD01078304E681
:103CA400FD01068305E6FD0100870AC003E6FD0168
:103CB400078304E6FD01068305E6FD01008784E031
:103CC400883008F080E0482F01E010E00E94732063
:103CD400FD010187FD0111851095FD010681E02F8D
:103CE400F0E0008101230083FD011185FD010085C1
:103CF400E02FF0E01083FD010781E02FF0E0008168
:103D0400FD0111850123002311F001E001C000E051
:103D14001C910127FD010287FD010285002329F082
:103D2400FD010581FD01038703C000E0FD01038758
:103D34008D0104D08D01E8E00C944321BA93AA9339
:103D4400D801FD010781E02FF0E00081FD0111851C
:103D540001231C910127002349F1FD010385FD0185
:103D64001581011720F4FD01038503950387FD01E7
:103D74000385FD0115810117E8F1FD01028500238A
:103D8400C9F501E0FD010287FD012381348100E0D2
:103D940010E02017310771F1FD011181FD01028549
:103DA4001396ED91FC911497099524C0FD010385A8
:103DB400013020F0FD0103850A950387FD01038589
:103DC4000023C1F4FD0102850023A1F000E0FD0100
:103DD4000287FD012381348100E010E020173107C0
:103DE40049F0FD011181FD0102851396ED91FC91CD
:103DF40014970995A991B9910895F8010285089538
:103E040028E630E08901012F10E000939000022F92
:103E140009B900E000939500009195000F7E00938E
:103E24009500009195000F7D0093950000919500F9
:103E34000260009395000091950004600093950042
:103E4400529800919500077F0093950000E000933D
:103E5400BD0B0093BC0B0093BB0B0093BA0B0093F8
:103E6400B90B0093B80B0093370B0093360B00E0AB
:103E74000AB9579A549A539A569A0895FA93EA9318
:103E84005A934A933A932A931A930A934FB75BB778
:103E94000CB1202FE6E3FBE0008101700395017073
:103EA400302F0091370B301721F401E00093BB0B46
:103EB40011C000E00093BB0B3093360B0091360B1E
:103EC40010E0F801EC5CF44F20830091BA0B0395E9
:103ED4000093BA0B5BBF4FBF099119912991399196
:103EE40049915991E991F9911895FA93EA934A9372
:103EF4003A932A931A930A933FB74BB71091B80B8E
:103F04002091B90B1217A1F01091B90B13951F77DB
:103F1400012F0093B90B509A10E0F801E85CF44FBC
:103F240010811CB91091BC0B1A951093BC0B04C0E2
:103F3400559810E01093BC0B4BBF3FBF09911991EA
:103F4400299139914991E991F9911895402F1FB719
:103F5400512FF8941091B80B13951F77212F1091BE
:103F6400B90B211729F411E01093BD0B00E00EC02A
:103F740030E0F901E85CF44F40832093B80B559A84
:103F84001091BC0B13951093BC0B01E05FBF089517
:103F94003FB7F89418E10FE011BD01BD3FBF08958C
:103FA4001FB7F894A8951FBF089520E030E000E102
:103FB4000E94E01F01E010E00C94E11F0895229795
:103FC400C801888399839E0101E00E94E01FF9CF14
:103FD4000C94E11F0E942F214801A22EDA01962F92
:103FE40082E024016A2C0BC002E0400E511E611EC7
:103FF400823099F002E0400E00E0501E601E4A1626
:104004005B06690689F0F2016BBE4791569110E098
:104014004030504049F3823069F3F2016BBE07919E
:10402400F691E02F0995E6CF8A95D9F6EBE00C944A
:1040340040210FE90DBF07E00EBFC0E2D2E00E94AD
:104044005021002311F00E94812100EB13E020E0B5
:1040540044EB53E060E00E94EC1F0E9408140E94AD
:104064005B200C94EA1FE199FECF08954F5F5F4FE8
:10407400FADF4EBB5FBBE09A0895FADF0DB30895F3
:10408400F7DF0DB3F3DF1DB308954F5F5F4F4EBBF2
:104094005FBBF894E29AE19A0FBE08950FB6E3DF8E
:1040A4000DBBF5CF0FB6DFDF0DBBF1DFDCDF1DBBD2
:1040B400ECCF0C94EA1F0024E8E0EA9532F0001FEC
:1040C400001C0416D0F3041AF8CF001F402D0095ED
:1040D4000895149F102D059F100D049F002D110DA0
:1040E40008954A951AF0000F111FFBCF089500247C
:1040F4001124EFE0001F111F001C111C04161506EB
:1041040010F0041A150AEA95AAF7001F111FA0015E
:104114000095109508952224349F302D259F300D4D
:10412400169F300D079F300D249F202D310D159FB4
:10413400200D311D069F200D311D149F102D210DC2
:10414400321D059F100D211D321D049F002D110DE0
:10415400221D321D0895002411241001E0E2EA9585
:1041640092F0001F111F221F331F001C111C221C60
:10417400331C041615062606370688F3041A150A96
:10418400260A370AECCF001F111F221F331FA0017C
:10419400B101009510952095309508957791679118
:1041A40057914791179011FA279037900895F9DFA6
:1041B400041B10E003C0F4DF041B150B20E030E007
:1041C40005C0ECDF041B150B260B370BB8F010FCF5
:1041D40017C047910790E00FF11F0417100540E046
:1041E4002407340758F436F406910024F101E01B47
:1041F400F0090994E00FF11F27903790F101099419
:1042040011F4D6F7F1CF31960EF0319650E060E01C
:1042140070E047914B3F48F089F34F3F29F04E3F00
:1042240011F07791679157914791041B150B260B59
:10423400370B39F318F3E7CFAF93BF93D8013BBFE4
:1042440007900D9241505040D9F7BF91AF91089516
:10425400FA92EA92DA92CA92BA92AA929A928A92BA
:104264007A926A925A924A92BA93AA939A938A93A6
:104274000895FF84EE84DD84CC84BB84AA8499846D
:1042840088847F806E805D804C80BB81AA81998107
:104294008881F0E0EC0FFD1FEF01089501E008951F
:1042A4009A938A93C80102C00E946F218C010E94D4
:1042B4007D22202F012B69F4EEEBFBE0208131817C
:1042C40000E02030300781F3E091BE0BF32F099515
:1042D400EDCF022F8991999108950C94D71F20E076
:1042E40008D0E9F708953BBF27913BB702D0D9F72F
:1042F40008952D9301501040202F212B089500EC98
:10430400402E05E4502E00E0602EF201362D6BBEE7
:1043140007911691F201EE5FFF4F3F4F3BBFA7910C
:10432400B691F201362DEC5FFF4F3F4F3BBF4791F3
:1043340057916691242F252B262B21F0FA01362F35
:10434400D2DF01C0CCDF07E0400E00E0501E601E4B
:10435400A201662D4E3C55446040B8F20895E0EC4D
:10436400FBE000811181012B19F000E010E00895B9
:1043740000E212E00083118320E035E0F80120839D
:10438400318308950D01D801012B09F455C012970A
:10439400ED91FC911197349708F44EC002EC1BE0A8
:1043A400F80153D019F0A217B30728F4FD012283B2
:1043B4003383F80123C0F90148D019F02A173B07C9
:1043C400D0F3408151819F01240F351FA217B307F9
:1043D40098F12A173B0741F42D913C91420F531F4A
:1043E40040835183DF010CC030D021F027D0261741
:1043F400370710F112962D933C931397A283B3833E
:10440400FD0123D0C9F01AD062177307A9F420E084
:10441400F80120832183FD010281F381E02F2081B3
:1044240031814D915C91420F531F5C934E930281F5
:104434001381FD0102831383D00108954D915C9192
:104444001197BD01640F751F089522813381422F96
:10445400432B08959A938A93C80105C02E5F3F4F5A
:1044640089010E94C421E2ECFBE000811181202F2C
:10447400212B61F404EC1BE001C037D029D0F1F00A
:104484002ED0D8F322C02BD000F52FD021D0D9F7CD
:10449400E2ECFBE00081F181E02F1ED004EC1BE094
:1044A40007C0FA01408151814817590770F41DD0A3
:1044B400F801408151814217530799F70E94B121B5
:1044C4009801012B59F600E010E089919991089523
:1044D40002D0232B0895F801208131810895E081D1
:1044E400F32FFADF281739070895F80100811181A5
:1044F4000E5F1F4F08950E943621C80102960817C7
:10450400190718F000E010E047C0843000E090077D
:1045140010F484E090E08C019DDF202F212B91F397
:10452400DADFF901A081B1811497A817B90730F433
:1045340022813381D8012D933C9316C0280F391F53
:10454400D8012D933C934281538129D04D935C93A0
:1045540040815181481B590BD8012D91BC91A22F48
:104564004D935C9380839183D8012D913C91232BAF
:1045740059F015D02D913C91232B31F0D8010D9198
:104584001C910E5F1F4F02C000E010E0A2ECBBE0E4
:104594000D931C9332968F01E4E00C944721D801CB
:1045A4002D91D901129608954572726F72206D6F24
:1045B40064756C652073656E640D0A000B03BB089B
:1045C4000000001B01A007CE4500464E2B7353206C
:1045D4000000000000316253C4F5A697B988DBEAF5
:1045E4007D4C1F2E4372211087B6E5D4FACB98A9CF
:1045F4003E0F5C6D86B7E4D5427320113F0E5D6CAF
:10460400FBCA99A8C5F4A796013063527C4D1E2FAE
:10461400B889DAEB3D0C5F6EF9C89BAA84B5E6D77E
:10462400407122137E4F1C2DBA8BD8E9C7F6A5948E
:1046340003326150BB8AD9E87F4E1D2C023360518E
:10464400C6F7A495F8C99AAB3C0D5E6F417023126E
:1046540085B4E7D67A4B1829BE8FDCEDC3F2A1905E
:104664000736655439085B6AFDCC9FAE80B1E2D34E
:1046740044752617FCCD9EAF38095A6B457427162E
:1046840081B0E3D2BF8EDDEC7B4A1928063764552E
:10469400C2F3A0914776251483B2E1D0FECF9CAD3E
:1046A4003A0B586904356657C0F1A293BD8CDFEE0E
:1046B40079481B2AC1F0A3920534675678491A2B0E
:1046C400BC8DDEEF82B3E0D1467724153B0A5968EE
:1046D400FFCE9DAC01FF983A0303030303030303D6
:0546E40050460000013A
:0400000300000000F9
:00000001FF
